{
	"sadc.sol": {
		"Jessieinu": {
			"abi": [
				{
					"inputs": [],
					"stateMutability": "nonpayable",
					"type": "constructor"
				},
				{
					"anonymous": false,
					"inputs": [
						{
							"indexed": true,
							"internalType": "address",
							"name": "owner",
							"type": "address"
						},
						{
							"indexed": true,
							"internalType": "address",
							"name": "spender",
							"type": "address"
						},
						{
							"indexed": false,
							"internalType": "uint256",
							"name": "value",
							"type": "uint256"
						}
					],
					"name": "Approval",
					"type": "event"
				},
				{
					"anonymous": false,
					"inputs": [
						{
							"indexed": true,
							"internalType": "address",
							"name": "previousOwner",
							"type": "address"
						},
						{
							"indexed": true,
							"internalType": "address",
							"name": "newOwner",
							"type": "address"
						}
					],
					"name": "OwnershipTransferred",
					"type": "event"
				},
				{
					"anonymous": false,
					"inputs": [
						{
							"indexed": true,
							"internalType": "address",
							"name": "from",
							"type": "address"
						},
						{
							"indexed": true,
							"internalType": "address",
							"name": "to",
							"type": "address"
						},
						{
							"indexed": false,
							"internalType": "uint256",
							"name": "value",
							"type": "uint256"
						}
					],
					"name": "Transfer",
					"type": "event"
				},
				{
					"inputs": [],
					"name": "_maxTxAmount",
					"outputs": [
						{
							"internalType": "uint256",
							"name": "",
							"type": "uint256"
						}
					],
					"stateMutability": "view",
					"type": "function"
				},
				{
					"inputs": [
						{
							"internalType": "address",
							"name": "owner",
							"type": "address"
						},
						{
							"internalType": "address",
							"name": "spender",
							"type": "address"
						}
					],
					"name": "allowance",
					"outputs": [
						{
							"internalType": "uint256",
							"name": "",
							"type": "uint256"
						}
					],
					"stateMutability": "view",
					"type": "function"
				},
				{
					"inputs": [
						{
							"internalType": "address",
							"name": "spender",
							"type": "address"
						},
						{
							"internalType": "uint256",
							"name": "amount",
							"type": "uint256"
						}
					],
					"name": "approve",
					"outputs": [
						{
							"internalType": "bool",
							"name": "",
							"type": "bool"
						}
					],
					"stateMutability": "nonpayable",
					"type": "function"
				},
				{
					"inputs": [
						{
							"internalType": "address",
							"name": "account",
							"type": "address"
						}
					],
					"name": "balanceOf",
					"outputs": [
						{
							"internalType": "uint256",
							"name": "",
							"type": "uint256"
						}
					],
					"stateMutability": "view",
					"type": "function"
				},
				{
					"inputs": [],
					"name": "decimals",
					"outputs": [
						{
							"internalType": "uint8",
							"name": "",
							"type": "uint8"
						}
					],
					"stateMutability": "view",
					"type": "function"
				},
				{
					"inputs": [
						{
							"internalType": "address",
							"name": "spender",
							"type": "address"
						},
						{
							"internalType": "uint256",
							"name": "subtractedValue",
							"type": "uint256"
						}
					],
					"name": "decreaseAllowance",
					"outputs": [
						{
							"internalType": "bool",
							"name": "",
							"type": "bool"
						}
					],
					"stateMutability": "nonpayable",
					"type": "function"
				},
				{
					"inputs": [
						{
							"internalType": "address",
							"name": "account",
							"type": "address"
						}
					],
					"name": "excludeAccount",
					"outputs": [],
					"stateMutability": "nonpayable",
					"type": "function"
				},
				{
					"inputs": [
						{
							"internalType": "address",
							"name": "account",
							"type": "address"
						}
					],
					"name": "includeAccount",
					"outputs": [],
					"stateMutability": "nonpayable",
					"type": "function"
				},
				{
					"inputs": [
						{
							"internalType": "address",
							"name": "spender",
							"type": "address"
						},
						{
							"internalType": "uint256",
							"name": "addedValue",
							"type": "uint256"
						}
					],
					"name": "increaseAllowance",
					"outputs": [
						{
							"internalType": "bool",
							"name": "",
							"type": "bool"
						}
					],
					"stateMutability": "nonpayable",
					"type": "function"
				},
				{
					"inputs": [
						{
							"internalType": "address",
							"name": "account",
							"type": "address"
						}
					],
					"name": "isExcluded",
					"outputs": [
						{
							"internalType": "bool",
							"name": "",
							"type": "bool"
						}
					],
					"stateMutability": "view",
					"type": "function"
				},
				{
					"inputs": [],
					"name": "name",
					"outputs": [
						{
							"internalType": "string",
							"name": "",
							"type": "string"
						}
					],
					"stateMutability": "view",
					"type": "function"
				},
				{
					"inputs": [],
					"name": "owner",
					"outputs": [
						{
							"internalType": "address",
							"name": "",
							"type": "address"
						}
					],
					"stateMutability": "view",
					"type": "function"
				},
				{
					"inputs": [
						{
							"internalType": "uint256",
							"name": "tAmount",
							"type": "uint256"
						}
					],
					"name": "reflect",
					"outputs": [],
					"stateMutability": "nonpayable",
					"type": "function"
				},
				{
					"inputs": [
						{
							"internalType": "uint256",
							"name": "tAmount",
							"type": "uint256"
						},
						{
							"internalType": "bool",
							"name": "deductTransferFee",
							"type": "bool"
						}
					],
					"name": "reflectionFromToken",
					"outputs": [
						{
							"internalType": "uint256",
							"name": "",
							"type": "uint256"
						}
					],
					"stateMutability": "view",
					"type": "function"
				},
				{
					"inputs": [],
					"name": "renounceOwnership",
					"outputs": [],
					"stateMutability": "nonpayable",
					"type": "function"
				},
				{
					"inputs": [
						{
							"internalType": "uint256",
							"name": "maxTxPercent",
							"type": "uint256"
						}
					],
					"name": "setMaxTxPercent",
					"outputs": [],
					"stateMutability": "nonpayable",
					"type": "function"
				},
				{
					"inputs": [],
					"name": "symbol",
					"outputs": [
						{
							"internalType": "string",
							"name": "",
							"type": "string"
						}
					],
					"stateMutability": "view",
					"type": "function"
				},
				{
					"inputs": [
						{
							"internalType": "uint256",
							"name": "rAmount",
							"type": "uint256"
						}
					],
					"name": "tokenFromReflection",
					"outputs": [
						{
							"internalType": "uint256",
							"name": "",
							"type": "uint256"
						}
					],
					"stateMutability": "view",
					"type": "function"
				},
				{
					"inputs": [],
					"name": "totalFees",
					"outputs": [
						{
							"internalType": "uint256",
							"name": "",
							"type": "uint256"
						}
					],
					"stateMutability": "view",
					"type": "function"
				},
				{
					"inputs": [],
					"name": "totalSupply",
					"outputs": [
						{
							"internalType": "uint256",
							"name": "",
							"type": "uint256"
						}
					],
					"stateMutability": "view",
					"type": "function"
				},
				{
					"inputs": [
						{
							"internalType": "address",
							"name": "recipient",
							"type": "address"
						},
						{
							"internalType": "uint256",
							"name": "amount",
							"type": "uint256"
						}
					],
					"name": "transfer",
					"outputs": [
						{
							"internalType": "bool",
							"name": "",
							"type": "bool"
						}
					],
					"stateMutability": "nonpayable",
					"type": "function"
				},
				{
					"inputs": [
						{
							"internalType": "address",
							"name": "sender",
							"type": "address"
						},
						{
							"internalType": "address",
							"name": "recipient",
							"type": "address"
						},
						{
							"internalType": "uint256",
							"name": "amount",
							"type": "uint256"
						}
					],
					"name": "transferFrom",
					"outputs": [
						{
							"internalType": "bool",
							"name": "",
							"type": "bool"
						}
					],
					"stateMutability": "nonpayable",
					"type": "function"
				},
				{
					"inputs": [
						{
							"internalType": "address",
							"name": "newOwner",
							"type": "address"
						}
					],
					"name": "transferOwnership",
					"outputs": [],
					"stateMutability": "nonpayable",
					"type": "function"
				}
			],
			"devdoc": {
				"kind": "dev",
				"methods": {
					"allowance(address,address)": {
						"details": "Returns the remaining number of tokens that `spender` will be allowed to spend on behalf of `owner` through {transferFrom}. This is zero by default. This value changes when {approve} or {transferFrom} are called."
					},
					"approve(address,uint256)": {
						"details": "Sets `amount` as the allowance of `spender` over the caller's tokens. Returns a boolean value indicating whether the operation succeeded. IMPORTANT: Beware that changing an allowance with this method brings the risk that someone may use both the old and the new allowance by unfortunate transaction ordering. One possible solution to mitigate this race condition is to first reduce the spender's allowance to 0 and set the desired value afterwards: https://github.com/ethereum/EIPs/issues/20#issuecomment-263524729 Emits an {Approval} event."
					},
					"balanceOf(address)": {
						"details": "Returns the amount of tokens owned by `account`."
					},
					"owner()": {
						"details": "Returns the address of the current owner."
					},
					"renounceOwnership()": {
						"details": "Leaves the contract without owner. It will not be possible to call `onlyOwner` functions anymore. Can only be called by the current owner. NOTE: Renouncing ownership will leave the contract without an owner, thereby removing any functionality that is only available to the owner."
					},
					"totalSupply()": {
						"details": "Returns the amount of tokens in existence."
					},
					"transfer(address,uint256)": {
						"details": "Moves `amount` tokens from the caller's account to `recipient`. Returns a boolean value indicating whether the operation succeeded. Emits a {Transfer} event."
					},
					"transferFrom(address,address,uint256)": {
						"details": "Moves `amount` tokens from `sender` to `recipient` using the allowance mechanism. `amount` is then deducted from the caller's allowance. Returns a boolean value indicating whether the operation succeeded. Emits a {Transfer} event."
					},
					"transferOwnership(address)": {
						"details": "Transfers ownership of the contract to a new account (`newOwner`). Can only be called by the current owner."
					}
				},
				"version": 1
			},
			"evm": {
				"assembly": "    /* \"sadc.sol\":15750:26302  contract Jessieinu is Context, IERC20, Ownable {\r... */\n  mstore(0x40, 0x80)\n    /* \"sadc.sol\":16226:16241  7000000000000e9 */\n  0x017b7883c06916600000\n    /* \"sadc.sol\":16182:16183  0 */\n  0x00\n    /* \"sadc.sol\":16173:16184  ~uint256(0) */\n  not\n    /* \"sadc.sol\":16282:16295  MAX % _tTotal */\n  dup2\n  tag_1\n  jumpi\n  invalid\ntag_1:\n  mod\n    /* \"sadc.sol\":16182:16183  0 */\n  0x00\n    /* \"sadc.sol\":16173:16184  ~uint256(0) */\n  not\n    /* \"sadc.sol\":16275:16296  MAX - (MAX % _tTotal) */\n  sub\n    /* \"sadc.sol\":16248:16297  uint256 private _rTotal = (MAX - (MAX % _tTotal)) */\n  0x06\n  sstore\n    /* \"sadc.sol\":16339:16374  string private _name = 'Jessie Inu' */\n  mload(0x40)\n  dup1\n  0x40\n  add\n  0x40\n  mstore\n  dup1\n  0x0a\n  dup2\n  mstore\n  0x20\n  add\n  0x4a657373696520496e7500000000000000000000000000000000000000000000\n  dup2\n  mstore\n  pop\n  0x08\n  swap1\n  dup1\n  mload\n  swap1\n  0x20\n  add\n  swap1\n  tag_2\n  swap3\n  swap2\n  swap1\n  tag_3\n  jump\t// in\ntag_2:\n  pop\n    /* \"sadc.sol\":16381:16414  string private _symbol = 'Jessie' */\n  mload(0x40)\n  dup1\n  0x40\n  add\n  0x40\n  mstore\n  dup1\n  0x06\n  dup2\n  mstore\n  0x20\n  add\n  0x4a65737369650000000000000000000000000000000000000000000000000000\n  dup2\n  mstore\n  pop\n  0x09\n  swap1\n  dup1\n  mload\n  swap1\n  0x20\n  add\n  swap1\n  tag_4\n  swap3\n  swap2\n  swap1\n  tag_3\n  jump\t// in\ntag_4:\n  pop\n    /* \"sadc.sol\":16447:16448  9 */\n  0x09\n    /* \"sadc.sol\":16421:16448  uint8 private _decimals = 9 */\n  0x0a\n  exp(0x0100, 0x00)\n  dup2\n  sload\n  dup2\n  0xff\n  mul\n  not\n  and\n  swap1\n  dup4\n  0xff\n  and\n  mul\n  or\n  swap1\n  sstore\n  pop\n    /* \"sadc.sol\":16491:16506  7000000000000e9 */\n  0x017b7883c06916600000\n    /* \"sadc.sol\":16461:16506  uint256 public _maxTxAmount = 7000000000000e9 */\n  0x0b\n  sstore\n    /* \"sadc.sol\":16515:16646  constructor () public {\r... */\n  callvalue\n  dup1\n  iszero\n  tag_5\n  jumpi\n  0x00\n  dup1\n  revert\ntag_5:\n  pop\n    /* \"sadc.sol\":14341:14358  address msgSender */\n  0x00\n    /* \"sadc.sol\":14361:14373  _msgSender() */\n  tag_9\n    /* \"sadc.sol\":14361:14371  _msgSender */\n  shl(0x20, tag_10)\n    /* \"sadc.sol\":14361:14373  _msgSender() */\n  0x20\n  shr\n  jump\t// in\ntag_9:\n    /* \"sadc.sol\":14341:14373  address msgSender = _msgSender() */\n  swap1\n  pop\n    /* \"sadc.sol\":14393:14402  msgSender */\n  dup1\n    /* \"sadc.sol\":14384:14390  _owner */\n  0x00\n  dup1\n    /* \"sadc.sol\":14384:14402  _owner = msgSender */\n  0x0100\n  exp\n  dup2\n  sload\n  dup2\n  0xffffffffffffffffffffffffffffffffffffffff\n  mul\n  not\n  and\n  swap1\n  dup4\n  0xffffffffffffffffffffffffffffffffffffffff\n  and\n  mul\n  or\n  swap1\n  sstore\n  pop\n    /* \"sadc.sol\":14451:14460  msgSender */\n  dup1\n    /* \"sadc.sol\":14418:14461  OwnershipTransferred(address(0), msgSender) */\n  0xffffffffffffffffffffffffffffffffffffffff\n  and\n    /* \"sadc.sol\":14447:14448  0 */\n  0x00\n    /* \"sadc.sol\":14418:14461  OwnershipTransferred(address(0), msgSender) */\n  0xffffffffffffffffffffffffffffffffffffffff\n  and\n  0x8be0079c531659141344cd1fd0a4f28419497f9722a3daafe3b4186f6b6457e0\n  mload(0x40)\n  mload(0x40)\n  dup1\n  swap2\n  sub\n  swap1\n  log3\n    /* \"sadc.sol\":14306:14469  constructor () internal {\r... */\n  pop\n    /* \"sadc.sol\":16572:16579  _rTotal */\n  sload(0x06)\n    /* \"sadc.sol\":16548:16555  _rOwned */\n  0x01\n    /* \"sadc.sol\":16548:16569  _rOwned[_msgSender()] */\n  0x00\n    /* \"sadc.sol\":16556:16568  _msgSender() */\n  tag_12\n    /* \"sadc.sol\":16556:16566  _msgSender */\n  shl(0x20, tag_10)\n    /* \"sadc.sol\":16556:16568  _msgSender() */\n  0x20\n  shr\n  jump\t// in\ntag_12:\n    /* \"sadc.sol\":16548:16569  _rOwned[_msgSender()] */\n  0xffffffffffffffffffffffffffffffffffffffff\n  and\n  0xffffffffffffffffffffffffffffffffffffffff\n  and\n  dup2\n  mstore\n  0x20\n  add\n  swap1\n  dup2\n  mstore\n  0x20\n  add\n  0x00\n  keccak256\n    /* \"sadc.sol\":16548:16579  _rOwned[_msgSender()] = _rTotal */\n  dup2\n  swap1\n  sstore\n  pop\n    /* \"sadc.sol\":16616:16628  _msgSender() */\n  tag_13\n    /* \"sadc.sol\":16616:16626  _msgSender */\n  shl(0x20, tag_10)\n    /* \"sadc.sol\":16616:16628  _msgSender() */\n  0x20\n  shr\n  jump\t// in\ntag_13:\n    /* \"sadc.sol\":16595:16638  Transfer(address(0), _msgSender(), _tTotal) */\n  0xffffffffffffffffffffffffffffffffffffffff\n  and\n    /* \"sadc.sol\":16612:16613  0 */\n  0x00\n    /* \"sadc.sol\":16595:16638  Transfer(address(0), _msgSender(), _tTotal) */\n  0xffffffffffffffffffffffffffffffffffffffff\n  and\n  0xddf252ad1be2c89b69c2b068fc378daa952ba7f163c4a11628f55a4df523b3ef\n    /* \"sadc.sol\":16226:16241  7000000000000e9 */\n  0x017b7883c06916600000\n    /* \"sadc.sol\":16595:16638  Transfer(address(0), _msgSender(), _tTotal) */\n  mload(0x40)\n  dup1\n  dup3\n  dup2\n  mstore\n  0x20\n  add\n  swap2\n  pop\n  pop\n  mload(0x40)\n  dup1\n  swap2\n  sub\n  swap1\n  log3\n    /* \"sadc.sol\":15750:26302  contract Jessieinu is Context, IERC20, Ownable {\r... */\n  jump(tag_14)\n    /* \"sadc.sol\":245:351  function _msgSender() internal view virtual returns (address payable) {\r... */\ntag_10:\n    /* \"sadc.sol\":298:313  address payable */\n  0x00\n    /* \"sadc.sol\":333:343  msg.sender */\n  caller\n    /* \"sadc.sol\":326:343  return msg.sender */\n  swap1\n  pop\n    /* \"sadc.sol\":245:351  function _msgSender() internal view virtual returns (address payable) {\r... */\n  swap1\n  jump\t// out\n    /* \"sadc.sol\":15750:26302  contract Jessieinu is Context, IERC20, Ownable {\r... */\ntag_3:\n  dup3\n  dup1\n  sload\n  0x01\n  dup2\n  0x01\n  and\n  iszero\n  0x0100\n  mul\n  sub\n  and\n  0x02\n  swap1\n  div\n  swap1\n  0x00\n  mstore\n  keccak256(0x00, 0x20)\n  swap1\n  0x1f\n  add\n  0x20\n  swap1\n  div\n  dup2\n  add\n  swap3\n  dup3\n  0x1f\n  lt\n  tag_17\n  jumpi\n  dup1\n  mload\n  not(0xff)\n  and\n  dup4\n  dup1\n  add\n  or\n  dup6\n  sstore\n  jump(tag_16)\ntag_17:\n  dup3\n  dup1\n  add\n  0x01\n  add\n  dup6\n  sstore\n  dup3\n  iszero\n  tag_16\n  jumpi\n  swap2\n  dup3\n  add\ntag_18:\n  dup3\n  dup2\n  gt\n  iszero\n  tag_19\n  jumpi\n  dup3\n  mload\n  dup3\n  sstore\n  swap2\n  0x20\n  add\n  swap2\n  swap1\n  0x01\n  add\n  swap1\n  jump(tag_18)\ntag_19:\ntag_16:\n  pop\n  swap1\n  pop\n  tag_20\n  swap2\n  swap1\n  tag_21\n  jump\t// in\ntag_20:\n  pop\n  swap1\n  jump\t// out\ntag_21:\ntag_22:\n  dup1\n  dup3\n  gt\n  iszero\n  tag_23\n  jumpi\n  0x00\n  dup2\n  0x00\n  swap1\n  sstore\n  pop\n  0x01\n  add\n  jump(tag_22)\ntag_23:\n  pop\n  swap1\n  jump\t// out\ntag_14:\n  dataSize(sub_0)\n  dup1\n  dataOffset(sub_0)\n  0x00\n  codecopy\n  0x00\n  return\nstop\n\nsub_0: assembly {\n        /* \"sadc.sol\":15750:26302  contract Jessieinu is Context, IERC20, Ownable {\r... */\n      mstore(0x40, 0x80)\n      callvalue\n      dup1\n      iszero\n      tag_1\n      jumpi\n      0x00\n      dup1\n      revert\n    tag_1:\n      pop\n      jumpi(tag_2, lt(calldatasize, 0x04))\n      shr(0xe0, calldataload(0x00))\n      dup1\n      0x715018a6\n      gt\n      tag_26\n      jumpi\n      dup1\n      0xcba0e996\n      gt\n      tag_27\n      jumpi\n      dup1\n      0xcba0e996\n      eq\n      tag_20\n      jumpi\n      dup1\n      0xd543dbeb\n      eq\n      tag_21\n      jumpi\n      dup1\n      0xdd62ed3e\n      eq\n      tag_22\n      jumpi\n      dup1\n      0xf2cc0c18\n      eq\n      tag_23\n      jumpi\n      dup1\n      0xf2fde38b\n      eq\n      tag_24\n      jumpi\n      dup1\n      0xf84354f1\n      eq\n      tag_25\n      jumpi\n      jump(tag_2)\n    tag_27:\n      dup1\n      0x715018a6\n      eq\n      tag_14\n      jumpi\n      dup1\n      0x7d1db4a5\n      eq\n      tag_15\n      jumpi\n      dup1\n      0x8da5cb5b\n      eq\n      tag_16\n      jumpi\n      dup1\n      0x95d89b41\n      eq\n      tag_17\n      jumpi\n      dup1\n      0xa457c2d7\n      eq\n      tag_18\n      jumpi\n      dup1\n      0xa9059cbb\n      eq\n      tag_19\n      jumpi\n      jump(tag_2)\n    tag_26:\n      dup1\n      0x23b872dd\n      gt\n      tag_28\n      jumpi\n      dup1\n      0x23b872dd\n      eq\n      tag_8\n      jumpi\n      dup1\n      0x2d838119\n      eq\n      tag_9\n      jumpi\n      dup1\n      0x313ce567\n      eq\n      tag_10\n      jumpi\n      dup1\n      0x39509351\n      eq\n      tag_11\n      jumpi\n      dup1\n      0x4549b039\n      eq\n      tag_12\n      jumpi\n      dup1\n      0x70a08231\n      eq\n      tag_13\n      jumpi\n      jump(tag_2)\n    tag_28:\n      dup1\n      0x053ab182\n      eq\n      tag_3\n      jumpi\n      dup1\n      0x06fdde03\n      eq\n      tag_4\n      jumpi\n      dup1\n      0x095ea7b3\n      eq\n      tag_5\n      jumpi\n      dup1\n      0x13114a9d\n      eq\n      tag_6\n      jumpi\n      dup1\n      0x18160ddd\n      eq\n      tag_7\n      jumpi\n    tag_2:\n      0x00\n      dup1\n      revert\n        /* \"sadc.sol\":18952:19328  function reflect(uint256 tAmount) public {\r... */\n    tag_3:\n      tag_29\n      0x04\n      dup1\n      calldatasize\n      sub\n      0x20\n      dup2\n      lt\n      iszero\n      tag_30\n      jumpi\n      0x00\n      dup1\n      revert\n    tag_30:\n      dup2\n      add\n      swap1\n      dup1\n      dup1\n      calldataload\n      swap1\n      0x20\n      add\n      swap1\n      swap3\n      swap2\n      swap1\n      pop\n      pop\n      pop\n      tag_31\n      jump\t// in\n    tag_29:\n      stop\n        /* \"sadc.sol\":16654:16737  function name() public view returns (string memory) {\r... */\n    tag_4:\n      tag_32\n      tag_33\n      jump\t// in\n    tag_32:\n      mload(0x40)\n      dup1\n      dup1\n      0x20\n      add\n      dup3\n      dup2\n      sub\n      dup3\n      mstore\n      dup4\n      dup2\n      dup2\n      mload\n      dup2\n      mstore\n      0x20\n      add\n      swap2\n      pop\n      dup1\n      mload\n      swap1\n      0x20\n      add\n      swap1\n      dup1\n      dup4\n      dup4\n      0x00\n    tag_34:\n      dup4\n      dup2\n      lt\n      iszero\n      tag_36\n      jumpi\n      dup1\n      dup3\n      add\n      mload\n      dup2\n      dup5\n      add\n      mstore\n      0x20\n      dup2\n      add\n      swap1\n      pop\n      jump(tag_34)\n    tag_36:\n      pop\n      pop\n      pop\n      pop\n      swap1\n      pop\n      swap1\n      dup2\n      add\n      swap1\n      0x1f\n      and\n      dup1\n      iszero\n      tag_37\n      jumpi\n      dup1\n      dup3\n      sub\n      dup1\n      mload\n      0x01\n      dup4\n      0x20\n      sub\n      0x0100\n      exp\n      sub\n      not\n      and\n      dup2\n      mstore\n      0x20\n      add\n      swap2\n      pop\n    tag_37:\n      pop\n      swap3\n      pop\n      pop\n      pop\n      mload(0x40)\n      dup1\n      swap2\n      sub\n      swap1\n      return\n        /* \"sadc.sol\":17566:17727  function approve(address spender, uint256 amount) public override returns (bool) {\r... */\n    tag_5:\n      tag_38\n      0x04\n      dup1\n      calldatasize\n      sub\n      0x40\n      dup2\n      lt\n      iszero\n      tag_39\n      jumpi\n      0x00\n      dup1\n      revert\n    tag_39:\n      dup2\n      add\n      swap1\n      dup1\n      dup1\n      calldataload\n      0xffffffffffffffffffffffffffffffffffffffff\n      and\n      swap1\n      0x20\n      add\n      swap1\n      swap3\n      swap2\n      swap1\n      dup1\n      calldataload\n      swap1\n      0x20\n      add\n      swap1\n      swap3\n      swap2\n      swap1\n      pop\n      pop\n      pop\n      tag_40\n      jump\t// in\n    tag_38:\n      mload(0x40)\n      dup1\n      dup3\n      iszero\n      iszero\n      dup2\n      mstore\n      0x20\n      add\n      swap2\n      pop\n      pop\n      mload(0x40)\n      dup1\n      swap2\n      sub\n      swap1\n      return\n        /* \"sadc.sol\":18677:18764  function totalFees() public view returns (uint256) {\r... */\n    tag_6:\n      tag_41\n      tag_42\n      jump\t// in\n    tag_41:\n      mload(0x40)\n      dup1\n      dup3\n      dup2\n      mstore\n      0x20\n      add\n      swap2\n      pop\n      pop\n      mload(0x40)\n      dup1\n      swap2\n      sub\n      swap1\n      return\n        /* \"sadc.sol\":16931:17026  function totalSupply() public view override returns (uint256) {\r... */\n    tag_7:\n      tag_43\n      tag_44\n      jump\t// in\n    tag_43:\n      mload(0x40)\n      dup1\n      dup3\n      dup2\n      mstore\n      0x20\n      add\n      swap2\n      pop\n      pop\n      mload(0x40)\n      dup1\n      swap2\n      sub\n      swap1\n      return\n        /* \"sadc.sol\":17735:18048  function transferFrom(address sender, address recipient, uint256 amount) public override returns (bool) {\r... */\n    tag_8:\n      tag_45\n      0x04\n      dup1\n      calldatasize\n      sub\n      0x60\n      dup2\n      lt\n      iszero\n      tag_46\n      jumpi\n      0x00\n      dup1\n      revert\n    tag_46:\n      dup2\n      add\n      swap1\n      dup1\n      dup1\n      calldataload\n      0xffffffffffffffffffffffffffffffffffffffff\n      and\n      swap1\n      0x20\n      add\n      swap1\n      swap3\n      swap2\n      swap1\n      dup1\n      calldataload\n      0xffffffffffffffffffffffffffffffffffffffff\n      and\n      swap1\n      0x20\n      add\n      swap1\n      swap3\n      swap2\n      swap1\n      dup1\n      calldataload\n      swap1\n      0x20\n      add\n      swap1\n      swap3\n      swap2\n      swap1\n      pop\n      pop\n      pop\n      tag_47\n      jump\t// in\n    tag_45:\n      mload(0x40)\n      dup1\n      dup3\n      iszero\n      iszero\n      dup2\n      mstore\n      0x20\n      add\n      swap2\n      pop\n      pop\n      mload(0x40)\n      dup1\n      swap2\n      sub\n      swap1\n      return\n        /* \"sadc.sol\":19778:20031  function tokenFromReflection(uint256 rAmount) public view returns(uint256) {\r... */\n    tag_9:\n      tag_48\n      0x04\n      dup1\n      calldatasize\n      sub\n      0x20\n      dup2\n      lt\n      iszero\n      tag_49\n      jumpi\n      0x00\n      dup1\n      revert\n    tag_49:\n      dup2\n      add\n      swap1\n      dup1\n      dup1\n      calldataload\n      swap1\n      0x20\n      add\n      swap1\n      swap3\n      swap2\n      swap1\n      pop\n      pop\n      pop\n      tag_50\n      jump\t// in\n    tag_48:\n      mload(0x40)\n      dup1\n      dup3\n      dup2\n      mstore\n      0x20\n      add\n      swap2\n      pop\n      pop\n      mload(0x40)\n      dup1\n      swap2\n      sub\n      swap1\n      return\n        /* \"sadc.sol\":16840:16923  function decimals() public view returns (uint8) {\r... */\n    tag_10:\n      tag_51\n      tag_52\n      jump\t// in\n    tag_51:\n      mload(0x40)\n      dup1\n      dup3\n      0xff\n      and\n      dup2\n      mstore\n      0x20\n      add\n      swap2\n      pop\n      pop\n      mload(0x40)\n      dup1\n      swap2\n      sub\n      swap1\n      return\n        /* \"sadc.sol\":18056:18274  function increaseAllowance(address spender, uint256 addedValue) public virtual returns (bool) {\r... */\n    tag_11:\n      tag_53\n      0x04\n      dup1\n      calldatasize\n      sub\n      0x40\n      dup2\n      lt\n      iszero\n      tag_54\n      jumpi\n      0x00\n      dup1\n      revert\n    tag_54:\n      dup2\n      add\n      swap1\n      dup1\n      dup1\n      calldataload\n      0xffffffffffffffffffffffffffffffffffffffff\n      and\n      swap1\n      0x20\n      add\n      swap1\n      swap3\n      swap2\n      swap1\n      dup1\n      calldataload\n      swap1\n      0x20\n      add\n      swap1\n      swap3\n      swap2\n      swap1\n      pop\n      pop\n      pop\n      tag_55\n      jump\t// in\n    tag_53:\n      mload(0x40)\n      dup1\n      dup3\n      iszero\n      iszero\n      dup2\n      mstore\n      0x20\n      add\n      swap2\n      pop\n      pop\n      mload(0x40)\n      dup1\n      swap2\n      sub\n      swap1\n      return\n        /* \"sadc.sol\":19336:19770  function reflectionFromToken(uint256 tAmount, bool deductTransferFee) public view returns(uint256) {\r... */\n    tag_12:\n      tag_56\n      0x04\n      dup1\n      calldatasize\n      sub\n      0x40\n      dup2\n      lt\n      iszero\n      tag_57\n      jumpi\n      0x00\n      dup1\n      revert\n    tag_57:\n      dup2\n      add\n      swap1\n      dup1\n      dup1\n      calldataload\n      swap1\n      0x20\n      add\n      swap1\n      swap3\n      swap2\n      swap1\n      dup1\n      calldataload\n      iszero\n      iszero\n      swap1\n      0x20\n      add\n      swap1\n      swap3\n      swap2\n      swap1\n      pop\n      pop\n      pop\n      tag_58\n      jump\t// in\n    tag_56:\n      mload(0x40)\n      dup1\n      dup3\n      dup2\n      mstore\n      0x20\n      add\n      swap2\n      pop\n      pop\n      mload(0x40)\n      dup1\n      swap2\n      sub\n      swap1\n      return\n        /* \"sadc.sol\":17034:17232  function balanceOf(address account) public view override returns (uint256) {\r... */\n    tag_13:\n      tag_59\n      0x04\n      dup1\n      calldatasize\n      sub\n      0x20\n      dup2\n      lt\n      iszero\n      tag_60\n      jumpi\n      0x00\n      dup1\n      revert\n    tag_60:\n      dup2\n      add\n      swap1\n      dup1\n      dup1\n      calldataload\n      0xffffffffffffffffffffffffffffffffffffffff\n      and\n      swap1\n      0x20\n      add\n      swap1\n      swap3\n      swap2\n      swap1\n      pop\n      pop\n      pop\n      tag_61\n      jump\t// in\n    tag_59:\n      mload(0x40)\n      dup1\n      dup3\n      dup2\n      mstore\n      0x20\n      add\n      swap2\n      pop\n      pop\n      mload(0x40)\n      dup1\n      swap2\n      sub\n      swap1\n      return\n        /* \"sadc.sol\":15192:15340  function renounceOwnership() public virtual onlyOwner {\r... */\n    tag_14:\n      tag_62\n      tag_63\n      jump\t// in\n    tag_62:\n      stop\n        /* \"sadc.sol\":16461:16506  uint256 public _maxTxAmount = 7000000000000e9 */\n    tag_15:\n      tag_64\n      tag_65\n      jump\t// in\n    tag_64:\n      mload(0x40)\n      dup1\n      dup3\n      dup2\n      mstore\n      0x20\n      add\n      swap2\n      pop\n      pop\n      mload(0x40)\n      dup1\n      swap2\n      sub\n      swap1\n      return\n        /* \"sadc.sol\":14550:14629  function owner() public view returns (address) {\r... */\n    tag_16:\n      tag_66\n      tag_67\n      jump\t// in\n    tag_66:\n      mload(0x40)\n      dup1\n      dup3\n      0xffffffffffffffffffffffffffffffffffffffff\n      and\n      dup2\n      mstore\n      0x20\n      add\n      swap2\n      pop\n      pop\n      mload(0x40)\n      dup1\n      swap2\n      sub\n      swap1\n      return\n        /* \"sadc.sol\":16745:16832  function symbol() public view returns (string memory) {\r... */\n    tag_17:\n      tag_68\n      tag_69\n      jump\t// in\n    tag_68:\n      mload(0x40)\n      dup1\n      dup1\n      0x20\n      add\n      dup3\n      dup2\n      sub\n      dup3\n      mstore\n      dup4\n      dup2\n      dup2\n      mload\n      dup2\n      mstore\n      0x20\n      add\n      swap2\n      pop\n      dup1\n      mload\n      swap1\n      0x20\n      add\n      swap1\n      dup1\n      dup4\n      dup4\n      0x00\n    tag_70:\n      dup4\n      dup2\n      lt\n      iszero\n      tag_72\n      jumpi\n      dup1\n      dup3\n      add\n      mload\n      dup2\n      dup5\n      add\n      mstore\n      0x20\n      dup2\n      add\n      swap1\n      pop\n      jump(tag_70)\n    tag_72:\n      pop\n      pop\n      pop\n      pop\n      swap1\n      pop\n      swap1\n      dup2\n      add\n      swap1\n      0x1f\n      and\n      dup1\n      iszero\n      tag_73\n      jumpi\n      dup1\n      dup3\n      sub\n      dup1\n      mload\n      0x01\n      dup4\n      0x20\n      sub\n      0x0100\n      exp\n      sub\n      not\n      and\n      dup2\n      mstore\n      0x20\n      add\n      swap2\n      pop\n    tag_73:\n      pop\n      swap3\n      pop\n      pop\n      pop\n      mload(0x40)\n      dup1\n      swap2\n      sub\n      swap1\n      return\n        /* \"sadc.sol\":18282:18551  function decreaseAllowance(address spender, uint256 subtractedValue) public virtual returns (bool) {\r... */\n    tag_18:\n      tag_74\n      0x04\n      dup1\n      calldatasize\n      sub\n      0x40\n      dup2\n      lt\n      iszero\n      tag_75\n      jumpi\n      0x00\n      dup1\n      revert\n    tag_75:\n      dup2\n      add\n      swap1\n      dup1\n      dup1\n      calldataload\n      0xffffffffffffffffffffffffffffffffffffffff\n      and\n      swap1\n      0x20\n      add\n      swap1\n      swap3\n      swap2\n      swap1\n      dup1\n      calldataload\n      swap1\n      0x20\n      add\n      swap1\n      swap3\n      swap2\n      swap1\n      pop\n      pop\n      pop\n      tag_76\n      jump\t// in\n    tag_74:\n      mload(0x40)\n      dup1\n      dup3\n      iszero\n      iszero\n      dup2\n      mstore\n      0x20\n      add\n      swap2\n      pop\n      pop\n      mload(0x40)\n      dup1\n      swap2\n      sub\n      swap1\n      return\n        /* \"sadc.sol\":17240:17407  function transfer(address recipient, uint256 amount) public override returns (bool) {\r... */\n    tag_19:\n      tag_77\n      0x04\n      dup1\n      calldatasize\n      sub\n      0x40\n      dup2\n      lt\n      iszero\n      tag_78\n      jumpi\n      0x00\n      dup1\n      revert\n    tag_78:\n      dup2\n      add\n      swap1\n      dup1\n      dup1\n      calldataload\n      0xffffffffffffffffffffffffffffffffffffffff\n      and\n      swap1\n      0x20\n      add\n      swap1\n      swap3\n      swap2\n      swap1\n      dup1\n      calldataload\n      swap1\n      0x20\n      add\n      swap1\n      swap3\n      swap2\n      swap1\n      pop\n      pop\n      pop\n      tag_79\n      jump\t// in\n    tag_77:\n      mload(0x40)\n      dup1\n      dup3\n      iszero\n      iszero\n      dup2\n      mstore\n      0x20\n      add\n      swap2\n      pop\n      pop\n      mload(0x40)\n      dup1\n      swap2\n      sub\n      swap1\n      return\n        /* \"sadc.sol\":18559:18669  function isExcluded(address account) public view returns (bool) {\r... */\n    tag_20:\n      tag_80\n      0x04\n      dup1\n      calldatasize\n      sub\n      0x20\n      dup2\n      lt\n      iszero\n      tag_81\n      jumpi\n      0x00\n      dup1\n      revert\n    tag_81:\n      dup2\n      add\n      swap1\n      dup1\n      dup1\n      calldataload\n      0xffffffffffffffffffffffffffffffffffffffff\n      and\n      swap1\n      0x20\n      add\n      swap1\n      swap3\n      swap2\n      swap1\n      pop\n      pop\n      pop\n      tag_82\n      jump\t// in\n    tag_80:\n      mload(0x40)\n      dup1\n      dup3\n      iszero\n      iszero\n      dup2\n      mstore\n      0x20\n      add\n      swap2\n      pop\n      pop\n      mload(0x40)\n      dup1\n      swap2\n      sub\n      swap1\n      return\n        /* \"sadc.sol\":18782:18944  function setMaxTxPercent(uint256 maxTxPercent) external onlyOwner() {\r... */\n    tag_21:\n      tag_83\n      0x04\n      dup1\n      calldatasize\n      sub\n      0x20\n      dup2\n      lt\n      iszero\n      tag_84\n      jumpi\n      0x00\n      dup1\n      revert\n    tag_84:\n      dup2\n      add\n      swap1\n      dup1\n      dup1\n      calldataload\n      swap1\n      0x20\n      add\n      swap1\n      swap3\n      swap2\n      swap1\n      pop\n      pop\n      pop\n      tag_85\n      jump\t// in\n    tag_83:\n      stop\n        /* \"sadc.sol\":17415:17558  function allowance(address owner, address spender) public view override returns (uint256) {\r... */\n    tag_22:\n      tag_86\n      0x04\n      dup1\n      calldatasize\n      sub\n      0x40\n      dup2\n      lt\n      iszero\n      tag_87\n      jumpi\n      0x00\n      dup1\n      revert\n    tag_87:\n      dup2\n      add\n      swap1\n      dup1\n      dup1\n      calldataload\n      0xffffffffffffffffffffffffffffffffffffffff\n      and\n      swap1\n      0x20\n      add\n      swap1\n      swap3\n      swap2\n      swap1\n      dup1\n      calldataload\n      0xffffffffffffffffffffffffffffffffffffffff\n      and\n      swap1\n      0x20\n      add\n      swap1\n      swap3\n      swap2\n      swap1\n      pop\n      pop\n      pop\n      tag_88\n      jump\t// in\n    tag_86:\n      mload(0x40)\n      dup1\n      dup3\n      dup2\n      mstore\n      0x20\n      add\n      swap2\n      pop\n      pop\n      mload(0x40)\n      dup1\n      swap2\n      sub\n      swap1\n      return\n        /* \"sadc.sol\":20039:20371  function excludeAccount(address account) external onlyOwner() {\r... */\n    tag_23:\n      tag_89\n      0x04\n      dup1\n      calldatasize\n      sub\n      0x20\n      dup2\n      lt\n      iszero\n      tag_90\n      jumpi\n      0x00\n      dup1\n      revert\n    tag_90:\n      dup2\n      add\n      swap1\n      dup1\n      dup1\n      calldataload\n      0xffffffffffffffffffffffffffffffffffffffff\n      and\n      swap1\n      0x20\n      add\n      swap1\n      swap3\n      swap2\n      swap1\n      pop\n      pop\n      pop\n      tag_91\n      jump\t// in\n    tag_89:\n      stop\n        /* \"sadc.sol\":15495:15739  function transferOwnership(address newOwner) public virtual onlyOwner {\r... */\n    tag_24:\n      tag_92\n      0x04\n      dup1\n      calldatasize\n      sub\n      0x20\n      dup2\n      lt\n      iszero\n      tag_93\n      jumpi\n      0x00\n      dup1\n      revert\n    tag_93:\n      dup2\n      add\n      swap1\n      dup1\n      dup1\n      calldataload\n      0xffffffffffffffffffffffffffffffffffffffff\n      and\n      swap1\n      0x20\n      add\n      swap1\n      swap3\n      swap2\n      swap1\n      pop\n      pop\n      pop\n      tag_94\n      jump\t// in\n    tag_92:\n      stop\n        /* \"sadc.sol\":20379:20857  function includeAccount(address account) external onlyOwner() {\r... */\n    tag_25:\n      tag_95\n      0x04\n      dup1\n      calldatasize\n      sub\n      0x20\n      dup2\n      lt\n      iszero\n      tag_96\n      jumpi\n      0x00\n      dup1\n      revert\n    tag_96:\n      dup2\n      add\n      swap1\n      dup1\n      dup1\n      calldataload\n      0xffffffffffffffffffffffffffffffffffffffff\n      and\n      swap1\n      0x20\n      add\n      swap1\n      swap3\n      swap2\n      swap1\n      pop\n      pop\n      pop\n      tag_97\n      jump\t// in\n    tag_95:\n      stop\n        /* \"sadc.sol\":18952:19328  function reflect(uint256 tAmount) public {\r... */\n    tag_31:\n        /* \"sadc.sol\":19004:19018  address sender */\n      0x00\n        /* \"sadc.sol\":19021:19033  _msgSender() */\n      tag_99\n        /* \"sadc.sol\":19021:19031  _msgSender */\n      tag_100\n        /* \"sadc.sol\":19021:19033  _msgSender() */\n      jump\t// in\n    tag_99:\n        /* \"sadc.sol\":19004:19033  address sender = _msgSender() */\n      swap1\n      pop\n        /* \"sadc.sol\":19053:19064  _isExcluded */\n      0x04\n        /* \"sadc.sol\":19053:19072  _isExcluded[sender] */\n      0x00\n        /* \"sadc.sol\":19065:19071  sender */\n      dup3\n        /* \"sadc.sol\":19053:19072  _isExcluded[sender] */\n      0xffffffffffffffffffffffffffffffffffffffff\n      and\n      0xffffffffffffffffffffffffffffffffffffffff\n      and\n      dup2\n      mstore\n      0x20\n      add\n      swap1\n      dup2\n      mstore\n      0x20\n      add\n      0x00\n      keccak256\n      0x00\n      swap1\n      sload\n      swap1\n      0x0100\n      exp\n      swap1\n      div\n      0xff\n      and\n        /* \"sadc.sol\":19052:19072  !_isExcluded[sender] */\n      iszero\n        /* \"sadc.sol\":19044:19121  require(!_isExcluded[sender], \"Excluded addresses cannot call this function\") */\n      tag_101\n      jumpi\n      mload(0x40)\n      0x08c379a000000000000000000000000000000000000000000000000000000000\n      dup2\n      mstore\n      0x04\n      add\n      dup1\n      dup1\n      0x20\n      add\n      dup3\n      dup2\n      sub\n      dup3\n      mstore\n      0x2c\n      dup2\n      mstore\n      0x20\n      add\n      dup1\n      data_ecefcaf5fbcf9ca6dcdb02298ba1da96f4ead317b0a4779917ecb2e5e7dc3ac4\n      0x2c\n      swap2\n      codecopy\n      0x40\n      add\n      swap2\n      pop\n      pop\n      mload(0x40)\n      dup1\n      swap2\n      sub\n      swap1\n      revert\n    tag_101:\n        /* \"sadc.sol\":19133:19148  uint256 rAmount */\n      0x00\n        /* \"sadc.sol\":19156:19175  _getValues(tAmount) */\n      tag_102\n        /* \"sadc.sol\":19167:19174  tAmount */\n      dup4\n        /* \"sadc.sol\":19156:19166  _getValues */\n      tag_103\n        /* \"sadc.sol\":19156:19175  _getValues(tAmount) */\n      jump\t// in\n    tag_102:\n        /* \"sadc.sol\":19132:19175  (uint256 rAmount,,,,) = _getValues(tAmount) */\n      pop\n      pop\n      pop\n      pop\n      swap1\n      pop\n        /* \"sadc.sol\":19204:19232  _rOwned[sender].sub(rAmount) */\n      tag_104\n        /* \"sadc.sol\":19224:19231  rAmount */\n      dup2\n        /* \"sadc.sol\":19204:19211  _rOwned */\n      0x01\n        /* \"sadc.sol\":19204:19219  _rOwned[sender] */\n      0x00\n        /* \"sadc.sol\":19212:19218  sender */\n      dup6\n        /* \"sadc.sol\":19204:19219  _rOwned[sender] */\n      0xffffffffffffffffffffffffffffffffffffffff\n      and\n      0xffffffffffffffffffffffffffffffffffffffff\n      and\n      dup2\n      mstore\n      0x20\n      add\n      swap1\n      dup2\n      mstore\n      0x20\n      add\n      0x00\n      keccak256\n      sload\n        /* \"sadc.sol\":19204:19223  _rOwned[sender].sub */\n      tag_105\n      swap1\n        /* \"sadc.sol\":19204:19232  _rOwned[sender].sub(rAmount) */\n      swap2\n      swap1\n      0xffffffff\n      and\n      jump\t// in\n    tag_104:\n        /* \"sadc.sol\":19186:19193  _rOwned */\n      0x01\n        /* \"sadc.sol\":19186:19201  _rOwned[sender] */\n      0x00\n        /* \"sadc.sol\":19194:19200  sender */\n      dup5\n        /* \"sadc.sol\":19186:19201  _rOwned[sender] */\n      0xffffffffffffffffffffffffffffffffffffffff\n      and\n      0xffffffffffffffffffffffffffffffffffffffff\n      and\n      dup2\n      mstore\n      0x20\n      add\n      swap1\n      dup2\n      mstore\n      0x20\n      add\n      0x00\n      keccak256\n        /* \"sadc.sol\":19186:19232  _rOwned[sender] = _rOwned[sender].sub(rAmount) */\n      dup2\n      swap1\n      sstore\n      pop\n        /* \"sadc.sol\":19253:19273  _rTotal.sub(rAmount) */\n      tag_106\n        /* \"sadc.sol\":19265:19272  rAmount */\n      dup2\n        /* \"sadc.sol\":19253:19260  _rTotal */\n      sload(0x06)\n        /* \"sadc.sol\":19253:19264  _rTotal.sub */\n      tag_105\n      swap1\n        /* \"sadc.sol\":19253:19273  _rTotal.sub(rAmount) */\n      swap2\n      swap1\n      0xffffffff\n      and\n      jump\t// in\n    tag_106:\n        /* \"sadc.sol\":19243:19250  _rTotal */\n      0x06\n        /* \"sadc.sol\":19243:19273  _rTotal = _rTotal.sub(rAmount) */\n      dup2\n      swap1\n      sstore\n      pop\n        /* \"sadc.sol\":19297:19320  _tFeeTotal.add(tAmount) */\n      tag_107\n        /* \"sadc.sol\":19312:19319  tAmount */\n      dup4\n        /* \"sadc.sol\":19297:19307  _tFeeTotal */\n      sload(0x07)\n        /* \"sadc.sol\":19297:19311  _tFeeTotal.add */\n      tag_108\n      swap1\n        /* \"sadc.sol\":19297:19320  _tFeeTotal.add(tAmount) */\n      swap2\n      swap1\n      0xffffffff\n      and\n      jump\t// in\n    tag_107:\n        /* \"sadc.sol\":19284:19294  _tFeeTotal */\n      0x07\n        /* \"sadc.sol\":19284:19320  _tFeeTotal = _tFeeTotal.add(tAmount) */\n      dup2\n      swap1\n      sstore\n      pop\n        /* \"sadc.sol\":18952:19328  function reflect(uint256 tAmount) public {\r... */\n      pop\n      pop\n      pop\n      jump\t// out\n        /* \"sadc.sol\":16654:16737  function name() public view returns (string memory) {\r... */\n    tag_33:\n        /* \"sadc.sol\":16691:16704  string memory */\n      0x60\n        /* \"sadc.sol\":16724:16729  _name */\n      0x08\n        /* \"sadc.sol\":16717:16729  return _name */\n      dup1\n      sload\n      0x01\n      dup2\n      0x01\n      and\n      iszero\n      0x0100\n      mul\n      sub\n      and\n      0x02\n      swap1\n      div\n      dup1\n      0x1f\n      add\n      0x20\n      dup1\n      swap2\n      div\n      mul\n      0x20\n      add\n      mload(0x40)\n      swap1\n      dup2\n      add\n      0x40\n      mstore\n      dup1\n      swap3\n      swap2\n      swap1\n      dup2\n      dup2\n      mstore\n      0x20\n      add\n      dup3\n      dup1\n      sload\n      0x01\n      dup2\n      0x01\n      and\n      iszero\n      0x0100\n      mul\n      sub\n      and\n      0x02\n      swap1\n      div\n      dup1\n      iszero\n      tag_110\n      jumpi\n      dup1\n      0x1f\n      lt\n      tag_111\n      jumpi\n      0x0100\n      dup1\n      dup4\n      sload\n      div\n      mul\n      dup4\n      mstore\n      swap2\n      0x20\n      add\n      swap2\n      jump(tag_110)\n    tag_111:\n      dup3\n      add\n      swap2\n      swap1\n      0x00\n      mstore\n      keccak256(0x00, 0x20)\n      swap1\n    tag_112:\n      dup2\n      sload\n      dup2\n      mstore\n      swap1\n      0x01\n      add\n      swap1\n      0x20\n      add\n      dup1\n      dup4\n      gt\n      tag_112\n      jumpi\n      dup3\n      swap1\n      sub\n      0x1f\n      and\n      dup3\n      add\n      swap2\n    tag_110:\n      pop\n      pop\n      pop\n      pop\n      pop\n      swap1\n      pop\n        /* \"sadc.sol\":16654:16737  function name() public view returns (string memory) {\r... */\n      swap1\n      jump\t// out\n        /* \"sadc.sol\":17566:17727  function approve(address spender, uint256 amount) public override returns (bool) {\r... */\n    tag_40:\n        /* \"sadc.sol\":17641:17645  bool */\n      0x00\n        /* \"sadc.sol\":17658:17697  _approve(_msgSender(), spender, amount) */\n      tag_114\n        /* \"sadc.sol\":17667:17679  _msgSender() */\n      tag_115\n        /* \"sadc.sol\":17667:17677  _msgSender */\n      tag_100\n        /* \"sadc.sol\":17667:17679  _msgSender() */\n      jump\t// in\n    tag_115:\n        /* \"sadc.sol\":17681:17688  spender */\n      dup5\n        /* \"sadc.sol\":17690:17696  amount */\n      dup5\n        /* \"sadc.sol\":17658:17666  _approve */\n      tag_116\n        /* \"sadc.sol\":17658:17697  _approve(_msgSender(), spender, amount) */\n      jump\t// in\n    tag_114:\n        /* \"sadc.sol\":17715:17719  true */\n      0x01\n        /* \"sadc.sol\":17708:17719  return true */\n      swap1\n      pop\n        /* \"sadc.sol\":17566:17727  function approve(address spender, uint256 amount) public override returns (bool) {\r... */\n      swap3\n      swap2\n      pop\n      pop\n      jump\t// out\n        /* \"sadc.sol\":18677:18764  function totalFees() public view returns (uint256) {\r... */\n    tag_42:\n        /* \"sadc.sol\":18719:18726  uint256 */\n      0x00\n        /* \"sadc.sol\":18746:18756  _tFeeTotal */\n      sload(0x07)\n        /* \"sadc.sol\":18739:18756  return _tFeeTotal */\n      swap1\n      pop\n        /* \"sadc.sol\":18677:18764  function totalFees() public view returns (uint256) {\r... */\n      swap1\n      jump\t// out\n        /* \"sadc.sol\":16931:17026  function totalSupply() public view override returns (uint256) {\r... */\n    tag_44:\n        /* \"sadc.sol\":16984:16991  uint256 */\n      0x00\n        /* \"sadc.sol\":16226:16241  7000000000000e9 */\n      0x017b7883c06916600000\n        /* \"sadc.sol\":17004:17018  return _tTotal */\n      swap1\n      pop\n        /* \"sadc.sol\":16931:17026  function totalSupply() public view override returns (uint256) {\r... */\n      swap1\n      jump\t// out\n        /* \"sadc.sol\":17735:18048  function transferFrom(address sender, address recipient, uint256 amount) public override returns (bool) {\r... */\n    tag_47:\n        /* \"sadc.sol\":17833:17837  bool */\n      0x00\n        /* \"sadc.sol\":17850:17886  _transfer(sender, recipient, amount) */\n      tag_120\n        /* \"sadc.sol\":17860:17866  sender */\n      dup5\n        /* \"sadc.sol\":17868:17877  recipient */\n      dup5\n        /* \"sadc.sol\":17879:17885  amount */\n      dup5\n        /* \"sadc.sol\":17850:17859  _transfer */\n      tag_121\n        /* \"sadc.sol\":17850:17886  _transfer(sender, recipient, amount) */\n      jump\t// in\n    tag_120:\n        /* \"sadc.sol\":17897:18018  _approve(sender, _msgSender(), _allowances[sender][_msgSender()].sub(amount, \"ERC20: transfer amount exceeds allowance\")) */\n      tag_122\n        /* \"sadc.sol\":17906:17912  sender */\n      dup5\n        /* \"sadc.sol\":17914:17926  _msgSender() */\n      tag_123\n        /* \"sadc.sol\":17914:17924  _msgSender */\n      tag_100\n        /* \"sadc.sol\":17914:17926  _msgSender() */\n      jump\t// in\n    tag_123:\n        /* \"sadc.sol\":17928:18017  _allowances[sender][_msgSender()].sub(amount, \"ERC20: transfer amount exceeds allowance\") */\n      tag_124\n        /* \"sadc.sol\":17966:17972  amount */\n      dup6\n        /* \"sadc.sol\":17928:18017  _allowances[sender][_msgSender()].sub(amount, \"ERC20: transfer amount exceeds allowance\") */\n      mload(0x40)\n      dup1\n      0x60\n      add\n      0x40\n      mstore\n      dup1\n      0x28\n      dup2\n      mstore\n      0x20\n      add\n      data_974d1b4421da69cc60b481194f0dad36a5bb4e23da810da7a7fb30cdba178330\n      0x28\n      swap2\n      codecopy\n        /* \"sadc.sol\":17928:17939  _allowances */\n      0x03\n        /* \"sadc.sol\":17928:17947  _allowances[sender] */\n      0x00\n        /* \"sadc.sol\":17940:17946  sender */\n      dup12\n        /* \"sadc.sol\":17928:17947  _allowances[sender] */\n      0xffffffffffffffffffffffffffffffffffffffff\n      and\n      0xffffffffffffffffffffffffffffffffffffffff\n      and\n      dup2\n      mstore\n      0x20\n      add\n      swap1\n      dup2\n      mstore\n      0x20\n      add\n      0x00\n      keccak256\n        /* \"sadc.sol\":17928:17961  _allowances[sender][_msgSender()] */\n      0x00\n        /* \"sadc.sol\":17948:17960  _msgSender() */\n      tag_125\n        /* \"sadc.sol\":17948:17958  _msgSender */\n      tag_100\n        /* \"sadc.sol\":17948:17960  _msgSender() */\n      jump\t// in\n    tag_125:\n        /* \"sadc.sol\":17928:17961  _allowances[sender][_msgSender()] */\n      0xffffffffffffffffffffffffffffffffffffffff\n      and\n      0xffffffffffffffffffffffffffffffffffffffff\n      and\n      dup2\n      mstore\n      0x20\n      add\n      swap1\n      dup2\n      mstore\n      0x20\n      add\n      0x00\n      keccak256\n      sload\n        /* \"sadc.sol\":17928:17965  _allowances[sender][_msgSender()].sub */\n      tag_126\n      swap1\n        /* \"sadc.sol\":17928:18017  _allowances[sender][_msgSender()].sub(amount, \"ERC20: transfer amount exceeds allowance\") */\n      swap3\n      swap2\n      swap1\n      0xffffffff\n      and\n      jump\t// in\n    tag_124:\n        /* \"sadc.sol\":17897:17905  _approve */\n      tag_116\n        /* \"sadc.sol\":17897:18018  _approve(sender, _msgSender(), _allowances[sender][_msgSender()].sub(amount, \"ERC20: transfer amount exceeds allowance\")) */\n      jump\t// in\n    tag_122:\n        /* \"sadc.sol\":18036:18040  true */\n      0x01\n        /* \"sadc.sol\":18029:18040  return true */\n      swap1\n      pop\n        /* \"sadc.sol\":17735:18048  function transferFrom(address sender, address recipient, uint256 amount) public override returns (bool) {\r... */\n      swap4\n      swap3\n      pop\n      pop\n      pop\n      jump\t// out\n        /* \"sadc.sol\":19778:20031  function tokenFromReflection(uint256 rAmount) public view returns(uint256) {\r... */\n    tag_50:\n        /* \"sadc.sol\":19844:19851  uint256 */\n      0x00\n        /* \"sadc.sol\":19883:19890  _rTotal */\n      sload(0x06)\n        /* \"sadc.sol\":19872:19879  rAmount */\n      dup3\n        /* \"sadc.sol\":19872:19890  rAmount <= _rTotal */\n      gt\n      iszero\n        /* \"sadc.sol\":19864:19937  require(rAmount <= _rTotal, \"Amount must be less than total reflections\") */\n      tag_128\n      jumpi\n      mload(0x40)\n      0x08c379a000000000000000000000000000000000000000000000000000000000\n      dup2\n      mstore\n      0x04\n      add\n      dup1\n      dup1\n      0x20\n      add\n      dup3\n      dup2\n      sub\n      dup3\n      mstore\n      0x2a\n      dup2\n      mstore\n      0x20\n      add\n      dup1\n      data_22f7af55a509c3b14f0d528f087748dec8a8bf425135e3f5dc28c6a31ec6d812\n      0x2a\n      swap2\n      codecopy\n      0x40\n      add\n      swap2\n      pop\n      pop\n      mload(0x40)\n      dup1\n      swap2\n      sub\n      swap1\n      revert\n    tag_128:\n        /* \"sadc.sol\":19948:19967  uint256 currentRate */\n      0x00\n        /* \"sadc.sol\":19971:19981  _getRate() */\n      tag_129\n        /* \"sadc.sol\":19971:19979  _getRate */\n      tag_130\n        /* \"sadc.sol\":19971:19981  _getRate() */\n      jump\t// in\n    tag_129:\n        /* \"sadc.sol\":19948:19981  uint256 currentRate =  _getRate() */\n      swap1\n      pop\n        /* \"sadc.sol\":19999:20023  rAmount.div(currentRate) */\n      tag_131\n        /* \"sadc.sol\":20011:20022  currentRate */\n      dup2\n        /* \"sadc.sol\":19999:20006  rAmount */\n      dup5\n        /* \"sadc.sol\":19999:20010  rAmount.div */\n      tag_132\n      swap1\n        /* \"sadc.sol\":19999:20023  rAmount.div(currentRate) */\n      swap2\n      swap1\n      0xffffffff\n      and\n      jump\t// in\n    tag_131:\n        /* \"sadc.sol\":19992:20023  return rAmount.div(currentRate) */\n      swap2\n      pop\n      pop\n        /* \"sadc.sol\":19778:20031  function tokenFromReflection(uint256 rAmount) public view returns(uint256) {\r... */\n      swap2\n      swap1\n      pop\n      jump\t// out\n        /* \"sadc.sol\":16840:16923  function decimals() public view returns (uint8) {\r... */\n    tag_52:\n        /* \"sadc.sol\":16881:16886  uint8 */\n      0x00\n        /* \"sadc.sol\":16906:16915  _decimals */\n      0x0a\n      0x00\n      swap1\n      sload\n      swap1\n      0x0100\n      exp\n      swap1\n      div\n      0xff\n      and\n        /* \"sadc.sol\":16899:16915  return _decimals */\n      swap1\n      pop\n        /* \"sadc.sol\":16840:16923  function decimals() public view returns (uint8) {\r... */\n      swap1\n      jump\t// out\n        /* \"sadc.sol\":18056:18274  function increaseAllowance(address spender, uint256 addedValue) public virtual returns (bool) {\r... */\n    tag_55:\n        /* \"sadc.sol\":18144:18148  bool */\n      0x00\n        /* \"sadc.sol\":18161:18244  _approve(_msgSender(), spender, _allowances[_msgSender()][spender].add(addedValue)) */\n      tag_135\n        /* \"sadc.sol\":18170:18182  _msgSender() */\n      tag_136\n        /* \"sadc.sol\":18170:18180  _msgSender */\n      tag_100\n        /* \"sadc.sol\":18170:18182  _msgSender() */\n      jump\t// in\n    tag_136:\n        /* \"sadc.sol\":18184:18191  spender */\n      dup5\n        /* \"sadc.sol\":18193:18243  _allowances[_msgSender()][spender].add(addedValue) */\n      tag_137\n        /* \"sadc.sol\":18232:18242  addedValue */\n      dup6\n        /* \"sadc.sol\":18193:18204  _allowances */\n      0x03\n        /* \"sadc.sol\":18193:18218  _allowances[_msgSender()] */\n      0x00\n        /* \"sadc.sol\":18205:18217  _msgSender() */\n      tag_138\n        /* \"sadc.sol\":18205:18215  _msgSender */\n      tag_100\n        /* \"sadc.sol\":18205:18217  _msgSender() */\n      jump\t// in\n    tag_138:\n        /* \"sadc.sol\":18193:18218  _allowances[_msgSender()] */\n      0xffffffffffffffffffffffffffffffffffffffff\n      and\n      0xffffffffffffffffffffffffffffffffffffffff\n      and\n      dup2\n      mstore\n      0x20\n      add\n      swap1\n      dup2\n      mstore\n      0x20\n      add\n      0x00\n      keccak256\n        /* \"sadc.sol\":18193:18227  _allowances[_msgSender()][spender] */\n      0x00\n        /* \"sadc.sol\":18219:18226  spender */\n      dup10\n        /* \"sadc.sol\":18193:18227  _allowances[_msgSender()][spender] */\n      0xffffffffffffffffffffffffffffffffffffffff\n      and\n      0xffffffffffffffffffffffffffffffffffffffff\n      and\n      dup2\n      mstore\n      0x20\n      add\n      swap1\n      dup2\n      mstore\n      0x20\n      add\n      0x00\n      keccak256\n      sload\n        /* \"sadc.sol\":18193:18231  _allowances[_msgSender()][spender].add */\n      tag_108\n      swap1\n        /* \"sadc.sol\":18193:18243  _allowances[_msgSender()][spender].add(addedValue) */\n      swap2\n      swap1\n      0xffffffff\n      and\n      jump\t// in\n    tag_137:\n        /* \"sadc.sol\":18161:18169  _approve */\n      tag_116\n        /* \"sadc.sol\":18161:18244  _approve(_msgSender(), spender, _allowances[_msgSender()][spender].add(addedValue)) */\n      jump\t// in\n    tag_135:\n        /* \"sadc.sol\":18262:18266  true */\n      0x01\n        /* \"sadc.sol\":18255:18266  return true */\n      swap1\n      pop\n        /* \"sadc.sol\":18056:18274  function increaseAllowance(address spender, uint256 addedValue) public virtual returns (bool) {\r... */\n      swap3\n      swap2\n      pop\n      pop\n      jump\t// out\n        /* \"sadc.sol\":19336:19770  function reflectionFromToken(uint256 tAmount, bool deductTransferFee) public view returns(uint256) {\r... */\n    tag_58:\n        /* \"sadc.sol\":19426:19433  uint256 */\n      0x00\n        /* \"sadc.sol\":16226:16241  7000000000000e9 */\n      0x017b7883c06916600000\n        /* \"sadc.sol\":19454:19461  tAmount */\n      dup4\n        /* \"sadc.sol\":19454:19472  tAmount <= _tTotal */\n      gt\n      iszero\n        /* \"sadc.sol\":19446:19508  require(tAmount <= _tTotal, \"Amount must be less than supply\") */\n      tag_140\n      jumpi\n      mload(0x40)\n      0x08c379a000000000000000000000000000000000000000000000000000000000\n      dup2\n      mstore\n      0x04\n      add\n      dup1\n      dup1\n      0x20\n      add\n      dup3\n      dup2\n      sub\n      dup3\n      mstore\n      0x1f\n      dup2\n      mstore\n      0x20\n      add\n      dup1\n      0x416d6f756e74206d757374206265206c657373207468616e20737570706c7900\n      dup2\n      mstore\n      pop\n      0x20\n      add\n      swap2\n      pop\n      pop\n      mload(0x40)\n      dup1\n      swap2\n      sub\n      swap1\n      revert\n    tag_140:\n        /* \"sadc.sol\":19524:19541  deductTransferFee */\n      dup2\n        /* \"sadc.sol\":19519:19763  if (!deductTransferFee) {\r... */\n      tag_141\n      jumpi\n        /* \"sadc.sol\":19559:19574  uint256 rAmount */\n      0x00\n        /* \"sadc.sol\":19582:19601  _getValues(tAmount) */\n      tag_142\n        /* \"sadc.sol\":19593:19600  tAmount */\n      dup5\n        /* \"sadc.sol\":19582:19592  _getValues */\n      tag_103\n        /* \"sadc.sol\":19582:19601  _getValues(tAmount) */\n      jump\t// in\n    tag_142:\n        /* \"sadc.sol\":19558:19601  (uint256 rAmount,,,,) = _getValues(tAmount) */\n      pop\n      pop\n      pop\n      pop\n      swap1\n      pop\n        /* \"sadc.sol\":19623:19630  rAmount */\n      dup1\n        /* \"sadc.sol\":19616:19630  return rAmount */\n      swap2\n      pop\n      pop\n      jump(tag_139)\n        /* \"sadc.sol\":19519:19763  if (!deductTransferFee) {\r... */\n    tag_141:\n        /* \"sadc.sol\":19665:19688  uint256 rTransferAmount */\n      0x00\n        /* \"sadc.sol\":19695:19714  _getValues(tAmount) */\n      tag_144\n        /* \"sadc.sol\":19706:19713  tAmount */\n      dup5\n        /* \"sadc.sol\":19695:19705  _getValues */\n      tag_103\n        /* \"sadc.sol\":19695:19714  _getValues(tAmount) */\n      jump\t// in\n    tag_144:\n        /* \"sadc.sol\":19663:19714  (,uint256 rTransferAmount,,,) = _getValues(tAmount) */\n      pop\n      pop\n      pop\n      swap2\n      pop\n      pop\n        /* \"sadc.sol\":19736:19751  rTransferAmount */\n      dup1\n        /* \"sadc.sol\":19729:19751  return rTransferAmount */\n      swap2\n      pop\n      pop\n        /* \"sadc.sol\":19336:19770  function reflectionFromToken(uint256 tAmount, bool deductTransferFee) public view returns(uint256) {\r... */\n    tag_139:\n      swap3\n      swap2\n      pop\n      pop\n      jump\t// out\n        /* \"sadc.sol\":17034:17232  function balanceOf(address account) public view override returns (uint256) {\r... */\n    tag_61:\n        /* \"sadc.sol\":17100:17107  uint256 */\n      0x00\n        /* \"sadc.sol\":17124:17135  _isExcluded */\n      0x04\n        /* \"sadc.sol\":17124:17144  _isExcluded[account] */\n      0x00\n        /* \"sadc.sol\":17136:17143  account */\n      dup4\n        /* \"sadc.sol\":17124:17144  _isExcluded[account] */\n      0xffffffffffffffffffffffffffffffffffffffff\n      and\n      0xffffffffffffffffffffffffffffffffffffffff\n      and\n      dup2\n      mstore\n      0x20\n      add\n      swap1\n      dup2\n      mstore\n      0x20\n      add\n      0x00\n      keccak256\n      0x00\n      swap1\n      sload\n      swap1\n      0x0100\n      exp\n      swap1\n      div\n      0xff\n      and\n        /* \"sadc.sol\":17120:17169  if (_isExcluded[account]) return _tOwned[account] */\n      iszero\n      tag_146\n      jumpi\n        /* \"sadc.sol\":17153:17160  _tOwned */\n      0x02\n        /* \"sadc.sol\":17153:17169  _tOwned[account] */\n      0x00\n        /* \"sadc.sol\":17161:17168  account */\n      dup4\n        /* \"sadc.sol\":17153:17169  _tOwned[account] */\n      0xffffffffffffffffffffffffffffffffffffffff\n      and\n      0xffffffffffffffffffffffffffffffffffffffff\n      and\n      dup2\n      mstore\n      0x20\n      add\n      swap1\n      dup2\n      mstore\n      0x20\n      add\n      0x00\n      keccak256\n      sload\n        /* \"sadc.sol\":17146:17169  return _tOwned[account] */\n      swap1\n      pop\n      jump(tag_145)\n        /* \"sadc.sol\":17120:17169  if (_isExcluded[account]) return _tOwned[account] */\n    tag_146:\n        /* \"sadc.sol\":17187:17224  tokenFromReflection(_rOwned[account]) */\n      tag_147\n        /* \"sadc.sol\":17207:17214  _rOwned */\n      0x01\n        /* \"sadc.sol\":17207:17223  _rOwned[account] */\n      0x00\n        /* \"sadc.sol\":17215:17222  account */\n      dup5\n        /* \"sadc.sol\":17207:17223  _rOwned[account] */\n      0xffffffffffffffffffffffffffffffffffffffff\n      and\n      0xffffffffffffffffffffffffffffffffffffffff\n      and\n      dup2\n      mstore\n      0x20\n      add\n      swap1\n      dup2\n      mstore\n      0x20\n      add\n      0x00\n      keccak256\n      sload\n        /* \"sadc.sol\":17187:17206  tokenFromReflection */\n      tag_50\n        /* \"sadc.sol\":17187:17224  tokenFromReflection(_rOwned[account]) */\n      jump\t// in\n    tag_147:\n        /* \"sadc.sol\":17180:17224  return tokenFromReflection(_rOwned[account]) */\n      swap1\n      pop\n        /* \"sadc.sol\":17034:17232  function balanceOf(address account) public view override returns (uint256) {\r... */\n    tag_145:\n      swap2\n      swap1\n      pop\n      jump\t// out\n        /* \"sadc.sol\":15192:15340  function renounceOwnership() public virtual onlyOwner {\r... */\n    tag_63:\n        /* \"sadc.sol\":14772:14784  _msgSender() */\n      tag_149\n        /* \"sadc.sol\":14772:14782  _msgSender */\n      tag_100\n        /* \"sadc.sol\":14772:14784  _msgSender() */\n      jump\t// in\n    tag_149:\n        /* \"sadc.sol\":14762:14784  _owner == _msgSender() */\n      0xffffffffffffffffffffffffffffffffffffffff\n      and\n        /* \"sadc.sol\":14762:14768  _owner */\n      0x00\n      dup1\n      sload\n      swap1\n      0x0100\n      exp\n      swap1\n      div\n      0xffffffffffffffffffffffffffffffffffffffff\n      and\n        /* \"sadc.sol\":14762:14784  _owner == _msgSender() */\n      0xffffffffffffffffffffffffffffffffffffffff\n      and\n      eq\n        /* \"sadc.sol\":14754:14821  require(_owner == _msgSender(), \"Ownable: caller is not the owner\") */\n      tag_150\n      jumpi\n      mload(0x40)\n      0x08c379a000000000000000000000000000000000000000000000000000000000\n      dup2\n      mstore\n      0x04\n      add\n      dup1\n      dup1\n      0x20\n      add\n      dup3\n      dup2\n      sub\n      dup3\n      mstore\n      0x20\n      dup2\n      mstore\n      0x20\n      add\n      dup1\n      0x4f776e61626c653a2063616c6c6572206973206e6f7420746865206f776e6572\n      dup2\n      mstore\n      pop\n      0x20\n      add\n      swap2\n      pop\n      pop\n      mload(0x40)\n      dup1\n      swap2\n      sub\n      swap1\n      revert\n    tag_150:\n        /* \"sadc.sol\":15299:15300  0 */\n      0x00\n        /* \"sadc.sol\":15262:15302  OwnershipTransferred(_owner, address(0)) */\n      0xffffffffffffffffffffffffffffffffffffffff\n      and\n        /* \"sadc.sol\":15283:15289  _owner */\n      0x00\n      dup1\n      sload\n      swap1\n      0x0100\n      exp\n      swap1\n      div\n      0xffffffffffffffffffffffffffffffffffffffff\n      and\n        /* \"sadc.sol\":15262:15302  OwnershipTransferred(_owner, address(0)) */\n      0xffffffffffffffffffffffffffffffffffffffff\n      and\n      0x8be0079c531659141344cd1fd0a4f28419497f9722a3daafe3b4186f6b6457e0\n      mload(0x40)\n      mload(0x40)\n      dup1\n      swap2\n      sub\n      swap1\n      log3\n        /* \"sadc.sol\":15330:15331  0 */\n      0x00\n        /* \"sadc.sol\":15313:15319  _owner */\n      dup1\n      0x00\n        /* \"sadc.sol\":15313:15332  _owner = address(0) */\n      0x0100\n      exp\n      dup2\n      sload\n      dup2\n      0xffffffffffffffffffffffffffffffffffffffff\n      mul\n      not\n      and\n      swap1\n      dup4\n      0xffffffffffffffffffffffffffffffffffffffff\n      and\n      mul\n      or\n      swap1\n      sstore\n      pop\n        /* \"sadc.sol\":15192:15340  function renounceOwnership() public virtual onlyOwner {\r... */\n      jump\t// out\n        /* \"sadc.sol\":16461:16506  uint256 public _maxTxAmount = 7000000000000e9 */\n    tag_65:\n      sload(0x0b)\n      dup2\n      jump\t// out\n        /* \"sadc.sol\":14550:14629  function owner() public view returns (address) {\r... */\n    tag_67:\n        /* \"sadc.sol\":14588:14595  address */\n      0x00\n        /* \"sadc.sol\":14615:14621  _owner */\n      dup1\n      0x00\n      swap1\n      sload\n      swap1\n      0x0100\n      exp\n      swap1\n      div\n      0xffffffffffffffffffffffffffffffffffffffff\n      and\n        /* \"sadc.sol\":14608:14621  return _owner */\n      swap1\n      pop\n        /* \"sadc.sol\":14550:14629  function owner() public view returns (address) {\r... */\n      swap1\n      jump\t// out\n        /* \"sadc.sol\":16745:16832  function symbol() public view returns (string memory) {\r... */\n    tag_69:\n        /* \"sadc.sol\":16784:16797  string memory */\n      0x60\n        /* \"sadc.sol\":16817:16824  _symbol */\n      0x09\n        /* \"sadc.sol\":16810:16824  return _symbol */\n      dup1\n      sload\n      0x01\n      dup2\n      0x01\n      and\n      iszero\n      0x0100\n      mul\n      sub\n      and\n      0x02\n      swap1\n      div\n      dup1\n      0x1f\n      add\n      0x20\n      dup1\n      swap2\n      div\n      mul\n      0x20\n      add\n      mload(0x40)\n      swap1\n      dup2\n      add\n      0x40\n      mstore\n      dup1\n      swap3\n      swap2\n      swap1\n      dup2\n      dup2\n      mstore\n      0x20\n      add\n      dup3\n      dup1\n      sload\n      0x01\n      dup2\n      0x01\n      and\n      iszero\n      0x0100\n      mul\n      sub\n      and\n      0x02\n      swap1\n      div\n      dup1\n      iszero\n      tag_154\n      jumpi\n      dup1\n      0x1f\n      lt\n      tag_155\n      jumpi\n      0x0100\n      dup1\n      dup4\n      sload\n      div\n      mul\n      dup4\n      mstore\n      swap2\n      0x20\n      add\n      swap2\n      jump(tag_154)\n    tag_155:\n      dup3\n      add\n      swap2\n      swap1\n      0x00\n      mstore\n      keccak256(0x00, 0x20)\n      swap1\n    tag_156:\n      dup2\n      sload\n      dup2\n      mstore\n      swap1\n      0x01\n      add\n      swap1\n      0x20\n      add\n      dup1\n      dup4\n      gt\n      tag_156\n      jumpi\n      dup3\n      swap1\n      sub\n      0x1f\n      and\n      dup3\n      add\n      swap2\n    tag_154:\n      pop\n      pop\n      pop\n      pop\n      pop\n      swap1\n      pop\n        /* \"sadc.sol\":16745:16832  function symbol() public view returns (string memory) {\r... */\n      swap1\n      jump\t// out\n        /* \"sadc.sol\":18282:18551  function decreaseAllowance(address spender, uint256 subtractedValue) public virtual returns (bool) {\r... */\n    tag_76:\n        /* \"sadc.sol\":18375:18379  bool */\n      0x00\n        /* \"sadc.sol\":18392:18521  _approve(_msgSender(), spender, _allowances[_msgSender()][spender].sub(subtractedValue, \"ERC20: decreased allowance below zero\")) */\n      tag_158\n        /* \"sadc.sol\":18401:18413  _msgSender() */\n      tag_159\n        /* \"sadc.sol\":18401:18411  _msgSender */\n      tag_100\n        /* \"sadc.sol\":18401:18413  _msgSender() */\n      jump\t// in\n    tag_159:\n        /* \"sadc.sol\":18415:18422  spender */\n      dup5\n        /* \"sadc.sol\":18424:18520  _allowances[_msgSender()][spender].sub(subtractedValue, \"ERC20: decreased allowance below zero\") */\n      tag_160\n        /* \"sadc.sol\":18463:18478  subtractedValue */\n      dup6\n        /* \"sadc.sol\":18424:18520  _allowances[_msgSender()][spender].sub(subtractedValue, \"ERC20: decreased allowance below zero\") */\n      mload(0x40)\n      dup1\n      0x60\n      add\n      0x40\n      mstore\n      dup1\n      0x25\n      dup2\n      mstore\n      0x20\n      add\n      data_f8b476f7d28209d77d4a4ac1fe36b9f8259aa1bb6bddfa6e89de7e51615cf8a8\n      0x25\n      swap2\n      codecopy\n        /* \"sadc.sol\":18424:18435  _allowances */\n      0x03\n        /* \"sadc.sol\":18424:18449  _allowances[_msgSender()] */\n      0x00\n        /* \"sadc.sol\":18436:18448  _msgSender() */\n      tag_161\n        /* \"sadc.sol\":18436:18446  _msgSender */\n      tag_100\n        /* \"sadc.sol\":18436:18448  _msgSender() */\n      jump\t// in\n    tag_161:\n        /* \"sadc.sol\":18424:18449  _allowances[_msgSender()] */\n      0xffffffffffffffffffffffffffffffffffffffff\n      and\n      0xffffffffffffffffffffffffffffffffffffffff\n      and\n      dup2\n      mstore\n      0x20\n      add\n      swap1\n      dup2\n      mstore\n      0x20\n      add\n      0x00\n      keccak256\n        /* \"sadc.sol\":18424:18458  _allowances[_msgSender()][spender] */\n      0x00\n        /* \"sadc.sol\":18450:18457  spender */\n      dup11\n        /* \"sadc.sol\":18424:18458  _allowances[_msgSender()][spender] */\n      0xffffffffffffffffffffffffffffffffffffffff\n      and\n      0xffffffffffffffffffffffffffffffffffffffff\n      and\n      dup2\n      mstore\n      0x20\n      add\n      swap1\n      dup2\n      mstore\n      0x20\n      add\n      0x00\n      keccak256\n      sload\n        /* \"sadc.sol\":18424:18462  _allowances[_msgSender()][spender].sub */\n      tag_126\n      swap1\n        /* \"sadc.sol\":18424:18520  _allowances[_msgSender()][spender].sub(subtractedValue, \"ERC20: decreased allowance below zero\") */\n      swap3\n      swap2\n      swap1\n      0xffffffff\n      and\n      jump\t// in\n    tag_160:\n        /* \"sadc.sol\":18392:18400  _approve */\n      tag_116\n        /* \"sadc.sol\":18392:18521  _approve(_msgSender(), spender, _allowances[_msgSender()][spender].sub(subtractedValue, \"ERC20: decreased allowance below zero\")) */\n      jump\t// in\n    tag_158:\n        /* \"sadc.sol\":18539:18543  true */\n      0x01\n        /* \"sadc.sol\":18532:18543  return true */\n      swap1\n      pop\n        /* \"sadc.sol\":18282:18551  function decreaseAllowance(address spender, uint256 subtractedValue) public virtual returns (bool) {\r... */\n      swap3\n      swap2\n      pop\n      pop\n      jump\t// out\n        /* \"sadc.sol\":17240:17407  function transfer(address recipient, uint256 amount) public override returns (bool) {\r... */\n    tag_79:\n        /* \"sadc.sol\":17318:17322  bool */\n      0x00\n        /* \"sadc.sol\":17335:17377  _transfer(_msgSender(), recipient, amount) */\n      tag_163\n        /* \"sadc.sol\":17345:17357  _msgSender() */\n      tag_164\n        /* \"sadc.sol\":17345:17355  _msgSender */\n      tag_100\n        /* \"sadc.sol\":17345:17357  _msgSender() */\n      jump\t// in\n    tag_164:\n        /* \"sadc.sol\":17359:17368  recipient */\n      dup5\n        /* \"sadc.sol\":17370:17376  amount */\n      dup5\n        /* \"sadc.sol\":17335:17344  _transfer */\n      tag_121\n        /* \"sadc.sol\":17335:17377  _transfer(_msgSender(), recipient, amount) */\n      jump\t// in\n    tag_163:\n        /* \"sadc.sol\":17395:17399  true */\n      0x01\n        /* \"sadc.sol\":17388:17399  return true */\n      swap1\n      pop\n        /* \"sadc.sol\":17240:17407  function transfer(address recipient, uint256 amount) public override returns (bool) {\r... */\n      swap3\n      swap2\n      pop\n      pop\n      jump\t// out\n        /* \"sadc.sol\":18559:18669  function isExcluded(address account) public view returns (bool) {\r... */\n    tag_82:\n        /* \"sadc.sol\":18617:18621  bool */\n      0x00\n        /* \"sadc.sol\":18641:18652  _isExcluded */\n      0x04\n        /* \"sadc.sol\":18641:18661  _isExcluded[account] */\n      0x00\n        /* \"sadc.sol\":18653:18660  account */\n      dup4\n        /* \"sadc.sol\":18641:18661  _isExcluded[account] */\n      0xffffffffffffffffffffffffffffffffffffffff\n      and\n      0xffffffffffffffffffffffffffffffffffffffff\n      and\n      dup2\n      mstore\n      0x20\n      add\n      swap1\n      dup2\n      mstore\n      0x20\n      add\n      0x00\n      keccak256\n      0x00\n      swap1\n      sload\n      swap1\n      0x0100\n      exp\n      swap1\n      div\n      0xff\n      and\n        /* \"sadc.sol\":18634:18661  return _isExcluded[account] */\n      swap1\n      pop\n        /* \"sadc.sol\":18559:18669  function isExcluded(address account) public view returns (bool) {\r... */\n      swap2\n      swap1\n      pop\n      jump\t// out\n        /* \"sadc.sol\":18782:18944  function setMaxTxPercent(uint256 maxTxPercent) external onlyOwner() {\r... */\n    tag_85:\n        /* \"sadc.sol\":14772:14784  _msgSender() */\n      tag_167\n        /* \"sadc.sol\":14772:14782  _msgSender */\n      tag_100\n        /* \"sadc.sol\":14772:14784  _msgSender() */\n      jump\t// in\n    tag_167:\n        /* \"sadc.sol\":14762:14784  _owner == _msgSender() */\n      0xffffffffffffffffffffffffffffffffffffffff\n      and\n        /* \"sadc.sol\":14762:14768  _owner */\n      0x00\n      dup1\n      sload\n      swap1\n      0x0100\n      exp\n      swap1\n      div\n      0xffffffffffffffffffffffffffffffffffffffff\n      and\n        /* \"sadc.sol\":14762:14784  _owner == _msgSender() */\n      0xffffffffffffffffffffffffffffffffffffffff\n      and\n      eq\n        /* \"sadc.sol\":14754:14821  require(_owner == _msgSender(), \"Ownable: caller is not the owner\") */\n      tag_168\n      jumpi\n      mload(0x40)\n      0x08c379a000000000000000000000000000000000000000000000000000000000\n      dup2\n      mstore\n      0x04\n      add\n      dup1\n      dup1\n      0x20\n      add\n      dup3\n      dup2\n      sub\n      dup3\n      mstore\n      0x20\n      dup2\n      mstore\n      0x20\n      add\n      dup1\n      0x4f776e61626c653a2063616c6c6572206973206e6f7420746865206f776e6572\n      dup2\n      mstore\n      pop\n      0x20\n      add\n      swap2\n      pop\n      pop\n      mload(0x40)\n      dup1\n      swap2\n      sub\n      swap1\n      revert\n    tag_168:\n        /* \"sadc.sol\":18876:18936  _tTotal.mul(maxTxPercent).div(\r... */\n      tag_170\n        /* \"sadc.sol\":18920:18925  10**2 */\n      0x64\n        /* \"sadc.sol\":18876:18901  _tTotal.mul(maxTxPercent) */\n      tag_171\n        /* \"sadc.sol\":18888:18900  maxTxPercent */\n      dup4\n        /* \"sadc.sol\":16226:16241  7000000000000e9 */\n      0x017b7883c06916600000\n        /* \"sadc.sol\":18876:18887  _tTotal.mul */\n      tag_172\n      swap1\n        /* \"sadc.sol\":18876:18901  _tTotal.mul(maxTxPercent) */\n      swap2\n      swap1\n      0xffffffff\n      and\n      jump\t// in\n    tag_171:\n        /* \"sadc.sol\":18876:18905  _tTotal.mul(maxTxPercent).div */\n      tag_132\n      swap1\n        /* \"sadc.sol\":18876:18936  _tTotal.mul(maxTxPercent).div(\r... */\n      swap2\n      swap1\n      0xffffffff\n      and\n      jump\t// in\n    tag_170:\n        /* \"sadc.sol\":18861:18873  _maxTxAmount */\n      0x0b\n        /* \"sadc.sol\":18861:18936  _maxTxAmount = _tTotal.mul(maxTxPercent).div(\r... */\n      dup2\n      swap1\n      sstore\n      pop\n        /* \"sadc.sol\":18782:18944  function setMaxTxPercent(uint256 maxTxPercent) external onlyOwner() {\r... */\n      pop\n      jump\t// out\n        /* \"sadc.sol\":17415:17558  function allowance(address owner, address spender) public view override returns (uint256) {\r... */\n    tag_88:\n        /* \"sadc.sol\":17496:17503  uint256 */\n      0x00\n        /* \"sadc.sol\":17523:17534  _allowances */\n      0x03\n        /* \"sadc.sol\":17523:17541  _allowances[owner] */\n      0x00\n        /* \"sadc.sol\":17535:17540  owner */\n      dup5\n        /* \"sadc.sol\":17523:17541  _allowances[owner] */\n      0xffffffffffffffffffffffffffffffffffffffff\n      and\n      0xffffffffffffffffffffffffffffffffffffffff\n      and\n      dup2\n      mstore\n      0x20\n      add\n      swap1\n      dup2\n      mstore\n      0x20\n      add\n      0x00\n      keccak256\n        /* \"sadc.sol\":17523:17550  _allowances[owner][spender] */\n      0x00\n        /* \"sadc.sol\":17542:17549  spender */\n      dup4\n        /* \"sadc.sol\":17523:17550  _allowances[owner][spender] */\n      0xffffffffffffffffffffffffffffffffffffffff\n      and\n      0xffffffffffffffffffffffffffffffffffffffff\n      and\n      dup2\n      mstore\n      0x20\n      add\n      swap1\n      dup2\n      mstore\n      0x20\n      add\n      0x00\n      keccak256\n      sload\n        /* \"sadc.sol\":17516:17550  return _allowances[owner][spender] */\n      swap1\n      pop\n        /* \"sadc.sol\":17415:17558  function allowance(address owner, address spender) public view override returns (uint256) {\r... */\n      swap3\n      swap2\n      pop\n      pop\n      jump\t// out\n        /* \"sadc.sol\":20039:20371  function excludeAccount(address account) external onlyOwner() {\r... */\n    tag_91:\n        /* \"sadc.sol\":14772:14784  _msgSender() */\n      tag_175\n        /* \"sadc.sol\":14772:14782  _msgSender */\n      tag_100\n        /* \"sadc.sol\":14772:14784  _msgSender() */\n      jump\t// in\n    tag_175:\n        /* \"sadc.sol\":14762:14784  _owner == _msgSender() */\n      0xffffffffffffffffffffffffffffffffffffffff\n      and\n        /* \"sadc.sol\":14762:14768  _owner */\n      0x00\n      dup1\n      sload\n      swap1\n      0x0100\n      exp\n      swap1\n      div\n      0xffffffffffffffffffffffffffffffffffffffff\n      and\n        /* \"sadc.sol\":14762:14784  _owner == _msgSender() */\n      0xffffffffffffffffffffffffffffffffffffffff\n      and\n      eq\n        /* \"sadc.sol\":14754:14821  require(_owner == _msgSender(), \"Ownable: caller is not the owner\") */\n      tag_176\n      jumpi\n      mload(0x40)\n      0x08c379a000000000000000000000000000000000000000000000000000000000\n      dup2\n      mstore\n      0x04\n      add\n      dup1\n      dup1\n      0x20\n      add\n      dup3\n      dup2\n      sub\n      dup3\n      mstore\n      0x20\n      dup2\n      mstore\n      0x20\n      add\n      dup1\n      0x4f776e61626c653a2063616c6c6572206973206e6f7420746865206f776e6572\n      dup2\n      mstore\n      pop\n      0x20\n      add\n      swap2\n      pop\n      pop\n      mload(0x40)\n      dup1\n      swap2\n      sub\n      swap1\n      revert\n    tag_176:\n        /* \"sadc.sol\":20121:20132  _isExcluded */\n      0x04\n        /* \"sadc.sol\":20121:20141  _isExcluded[account] */\n      0x00\n        /* \"sadc.sol\":20133:20140  account */\n      dup3\n        /* \"sadc.sol\":20121:20141  _isExcluded[account] */\n      0xffffffffffffffffffffffffffffffffffffffff\n      and\n      0xffffffffffffffffffffffffffffffffffffffff\n      and\n      dup2\n      mstore\n      0x20\n      add\n      swap1\n      dup2\n      mstore\n      0x20\n      add\n      0x00\n      keccak256\n      0x00\n      swap1\n      sload\n      swap1\n      0x0100\n      exp\n      swap1\n      div\n      0xff\n      and\n        /* \"sadc.sol\":20120:20141  !_isExcluded[account] */\n      iszero\n        /* \"sadc.sol\":20112:20173  require(!_isExcluded[account], \"Account is already excluded\") */\n      tag_178\n      jumpi\n      mload(0x40)\n      0x08c379a000000000000000000000000000000000000000000000000000000000\n      dup2\n      mstore\n      0x04\n      add\n      dup1\n      dup1\n      0x20\n      add\n      dup3\n      dup2\n      sub\n      dup3\n      mstore\n      0x1b\n      dup2\n      mstore\n      0x20\n      add\n      dup1\n      0x4163636f756e7420697320616c7265616479206578636c756465640000000000\n      dup2\n      mstore\n      pop\n      0x20\n      add\n      swap2\n      pop\n      pop\n      mload(0x40)\n      dup1\n      swap2\n      sub\n      swap1\n      revert\n    tag_178:\n        /* \"sadc.sol\":20206:20207  0 */\n      0x00\n        /* \"sadc.sol\":20187:20194  _rOwned */\n      0x01\n        /* \"sadc.sol\":20187:20203  _rOwned[account] */\n      0x00\n        /* \"sadc.sol\":20195:20202  account */\n      dup4\n        /* \"sadc.sol\":20187:20203  _rOwned[account] */\n      0xffffffffffffffffffffffffffffffffffffffff\n      and\n      0xffffffffffffffffffffffffffffffffffffffff\n      and\n      dup2\n      mstore\n      0x20\n      add\n      swap1\n      dup2\n      mstore\n      0x20\n      add\n      0x00\n      keccak256\n      sload\n        /* \"sadc.sol\":20187:20207  _rOwned[account] > 0 */\n      gt\n        /* \"sadc.sol\":20184:20292  if(_rOwned[account] > 0) {\r... */\n      iszero\n      tag_179\n      jumpi\n        /* \"sadc.sol\":20243:20280  tokenFromReflection(_rOwned[account]) */\n      tag_180\n        /* \"sadc.sol\":20263:20270  _rOwned */\n      0x01\n        /* \"sadc.sol\":20263:20279  _rOwned[account] */\n      0x00\n        /* \"sadc.sol\":20271:20278  account */\n      dup4\n        /* \"sadc.sol\":20263:20279  _rOwned[account] */\n      0xffffffffffffffffffffffffffffffffffffffff\n      and\n      0xffffffffffffffffffffffffffffffffffffffff\n      and\n      dup2\n      mstore\n      0x20\n      add\n      swap1\n      dup2\n      mstore\n      0x20\n      add\n      0x00\n      keccak256\n      sload\n        /* \"sadc.sol\":20243:20262  tokenFromReflection */\n      tag_50\n        /* \"sadc.sol\":20243:20280  tokenFromReflection(_rOwned[account]) */\n      jump\t// in\n    tag_180:\n        /* \"sadc.sol\":20224:20231  _tOwned */\n      0x02\n        /* \"sadc.sol\":20224:20240  _tOwned[account] */\n      0x00\n        /* \"sadc.sol\":20232:20239  account */\n      dup4\n        /* \"sadc.sol\":20224:20240  _tOwned[account] */\n      0xffffffffffffffffffffffffffffffffffffffff\n      and\n      0xffffffffffffffffffffffffffffffffffffffff\n      and\n      dup2\n      mstore\n      0x20\n      add\n      swap1\n      dup2\n      mstore\n      0x20\n      add\n      0x00\n      keccak256\n        /* \"sadc.sol\":20224:20280  _tOwned[account] = tokenFromReflection(_rOwned[account]) */\n      dup2\n      swap1\n      sstore\n      pop\n        /* \"sadc.sol\":20184:20292  if(_rOwned[account] > 0) {\r... */\n    tag_179:\n        /* \"sadc.sol\":20325:20329  true */\n      0x01\n        /* \"sadc.sol\":20302:20313  _isExcluded */\n      0x04\n        /* \"sadc.sol\":20302:20322  _isExcluded[account] */\n      0x00\n        /* \"sadc.sol\":20314:20321  account */\n      dup4\n        /* \"sadc.sol\":20302:20322  _isExcluded[account] */\n      0xffffffffffffffffffffffffffffffffffffffff\n      and\n      0xffffffffffffffffffffffffffffffffffffffff\n      and\n      dup2\n      mstore\n      0x20\n      add\n      swap1\n      dup2\n      mstore\n      0x20\n      add\n      0x00\n      keccak256\n      0x00\n        /* \"sadc.sol\":20302:20329  _isExcluded[account] = true */\n      0x0100\n      exp\n      dup2\n      sload\n      dup2\n      0xff\n      mul\n      not\n      and\n      swap1\n      dup4\n      iszero\n      iszero\n      mul\n      or\n      swap1\n      sstore\n      pop\n        /* \"sadc.sol\":20340:20349  _excluded */\n      0x05\n        /* \"sadc.sol\":20355:20362  account */\n      dup2\n        /* \"sadc.sol\":20340:20363  _excluded.push(account) */\n      swap1\n      dup1\n      0x01\n      dup2\n      sload\n      add\n      dup1\n      dup3\n      sstore\n      dup1\n      swap2\n      pop\n      pop\n      0x01\n      swap1\n      sub\n      swap1\n      0x00\n      mstore\n      keccak256(0x00, 0x20)\n      add\n      0x00\n      swap1\n      swap2\n      swap1\n      swap2\n      swap1\n      swap2\n      0x0100\n      exp\n      dup2\n      sload\n      dup2\n      0xffffffffffffffffffffffffffffffffffffffff\n      mul\n      not\n      and\n      swap1\n      dup4\n      0xffffffffffffffffffffffffffffffffffffffff\n      and\n      mul\n      or\n      swap1\n      sstore\n      pop\n        /* \"sadc.sol\":20039:20371  function excludeAccount(address account) external onlyOwner() {\r... */\n      pop\n      jump\t// out\n        /* \"sadc.sol\":15495:15739  function transferOwnership(address newOwner) public virtual onlyOwner {\r... */\n    tag_94:\n        /* \"sadc.sol\":14772:14784  _msgSender() */\n      tag_183\n        /* \"sadc.sol\":14772:14782  _msgSender */\n      tag_100\n        /* \"sadc.sol\":14772:14784  _msgSender() */\n      jump\t// in\n    tag_183:\n        /* \"sadc.sol\":14762:14784  _owner == _msgSender() */\n      0xffffffffffffffffffffffffffffffffffffffff\n      and\n        /* \"sadc.sol\":14762:14768  _owner */\n      0x00\n      dup1\n      sload\n      swap1\n      0x0100\n      exp\n      swap1\n      div\n      0xffffffffffffffffffffffffffffffffffffffff\n      and\n        /* \"sadc.sol\":14762:14784  _owner == _msgSender() */\n      0xffffffffffffffffffffffffffffffffffffffff\n      and\n      eq\n        /* \"sadc.sol\":14754:14821  require(_owner == _msgSender(), \"Ownable: caller is not the owner\") */\n      tag_184\n      jumpi\n      mload(0x40)\n      0x08c379a000000000000000000000000000000000000000000000000000000000\n      dup2\n      mstore\n      0x04\n      add\n      dup1\n      dup1\n      0x20\n      add\n      dup3\n      dup2\n      sub\n      dup3\n      mstore\n      0x20\n      dup2\n      mstore\n      0x20\n      add\n      dup1\n      0x4f776e61626c653a2063616c6c6572206973206e6f7420746865206f776e6572\n      dup2\n      mstore\n      pop\n      0x20\n      add\n      swap2\n      pop\n      pop\n      mload(0x40)\n      dup1\n      swap2\n      sub\n      swap1\n      revert\n    tag_184:\n        /* \"sadc.sol\":15604:15605  0 */\n      0x00\n        /* \"sadc.sol\":15584:15606  newOwner != address(0) */\n      0xffffffffffffffffffffffffffffffffffffffff\n      and\n        /* \"sadc.sol\":15584:15592  newOwner */\n      dup2\n        /* \"sadc.sol\":15584:15606  newOwner != address(0) */\n      0xffffffffffffffffffffffffffffffffffffffff\n      and\n      eq\n      iszero\n        /* \"sadc.sol\":15576:15649  require(newOwner != address(0), \"Ownable: new owner is the zero address\") */\n      tag_186\n      jumpi\n      mload(0x40)\n      0x08c379a000000000000000000000000000000000000000000000000000000000\n      dup2\n      mstore\n      0x04\n      add\n      dup1\n      dup1\n      0x20\n      add\n      dup3\n      dup2\n      sub\n      dup3\n      mstore\n      0x26\n      dup2\n      mstore\n      0x20\n      add\n      dup1\n      data_245f15ff17f551913a7a18385165551503906a406f905ac1c2437281a7cd0cfe\n      0x26\n      swap2\n      codecopy\n      0x40\n      add\n      swap2\n      pop\n      pop\n      mload(0x40)\n      dup1\n      swap2\n      sub\n      swap1\n      revert\n    tag_186:\n        /* \"sadc.sol\":15694:15702  newOwner */\n      dup1\n        /* \"sadc.sol\":15665:15703  OwnershipTransferred(_owner, newOwner) */\n      0xffffffffffffffffffffffffffffffffffffffff\n      and\n        /* \"sadc.sol\":15686:15692  _owner */\n      0x00\n      dup1\n      sload\n      swap1\n      0x0100\n      exp\n      swap1\n      div\n      0xffffffffffffffffffffffffffffffffffffffff\n      and\n        /* \"sadc.sol\":15665:15703  OwnershipTransferred(_owner, newOwner) */\n      0xffffffffffffffffffffffffffffffffffffffff\n      and\n      0x8be0079c531659141344cd1fd0a4f28419497f9722a3daafe3b4186f6b6457e0\n      mload(0x40)\n      mload(0x40)\n      dup1\n      swap2\n      sub\n      swap1\n      log3\n        /* \"sadc.sol\":15723:15731  newOwner */\n      dup1\n        /* \"sadc.sol\":15714:15720  _owner */\n      0x00\n      dup1\n        /* \"sadc.sol\":15714:15731  _owner = newOwner */\n      0x0100\n      exp\n      dup2\n      sload\n      dup2\n      0xffffffffffffffffffffffffffffffffffffffff\n      mul\n      not\n      and\n      swap1\n      dup4\n      0xffffffffffffffffffffffffffffffffffffffff\n      and\n      mul\n      or\n      swap1\n      sstore\n      pop\n        /* \"sadc.sol\":15495:15739  function transferOwnership(address newOwner) public virtual onlyOwner {\r... */\n      pop\n      jump\t// out\n        /* \"sadc.sol\":20379:20857  function includeAccount(address account) external onlyOwner() {\r... */\n    tag_97:\n        /* \"sadc.sol\":14772:14784  _msgSender() */\n      tag_188\n        /* \"sadc.sol\":14772:14782  _msgSender */\n      tag_100\n        /* \"sadc.sol\":14772:14784  _msgSender() */\n      jump\t// in\n    tag_188:\n        /* \"sadc.sol\":14762:14784  _owner == _msgSender() */\n      0xffffffffffffffffffffffffffffffffffffffff\n      and\n        /* \"sadc.sol\":14762:14768  _owner */\n      0x00\n      dup1\n      sload\n      swap1\n      0x0100\n      exp\n      swap1\n      div\n      0xffffffffffffffffffffffffffffffffffffffff\n      and\n        /* \"sadc.sol\":14762:14784  _owner == _msgSender() */\n      0xffffffffffffffffffffffffffffffffffffffff\n      and\n      eq\n        /* \"sadc.sol\":14754:14821  require(_owner == _msgSender(), \"Ownable: caller is not the owner\") */\n      tag_189\n      jumpi\n      mload(0x40)\n      0x08c379a000000000000000000000000000000000000000000000000000000000\n      dup2\n      mstore\n      0x04\n      add\n      dup1\n      dup1\n      0x20\n      add\n      dup3\n      dup2\n      sub\n      dup3\n      mstore\n      0x20\n      dup2\n      mstore\n      0x20\n      add\n      dup1\n      0x4f776e61626c653a2063616c6c6572206973206e6f7420746865206f776e6572\n      dup2\n      mstore\n      pop\n      0x20\n      add\n      swap2\n      pop\n      pop\n      mload(0x40)\n      dup1\n      swap2\n      sub\n      swap1\n      revert\n    tag_189:\n        /* \"sadc.sol\":20460:20471  _isExcluded */\n      0x04\n        /* \"sadc.sol\":20460:20480  _isExcluded[account] */\n      0x00\n        /* \"sadc.sol\":20472:20479  account */\n      dup3\n        /* \"sadc.sol\":20460:20480  _isExcluded[account] */\n      0xffffffffffffffffffffffffffffffffffffffff\n      and\n      0xffffffffffffffffffffffffffffffffffffffff\n      and\n      dup2\n      mstore\n      0x20\n      add\n      swap1\n      dup2\n      mstore\n      0x20\n      add\n      0x00\n      keccak256\n      0x00\n      swap1\n      sload\n      swap1\n      0x0100\n      exp\n      swap1\n      div\n      0xff\n      and\n        /* \"sadc.sol\":20452:20512  require(_isExcluded[account], \"Account is already excluded\") */\n      tag_191\n      jumpi\n      mload(0x40)\n      0x08c379a000000000000000000000000000000000000000000000000000000000\n      dup2\n      mstore\n      0x04\n      add\n      dup1\n      dup1\n      0x20\n      add\n      dup3\n      dup2\n      sub\n      dup3\n      mstore\n      0x1b\n      dup2\n      mstore\n      0x20\n      add\n      dup1\n      0x4163636f756e7420697320616c7265616479206578636c756465640000000000\n      dup2\n      mstore\n      pop\n      0x20\n      add\n      swap2\n      pop\n      pop\n      mload(0x40)\n      dup1\n      swap2\n      sub\n      swap1\n      revert\n    tag_191:\n        /* \"sadc.sol\":20528:20537  uint256 i */\n      0x00\n        /* \"sadc.sol\":20523:20850  for (uint256 i = 0; i < _excluded.length; i++) {\r... */\n    tag_192:\n        /* \"sadc.sol\":20547:20556  _excluded */\n      0x05\n        /* \"sadc.sol\":20547:20563  _excluded.length */\n      dup1\n      sload\n      swap1\n      pop\n        /* \"sadc.sol\":20543:20544  i */\n      dup2\n        /* \"sadc.sol\":20543:20563  i < _excluded.length */\n      lt\n        /* \"sadc.sol\":20523:20850  for (uint256 i = 0; i < _excluded.length; i++) {\r... */\n      iszero\n      tag_193\n      jumpi\n        /* \"sadc.sol\":20605:20612  account */\n      dup2\n        /* \"sadc.sol\":20589:20612  _excluded[i] == account */\n      0xffffffffffffffffffffffffffffffffffffffff\n      and\n        /* \"sadc.sol\":20589:20598  _excluded */\n      0x05\n        /* \"sadc.sol\":20599:20600  i */\n      dup3\n        /* \"sadc.sol\":20589:20601  _excluded[i] */\n      dup2\n      sload\n      dup2\n      lt\n      tag_195\n      jumpi\n      invalid\n    tag_195:\n      swap1\n      0x00\n      mstore\n      keccak256(0x00, 0x20)\n      add\n      0x00\n      swap1\n      sload\n      swap1\n      0x0100\n      exp\n      swap1\n      div\n      0xffffffffffffffffffffffffffffffffffffffff\n      and\n        /* \"sadc.sol\":20589:20612  _excluded[i] == account */\n      0xffffffffffffffffffffffffffffffffffffffff\n      and\n      eq\n        /* \"sadc.sol\":20585:20839  if (_excluded[i] == account) {\r... */\n      iszero\n      tag_197\n      jumpi\n        /* \"sadc.sol\":20648:20657  _excluded */\n      0x05\n        /* \"sadc.sol\":20677:20678  1 */\n      0x01\n        /* \"sadc.sol\":20658:20667  _excluded */\n      0x05\n        /* \"sadc.sol\":20658:20674  _excluded.length */\n      dup1\n      sload\n      swap1\n      pop\n        /* \"sadc.sol\":20658:20678  _excluded.length - 1 */\n      sub\n        /* \"sadc.sol\":20648:20679  _excluded[_excluded.length - 1] */\n      dup2\n      sload\n      dup2\n      lt\n      tag_198\n      jumpi\n      invalid\n    tag_198:\n      swap1\n      0x00\n      mstore\n      keccak256(0x00, 0x20)\n      add\n      0x00\n      swap1\n      sload\n      swap1\n      0x0100\n      exp\n      swap1\n      div\n      0xffffffffffffffffffffffffffffffffffffffff\n      and\n        /* \"sadc.sol\":20633:20642  _excluded */\n      0x05\n        /* \"sadc.sol\":20643:20644  i */\n      dup3\n        /* \"sadc.sol\":20633:20645  _excluded[i] */\n      dup2\n      sload\n      dup2\n      lt\n      tag_200\n      jumpi\n      invalid\n    tag_200:\n      swap1\n      0x00\n      mstore\n      keccak256(0x00, 0x20)\n      add\n      0x00\n        /* \"sadc.sol\":20633:20679  _excluded[i] = _excluded[_excluded.length - 1] */\n      0x0100\n      exp\n      dup2\n      sload\n      dup2\n      0xffffffffffffffffffffffffffffffffffffffff\n      mul\n      not\n      and\n      swap1\n      dup4\n      0xffffffffffffffffffffffffffffffffffffffff\n      and\n      mul\n      or\n      swap1\n      sstore\n      pop\n        /* \"sadc.sol\":20717:20718  0 */\n      0x00\n        /* \"sadc.sol\":20698:20705  _tOwned */\n      0x02\n        /* \"sadc.sol\":20698:20714  _tOwned[account] */\n      0x00\n        /* \"sadc.sol\":20706:20713  account */\n      dup5\n        /* \"sadc.sol\":20698:20714  _tOwned[account] */\n      0xffffffffffffffffffffffffffffffffffffffff\n      and\n      0xffffffffffffffffffffffffffffffffffffffff\n      and\n      dup2\n      mstore\n      0x20\n      add\n      swap1\n      dup2\n      mstore\n      0x20\n      add\n      0x00\n      keccak256\n        /* \"sadc.sol\":20698:20718  _tOwned[account] = 0 */\n      dup2\n      swap1\n      sstore\n      pop\n        /* \"sadc.sol\":20760:20765  false */\n      0x00\n        /* \"sadc.sol\":20737:20748  _isExcluded */\n      0x04\n        /* \"sadc.sol\":20737:20757  _isExcluded[account] */\n      0x00\n        /* \"sadc.sol\":20749:20756  account */\n      dup5\n        /* \"sadc.sol\":20737:20757  _isExcluded[account] */\n      0xffffffffffffffffffffffffffffffffffffffff\n      and\n      0xffffffffffffffffffffffffffffffffffffffff\n      and\n      dup2\n      mstore\n      0x20\n      add\n      swap1\n      dup2\n      mstore\n      0x20\n      add\n      0x00\n      keccak256\n      0x00\n        /* \"sadc.sol\":20737:20765  _isExcluded[account] = false */\n      0x0100\n      exp\n      dup2\n      sload\n      dup2\n      0xff\n      mul\n      not\n      and\n      swap1\n      dup4\n      iszero\n      iszero\n      mul\n      or\n      swap1\n      sstore\n      pop\n        /* \"sadc.sol\":20784:20793  _excluded */\n      0x05\n        /* \"sadc.sol\":20784:20799  _excluded.pop() */\n      dup1\n      sload\n      dup1\n      tag_202\n      jumpi\n      invalid\n    tag_202:\n      0x01\n      swap1\n      sub\n      dup2\n      dup2\n      swap1\n      0x00\n      mstore\n      keccak256(0x00, 0x20)\n      add\n      exp(0x0100, 0x00)\n      dup2\n      sload\n      swap1\n      0xffffffffffffffffffffffffffffffffffffffff\n      mul\n      not\n      and\n      swap1\n      sstore\n      swap1\n      sstore\n        /* \"sadc.sol\":20818:20823  break */\n      jump(tag_193)\n        /* \"sadc.sol\":20585:20839  if (_excluded[i] == account) {\r... */\n    tag_197:\n        /* \"sadc.sol\":20565:20568  i++ */\n      dup1\n      dup1\n      0x01\n      add\n      swap2\n      pop\n      pop\n        /* \"sadc.sol\":20523:20850  for (uint256 i = 0; i < _excluded.length; i++) {\r... */\n      jump(tag_192)\n    tag_193:\n      pop\n        /* \"sadc.sol\":20379:20857  function includeAccount(address account) external onlyOwner() {\r... */\n      pop\n      jump\t// out\n        /* \"sadc.sol\":245:351  function _msgSender() internal view virtual returns (address payable) {\r... */\n    tag_100:\n        /* \"sadc.sol\":298:313  address payable */\n      0x00\n        /* \"sadc.sol\":333:343  msg.sender */\n      caller\n        /* \"sadc.sol\":326:343  return msg.sender */\n      swap1\n      pop\n        /* \"sadc.sol\":245:351  function _msgSender() internal view virtual returns (address payable) {\r... */\n      swap1\n      jump\t// out\n        /* \"sadc.sol\":24568:24979  function _getValues(uint256 tAmount) private view returns (uint256, uint256, uint256, uint256, uint256) {\r... */\n    tag_103:\n        /* \"sadc.sol\":24627:24634  uint256 */\n      0x00\n        /* \"sadc.sol\":24636:24643  uint256 */\n      dup1\n        /* \"sadc.sol\":24645:24652  uint256 */\n      0x00\n        /* \"sadc.sol\":24654:24661  uint256 */\n      dup1\n        /* \"sadc.sol\":24663:24670  uint256 */\n      0x00\n        /* \"sadc.sol\":24684:24707  uint256 tTransferAmount */\n      dup1\n        /* \"sadc.sol\":24709:24721  uint256 tFee */\n      0x00\n        /* \"sadc.sol\":24725:24745  _getTValues(tAmount) */\n      tag_206\n        /* \"sadc.sol\":24737:24744  tAmount */\n      dup9\n        /* \"sadc.sol\":24725:24736  _getTValues */\n      tag_207\n        /* \"sadc.sol\":24725:24745  _getTValues(tAmount) */\n      jump\t// in\n    tag_206:\n        /* \"sadc.sol\":24683:24745  (uint256 tTransferAmount, uint256 tFee) = _getTValues(tAmount) */\n      swap2\n      pop\n      swap2\n      pop\n        /* \"sadc.sol\":24756:24775  uint256 currentRate */\n      0x00\n        /* \"sadc.sol\":24779:24789  _getRate() */\n      tag_208\n        /* \"sadc.sol\":24779:24787  _getRate */\n      tag_130\n        /* \"sadc.sol\":24779:24789  _getRate() */\n      jump\t// in\n    tag_208:\n        /* \"sadc.sol\":24756:24789  uint256 currentRate =  _getRate() */\n      swap1\n      pop\n        /* \"sadc.sol\":24801:24816  uint256 rAmount */\n      0x00\n        /* \"sadc.sol\":24818:24841  uint256 rTransferAmount */\n      dup1\n        /* \"sadc.sol\":24843:24855  uint256 rFee */\n      0x00\n        /* \"sadc.sol\":24859:24898  _getRValues(tAmount, tFee, currentRate) */\n      tag_209\n        /* \"sadc.sol\":24871:24878  tAmount */\n      dup13\n        /* \"sadc.sol\":24880:24884  tFee */\n      dup7\n        /* \"sadc.sol\":24886:24897  currentRate */\n      dup7\n        /* \"sadc.sol\":24859:24870  _getRValues */\n      tag_210\n        /* \"sadc.sol\":24859:24898  _getRValues(tAmount, tFee, currentRate) */\n      jump\t// in\n    tag_209:\n        /* \"sadc.sol\":24800:24898  (uint256 rAmount, uint256 rTransferAmount, uint256 rFee) = _getRValues(tAmount, tFee, currentRate) */\n      swap3\n      pop\n      swap3\n      pop\n      swap3\n      pop\n        /* \"sadc.sol\":24917:24924  rAmount */\n      dup3\n        /* \"sadc.sol\":24926:24941  rTransferAmount */\n      dup3\n        /* \"sadc.sol\":24943:24947  rFee */\n      dup3\n        /* \"sadc.sol\":24949:24964  tTransferAmount */\n      dup9\n        /* \"sadc.sol\":24966:24970  tFee */\n      dup9\n        /* \"sadc.sol\":24909:24971  return (rAmount, rTransferAmount, rFee, tTransferAmount, tFee) */\n      swap11\n      pop\n      swap11\n      pop\n      swap11\n      pop\n      swap11\n      pop\n      swap11\n      pop\n      pop\n      pop\n      pop\n      pop\n      pop\n      pop\n        /* \"sadc.sol\":24568:24979  function _getValues(uint256 tAmount) private view returns (uint256, uint256, uint256, uint256, uint256) {\r... */\n      swap2\n      swap4\n      swap6\n      swap1\n      swap3\n      swap5\n      pop\n      jump\t// out\n        /* \"sadc.sol\":3965:4101  function sub(uint256 a, uint256 b) internal pure returns (uint256) {\r... */\n    tag_105:\n        /* \"sadc.sol\":4023:4030  uint256 */\n      0x00\n        /* \"sadc.sol\":4050:4093  sub(a, b, \"SafeMath: subtraction overflow\") */\n      tag_212\n        /* \"sadc.sol\":4054:4055  a */\n      dup4\n        /* \"sadc.sol\":4057:4058  b */\n      dup4\n        /* \"sadc.sol\":4050:4093  sub(a, b, \"SafeMath: subtraction overflow\") */\n      mload(0x40)\n      dup1\n      0x40\n      add\n      0x40\n      mstore\n      dup1\n      0x1e\n      dup2\n      mstore\n      0x20\n      add\n      0x536166654d6174683a207375627472616374696f6e206f766572666c6f770000\n      dup2\n      mstore\n      pop\n        /* \"sadc.sol\":4050:4053  sub */\n      tag_126\n        /* \"sadc.sol\":4050:4093  sub(a, b, \"SafeMath: subtraction overflow\") */\n      jump\t// in\n    tag_212:\n        /* \"sadc.sol\":4043:4093  return sub(a, b, \"SafeMath: subtraction overflow\") */\n      swap1\n      pop\n        /* \"sadc.sol\":3965:4101  function sub(uint256 a, uint256 b) internal pure returns (uint256) {\r... */\n      swap3\n      swap2\n      pop\n      pop\n      jump\t// out\n        /* \"sadc.sol\":3501:3682  function add(uint256 a, uint256 b) internal pure returns (uint256) {\r... */\n    tag_108:\n        /* \"sadc.sol\":3559:3566  uint256 */\n      0x00\n        /* \"sadc.sol\":3579:3588  uint256 c */\n      dup1\n        /* \"sadc.sol\":3595:3596  b */\n      dup3\n        /* \"sadc.sol\":3591:3592  a */\n      dup5\n        /* \"sadc.sol\":3591:3596  a + b */\n      add\n        /* \"sadc.sol\":3579:3596  uint256 c = a + b */\n      swap1\n      pop\n        /* \"sadc.sol\":3620:3621  a */\n      dup4\n        /* \"sadc.sol\":3615:3616  c */\n      dup2\n        /* \"sadc.sol\":3615:3621  c >= a */\n      lt\n      iszero\n        /* \"sadc.sol\":3607:3653  require(c >= a, \"SafeMath: addition overflow\") */\n      tag_214\n      jumpi\n      mload(0x40)\n      0x08c379a000000000000000000000000000000000000000000000000000000000\n      dup2\n      mstore\n      0x04\n      add\n      dup1\n      dup1\n      0x20\n      add\n      dup3\n      dup2\n      sub\n      dup3\n      mstore\n      0x1b\n      dup2\n      mstore\n      0x20\n      add\n      dup1\n      0x536166654d6174683a206164646974696f6e206f766572666c6f770000000000\n      dup2\n      mstore\n      pop\n      0x20\n      add\n      swap2\n      pop\n      pop\n      mload(0x40)\n      dup1\n      swap2\n      sub\n      swap1\n      revert\n    tag_214:\n        /* \"sadc.sol\":3673:3674  c */\n      dup1\n        /* \"sadc.sol\":3666:3674  return c */\n      swap2\n      pop\n      pop\n        /* \"sadc.sol\":3501:3682  function add(uint256 a, uint256 b) internal pure returns (uint256) {\r... */\n      swap3\n      swap2\n      pop\n      pop\n      jump\t// out\n        /* \"sadc.sol\":20865:21202  function _approve(address owner, address spender, uint256 amount) private {\r... */\n    tag_116:\n        /* \"sadc.sol\":20975:20976  0 */\n      0x00\n        /* \"sadc.sol\":20958:20977  owner != address(0) */\n      0xffffffffffffffffffffffffffffffffffffffff\n      and\n        /* \"sadc.sol\":20958:20963  owner */\n      dup4\n        /* \"sadc.sol\":20958:20977  owner != address(0) */\n      0xffffffffffffffffffffffffffffffffffffffff\n      and\n      eq\n      iszero\n        /* \"sadc.sol\":20950:21018  require(owner != address(0), \"ERC20: approve from the zero address\") */\n      tag_216\n      jumpi\n      mload(0x40)\n      0x08c379a000000000000000000000000000000000000000000000000000000000\n      dup2\n      mstore\n      0x04\n      add\n      dup1\n      dup1\n      0x20\n      add\n      dup3\n      dup2\n      sub\n      dup3\n      mstore\n      0x24\n      dup2\n      mstore\n      0x20\n      add\n      dup1\n      data_c953f4879035ed60e766b34720f656aab5c697b141d924c283124ecedb91c208\n      0x24\n      swap2\n      codecopy\n      0x40\n      add\n      swap2\n      pop\n      pop\n      mload(0x40)\n      dup1\n      swap2\n      sub\n      swap1\n      revert\n    tag_216:\n        /* \"sadc.sol\":21056:21057  0 */\n      0x00\n        /* \"sadc.sol\":21037:21058  spender != address(0) */\n      0xffffffffffffffffffffffffffffffffffffffff\n      and\n        /* \"sadc.sol\":21037:21044  spender */\n      dup3\n        /* \"sadc.sol\":21037:21058  spender != address(0) */\n      0xffffffffffffffffffffffffffffffffffffffff\n      and\n      eq\n      iszero\n        /* \"sadc.sol\":21029:21097  require(spender != address(0), \"ERC20: approve to the zero address\") */\n      tag_217\n      jumpi\n      mload(0x40)\n      0x08c379a000000000000000000000000000000000000000000000000000000000\n      dup2\n      mstore\n      0x04\n      add\n      dup1\n      dup1\n      0x20\n      add\n      dup3\n      dup2\n      sub\n      dup3\n      mstore\n      0x22\n      dup2\n      mstore\n      0x20\n      add\n      dup1\n      data_24883cc5fe64ace9d0df1893501ecb93c77180f0ff69cca79affb3c316dc8029\n      0x22\n      swap2\n      codecopy\n      0x40\n      add\n      swap2\n      pop\n      pop\n      mload(0x40)\n      dup1\n      swap2\n      sub\n      swap1\n      revert\n    tag_217:\n        /* \"sadc.sol\":21140:21146  amount */\n      dup1\n        /* \"sadc.sol\":21110:21121  _allowances */\n      0x03\n        /* \"sadc.sol\":21110:21128  _allowances[owner] */\n      0x00\n        /* \"sadc.sol\":21122:21127  owner */\n      dup6\n        /* \"sadc.sol\":21110:21128  _allowances[owner] */\n      0xffffffffffffffffffffffffffffffffffffffff\n      and\n      0xffffffffffffffffffffffffffffffffffffffff\n      and\n      dup2\n      mstore\n      0x20\n      add\n      swap1\n      dup2\n      mstore\n      0x20\n      add\n      0x00\n      keccak256\n        /* \"sadc.sol\":21110:21137  _allowances[owner][spender] */\n      0x00\n        /* \"sadc.sol\":21129:21136  spender */\n      dup5\n        /* \"sadc.sol\":21110:21137  _allowances[owner][spender] */\n      0xffffffffffffffffffffffffffffffffffffffff\n      and\n      0xffffffffffffffffffffffffffffffffffffffff\n      and\n      dup2\n      mstore\n      0x20\n      add\n      swap1\n      dup2\n      mstore\n      0x20\n      add\n      0x00\n      keccak256\n        /* \"sadc.sol\":21110:21146  _allowances[owner][spender] = amount */\n      dup2\n      swap1\n      sstore\n      pop\n        /* \"sadc.sol\":21178:21185  spender */\n      dup2\n        /* \"sadc.sol\":21162:21194  Approval(owner, spender, amount) */\n      0xffffffffffffffffffffffffffffffffffffffff\n      and\n        /* \"sadc.sol\":21171:21176  owner */\n      dup4\n        /* \"sadc.sol\":21162:21194  Approval(owner, spender, amount) */\n      0xffffffffffffffffffffffffffffffffffffffff\n      and\n      0x8c5be1e5ebec7d5bd14f71427d1e84f3dd0314c0f7b2291e5b200ac8c7c3b925\n        /* \"sadc.sol\":21187:21193  amount */\n      dup4\n        /* \"sadc.sol\":21162:21194  Approval(owner, spender, amount) */\n      mload(0x40)\n      dup1\n      dup3\n      dup2\n      mstore\n      0x20\n      add\n      swap2\n      pop\n      pop\n      mload(0x40)\n      dup1\n      swap2\n      sub\n      swap1\n      log3\n        /* \"sadc.sol\":20865:21202  function _approve(address owner, address spender, uint256 amount) private {\r... */\n      pop\n      pop\n      pop\n      jump\t// out\n        /* \"sadc.sol\":21210:22298  function _transfer(address sender, address recipient, uint256 amount) private {\r... */\n    tag_121:\n        /* \"sadc.sol\":21325:21326  0 */\n      0x00\n        /* \"sadc.sol\":21307:21327  sender != address(0) */\n      0xffffffffffffffffffffffffffffffffffffffff\n      and\n        /* \"sadc.sol\":21307:21313  sender */\n      dup4\n        /* \"sadc.sol\":21307:21327  sender != address(0) */\n      0xffffffffffffffffffffffffffffffffffffffff\n      and\n      eq\n      iszero\n        /* \"sadc.sol\":21299:21369  require(sender != address(0), \"ERC20: transfer from the zero address\") */\n      tag_219\n      jumpi\n      mload(0x40)\n      0x08c379a000000000000000000000000000000000000000000000000000000000\n      dup2\n      mstore\n      0x04\n      add\n      dup1\n      dup1\n      0x20\n      add\n      dup3\n      dup2\n      sub\n      dup3\n      mstore\n      0x25\n      dup2\n      mstore\n      0x20\n      add\n      dup1\n      data_baecc556b46f4ed0f2b4cb599d60785ac8563dd2dc0a5bf12edea1c39e5e1fea\n      0x25\n      swap2\n      codecopy\n      0x40\n      add\n      swap2\n      pop\n      pop\n      mload(0x40)\n      dup1\n      swap2\n      sub\n      swap1\n      revert\n    tag_219:\n        /* \"sadc.sol\":21409:21410  0 */\n      0x00\n        /* \"sadc.sol\":21388:21411  recipient != address(0) */\n      0xffffffffffffffffffffffffffffffffffffffff\n      and\n        /* \"sadc.sol\":21388:21397  recipient */\n      dup3\n        /* \"sadc.sol\":21388:21411  recipient != address(0) */\n      0xffffffffffffffffffffffffffffffffffffffff\n      and\n      eq\n      iszero\n        /* \"sadc.sol\":21380:21451  require(recipient != address(0), \"ERC20: transfer to the zero address\") */\n      tag_220\n      jumpi\n      mload(0x40)\n      0x08c379a000000000000000000000000000000000000000000000000000000000\n      dup2\n      mstore\n      0x04\n      add\n      dup1\n      dup1\n      0x20\n      add\n      dup3\n      dup2\n      sub\n      dup3\n      mstore\n      0x23\n      dup2\n      mstore\n      0x20\n      add\n      dup1\n      data_0557e210f7a69a685100a7e4e3d0a7024c546085cee28910fd17d0b081d9516f\n      0x23\n      swap2\n      codecopy\n      0x40\n      add\n      swap2\n      pop\n      pop\n      mload(0x40)\n      dup1\n      swap2\n      sub\n      swap1\n      revert\n    tag_220:\n        /* \"sadc.sol\":21479:21480  0 */\n      0x00\n        /* \"sadc.sol\":21470:21476  amount */\n      dup2\n        /* \"sadc.sol\":21470:21480  amount > 0 */\n      gt\n        /* \"sadc.sol\":21462:21526  require(amount > 0, \"Transfer amount must be greater than zero\") */\n      tag_221\n      jumpi\n      mload(0x40)\n      0x08c379a000000000000000000000000000000000000000000000000000000000\n      dup2\n      mstore\n      0x04\n      add\n      dup1\n      dup1\n      0x20\n      add\n      dup3\n      dup2\n      sub\n      dup3\n      mstore\n      0x29\n      dup2\n      mstore\n      0x20\n      add\n      dup1\n      data_9edb5ab58321f35d2386ea65721c9b107daa2c273610fc16d394af2a320ba785\n      0x29\n      swap2\n      codecopy\n      0x40\n      add\n      swap2\n      pop\n      pop\n      mload(0x40)\n      dup1\n      swap2\n      sub\n      swap1\n      revert\n    tag_221:\n        /* \"sadc.sol\":21550:21557  owner() */\n      tag_222\n        /* \"sadc.sol\":21550:21555  owner */\n      tag_67\n        /* \"sadc.sol\":21550:21557  owner() */\n      jump\t// in\n    tag_222:\n        /* \"sadc.sol\":21540:21557  sender != owner() */\n      0xffffffffffffffffffffffffffffffffffffffff\n      and\n        /* \"sadc.sol\":21540:21546  sender */\n      dup4\n        /* \"sadc.sol\":21540:21557  sender != owner() */\n      0xffffffffffffffffffffffffffffffffffffffff\n      and\n      eq\n      iszero\n        /* \"sadc.sol\":21540:21581  sender != owner() && recipient != owner() */\n      dup1\n      iszero\n      tag_223\n      jumpi\n      pop\n        /* \"sadc.sol\":21574:21581  owner() */\n      tag_224\n        /* \"sadc.sol\":21574:21579  owner */\n      tag_67\n        /* \"sadc.sol\":21574:21581  owner() */\n      jump\t// in\n    tag_224:\n        /* \"sadc.sol\":21561:21581  recipient != owner() */\n      0xffffffffffffffffffffffffffffffffffffffff\n      and\n        /* \"sadc.sol\":21561:21570  recipient */\n      dup3\n        /* \"sadc.sol\":21561:21581  recipient != owner() */\n      0xffffffffffffffffffffffffffffffffffffffff\n      and\n      eq\n      iszero\n        /* \"sadc.sol\":21540:21581  sender != owner() && recipient != owner() */\n    tag_223:\n        /* \"sadc.sol\":21537:21669  if(sender != owner() && recipient != owner())\r... */\n      iszero\n      tag_225\n      jumpi\n        /* \"sadc.sol\":21612:21624  _maxTxAmount */\n      sload(0x0b)\n        /* \"sadc.sol\":21602:21608  amount */\n      dup2\n        /* \"sadc.sol\":21602:21624  amount <= _maxTxAmount */\n      gt\n      iszero\n        /* \"sadc.sol\":21594:21669  require(amount <= _maxTxAmount, \"Transfer amount exceeds the maxTxAmount.\") */\n      tag_226\n      jumpi\n      mload(0x40)\n      0x08c379a000000000000000000000000000000000000000000000000000000000\n      dup2\n      mstore\n      0x04\n      add\n      dup1\n      dup1\n      0x20\n      add\n      dup3\n      dup2\n      sub\n      dup3\n      mstore\n      0x28\n      dup2\n      mstore\n      0x20\n      add\n      dup1\n      data_72052210969ce5fd88e52b5e685de9548acef9bb1b6d02e29c1765d0674948dd\n      0x28\n      swap2\n      codecopy\n      0x40\n      add\n      swap2\n      pop\n      pop\n      mload(0x40)\n      dup1\n      swap2\n      sub\n      swap1\n      revert\n    tag_226:\n        /* \"sadc.sol\":21537:21669  if(sender != owner() && recipient != owner())\r... */\n    tag_225:\n        /* \"sadc.sol\":21698:21709  _isExcluded */\n      0x04\n        /* \"sadc.sol\":21698:21717  _isExcluded[sender] */\n      0x00\n        /* \"sadc.sol\":21710:21716  sender */\n      dup5\n        /* \"sadc.sol\":21698:21717  _isExcluded[sender] */\n      0xffffffffffffffffffffffffffffffffffffffff\n      and\n      0xffffffffffffffffffffffffffffffffffffffff\n      and\n      dup2\n      mstore\n      0x20\n      add\n      swap1\n      dup2\n      mstore\n      0x20\n      add\n      0x00\n      keccak256\n      0x00\n      swap1\n      sload\n      swap1\n      0x0100\n      exp\n      swap1\n      div\n      0xff\n      and\n        /* \"sadc.sol\":21698:21744  _isExcluded[sender] && !_isExcluded[recipient] */\n      dup1\n      iszero\n      tag_227\n      jumpi\n      pop\n        /* \"sadc.sol\":21722:21733  _isExcluded */\n      0x04\n        /* \"sadc.sol\":21722:21744  _isExcluded[recipient] */\n      0x00\n        /* \"sadc.sol\":21734:21743  recipient */\n      dup4\n        /* \"sadc.sol\":21722:21744  _isExcluded[recipient] */\n      0xffffffffffffffffffffffffffffffffffffffff\n      and\n      0xffffffffffffffffffffffffffffffffffffffff\n      and\n      dup2\n      mstore\n      0x20\n      add\n      swap1\n      dup2\n      mstore\n      0x20\n      add\n      0x00\n      keccak256\n      0x00\n      swap1\n      sload\n      swap1\n      0x0100\n      exp\n      swap1\n      div\n      0xff\n      and\n        /* \"sadc.sol\":21721:21744  !_isExcluded[recipient] */\n      iszero\n        /* \"sadc.sol\":21698:21744  _isExcluded[sender] && !_isExcluded[recipient] */\n    tag_227:\n        /* \"sadc.sol\":21694:22291  if (_isExcluded[sender] && !_isExcluded[recipient]) {\r... */\n      iszero\n      tag_228\n      jumpi\n        /* \"sadc.sol\":21761:21809  _transferFromExcluded(sender, recipient, amount) */\n      tag_229\n        /* \"sadc.sol\":21783:21789  sender */\n      dup4\n        /* \"sadc.sol\":21791:21800  recipient */\n      dup4\n        /* \"sadc.sol\":21802:21808  amount */\n      dup4\n        /* \"sadc.sol\":21761:21782  _transferFromExcluded */\n      tag_230\n        /* \"sadc.sol\":21761:21809  _transferFromExcluded(sender, recipient, amount) */\n      jump\t// in\n    tag_229:\n        /* \"sadc.sol\":21694:22291  if (_isExcluded[sender] && !_isExcluded[recipient]) {\r... */\n      jump(tag_231)\n    tag_228:\n        /* \"sadc.sol\":21832:21843  _isExcluded */\n      0x04\n        /* \"sadc.sol\":21832:21851  _isExcluded[sender] */\n      0x00\n        /* \"sadc.sol\":21844:21850  sender */\n      dup5\n        /* \"sadc.sol\":21832:21851  _isExcluded[sender] */\n      0xffffffffffffffffffffffffffffffffffffffff\n      and\n      0xffffffffffffffffffffffffffffffffffffffff\n      and\n      dup2\n      mstore\n      0x20\n      add\n      swap1\n      dup2\n      mstore\n      0x20\n      add\n      0x00\n      keccak256\n      0x00\n      swap1\n      sload\n      swap1\n      0x0100\n      exp\n      swap1\n      div\n      0xff\n      and\n        /* \"sadc.sol\":21831:21851  !_isExcluded[sender] */\n      iszero\n        /* \"sadc.sol\":21831:21877  !_isExcluded[sender] && _isExcluded[recipient] */\n      dup1\n      iszero\n      tag_232\n      jumpi\n      pop\n        /* \"sadc.sol\":21855:21866  _isExcluded */\n      0x04\n        /* \"sadc.sol\":21855:21877  _isExcluded[recipient] */\n      0x00\n        /* \"sadc.sol\":21867:21876  recipient */\n      dup4\n        /* \"sadc.sol\":21855:21877  _isExcluded[recipient] */\n      0xffffffffffffffffffffffffffffffffffffffff\n      and\n      0xffffffffffffffffffffffffffffffffffffffff\n      and\n      dup2\n      mstore\n      0x20\n      add\n      swap1\n      dup2\n      mstore\n      0x20\n      add\n      0x00\n      keccak256\n      0x00\n      swap1\n      sload\n      swap1\n      0x0100\n      exp\n      swap1\n      div\n      0xff\n      and\n        /* \"sadc.sol\":21831:21877  !_isExcluded[sender] && _isExcluded[recipient] */\n    tag_232:\n        /* \"sadc.sol\":21827:22291  if (!_isExcluded[sender] && _isExcluded[recipient]) {\r... */\n      iszero\n      tag_233\n      jumpi\n        /* \"sadc.sol\":21894:21940  _transferToExcluded(sender, recipient, amount) */\n      tag_234\n        /* \"sadc.sol\":21914:21920  sender */\n      dup4\n        /* \"sadc.sol\":21922:21931  recipient */\n      dup4\n        /* \"sadc.sol\":21933:21939  amount */\n      dup4\n        /* \"sadc.sol\":21894:21913  _transferToExcluded */\n      tag_235\n        /* \"sadc.sol\":21894:21940  _transferToExcluded(sender, recipient, amount) */\n      jump\t// in\n    tag_234:\n        /* \"sadc.sol\":21827:22291  if (!_isExcluded[sender] && _isExcluded[recipient]) {\r... */\n      jump(tag_236)\n    tag_233:\n        /* \"sadc.sol\":21963:21974  _isExcluded */\n      0x04\n        /* \"sadc.sol\":21963:21982  _isExcluded[sender] */\n      0x00\n        /* \"sadc.sol\":21975:21981  sender */\n      dup5\n        /* \"sadc.sol\":21963:21982  _isExcluded[sender] */\n      0xffffffffffffffffffffffffffffffffffffffff\n      and\n      0xffffffffffffffffffffffffffffffffffffffff\n      and\n      dup2\n      mstore\n      0x20\n      add\n      swap1\n      dup2\n      mstore\n      0x20\n      add\n      0x00\n      keccak256\n      0x00\n      swap1\n      sload\n      swap1\n      0x0100\n      exp\n      swap1\n      div\n      0xff\n      and\n        /* \"sadc.sol\":21962:21982  !_isExcluded[sender] */\n      iszero\n        /* \"sadc.sol\":21962:22009  !_isExcluded[sender] && !_isExcluded[recipient] */\n      dup1\n      iszero\n      tag_237\n      jumpi\n      pop\n        /* \"sadc.sol\":21987:21998  _isExcluded */\n      0x04\n        /* \"sadc.sol\":21987:22009  _isExcluded[recipient] */\n      0x00\n        /* \"sadc.sol\":21999:22008  recipient */\n      dup4\n        /* \"sadc.sol\":21987:22009  _isExcluded[recipient] */\n      0xffffffffffffffffffffffffffffffffffffffff\n      and\n      0xffffffffffffffffffffffffffffffffffffffff\n      and\n      dup2\n      mstore\n      0x20\n      add\n      swap1\n      dup2\n      mstore\n      0x20\n      add\n      0x00\n      keccak256\n      0x00\n      swap1\n      sload\n      swap1\n      0x0100\n      exp\n      swap1\n      div\n      0xff\n      and\n        /* \"sadc.sol\":21986:22009  !_isExcluded[recipient] */\n      iszero\n        /* \"sadc.sol\":21962:22009  !_isExcluded[sender] && !_isExcluded[recipient] */\n    tag_237:\n        /* \"sadc.sol\":21958:22291  if (!_isExcluded[sender] && !_isExcluded[recipient]) {\r... */\n      iszero\n      tag_238\n      jumpi\n        /* \"sadc.sol\":22026:22070  _transferStandard(sender, recipient, amount) */\n      tag_239\n        /* \"sadc.sol\":22044:22050  sender */\n      dup4\n        /* \"sadc.sol\":22052:22061  recipient */\n      dup4\n        /* \"sadc.sol\":22063:22069  amount */\n      dup4\n        /* \"sadc.sol\":22026:22043  _transferStandard */\n      tag_240\n        /* \"sadc.sol\":22026:22070  _transferStandard(sender, recipient, amount) */\n      jump\t// in\n    tag_239:\n        /* \"sadc.sol\":21958:22291  if (!_isExcluded[sender] && !_isExcluded[recipient]) {\r... */\n      jump(tag_241)\n    tag_238:\n        /* \"sadc.sol\":22092:22103  _isExcluded */\n      0x04\n        /* \"sadc.sol\":22092:22111  _isExcluded[sender] */\n      0x00\n        /* \"sadc.sol\":22104:22110  sender */\n      dup5\n        /* \"sadc.sol\":22092:22111  _isExcluded[sender] */\n      0xffffffffffffffffffffffffffffffffffffffff\n      and\n      0xffffffffffffffffffffffffffffffffffffffff\n      and\n      dup2\n      mstore\n      0x20\n      add\n      swap1\n      dup2\n      mstore\n      0x20\n      add\n      0x00\n      keccak256\n      0x00\n      swap1\n      sload\n      swap1\n      0x0100\n      exp\n      swap1\n      div\n      0xff\n      and\n        /* \"sadc.sol\":22092:22137  _isExcluded[sender] && _isExcluded[recipient] */\n      dup1\n      iszero\n      tag_242\n      jumpi\n      pop\n        /* \"sadc.sol\":22115:22126  _isExcluded */\n      0x04\n        /* \"sadc.sol\":22115:22137  _isExcluded[recipient] */\n      0x00\n        /* \"sadc.sol\":22127:22136  recipient */\n      dup4\n        /* \"sadc.sol\":22115:22137  _isExcluded[recipient] */\n      0xffffffffffffffffffffffffffffffffffffffff\n      and\n      0xffffffffffffffffffffffffffffffffffffffff\n      and\n      dup2\n      mstore\n      0x20\n      add\n      swap1\n      dup2\n      mstore\n      0x20\n      add\n      0x00\n      keccak256\n      0x00\n      swap1\n      sload\n      swap1\n      0x0100\n      exp\n      swap1\n      div\n      0xff\n      and\n        /* \"sadc.sol\":22092:22137  _isExcluded[sender] && _isExcluded[recipient] */\n    tag_242:\n        /* \"sadc.sol\":22088:22291  if (_isExcluded[sender] && _isExcluded[recipient]) {\r... */\n      iszero\n      tag_243\n      jumpi\n        /* \"sadc.sol\":22154:22202  _transferBothExcluded(sender, recipient, amount) */\n      tag_244\n        /* \"sadc.sol\":22176:22182  sender */\n      dup4\n        /* \"sadc.sol\":22184:22193  recipient */\n      dup4\n        /* \"sadc.sol\":22195:22201  amount */\n      dup4\n        /* \"sadc.sol\":22154:22175  _transferBothExcluded */\n      tag_245\n        /* \"sadc.sol\":22154:22202  _transferBothExcluded(sender, recipient, amount) */\n      jump\t// in\n    tag_244:\n        /* \"sadc.sol\":22088:22291  if (_isExcluded[sender] && _isExcluded[recipient]) {\r... */\n      jump(tag_246)\n    tag_243:\n        /* \"sadc.sol\":22235:22279  _transferStandard(sender, recipient, amount) */\n      tag_247\n        /* \"sadc.sol\":22253:22259  sender */\n      dup4\n        /* \"sadc.sol\":22261:22270  recipient */\n      dup4\n        /* \"sadc.sol\":22272:22278  amount */\n      dup4\n        /* \"sadc.sol\":22235:22252  _transferStandard */\n      tag_240\n        /* \"sadc.sol\":22235:22279  _transferStandard(sender, recipient, amount) */\n      jump\t// in\n    tag_247:\n        /* \"sadc.sol\":22088:22291  if (_isExcluded[sender] && _isExcluded[recipient]) {\r... */\n    tag_246:\n        /* \"sadc.sol\":21958:22291  if (!_isExcluded[sender] && !_isExcluded[recipient]) {\r... */\n    tag_241:\n        /* \"sadc.sol\":21827:22291  if (!_isExcluded[sender] && _isExcluded[recipient]) {\r... */\n    tag_236:\n        /* \"sadc.sol\":21694:22291  if (_isExcluded[sender] && !_isExcluded[recipient]) {\r... */\n    tag_231:\n        /* \"sadc.sol\":21210:22298  function _transfer(address sender, address recipient, uint256 amount) private {\r... */\n      pop\n      pop\n      pop\n      jump\t// out\n        /* \"sadc.sol\":4404:4596  function sub(uint256 a, uint256 b, string memory errorMessage) internal pure returns (uint256) {\r... */\n    tag_126:\n        /* \"sadc.sol\":4490:4497  uint256 */\n      0x00\n        /* \"sadc.sol\":4523:4524  a */\n      dup4\n        /* \"sadc.sol\":4518:4519  b */\n      dup4\n        /* \"sadc.sol\":4518:4524  b <= a */\n      gt\n      iszero\n        /* \"sadc.sol\":4526:4538  errorMessage */\n      dup3\n        /* \"sadc.sol\":4510:4539  require(b <= a, errorMessage) */\n      swap1\n      tag_249\n      jumpi\n      mload(0x40)\n      0x08c379a000000000000000000000000000000000000000000000000000000000\n      dup2\n      mstore\n      0x04\n      add\n      dup1\n      dup1\n      0x20\n      add\n      dup3\n      dup2\n      sub\n      dup3\n      mstore\n      dup4\n      dup2\n      dup2\n      mload\n      dup2\n      mstore\n      0x20\n      add\n      swap2\n      pop\n      dup1\n      mload\n      swap1\n      0x20\n      add\n      swap1\n      dup1\n      dup4\n      dup4\n      0x00\n    tag_250:\n      dup4\n      dup2\n      lt\n      iszero\n      tag_252\n      jumpi\n      dup1\n      dup3\n      add\n      mload\n      dup2\n      dup5\n      add\n      mstore\n      0x20\n      dup2\n      add\n      swap1\n      pop\n      jump(tag_250)\n    tag_252:\n      pop\n      pop\n      pop\n      pop\n      swap1\n      pop\n      swap1\n      dup2\n      add\n      swap1\n      0x1f\n      and\n      dup1\n      iszero\n      tag_253\n      jumpi\n      dup1\n      dup3\n      sub\n      dup1\n      mload\n      0x01\n      dup4\n      0x20\n      sub\n      0x0100\n      exp\n      sub\n      not\n      and\n      dup2\n      mstore\n      0x20\n      add\n      swap2\n      pop\n    tag_253:\n      pop\n      swap3\n      pop\n      pop\n      pop\n      mload(0x40)\n      dup1\n      swap2\n      sub\n      swap1\n      revert\n    tag_249:\n      pop\n        /* \"sadc.sol\":4550:4559  uint256 c */\n      0x00\n        /* \"sadc.sol\":4566:4567  b */\n      dup4\n        /* \"sadc.sol\":4562:4563  a */\n      dup6\n        /* \"sadc.sol\":4562:4567  a - b */\n      sub\n        /* \"sadc.sol\":4550:4567  uint256 c = a - b */\n      swap1\n      pop\n        /* \"sadc.sol\":4587:4588  c */\n      dup1\n        /* \"sadc.sol\":4580:4588  return c */\n      swap2\n      pop\n      pop\n        /* \"sadc.sol\":4404:4596  function sub(uint256 a, uint256 b, string memory errorMessage) internal pure returns (uint256) {\r... */\n      swap4\n      swap3\n      pop\n      pop\n      pop\n      jump\t// out\n        /* \"sadc.sol\":25567:25730  function _getRate() private view returns(uint256) {\r... */\n    tag_130:\n        /* \"sadc.sol\":25608:25615  uint256 */\n      0x00\n        /* \"sadc.sol\":25629:25644  uint256 rSupply */\n      dup1\n        /* \"sadc.sol\":25646:25661  uint256 tSupply */\n      0x00\n        /* \"sadc.sol\":25665:25684  _getCurrentSupply() */\n      tag_255\n        /* \"sadc.sol\":25665:25682  _getCurrentSupply */\n      tag_256\n        /* \"sadc.sol\":25665:25684  _getCurrentSupply() */\n      jump\t// in\n    tag_255:\n        /* \"sadc.sol\":25628:25684  (uint256 rSupply, uint256 tSupply) = _getCurrentSupply() */\n      swap2\n      pop\n      swap2\n      pop\n        /* \"sadc.sol\":25702:25722  rSupply.div(tSupply) */\n      tag_257\n        /* \"sadc.sol\":25714:25721  tSupply */\n      dup2\n        /* \"sadc.sol\":25702:25709  rSupply */\n      dup4\n        /* \"sadc.sol\":25702:25713  rSupply.div */\n      tag_132\n      swap1\n        /* \"sadc.sol\":25702:25722  rSupply.div(tSupply) */\n      swap2\n      swap1\n      0xffffffff\n      and\n      jump\t// in\n    tag_257:\n        /* \"sadc.sol\":25695:25722  return rSupply.div(tSupply) */\n      swap3\n      pop\n      pop\n      pop\n        /* \"sadc.sol\":25567:25730  function _getRate() private view returns(uint256) {\r... */\n      swap1\n      jump\t// out\n        /* \"sadc.sol\":5802:5934  function div(uint256 a, uint256 b) internal pure returns (uint256) {\r... */\n    tag_132:\n        /* \"sadc.sol\":5860:5867  uint256 */\n      0x00\n        /* \"sadc.sol\":5887:5926  div(a, b, \"SafeMath: division by zero\") */\n      tag_259\n        /* \"sadc.sol\":5891:5892  a */\n      dup4\n        /* \"sadc.sol\":5894:5895  b */\n      dup4\n        /* \"sadc.sol\":5887:5926  div(a, b, \"SafeMath: division by zero\") */\n      mload(0x40)\n      dup1\n      0x40\n      add\n      0x40\n      mstore\n      dup1\n      0x1a\n      dup2\n      mstore\n      0x20\n      add\n      0x536166654d6174683a206469766973696f6e206279207a65726f000000000000\n      dup2\n      mstore\n      pop\n        /* \"sadc.sol\":5887:5890  div */\n      tag_260\n        /* \"sadc.sol\":5887:5926  div(a, b, \"SafeMath: division by zero\") */\n      jump\t// in\n    tag_259:\n        /* \"sadc.sol\":5880:5926  return div(a, b, \"SafeMath: division by zero\") */\n      swap1\n      pop\n        /* \"sadc.sol\":5802:5934  function div(uint256 a, uint256 b) internal pure returns (uint256) {\r... */\n      swap3\n      swap2\n      pop\n      pop\n      jump\t// out\n        /* \"sadc.sol\":4855:5326  function mul(uint256 a, uint256 b) internal pure returns (uint256) {\r... */\n    tag_172:\n        /* \"sadc.sol\":4913:4920  uint256 */\n      0x00\n        /* \"sadc.sol\":5163:5164  0 */\n      dup1\n        /* \"sadc.sol\":5158:5159  a */\n      dup4\n        /* \"sadc.sol\":5158:5164  a == 0 */\n      eq\n        /* \"sadc.sol\":5154:5201  if (a == 0) {\r... */\n      iszero\n      tag_262\n      jumpi\n        /* \"sadc.sol\":5188:5189  0 */\n      0x00\n        /* \"sadc.sol\":5181:5189  return 0 */\n      swap1\n      pop\n      jump(tag_261)\n        /* \"sadc.sol\":5154:5201  if (a == 0) {\r... */\n    tag_262:\n        /* \"sadc.sol\":5213:5222  uint256 c */\n      0x00\n        /* \"sadc.sol\":5229:5230  b */\n      dup3\n        /* \"sadc.sol\":5225:5226  a */\n      dup5\n        /* \"sadc.sol\":5225:5230  a * b */\n      mul\n        /* \"sadc.sol\":5213:5230  uint256 c = a * b */\n      swap1\n      pop\n        /* \"sadc.sol\":5258:5259  b */\n      dup3\n        /* \"sadc.sol\":5253:5254  a */\n      dup5\n        /* \"sadc.sol\":5249:5250  c */\n      dup3\n        /* \"sadc.sol\":5249:5254  c / a */\n      dup2\n      tag_263\n      jumpi\n      invalid\n    tag_263:\n      div\n        /* \"sadc.sol\":5249:5259  c / a == b */\n      eq\n        /* \"sadc.sol\":5241:5297  require(c / a == b, \"SafeMath: multiplication overflow\") */\n      tag_264\n      jumpi\n      mload(0x40)\n      0x08c379a000000000000000000000000000000000000000000000000000000000\n      dup2\n      mstore\n      0x04\n      add\n      dup1\n      dup1\n      0x20\n      add\n      dup3\n      dup2\n      sub\n      dup3\n      mstore\n      0x21\n      dup2\n      mstore\n      0x20\n      add\n      dup1\n      data_9113bb53c2876a3805b2c9242029423fc540a728243ce887ab24c82cf119fba3\n      0x21\n      swap2\n      codecopy\n      0x40\n      add\n      swap2\n      pop\n      pop\n      mload(0x40)\n      dup1\n      swap2\n      sub\n      swap1\n      revert\n    tag_264:\n        /* \"sadc.sol\":5317:5318  c */\n      dup1\n        /* \"sadc.sol\":5310:5318  return c */\n      swap2\n      pop\n      pop\n        /* \"sadc.sol\":4855:5326  function mul(uint256 a, uint256 b) internal pure returns (uint256) {\r... */\n    tag_261:\n      swap3\n      swap2\n      pop\n      pop\n      jump\t// out\n        /* \"sadc.sol\":24987:25217  function _getTValues(uint256 tAmount) private pure returns (uint256, uint256) {\r... */\n    tag_207:\n        /* \"sadc.sol\":25047:25054  uint256 */\n      0x00\n        /* \"sadc.sol\":25056:25063  uint256 */\n      dup1\n        /* \"sadc.sol\":25076:25088  uint256 tFee */\n      0x00\n        /* \"sadc.sol\":25091:25114  tAmount.div(100).mul(2) */\n      tag_266\n        /* \"sadc.sol\":25112:25113  2 */\n      0x02\n        /* \"sadc.sol\":25091:25107  tAmount.div(100) */\n      tag_267\n        /* \"sadc.sol\":25103:25106  100 */\n      0x64\n        /* \"sadc.sol\":25091:25098  tAmount */\n      dup8\n        /* \"sadc.sol\":25091:25102  tAmount.div */\n      tag_132\n      swap1\n        /* \"sadc.sol\":25091:25107  tAmount.div(100) */\n      swap2\n      swap1\n      0xffffffff\n      and\n      jump\t// in\n    tag_267:\n        /* \"sadc.sol\":25091:25111  tAmount.div(100).mul */\n      tag_172\n      swap1\n        /* \"sadc.sol\":25091:25114  tAmount.div(100).mul(2) */\n      swap2\n      swap1\n      0xffffffff\n      and\n      jump\t// in\n    tag_266:\n        /* \"sadc.sol\":25076:25114  uint256 tFee = tAmount.div(100).mul(2) */\n      swap1\n      pop\n        /* \"sadc.sol\":25125:25148  uint256 tTransferAmount */\n      0x00\n        /* \"sadc.sol\":25151:25168  tAmount.sub(tFee) */\n      tag_268\n        /* \"sadc.sol\":25163:25167  tFee */\n      dup3\n        /* \"sadc.sol\":25151:25158  tAmount */\n      dup7\n        /* \"sadc.sol\":25151:25162  tAmount.sub */\n      tag_105\n      swap1\n        /* \"sadc.sol\":25151:25168  tAmount.sub(tFee) */\n      swap2\n      swap1\n      0xffffffff\n      and\n      jump\t// in\n    tag_268:\n        /* \"sadc.sol\":25125:25168  uint256 tTransferAmount = tAmount.sub(tFee) */\n      swap1\n      pop\n        /* \"sadc.sol\":25187:25202  tTransferAmount */\n      dup1\n        /* \"sadc.sol\":25204:25208  tFee */\n      dup3\n        /* \"sadc.sol\":25179:25209  return (tTransferAmount, tFee) */\n      swap4\n      pop\n      swap4\n      pop\n      pop\n      pop\n        /* \"sadc.sol\":24987:25217  function _getTValues(uint256 tAmount) private pure returns (uint256, uint256) {\r... */\n      swap2\n      pop\n      swap2\n      jump\t// out\n        /* \"sadc.sol\":25225:25559  function _getRValues(uint256 tAmount, uint256 tFee, uint256 currentRate) private pure returns (uint256, uint256, uint256) {\r... */\n    tag_210:\n        /* \"sadc.sol\":25320:25327  uint256 */\n      0x00\n        /* \"sadc.sol\":25329:25336  uint256 */\n      dup1\n        /* \"sadc.sol\":25338:25345  uint256 */\n      0x00\n        /* \"sadc.sol\":25358:25373  uint256 rAmount */\n      dup1\n        /* \"sadc.sol\":25376:25400  tAmount.mul(currentRate) */\n      tag_270\n        /* \"sadc.sol\":25388:25399  currentRate */\n      dup6\n        /* \"sadc.sol\":25376:25383  tAmount */\n      dup9\n        /* \"sadc.sol\":25376:25387  tAmount.mul */\n      tag_172\n      swap1\n        /* \"sadc.sol\":25376:25400  tAmount.mul(currentRate) */\n      swap2\n      swap1\n      0xffffffff\n      and\n      jump\t// in\n    tag_270:\n        /* \"sadc.sol\":25358:25400  uint256 rAmount = tAmount.mul(currentRate) */\n      swap1\n      pop\n        /* \"sadc.sol\":25411:25423  uint256 rFee */\n      0x00\n        /* \"sadc.sol\":25426:25447  tFee.mul(currentRate) */\n      tag_271\n        /* \"sadc.sol\":25435:25446  currentRate */\n      dup7\n        /* \"sadc.sol\":25426:25430  tFee */\n      dup9\n        /* \"sadc.sol\":25426:25434  tFee.mul */\n      tag_172\n      swap1\n        /* \"sadc.sol\":25426:25447  tFee.mul(currentRate) */\n      swap2\n      swap1\n      0xffffffff\n      and\n      jump\t// in\n    tag_271:\n        /* \"sadc.sol\":25411:25447  uint256 rFee = tFee.mul(currentRate) */\n      swap1\n      pop\n        /* \"sadc.sol\":25458:25481  uint256 rTransferAmount */\n      0x00\n        /* \"sadc.sol\":25484:25501  rAmount.sub(rFee) */\n      tag_272\n        /* \"sadc.sol\":25496:25500  rFee */\n      dup3\n        /* \"sadc.sol\":25484:25491  rAmount */\n      dup5\n        /* \"sadc.sol\":25484:25495  rAmount.sub */\n      tag_105\n      swap1\n        /* \"sadc.sol\":25484:25501  rAmount.sub(rFee) */\n      swap2\n      swap1\n      0xffffffff\n      and\n      jump\t// in\n    tag_272:\n        /* \"sadc.sol\":25458:25501  uint256 rTransferAmount = rAmount.sub(rFee) */\n      swap1\n      pop\n        /* \"sadc.sol\":25520:25527  rAmount */\n      dup3\n        /* \"sadc.sol\":25529:25544  rTransferAmount */\n      dup2\n        /* \"sadc.sol\":25546:25550  rFee */\n      dup4\n        /* \"sadc.sol\":25512:25551  return (rAmount, rTransferAmount, rFee) */\n      swap6\n      pop\n      swap6\n      pop\n      swap6\n      pop\n      pop\n      pop\n      pop\n        /* \"sadc.sol\":25225:25559  function _getRValues(uint256 tAmount, uint256 tFee, uint256 currentRate) private pure returns (uint256, uint256, uint256) {\r... */\n      swap4\n      pop\n      swap4\n      pop\n      swap4\n      swap1\n      pop\n      jump\t// out\n        /* \"sadc.sol\":23303:23812  function _transferFromExcluded(address sender, address recipient, uint256 tAmount) private {\r... */\n    tag_230:\n        /* \"sadc.sol\":23406:23421  uint256 rAmount */\n      0x00\n        /* \"sadc.sol\":23423:23446  uint256 rTransferAmount */\n      dup1\n        /* \"sadc.sol\":23448:23460  uint256 rFee */\n      0x00\n        /* \"sadc.sol\":23462:23485  uint256 tTransferAmount */\n      dup1\n        /* \"sadc.sol\":23487:23499  uint256 tFee */\n      0x00\n        /* \"sadc.sol\":23503:23522  _getValues(tAmount) */\n      tag_274\n        /* \"sadc.sol\":23514:23521  tAmount */\n      dup7\n        /* \"sadc.sol\":23503:23513  _getValues */\n      tag_103\n        /* \"sadc.sol\":23503:23522  _getValues(tAmount) */\n      jump\t// in\n    tag_274:\n        /* \"sadc.sol\":23405:23522  (uint256 rAmount, uint256 rTransferAmount, uint256 rFee, uint256 tTransferAmount, uint256 tFee) = _getValues(tAmount) */\n      swap5\n      pop\n      swap5\n      pop\n      swap5\n      pop\n      swap5\n      pop\n      swap5\n      pop\n        /* \"sadc.sol\":23551:23579  _tOwned[sender].sub(tAmount) */\n      tag_275\n        /* \"sadc.sol\":23571:23578  tAmount */\n      dup7\n        /* \"sadc.sol\":23551:23558  _tOwned */\n      0x02\n        /* \"sadc.sol\":23551:23566  _tOwned[sender] */\n      0x00\n        /* \"sadc.sol\":23559:23565  sender */\n      dup12\n        /* \"sadc.sol\":23551:23566  _tOwned[sender] */\n      0xffffffffffffffffffffffffffffffffffffffff\n      and\n      0xffffffffffffffffffffffffffffffffffffffff\n      and\n      dup2\n      mstore\n      0x20\n      add\n      swap1\n      dup2\n      mstore\n      0x20\n      add\n      0x00\n      keccak256\n      sload\n        /* \"sadc.sol\":23551:23570  _tOwned[sender].sub */\n      tag_105\n      swap1\n        /* \"sadc.sol\":23551:23579  _tOwned[sender].sub(tAmount) */\n      swap2\n      swap1\n      0xffffffff\n      and\n      jump\t// in\n    tag_275:\n        /* \"sadc.sol\":23533:23540  _tOwned */\n      0x02\n        /* \"sadc.sol\":23533:23548  _tOwned[sender] */\n      0x00\n        /* \"sadc.sol\":23541:23547  sender */\n      dup11\n        /* \"sadc.sol\":23533:23548  _tOwned[sender] */\n      0xffffffffffffffffffffffffffffffffffffffff\n      and\n      0xffffffffffffffffffffffffffffffffffffffff\n      and\n      dup2\n      mstore\n      0x20\n      add\n      swap1\n      dup2\n      mstore\n      0x20\n      add\n      0x00\n      keccak256\n        /* \"sadc.sol\":23533:23579  _tOwned[sender] = _tOwned[sender].sub(tAmount) */\n      dup2\n      swap1\n      sstore\n      pop\n        /* \"sadc.sol\":23608:23636  _rOwned[sender].sub(rAmount) */\n      tag_276\n        /* \"sadc.sol\":23628:23635  rAmount */\n      dup6\n        /* \"sadc.sol\":23608:23615  _rOwned */\n      0x01\n        /* \"sadc.sol\":23608:23623  _rOwned[sender] */\n      0x00\n        /* \"sadc.sol\":23616:23622  sender */\n      dup12\n        /* \"sadc.sol\":23608:23623  _rOwned[sender] */\n      0xffffffffffffffffffffffffffffffffffffffff\n      and\n      0xffffffffffffffffffffffffffffffffffffffff\n      and\n      dup2\n      mstore\n      0x20\n      add\n      swap1\n      dup2\n      mstore\n      0x20\n      add\n      0x00\n      keccak256\n      sload\n        /* \"sadc.sol\":23608:23627  _rOwned[sender].sub */\n      tag_105\n      swap1\n        /* \"sadc.sol\":23608:23636  _rOwned[sender].sub(rAmount) */\n      swap2\n      swap1\n      0xffffffff\n      and\n      jump\t// in\n    tag_276:\n        /* \"sadc.sol\":23590:23597  _rOwned */\n      0x01\n        /* \"sadc.sol\":23590:23605  _rOwned[sender] */\n      0x00\n        /* \"sadc.sol\":23598:23604  sender */\n      dup11\n        /* \"sadc.sol\":23590:23605  _rOwned[sender] */\n      0xffffffffffffffffffffffffffffffffffffffff\n      and\n      0xffffffffffffffffffffffffffffffffffffffff\n      and\n      dup2\n      mstore\n      0x20\n      add\n      swap1\n      dup2\n      mstore\n      0x20\n      add\n      0x00\n      keccak256\n        /* \"sadc.sol\":23590:23636  _rOwned[sender] = _rOwned[sender].sub(rAmount) */\n      dup2\n      swap1\n      sstore\n      pop\n        /* \"sadc.sol\":23668:23707  _rOwned[recipient].add(rTransferAmount) */\n      tag_277\n        /* \"sadc.sol\":23691:23706  rTransferAmount */\n      dup5\n        /* \"sadc.sol\":23668:23675  _rOwned */\n      0x01\n        /* \"sadc.sol\":23668:23686  _rOwned[recipient] */\n      0x00\n        /* \"sadc.sol\":23676:23685  recipient */\n      dup11\n        /* \"sadc.sol\":23668:23686  _rOwned[recipient] */\n      0xffffffffffffffffffffffffffffffffffffffff\n      and\n      0xffffffffffffffffffffffffffffffffffffffff\n      and\n      dup2\n      mstore\n      0x20\n      add\n      swap1\n      dup2\n      mstore\n      0x20\n      add\n      0x00\n      keccak256\n      sload\n        /* \"sadc.sol\":23668:23690  _rOwned[recipient].add */\n      tag_108\n      swap1\n        /* \"sadc.sol\":23668:23707  _rOwned[recipient].add(rTransferAmount) */\n      swap2\n      swap1\n      0xffffffff\n      and\n      jump\t// in\n    tag_277:\n        /* \"sadc.sol\":23647:23654  _rOwned */\n      0x01\n        /* \"sadc.sol\":23647:23665  _rOwned[recipient] */\n      0x00\n        /* \"sadc.sol\":23655:23664  recipient */\n      dup10\n        /* \"sadc.sol\":23647:23665  _rOwned[recipient] */\n      0xffffffffffffffffffffffffffffffffffffffff\n      and\n      0xffffffffffffffffffffffffffffffffffffffff\n      and\n      dup2\n      mstore\n      0x20\n      add\n      swap1\n      dup2\n      mstore\n      0x20\n      add\n      0x00\n      keccak256\n        /* \"sadc.sol\":23647:23707  _rOwned[recipient] = _rOwned[recipient].add(rTransferAmount) */\n      dup2\n      swap1\n      sstore\n      pop\n        /* \"sadc.sol\":23721:23744  _reflectFee(rFee, tFee) */\n      tag_278\n        /* \"sadc.sol\":23733:23737  rFee */\n      dup4\n        /* \"sadc.sol\":23739:23743  tFee */\n      dup3\n        /* \"sadc.sol\":23721:23732  _reflectFee */\n      tag_279\n        /* \"sadc.sol\":23721:23744  _reflectFee(rFee, tFee) */\n      jump\t// in\n    tag_278:\n        /* \"sadc.sol\":23777:23786  recipient */\n      dup7\n        /* \"sadc.sol\":23760:23804  Transfer(sender, recipient, tTransferAmount) */\n      0xffffffffffffffffffffffffffffffffffffffff\n      and\n        /* \"sadc.sol\":23769:23775  sender */\n      dup9\n        /* \"sadc.sol\":23760:23804  Transfer(sender, recipient, tTransferAmount) */\n      0xffffffffffffffffffffffffffffffffffffffff\n      and\n      0xddf252ad1be2c89b69c2b068fc378daa952ba7f163c4a11628f55a4df523b3ef\n        /* \"sadc.sol\":23788:23803  tTransferAmount */\n      dup5\n        /* \"sadc.sol\":23760:23804  Transfer(sender, recipient, tTransferAmount) */\n      mload(0x40)\n      dup1\n      dup3\n      dup2\n      mstore\n      0x20\n      add\n      swap2\n      pop\n      pop\n      mload(0x40)\n      dup1\n      swap2\n      sub\n      swap1\n      log3\n        /* \"sadc.sol\":23303:23812  function _transferFromExcluded(address sender, address recipient, uint256 tAmount) private {\r... */\n      pop\n      pop\n      pop\n      pop\n      pop\n      pop\n      pop\n      pop\n      jump\t// out\n        /* \"sadc.sol\":22766:23295  function _transferToExcluded(address sender, address recipient, uint256 tAmount) private {\r... */\n    tag_235:\n        /* \"sadc.sol\":22867:22882  uint256 rAmount */\n      0x00\n        /* \"sadc.sol\":22884:22907  uint256 rTransferAmount */\n      dup1\n        /* \"sadc.sol\":22909:22921  uint256 rFee */\n      0x00\n        /* \"sadc.sol\":22923:22946  uint256 tTransferAmount */\n      dup1\n        /* \"sadc.sol\":22948:22960  uint256 tFee */\n      0x00\n        /* \"sadc.sol\":22964:22983  _getValues(tAmount) */\n      tag_281\n        /* \"sadc.sol\":22975:22982  tAmount */\n      dup7\n        /* \"sadc.sol\":22964:22974  _getValues */\n      tag_103\n        /* \"sadc.sol\":22964:22983  _getValues(tAmount) */\n      jump\t// in\n    tag_281:\n        /* \"sadc.sol\":22866:22983  (uint256 rAmount, uint256 rTransferAmount, uint256 rFee, uint256 tTransferAmount, uint256 tFee) = _getValues(tAmount) */\n      swap5\n      pop\n      swap5\n      pop\n      swap5\n      pop\n      swap5\n      pop\n      swap5\n      pop\n        /* \"sadc.sol\":23012:23040  _rOwned[sender].sub(rAmount) */\n      tag_282\n        /* \"sadc.sol\":23032:23039  rAmount */\n      dup6\n        /* \"sadc.sol\":23012:23019  _rOwned */\n      0x01\n        /* \"sadc.sol\":23012:23027  _rOwned[sender] */\n      0x00\n        /* \"sadc.sol\":23020:23026  sender */\n      dup12\n        /* \"sadc.sol\":23012:23027  _rOwned[sender] */\n      0xffffffffffffffffffffffffffffffffffffffff\n      and\n      0xffffffffffffffffffffffffffffffffffffffff\n      and\n      dup2\n      mstore\n      0x20\n      add\n      swap1\n      dup2\n      mstore\n      0x20\n      add\n      0x00\n      keccak256\n      sload\n        /* \"sadc.sol\":23012:23031  _rOwned[sender].sub */\n      tag_105\n      swap1\n        /* \"sadc.sol\":23012:23040  _rOwned[sender].sub(rAmount) */\n      swap2\n      swap1\n      0xffffffff\n      and\n      jump\t// in\n    tag_282:\n        /* \"sadc.sol\":22994:23001  _rOwned */\n      0x01\n        /* \"sadc.sol\":22994:23009  _rOwned[sender] */\n      0x00\n        /* \"sadc.sol\":23002:23008  sender */\n      dup11\n        /* \"sadc.sol\":22994:23009  _rOwned[sender] */\n      0xffffffffffffffffffffffffffffffffffffffff\n      and\n      0xffffffffffffffffffffffffffffffffffffffff\n      and\n      dup2\n      mstore\n      0x20\n      add\n      swap1\n      dup2\n      mstore\n      0x20\n      add\n      0x00\n      keccak256\n        /* \"sadc.sol\":22994:23040  _rOwned[sender] = _rOwned[sender].sub(rAmount) */\n      dup2\n      swap1\n      sstore\n      pop\n        /* \"sadc.sol\":23072:23111  _tOwned[recipient].add(tTransferAmount) */\n      tag_283\n        /* \"sadc.sol\":23095:23110  tTransferAmount */\n      dup3\n        /* \"sadc.sol\":23072:23079  _tOwned */\n      0x02\n        /* \"sadc.sol\":23072:23090  _tOwned[recipient] */\n      0x00\n        /* \"sadc.sol\":23080:23089  recipient */\n      dup11\n        /* \"sadc.sol\":23072:23090  _tOwned[recipient] */\n      0xffffffffffffffffffffffffffffffffffffffff\n      and\n      0xffffffffffffffffffffffffffffffffffffffff\n      and\n      dup2\n      mstore\n      0x20\n      add\n      swap1\n      dup2\n      mstore\n      0x20\n      add\n      0x00\n      keccak256\n      sload\n        /* \"sadc.sol\":23072:23094  _tOwned[recipient].add */\n      tag_108\n      swap1\n        /* \"sadc.sol\":23072:23111  _tOwned[recipient].add(tTransferAmount) */\n      swap2\n      swap1\n      0xffffffff\n      and\n      jump\t// in\n    tag_283:\n        /* \"sadc.sol\":23051:23058  _tOwned */\n      0x02\n        /* \"sadc.sol\":23051:23069  _tOwned[recipient] */\n      0x00\n        /* \"sadc.sol\":23059:23068  recipient */\n      dup10\n        /* \"sadc.sol\":23051:23069  _tOwned[recipient] */\n      0xffffffffffffffffffffffffffffffffffffffff\n      and\n      0xffffffffffffffffffffffffffffffffffffffff\n      and\n      dup2\n      mstore\n      0x20\n      add\n      swap1\n      dup2\n      mstore\n      0x20\n      add\n      0x00\n      keccak256\n        /* \"sadc.sol\":23051:23111  _tOwned[recipient] = _tOwned[recipient].add(tTransferAmount) */\n      dup2\n      swap1\n      sstore\n      pop\n        /* \"sadc.sol\":23143:23182  _rOwned[recipient].add(rTransferAmount) */\n      tag_284\n        /* \"sadc.sol\":23166:23181  rTransferAmount */\n      dup5\n        /* \"sadc.sol\":23143:23150  _rOwned */\n      0x01\n        /* \"sadc.sol\":23143:23161  _rOwned[recipient] */\n      0x00\n        /* \"sadc.sol\":23151:23160  recipient */\n      dup11\n        /* \"sadc.sol\":23143:23161  _rOwned[recipient] */\n      0xffffffffffffffffffffffffffffffffffffffff\n      and\n      0xffffffffffffffffffffffffffffffffffffffff\n      and\n      dup2\n      mstore\n      0x20\n      add\n      swap1\n      dup2\n      mstore\n      0x20\n      add\n      0x00\n      keccak256\n      sload\n        /* \"sadc.sol\":23143:23165  _rOwned[recipient].add */\n      tag_108\n      swap1\n        /* \"sadc.sol\":23143:23182  _rOwned[recipient].add(rTransferAmount) */\n      swap2\n      swap1\n      0xffffffff\n      and\n      jump\t// in\n    tag_284:\n        /* \"sadc.sol\":23122:23129  _rOwned */\n      0x01\n        /* \"sadc.sol\":23122:23140  _rOwned[recipient] */\n      0x00\n        /* \"sadc.sol\":23130:23139  recipient */\n      dup10\n        /* \"sadc.sol\":23122:23140  _rOwned[recipient] */\n      0xffffffffffffffffffffffffffffffffffffffff\n      and\n      0xffffffffffffffffffffffffffffffffffffffff\n      and\n      dup2\n      mstore\n      0x20\n      add\n      swap1\n      dup2\n      mstore\n      0x20\n      add\n      0x00\n      keccak256\n        /* \"sadc.sol\":23122:23182  _rOwned[recipient] = _rOwned[recipient].add(rTransferAmount) */\n      dup2\n      swap1\n      sstore\n      pop\n        /* \"sadc.sol\":23204:23227  _reflectFee(rFee, tFee) */\n      tag_285\n        /* \"sadc.sol\":23216:23220  rFee */\n      dup4\n        /* \"sadc.sol\":23222:23226  tFee */\n      dup3\n        /* \"sadc.sol\":23204:23215  _reflectFee */\n      tag_279\n        /* \"sadc.sol\":23204:23227  _reflectFee(rFee, tFee) */\n      jump\t// in\n    tag_285:\n        /* \"sadc.sol\":23260:23269  recipient */\n      dup7\n        /* \"sadc.sol\":23243:23287  Transfer(sender, recipient, tTransferAmount) */\n      0xffffffffffffffffffffffffffffffffffffffff\n      and\n        /* \"sadc.sol\":23252:23258  sender */\n      dup9\n        /* \"sadc.sol\":23243:23287  Transfer(sender, recipient, tTransferAmount) */\n      0xffffffffffffffffffffffffffffffffffffffff\n      and\n      0xddf252ad1be2c89b69c2b068fc378daa952ba7f163c4a11628f55a4df523b3ef\n        /* \"sadc.sol\":23271:23286  tTransferAmount */\n      dup5\n        /* \"sadc.sol\":23243:23287  Transfer(sender, recipient, tTransferAmount) */\n      mload(0x40)\n      dup1\n      dup3\n      dup2\n      mstore\n      0x20\n      add\n      swap2\n      pop\n      pop\n      mload(0x40)\n      dup1\n      swap2\n      sub\n      swap1\n      log3\n        /* \"sadc.sol\":22766:23295  function _transferToExcluded(address sender, address recipient, uint256 tAmount) private {\r... */\n      pop\n      pop\n      pop\n      pop\n      pop\n      pop\n      pop\n      pop\n      jump\t// out\n        /* \"sadc.sol\":22306:22758  function _transferStandard(address sender, address recipient, uint256 tAmount) private {\r... */\n    tag_240:\n        /* \"sadc.sol\":22405:22420  uint256 rAmount */\n      0x00\n        /* \"sadc.sol\":22422:22445  uint256 rTransferAmount */\n      dup1\n        /* \"sadc.sol\":22447:22459  uint256 rFee */\n      0x00\n        /* \"sadc.sol\":22461:22484  uint256 tTransferAmount */\n      dup1\n        /* \"sadc.sol\":22486:22498  uint256 tFee */\n      0x00\n        /* \"sadc.sol\":22502:22521  _getValues(tAmount) */\n      tag_287\n        /* \"sadc.sol\":22513:22520  tAmount */\n      dup7\n        /* \"sadc.sol\":22502:22512  _getValues */\n      tag_103\n        /* \"sadc.sol\":22502:22521  _getValues(tAmount) */\n      jump\t// in\n    tag_287:\n        /* \"sadc.sol\":22404:22521  (uint256 rAmount, uint256 rTransferAmount, uint256 rFee, uint256 tTransferAmount, uint256 tFee) = _getValues(tAmount) */\n      swap5\n      pop\n      swap5\n      pop\n      swap5\n      pop\n      swap5\n      pop\n      swap5\n      pop\n        /* \"sadc.sol\":22550:22578  _rOwned[sender].sub(rAmount) */\n      tag_288\n        /* \"sadc.sol\":22570:22577  rAmount */\n      dup6\n        /* \"sadc.sol\":22550:22557  _rOwned */\n      0x01\n        /* \"sadc.sol\":22550:22565  _rOwned[sender] */\n      0x00\n        /* \"sadc.sol\":22558:22564  sender */\n      dup12\n        /* \"sadc.sol\":22550:22565  _rOwned[sender] */\n      0xffffffffffffffffffffffffffffffffffffffff\n      and\n      0xffffffffffffffffffffffffffffffffffffffff\n      and\n      dup2\n      mstore\n      0x20\n      add\n      swap1\n      dup2\n      mstore\n      0x20\n      add\n      0x00\n      keccak256\n      sload\n        /* \"sadc.sol\":22550:22569  _rOwned[sender].sub */\n      tag_105\n      swap1\n        /* \"sadc.sol\":22550:22578  _rOwned[sender].sub(rAmount) */\n      swap2\n      swap1\n      0xffffffff\n      and\n      jump\t// in\n    tag_288:\n        /* \"sadc.sol\":22532:22539  _rOwned */\n      0x01\n        /* \"sadc.sol\":22532:22547  _rOwned[sender] */\n      0x00\n        /* \"sadc.sol\":22540:22546  sender */\n      dup11\n        /* \"sadc.sol\":22532:22547  _rOwned[sender] */\n      0xffffffffffffffffffffffffffffffffffffffff\n      and\n      0xffffffffffffffffffffffffffffffffffffffff\n      and\n      dup2\n      mstore\n      0x20\n      add\n      swap1\n      dup2\n      mstore\n      0x20\n      add\n      0x00\n      keccak256\n        /* \"sadc.sol\":22532:22578  _rOwned[sender] = _rOwned[sender].sub(rAmount) */\n      dup2\n      swap1\n      sstore\n      pop\n        /* \"sadc.sol\":22610:22649  _rOwned[recipient].add(rTransferAmount) */\n      tag_289\n        /* \"sadc.sol\":22633:22648  rTransferAmount */\n      dup5\n        /* \"sadc.sol\":22610:22617  _rOwned */\n      0x01\n        /* \"sadc.sol\":22610:22628  _rOwned[recipient] */\n      0x00\n        /* \"sadc.sol\":22618:22627  recipient */\n      dup11\n        /* \"sadc.sol\":22610:22628  _rOwned[recipient] */\n      0xffffffffffffffffffffffffffffffffffffffff\n      and\n      0xffffffffffffffffffffffffffffffffffffffff\n      and\n      dup2\n      mstore\n      0x20\n      add\n      swap1\n      dup2\n      mstore\n      0x20\n      add\n      0x00\n      keccak256\n      sload\n        /* \"sadc.sol\":22610:22632  _rOwned[recipient].add */\n      tag_108\n      swap1\n        /* \"sadc.sol\":22610:22649  _rOwned[recipient].add(rTransferAmount) */\n      swap2\n      swap1\n      0xffffffff\n      and\n      jump\t// in\n    tag_289:\n        /* \"sadc.sol\":22589:22596  _rOwned */\n      0x01\n        /* \"sadc.sol\":22589:22607  _rOwned[recipient] */\n      0x00\n        /* \"sadc.sol\":22597:22606  recipient */\n      dup10\n        /* \"sadc.sol\":22589:22607  _rOwned[recipient] */\n      0xffffffffffffffffffffffffffffffffffffffff\n      and\n      0xffffffffffffffffffffffffffffffffffffffff\n      and\n      dup2\n      mstore\n      0x20\n      add\n      swap1\n      dup2\n      mstore\n      0x20\n      add\n      0x00\n      keccak256\n        /* \"sadc.sol\":22589:22649  _rOwned[recipient] = _rOwned[recipient].add(rTransferAmount) */\n      dup2\n      swap1\n      sstore\n      pop\n        /* \"sadc.sol\":22667:22690  _reflectFee(rFee, tFee) */\n      tag_290\n        /* \"sadc.sol\":22679:22683  rFee */\n      dup4\n        /* \"sadc.sol\":22685:22689  tFee */\n      dup3\n        /* \"sadc.sol\":22667:22678  _reflectFee */\n      tag_279\n        /* \"sadc.sol\":22667:22690  _reflectFee(rFee, tFee) */\n      jump\t// in\n    tag_290:\n        /* \"sadc.sol\":22723:22732  recipient */\n      dup7\n        /* \"sadc.sol\":22706:22750  Transfer(sender, recipient, tTransferAmount) */\n      0xffffffffffffffffffffffffffffffffffffffff\n      and\n        /* \"sadc.sol\":22715:22721  sender */\n      dup9\n        /* \"sadc.sol\":22706:22750  Transfer(sender, recipient, tTransferAmount) */\n      0xffffffffffffffffffffffffffffffffffffffff\n      and\n      0xddf252ad1be2c89b69c2b068fc378daa952ba7f163c4a11628f55a4df523b3ef\n        /* \"sadc.sol\":22734:22749  tTransferAmount */\n      dup5\n        /* \"sadc.sol\":22706:22750  Transfer(sender, recipient, tTransferAmount) */\n      mload(0x40)\n      dup1\n      dup3\n      dup2\n      mstore\n      0x20\n      add\n      swap2\n      pop\n      pop\n      mload(0x40)\n      dup1\n      swap2\n      sub\n      swap1\n      log3\n        /* \"sadc.sol\":22306:22758  function _transferStandard(address sender, address recipient, uint256 tAmount) private {\r... */\n      pop\n      pop\n      pop\n      pop\n      pop\n      pop\n      pop\n      pop\n      jump\t// out\n        /* \"sadc.sol\":23820:24405  function _transferBothExcluded(address sender, address recipient, uint256 tAmount) private {\r... */\n    tag_245:\n        /* \"sadc.sol\":23923:23938  uint256 rAmount */\n      0x00\n        /* \"sadc.sol\":23940:23963  uint256 rTransferAmount */\n      dup1\n        /* \"sadc.sol\":23965:23977  uint256 rFee */\n      0x00\n        /* \"sadc.sol\":23979:24002  uint256 tTransferAmount */\n      dup1\n        /* \"sadc.sol\":24004:24016  uint256 tFee */\n      0x00\n        /* \"sadc.sol\":24020:24039  _getValues(tAmount) */\n      tag_292\n        /* \"sadc.sol\":24031:24038  tAmount */\n      dup7\n        /* \"sadc.sol\":24020:24030  _getValues */\n      tag_103\n        /* \"sadc.sol\":24020:24039  _getValues(tAmount) */\n      jump\t// in\n    tag_292:\n        /* \"sadc.sol\":23922:24039  (uint256 rAmount, uint256 rTransferAmount, uint256 rFee, uint256 tTransferAmount, uint256 tFee) = _getValues(tAmount) */\n      swap5\n      pop\n      swap5\n      pop\n      swap5\n      pop\n      swap5\n      pop\n      swap5\n      pop\n        /* \"sadc.sol\":24068:24096  _tOwned[sender].sub(tAmount) */\n      tag_293\n        /* \"sadc.sol\":24088:24095  tAmount */\n      dup7\n        /* \"sadc.sol\":24068:24075  _tOwned */\n      0x02\n        /* \"sadc.sol\":24068:24083  _tOwned[sender] */\n      0x00\n        /* \"sadc.sol\":24076:24082  sender */\n      dup12\n        /* \"sadc.sol\":24068:24083  _tOwned[sender] */\n      0xffffffffffffffffffffffffffffffffffffffff\n      and\n      0xffffffffffffffffffffffffffffffffffffffff\n      and\n      dup2\n      mstore\n      0x20\n      add\n      swap1\n      dup2\n      mstore\n      0x20\n      add\n      0x00\n      keccak256\n      sload\n        /* \"sadc.sol\":24068:24087  _tOwned[sender].sub */\n      tag_105\n      swap1\n        /* \"sadc.sol\":24068:24096  _tOwned[sender].sub(tAmount) */\n      swap2\n      swap1\n      0xffffffff\n      and\n      jump\t// in\n    tag_293:\n        /* \"sadc.sol\":24050:24057  _tOwned */\n      0x02\n        /* \"sadc.sol\":24050:24065  _tOwned[sender] */\n      0x00\n        /* \"sadc.sol\":24058:24064  sender */\n      dup11\n        /* \"sadc.sol\":24050:24065  _tOwned[sender] */\n      0xffffffffffffffffffffffffffffffffffffffff\n      and\n      0xffffffffffffffffffffffffffffffffffffffff\n      and\n      dup2\n      mstore\n      0x20\n      add\n      swap1\n      dup2\n      mstore\n      0x20\n      add\n      0x00\n      keccak256\n        /* \"sadc.sol\":24050:24096  _tOwned[sender] = _tOwned[sender].sub(tAmount) */\n      dup2\n      swap1\n      sstore\n      pop\n        /* \"sadc.sol\":24125:24153  _rOwned[sender].sub(rAmount) */\n      tag_294\n        /* \"sadc.sol\":24145:24152  rAmount */\n      dup6\n        /* \"sadc.sol\":24125:24132  _rOwned */\n      0x01\n        /* \"sadc.sol\":24125:24140  _rOwned[sender] */\n      0x00\n        /* \"sadc.sol\":24133:24139  sender */\n      dup12\n        /* \"sadc.sol\":24125:24140  _rOwned[sender] */\n      0xffffffffffffffffffffffffffffffffffffffff\n      and\n      0xffffffffffffffffffffffffffffffffffffffff\n      and\n      dup2\n      mstore\n      0x20\n      add\n      swap1\n      dup2\n      mstore\n      0x20\n      add\n      0x00\n      keccak256\n      sload\n        /* \"sadc.sol\":24125:24144  _rOwned[sender].sub */\n      tag_105\n      swap1\n        /* \"sadc.sol\":24125:24153  _rOwned[sender].sub(rAmount) */\n      swap2\n      swap1\n      0xffffffff\n      and\n      jump\t// in\n    tag_294:\n        /* \"sadc.sol\":24107:24114  _rOwned */\n      0x01\n        /* \"sadc.sol\":24107:24122  _rOwned[sender] */\n      0x00\n        /* \"sadc.sol\":24115:24121  sender */\n      dup11\n        /* \"sadc.sol\":24107:24122  _rOwned[sender] */\n      0xffffffffffffffffffffffffffffffffffffffff\n      and\n      0xffffffffffffffffffffffffffffffffffffffff\n      and\n      dup2\n      mstore\n      0x20\n      add\n      swap1\n      dup2\n      mstore\n      0x20\n      add\n      0x00\n      keccak256\n        /* \"sadc.sol\":24107:24153  _rOwned[sender] = _rOwned[sender].sub(rAmount) */\n      dup2\n      swap1\n      sstore\n      pop\n        /* \"sadc.sol\":24185:24224  _tOwned[recipient].add(tTransferAmount) */\n      tag_295\n        /* \"sadc.sol\":24208:24223  tTransferAmount */\n      dup3\n        /* \"sadc.sol\":24185:24192  _tOwned */\n      0x02\n        /* \"sadc.sol\":24185:24203  _tOwned[recipient] */\n      0x00\n        /* \"sadc.sol\":24193:24202  recipient */\n      dup11\n        /* \"sadc.sol\":24185:24203  _tOwned[recipient] */\n      0xffffffffffffffffffffffffffffffffffffffff\n      and\n      0xffffffffffffffffffffffffffffffffffffffff\n      and\n      dup2\n      mstore\n      0x20\n      add\n      swap1\n      dup2\n      mstore\n      0x20\n      add\n      0x00\n      keccak256\n      sload\n        /* \"sadc.sol\":24185:24207  _tOwned[recipient].add */\n      tag_108\n      swap1\n        /* \"sadc.sol\":24185:24224  _tOwned[recipient].add(tTransferAmount) */\n      swap2\n      swap1\n      0xffffffff\n      and\n      jump\t// in\n    tag_295:\n        /* \"sadc.sol\":24164:24171  _tOwned */\n      0x02\n        /* \"sadc.sol\":24164:24182  _tOwned[recipient] */\n      0x00\n        /* \"sadc.sol\":24172:24181  recipient */\n      dup10\n        /* \"sadc.sol\":24164:24182  _tOwned[recipient] */\n      0xffffffffffffffffffffffffffffffffffffffff\n      and\n      0xffffffffffffffffffffffffffffffffffffffff\n      and\n      dup2\n      mstore\n      0x20\n      add\n      swap1\n      dup2\n      mstore\n      0x20\n      add\n      0x00\n      keccak256\n        /* \"sadc.sol\":24164:24224  _tOwned[recipient] = _tOwned[recipient].add(tTransferAmount) */\n      dup2\n      swap1\n      sstore\n      pop\n        /* \"sadc.sol\":24256:24295  _rOwned[recipient].add(rTransferAmount) */\n      tag_296\n        /* \"sadc.sol\":24279:24294  rTransferAmount */\n      dup5\n        /* \"sadc.sol\":24256:24263  _rOwned */\n      0x01\n        /* \"sadc.sol\":24256:24274  _rOwned[recipient] */\n      0x00\n        /* \"sadc.sol\":24264:24273  recipient */\n      dup11\n        /* \"sadc.sol\":24256:24274  _rOwned[recipient] */\n      0xffffffffffffffffffffffffffffffffffffffff\n      and\n      0xffffffffffffffffffffffffffffffffffffffff\n      and\n      dup2\n      mstore\n      0x20\n      add\n      swap1\n      dup2\n      mstore\n      0x20\n      add\n      0x00\n      keccak256\n      sload\n        /* \"sadc.sol\":24256:24278  _rOwned[recipient].add */\n      tag_108\n      swap1\n        /* \"sadc.sol\":24256:24295  _rOwned[recipient].add(rTransferAmount) */\n      swap2\n      swap1\n      0xffffffff\n      and\n      jump\t// in\n    tag_296:\n        /* \"sadc.sol\":24235:24242  _rOwned */\n      0x01\n        /* \"sadc.sol\":24235:24253  _rOwned[recipient] */\n      0x00\n        /* \"sadc.sol\":24243:24252  recipient */\n      dup10\n        /* \"sadc.sol\":24235:24253  _rOwned[recipient] */\n      0xffffffffffffffffffffffffffffffffffffffff\n      and\n      0xffffffffffffffffffffffffffffffffffffffff\n      and\n      dup2\n      mstore\n      0x20\n      add\n      swap1\n      dup2\n      mstore\n      0x20\n      add\n      0x00\n      keccak256\n        /* \"sadc.sol\":24235:24295  _rOwned[recipient] = _rOwned[recipient].add(rTransferAmount) */\n      dup2\n      swap1\n      sstore\n      pop\n        /* \"sadc.sol\":24314:24337  _reflectFee(rFee, tFee) */\n      tag_297\n        /* \"sadc.sol\":24326:24330  rFee */\n      dup4\n        /* \"sadc.sol\":24332:24336  tFee */\n      dup3\n        /* \"sadc.sol\":24314:24325  _reflectFee */\n      tag_279\n        /* \"sadc.sol\":24314:24337  _reflectFee(rFee, tFee) */\n      jump\t// in\n    tag_297:\n        /* \"sadc.sol\":24370:24379  recipient */\n      dup7\n        /* \"sadc.sol\":24353:24397  Transfer(sender, recipient, tTransferAmount) */\n      0xffffffffffffffffffffffffffffffffffffffff\n      and\n        /* \"sadc.sol\":24362:24368  sender */\n      dup9\n        /* \"sadc.sol\":24353:24397  Transfer(sender, recipient, tTransferAmount) */\n      0xffffffffffffffffffffffffffffffffffffffff\n      and\n      0xddf252ad1be2c89b69c2b068fc378daa952ba7f163c4a11628f55a4df523b3ef\n        /* \"sadc.sol\":24381:24396  tTransferAmount */\n      dup5\n        /* \"sadc.sol\":24353:24397  Transfer(sender, recipient, tTransferAmount) */\n      mload(0x40)\n      dup1\n      dup3\n      dup2\n      mstore\n      0x20\n      add\n      swap2\n      pop\n      pop\n      mload(0x40)\n      dup1\n      swap2\n      sub\n      swap1\n      log3\n        /* \"sadc.sol\":23820:24405  function _transferBothExcluded(address sender, address recipient, uint256 tAmount) private {\r... */\n      pop\n      pop\n      pop\n      pop\n      pop\n      pop\n      pop\n      pop\n      jump\t// out\n        /* \"sadc.sol\":25738:26299  function _getCurrentSupply() private view returns(uint256, uint256) {\r... */\n    tag_256:\n        /* \"sadc.sol\":25788:25795  uint256 */\n      0x00\n        /* \"sadc.sol\":25797:25804  uint256 */\n      dup1\n        /* \"sadc.sol\":25817:25832  uint256 rSupply */\n      0x00\n        /* \"sadc.sol\":25835:25842  _rTotal */\n      sload(0x06)\n        /* \"sadc.sol\":25817:25842  uint256 rSupply = _rTotal */\n      swap1\n      pop\n        /* \"sadc.sol\":25853:25868  uint256 tSupply */\n      0x00\n        /* \"sadc.sol\":16226:16241  7000000000000e9 */\n      0x017b7883c06916600000\n        /* \"sadc.sol\":25853:25878  uint256 tSupply = _tTotal */\n      swap1\n      pop\n        /* \"sadc.sol\":25900:25909  uint256 i */\n      0x00\n        /* \"sadc.sol\":25895:26184  for (uint256 i = 0; i < _excluded.length; i++) {\r... */\n    tag_299:\n        /* \"sadc.sol\":25919:25928  _excluded */\n      0x05\n        /* \"sadc.sol\":25919:25935  _excluded.length */\n      dup1\n      sload\n      swap1\n      pop\n        /* \"sadc.sol\":25915:25916  i */\n      dup2\n        /* \"sadc.sol\":25915:25935  i < _excluded.length */\n      lt\n        /* \"sadc.sol\":25895:26184  for (uint256 i = 0; i < _excluded.length; i++) {\r... */\n      iszero\n      tag_300\n      jumpi\n        /* \"sadc.sol\":25985:25992  rSupply */\n      dup3\n        /* \"sadc.sol\":25961:25968  _rOwned */\n      0x01\n        /* \"sadc.sol\":25961:25982  _rOwned[_excluded[i]] */\n      0x00\n        /* \"sadc.sol\":25969:25978  _excluded */\n      0x05\n        /* \"sadc.sol\":25979:25980  i */\n      dup5\n        /* \"sadc.sol\":25969:25981  _excluded[i] */\n      dup2\n      sload\n      dup2\n      lt\n      tag_302\n      jumpi\n      invalid\n    tag_302:\n      swap1\n      0x00\n      mstore\n      keccak256(0x00, 0x20)\n      add\n      0x00\n      swap1\n      sload\n      swap1\n      0x0100\n      exp\n      swap1\n      div\n      0xffffffffffffffffffffffffffffffffffffffff\n      and\n        /* \"sadc.sol\":25961:25982  _rOwned[_excluded[i]] */\n      0xffffffffffffffffffffffffffffffffffffffff\n      and\n      0xffffffffffffffffffffffffffffffffffffffff\n      and\n      dup2\n      mstore\n      0x20\n      add\n      swap1\n      dup2\n      mstore\n      0x20\n      add\n      0x00\n      keccak256\n      sload\n        /* \"sadc.sol\":25961:25992  _rOwned[_excluded[i]] > rSupply */\n      gt\n        /* \"sadc.sol\":25961:26027  _rOwned[_excluded[i]] > rSupply || _tOwned[_excluded[i]] > tSupply */\n      dup1\n      tag_304\n      jumpi\n      pop\n        /* \"sadc.sol\":26020:26027  tSupply */\n      dup2\n        /* \"sadc.sol\":25996:26003  _tOwned */\n      0x02\n        /* \"sadc.sol\":25996:26017  _tOwned[_excluded[i]] */\n      0x00\n        /* \"sadc.sol\":26004:26013  _excluded */\n      0x05\n        /* \"sadc.sol\":26014:26015  i */\n      dup5\n        /* \"sadc.sol\":26004:26016  _excluded[i] */\n      dup2\n      sload\n      dup2\n      lt\n      tag_305\n      jumpi\n      invalid\n    tag_305:\n      swap1\n      0x00\n      mstore\n      keccak256(0x00, 0x20)\n      add\n      0x00\n      swap1\n      sload\n      swap1\n      0x0100\n      exp\n      swap1\n      div\n      0xffffffffffffffffffffffffffffffffffffffff\n      and\n        /* \"sadc.sol\":25996:26017  _tOwned[_excluded[i]] */\n      0xffffffffffffffffffffffffffffffffffffffff\n      and\n      0xffffffffffffffffffffffffffffffffffffffff\n      and\n      dup2\n      mstore\n      0x20\n      add\n      swap1\n      dup2\n      mstore\n      0x20\n      add\n      0x00\n      keccak256\n      sload\n        /* \"sadc.sol\":25996:26027  _tOwned[_excluded[i]] > tSupply */\n      gt\n        /* \"sadc.sol\":25961:26027  _rOwned[_excluded[i]] > rSupply || _tOwned[_excluded[i]] > tSupply */\n    tag_304:\n        /* \"sadc.sol\":25957:26054  if (_rOwned[_excluded[i]] > rSupply || _tOwned[_excluded[i]] > tSupply) return (_rTotal, _tTotal) */\n      iszero\n      tag_307\n      jumpi\n        /* \"sadc.sol\":26037:26044  _rTotal */\n      sload(0x06)\n        /* \"sadc.sol\":16226:16241  7000000000000e9 */\n      0x017b7883c06916600000\n        /* \"sadc.sol\":26029:26054  return (_rTotal, _tTotal) */\n      swap5\n      pop\n      swap5\n      pop\n      pop\n      pop\n      pop\n      jump(tag_298)\n        /* \"sadc.sol\":25957:26054  if (_rOwned[_excluded[i]] > rSupply || _tOwned[_excluded[i]] > tSupply) return (_rTotal, _tTotal) */\n    tag_307:\n        /* \"sadc.sol\":26079:26113  rSupply.sub(_rOwned[_excluded[i]]) */\n      tag_308\n        /* \"sadc.sol\":26091:26098  _rOwned */\n      0x01\n        /* \"sadc.sol\":26091:26112  _rOwned[_excluded[i]] */\n      0x00\n        /* \"sadc.sol\":26099:26108  _excluded */\n      0x05\n        /* \"sadc.sol\":26109:26110  i */\n      dup5\n        /* \"sadc.sol\":26099:26111  _excluded[i] */\n      dup2\n      sload\n      dup2\n      lt\n      tag_309\n      jumpi\n      invalid\n    tag_309:\n      swap1\n      0x00\n      mstore\n      keccak256(0x00, 0x20)\n      add\n      0x00\n      swap1\n      sload\n      swap1\n      0x0100\n      exp\n      swap1\n      div\n      0xffffffffffffffffffffffffffffffffffffffff\n      and\n        /* \"sadc.sol\":26091:26112  _rOwned[_excluded[i]] */\n      0xffffffffffffffffffffffffffffffffffffffff\n      and\n      0xffffffffffffffffffffffffffffffffffffffff\n      and\n      dup2\n      mstore\n      0x20\n      add\n      swap1\n      dup2\n      mstore\n      0x20\n      add\n      0x00\n      keccak256\n      sload\n        /* \"sadc.sol\":26079:26086  rSupply */\n      dup5\n        /* \"sadc.sol\":26079:26090  rSupply.sub */\n      tag_105\n      swap1\n        /* \"sadc.sol\":26079:26113  rSupply.sub(_rOwned[_excluded[i]]) */\n      swap2\n      swap1\n      0xffffffff\n      and\n      jump\t// in\n    tag_308:\n        /* \"sadc.sol\":26069:26113  rSupply = rSupply.sub(_rOwned[_excluded[i]]) */\n      swap3\n      pop\n        /* \"sadc.sol\":26138:26172  tSupply.sub(_tOwned[_excluded[i]]) */\n      tag_311\n        /* \"sadc.sol\":26150:26157  _tOwned */\n      0x02\n        /* \"sadc.sol\":26150:26171  _tOwned[_excluded[i]] */\n      0x00\n        /* \"sadc.sol\":26158:26167  _excluded */\n      0x05\n        /* \"sadc.sol\":26168:26169  i */\n      dup5\n        /* \"sadc.sol\":26158:26170  _excluded[i] */\n      dup2\n      sload\n      dup2\n      lt\n      tag_312\n      jumpi\n      invalid\n    tag_312:\n      swap1\n      0x00\n      mstore\n      keccak256(0x00, 0x20)\n      add\n      0x00\n      swap1\n      sload\n      swap1\n      0x0100\n      exp\n      swap1\n      div\n      0xffffffffffffffffffffffffffffffffffffffff\n      and\n        /* \"sadc.sol\":26150:26171  _tOwned[_excluded[i]] */\n      0xffffffffffffffffffffffffffffffffffffffff\n      and\n      0xffffffffffffffffffffffffffffffffffffffff\n      and\n      dup2\n      mstore\n      0x20\n      add\n      swap1\n      dup2\n      mstore\n      0x20\n      add\n      0x00\n      keccak256\n      sload\n        /* \"sadc.sol\":26138:26145  tSupply */\n      dup4\n        /* \"sadc.sol\":26138:26149  tSupply.sub */\n      tag_105\n      swap1\n        /* \"sadc.sol\":26138:26172  tSupply.sub(_tOwned[_excluded[i]]) */\n      swap2\n      swap1\n      0xffffffff\n      and\n      jump\t// in\n    tag_311:\n        /* \"sadc.sol\":26128:26172  tSupply = tSupply.sub(_tOwned[_excluded[i]]) */\n      swap2\n      pop\n        /* \"sadc.sol\":25937:25940  i++ */\n      dup1\n      dup1\n      0x01\n      add\n      swap2\n      pop\n      pop\n        /* \"sadc.sol\":25895:26184  for (uint256 i = 0; i < _excluded.length; i++) {\r... */\n      jump(tag_299)\n    tag_300:\n      pop\n        /* \"sadc.sol\":26208:26228  _rTotal.div(_tTotal) */\n      tag_314\n        /* \"sadc.sol\":16226:16241  7000000000000e9 */\n      0x017b7883c06916600000\n        /* \"sadc.sol\":26208:26215  _rTotal */\n      sload(0x06)\n        /* \"sadc.sol\":26208:26219  _rTotal.div */\n      tag_132\n      swap1\n        /* \"sadc.sol\":26208:26228  _rTotal.div(_tTotal) */\n      swap2\n      swap1\n      0xffffffff\n      and\n      jump\t// in\n    tag_314:\n        /* \"sadc.sol\":26198:26205  rSupply */\n      dup3\n        /* \"sadc.sol\":26198:26228  rSupply < _rTotal.div(_tTotal) */\n      lt\n        /* \"sadc.sol\":26194:26255  if (rSupply < _rTotal.div(_tTotal)) return (_rTotal, _tTotal) */\n      iszero\n      tag_315\n      jumpi\n        /* \"sadc.sol\":26238:26245  _rTotal */\n      sload(0x06)\n        /* \"sadc.sol\":16226:16241  7000000000000e9 */\n      0x017b7883c06916600000\n        /* \"sadc.sol\":26230:26255  return (_rTotal, _tTotal) */\n      swap4\n      pop\n      swap4\n      pop\n      pop\n      pop\n      jump(tag_298)\n        /* \"sadc.sol\":26194:26255  if (rSupply < _rTotal.div(_tTotal)) return (_rTotal, _tTotal) */\n    tag_315:\n        /* \"sadc.sol\":26274:26281  rSupply */\n      dup2\n        /* \"sadc.sol\":26283:26290  tSupply */\n      dup2\n        /* \"sadc.sol\":26266:26291  return (rSupply, tSupply) */\n      swap4\n      pop\n      swap4\n      pop\n      pop\n      pop\n        /* \"sadc.sol\":25738:26299  function _getCurrentSupply() private view returns(uint256, uint256) {\r... */\n    tag_298:\n      swap1\n      swap2\n      jump\t// out\n        /* \"sadc.sol\":6430:6708  function div(uint256 a, uint256 b, string memory errorMessage) internal pure returns (uint256) {\r... */\n    tag_260:\n        /* \"sadc.sol\":6516:6523  uint256 */\n      0x00\n        /* \"sadc.sol\":6548:6549  0 */\n      dup1\n        /* \"sadc.sol\":6544:6545  b */\n      dup4\n        /* \"sadc.sol\":6544:6549  b > 0 */\n      gt\n        /* \"sadc.sol\":6551:6563  errorMessage */\n      dup3\n        /* \"sadc.sol\":6536:6564  require(b > 0, errorMessage) */\n      swap1\n      tag_317\n      jumpi\n      mload(0x40)\n      0x08c379a000000000000000000000000000000000000000000000000000000000\n      dup2\n      mstore\n      0x04\n      add\n      dup1\n      dup1\n      0x20\n      add\n      dup3\n      dup2\n      sub\n      dup3\n      mstore\n      dup4\n      dup2\n      dup2\n      mload\n      dup2\n      mstore\n      0x20\n      add\n      swap2\n      pop\n      dup1\n      mload\n      swap1\n      0x20\n      add\n      swap1\n      dup1\n      dup4\n      dup4\n      0x00\n    tag_318:\n      dup4\n      dup2\n      lt\n      iszero\n      tag_320\n      jumpi\n      dup1\n      dup3\n      add\n      mload\n      dup2\n      dup5\n      add\n      mstore\n      0x20\n      dup2\n      add\n      swap1\n      pop\n      jump(tag_318)\n    tag_320:\n      pop\n      pop\n      pop\n      pop\n      swap1\n      pop\n      swap1\n      dup2\n      add\n      swap1\n      0x1f\n      and\n      dup1\n      iszero\n      tag_321\n      jumpi\n      dup1\n      dup3\n      sub\n      dup1\n      mload\n      0x01\n      dup4\n      0x20\n      sub\n      0x0100\n      exp\n      sub\n      not\n      and\n      dup2\n      mstore\n      0x20\n      add\n      swap2\n      pop\n    tag_321:\n      pop\n      swap3\n      pop\n      pop\n      pop\n      mload(0x40)\n      dup1\n      swap2\n      sub\n      swap1\n      revert\n    tag_317:\n      pop\n        /* \"sadc.sol\":6575:6584  uint256 c */\n      0x00\n        /* \"sadc.sol\":6591:6592  b */\n      dup4\n        /* \"sadc.sol\":6587:6588  a */\n      dup6\n        /* \"sadc.sol\":6587:6592  a / b */\n      dup2\n      tag_322\n      jumpi\n      invalid\n    tag_322:\n      div\n        /* \"sadc.sol\":6575:6592  uint256 c = a / b */\n      swap1\n      pop\n        /* \"sadc.sol\":6699:6700  c */\n      dup1\n        /* \"sadc.sol\":6692:6700  return c */\n      swap2\n      pop\n      pop\n        /* \"sadc.sol\":6430:6708  function div(uint256 a, uint256 b, string memory errorMessage) internal pure returns (uint256) {\r... */\n      swap4\n      swap3\n      pop\n      pop\n      pop\n      jump\t// out\n        /* \"sadc.sol\":24413:24560  function _reflectFee(uint256 rFee, uint256 tFee) private {\r... */\n    tag_279:\n        /* \"sadc.sol\":24491:24508  _rTotal.sub(rFee) */\n      tag_324\n        /* \"sadc.sol\":24503:24507  rFee */\n      dup3\n        /* \"sadc.sol\":24491:24498  _rTotal */\n      sload(0x06)\n        /* \"sadc.sol\":24491:24502  _rTotal.sub */\n      tag_105\n      swap1\n        /* \"sadc.sol\":24491:24508  _rTotal.sub(rFee) */\n      swap2\n      swap1\n      0xffffffff\n      and\n      jump\t// in\n    tag_324:\n        /* \"sadc.sol\":24481:24488  _rTotal */\n      0x06\n        /* \"sadc.sol\":24481:24508  _rTotal = _rTotal.sub(rFee) */\n      dup2\n      swap1\n      sstore\n      pop\n        /* \"sadc.sol\":24532:24552  _tFeeTotal.add(tFee) */\n      tag_325\n        /* \"sadc.sol\":24547:24551  tFee */\n      dup2\n        /* \"sadc.sol\":24532:24542  _tFeeTotal */\n      sload(0x07)\n        /* \"sadc.sol\":24532:24546  _tFeeTotal.add */\n      tag_108\n      swap1\n        /* \"sadc.sol\":24532:24552  _tFeeTotal.add(tFee) */\n      swap2\n      swap1\n      0xffffffff\n      and\n      jump\t// in\n    tag_325:\n        /* \"sadc.sol\":24519:24529  _tFeeTotal */\n      0x07\n        /* \"sadc.sol\":24519:24552  _tFeeTotal = _tFeeTotal.add(tFee) */\n      dup2\n      swap1\n      sstore\n      pop\n        /* \"sadc.sol\":24413:24560  function _reflectFee(uint256 rFee, uint256 tFee) private {\r... */\n      pop\n      pop\n      jump\t// out\n    stop\n    data_0557e210f7a69a685100a7e4e3d0a7024c546085cee28910fd17d0b081d9516f 45524332303a207472616e7366657220746f20746865207a65726f2061646472657373\n    data_22f7af55a509c3b14f0d528f087748dec8a8bf425135e3f5dc28c6a31ec6d812 416d6f756e74206d757374206265206c657373207468616e20746f74616c207265666c656374696f6e73\n    data_245f15ff17f551913a7a18385165551503906a406f905ac1c2437281a7cd0cfe 4f776e61626c653a206e6577206f776e657220697320746865207a65726f2061646472657373\n    data_24883cc5fe64ace9d0df1893501ecb93c77180f0ff69cca79affb3c316dc8029 45524332303a20617070726f766520746f20746865207a65726f2061646472657373\n    data_72052210969ce5fd88e52b5e685de9548acef9bb1b6d02e29c1765d0674948dd 5472616e7366657220616d6f756e74206578636565647320746865206d61785478416d6f756e742e\n    data_9113bb53c2876a3805b2c9242029423fc540a728243ce887ab24c82cf119fba3 536166654d6174683a206d756c7469706c69636174696f6e206f766572666c6f77\n    data_974d1b4421da69cc60b481194f0dad36a5bb4e23da810da7a7fb30cdba178330 45524332303a207472616e7366657220616d6f756e74206578636565647320616c6c6f77616e6365\n    data_9edb5ab58321f35d2386ea65721c9b107daa2c273610fc16d394af2a320ba785 5472616e7366657220616d6f756e74206d7573742062652067726561746572207468616e207a65726f\n    data_baecc556b46f4ed0f2b4cb599d60785ac8563dd2dc0a5bf12edea1c39e5e1fea 45524332303a207472616e736665722066726f6d20746865207a65726f2061646472657373\n    data_c953f4879035ed60e766b34720f656aab5c697b141d924c283124ecedb91c208 45524332303a20617070726f76652066726f6d20746865207a65726f2061646472657373\n    data_ecefcaf5fbcf9ca6dcdb02298ba1da96f4ead317b0a4779917ecb2e5e7dc3ac4 4578636c75646564206164647265737365732063616e6e6f742063616c6c20746869732066756e6374696f6e\n    data_f8b476f7d28209d77d4a4ac1fe36b9f8259aa1bb6bddfa6e89de7e51615cf8a8 45524332303a2064656372656173656420616c6c6f77616e63652062656c6f77207a65726f\n\n    auxdata: 0xa26469706673582212206051babb3540dd083e098e148c40f6e044944b5d2be9236fc9f7fe10e557340364736f6c634300060c0033\n}\n",
				"bytecode": {
					"linkReferences": {},
					"object": "608060405269017b7883c06916600000600019816200001a57fe5b06600019036006556040518060400160405280600a81526020017f4a657373696520496e7500000000000000000000000000000000000000000000815250600890805190602001906200006f92919062000288565b506040518060400160405280600681526020017f4a6573736965000000000000000000000000000000000000000000000000000081525060099080519060200190620000bd92919062000288565b506009600a60006101000a81548160ff021916908360ff16021790555069017b7883c06916600000600b55348015620000f557600080fd5b506000620001086200028060201b60201c565b9050806000806101000a81548173ffffffffffffffffffffffffffffffffffffffff021916908373ffffffffffffffffffffffffffffffffffffffff1602179055508073ffffffffffffffffffffffffffffffffffffffff16600073ffffffffffffffffffffffffffffffffffffffff167f8be0079c531659141344cd1fd0a4f28419497f9722a3daafe3b4186f6b6457e060405160405180910390a35060065460016000620001bd6200028060201b60201c565b73ffffffffffffffffffffffffffffffffffffffff1673ffffffffffffffffffffffffffffffffffffffff168152602001908152602001600020819055506200020b6200028060201b60201c565b73ffffffffffffffffffffffffffffffffffffffff16600073ffffffffffffffffffffffffffffffffffffffff167fddf252ad1be2c89b69c2b068fc378daa952ba7f163c4a11628f55a4df523b3ef69017b7883c069166000006040518082815260200191505060405180910390a36200032e565b600033905090565b828054600181600116156101000203166002900490600052602060002090601f016020900481019282601f10620002cb57805160ff1916838001178555620002fc565b82800160010185558215620002fc579182015b82811115620002fb578251825591602001919060010190620002de565b5b5090506200030b91906200030f565b5090565b5b808211156200032a57600081600090555060010162000310565b5090565b6135d1806200033e6000396000f3fe608060405234801561001057600080fd5b506004361061014d5760003560e01c8063715018a6116100c3578063cba0e9961161007c578063cba0e9961461063b578063d543dbeb14610695578063dd62ed3e146106c3578063f2cc0c181461073b578063f2fde38b1461077f578063f84354f1146107c35761014d565b8063715018a6146104945780637d1db4a51461049e5780638da5cb5b146104bc57806395d89b41146104f0578063a457c2d714610573578063a9059cbb146105d75761014d565b806323b872dd1161011557806323b872dd146102a35780632d83811914610327578063313ce56714610369578063395093511461038a5780634549b039146103ee57806370a082311461043c5761014d565b8063053ab1821461015257806306fdde0314610180578063095ea7b31461020357806313114a9d1461026757806318160ddd14610285575b600080fd5b61017e6004803603602081101561016857600080fd5b8101908080359060200190929190505050610807565b005b610188610997565b6040518080602001828103825283818151815260200191508051906020019080838360005b838110156101c85780820151818401526020810190506101ad565b50505050905090810190601f1680156101f55780820380516001836020036101000a031916815260200191505b509250505060405180910390f35b61024f6004803603604081101561021957600080fd5b81019080803573ffffffffffffffffffffffffffffffffffffffff16906020019092919080359060200190929190505050610a39565b60405180821515815260200191505060405180910390f35b61026f610a57565b6040518082815260200191505060405180910390f35b61028d610a61565b6040518082815260200191505060405180910390f35b61030f600480360360608110156102b957600080fd5b81019080803573ffffffffffffffffffffffffffffffffffffffff169060200190929190803573ffffffffffffffffffffffffffffffffffffffff16906020019092919080359060200190929190505050610a73565b60405180821515815260200191505060405180910390f35b6103536004803603602081101561033d57600080fd5b8101908080359060200190929190505050610b4c565b6040518082815260200191505060405180910390f35b610371610bd0565b604051808260ff16815260200191505060405180910390f35b6103d6600480360360408110156103a057600080fd5b81019080803573ffffffffffffffffffffffffffffffffffffffff16906020019092919080359060200190929190505050610be7565b60405180821515815260200191505060405180910390f35b6104266004803603604081101561040457600080fd5b8101908080359060200190929190803515159060200190929190505050610c9a565b6040518082815260200191505060405180910390f35b61047e6004803603602081101561045257600080fd5b81019080803573ffffffffffffffffffffffffffffffffffffffff169060200190929190505050610d57565b6040518082815260200191505060405180910390f35b61049c610e42565b005b6104a6610fc8565b6040518082815260200191505060405180910390f35b6104c4610fce565b604051808273ffffffffffffffffffffffffffffffffffffffff16815260200191505060405180910390f35b6104f8610ff7565b6040518080602001828103825283818151815260200191508051906020019080838360005b8381101561053857808201518184015260208101905061051d565b50505050905090810190601f1680156105655780820380516001836020036101000a031916815260200191505b509250505060405180910390f35b6105bf6004803603604081101561058957600080fd5b81019080803573ffffffffffffffffffffffffffffffffffffffff16906020019092919080359060200190929190505050611099565b60405180821515815260200191505060405180910390f35b610623600480360360408110156105ed57600080fd5b81019080803573ffffffffffffffffffffffffffffffffffffffff16906020019092919080359060200190929190505050611166565b60405180821515815260200191505060405180910390f35b61067d6004803603602081101561065157600080fd5b81019080803573ffffffffffffffffffffffffffffffffffffffff169060200190929190505050611184565b60405180821515815260200191505060405180910390f35b6106c1600480360360208110156106ab57600080fd5b81019080803590602001909291905050506111da565b005b610725600480360360408110156106d957600080fd5b81019080803573ffffffffffffffffffffffffffffffffffffffff169060200190929190803573ffffffffffffffffffffffffffffffffffffffff1690602001909291905050506112db565b6040518082815260200191505060405180910390f35b61077d6004803603602081101561075157600080fd5b81019080803573ffffffffffffffffffffffffffffffffffffffff169060200190929190505050611362565b005b6107c16004803603602081101561079557600080fd5b81019080803573ffffffffffffffffffffffffffffffffffffffff16906020019092919050505061167c565b005b610805600480360360208110156107d957600080fd5b81019080803573ffffffffffffffffffffffffffffffffffffffff169060200190929190505050611887565b005b6000610811611c11565b9050600460008273ffffffffffffffffffffffffffffffffffffffff1673ffffffffffffffffffffffffffffffffffffffff16815260200190815260200160002060009054906101000a900460ff16156108b6576040517f08c379a000000000000000000000000000000000000000000000000000000000815260040180806020018281038252602c81526020018061354b602c913960400191505060405180910390fd5b60006108c183611c19565b50505050905061091981600160008573ffffffffffffffffffffffffffffffffffffffff1673ffffffffffffffffffffffffffffffffffffffff16815260200190815260200160002054611c7190919063ffffffff16565b600160008473ffffffffffffffffffffffffffffffffffffffff1673ffffffffffffffffffffffffffffffffffffffff1681526020019081526020016000208190555061097181600654611c7190919063ffffffff16565b60068190555061098c83600754611cbb90919063ffffffff16565b600781905550505050565b606060088054600181600116156101000203166002900480601f016020809104026020016040519081016040528092919081815260200182805460018160011615610100020316600290048015610a2f5780601f10610a0457610100808354040283529160200191610a2f565b820191906000526020600020905b815481529060010190602001808311610a1257829003601f168201915b5050505050905090565b6000610a4d610a46611c11565b8484611d43565b6001905092915050565b6000600754905090565b600069017b7883c06916600000905090565b6000610a80848484611f3a565b610b4184610a8c611c11565b610b3c856040518060600160405280602881526020016134b160289139600360008b73ffffffffffffffffffffffffffffffffffffffff1673ffffffffffffffffffffffffffffffffffffffff1681526020019081526020016000206000610af2611c11565b73ffffffffffffffffffffffffffffffffffffffff1673ffffffffffffffffffffffffffffffffffffffff1681526020019081526020016000205461246a9092919063ffffffff16565b611d43565b600190509392505050565b6000600654821115610ba9576040517f08c379a000000000000000000000000000000000000000000000000000000000815260040180806020018281038252602a8152602001806133f6602a913960400191505060405180910390fd5b6000610bb361252a565b9050610bc8818461255590919063ffffffff16565b915050919050565b6000600a60009054906101000a900460ff16905090565b6000610c90610bf4611c11565b84610c8b8560036000610c05611c11565b73ffffffffffffffffffffffffffffffffffffffff1673ffffffffffffffffffffffffffffffffffffffff16815260200190815260200160002060008973ffffffffffffffffffffffffffffffffffffffff1673ffffffffffffffffffffffffffffffffffffffff16815260200190815260200160002054611cbb90919063ffffffff16565b611d43565b6001905092915050565b600069017b7883c06916600000831115610d1c576040517f08c379a000000000000000000000000000000000000000000000000000000000815260040180806020018281038252601f8152602001807f416d6f756e74206d757374206265206c657373207468616e20737570706c790081525060200191505060405180910390fd5b81610d3b576000610d2c84611c19565b50505050905080915050610d51565b6000610d4684611c19565b505050915050809150505b92915050565b6000600460008373ffffffffffffffffffffffffffffffffffffffff1673ffffffffffffffffffffffffffffffffffffffff16815260200190815260200160002060009054906101000a900460ff1615610df257600260008373ffffffffffffffffffffffffffffffffffffffff1673ffffffffffffffffffffffffffffffffffffffff168152602001908152602001600020549050610e3d565b610e3a600160008473ffffffffffffffffffffffffffffffffffffffff1673ffffffffffffffffffffffffffffffffffffffff16815260200190815260200160002054610b4c565b90505b919050565b610e4a611c11565b73ffffffffffffffffffffffffffffffffffffffff1660008054906101000a900473ffffffffffffffffffffffffffffffffffffffff1673ffffffffffffffffffffffffffffffffffffffff1614610f0a576040517f08c379a00000000000000000000000000000000000000000000000000000000081526004018080602001828103825260208152602001807f4f776e61626c653a2063616c6c6572206973206e6f7420746865206f776e657281525060200191505060405180910390fd5b600073ffffffffffffffffffffffffffffffffffffffff1660008054906101000a900473ffffffffffffffffffffffffffffffffffffffff1673ffffffffffffffffffffffffffffffffffffffff167f8be0079c531659141344cd1fd0a4f28419497f9722a3daafe3b4186f6b6457e060405160405180910390a360008060006101000a81548173ffffffffffffffffffffffffffffffffffffffff021916908373ffffffffffffffffffffffffffffffffffffffff160217905550565b600b5481565b60008060009054906101000a900473ffffffffffffffffffffffffffffffffffffffff16905090565b606060098054600181600116156101000203166002900480601f01602080910402602001604051908101604052809291908181526020018280546001816001161561010002031660029004801561108f5780601f106110645761010080835404028352916020019161108f565b820191906000526020600020905b81548152906001019060200180831161107257829003601f168201915b5050505050905090565b600061115c6110a6611c11565b846111578560405180606001604052806025815260200161357760259139600360006110d0611c11565b73ffffffffffffffffffffffffffffffffffffffff1673ffffffffffffffffffffffffffffffffffffffff16815260200190815260200160002060008a73ffffffffffffffffffffffffffffffffffffffff1673ffffffffffffffffffffffffffffffffffffffff1681526020019081526020016000205461246a9092919063ffffffff16565b611d43565b6001905092915050565b600061117a611173611c11565b8484611f3a565b6001905092915050565b6000600460008373ffffffffffffffffffffffffffffffffffffffff1673ffffffffffffffffffffffffffffffffffffffff16815260200190815260200160002060009054906101000a900460ff169050919050565b6111e2611c11565b73ffffffffffffffffffffffffffffffffffffffff1660008054906101000a900473ffffffffffffffffffffffffffffffffffffffff1673ffffffffffffffffffffffffffffffffffffffff16146112a2576040517f08c379a00000000000000000000000000000000000000000000000000000000081526004018080602001828103825260208152602001807f4f776e61626c653a2063616c6c6572206973206e6f7420746865206f776e657281525060200191505060405180910390fd5b6112d260646112c48369017b7883c0691660000061259f90919063ffffffff16565b61255590919063ffffffff16565b600b8190555050565b6000600360008473ffffffffffffffffffffffffffffffffffffffff1673ffffffffffffffffffffffffffffffffffffffff16815260200190815260200160002060008373ffffffffffffffffffffffffffffffffffffffff1673ffffffffffffffffffffffffffffffffffffffff16815260200190815260200160002054905092915050565b61136a611c11565b73ffffffffffffffffffffffffffffffffffffffff1660008054906101000a900473ffffffffffffffffffffffffffffffffffffffff1673ffffffffffffffffffffffffffffffffffffffff161461142a576040517f08c379a00000000000000000000000000000000000000000000000000000000081526004018080602001828103825260208152602001807f4f776e61626c653a2063616c6c6572206973206e6f7420746865206f776e657281525060200191505060405180910390fd5b600460008273ffffffffffffffffffffffffffffffffffffffff1673ffffffffffffffffffffffffffffffffffffffff16815260200190815260200160002060009054906101000a900460ff16156114ea576040517f08c379a000000000000000000000000000000000000000000000000000000000815260040180806020018281038252601b8152602001807f4163636f756e7420697320616c7265616479206578636c75646564000000000081525060200191505060405180910390fd5b6000600160008373ffffffffffffffffffffffffffffffffffffffff1673ffffffffffffffffffffffffffffffffffffffff1681526020019081526020016000205411156115be5761157a600160008373ffffffffffffffffffffffffffffffffffffffff1673ffffffffffffffffffffffffffffffffffffffff16815260200190815260200160002054610b4c565b600260008373ffffffffffffffffffffffffffffffffffffffff1673ffffffffffffffffffffffffffffffffffffffff168152602001908152602001600020819055505b6001600460008373ffffffffffffffffffffffffffffffffffffffff1673ffffffffffffffffffffffffffffffffffffffff16815260200190815260200160002060006101000a81548160ff0219169083151502179055506005819080600181540180825580915050600190039060005260206000200160009091909190916101000a81548173ffffffffffffffffffffffffffffffffffffffff021916908373ffffffffffffffffffffffffffffffffffffffff16021790555050565b611684611c11565b73ffffffffffffffffffffffffffffffffffffffff1660008054906101000a900473ffffffffffffffffffffffffffffffffffffffff1673ffffffffffffffffffffffffffffffffffffffff1614611744576040517f08c379a00000000000000000000000000000000000000000000000000000000081526004018080602001828103825260208152602001807f4f776e61626c653a2063616c6c6572206973206e6f7420746865206f776e657281525060200191505060405180910390fd5b600073ffffffffffffffffffffffffffffffffffffffff168173ffffffffffffffffffffffffffffffffffffffff1614156117ca576040517f08c379a00000000000000000000000000000000000000000000000000000000081526004018080602001828103825260268152602001806134206026913960400191505060405180910390fd5b8073ffffffffffffffffffffffffffffffffffffffff1660008054906101000a900473ffffffffffffffffffffffffffffffffffffffff1673ffffffffffffffffffffffffffffffffffffffff167f8be0079c531659141344cd1fd0a4f28419497f9722a3daafe3b4186f6b6457e060405160405180910390a3806000806101000a81548173ffffffffffffffffffffffffffffffffffffffff021916908373ffffffffffffffffffffffffffffffffffffffff16021790555050565b61188f611c11565b73ffffffffffffffffffffffffffffffffffffffff1660008054906101000a900473ffffffffffffffffffffffffffffffffffffffff1673ffffffffffffffffffffffffffffffffffffffff161461194f576040517f08c379a00000000000000000000000000000000000000000000000000000000081526004018080602001828103825260208152602001807f4f776e61626c653a2063616c6c6572206973206e6f7420746865206f776e657281525060200191505060405180910390fd5b600460008273ffffffffffffffffffffffffffffffffffffffff1673ffffffffffffffffffffffffffffffffffffffff16815260200190815260200160002060009054906101000a900460ff16611a0e576040517f08c379a000000000000000000000000000000000000000000000000000000000815260040180806020018281038252601b8152602001807f4163636f756e7420697320616c7265616479206578636c75646564000000000081525060200191505060405180910390fd5b60005b600580549050811015611c0d578173ffffffffffffffffffffffffffffffffffffffff1660058281548110611a4257fe5b9060005260206000200160009054906101000a900473ffffffffffffffffffffffffffffffffffffffff1673ffffffffffffffffffffffffffffffffffffffff161415611c0057600560016005805490500381548110611a9e57fe5b9060005260206000200160009054906101000a900473ffffffffffffffffffffffffffffffffffffffff1660058281548110611ad657fe5b9060005260206000200160006101000a81548173ffffffffffffffffffffffffffffffffffffffff021916908373ffffffffffffffffffffffffffffffffffffffff1602179055506000600260008473ffffffffffffffffffffffffffffffffffffffff1673ffffffffffffffffffffffffffffffffffffffff168152602001908152602001600020819055506000600460008473ffffffffffffffffffffffffffffffffffffffff1673ffffffffffffffffffffffffffffffffffffffff16815260200190815260200160002060006101000a81548160ff0219169083151502179055506005805480611bc657fe5b6001900381819060005260206000200160006101000a81549073ffffffffffffffffffffffffffffffffffffffff02191690559055611c0d565b8080600101915050611a11565b5050565b600033905090565b6000806000806000806000611c2d88612625565b915091506000611c3b61252a565b90506000806000611c4d8c8686612677565b92509250925082828288889a509a509a509a509a5050505050505091939590929450565b6000611cb383836040518060400160405280601e81526020017f536166654d6174683a207375627472616374696f6e206f766572666c6f77000081525061246a565b905092915050565b600080828401905083811015611d39576040517f08c379a000000000000000000000000000000000000000000000000000000000815260040180806020018281038252601b8152602001807f536166654d6174683a206164646974696f6e206f766572666c6f77000000000081525060200191505060405180910390fd5b8091505092915050565b600073ffffffffffffffffffffffffffffffffffffffff168373ffffffffffffffffffffffffffffffffffffffff161415611dc9576040517f08c379a00000000000000000000000000000000000000000000000000000000081526004018080602001828103825260248152602001806135276024913960400191505060405180910390fd5b600073ffffffffffffffffffffffffffffffffffffffff168273ffffffffffffffffffffffffffffffffffffffff161415611e4f576040517f08c379a00000000000000000000000000000000000000000000000000000000081526004018080602001828103825260228152602001806134466022913960400191505060405180910390fd5b80600360008573ffffffffffffffffffffffffffffffffffffffff1673ffffffffffffffffffffffffffffffffffffffff16815260200190815260200160002060008473ffffffffffffffffffffffffffffffffffffffff1673ffffffffffffffffffffffffffffffffffffffff168152602001908152602001600020819055508173ffffffffffffffffffffffffffffffffffffffff168373ffffffffffffffffffffffffffffffffffffffff167f8c5be1e5ebec7d5bd14f71427d1e84f3dd0314c0f7b2291e5b200ac8c7c3b925836040518082815260200191505060405180910390a3505050565b600073ffffffffffffffffffffffffffffffffffffffff168373ffffffffffffffffffffffffffffffffffffffff161415611fc0576040517f08c379a00000000000000000000000000000000000000000000000000000000081526004018080602001828103825260258152602001806135026025913960400191505060405180910390fd5b600073ffffffffffffffffffffffffffffffffffffffff168273ffffffffffffffffffffffffffffffffffffffff161415612046576040517f08c379a00000000000000000000000000000000000000000000000000000000081526004018080602001828103825260238152602001806133d36023913960400191505060405180910390fd5b6000811161209f576040517f08c379a00000000000000000000000000000000000000000000000000000000081526004018080602001828103825260298152602001806134d96029913960400191505060405180910390fd5b6120a7610fce565b73ffffffffffffffffffffffffffffffffffffffff168373ffffffffffffffffffffffffffffffffffffffff161415801561211557506120e5610fce565b73ffffffffffffffffffffffffffffffffffffffff168273ffffffffffffffffffffffffffffffffffffffff1614155b1561217657600b54811115612175576040517f08c379a00000000000000000000000000000000000000000000000000000000081526004018080602001828103825260288152602001806134686028913960400191505060405180910390fd5b5b600460008473ffffffffffffffffffffffffffffffffffffffff1673ffffffffffffffffffffffffffffffffffffffff16815260200190815260200160002060009054906101000a900460ff1680156122195750600460008373ffffffffffffffffffffffffffffffffffffffff1673ffffffffffffffffffffffffffffffffffffffff16815260200190815260200160002060009054906101000a900460ff16155b1561222e576122298383836126d5565b612465565b600460008473ffffffffffffffffffffffffffffffffffffffff1673ffffffffffffffffffffffffffffffffffffffff16815260200190815260200160002060009054906101000a900460ff161580156122d15750600460008373ffffffffffffffffffffffffffffffffffffffff1673ffffffffffffffffffffffffffffffffffffffff16815260200190815260200160002060009054906101000a900460ff165b156122e6576122e1838383612928565b612464565b600460008473ffffffffffffffffffffffffffffffffffffffff1673ffffffffffffffffffffffffffffffffffffffff16815260200190815260200160002060009054906101000a900460ff1615801561238a5750600460008373ffffffffffffffffffffffffffffffffffffffff1673ffffffffffffffffffffffffffffffffffffffff16815260200190815260200160002060009054906101000a900460ff16155b1561239f5761239a838383612b7b565b612463565b600460008473ffffffffffffffffffffffffffffffffffffffff1673ffffffffffffffffffffffffffffffffffffffff16815260200190815260200160002060009054906101000a900460ff1680156124415750600460008373ffffffffffffffffffffffffffffffffffffffff1673ffffffffffffffffffffffffffffffffffffffff16815260200190815260200160002060009054906101000a900460ff165b1561245657612451838383612d39565b612462565b612461838383612b7b565b5b5b5b5b505050565b6000838311158290612517576040517f08c379a00000000000000000000000000000000000000000000000000000000081526004018080602001828103825283818151815260200191508051906020019080838360005b838110156124dc5780820151818401526020810190506124c1565b50505050905090810190601f1680156125095780820380516001836020036101000a031916815260200191505b509250505060405180910390fd5b5060008385039050809150509392505050565b6000806000612537613021565b9150915061254e818361255590919063ffffffff16565b9250505090565b600061259783836040518060400160405280601a81526020017f536166654d6174683a206469766973696f6e206279207a65726f0000000000008152506132d2565b905092915050565b6000808314156125b2576000905061261f565b60008284029050828482816125c357fe5b041461261a576040517f08c379a00000000000000000000000000000000000000000000000000000000081526004018080602001828103825260218152602001806134906021913960400191505060405180910390fd5b809150505b92915050565b6000806000612651600261264360648761255590919063ffffffff16565b61259f90919063ffffffff16565b905060006126688286611c7190919063ffffffff16565b90508082935093505050915091565b600080600080612690858861259f90919063ffffffff16565b905060006126a7868861259f90919063ffffffff16565b905060006126be8284611c7190919063ffffffff16565b905082818395509550955050505093509350939050565b60008060008060006126e686611c19565b9450945094509450945061274286600260008b73ffffffffffffffffffffffffffffffffffffffff1673ffffffffffffffffffffffffffffffffffffffff16815260200190815260200160002054611c7190919063ffffffff16565b600260008a73ffffffffffffffffffffffffffffffffffffffff1673ffffffffffffffffffffffffffffffffffffffff168152602001908152602001600020819055506127d785600160008b73ffffffffffffffffffffffffffffffffffffffff1673ffffffffffffffffffffffffffffffffffffffff16815260200190815260200160002054611c7190919063ffffffff16565b600160008a73ffffffffffffffffffffffffffffffffffffffff1673ffffffffffffffffffffffffffffffffffffffff1681526020019081526020016000208190555061286c84600160008a73ffffffffffffffffffffffffffffffffffffffff1673ffffffffffffffffffffffffffffffffffffffff16815260200190815260200160002054611cbb90919063ffffffff16565b600160008973ffffffffffffffffffffffffffffffffffffffff1673ffffffffffffffffffffffffffffffffffffffff168152602001908152602001600020819055506128b98382613398565b8673ffffffffffffffffffffffffffffffffffffffff168873ffffffffffffffffffffffffffffffffffffffff167fddf252ad1be2c89b69c2b068fc378daa952ba7f163c4a11628f55a4df523b3ef846040518082815260200191505060405180910390a35050505050505050565b600080600080600061293986611c19565b9450945094509450945061299585600160008b73ffffffffffffffffffffffffffffffffffffffff1673ffffffffffffffffffffffffffffffffffffffff16815260200190815260200160002054611c7190919063ffffffff16565b600160008a73ffffffffffffffffffffffffffffffffffffffff1673ffffffffffffffffffffffffffffffffffffffff16815260200190815260200160002081905550612a2a82600260008a73ffffffffffffffffffffffffffffffffffffffff1673ffffffffffffffffffffffffffffffffffffffff16815260200190815260200160002054611cbb90919063ffffffff16565b600260008973ffffffffffffffffffffffffffffffffffffffff1673ffffffffffffffffffffffffffffffffffffffff16815260200190815260200160002081905550612abf84600160008a73ffffffffffffffffffffffffffffffffffffffff1673ffffffffffffffffffffffffffffffffffffffff16815260200190815260200160002054611cbb90919063ffffffff16565b600160008973ffffffffffffffffffffffffffffffffffffffff1673ffffffffffffffffffffffffffffffffffffffff16815260200190815260200160002081905550612b0c8382613398565b8673ffffffffffffffffffffffffffffffffffffffff168873ffffffffffffffffffffffffffffffffffffffff167fddf252ad1be2c89b69c2b068fc378daa952ba7f163c4a11628f55a4df523b3ef846040518082815260200191505060405180910390a35050505050505050565b6000806000806000612b8c86611c19565b94509450945094509450612be885600160008b73ffffffffffffffffffffffffffffffffffffffff1673ffffffffffffffffffffffffffffffffffffffff16815260200190815260200160002054611c7190919063ffffffff16565b600160008a73ffffffffffffffffffffffffffffffffffffffff1673ffffffffffffffffffffffffffffffffffffffff16815260200190815260200160002081905550612c7d84600160008a73ffffffffffffffffffffffffffffffffffffffff1673ffffffffffffffffffffffffffffffffffffffff16815260200190815260200160002054611cbb90919063ffffffff16565b600160008973ffffffffffffffffffffffffffffffffffffffff1673ffffffffffffffffffffffffffffffffffffffff16815260200190815260200160002081905550612cca8382613398565b8673ffffffffffffffffffffffffffffffffffffffff168873ffffffffffffffffffffffffffffffffffffffff167fddf252ad1be2c89b69c2b068fc378daa952ba7f163c4a11628f55a4df523b3ef846040518082815260200191505060405180910390a35050505050505050565b6000806000806000612d4a86611c19565b94509450945094509450612da686600260008b73ffffffffffffffffffffffffffffffffffffffff1673ffffffffffffffffffffffffffffffffffffffff16815260200190815260200160002054611c7190919063ffffffff16565b600260008a73ffffffffffffffffffffffffffffffffffffffff1673ffffffffffffffffffffffffffffffffffffffff16815260200190815260200160002081905550612e3b85600160008b73ffffffffffffffffffffffffffffffffffffffff1673ffffffffffffffffffffffffffffffffffffffff16815260200190815260200160002054611c7190919063ffffffff16565b600160008a73ffffffffffffffffffffffffffffffffffffffff1673ffffffffffffffffffffffffffffffffffffffff16815260200190815260200160002081905550612ed082600260008a73ffffffffffffffffffffffffffffffffffffffff1673ffffffffffffffffffffffffffffffffffffffff16815260200190815260200160002054611cbb90919063ffffffff16565b600260008973ffffffffffffffffffffffffffffffffffffffff1673ffffffffffffffffffffffffffffffffffffffff16815260200190815260200160002081905550612f6584600160008a73ffffffffffffffffffffffffffffffffffffffff1673ffffffffffffffffffffffffffffffffffffffff16815260200190815260200160002054611cbb90919063ffffffff16565b600160008973ffffffffffffffffffffffffffffffffffffffff1673ffffffffffffffffffffffffffffffffffffffff16815260200190815260200160002081905550612fb28382613398565b8673ffffffffffffffffffffffffffffffffffffffff168873ffffffffffffffffffffffffffffffffffffffff167fddf252ad1be2c89b69c2b068fc378daa952ba7f163c4a11628f55a4df523b3ef846040518082815260200191505060405180910390a35050505050505050565b60008060006006549050600069017b7883c06916600000905060005b6005805490508110156132855782600160006005848154811061305c57fe5b9060005260206000200160009054906101000a900473ffffffffffffffffffffffffffffffffffffffff1673ffffffffffffffffffffffffffffffffffffffff1673ffffffffffffffffffffffffffffffffffffffff16815260200190815260200160002054118061314357508160026000600584815481106130db57fe5b9060005260206000200160009054906101000a900473ffffffffffffffffffffffffffffffffffffffff1673ffffffffffffffffffffffffffffffffffffffff1673ffffffffffffffffffffffffffffffffffffffff16815260200190815260200160002054115b156131625760065469017b7883c06916600000945094505050506132ce565b6131eb600160006005848154811061317657fe5b9060005260206000200160009054906101000a900473ffffffffffffffffffffffffffffffffffffffff1673ffffffffffffffffffffffffffffffffffffffff1673ffffffffffffffffffffffffffffffffffffffff1681526020019081526020016000205484611c7190919063ffffffff16565b9250613276600260006005848154811061320157fe5b9060005260206000200160009054906101000a900473ffffffffffffffffffffffffffffffffffffffff1673ffffffffffffffffffffffffffffffffffffffff1673ffffffffffffffffffffffffffffffffffffffff1681526020019081526020016000205483611c7190919063ffffffff16565b9150808060010191505061303d565b506132a569017b7883c0691660000060065461255590919063ffffffff16565b8210156132c55760065469017b7883c069166000009350935050506132ce565b81819350935050505b9091565b6000808311829061337e576040517f08c379a00000000000000000000000000000000000000000000000000000000081526004018080602001828103825283818151815260200191508051906020019080838360005b83811015613343578082015181840152602081019050613328565b50505050905090810190601f1680156133705780820380516001836020036101000a031916815260200191505b509250505060405180910390fd5b50600083858161338a57fe5b049050809150509392505050565b6133ad82600654611c7190919063ffffffff16565b6006819055506133c881600754611cbb90919063ffffffff16565b600781905550505056fe45524332303a207472616e7366657220746f20746865207a65726f2061646472657373416d6f756e74206d757374206265206c657373207468616e20746f74616c207265666c656374696f6e734f776e61626c653a206e6577206f776e657220697320746865207a65726f206164647265737345524332303a20617070726f766520746f20746865207a65726f20616464726573735472616e7366657220616d6f756e74206578636565647320746865206d61785478416d6f756e742e536166654d6174683a206d756c7469706c69636174696f6e206f766572666c6f7745524332303a207472616e7366657220616d6f756e74206578636565647320616c6c6f77616e63655472616e7366657220616d6f756e74206d7573742062652067726561746572207468616e207a65726f45524332303a207472616e736665722066726f6d20746865207a65726f206164647265737345524332303a20617070726f76652066726f6d20746865207a65726f20616464726573734578636c75646564206164647265737365732063616e6e6f742063616c6c20746869732066756e6374696f6e45524332303a2064656372656173656420616c6c6f77616e63652062656c6f77207a65726fa26469706673582212206051babb3540dd083e098e148c40f6e044944b5d2be9236fc9f7fe10e557340364736f6c634300060c0033",
					"opcodes": "PUSH1 0x80 PUSH1 0x40 MSTORE PUSH10 0x17B7883C06916600000 PUSH1 0x0 NOT DUP2 PUSH3 0x1A JUMPI INVALID JUMPDEST MOD PUSH1 0x0 NOT SUB PUSH1 0x6 SSTORE PUSH1 0x40 MLOAD DUP1 PUSH1 0x40 ADD PUSH1 0x40 MSTORE DUP1 PUSH1 0xA DUP2 MSTORE PUSH1 0x20 ADD PUSH32 0x4A657373696520496E7500000000000000000000000000000000000000000000 DUP2 MSTORE POP PUSH1 0x8 SWAP1 DUP1 MLOAD SWAP1 PUSH1 0x20 ADD SWAP1 PUSH3 0x6F SWAP3 SWAP2 SWAP1 PUSH3 0x288 JUMP JUMPDEST POP PUSH1 0x40 MLOAD DUP1 PUSH1 0x40 ADD PUSH1 0x40 MSTORE DUP1 PUSH1 0x6 DUP2 MSTORE PUSH1 0x20 ADD PUSH32 0x4A65737369650000000000000000000000000000000000000000000000000000 DUP2 MSTORE POP PUSH1 0x9 SWAP1 DUP1 MLOAD SWAP1 PUSH1 0x20 ADD SWAP1 PUSH3 0xBD SWAP3 SWAP2 SWAP1 PUSH3 0x288 JUMP JUMPDEST POP PUSH1 0x9 PUSH1 0xA PUSH1 0x0 PUSH2 0x100 EXP DUP2 SLOAD DUP2 PUSH1 0xFF MUL NOT AND SWAP1 DUP4 PUSH1 0xFF AND MUL OR SWAP1 SSTORE POP PUSH10 0x17B7883C06916600000 PUSH1 0xB SSTORE CALLVALUE DUP1 ISZERO PUSH3 0xF5 JUMPI PUSH1 0x0 DUP1 REVERT JUMPDEST POP PUSH1 0x0 PUSH3 0x108 PUSH3 0x280 PUSH1 0x20 SHL PUSH1 0x20 SHR JUMP JUMPDEST SWAP1 POP DUP1 PUSH1 0x0 DUP1 PUSH2 0x100 EXP DUP2 SLOAD DUP2 PUSH20 0xFFFFFFFFFFFFFFFFFFFFFFFFFFFFFFFFFFFFFFFF MUL NOT AND SWAP1 DUP4 PUSH20 0xFFFFFFFFFFFFFFFFFFFFFFFFFFFFFFFFFFFFFFFF AND MUL OR SWAP1 SSTORE POP DUP1 PUSH20 0xFFFFFFFFFFFFFFFFFFFFFFFFFFFFFFFFFFFFFFFF AND PUSH1 0x0 PUSH20 0xFFFFFFFFFFFFFFFFFFFFFFFFFFFFFFFFFFFFFFFF AND PUSH32 0x8BE0079C531659141344CD1FD0A4F28419497F9722A3DAAFE3B4186F6B6457E0 PUSH1 0x40 MLOAD PUSH1 0x40 MLOAD DUP1 SWAP2 SUB SWAP1 LOG3 POP PUSH1 0x6 SLOAD PUSH1 0x1 PUSH1 0x0 PUSH3 0x1BD PUSH3 0x280 PUSH1 0x20 SHL PUSH1 0x20 SHR JUMP JUMPDEST PUSH20 0xFFFFFFFFFFFFFFFFFFFFFFFFFFFFFFFFFFFFFFFF AND PUSH20 0xFFFFFFFFFFFFFFFFFFFFFFFFFFFFFFFFFFFFFFFF AND DUP2 MSTORE PUSH1 0x20 ADD SWAP1 DUP2 MSTORE PUSH1 0x20 ADD PUSH1 0x0 KECCAK256 DUP2 SWAP1 SSTORE POP PUSH3 0x20B PUSH3 0x280 PUSH1 0x20 SHL PUSH1 0x20 SHR JUMP JUMPDEST PUSH20 0xFFFFFFFFFFFFFFFFFFFFFFFFFFFFFFFFFFFFFFFF AND PUSH1 0x0 PUSH20 0xFFFFFFFFFFFFFFFFFFFFFFFFFFFFFFFFFFFFFFFF AND PUSH32 0xDDF252AD1BE2C89B69C2B068FC378DAA952BA7F163C4A11628F55A4DF523B3EF PUSH10 0x17B7883C06916600000 PUSH1 0x40 MLOAD DUP1 DUP3 DUP2 MSTORE PUSH1 0x20 ADD SWAP2 POP POP PUSH1 0x40 MLOAD DUP1 SWAP2 SUB SWAP1 LOG3 PUSH3 0x32E JUMP JUMPDEST PUSH1 0x0 CALLER SWAP1 POP SWAP1 JUMP JUMPDEST DUP3 DUP1 SLOAD PUSH1 0x1 DUP2 PUSH1 0x1 AND ISZERO PUSH2 0x100 MUL SUB AND PUSH1 0x2 SWAP1 DIV SWAP1 PUSH1 0x0 MSTORE PUSH1 0x20 PUSH1 0x0 KECCAK256 SWAP1 PUSH1 0x1F ADD PUSH1 0x20 SWAP1 DIV DUP2 ADD SWAP3 DUP3 PUSH1 0x1F LT PUSH3 0x2CB JUMPI DUP1 MLOAD PUSH1 0xFF NOT AND DUP4 DUP1 ADD OR DUP6 SSTORE PUSH3 0x2FC JUMP JUMPDEST DUP3 DUP1 ADD PUSH1 0x1 ADD DUP6 SSTORE DUP3 ISZERO PUSH3 0x2FC JUMPI SWAP2 DUP3 ADD JUMPDEST DUP3 DUP2 GT ISZERO PUSH3 0x2FB JUMPI DUP3 MLOAD DUP3 SSTORE SWAP2 PUSH1 0x20 ADD SWAP2 SWAP1 PUSH1 0x1 ADD SWAP1 PUSH3 0x2DE JUMP JUMPDEST JUMPDEST POP SWAP1 POP PUSH3 0x30B SWAP2 SWAP1 PUSH3 0x30F JUMP JUMPDEST POP SWAP1 JUMP JUMPDEST JUMPDEST DUP1 DUP3 GT ISZERO PUSH3 0x32A JUMPI PUSH1 0x0 DUP2 PUSH1 0x0 SWAP1 SSTORE POP PUSH1 0x1 ADD PUSH3 0x310 JUMP JUMPDEST POP SWAP1 JUMP JUMPDEST PUSH2 0x35D1 DUP1 PUSH3 0x33E PUSH1 0x0 CODECOPY PUSH1 0x0 RETURN INVALID PUSH1 0x80 PUSH1 0x40 MSTORE CALLVALUE DUP1 ISZERO PUSH2 0x10 JUMPI PUSH1 0x0 DUP1 REVERT JUMPDEST POP PUSH1 0x4 CALLDATASIZE LT PUSH2 0x14D JUMPI PUSH1 0x0 CALLDATALOAD PUSH1 0xE0 SHR DUP1 PUSH4 0x715018A6 GT PUSH2 0xC3 JUMPI DUP1 PUSH4 0xCBA0E996 GT PUSH2 0x7C JUMPI DUP1 PUSH4 0xCBA0E996 EQ PUSH2 0x63B JUMPI DUP1 PUSH4 0xD543DBEB EQ PUSH2 0x695 JUMPI DUP1 PUSH4 0xDD62ED3E EQ PUSH2 0x6C3 JUMPI DUP1 PUSH4 0xF2CC0C18 EQ PUSH2 0x73B JUMPI DUP1 PUSH4 0xF2FDE38B EQ PUSH2 0x77F JUMPI DUP1 PUSH4 0xF84354F1 EQ PUSH2 0x7C3 JUMPI PUSH2 0x14D JUMP JUMPDEST DUP1 PUSH4 0x715018A6 EQ PUSH2 0x494 JUMPI DUP1 PUSH4 0x7D1DB4A5 EQ PUSH2 0x49E JUMPI DUP1 PUSH4 0x8DA5CB5B EQ PUSH2 0x4BC JUMPI DUP1 PUSH4 0x95D89B41 EQ PUSH2 0x4F0 JUMPI DUP1 PUSH4 0xA457C2D7 EQ PUSH2 0x573 JUMPI DUP1 PUSH4 0xA9059CBB EQ PUSH2 0x5D7 JUMPI PUSH2 0x14D JUMP JUMPDEST DUP1 PUSH4 0x23B872DD GT PUSH2 0x115 JUMPI DUP1 PUSH4 0x23B872DD EQ PUSH2 0x2A3 JUMPI DUP1 PUSH4 0x2D838119 EQ PUSH2 0x327 JUMPI DUP1 PUSH4 0x313CE567 EQ PUSH2 0x369 JUMPI DUP1 PUSH4 0x39509351 EQ PUSH2 0x38A JUMPI DUP1 PUSH4 0x4549B039 EQ PUSH2 0x3EE JUMPI DUP1 PUSH4 0x70A08231 EQ PUSH2 0x43C JUMPI PUSH2 0x14D JUMP JUMPDEST DUP1 PUSH4 0x53AB182 EQ PUSH2 0x152 JUMPI DUP1 PUSH4 0x6FDDE03 EQ PUSH2 0x180 JUMPI DUP1 PUSH4 0x95EA7B3 EQ PUSH2 0x203 JUMPI DUP1 PUSH4 0x13114A9D EQ PUSH2 0x267 JUMPI DUP1 PUSH4 0x18160DDD EQ PUSH2 0x285 JUMPI JUMPDEST PUSH1 0x0 DUP1 REVERT JUMPDEST PUSH2 0x17E PUSH1 0x4 DUP1 CALLDATASIZE SUB PUSH1 0x20 DUP2 LT ISZERO PUSH2 0x168 JUMPI PUSH1 0x0 DUP1 REVERT JUMPDEST DUP2 ADD SWAP1 DUP1 DUP1 CALLDATALOAD SWAP1 PUSH1 0x20 ADD SWAP1 SWAP3 SWAP2 SWAP1 POP POP POP PUSH2 0x807 JUMP JUMPDEST STOP JUMPDEST PUSH2 0x188 PUSH2 0x997 JUMP JUMPDEST PUSH1 0x40 MLOAD DUP1 DUP1 PUSH1 0x20 ADD DUP3 DUP2 SUB DUP3 MSTORE DUP4 DUP2 DUP2 MLOAD DUP2 MSTORE PUSH1 0x20 ADD SWAP2 POP DUP1 MLOAD SWAP1 PUSH1 0x20 ADD SWAP1 DUP1 DUP4 DUP4 PUSH1 0x0 JUMPDEST DUP4 DUP2 LT ISZERO PUSH2 0x1C8 JUMPI DUP1 DUP3 ADD MLOAD DUP2 DUP5 ADD MSTORE PUSH1 0x20 DUP2 ADD SWAP1 POP PUSH2 0x1AD JUMP JUMPDEST POP POP POP POP SWAP1 POP SWAP1 DUP2 ADD SWAP1 PUSH1 0x1F AND DUP1 ISZERO PUSH2 0x1F5 JUMPI DUP1 DUP3 SUB DUP1 MLOAD PUSH1 0x1 DUP4 PUSH1 0x20 SUB PUSH2 0x100 EXP SUB NOT AND DUP2 MSTORE PUSH1 0x20 ADD SWAP2 POP JUMPDEST POP SWAP3 POP POP POP PUSH1 0x40 MLOAD DUP1 SWAP2 SUB SWAP1 RETURN JUMPDEST PUSH2 0x24F PUSH1 0x4 DUP1 CALLDATASIZE SUB PUSH1 0x40 DUP2 LT ISZERO PUSH2 0x219 JUMPI PUSH1 0x0 DUP1 REVERT JUMPDEST DUP2 ADD SWAP1 DUP1 DUP1 CALLDATALOAD PUSH20 0xFFFFFFFFFFFFFFFFFFFFFFFFFFFFFFFFFFFFFFFF AND SWAP1 PUSH1 0x20 ADD SWAP1 SWAP3 SWAP2 SWAP1 DUP1 CALLDATALOAD SWAP1 PUSH1 0x20 ADD SWAP1 SWAP3 SWAP2 SWAP1 POP POP POP PUSH2 0xA39 JUMP JUMPDEST PUSH1 0x40 MLOAD DUP1 DUP3 ISZERO ISZERO DUP2 MSTORE PUSH1 0x20 ADD SWAP2 POP POP PUSH1 0x40 MLOAD DUP1 SWAP2 SUB SWAP1 RETURN JUMPDEST PUSH2 0x26F PUSH2 0xA57 JUMP JUMPDEST PUSH1 0x40 MLOAD DUP1 DUP3 DUP2 MSTORE PUSH1 0x20 ADD SWAP2 POP POP PUSH1 0x40 MLOAD DUP1 SWAP2 SUB SWAP1 RETURN JUMPDEST PUSH2 0x28D PUSH2 0xA61 JUMP JUMPDEST PUSH1 0x40 MLOAD DUP1 DUP3 DUP2 MSTORE PUSH1 0x20 ADD SWAP2 POP POP PUSH1 0x40 MLOAD DUP1 SWAP2 SUB SWAP1 RETURN JUMPDEST PUSH2 0x30F PUSH1 0x4 DUP1 CALLDATASIZE SUB PUSH1 0x60 DUP2 LT ISZERO PUSH2 0x2B9 JUMPI PUSH1 0x0 DUP1 REVERT JUMPDEST DUP2 ADD SWAP1 DUP1 DUP1 CALLDATALOAD PUSH20 0xFFFFFFFFFFFFFFFFFFFFFFFFFFFFFFFFFFFFFFFF AND SWAP1 PUSH1 0x20 ADD SWAP1 SWAP3 SWAP2 SWAP1 DUP1 CALLDATALOAD PUSH20 0xFFFFFFFFFFFFFFFFFFFFFFFFFFFFFFFFFFFFFFFF AND SWAP1 PUSH1 0x20 ADD SWAP1 SWAP3 SWAP2 SWAP1 DUP1 CALLDATALOAD SWAP1 PUSH1 0x20 ADD SWAP1 SWAP3 SWAP2 SWAP1 POP POP POP PUSH2 0xA73 JUMP JUMPDEST PUSH1 0x40 MLOAD DUP1 DUP3 ISZERO ISZERO DUP2 MSTORE PUSH1 0x20 ADD SWAP2 POP POP PUSH1 0x40 MLOAD DUP1 SWAP2 SUB SWAP1 RETURN JUMPDEST PUSH2 0x353 PUSH1 0x4 DUP1 CALLDATASIZE SUB PUSH1 0x20 DUP2 LT ISZERO PUSH2 0x33D JUMPI PUSH1 0x0 DUP1 REVERT JUMPDEST DUP2 ADD SWAP1 DUP1 DUP1 CALLDATALOAD SWAP1 PUSH1 0x20 ADD SWAP1 SWAP3 SWAP2 SWAP1 POP POP POP PUSH2 0xB4C JUMP JUMPDEST PUSH1 0x40 MLOAD DUP1 DUP3 DUP2 MSTORE PUSH1 0x20 ADD SWAP2 POP POP PUSH1 0x40 MLOAD DUP1 SWAP2 SUB SWAP1 RETURN JUMPDEST PUSH2 0x371 PUSH2 0xBD0 JUMP JUMPDEST PUSH1 0x40 MLOAD DUP1 DUP3 PUSH1 0xFF AND DUP2 MSTORE PUSH1 0x20 ADD SWAP2 POP POP PUSH1 0x40 MLOAD DUP1 SWAP2 SUB SWAP1 RETURN JUMPDEST PUSH2 0x3D6 PUSH1 0x4 DUP1 CALLDATASIZE SUB PUSH1 0x40 DUP2 LT ISZERO PUSH2 0x3A0 JUMPI PUSH1 0x0 DUP1 REVERT JUMPDEST DUP2 ADD SWAP1 DUP1 DUP1 CALLDATALOAD PUSH20 0xFFFFFFFFFFFFFFFFFFFFFFFFFFFFFFFFFFFFFFFF AND SWAP1 PUSH1 0x20 ADD SWAP1 SWAP3 SWAP2 SWAP1 DUP1 CALLDATALOAD SWAP1 PUSH1 0x20 ADD SWAP1 SWAP3 SWAP2 SWAP1 POP POP POP PUSH2 0xBE7 JUMP JUMPDEST PUSH1 0x40 MLOAD DUP1 DUP3 ISZERO ISZERO DUP2 MSTORE PUSH1 0x20 ADD SWAP2 POP POP PUSH1 0x40 MLOAD DUP1 SWAP2 SUB SWAP1 RETURN JUMPDEST PUSH2 0x426 PUSH1 0x4 DUP1 CALLDATASIZE SUB PUSH1 0x40 DUP2 LT ISZERO PUSH2 0x404 JUMPI PUSH1 0x0 DUP1 REVERT JUMPDEST DUP2 ADD SWAP1 DUP1 DUP1 CALLDATALOAD SWAP1 PUSH1 0x20 ADD SWAP1 SWAP3 SWAP2 SWAP1 DUP1 CALLDATALOAD ISZERO ISZERO SWAP1 PUSH1 0x20 ADD SWAP1 SWAP3 SWAP2 SWAP1 POP POP POP PUSH2 0xC9A JUMP JUMPDEST PUSH1 0x40 MLOAD DUP1 DUP3 DUP2 MSTORE PUSH1 0x20 ADD SWAP2 POP POP PUSH1 0x40 MLOAD DUP1 SWAP2 SUB SWAP1 RETURN JUMPDEST PUSH2 0x47E PUSH1 0x4 DUP1 CALLDATASIZE SUB PUSH1 0x20 DUP2 LT ISZERO PUSH2 0x452 JUMPI PUSH1 0x0 DUP1 REVERT JUMPDEST DUP2 ADD SWAP1 DUP1 DUP1 CALLDATALOAD PUSH20 0xFFFFFFFFFFFFFFFFFFFFFFFFFFFFFFFFFFFFFFFF AND SWAP1 PUSH1 0x20 ADD SWAP1 SWAP3 SWAP2 SWAP1 POP POP POP PUSH2 0xD57 JUMP JUMPDEST PUSH1 0x40 MLOAD DUP1 DUP3 DUP2 MSTORE PUSH1 0x20 ADD SWAP2 POP POP PUSH1 0x40 MLOAD DUP1 SWAP2 SUB SWAP1 RETURN JUMPDEST PUSH2 0x49C PUSH2 0xE42 JUMP JUMPDEST STOP JUMPDEST PUSH2 0x4A6 PUSH2 0xFC8 JUMP JUMPDEST PUSH1 0x40 MLOAD DUP1 DUP3 DUP2 MSTORE PUSH1 0x20 ADD SWAP2 POP POP PUSH1 0x40 MLOAD DUP1 SWAP2 SUB SWAP1 RETURN JUMPDEST PUSH2 0x4C4 PUSH2 0xFCE JUMP JUMPDEST PUSH1 0x40 MLOAD DUP1 DUP3 PUSH20 0xFFFFFFFFFFFFFFFFFFFFFFFFFFFFFFFFFFFFFFFF AND DUP2 MSTORE PUSH1 0x20 ADD SWAP2 POP POP PUSH1 0x40 MLOAD DUP1 SWAP2 SUB SWAP1 RETURN JUMPDEST PUSH2 0x4F8 PUSH2 0xFF7 JUMP JUMPDEST PUSH1 0x40 MLOAD DUP1 DUP1 PUSH1 0x20 ADD DUP3 DUP2 SUB DUP3 MSTORE DUP4 DUP2 DUP2 MLOAD DUP2 MSTORE PUSH1 0x20 ADD SWAP2 POP DUP1 MLOAD SWAP1 PUSH1 0x20 ADD SWAP1 DUP1 DUP4 DUP4 PUSH1 0x0 JUMPDEST DUP4 DUP2 LT ISZERO PUSH2 0x538 JUMPI DUP1 DUP3 ADD MLOAD DUP2 DUP5 ADD MSTORE PUSH1 0x20 DUP2 ADD SWAP1 POP PUSH2 0x51D JUMP JUMPDEST POP POP POP POP SWAP1 POP SWAP1 DUP2 ADD SWAP1 PUSH1 0x1F AND DUP1 ISZERO PUSH2 0x565 JUMPI DUP1 DUP3 SUB DUP1 MLOAD PUSH1 0x1 DUP4 PUSH1 0x20 SUB PUSH2 0x100 EXP SUB NOT AND DUP2 MSTORE PUSH1 0x20 ADD SWAP2 POP JUMPDEST POP SWAP3 POP POP POP PUSH1 0x40 MLOAD DUP1 SWAP2 SUB SWAP1 RETURN JUMPDEST PUSH2 0x5BF PUSH1 0x4 DUP1 CALLDATASIZE SUB PUSH1 0x40 DUP2 LT ISZERO PUSH2 0x589 JUMPI PUSH1 0x0 DUP1 REVERT JUMPDEST DUP2 ADD SWAP1 DUP1 DUP1 CALLDATALOAD PUSH20 0xFFFFFFFFFFFFFFFFFFFFFFFFFFFFFFFFFFFFFFFF AND SWAP1 PUSH1 0x20 ADD SWAP1 SWAP3 SWAP2 SWAP1 DUP1 CALLDATALOAD SWAP1 PUSH1 0x20 ADD SWAP1 SWAP3 SWAP2 SWAP1 POP POP POP PUSH2 0x1099 JUMP JUMPDEST PUSH1 0x40 MLOAD DUP1 DUP3 ISZERO ISZERO DUP2 MSTORE PUSH1 0x20 ADD SWAP2 POP POP PUSH1 0x40 MLOAD DUP1 SWAP2 SUB SWAP1 RETURN JUMPDEST PUSH2 0x623 PUSH1 0x4 DUP1 CALLDATASIZE SUB PUSH1 0x40 DUP2 LT ISZERO PUSH2 0x5ED JUMPI PUSH1 0x0 DUP1 REVERT JUMPDEST DUP2 ADD SWAP1 DUP1 DUP1 CALLDATALOAD PUSH20 0xFFFFFFFFFFFFFFFFFFFFFFFFFFFFFFFFFFFFFFFF AND SWAP1 PUSH1 0x20 ADD SWAP1 SWAP3 SWAP2 SWAP1 DUP1 CALLDATALOAD SWAP1 PUSH1 0x20 ADD SWAP1 SWAP3 SWAP2 SWAP1 POP POP POP PUSH2 0x1166 JUMP JUMPDEST PUSH1 0x40 MLOAD DUP1 DUP3 ISZERO ISZERO DUP2 MSTORE PUSH1 0x20 ADD SWAP2 POP POP PUSH1 0x40 MLOAD DUP1 SWAP2 SUB SWAP1 RETURN JUMPDEST PUSH2 0x67D PUSH1 0x4 DUP1 CALLDATASIZE SUB PUSH1 0x20 DUP2 LT ISZERO PUSH2 0x651 JUMPI PUSH1 0x0 DUP1 REVERT JUMPDEST DUP2 ADD SWAP1 DUP1 DUP1 CALLDATALOAD PUSH20 0xFFFFFFFFFFFFFFFFFFFFFFFFFFFFFFFFFFFFFFFF AND SWAP1 PUSH1 0x20 ADD SWAP1 SWAP3 SWAP2 SWAP1 POP POP POP PUSH2 0x1184 JUMP JUMPDEST PUSH1 0x40 MLOAD DUP1 DUP3 ISZERO ISZERO DUP2 MSTORE PUSH1 0x20 ADD SWAP2 POP POP PUSH1 0x40 MLOAD DUP1 SWAP2 SUB SWAP1 RETURN JUMPDEST PUSH2 0x6C1 PUSH1 0x4 DUP1 CALLDATASIZE SUB PUSH1 0x20 DUP2 LT ISZERO PUSH2 0x6AB JUMPI PUSH1 0x0 DUP1 REVERT JUMPDEST DUP2 ADD SWAP1 DUP1 DUP1 CALLDATALOAD SWAP1 PUSH1 0x20 ADD SWAP1 SWAP3 SWAP2 SWAP1 POP POP POP PUSH2 0x11DA JUMP JUMPDEST STOP JUMPDEST PUSH2 0x725 PUSH1 0x4 DUP1 CALLDATASIZE SUB PUSH1 0x40 DUP2 LT ISZERO PUSH2 0x6D9 JUMPI PUSH1 0x0 DUP1 REVERT JUMPDEST DUP2 ADD SWAP1 DUP1 DUP1 CALLDATALOAD PUSH20 0xFFFFFFFFFFFFFFFFFFFFFFFFFFFFFFFFFFFFFFFF AND SWAP1 PUSH1 0x20 ADD SWAP1 SWAP3 SWAP2 SWAP1 DUP1 CALLDATALOAD PUSH20 0xFFFFFFFFFFFFFFFFFFFFFFFFFFFFFFFFFFFFFFFF AND SWAP1 PUSH1 0x20 ADD SWAP1 SWAP3 SWAP2 SWAP1 POP POP POP PUSH2 0x12DB JUMP JUMPDEST PUSH1 0x40 MLOAD DUP1 DUP3 DUP2 MSTORE PUSH1 0x20 ADD SWAP2 POP POP PUSH1 0x40 MLOAD DUP1 SWAP2 SUB SWAP1 RETURN JUMPDEST PUSH2 0x77D PUSH1 0x4 DUP1 CALLDATASIZE SUB PUSH1 0x20 DUP2 LT ISZERO PUSH2 0x751 JUMPI PUSH1 0x0 DUP1 REVERT JUMPDEST DUP2 ADD SWAP1 DUP1 DUP1 CALLDATALOAD PUSH20 0xFFFFFFFFFFFFFFFFFFFFFFFFFFFFFFFFFFFFFFFF AND SWAP1 PUSH1 0x20 ADD SWAP1 SWAP3 SWAP2 SWAP1 POP POP POP PUSH2 0x1362 JUMP JUMPDEST STOP JUMPDEST PUSH2 0x7C1 PUSH1 0x4 DUP1 CALLDATASIZE SUB PUSH1 0x20 DUP2 LT ISZERO PUSH2 0x795 JUMPI PUSH1 0x0 DUP1 REVERT JUMPDEST DUP2 ADD SWAP1 DUP1 DUP1 CALLDATALOAD PUSH20 0xFFFFFFFFFFFFFFFFFFFFFFFFFFFFFFFFFFFFFFFF AND SWAP1 PUSH1 0x20 ADD SWAP1 SWAP3 SWAP2 SWAP1 POP POP POP PUSH2 0x167C JUMP JUMPDEST STOP JUMPDEST PUSH2 0x805 PUSH1 0x4 DUP1 CALLDATASIZE SUB PUSH1 0x20 DUP2 LT ISZERO PUSH2 0x7D9 JUMPI PUSH1 0x0 DUP1 REVERT JUMPDEST DUP2 ADD SWAP1 DUP1 DUP1 CALLDATALOAD PUSH20 0xFFFFFFFFFFFFFFFFFFFFFFFFFFFFFFFFFFFFFFFF AND SWAP1 PUSH1 0x20 ADD SWAP1 SWAP3 SWAP2 SWAP1 POP POP POP PUSH2 0x1887 JUMP JUMPDEST STOP JUMPDEST PUSH1 0x0 PUSH2 0x811 PUSH2 0x1C11 JUMP JUMPDEST SWAP1 POP PUSH1 0x4 PUSH1 0x0 DUP3 PUSH20 0xFFFFFFFFFFFFFFFFFFFFFFFFFFFFFFFFFFFFFFFF AND PUSH20 0xFFFFFFFFFFFFFFFFFFFFFFFFFFFFFFFFFFFFFFFF AND DUP2 MSTORE PUSH1 0x20 ADD SWAP1 DUP2 MSTORE PUSH1 0x20 ADD PUSH1 0x0 KECCAK256 PUSH1 0x0 SWAP1 SLOAD SWAP1 PUSH2 0x100 EXP SWAP1 DIV PUSH1 0xFF AND ISZERO PUSH2 0x8B6 JUMPI PUSH1 0x40 MLOAD PUSH32 0x8C379A000000000000000000000000000000000000000000000000000000000 DUP2 MSTORE PUSH1 0x4 ADD DUP1 DUP1 PUSH1 0x20 ADD DUP3 DUP2 SUB DUP3 MSTORE PUSH1 0x2C DUP2 MSTORE PUSH1 0x20 ADD DUP1 PUSH2 0x354B PUSH1 0x2C SWAP2 CODECOPY PUSH1 0x40 ADD SWAP2 POP POP PUSH1 0x40 MLOAD DUP1 SWAP2 SUB SWAP1 REVERT JUMPDEST PUSH1 0x0 PUSH2 0x8C1 DUP4 PUSH2 0x1C19 JUMP JUMPDEST POP POP POP POP SWAP1 POP PUSH2 0x919 DUP2 PUSH1 0x1 PUSH1 0x0 DUP6 PUSH20 0xFFFFFFFFFFFFFFFFFFFFFFFFFFFFFFFFFFFFFFFF AND PUSH20 0xFFFFFFFFFFFFFFFFFFFFFFFFFFFFFFFFFFFFFFFF AND DUP2 MSTORE PUSH1 0x20 ADD SWAP1 DUP2 MSTORE PUSH1 0x20 ADD PUSH1 0x0 KECCAK256 SLOAD PUSH2 0x1C71 SWAP1 SWAP2 SWAP1 PUSH4 0xFFFFFFFF AND JUMP JUMPDEST PUSH1 0x1 PUSH1 0x0 DUP5 PUSH20 0xFFFFFFFFFFFFFFFFFFFFFFFFFFFFFFFFFFFFFFFF AND PUSH20 0xFFFFFFFFFFFFFFFFFFFFFFFFFFFFFFFFFFFFFFFF AND DUP2 MSTORE PUSH1 0x20 ADD SWAP1 DUP2 MSTORE PUSH1 0x20 ADD PUSH1 0x0 KECCAK256 DUP2 SWAP1 SSTORE POP PUSH2 0x971 DUP2 PUSH1 0x6 SLOAD PUSH2 0x1C71 SWAP1 SWAP2 SWAP1 PUSH4 0xFFFFFFFF AND JUMP JUMPDEST PUSH1 0x6 DUP2 SWAP1 SSTORE POP PUSH2 0x98C DUP4 PUSH1 0x7 SLOAD PUSH2 0x1CBB SWAP1 SWAP2 SWAP1 PUSH4 0xFFFFFFFF AND JUMP JUMPDEST PUSH1 0x7 DUP2 SWAP1 SSTORE POP POP POP POP JUMP JUMPDEST PUSH1 0x60 PUSH1 0x8 DUP1 SLOAD PUSH1 0x1 DUP2 PUSH1 0x1 AND ISZERO PUSH2 0x100 MUL SUB AND PUSH1 0x2 SWAP1 DIV DUP1 PUSH1 0x1F ADD PUSH1 0x20 DUP1 SWAP2 DIV MUL PUSH1 0x20 ADD PUSH1 0x40 MLOAD SWAP1 DUP2 ADD PUSH1 0x40 MSTORE DUP1 SWAP3 SWAP2 SWAP1 DUP2 DUP2 MSTORE PUSH1 0x20 ADD DUP3 DUP1 SLOAD PUSH1 0x1 DUP2 PUSH1 0x1 AND ISZERO PUSH2 0x100 MUL SUB AND PUSH1 0x2 SWAP1 DIV DUP1 ISZERO PUSH2 0xA2F JUMPI DUP1 PUSH1 0x1F LT PUSH2 0xA04 JUMPI PUSH2 0x100 DUP1 DUP4 SLOAD DIV MUL DUP4 MSTORE SWAP2 PUSH1 0x20 ADD SWAP2 PUSH2 0xA2F JUMP JUMPDEST DUP3 ADD SWAP2 SWAP1 PUSH1 0x0 MSTORE PUSH1 0x20 PUSH1 0x0 KECCAK256 SWAP1 JUMPDEST DUP2 SLOAD DUP2 MSTORE SWAP1 PUSH1 0x1 ADD SWAP1 PUSH1 0x20 ADD DUP1 DUP4 GT PUSH2 0xA12 JUMPI DUP3 SWAP1 SUB PUSH1 0x1F AND DUP3 ADD SWAP2 JUMPDEST POP POP POP POP POP SWAP1 POP SWAP1 JUMP JUMPDEST PUSH1 0x0 PUSH2 0xA4D PUSH2 0xA46 PUSH2 0x1C11 JUMP JUMPDEST DUP5 DUP5 PUSH2 0x1D43 JUMP JUMPDEST PUSH1 0x1 SWAP1 POP SWAP3 SWAP2 POP POP JUMP JUMPDEST PUSH1 0x0 PUSH1 0x7 SLOAD SWAP1 POP SWAP1 JUMP JUMPDEST PUSH1 0x0 PUSH10 0x17B7883C06916600000 SWAP1 POP SWAP1 JUMP JUMPDEST PUSH1 0x0 PUSH2 0xA80 DUP5 DUP5 DUP5 PUSH2 0x1F3A JUMP JUMPDEST PUSH2 0xB41 DUP5 PUSH2 0xA8C PUSH2 0x1C11 JUMP JUMPDEST PUSH2 0xB3C DUP6 PUSH1 0x40 MLOAD DUP1 PUSH1 0x60 ADD PUSH1 0x40 MSTORE DUP1 PUSH1 0x28 DUP2 MSTORE PUSH1 0x20 ADD PUSH2 0x34B1 PUSH1 0x28 SWAP2 CODECOPY PUSH1 0x3 PUSH1 0x0 DUP12 PUSH20 0xFFFFFFFFFFFFFFFFFFFFFFFFFFFFFFFFFFFFFFFF AND PUSH20 0xFFFFFFFFFFFFFFFFFFFFFFFFFFFFFFFFFFFFFFFF AND DUP2 MSTORE PUSH1 0x20 ADD SWAP1 DUP2 MSTORE PUSH1 0x20 ADD PUSH1 0x0 KECCAK256 PUSH1 0x0 PUSH2 0xAF2 PUSH2 0x1C11 JUMP JUMPDEST PUSH20 0xFFFFFFFFFFFFFFFFFFFFFFFFFFFFFFFFFFFFFFFF AND PUSH20 0xFFFFFFFFFFFFFFFFFFFFFFFFFFFFFFFFFFFFFFFF AND DUP2 MSTORE PUSH1 0x20 ADD SWAP1 DUP2 MSTORE PUSH1 0x20 ADD PUSH1 0x0 KECCAK256 SLOAD PUSH2 0x246A SWAP1 SWAP3 SWAP2 SWAP1 PUSH4 0xFFFFFFFF AND JUMP JUMPDEST PUSH2 0x1D43 JUMP JUMPDEST PUSH1 0x1 SWAP1 POP SWAP4 SWAP3 POP POP POP JUMP JUMPDEST PUSH1 0x0 PUSH1 0x6 SLOAD DUP3 GT ISZERO PUSH2 0xBA9 JUMPI PUSH1 0x40 MLOAD PUSH32 0x8C379A000000000000000000000000000000000000000000000000000000000 DUP2 MSTORE PUSH1 0x4 ADD DUP1 DUP1 PUSH1 0x20 ADD DUP3 DUP2 SUB DUP3 MSTORE PUSH1 0x2A DUP2 MSTORE PUSH1 0x20 ADD DUP1 PUSH2 0x33F6 PUSH1 0x2A SWAP2 CODECOPY PUSH1 0x40 ADD SWAP2 POP POP PUSH1 0x40 MLOAD DUP1 SWAP2 SUB SWAP1 REVERT JUMPDEST PUSH1 0x0 PUSH2 0xBB3 PUSH2 0x252A JUMP JUMPDEST SWAP1 POP PUSH2 0xBC8 DUP2 DUP5 PUSH2 0x2555 SWAP1 SWAP2 SWAP1 PUSH4 0xFFFFFFFF AND JUMP JUMPDEST SWAP2 POP POP SWAP2 SWAP1 POP JUMP JUMPDEST PUSH1 0x0 PUSH1 0xA PUSH1 0x0 SWAP1 SLOAD SWAP1 PUSH2 0x100 EXP SWAP1 DIV PUSH1 0xFF AND SWAP1 POP SWAP1 JUMP JUMPDEST PUSH1 0x0 PUSH2 0xC90 PUSH2 0xBF4 PUSH2 0x1C11 JUMP JUMPDEST DUP5 PUSH2 0xC8B DUP6 PUSH1 0x3 PUSH1 0x0 PUSH2 0xC05 PUSH2 0x1C11 JUMP JUMPDEST PUSH20 0xFFFFFFFFFFFFFFFFFFFFFFFFFFFFFFFFFFFFFFFF AND PUSH20 0xFFFFFFFFFFFFFFFFFFFFFFFFFFFFFFFFFFFFFFFF AND DUP2 MSTORE PUSH1 0x20 ADD SWAP1 DUP2 MSTORE PUSH1 0x20 ADD PUSH1 0x0 KECCAK256 PUSH1 0x0 DUP10 PUSH20 0xFFFFFFFFFFFFFFFFFFFFFFFFFFFFFFFFFFFFFFFF AND PUSH20 0xFFFFFFFFFFFFFFFFFFFFFFFFFFFFFFFFFFFFFFFF AND DUP2 MSTORE PUSH1 0x20 ADD SWAP1 DUP2 MSTORE PUSH1 0x20 ADD PUSH1 0x0 KECCAK256 SLOAD PUSH2 0x1CBB SWAP1 SWAP2 SWAP1 PUSH4 0xFFFFFFFF AND JUMP JUMPDEST PUSH2 0x1D43 JUMP JUMPDEST PUSH1 0x1 SWAP1 POP SWAP3 SWAP2 POP POP JUMP JUMPDEST PUSH1 0x0 PUSH10 0x17B7883C06916600000 DUP4 GT ISZERO PUSH2 0xD1C JUMPI PUSH1 0x40 MLOAD PUSH32 0x8C379A000000000000000000000000000000000000000000000000000000000 DUP2 MSTORE PUSH1 0x4 ADD DUP1 DUP1 PUSH1 0x20 ADD DUP3 DUP2 SUB DUP3 MSTORE PUSH1 0x1F DUP2 MSTORE PUSH1 0x20 ADD DUP1 PUSH32 0x416D6F756E74206D757374206265206C657373207468616E20737570706C7900 DUP2 MSTORE POP PUSH1 0x20 ADD SWAP2 POP POP PUSH1 0x40 MLOAD DUP1 SWAP2 SUB SWAP1 REVERT JUMPDEST DUP2 PUSH2 0xD3B JUMPI PUSH1 0x0 PUSH2 0xD2C DUP5 PUSH2 0x1C19 JUMP JUMPDEST POP POP POP POP SWAP1 POP DUP1 SWAP2 POP POP PUSH2 0xD51 JUMP JUMPDEST PUSH1 0x0 PUSH2 0xD46 DUP5 PUSH2 0x1C19 JUMP JUMPDEST POP POP POP SWAP2 POP POP DUP1 SWAP2 POP POP JUMPDEST SWAP3 SWAP2 POP POP JUMP JUMPDEST PUSH1 0x0 PUSH1 0x4 PUSH1 0x0 DUP4 PUSH20 0xFFFFFFFFFFFFFFFFFFFFFFFFFFFFFFFFFFFFFFFF AND PUSH20 0xFFFFFFFFFFFFFFFFFFFFFFFFFFFFFFFFFFFFFFFF AND DUP2 MSTORE PUSH1 0x20 ADD SWAP1 DUP2 MSTORE PUSH1 0x20 ADD PUSH1 0x0 KECCAK256 PUSH1 0x0 SWAP1 SLOAD SWAP1 PUSH2 0x100 EXP SWAP1 DIV PUSH1 0xFF AND ISZERO PUSH2 0xDF2 JUMPI PUSH1 0x2 PUSH1 0x0 DUP4 PUSH20 0xFFFFFFFFFFFFFFFFFFFFFFFFFFFFFFFFFFFFFFFF AND PUSH20 0xFFFFFFFFFFFFFFFFFFFFFFFFFFFFFFFFFFFFFFFF AND DUP2 MSTORE PUSH1 0x20 ADD SWAP1 DUP2 MSTORE PUSH1 0x20 ADD PUSH1 0x0 KECCAK256 SLOAD SWAP1 POP PUSH2 0xE3D JUMP JUMPDEST PUSH2 0xE3A PUSH1 0x1 PUSH1 0x0 DUP5 PUSH20 0xFFFFFFFFFFFFFFFFFFFFFFFFFFFFFFFFFFFFFFFF AND PUSH20 0xFFFFFFFFFFFFFFFFFFFFFFFFFFFFFFFFFFFFFFFF AND DUP2 MSTORE PUSH1 0x20 ADD SWAP1 DUP2 MSTORE PUSH1 0x20 ADD PUSH1 0x0 KECCAK256 SLOAD PUSH2 0xB4C JUMP JUMPDEST SWAP1 POP JUMPDEST SWAP2 SWAP1 POP JUMP JUMPDEST PUSH2 0xE4A PUSH2 0x1C11 JUMP JUMPDEST PUSH20 0xFFFFFFFFFFFFFFFFFFFFFFFFFFFFFFFFFFFFFFFF AND PUSH1 0x0 DUP1 SLOAD SWAP1 PUSH2 0x100 EXP SWAP1 DIV PUSH20 0xFFFFFFFFFFFFFFFFFFFFFFFFFFFFFFFFFFFFFFFF AND PUSH20 0xFFFFFFFFFFFFFFFFFFFFFFFFFFFFFFFFFFFFFFFF AND EQ PUSH2 0xF0A JUMPI PUSH1 0x40 MLOAD PUSH32 0x8C379A000000000000000000000000000000000000000000000000000000000 DUP2 MSTORE PUSH1 0x4 ADD DUP1 DUP1 PUSH1 0x20 ADD DUP3 DUP2 SUB DUP3 MSTORE PUSH1 0x20 DUP2 MSTORE PUSH1 0x20 ADD DUP1 PUSH32 0x4F776E61626C653A2063616C6C6572206973206E6F7420746865206F776E6572 DUP2 MSTORE POP PUSH1 0x20 ADD SWAP2 POP POP PUSH1 0x40 MLOAD DUP1 SWAP2 SUB SWAP1 REVERT JUMPDEST PUSH1 0x0 PUSH20 0xFFFFFFFFFFFFFFFFFFFFFFFFFFFFFFFFFFFFFFFF AND PUSH1 0x0 DUP1 SLOAD SWAP1 PUSH2 0x100 EXP SWAP1 DIV PUSH20 0xFFFFFFFFFFFFFFFFFFFFFFFFFFFFFFFFFFFFFFFF AND PUSH20 0xFFFFFFFFFFFFFFFFFFFFFFFFFFFFFFFFFFFFFFFF AND PUSH32 0x8BE0079C531659141344CD1FD0A4F28419497F9722A3DAAFE3B4186F6B6457E0 PUSH1 0x40 MLOAD PUSH1 0x40 MLOAD DUP1 SWAP2 SUB SWAP1 LOG3 PUSH1 0x0 DUP1 PUSH1 0x0 PUSH2 0x100 EXP DUP2 SLOAD DUP2 PUSH20 0xFFFFFFFFFFFFFFFFFFFFFFFFFFFFFFFFFFFFFFFF MUL NOT AND SWAP1 DUP4 PUSH20 0xFFFFFFFFFFFFFFFFFFFFFFFFFFFFFFFFFFFFFFFF AND MUL OR SWAP1 SSTORE POP JUMP JUMPDEST PUSH1 0xB SLOAD DUP2 JUMP JUMPDEST PUSH1 0x0 DUP1 PUSH1 0x0 SWAP1 SLOAD SWAP1 PUSH2 0x100 EXP SWAP1 DIV PUSH20 0xFFFFFFFFFFFFFFFFFFFFFFFFFFFFFFFFFFFFFFFF AND SWAP1 POP SWAP1 JUMP JUMPDEST PUSH1 0x60 PUSH1 0x9 DUP1 SLOAD PUSH1 0x1 DUP2 PUSH1 0x1 AND ISZERO PUSH2 0x100 MUL SUB AND PUSH1 0x2 SWAP1 DIV DUP1 PUSH1 0x1F ADD PUSH1 0x20 DUP1 SWAP2 DIV MUL PUSH1 0x20 ADD PUSH1 0x40 MLOAD SWAP1 DUP2 ADD PUSH1 0x40 MSTORE DUP1 SWAP3 SWAP2 SWAP1 DUP2 DUP2 MSTORE PUSH1 0x20 ADD DUP3 DUP1 SLOAD PUSH1 0x1 DUP2 PUSH1 0x1 AND ISZERO PUSH2 0x100 MUL SUB AND PUSH1 0x2 SWAP1 DIV DUP1 ISZERO PUSH2 0x108F JUMPI DUP1 PUSH1 0x1F LT PUSH2 0x1064 JUMPI PUSH2 0x100 DUP1 DUP4 SLOAD DIV MUL DUP4 MSTORE SWAP2 PUSH1 0x20 ADD SWAP2 PUSH2 0x108F JUMP JUMPDEST DUP3 ADD SWAP2 SWAP1 PUSH1 0x0 MSTORE PUSH1 0x20 PUSH1 0x0 KECCAK256 SWAP1 JUMPDEST DUP2 SLOAD DUP2 MSTORE SWAP1 PUSH1 0x1 ADD SWAP1 PUSH1 0x20 ADD DUP1 DUP4 GT PUSH2 0x1072 JUMPI DUP3 SWAP1 SUB PUSH1 0x1F AND DUP3 ADD SWAP2 JUMPDEST POP POP POP POP POP SWAP1 POP SWAP1 JUMP JUMPDEST PUSH1 0x0 PUSH2 0x115C PUSH2 0x10A6 PUSH2 0x1C11 JUMP JUMPDEST DUP5 PUSH2 0x1157 DUP6 PUSH1 0x40 MLOAD DUP1 PUSH1 0x60 ADD PUSH1 0x40 MSTORE DUP1 PUSH1 0x25 DUP2 MSTORE PUSH1 0x20 ADD PUSH2 0x3577 PUSH1 0x25 SWAP2 CODECOPY PUSH1 0x3 PUSH1 0x0 PUSH2 0x10D0 PUSH2 0x1C11 JUMP JUMPDEST PUSH20 0xFFFFFFFFFFFFFFFFFFFFFFFFFFFFFFFFFFFFFFFF AND PUSH20 0xFFFFFFFFFFFFFFFFFFFFFFFFFFFFFFFFFFFFFFFF AND DUP2 MSTORE PUSH1 0x20 ADD SWAP1 DUP2 MSTORE PUSH1 0x20 ADD PUSH1 0x0 KECCAK256 PUSH1 0x0 DUP11 PUSH20 0xFFFFFFFFFFFFFFFFFFFFFFFFFFFFFFFFFFFFFFFF AND PUSH20 0xFFFFFFFFFFFFFFFFFFFFFFFFFFFFFFFFFFFFFFFF AND DUP2 MSTORE PUSH1 0x20 ADD SWAP1 DUP2 MSTORE PUSH1 0x20 ADD PUSH1 0x0 KECCAK256 SLOAD PUSH2 0x246A SWAP1 SWAP3 SWAP2 SWAP1 PUSH4 0xFFFFFFFF AND JUMP JUMPDEST PUSH2 0x1D43 JUMP JUMPDEST PUSH1 0x1 SWAP1 POP SWAP3 SWAP2 POP POP JUMP JUMPDEST PUSH1 0x0 PUSH2 0x117A PUSH2 0x1173 PUSH2 0x1C11 JUMP JUMPDEST DUP5 DUP5 PUSH2 0x1F3A JUMP JUMPDEST PUSH1 0x1 SWAP1 POP SWAP3 SWAP2 POP POP JUMP JUMPDEST PUSH1 0x0 PUSH1 0x4 PUSH1 0x0 DUP4 PUSH20 0xFFFFFFFFFFFFFFFFFFFFFFFFFFFFFFFFFFFFFFFF AND PUSH20 0xFFFFFFFFFFFFFFFFFFFFFFFFFFFFFFFFFFFFFFFF AND DUP2 MSTORE PUSH1 0x20 ADD SWAP1 DUP2 MSTORE PUSH1 0x20 ADD PUSH1 0x0 KECCAK256 PUSH1 0x0 SWAP1 SLOAD SWAP1 PUSH2 0x100 EXP SWAP1 DIV PUSH1 0xFF AND SWAP1 POP SWAP2 SWAP1 POP JUMP JUMPDEST PUSH2 0x11E2 PUSH2 0x1C11 JUMP JUMPDEST PUSH20 0xFFFFFFFFFFFFFFFFFFFFFFFFFFFFFFFFFFFFFFFF AND PUSH1 0x0 DUP1 SLOAD SWAP1 PUSH2 0x100 EXP SWAP1 DIV PUSH20 0xFFFFFFFFFFFFFFFFFFFFFFFFFFFFFFFFFFFFFFFF AND PUSH20 0xFFFFFFFFFFFFFFFFFFFFFFFFFFFFFFFFFFFFFFFF AND EQ PUSH2 0x12A2 JUMPI PUSH1 0x40 MLOAD PUSH32 0x8C379A000000000000000000000000000000000000000000000000000000000 DUP2 MSTORE PUSH1 0x4 ADD DUP1 DUP1 PUSH1 0x20 ADD DUP3 DUP2 SUB DUP3 MSTORE PUSH1 0x20 DUP2 MSTORE PUSH1 0x20 ADD DUP1 PUSH32 0x4F776E61626C653A2063616C6C6572206973206E6F7420746865206F776E6572 DUP2 MSTORE POP PUSH1 0x20 ADD SWAP2 POP POP PUSH1 0x40 MLOAD DUP1 SWAP2 SUB SWAP1 REVERT JUMPDEST PUSH2 0x12D2 PUSH1 0x64 PUSH2 0x12C4 DUP4 PUSH10 0x17B7883C06916600000 PUSH2 0x259F SWAP1 SWAP2 SWAP1 PUSH4 0xFFFFFFFF AND JUMP JUMPDEST PUSH2 0x2555 SWAP1 SWAP2 SWAP1 PUSH4 0xFFFFFFFF AND JUMP JUMPDEST PUSH1 0xB DUP2 SWAP1 SSTORE POP POP JUMP JUMPDEST PUSH1 0x0 PUSH1 0x3 PUSH1 0x0 DUP5 PUSH20 0xFFFFFFFFFFFFFFFFFFFFFFFFFFFFFFFFFFFFFFFF AND PUSH20 0xFFFFFFFFFFFFFFFFFFFFFFFFFFFFFFFFFFFFFFFF AND DUP2 MSTORE PUSH1 0x20 ADD SWAP1 DUP2 MSTORE PUSH1 0x20 ADD PUSH1 0x0 KECCAK256 PUSH1 0x0 DUP4 PUSH20 0xFFFFFFFFFFFFFFFFFFFFFFFFFFFFFFFFFFFFFFFF AND PUSH20 0xFFFFFFFFFFFFFFFFFFFFFFFFFFFFFFFFFFFFFFFF AND DUP2 MSTORE PUSH1 0x20 ADD SWAP1 DUP2 MSTORE PUSH1 0x20 ADD PUSH1 0x0 KECCAK256 SLOAD SWAP1 POP SWAP3 SWAP2 POP POP JUMP JUMPDEST PUSH2 0x136A PUSH2 0x1C11 JUMP JUMPDEST PUSH20 0xFFFFFFFFFFFFFFFFFFFFFFFFFFFFFFFFFFFFFFFF AND PUSH1 0x0 DUP1 SLOAD SWAP1 PUSH2 0x100 EXP SWAP1 DIV PUSH20 0xFFFFFFFFFFFFFFFFFFFFFFFFFFFFFFFFFFFFFFFF AND PUSH20 0xFFFFFFFFFFFFFFFFFFFFFFFFFFFFFFFFFFFFFFFF AND EQ PUSH2 0x142A JUMPI PUSH1 0x40 MLOAD PUSH32 0x8C379A000000000000000000000000000000000000000000000000000000000 DUP2 MSTORE PUSH1 0x4 ADD DUP1 DUP1 PUSH1 0x20 ADD DUP3 DUP2 SUB DUP3 MSTORE PUSH1 0x20 DUP2 MSTORE PUSH1 0x20 ADD DUP1 PUSH32 0x4F776E61626C653A2063616C6C6572206973206E6F7420746865206F776E6572 DUP2 MSTORE POP PUSH1 0x20 ADD SWAP2 POP POP PUSH1 0x40 MLOAD DUP1 SWAP2 SUB SWAP1 REVERT JUMPDEST PUSH1 0x4 PUSH1 0x0 DUP3 PUSH20 0xFFFFFFFFFFFFFFFFFFFFFFFFFFFFFFFFFFFFFFFF AND PUSH20 0xFFFFFFFFFFFFFFFFFFFFFFFFFFFFFFFFFFFFFFFF AND DUP2 MSTORE PUSH1 0x20 ADD SWAP1 DUP2 MSTORE PUSH1 0x20 ADD PUSH1 0x0 KECCAK256 PUSH1 0x0 SWAP1 SLOAD SWAP1 PUSH2 0x100 EXP SWAP1 DIV PUSH1 0xFF AND ISZERO PUSH2 0x14EA JUMPI PUSH1 0x40 MLOAD PUSH32 0x8C379A000000000000000000000000000000000000000000000000000000000 DUP2 MSTORE PUSH1 0x4 ADD DUP1 DUP1 PUSH1 0x20 ADD DUP3 DUP2 SUB DUP3 MSTORE PUSH1 0x1B DUP2 MSTORE PUSH1 0x20 ADD DUP1 PUSH32 0x4163636F756E7420697320616C7265616479206578636C756465640000000000 DUP2 MSTORE POP PUSH1 0x20 ADD SWAP2 POP POP PUSH1 0x40 MLOAD DUP1 SWAP2 SUB SWAP1 REVERT JUMPDEST PUSH1 0x0 PUSH1 0x1 PUSH1 0x0 DUP4 PUSH20 0xFFFFFFFFFFFFFFFFFFFFFFFFFFFFFFFFFFFFFFFF AND PUSH20 0xFFFFFFFFFFFFFFFFFFFFFFFFFFFFFFFFFFFFFFFF AND DUP2 MSTORE PUSH1 0x20 ADD SWAP1 DUP2 MSTORE PUSH1 0x20 ADD PUSH1 0x0 KECCAK256 SLOAD GT ISZERO PUSH2 0x15BE JUMPI PUSH2 0x157A PUSH1 0x1 PUSH1 0x0 DUP4 PUSH20 0xFFFFFFFFFFFFFFFFFFFFFFFFFFFFFFFFFFFFFFFF AND PUSH20 0xFFFFFFFFFFFFFFFFFFFFFFFFFFFFFFFFFFFFFFFF AND DUP2 MSTORE PUSH1 0x20 ADD SWAP1 DUP2 MSTORE PUSH1 0x20 ADD PUSH1 0x0 KECCAK256 SLOAD PUSH2 0xB4C JUMP JUMPDEST PUSH1 0x2 PUSH1 0x0 DUP4 PUSH20 0xFFFFFFFFFFFFFFFFFFFFFFFFFFFFFFFFFFFFFFFF AND PUSH20 0xFFFFFFFFFFFFFFFFFFFFFFFFFFFFFFFFFFFFFFFF AND DUP2 MSTORE PUSH1 0x20 ADD SWAP1 DUP2 MSTORE PUSH1 0x20 ADD PUSH1 0x0 KECCAK256 DUP2 SWAP1 SSTORE POP JUMPDEST PUSH1 0x1 PUSH1 0x4 PUSH1 0x0 DUP4 PUSH20 0xFFFFFFFFFFFFFFFFFFFFFFFFFFFFFFFFFFFFFFFF AND PUSH20 0xFFFFFFFFFFFFFFFFFFFFFFFFFFFFFFFFFFFFFFFF AND DUP2 MSTORE PUSH1 0x20 ADD SWAP1 DUP2 MSTORE PUSH1 0x20 ADD PUSH1 0x0 KECCAK256 PUSH1 0x0 PUSH2 0x100 EXP DUP2 SLOAD DUP2 PUSH1 0xFF MUL NOT AND SWAP1 DUP4 ISZERO ISZERO MUL OR SWAP1 SSTORE POP PUSH1 0x5 DUP2 SWAP1 DUP1 PUSH1 0x1 DUP2 SLOAD ADD DUP1 DUP3 SSTORE DUP1 SWAP2 POP POP PUSH1 0x1 SWAP1 SUB SWAP1 PUSH1 0x0 MSTORE PUSH1 0x20 PUSH1 0x0 KECCAK256 ADD PUSH1 0x0 SWAP1 SWAP2 SWAP1 SWAP2 SWAP1 SWAP2 PUSH2 0x100 EXP DUP2 SLOAD DUP2 PUSH20 0xFFFFFFFFFFFFFFFFFFFFFFFFFFFFFFFFFFFFFFFF MUL NOT AND SWAP1 DUP4 PUSH20 0xFFFFFFFFFFFFFFFFFFFFFFFFFFFFFFFFFFFFFFFF AND MUL OR SWAP1 SSTORE POP POP JUMP JUMPDEST PUSH2 0x1684 PUSH2 0x1C11 JUMP JUMPDEST PUSH20 0xFFFFFFFFFFFFFFFFFFFFFFFFFFFFFFFFFFFFFFFF AND PUSH1 0x0 DUP1 SLOAD SWAP1 PUSH2 0x100 EXP SWAP1 DIV PUSH20 0xFFFFFFFFFFFFFFFFFFFFFFFFFFFFFFFFFFFFFFFF AND PUSH20 0xFFFFFFFFFFFFFFFFFFFFFFFFFFFFFFFFFFFFFFFF AND EQ PUSH2 0x1744 JUMPI PUSH1 0x40 MLOAD PUSH32 0x8C379A000000000000000000000000000000000000000000000000000000000 DUP2 MSTORE PUSH1 0x4 ADD DUP1 DUP1 PUSH1 0x20 ADD DUP3 DUP2 SUB DUP3 MSTORE PUSH1 0x20 DUP2 MSTORE PUSH1 0x20 ADD DUP1 PUSH32 0x4F776E61626C653A2063616C6C6572206973206E6F7420746865206F776E6572 DUP2 MSTORE POP PUSH1 0x20 ADD SWAP2 POP POP PUSH1 0x40 MLOAD DUP1 SWAP2 SUB SWAP1 REVERT JUMPDEST PUSH1 0x0 PUSH20 0xFFFFFFFFFFFFFFFFFFFFFFFFFFFFFFFFFFFFFFFF AND DUP2 PUSH20 0xFFFFFFFFFFFFFFFFFFFFFFFFFFFFFFFFFFFFFFFF AND EQ ISZERO PUSH2 0x17CA JUMPI PUSH1 0x40 MLOAD PUSH32 0x8C379A000000000000000000000000000000000000000000000000000000000 DUP2 MSTORE PUSH1 0x4 ADD DUP1 DUP1 PUSH1 0x20 ADD DUP3 DUP2 SUB DUP3 MSTORE PUSH1 0x26 DUP2 MSTORE PUSH1 0x20 ADD DUP1 PUSH2 0x3420 PUSH1 0x26 SWAP2 CODECOPY PUSH1 0x40 ADD SWAP2 POP POP PUSH1 0x40 MLOAD DUP1 SWAP2 SUB SWAP1 REVERT JUMPDEST DUP1 PUSH20 0xFFFFFFFFFFFFFFFFFFFFFFFFFFFFFFFFFFFFFFFF AND PUSH1 0x0 DUP1 SLOAD SWAP1 PUSH2 0x100 EXP SWAP1 DIV PUSH20 0xFFFFFFFFFFFFFFFFFFFFFFFFFFFFFFFFFFFFFFFF AND PUSH20 0xFFFFFFFFFFFFFFFFFFFFFFFFFFFFFFFFFFFFFFFF AND PUSH32 0x8BE0079C531659141344CD1FD0A4F28419497F9722A3DAAFE3B4186F6B6457E0 PUSH1 0x40 MLOAD PUSH1 0x40 MLOAD DUP1 SWAP2 SUB SWAP1 LOG3 DUP1 PUSH1 0x0 DUP1 PUSH2 0x100 EXP DUP2 SLOAD DUP2 PUSH20 0xFFFFFFFFFFFFFFFFFFFFFFFFFFFFFFFFFFFFFFFF MUL NOT AND SWAP1 DUP4 PUSH20 0xFFFFFFFFFFFFFFFFFFFFFFFFFFFFFFFFFFFFFFFF AND MUL OR SWAP1 SSTORE POP POP JUMP JUMPDEST PUSH2 0x188F PUSH2 0x1C11 JUMP JUMPDEST PUSH20 0xFFFFFFFFFFFFFFFFFFFFFFFFFFFFFFFFFFFFFFFF AND PUSH1 0x0 DUP1 SLOAD SWAP1 PUSH2 0x100 EXP SWAP1 DIV PUSH20 0xFFFFFFFFFFFFFFFFFFFFFFFFFFFFFFFFFFFFFFFF AND PUSH20 0xFFFFFFFFFFFFFFFFFFFFFFFFFFFFFFFFFFFFFFFF AND EQ PUSH2 0x194F JUMPI PUSH1 0x40 MLOAD PUSH32 0x8C379A000000000000000000000000000000000000000000000000000000000 DUP2 MSTORE PUSH1 0x4 ADD DUP1 DUP1 PUSH1 0x20 ADD DUP3 DUP2 SUB DUP3 MSTORE PUSH1 0x20 DUP2 MSTORE PUSH1 0x20 ADD DUP1 PUSH32 0x4F776E61626C653A2063616C6C6572206973206E6F7420746865206F776E6572 DUP2 MSTORE POP PUSH1 0x20 ADD SWAP2 POP POP PUSH1 0x40 MLOAD DUP1 SWAP2 SUB SWAP1 REVERT JUMPDEST PUSH1 0x4 PUSH1 0x0 DUP3 PUSH20 0xFFFFFFFFFFFFFFFFFFFFFFFFFFFFFFFFFFFFFFFF AND PUSH20 0xFFFFFFFFFFFFFFFFFFFFFFFFFFFFFFFFFFFFFFFF AND DUP2 MSTORE PUSH1 0x20 ADD SWAP1 DUP2 MSTORE PUSH1 0x20 ADD PUSH1 0x0 KECCAK256 PUSH1 0x0 SWAP1 SLOAD SWAP1 PUSH2 0x100 EXP SWAP1 DIV PUSH1 0xFF AND PUSH2 0x1A0E JUMPI PUSH1 0x40 MLOAD PUSH32 0x8C379A000000000000000000000000000000000000000000000000000000000 DUP2 MSTORE PUSH1 0x4 ADD DUP1 DUP1 PUSH1 0x20 ADD DUP3 DUP2 SUB DUP3 MSTORE PUSH1 0x1B DUP2 MSTORE PUSH1 0x20 ADD DUP1 PUSH32 0x4163636F756E7420697320616C7265616479206578636C756465640000000000 DUP2 MSTORE POP PUSH1 0x20 ADD SWAP2 POP POP PUSH1 0x40 MLOAD DUP1 SWAP2 SUB SWAP1 REVERT JUMPDEST PUSH1 0x0 JUMPDEST PUSH1 0x5 DUP1 SLOAD SWAP1 POP DUP2 LT ISZERO PUSH2 0x1C0D JUMPI DUP2 PUSH20 0xFFFFFFFFFFFFFFFFFFFFFFFFFFFFFFFFFFFFFFFF AND PUSH1 0x5 DUP3 DUP2 SLOAD DUP2 LT PUSH2 0x1A42 JUMPI INVALID JUMPDEST SWAP1 PUSH1 0x0 MSTORE PUSH1 0x20 PUSH1 0x0 KECCAK256 ADD PUSH1 0x0 SWAP1 SLOAD SWAP1 PUSH2 0x100 EXP SWAP1 DIV PUSH20 0xFFFFFFFFFFFFFFFFFFFFFFFFFFFFFFFFFFFFFFFF AND PUSH20 0xFFFFFFFFFFFFFFFFFFFFFFFFFFFFFFFFFFFFFFFF AND EQ ISZERO PUSH2 0x1C00 JUMPI PUSH1 0x5 PUSH1 0x1 PUSH1 0x5 DUP1 SLOAD SWAP1 POP SUB DUP2 SLOAD DUP2 LT PUSH2 0x1A9E JUMPI INVALID JUMPDEST SWAP1 PUSH1 0x0 MSTORE PUSH1 0x20 PUSH1 0x0 KECCAK256 ADD PUSH1 0x0 SWAP1 SLOAD SWAP1 PUSH2 0x100 EXP SWAP1 DIV PUSH20 0xFFFFFFFFFFFFFFFFFFFFFFFFFFFFFFFFFFFFFFFF AND PUSH1 0x5 DUP3 DUP2 SLOAD DUP2 LT PUSH2 0x1AD6 JUMPI INVALID JUMPDEST SWAP1 PUSH1 0x0 MSTORE PUSH1 0x20 PUSH1 0x0 KECCAK256 ADD PUSH1 0x0 PUSH2 0x100 EXP DUP2 SLOAD DUP2 PUSH20 0xFFFFFFFFFFFFFFFFFFFFFFFFFFFFFFFFFFFFFFFF MUL NOT AND SWAP1 DUP4 PUSH20 0xFFFFFFFFFFFFFFFFFFFFFFFFFFFFFFFFFFFFFFFF AND MUL OR SWAP1 SSTORE POP PUSH1 0x0 PUSH1 0x2 PUSH1 0x0 DUP5 PUSH20 0xFFFFFFFFFFFFFFFFFFFFFFFFFFFFFFFFFFFFFFFF AND PUSH20 0xFFFFFFFFFFFFFFFFFFFFFFFFFFFFFFFFFFFFFFFF AND DUP2 MSTORE PUSH1 0x20 ADD SWAP1 DUP2 MSTORE PUSH1 0x20 ADD PUSH1 0x0 KECCAK256 DUP2 SWAP1 SSTORE POP PUSH1 0x0 PUSH1 0x4 PUSH1 0x0 DUP5 PUSH20 0xFFFFFFFFFFFFFFFFFFFFFFFFFFFFFFFFFFFFFFFF AND PUSH20 0xFFFFFFFFFFFFFFFFFFFFFFFFFFFFFFFFFFFFFFFF AND DUP2 MSTORE PUSH1 0x20 ADD SWAP1 DUP2 MSTORE PUSH1 0x20 ADD PUSH1 0x0 KECCAK256 PUSH1 0x0 PUSH2 0x100 EXP DUP2 SLOAD DUP2 PUSH1 0xFF MUL NOT AND SWAP1 DUP4 ISZERO ISZERO MUL OR SWAP1 SSTORE POP PUSH1 0x5 DUP1 SLOAD DUP1 PUSH2 0x1BC6 JUMPI INVALID JUMPDEST PUSH1 0x1 SWAP1 SUB DUP2 DUP2 SWAP1 PUSH1 0x0 MSTORE PUSH1 0x20 PUSH1 0x0 KECCAK256 ADD PUSH1 0x0 PUSH2 0x100 EXP DUP2 SLOAD SWAP1 PUSH20 0xFFFFFFFFFFFFFFFFFFFFFFFFFFFFFFFFFFFFFFFF MUL NOT AND SWAP1 SSTORE SWAP1 SSTORE PUSH2 0x1C0D JUMP JUMPDEST DUP1 DUP1 PUSH1 0x1 ADD SWAP2 POP POP PUSH2 0x1A11 JUMP JUMPDEST POP POP JUMP JUMPDEST PUSH1 0x0 CALLER SWAP1 POP SWAP1 JUMP JUMPDEST PUSH1 0x0 DUP1 PUSH1 0x0 DUP1 PUSH1 0x0 DUP1 PUSH1 0x0 PUSH2 0x1C2D DUP9 PUSH2 0x2625 JUMP JUMPDEST SWAP2 POP SWAP2 POP PUSH1 0x0 PUSH2 0x1C3B PUSH2 0x252A JUMP JUMPDEST SWAP1 POP PUSH1 0x0 DUP1 PUSH1 0x0 PUSH2 0x1C4D DUP13 DUP7 DUP7 PUSH2 0x2677 JUMP JUMPDEST SWAP3 POP SWAP3 POP SWAP3 POP DUP3 DUP3 DUP3 DUP9 DUP9 SWAP11 POP SWAP11 POP SWAP11 POP SWAP11 POP SWAP11 POP POP POP POP POP POP POP SWAP2 SWAP4 SWAP6 SWAP1 SWAP3 SWAP5 POP JUMP JUMPDEST PUSH1 0x0 PUSH2 0x1CB3 DUP4 DUP4 PUSH1 0x40 MLOAD DUP1 PUSH1 0x40 ADD PUSH1 0x40 MSTORE DUP1 PUSH1 0x1E DUP2 MSTORE PUSH1 0x20 ADD PUSH32 0x536166654D6174683A207375627472616374696F6E206F766572666C6F770000 DUP2 MSTORE POP PUSH2 0x246A JUMP JUMPDEST SWAP1 POP SWAP3 SWAP2 POP POP JUMP JUMPDEST PUSH1 0x0 DUP1 DUP3 DUP5 ADD SWAP1 POP DUP4 DUP2 LT ISZERO PUSH2 0x1D39 JUMPI PUSH1 0x40 MLOAD PUSH32 0x8C379A000000000000000000000000000000000000000000000000000000000 DUP2 MSTORE PUSH1 0x4 ADD DUP1 DUP1 PUSH1 0x20 ADD DUP3 DUP2 SUB DUP3 MSTORE PUSH1 0x1B DUP2 MSTORE PUSH1 0x20 ADD DUP1 PUSH32 0x536166654D6174683A206164646974696F6E206F766572666C6F770000000000 DUP2 MSTORE POP PUSH1 0x20 ADD SWAP2 POP POP PUSH1 0x40 MLOAD DUP1 SWAP2 SUB SWAP1 REVERT JUMPDEST DUP1 SWAP2 POP POP SWAP3 SWAP2 POP POP JUMP JUMPDEST PUSH1 0x0 PUSH20 0xFFFFFFFFFFFFFFFFFFFFFFFFFFFFFFFFFFFFFFFF AND DUP4 PUSH20 0xFFFFFFFFFFFFFFFFFFFFFFFFFFFFFFFFFFFFFFFF AND EQ ISZERO PUSH2 0x1DC9 JUMPI PUSH1 0x40 MLOAD PUSH32 0x8C379A000000000000000000000000000000000000000000000000000000000 DUP2 MSTORE PUSH1 0x4 ADD DUP1 DUP1 PUSH1 0x20 ADD DUP3 DUP2 SUB DUP3 MSTORE PUSH1 0x24 DUP2 MSTORE PUSH1 0x20 ADD DUP1 PUSH2 0x3527 PUSH1 0x24 SWAP2 CODECOPY PUSH1 0x40 ADD SWAP2 POP POP PUSH1 0x40 MLOAD DUP1 SWAP2 SUB SWAP1 REVERT JUMPDEST PUSH1 0x0 PUSH20 0xFFFFFFFFFFFFFFFFFFFFFFFFFFFFFFFFFFFFFFFF AND DUP3 PUSH20 0xFFFFFFFFFFFFFFFFFFFFFFFFFFFFFFFFFFFFFFFF AND EQ ISZERO PUSH2 0x1E4F JUMPI PUSH1 0x40 MLOAD PUSH32 0x8C379A000000000000000000000000000000000000000000000000000000000 DUP2 MSTORE PUSH1 0x4 ADD DUP1 DUP1 PUSH1 0x20 ADD DUP3 DUP2 SUB DUP3 MSTORE PUSH1 0x22 DUP2 MSTORE PUSH1 0x20 ADD DUP1 PUSH2 0x3446 PUSH1 0x22 SWAP2 CODECOPY PUSH1 0x40 ADD SWAP2 POP POP PUSH1 0x40 MLOAD DUP1 SWAP2 SUB SWAP1 REVERT JUMPDEST DUP1 PUSH1 0x3 PUSH1 0x0 DUP6 PUSH20 0xFFFFFFFFFFFFFFFFFFFFFFFFFFFFFFFFFFFFFFFF AND PUSH20 0xFFFFFFFFFFFFFFFFFFFFFFFFFFFFFFFFFFFFFFFF AND DUP2 MSTORE PUSH1 0x20 ADD SWAP1 DUP2 MSTORE PUSH1 0x20 ADD PUSH1 0x0 KECCAK256 PUSH1 0x0 DUP5 PUSH20 0xFFFFFFFFFFFFFFFFFFFFFFFFFFFFFFFFFFFFFFFF AND PUSH20 0xFFFFFFFFFFFFFFFFFFFFFFFFFFFFFFFFFFFFFFFF AND DUP2 MSTORE PUSH1 0x20 ADD SWAP1 DUP2 MSTORE PUSH1 0x20 ADD PUSH1 0x0 KECCAK256 DUP2 SWAP1 SSTORE POP DUP2 PUSH20 0xFFFFFFFFFFFFFFFFFFFFFFFFFFFFFFFFFFFFFFFF AND DUP4 PUSH20 0xFFFFFFFFFFFFFFFFFFFFFFFFFFFFFFFFFFFFFFFF AND PUSH32 0x8C5BE1E5EBEC7D5BD14F71427D1E84F3DD0314C0F7B2291E5B200AC8C7C3B925 DUP4 PUSH1 0x40 MLOAD DUP1 DUP3 DUP2 MSTORE PUSH1 0x20 ADD SWAP2 POP POP PUSH1 0x40 MLOAD DUP1 SWAP2 SUB SWAP1 LOG3 POP POP POP JUMP JUMPDEST PUSH1 0x0 PUSH20 0xFFFFFFFFFFFFFFFFFFFFFFFFFFFFFFFFFFFFFFFF AND DUP4 PUSH20 0xFFFFFFFFFFFFFFFFFFFFFFFFFFFFFFFFFFFFFFFF AND EQ ISZERO PUSH2 0x1FC0 JUMPI PUSH1 0x40 MLOAD PUSH32 0x8C379A000000000000000000000000000000000000000000000000000000000 DUP2 MSTORE PUSH1 0x4 ADD DUP1 DUP1 PUSH1 0x20 ADD DUP3 DUP2 SUB DUP3 MSTORE PUSH1 0x25 DUP2 MSTORE PUSH1 0x20 ADD DUP1 PUSH2 0x3502 PUSH1 0x25 SWAP2 CODECOPY PUSH1 0x40 ADD SWAP2 POP POP PUSH1 0x40 MLOAD DUP1 SWAP2 SUB SWAP1 REVERT JUMPDEST PUSH1 0x0 PUSH20 0xFFFFFFFFFFFFFFFFFFFFFFFFFFFFFFFFFFFFFFFF AND DUP3 PUSH20 0xFFFFFFFFFFFFFFFFFFFFFFFFFFFFFFFFFFFFFFFF AND EQ ISZERO PUSH2 0x2046 JUMPI PUSH1 0x40 MLOAD PUSH32 0x8C379A000000000000000000000000000000000000000000000000000000000 DUP2 MSTORE PUSH1 0x4 ADD DUP1 DUP1 PUSH1 0x20 ADD DUP3 DUP2 SUB DUP3 MSTORE PUSH1 0x23 DUP2 MSTORE PUSH1 0x20 ADD DUP1 PUSH2 0x33D3 PUSH1 0x23 SWAP2 CODECOPY PUSH1 0x40 ADD SWAP2 POP POP PUSH1 0x40 MLOAD DUP1 SWAP2 SUB SWAP1 REVERT JUMPDEST PUSH1 0x0 DUP2 GT PUSH2 0x209F JUMPI PUSH1 0x40 MLOAD PUSH32 0x8C379A000000000000000000000000000000000000000000000000000000000 DUP2 MSTORE PUSH1 0x4 ADD DUP1 DUP1 PUSH1 0x20 ADD DUP3 DUP2 SUB DUP3 MSTORE PUSH1 0x29 DUP2 MSTORE PUSH1 0x20 ADD DUP1 PUSH2 0x34D9 PUSH1 0x29 SWAP2 CODECOPY PUSH1 0x40 ADD SWAP2 POP POP PUSH1 0x40 MLOAD DUP1 SWAP2 SUB SWAP1 REVERT JUMPDEST PUSH2 0x20A7 PUSH2 0xFCE JUMP JUMPDEST PUSH20 0xFFFFFFFFFFFFFFFFFFFFFFFFFFFFFFFFFFFFFFFF AND DUP4 PUSH20 0xFFFFFFFFFFFFFFFFFFFFFFFFFFFFFFFFFFFFFFFF AND EQ ISZERO DUP1 ISZERO PUSH2 0x2115 JUMPI POP PUSH2 0x20E5 PUSH2 0xFCE JUMP JUMPDEST PUSH20 0xFFFFFFFFFFFFFFFFFFFFFFFFFFFFFFFFFFFFFFFF AND DUP3 PUSH20 0xFFFFFFFFFFFFFFFFFFFFFFFFFFFFFFFFFFFFFFFF AND EQ ISZERO JUMPDEST ISZERO PUSH2 0x2176 JUMPI PUSH1 0xB SLOAD DUP2 GT ISZERO PUSH2 0x2175 JUMPI PUSH1 0x40 MLOAD PUSH32 0x8C379A000000000000000000000000000000000000000000000000000000000 DUP2 MSTORE PUSH1 0x4 ADD DUP1 DUP1 PUSH1 0x20 ADD DUP3 DUP2 SUB DUP3 MSTORE PUSH1 0x28 DUP2 MSTORE PUSH1 0x20 ADD DUP1 PUSH2 0x3468 PUSH1 0x28 SWAP2 CODECOPY PUSH1 0x40 ADD SWAP2 POP POP PUSH1 0x40 MLOAD DUP1 SWAP2 SUB SWAP1 REVERT JUMPDEST JUMPDEST PUSH1 0x4 PUSH1 0x0 DUP5 PUSH20 0xFFFFFFFFFFFFFFFFFFFFFFFFFFFFFFFFFFFFFFFF AND PUSH20 0xFFFFFFFFFFFFFFFFFFFFFFFFFFFFFFFFFFFFFFFF AND DUP2 MSTORE PUSH1 0x20 ADD SWAP1 DUP2 MSTORE PUSH1 0x20 ADD PUSH1 0x0 KECCAK256 PUSH1 0x0 SWAP1 SLOAD SWAP1 PUSH2 0x100 EXP SWAP1 DIV PUSH1 0xFF AND DUP1 ISZERO PUSH2 0x2219 JUMPI POP PUSH1 0x4 PUSH1 0x0 DUP4 PUSH20 0xFFFFFFFFFFFFFFFFFFFFFFFFFFFFFFFFFFFFFFFF AND PUSH20 0xFFFFFFFFFFFFFFFFFFFFFFFFFFFFFFFFFFFFFFFF AND DUP2 MSTORE PUSH1 0x20 ADD SWAP1 DUP2 MSTORE PUSH1 0x20 ADD PUSH1 0x0 KECCAK256 PUSH1 0x0 SWAP1 SLOAD SWAP1 PUSH2 0x100 EXP SWAP1 DIV PUSH1 0xFF AND ISZERO JUMPDEST ISZERO PUSH2 0x222E JUMPI PUSH2 0x2229 DUP4 DUP4 DUP4 PUSH2 0x26D5 JUMP JUMPDEST PUSH2 0x2465 JUMP JUMPDEST PUSH1 0x4 PUSH1 0x0 DUP5 PUSH20 0xFFFFFFFFFFFFFFFFFFFFFFFFFFFFFFFFFFFFFFFF AND PUSH20 0xFFFFFFFFFFFFFFFFFFFFFFFFFFFFFFFFFFFFFFFF AND DUP2 MSTORE PUSH1 0x20 ADD SWAP1 DUP2 MSTORE PUSH1 0x20 ADD PUSH1 0x0 KECCAK256 PUSH1 0x0 SWAP1 SLOAD SWAP1 PUSH2 0x100 EXP SWAP1 DIV PUSH1 0xFF AND ISZERO DUP1 ISZERO PUSH2 0x22D1 JUMPI POP PUSH1 0x4 PUSH1 0x0 DUP4 PUSH20 0xFFFFFFFFFFFFFFFFFFFFFFFFFFFFFFFFFFFFFFFF AND PUSH20 0xFFFFFFFFFFFFFFFFFFFFFFFFFFFFFFFFFFFFFFFF AND DUP2 MSTORE PUSH1 0x20 ADD SWAP1 DUP2 MSTORE PUSH1 0x20 ADD PUSH1 0x0 KECCAK256 PUSH1 0x0 SWAP1 SLOAD SWAP1 PUSH2 0x100 EXP SWAP1 DIV PUSH1 0xFF AND JUMPDEST ISZERO PUSH2 0x22E6 JUMPI PUSH2 0x22E1 DUP4 DUP4 DUP4 PUSH2 0x2928 JUMP JUMPDEST PUSH2 0x2464 JUMP JUMPDEST PUSH1 0x4 PUSH1 0x0 DUP5 PUSH20 0xFFFFFFFFFFFFFFFFFFFFFFFFFFFFFFFFFFFFFFFF AND PUSH20 0xFFFFFFFFFFFFFFFFFFFFFFFFFFFFFFFFFFFFFFFF AND DUP2 MSTORE PUSH1 0x20 ADD SWAP1 DUP2 MSTORE PUSH1 0x20 ADD PUSH1 0x0 KECCAK256 PUSH1 0x0 SWAP1 SLOAD SWAP1 PUSH2 0x100 EXP SWAP1 DIV PUSH1 0xFF AND ISZERO DUP1 ISZERO PUSH2 0x238A JUMPI POP PUSH1 0x4 PUSH1 0x0 DUP4 PUSH20 0xFFFFFFFFFFFFFFFFFFFFFFFFFFFFFFFFFFFFFFFF AND PUSH20 0xFFFFFFFFFFFFFFFFFFFFFFFFFFFFFFFFFFFFFFFF AND DUP2 MSTORE PUSH1 0x20 ADD SWAP1 DUP2 MSTORE PUSH1 0x20 ADD PUSH1 0x0 KECCAK256 PUSH1 0x0 SWAP1 SLOAD SWAP1 PUSH2 0x100 EXP SWAP1 DIV PUSH1 0xFF AND ISZERO JUMPDEST ISZERO PUSH2 0x239F JUMPI PUSH2 0x239A DUP4 DUP4 DUP4 PUSH2 0x2B7B JUMP JUMPDEST PUSH2 0x2463 JUMP JUMPDEST PUSH1 0x4 PUSH1 0x0 DUP5 PUSH20 0xFFFFFFFFFFFFFFFFFFFFFFFFFFFFFFFFFFFFFFFF AND PUSH20 0xFFFFFFFFFFFFFFFFFFFFFFFFFFFFFFFFFFFFFFFF AND DUP2 MSTORE PUSH1 0x20 ADD SWAP1 DUP2 MSTORE PUSH1 0x20 ADD PUSH1 0x0 KECCAK256 PUSH1 0x0 SWAP1 SLOAD SWAP1 PUSH2 0x100 EXP SWAP1 DIV PUSH1 0xFF AND DUP1 ISZERO PUSH2 0x2441 JUMPI POP PUSH1 0x4 PUSH1 0x0 DUP4 PUSH20 0xFFFFFFFFFFFFFFFFFFFFFFFFFFFFFFFFFFFFFFFF AND PUSH20 0xFFFFFFFFFFFFFFFFFFFFFFFFFFFFFFFFFFFFFFFF AND DUP2 MSTORE PUSH1 0x20 ADD SWAP1 DUP2 MSTORE PUSH1 0x20 ADD PUSH1 0x0 KECCAK256 PUSH1 0x0 SWAP1 SLOAD SWAP1 PUSH2 0x100 EXP SWAP1 DIV PUSH1 0xFF AND JUMPDEST ISZERO PUSH2 0x2456 JUMPI PUSH2 0x2451 DUP4 DUP4 DUP4 PUSH2 0x2D39 JUMP JUMPDEST PUSH2 0x2462 JUMP JUMPDEST PUSH2 0x2461 DUP4 DUP4 DUP4 PUSH2 0x2B7B JUMP JUMPDEST JUMPDEST JUMPDEST JUMPDEST JUMPDEST POP POP POP JUMP JUMPDEST PUSH1 0x0 DUP4 DUP4 GT ISZERO DUP3 SWAP1 PUSH2 0x2517 JUMPI PUSH1 0x40 MLOAD PUSH32 0x8C379A000000000000000000000000000000000000000000000000000000000 DUP2 MSTORE PUSH1 0x4 ADD DUP1 DUP1 PUSH1 0x20 ADD DUP3 DUP2 SUB DUP3 MSTORE DUP4 DUP2 DUP2 MLOAD DUP2 MSTORE PUSH1 0x20 ADD SWAP2 POP DUP1 MLOAD SWAP1 PUSH1 0x20 ADD SWAP1 DUP1 DUP4 DUP4 PUSH1 0x0 JUMPDEST DUP4 DUP2 LT ISZERO PUSH2 0x24DC JUMPI DUP1 DUP3 ADD MLOAD DUP2 DUP5 ADD MSTORE PUSH1 0x20 DUP2 ADD SWAP1 POP PUSH2 0x24C1 JUMP JUMPDEST POP POP POP POP SWAP1 POP SWAP1 DUP2 ADD SWAP1 PUSH1 0x1F AND DUP1 ISZERO PUSH2 0x2509 JUMPI DUP1 DUP3 SUB DUP1 MLOAD PUSH1 0x1 DUP4 PUSH1 0x20 SUB PUSH2 0x100 EXP SUB NOT AND DUP2 MSTORE PUSH1 0x20 ADD SWAP2 POP JUMPDEST POP SWAP3 POP POP POP PUSH1 0x40 MLOAD DUP1 SWAP2 SUB SWAP1 REVERT JUMPDEST POP PUSH1 0x0 DUP4 DUP6 SUB SWAP1 POP DUP1 SWAP2 POP POP SWAP4 SWAP3 POP POP POP JUMP JUMPDEST PUSH1 0x0 DUP1 PUSH1 0x0 PUSH2 0x2537 PUSH2 0x3021 JUMP JUMPDEST SWAP2 POP SWAP2 POP PUSH2 0x254E DUP2 DUP4 PUSH2 0x2555 SWAP1 SWAP2 SWAP1 PUSH4 0xFFFFFFFF AND JUMP JUMPDEST SWAP3 POP POP POP SWAP1 JUMP JUMPDEST PUSH1 0x0 PUSH2 0x2597 DUP4 DUP4 PUSH1 0x40 MLOAD DUP1 PUSH1 0x40 ADD PUSH1 0x40 MSTORE DUP1 PUSH1 0x1A DUP2 MSTORE PUSH1 0x20 ADD PUSH32 0x536166654D6174683A206469766973696F6E206279207A65726F000000000000 DUP2 MSTORE POP PUSH2 0x32D2 JUMP JUMPDEST SWAP1 POP SWAP3 SWAP2 POP POP JUMP JUMPDEST PUSH1 0x0 DUP1 DUP4 EQ ISZERO PUSH2 0x25B2 JUMPI PUSH1 0x0 SWAP1 POP PUSH2 0x261F JUMP JUMPDEST PUSH1 0x0 DUP3 DUP5 MUL SWAP1 POP DUP3 DUP5 DUP3 DUP2 PUSH2 0x25C3 JUMPI INVALID JUMPDEST DIV EQ PUSH2 0x261A JUMPI PUSH1 0x40 MLOAD PUSH32 0x8C379A000000000000000000000000000000000000000000000000000000000 DUP2 MSTORE PUSH1 0x4 ADD DUP1 DUP1 PUSH1 0x20 ADD DUP3 DUP2 SUB DUP3 MSTORE PUSH1 0x21 DUP2 MSTORE PUSH1 0x20 ADD DUP1 PUSH2 0x3490 PUSH1 0x21 SWAP2 CODECOPY PUSH1 0x40 ADD SWAP2 POP POP PUSH1 0x40 MLOAD DUP1 SWAP2 SUB SWAP1 REVERT JUMPDEST DUP1 SWAP2 POP POP JUMPDEST SWAP3 SWAP2 POP POP JUMP JUMPDEST PUSH1 0x0 DUP1 PUSH1 0x0 PUSH2 0x2651 PUSH1 0x2 PUSH2 0x2643 PUSH1 0x64 DUP8 PUSH2 0x2555 SWAP1 SWAP2 SWAP1 PUSH4 0xFFFFFFFF AND JUMP JUMPDEST PUSH2 0x259F SWAP1 SWAP2 SWAP1 PUSH4 0xFFFFFFFF AND JUMP JUMPDEST SWAP1 POP PUSH1 0x0 PUSH2 0x2668 DUP3 DUP7 PUSH2 0x1C71 SWAP1 SWAP2 SWAP1 PUSH4 0xFFFFFFFF AND JUMP JUMPDEST SWAP1 POP DUP1 DUP3 SWAP4 POP SWAP4 POP POP POP SWAP2 POP SWAP2 JUMP JUMPDEST PUSH1 0x0 DUP1 PUSH1 0x0 DUP1 PUSH2 0x2690 DUP6 DUP9 PUSH2 0x259F SWAP1 SWAP2 SWAP1 PUSH4 0xFFFFFFFF AND JUMP JUMPDEST SWAP1 POP PUSH1 0x0 PUSH2 0x26A7 DUP7 DUP9 PUSH2 0x259F SWAP1 SWAP2 SWAP1 PUSH4 0xFFFFFFFF AND JUMP JUMPDEST SWAP1 POP PUSH1 0x0 PUSH2 0x26BE DUP3 DUP5 PUSH2 0x1C71 SWAP1 SWAP2 SWAP1 PUSH4 0xFFFFFFFF AND JUMP JUMPDEST SWAP1 POP DUP3 DUP2 DUP4 SWAP6 POP SWAP6 POP SWAP6 POP POP POP POP SWAP4 POP SWAP4 POP SWAP4 SWAP1 POP JUMP JUMPDEST PUSH1 0x0 DUP1 PUSH1 0x0 DUP1 PUSH1 0x0 PUSH2 0x26E6 DUP7 PUSH2 0x1C19 JUMP JUMPDEST SWAP5 POP SWAP5 POP SWAP5 POP SWAP5 POP SWAP5 POP PUSH2 0x2742 DUP7 PUSH1 0x2 PUSH1 0x0 DUP12 PUSH20 0xFFFFFFFFFFFFFFFFFFFFFFFFFFFFFFFFFFFFFFFF AND PUSH20 0xFFFFFFFFFFFFFFFFFFFFFFFFFFFFFFFFFFFFFFFF AND DUP2 MSTORE PUSH1 0x20 ADD SWAP1 DUP2 MSTORE PUSH1 0x20 ADD PUSH1 0x0 KECCAK256 SLOAD PUSH2 0x1C71 SWAP1 SWAP2 SWAP1 PUSH4 0xFFFFFFFF AND JUMP JUMPDEST PUSH1 0x2 PUSH1 0x0 DUP11 PUSH20 0xFFFFFFFFFFFFFFFFFFFFFFFFFFFFFFFFFFFFFFFF AND PUSH20 0xFFFFFFFFFFFFFFFFFFFFFFFFFFFFFFFFFFFFFFFF AND DUP2 MSTORE PUSH1 0x20 ADD SWAP1 DUP2 MSTORE PUSH1 0x20 ADD PUSH1 0x0 KECCAK256 DUP2 SWAP1 SSTORE POP PUSH2 0x27D7 DUP6 PUSH1 0x1 PUSH1 0x0 DUP12 PUSH20 0xFFFFFFFFFFFFFFFFFFFFFFFFFFFFFFFFFFFFFFFF AND PUSH20 0xFFFFFFFFFFFFFFFFFFFFFFFFFFFFFFFFFFFFFFFF AND DUP2 MSTORE PUSH1 0x20 ADD SWAP1 DUP2 MSTORE PUSH1 0x20 ADD PUSH1 0x0 KECCAK256 SLOAD PUSH2 0x1C71 SWAP1 SWAP2 SWAP1 PUSH4 0xFFFFFFFF AND JUMP JUMPDEST PUSH1 0x1 PUSH1 0x0 DUP11 PUSH20 0xFFFFFFFFFFFFFFFFFFFFFFFFFFFFFFFFFFFFFFFF AND PUSH20 0xFFFFFFFFFFFFFFFFFFFFFFFFFFFFFFFFFFFFFFFF AND DUP2 MSTORE PUSH1 0x20 ADD SWAP1 DUP2 MSTORE PUSH1 0x20 ADD PUSH1 0x0 KECCAK256 DUP2 SWAP1 SSTORE POP PUSH2 0x286C DUP5 PUSH1 0x1 PUSH1 0x0 DUP11 PUSH20 0xFFFFFFFFFFFFFFFFFFFFFFFFFFFFFFFFFFFFFFFF AND PUSH20 0xFFFFFFFFFFFFFFFFFFFFFFFFFFFFFFFFFFFFFFFF AND DUP2 MSTORE PUSH1 0x20 ADD SWAP1 DUP2 MSTORE PUSH1 0x20 ADD PUSH1 0x0 KECCAK256 SLOAD PUSH2 0x1CBB SWAP1 SWAP2 SWAP1 PUSH4 0xFFFFFFFF AND JUMP JUMPDEST PUSH1 0x1 PUSH1 0x0 DUP10 PUSH20 0xFFFFFFFFFFFFFFFFFFFFFFFFFFFFFFFFFFFFFFFF AND PUSH20 0xFFFFFFFFFFFFFFFFFFFFFFFFFFFFFFFFFFFFFFFF AND DUP2 MSTORE PUSH1 0x20 ADD SWAP1 DUP2 MSTORE PUSH1 0x20 ADD PUSH1 0x0 KECCAK256 DUP2 SWAP1 SSTORE POP PUSH2 0x28B9 DUP4 DUP3 PUSH2 0x3398 JUMP JUMPDEST DUP7 PUSH20 0xFFFFFFFFFFFFFFFFFFFFFFFFFFFFFFFFFFFFFFFF AND DUP9 PUSH20 0xFFFFFFFFFFFFFFFFFFFFFFFFFFFFFFFFFFFFFFFF AND PUSH32 0xDDF252AD1BE2C89B69C2B068FC378DAA952BA7F163C4A11628F55A4DF523B3EF DUP5 PUSH1 0x40 MLOAD DUP1 DUP3 DUP2 MSTORE PUSH1 0x20 ADD SWAP2 POP POP PUSH1 0x40 MLOAD DUP1 SWAP2 SUB SWAP1 LOG3 POP POP POP POP POP POP POP POP JUMP JUMPDEST PUSH1 0x0 DUP1 PUSH1 0x0 DUP1 PUSH1 0x0 PUSH2 0x2939 DUP7 PUSH2 0x1C19 JUMP JUMPDEST SWAP5 POP SWAP5 POP SWAP5 POP SWAP5 POP SWAP5 POP PUSH2 0x2995 DUP6 PUSH1 0x1 PUSH1 0x0 DUP12 PUSH20 0xFFFFFFFFFFFFFFFFFFFFFFFFFFFFFFFFFFFFFFFF AND PUSH20 0xFFFFFFFFFFFFFFFFFFFFFFFFFFFFFFFFFFFFFFFF AND DUP2 MSTORE PUSH1 0x20 ADD SWAP1 DUP2 MSTORE PUSH1 0x20 ADD PUSH1 0x0 KECCAK256 SLOAD PUSH2 0x1C71 SWAP1 SWAP2 SWAP1 PUSH4 0xFFFFFFFF AND JUMP JUMPDEST PUSH1 0x1 PUSH1 0x0 DUP11 PUSH20 0xFFFFFFFFFFFFFFFFFFFFFFFFFFFFFFFFFFFFFFFF AND PUSH20 0xFFFFFFFFFFFFFFFFFFFFFFFFFFFFFFFFFFFFFFFF AND DUP2 MSTORE PUSH1 0x20 ADD SWAP1 DUP2 MSTORE PUSH1 0x20 ADD PUSH1 0x0 KECCAK256 DUP2 SWAP1 SSTORE POP PUSH2 0x2A2A DUP3 PUSH1 0x2 PUSH1 0x0 DUP11 PUSH20 0xFFFFFFFFFFFFFFFFFFFFFFFFFFFFFFFFFFFFFFFF AND PUSH20 0xFFFFFFFFFFFFFFFFFFFFFFFFFFFFFFFFFFFFFFFF AND DUP2 MSTORE PUSH1 0x20 ADD SWAP1 DUP2 MSTORE PUSH1 0x20 ADD PUSH1 0x0 KECCAK256 SLOAD PUSH2 0x1CBB SWAP1 SWAP2 SWAP1 PUSH4 0xFFFFFFFF AND JUMP JUMPDEST PUSH1 0x2 PUSH1 0x0 DUP10 PUSH20 0xFFFFFFFFFFFFFFFFFFFFFFFFFFFFFFFFFFFFFFFF AND PUSH20 0xFFFFFFFFFFFFFFFFFFFFFFFFFFFFFFFFFFFFFFFF AND DUP2 MSTORE PUSH1 0x20 ADD SWAP1 DUP2 MSTORE PUSH1 0x20 ADD PUSH1 0x0 KECCAK256 DUP2 SWAP1 SSTORE POP PUSH2 0x2ABF DUP5 PUSH1 0x1 PUSH1 0x0 DUP11 PUSH20 0xFFFFFFFFFFFFFFFFFFFFFFFFFFFFFFFFFFFFFFFF AND PUSH20 0xFFFFFFFFFFFFFFFFFFFFFFFFFFFFFFFFFFFFFFFF AND DUP2 MSTORE PUSH1 0x20 ADD SWAP1 DUP2 MSTORE PUSH1 0x20 ADD PUSH1 0x0 KECCAK256 SLOAD PUSH2 0x1CBB SWAP1 SWAP2 SWAP1 PUSH4 0xFFFFFFFF AND JUMP JUMPDEST PUSH1 0x1 PUSH1 0x0 DUP10 PUSH20 0xFFFFFFFFFFFFFFFFFFFFFFFFFFFFFFFFFFFFFFFF AND PUSH20 0xFFFFFFFFFFFFFFFFFFFFFFFFFFFFFFFFFFFFFFFF AND DUP2 MSTORE PUSH1 0x20 ADD SWAP1 DUP2 MSTORE PUSH1 0x20 ADD PUSH1 0x0 KECCAK256 DUP2 SWAP1 SSTORE POP PUSH2 0x2B0C DUP4 DUP3 PUSH2 0x3398 JUMP JUMPDEST DUP7 PUSH20 0xFFFFFFFFFFFFFFFFFFFFFFFFFFFFFFFFFFFFFFFF AND DUP9 PUSH20 0xFFFFFFFFFFFFFFFFFFFFFFFFFFFFFFFFFFFFFFFF AND PUSH32 0xDDF252AD1BE2C89B69C2B068FC378DAA952BA7F163C4A11628F55A4DF523B3EF DUP5 PUSH1 0x40 MLOAD DUP1 DUP3 DUP2 MSTORE PUSH1 0x20 ADD SWAP2 POP POP PUSH1 0x40 MLOAD DUP1 SWAP2 SUB SWAP1 LOG3 POP POP POP POP POP POP POP POP JUMP JUMPDEST PUSH1 0x0 DUP1 PUSH1 0x0 DUP1 PUSH1 0x0 PUSH2 0x2B8C DUP7 PUSH2 0x1C19 JUMP JUMPDEST SWAP5 POP SWAP5 POP SWAP5 POP SWAP5 POP SWAP5 POP PUSH2 0x2BE8 DUP6 PUSH1 0x1 PUSH1 0x0 DUP12 PUSH20 0xFFFFFFFFFFFFFFFFFFFFFFFFFFFFFFFFFFFFFFFF AND PUSH20 0xFFFFFFFFFFFFFFFFFFFFFFFFFFFFFFFFFFFFFFFF AND DUP2 MSTORE PUSH1 0x20 ADD SWAP1 DUP2 MSTORE PUSH1 0x20 ADD PUSH1 0x0 KECCAK256 SLOAD PUSH2 0x1C71 SWAP1 SWAP2 SWAP1 PUSH4 0xFFFFFFFF AND JUMP JUMPDEST PUSH1 0x1 PUSH1 0x0 DUP11 PUSH20 0xFFFFFFFFFFFFFFFFFFFFFFFFFFFFFFFFFFFFFFFF AND PUSH20 0xFFFFFFFFFFFFFFFFFFFFFFFFFFFFFFFFFFFFFFFF AND DUP2 MSTORE PUSH1 0x20 ADD SWAP1 DUP2 MSTORE PUSH1 0x20 ADD PUSH1 0x0 KECCAK256 DUP2 SWAP1 SSTORE POP PUSH2 0x2C7D DUP5 PUSH1 0x1 PUSH1 0x0 DUP11 PUSH20 0xFFFFFFFFFFFFFFFFFFFFFFFFFFFFFFFFFFFFFFFF AND PUSH20 0xFFFFFFFFFFFFFFFFFFFFFFFFFFFFFFFFFFFFFFFF AND DUP2 MSTORE PUSH1 0x20 ADD SWAP1 DUP2 MSTORE PUSH1 0x20 ADD PUSH1 0x0 KECCAK256 SLOAD PUSH2 0x1CBB SWAP1 SWAP2 SWAP1 PUSH4 0xFFFFFFFF AND JUMP JUMPDEST PUSH1 0x1 PUSH1 0x0 DUP10 PUSH20 0xFFFFFFFFFFFFFFFFFFFFFFFFFFFFFFFFFFFFFFFF AND PUSH20 0xFFFFFFFFFFFFFFFFFFFFFFFFFFFFFFFFFFFFFFFF AND DUP2 MSTORE PUSH1 0x20 ADD SWAP1 DUP2 MSTORE PUSH1 0x20 ADD PUSH1 0x0 KECCAK256 DUP2 SWAP1 SSTORE POP PUSH2 0x2CCA DUP4 DUP3 PUSH2 0x3398 JUMP JUMPDEST DUP7 PUSH20 0xFFFFFFFFFFFFFFFFFFFFFFFFFFFFFFFFFFFFFFFF AND DUP9 PUSH20 0xFFFFFFFFFFFFFFFFFFFFFFFFFFFFFFFFFFFFFFFF AND PUSH32 0xDDF252AD1BE2C89B69C2B068FC378DAA952BA7F163C4A11628F55A4DF523B3EF DUP5 PUSH1 0x40 MLOAD DUP1 DUP3 DUP2 MSTORE PUSH1 0x20 ADD SWAP2 POP POP PUSH1 0x40 MLOAD DUP1 SWAP2 SUB SWAP1 LOG3 POP POP POP POP POP POP POP POP JUMP JUMPDEST PUSH1 0x0 DUP1 PUSH1 0x0 DUP1 PUSH1 0x0 PUSH2 0x2D4A DUP7 PUSH2 0x1C19 JUMP JUMPDEST SWAP5 POP SWAP5 POP SWAP5 POP SWAP5 POP SWAP5 POP PUSH2 0x2DA6 DUP7 PUSH1 0x2 PUSH1 0x0 DUP12 PUSH20 0xFFFFFFFFFFFFFFFFFFFFFFFFFFFFFFFFFFFFFFFF AND PUSH20 0xFFFFFFFFFFFFFFFFFFFFFFFFFFFFFFFFFFFFFFFF AND DUP2 MSTORE PUSH1 0x20 ADD SWAP1 DUP2 MSTORE PUSH1 0x20 ADD PUSH1 0x0 KECCAK256 SLOAD PUSH2 0x1C71 SWAP1 SWAP2 SWAP1 PUSH4 0xFFFFFFFF AND JUMP JUMPDEST PUSH1 0x2 PUSH1 0x0 DUP11 PUSH20 0xFFFFFFFFFFFFFFFFFFFFFFFFFFFFFFFFFFFFFFFF AND PUSH20 0xFFFFFFFFFFFFFFFFFFFFFFFFFFFFFFFFFFFFFFFF AND DUP2 MSTORE PUSH1 0x20 ADD SWAP1 DUP2 MSTORE PUSH1 0x20 ADD PUSH1 0x0 KECCAK256 DUP2 SWAP1 SSTORE POP PUSH2 0x2E3B DUP6 PUSH1 0x1 PUSH1 0x0 DUP12 PUSH20 0xFFFFFFFFFFFFFFFFFFFFFFFFFFFFFFFFFFFFFFFF AND PUSH20 0xFFFFFFFFFFFFFFFFFFFFFFFFFFFFFFFFFFFFFFFF AND DUP2 MSTORE PUSH1 0x20 ADD SWAP1 DUP2 MSTORE PUSH1 0x20 ADD PUSH1 0x0 KECCAK256 SLOAD PUSH2 0x1C71 SWAP1 SWAP2 SWAP1 PUSH4 0xFFFFFFFF AND JUMP JUMPDEST PUSH1 0x1 PUSH1 0x0 DUP11 PUSH20 0xFFFFFFFFFFFFFFFFFFFFFFFFFFFFFFFFFFFFFFFF AND PUSH20 0xFFFFFFFFFFFFFFFFFFFFFFFFFFFFFFFFFFFFFFFF AND DUP2 MSTORE PUSH1 0x20 ADD SWAP1 DUP2 MSTORE PUSH1 0x20 ADD PUSH1 0x0 KECCAK256 DUP2 SWAP1 SSTORE POP PUSH2 0x2ED0 DUP3 PUSH1 0x2 PUSH1 0x0 DUP11 PUSH20 0xFFFFFFFFFFFFFFFFFFFFFFFFFFFFFFFFFFFFFFFF AND PUSH20 0xFFFFFFFFFFFFFFFFFFFFFFFFFFFFFFFFFFFFFFFF AND DUP2 MSTORE PUSH1 0x20 ADD SWAP1 DUP2 MSTORE PUSH1 0x20 ADD PUSH1 0x0 KECCAK256 SLOAD PUSH2 0x1CBB SWAP1 SWAP2 SWAP1 PUSH4 0xFFFFFFFF AND JUMP JUMPDEST PUSH1 0x2 PUSH1 0x0 DUP10 PUSH20 0xFFFFFFFFFFFFFFFFFFFFFFFFFFFFFFFFFFFFFFFF AND PUSH20 0xFFFFFFFFFFFFFFFFFFFFFFFFFFFFFFFFFFFFFFFF AND DUP2 MSTORE PUSH1 0x20 ADD SWAP1 DUP2 MSTORE PUSH1 0x20 ADD PUSH1 0x0 KECCAK256 DUP2 SWAP1 SSTORE POP PUSH2 0x2F65 DUP5 PUSH1 0x1 PUSH1 0x0 DUP11 PUSH20 0xFFFFFFFFFFFFFFFFFFFFFFFFFFFFFFFFFFFFFFFF AND PUSH20 0xFFFFFFFFFFFFFFFFFFFFFFFFFFFFFFFFFFFFFFFF AND DUP2 MSTORE PUSH1 0x20 ADD SWAP1 DUP2 MSTORE PUSH1 0x20 ADD PUSH1 0x0 KECCAK256 SLOAD PUSH2 0x1CBB SWAP1 SWAP2 SWAP1 PUSH4 0xFFFFFFFF AND JUMP JUMPDEST PUSH1 0x1 PUSH1 0x0 DUP10 PUSH20 0xFFFFFFFFFFFFFFFFFFFFFFFFFFFFFFFFFFFFFFFF AND PUSH20 0xFFFFFFFFFFFFFFFFFFFFFFFFFFFFFFFFFFFFFFFF AND DUP2 MSTORE PUSH1 0x20 ADD SWAP1 DUP2 MSTORE PUSH1 0x20 ADD PUSH1 0x0 KECCAK256 DUP2 SWAP1 SSTORE POP PUSH2 0x2FB2 DUP4 DUP3 PUSH2 0x3398 JUMP JUMPDEST DUP7 PUSH20 0xFFFFFFFFFFFFFFFFFFFFFFFFFFFFFFFFFFFFFFFF AND DUP9 PUSH20 0xFFFFFFFFFFFFFFFFFFFFFFFFFFFFFFFFFFFFFFFF AND PUSH32 0xDDF252AD1BE2C89B69C2B068FC378DAA952BA7F163C4A11628F55A4DF523B3EF DUP5 PUSH1 0x40 MLOAD DUP1 DUP3 DUP2 MSTORE PUSH1 0x20 ADD SWAP2 POP POP PUSH1 0x40 MLOAD DUP1 SWAP2 SUB SWAP1 LOG3 POP POP POP POP POP POP POP POP JUMP JUMPDEST PUSH1 0x0 DUP1 PUSH1 0x0 PUSH1 0x6 SLOAD SWAP1 POP PUSH1 0x0 PUSH10 0x17B7883C06916600000 SWAP1 POP PUSH1 0x0 JUMPDEST PUSH1 0x5 DUP1 SLOAD SWAP1 POP DUP2 LT ISZERO PUSH2 0x3285 JUMPI DUP3 PUSH1 0x1 PUSH1 0x0 PUSH1 0x5 DUP5 DUP2 SLOAD DUP2 LT PUSH2 0x305C JUMPI INVALID JUMPDEST SWAP1 PUSH1 0x0 MSTORE PUSH1 0x20 PUSH1 0x0 KECCAK256 ADD PUSH1 0x0 SWAP1 SLOAD SWAP1 PUSH2 0x100 EXP SWAP1 DIV PUSH20 0xFFFFFFFFFFFFFFFFFFFFFFFFFFFFFFFFFFFFFFFF AND PUSH20 0xFFFFFFFFFFFFFFFFFFFFFFFFFFFFFFFFFFFFFFFF AND PUSH20 0xFFFFFFFFFFFFFFFFFFFFFFFFFFFFFFFFFFFFFFFF AND DUP2 MSTORE PUSH1 0x20 ADD SWAP1 DUP2 MSTORE PUSH1 0x20 ADD PUSH1 0x0 KECCAK256 SLOAD GT DUP1 PUSH2 0x3143 JUMPI POP DUP2 PUSH1 0x2 PUSH1 0x0 PUSH1 0x5 DUP5 DUP2 SLOAD DUP2 LT PUSH2 0x30DB JUMPI INVALID JUMPDEST SWAP1 PUSH1 0x0 MSTORE PUSH1 0x20 PUSH1 0x0 KECCAK256 ADD PUSH1 0x0 SWAP1 SLOAD SWAP1 PUSH2 0x100 EXP SWAP1 DIV PUSH20 0xFFFFFFFFFFFFFFFFFFFFFFFFFFFFFFFFFFFFFFFF AND PUSH20 0xFFFFFFFFFFFFFFFFFFFFFFFFFFFFFFFFFFFFFFFF AND PUSH20 0xFFFFFFFFFFFFFFFFFFFFFFFFFFFFFFFFFFFFFFFF AND DUP2 MSTORE PUSH1 0x20 ADD SWAP1 DUP2 MSTORE PUSH1 0x20 ADD PUSH1 0x0 KECCAK256 SLOAD GT JUMPDEST ISZERO PUSH2 0x3162 JUMPI PUSH1 0x6 SLOAD PUSH10 0x17B7883C06916600000 SWAP5 POP SWAP5 POP POP POP POP PUSH2 0x32CE JUMP JUMPDEST PUSH2 0x31EB PUSH1 0x1 PUSH1 0x0 PUSH1 0x5 DUP5 DUP2 SLOAD DUP2 LT PUSH2 0x3176 JUMPI INVALID JUMPDEST SWAP1 PUSH1 0x0 MSTORE PUSH1 0x20 PUSH1 0x0 KECCAK256 ADD PUSH1 0x0 SWAP1 SLOAD SWAP1 PUSH2 0x100 EXP SWAP1 DIV PUSH20 0xFFFFFFFFFFFFFFFFFFFFFFFFFFFFFFFFFFFFFFFF AND PUSH20 0xFFFFFFFFFFFFFFFFFFFFFFFFFFFFFFFFFFFFFFFF AND PUSH20 0xFFFFFFFFFFFFFFFFFFFFFFFFFFFFFFFFFFFFFFFF AND DUP2 MSTORE PUSH1 0x20 ADD SWAP1 DUP2 MSTORE PUSH1 0x20 ADD PUSH1 0x0 KECCAK256 SLOAD DUP5 PUSH2 0x1C71 SWAP1 SWAP2 SWAP1 PUSH4 0xFFFFFFFF AND JUMP JUMPDEST SWAP3 POP PUSH2 0x3276 PUSH1 0x2 PUSH1 0x0 PUSH1 0x5 DUP5 DUP2 SLOAD DUP2 LT PUSH2 0x3201 JUMPI INVALID JUMPDEST SWAP1 PUSH1 0x0 MSTORE PUSH1 0x20 PUSH1 0x0 KECCAK256 ADD PUSH1 0x0 SWAP1 SLOAD SWAP1 PUSH2 0x100 EXP SWAP1 DIV PUSH20 0xFFFFFFFFFFFFFFFFFFFFFFFFFFFFFFFFFFFFFFFF AND PUSH20 0xFFFFFFFFFFFFFFFFFFFFFFFFFFFFFFFFFFFFFFFF AND PUSH20 0xFFFFFFFFFFFFFFFFFFFFFFFFFFFFFFFFFFFFFFFF AND DUP2 MSTORE PUSH1 0x20 ADD SWAP1 DUP2 MSTORE PUSH1 0x20 ADD PUSH1 0x0 KECCAK256 SLOAD DUP4 PUSH2 0x1C71 SWAP1 SWAP2 SWAP1 PUSH4 0xFFFFFFFF AND JUMP JUMPDEST SWAP2 POP DUP1 DUP1 PUSH1 0x1 ADD SWAP2 POP POP PUSH2 0x303D JUMP JUMPDEST POP PUSH2 0x32A5 PUSH10 0x17B7883C06916600000 PUSH1 0x6 SLOAD PUSH2 0x2555 SWAP1 SWAP2 SWAP1 PUSH4 0xFFFFFFFF AND JUMP JUMPDEST DUP3 LT ISZERO PUSH2 0x32C5 JUMPI PUSH1 0x6 SLOAD PUSH10 0x17B7883C06916600000 SWAP4 POP SWAP4 POP POP POP PUSH2 0x32CE JUMP JUMPDEST DUP2 DUP2 SWAP4 POP SWAP4 POP POP POP JUMPDEST SWAP1 SWAP2 JUMP JUMPDEST PUSH1 0x0 DUP1 DUP4 GT DUP3 SWAP1 PUSH2 0x337E JUMPI PUSH1 0x40 MLOAD PUSH32 0x8C379A000000000000000000000000000000000000000000000000000000000 DUP2 MSTORE PUSH1 0x4 ADD DUP1 DUP1 PUSH1 0x20 ADD DUP3 DUP2 SUB DUP3 MSTORE DUP4 DUP2 DUP2 MLOAD DUP2 MSTORE PUSH1 0x20 ADD SWAP2 POP DUP1 MLOAD SWAP1 PUSH1 0x20 ADD SWAP1 DUP1 DUP4 DUP4 PUSH1 0x0 JUMPDEST DUP4 DUP2 LT ISZERO PUSH2 0x3343 JUMPI DUP1 DUP3 ADD MLOAD DUP2 DUP5 ADD MSTORE PUSH1 0x20 DUP2 ADD SWAP1 POP PUSH2 0x3328 JUMP JUMPDEST POP POP POP POP SWAP1 POP SWAP1 DUP2 ADD SWAP1 PUSH1 0x1F AND DUP1 ISZERO PUSH2 0x3370 JUMPI DUP1 DUP3 SUB DUP1 MLOAD PUSH1 0x1 DUP4 PUSH1 0x20 SUB PUSH2 0x100 EXP SUB NOT AND DUP2 MSTORE PUSH1 0x20 ADD SWAP2 POP JUMPDEST POP SWAP3 POP POP POP PUSH1 0x40 MLOAD DUP1 SWAP2 SUB SWAP1 REVERT JUMPDEST POP PUSH1 0x0 DUP4 DUP6 DUP2 PUSH2 0x338A JUMPI INVALID JUMPDEST DIV SWAP1 POP DUP1 SWAP2 POP POP SWAP4 SWAP3 POP POP POP JUMP JUMPDEST PUSH2 0x33AD DUP3 PUSH1 0x6 SLOAD PUSH2 0x1C71 SWAP1 SWAP2 SWAP1 PUSH4 0xFFFFFFFF AND JUMP JUMPDEST PUSH1 0x6 DUP2 SWAP1 SSTORE POP PUSH2 0x33C8 DUP2 PUSH1 0x7 SLOAD PUSH2 0x1CBB SWAP1 SWAP2 SWAP1 PUSH4 0xFFFFFFFF AND JUMP JUMPDEST PUSH1 0x7 DUP2 SWAP1 SSTORE POP POP POP JUMP INVALID GASLIMIT MSTORE NUMBER ORIGIN ADDRESS GASPRICE KECCAK256 PUSH21 0x72616E7366657220746F20746865207A65726F2061 PUSH5 0x6472657373 COINBASE PUSH14 0x6F756E74206D757374206265206C PUSH6 0x737320746861 PUSH15 0x20746F74616C207265666C65637469 PUSH16 0x6E734F776E61626C653A206E6577206F PUSH24 0x6E657220697320746865207A65726F206164647265737345 MSTORE NUMBER ORIGIN ADDRESS GASPRICE KECCAK256 PUSH2 0x7070 PUSH19 0x6F766520746F20746865207A65726F20616464 PUSH19 0x6573735472616E7366657220616D6F756E7420 PUSH6 0x786365656473 KECCAK256 PUSH21 0x6865206D61785478416D6F756E742E536166654D61 PUSH21 0x683A206D756C7469706C69636174696F6E206F7665 PUSH19 0x666C6F7745524332303A207472616E73666572 KECCAK256 PUSH2 0x6D6F PUSH22 0x6E74206578636565647320616C6C6F77616E63655472 PUSH2 0x6E73 PUSH7 0x657220616D6F75 PUSH15 0x74206D757374206265206772656174 PUSH6 0x72207468616E KECCAK256 PUSH27 0x65726F45524332303A207472616E736665722066726F6D20746865 KECCAK256 PUSH27 0x65726F206164647265737345524332303A20617070726F76652066 PUSH19 0x6F6D20746865207A65726F2061646472657373 GASLIMIT PUSH25 0x636C75646564206164647265737365732063616E6E6F742063 PUSH2 0x6C6C KECCAK256 PUSH21 0x6869732066756E6374696F6E45524332303A206465 PUSH4 0x72656173 PUSH6 0x6420616C6C6F PUSH24 0x616E63652062656C6F77207A65726FA26469706673582212 KECCAK256 PUSH1 0x51 0xBA 0xBB CALLDATALOAD BLOCKHASH 0xDD ADDMOD RETURNDATACOPY MULMOD DUP15 EQ DUP13 BLOCKHASH 0xF6 0xE0 DIFFICULTY SWAP5 0x4B 0x5D 0x2B 0xE9 0x23 PUSH16 0xC9F7FE10E557340364736F6C63430006 0xC STOP CALLER "
				},
				"gasEstimates": {
					"creation": {
						"codeDepositCost": "2755400",
						"executionCost": "infinite",
						"totalCost": "infinite"
					},
					"external": {
						"_maxTxAmount()": "1050",
						"allowance(address,address)": "1387",
						"approve(address,uint256)": "infinite",
						"balanceOf(address)": "infinite",
						"decimals()": "1122",
						"decreaseAllowance(address,uint256)": "infinite",
						"excludeAccount(address)": "infinite",
						"includeAccount(address)": "infinite",
						"increaseAllowance(address,uint256)": "infinite",
						"isExcluded(address)": "1260",
						"name()": "infinite",
						"owner()": "1122",
						"reflect(uint256)": "infinite",
						"reflectionFromToken(uint256,bool)": "infinite",
						"renounceOwnership()": "24314",
						"setMaxTxPercent(uint256)": "infinite",
						"symbol()": "infinite",
						"tokenFromReflection(uint256)": "infinite",
						"totalFees()": "1103",
						"totalSupply()": "325",
						"transfer(address,uint256)": "infinite",
						"transferFrom(address,address,uint256)": "infinite",
						"transferOwnership(address)": "infinite"
					},
					"internal": {
						"_approve(address,address,uint256)": "infinite",
						"_getCurrentSupply()": "infinite",
						"_getRValues(uint256,uint256,uint256)": "infinite",
						"_getRate()": "infinite",
						"_getTValues(uint256)": "infinite",
						"_getValues(uint256)": "infinite",
						"_reflectFee(uint256,uint256)": "infinite",
						"_transfer(address,address,uint256)": "infinite",
						"_transferBothExcluded(address,address,uint256)": "infinite",
						"_transferFromExcluded(address,address,uint256)": "infinite",
						"_transferStandard(address,address,uint256)": "infinite",
						"_transferToExcluded(address,address,uint256)": "infinite"
					}
				},
				"methodIdentifiers": {
					"_maxTxAmount()": "7d1db4a5",
					"allowance(address,address)": "dd62ed3e",
					"approve(address,uint256)": "095ea7b3",
					"balanceOf(address)": "70a08231",
					"decimals()": "313ce567",
					"decreaseAllowance(address,uint256)": "a457c2d7",
					"excludeAccount(address)": "f2cc0c18",
					"includeAccount(address)": "f84354f1",
					"increaseAllowance(address,uint256)": "39509351",
					"isExcluded(address)": "cba0e996",
					"name()": "06fdde03",
					"owner()": "8da5cb5b",
					"reflect(uint256)": "053ab182",
					"reflectionFromToken(uint256,bool)": "4549b039",
					"renounceOwnership()": "715018a6",
					"setMaxTxPercent(uint256)": "d543dbeb",
					"symbol()": "95d89b41",
					"tokenFromReflection(uint256)": "2d838119",
					"totalFees()": "13114a9d",
					"totalSupply()": "18160ddd",
					"transfer(address,uint256)": "a9059cbb",
					"transferFrom(address,address,uint256)": "23b872dd",
					"transferOwnership(address)": "f2fde38b"
				}
			},
			"storageLayout": {
				"storage": [
					{
						"astId": 495,
						"contract": "sadc.sol:Jessieinu",
						"label": "_owner",
						"offset": 0,
						"slot": "0",
						"type": "t_address"
					},
					{
						"astId": 612,
						"contract": "sadc.sol:Jessieinu",
						"label": "_rOwned",
						"offset": 0,
						"slot": "1",
						"type": "t_mapping(t_address,t_uint256)"
					},
					{
						"astId": 616,
						"contract": "sadc.sol:Jessieinu",
						"label": "_tOwned",
						"offset": 0,
						"slot": "2",
						"type": "t_mapping(t_address,t_uint256)"
					},
					{
						"astId": 622,
						"contract": "sadc.sol:Jessieinu",
						"label": "_allowances",
						"offset": 0,
						"slot": "3",
						"type": "t_mapping(t_address,t_mapping(t_address,t_uint256))"
					},
					{
						"astId": 626,
						"contract": "sadc.sol:Jessieinu",
						"label": "_isExcluded",
						"offset": 0,
						"slot": "4",
						"type": "t_mapping(t_address,t_bool)"
					},
					{
						"astId": 629,
						"contract": "sadc.sol:Jessieinu",
						"label": "_excluded",
						"offset": 0,
						"slot": "5",
						"type": "t_array(t_address)dyn_storage"
					},
					{
						"astId": 648,
						"contract": "sadc.sol:Jessieinu",
						"label": "_rTotal",
						"offset": 0,
						"slot": "6",
						"type": "t_uint256"
					},
					{
						"astId": 650,
						"contract": "sadc.sol:Jessieinu",
						"label": "_tFeeTotal",
						"offset": 0,
						"slot": "7",
						"type": "t_uint256"
					},
					{
						"astId": 653,
						"contract": "sadc.sol:Jessieinu",
						"label": "_name",
						"offset": 0,
						"slot": "8",
						"type": "t_string_storage"
					},
					{
						"astId": 656,
						"contract": "sadc.sol:Jessieinu",
						"label": "_symbol",
						"offset": 0,
						"slot": "9",
						"type": "t_string_storage"
					},
					{
						"astId": 659,
						"contract": "sadc.sol:Jessieinu",
						"label": "_decimals",
						"offset": 0,
						"slot": "10",
						"type": "t_uint8"
					},
					{
						"astId": 662,
						"contract": "sadc.sol:Jessieinu",
						"label": "_maxTxAmount",
						"offset": 0,
						"slot": "11",
						"type": "t_uint256"
					}
				],
				"types": {
					"t_address": {
						"encoding": "inplace",
						"label": "address",
						"numberOfBytes": "20"
					},
					"t_array(t_address)dyn_storage": {
						"base": "t_address",
						"encoding": "dynamic_array",
						"label": "address[]",
						"numberOfBytes": "32"
					},
					"t_bool": {
						"encoding": "inplace",
						"label": "bool",
						"numberOfBytes": "1"
					},
					"t_mapping(t_address,t_bool)": {
						"encoding": "mapping",
						"key": "t_address",
						"label": "mapping(address => bool)",
						"numberOfBytes": "32",
						"value": "t_bool"
					},
					"t_mapping(t_address,t_mapping(t_address,t_uint256))": {
						"encoding": "mapping",
						"key": "t_address",
						"label": "mapping(address => mapping(address => uint256))",
						"numberOfBytes": "32",
						"value": "t_mapping(t_address,t_uint256)"
					},
					"t_mapping(t_address,t_uint256)": {
						"encoding": "mapping",
						"key": "t_address",
						"label": "mapping(address => uint256)",
						"numberOfBytes": "32",
						"value": "t_uint256"
					},
					"t_string_storage": {
						"encoding": "bytes",
						"label": "string",
						"numberOfBytes": "32"
					},
					"t_uint256": {
						"encoding": "inplace",
						"label": "uint256",
						"numberOfBytes": "32"
					},
					"t_uint8": {
						"encoding": "inplace",
						"label": "uint8",
						"numberOfBytes": "1"
					}
				}
			},
			"userdoc": {
				"kind": "user",
				"methods": {},
				"version": 1
			}
		}
	}
}