{
	"sadc.sol": {
		"CoinToken": {
			"abi": [
				{
					"inputs": [
						{
							"internalType": "string",
							"name": "_NAME",
							"type": "string"
						},
						{
							"internalType": "string",
							"name": "_SYMBOL",
							"type": "string"
						},
						{
							"internalType": "uint256",
							"name": "_DECIMALS",
							"type": "uint256"
						},
						{
							"internalType": "uint256",
							"name": "_supply",
							"type": "uint256"
						},
						{
							"internalType": "uint256",
							"name": "_txFee",
							"type": "uint256"
						},
						{
							"internalType": "uint256",
							"name": "_lpFee",
							"type": "uint256"
						},
						{
							"internalType": "uint256",
							"name": "_MAXAMOUNT",
							"type": "uint256"
						},
						{
							"internalType": "uint256",
							"name": "SELLMAXAMOUNT",
							"type": "uint256"
						},
						{
							"internalType": "address",
							"name": "routerAddress",
							"type": "address"
						},
						{
							"internalType": "address",
							"name": "tokenOwner",
							"type": "address"
						}
					],
					"stateMutability": "nonpayable",
					"type": "constructor"
				},
				{
					"anonymous": false,
					"inputs": [
						{
							"indexed": true,
							"internalType": "address",
							"name": "owner",
							"type": "address"
						},
						{
							"indexed": true,
							"internalType": "address",
							"name": "spender",
							"type": "address"
						},
						{
							"indexed": false,
							"internalType": "uint256",
							"name": "value",
							"type": "uint256"
						}
					],
					"name": "Approval",
					"type": "event"
				},
				{
					"anonymous": false,
					"inputs": [
						{
							"indexed": false,
							"internalType": "uint256",
							"name": "minTokensBeforeSwap",
							"type": "uint256"
						}
					],
					"name": "MinTokensBeforeSwapUpdated",
					"type": "event"
				},
				{
					"anonymous": false,
					"inputs": [
						{
							"indexed": true,
							"internalType": "address",
							"name": "previousOwner",
							"type": "address"
						},
						{
							"indexed": true,
							"internalType": "address",
							"name": "newOwner",
							"type": "address"
						}
					],
					"name": "OwnershipTransferred",
					"type": "event"
				},
				{
					"anonymous": false,
					"inputs": [
						{
							"indexed": false,
							"internalType": "uint256",
							"name": "tokensSwapped",
							"type": "uint256"
						},
						{
							"indexed": false,
							"internalType": "uint256",
							"name": "ethReceived",
							"type": "uint256"
						},
						{
							"indexed": false,
							"internalType": "uint256",
							"name": "tokensIntoLiqudity",
							"type": "uint256"
						}
					],
					"name": "SwapAndLiquify",
					"type": "event"
				},
				{
					"anonymous": false,
					"inputs": [
						{
							"indexed": false,
							"internalType": "bool",
							"name": "enabled",
							"type": "bool"
						}
					],
					"name": "SwapAndLiquifyEnabledUpdated",
					"type": "event"
				},
				{
					"anonymous": false,
					"inputs": [
						{
							"indexed": true,
							"internalType": "address",
							"name": "from",
							"type": "address"
						},
						{
							"indexed": true,
							"internalType": "address",
							"name": "to",
							"type": "address"
						},
						{
							"indexed": false,
							"internalType": "uint256",
							"name": "value",
							"type": "uint256"
						}
					],
					"name": "Transfer",
					"type": "event"
				},
				{
					"inputs": [],
					"name": "_liquidityFee",
					"outputs": [
						{
							"internalType": "uint256",
							"name": "",
							"type": "uint256"
						}
					],
					"stateMutability": "view",
					"type": "function"
				},
				{
					"inputs": [],
					"name": "_maxTxAmount",
					"outputs": [
						{
							"internalType": "uint256",
							"name": "",
							"type": "uint256"
						}
					],
					"stateMutability": "view",
					"type": "function"
				},
				{
					"inputs": [],
					"name": "_owner",
					"outputs": [
						{
							"internalType": "address",
							"name": "",
							"type": "address"
						}
					],
					"stateMutability": "view",
					"type": "function"
				},
				{
					"inputs": [],
					"name": "_taxFee",
					"outputs": [
						{
							"internalType": "uint256",
							"name": "",
							"type": "uint256"
						}
					],
					"stateMutability": "view",
					"type": "function"
				},
				{
					"inputs": [
						{
							"internalType": "address",
							"name": "owner",
							"type": "address"
						},
						{
							"internalType": "address",
							"name": "spender",
							"type": "address"
						}
					],
					"name": "allowance",
					"outputs": [
						{
							"internalType": "uint256",
							"name": "",
							"type": "uint256"
						}
					],
					"stateMutability": "view",
					"type": "function"
				},
				{
					"inputs": [
						{
							"internalType": "address",
							"name": "spender",
							"type": "address"
						},
						{
							"internalType": "uint256",
							"name": "amount",
							"type": "uint256"
						}
					],
					"name": "approve",
					"outputs": [
						{
							"internalType": "bool",
							"name": "",
							"type": "bool"
						}
					],
					"stateMutability": "nonpayable",
					"type": "function"
				},
				{
					"inputs": [
						{
							"internalType": "address",
							"name": "account",
							"type": "address"
						}
					],
					"name": "balanceOf",
					"outputs": [
						{
							"internalType": "uint256",
							"name": "",
							"type": "uint256"
						}
					],
					"stateMutability": "view",
					"type": "function"
				},
				{
					"inputs": [],
					"name": "claimTokens",
					"outputs": [],
					"stateMutability": "nonpayable",
					"type": "function"
				},
				{
					"inputs": [],
					"name": "decimals",
					"outputs": [
						{
							"internalType": "uint256",
							"name": "",
							"type": "uint256"
						}
					],
					"stateMutability": "view",
					"type": "function"
				},
				{
					"inputs": [
						{
							"internalType": "address",
							"name": "spender",
							"type": "address"
						},
						{
							"internalType": "uint256",
							"name": "subtractedValue",
							"type": "uint256"
						}
					],
					"name": "decreaseAllowance",
					"outputs": [
						{
							"internalType": "bool",
							"name": "",
							"type": "bool"
						}
					],
					"stateMutability": "nonpayable",
					"type": "function"
				},
				{
					"inputs": [
						{
							"internalType": "uint256",
							"name": "tAmount",
							"type": "uint256"
						}
					],
					"name": "deliver",
					"outputs": [],
					"stateMutability": "nonpayable",
					"type": "function"
				},
				{
					"inputs": [
						{
							"internalType": "address",
							"name": "account",
							"type": "address"
						}
					],
					"name": "excludeFromFee",
					"outputs": [],
					"stateMutability": "nonpayable",
					"type": "function"
				},
				{
					"inputs": [
						{
							"internalType": "address",
							"name": "account",
							"type": "address"
						}
					],
					"name": "excludeFromReward",
					"outputs": [],
					"stateMutability": "nonpayable",
					"type": "function"
				},
				{
					"inputs": [],
					"name": "geUnlockTime",
					"outputs": [
						{
							"internalType": "uint256",
							"name": "",
							"type": "uint256"
						}
					],
					"stateMutability": "view",
					"type": "function"
				},
				{
					"inputs": [
						{
							"internalType": "address",
							"name": "account",
							"type": "address"
						}
					],
					"name": "includeInFee",
					"outputs": [],
					"stateMutability": "nonpayable",
					"type": "function"
				},
				{
					"inputs": [
						{
							"internalType": "address",
							"name": "account",
							"type": "address"
						}
					],
					"name": "includeInReward",
					"outputs": [],
					"stateMutability": "nonpayable",
					"type": "function"
				},
				{
					"inputs": [
						{
							"internalType": "address",
							"name": "spender",
							"type": "address"
						},
						{
							"internalType": "uint256",
							"name": "addedValue",
							"type": "uint256"
						}
					],
					"name": "increaseAllowance",
					"outputs": [
						{
							"internalType": "bool",
							"name": "",
							"type": "bool"
						}
					],
					"stateMutability": "nonpayable",
					"type": "function"
				},
				{
					"inputs": [
						{
							"internalType": "address",
							"name": "account",
							"type": "address"
						}
					],
					"name": "isExcludedFromFee",
					"outputs": [
						{
							"internalType": "bool",
							"name": "",
							"type": "bool"
						}
					],
					"stateMutability": "view",
					"type": "function"
				},
				{
					"inputs": [
						{
							"internalType": "address",
							"name": "account",
							"type": "address"
						}
					],
					"name": "isExcludedFromReward",
					"outputs": [
						{
							"internalType": "bool",
							"name": "",
							"type": "bool"
						}
					],
					"stateMutability": "view",
					"type": "function"
				},
				{
					"inputs": [
						{
							"internalType": "uint256",
							"name": "time",
							"type": "uint256"
						}
					],
					"name": "lock",
					"outputs": [],
					"stateMutability": "nonpayable",
					"type": "function"
				},
				{
					"inputs": [],
					"name": "name",
					"outputs": [
						{
							"internalType": "string",
							"name": "",
							"type": "string"
						}
					],
					"stateMutability": "view",
					"type": "function"
				},
				{
					"inputs": [],
					"name": "numTokensSellToAddToLiquidity",
					"outputs": [
						{
							"internalType": "uint256",
							"name": "",
							"type": "uint256"
						}
					],
					"stateMutability": "view",
					"type": "function"
				},
				{
					"inputs": [],
					"name": "owner",
					"outputs": [
						{
							"internalType": "address",
							"name": "",
							"type": "address"
						}
					],
					"stateMutability": "view",
					"type": "function"
				},
				{
					"inputs": [
						{
							"internalType": "uint256",
							"name": "tAmount",
							"type": "uint256"
						},
						{
							"internalType": "bool",
							"name": "deductTransferFee",
							"type": "bool"
						}
					],
					"name": "reflectionFromToken",
					"outputs": [
						{
							"internalType": "uint256",
							"name": "",
							"type": "uint256"
						}
					],
					"stateMutability": "view",
					"type": "function"
				},
				{
					"inputs": [],
					"name": "renounceOwnership",
					"outputs": [],
					"stateMutability": "nonpayable",
					"type": "function"
				},
				{
					"inputs": [
						{
							"internalType": "uint256",
							"name": "liquidityFee",
							"type": "uint256"
						}
					],
					"name": "setLiquidityFeePercent",
					"outputs": [],
					"stateMutability": "nonpayable",
					"type": "function"
				},
				{
					"inputs": [
						{
							"internalType": "uint256",
							"name": "maxTxPercent",
							"type": "uint256"
						}
					],
					"name": "setMaxTxPercent",
					"outputs": [],
					"stateMutability": "nonpayable",
					"type": "function"
				},
				{
					"inputs": [
						{
							"internalType": "uint256",
							"name": "swapNumber",
							"type": "uint256"
						}
					],
					"name": "setNumTokensSellToAddToLiquidity",
					"outputs": [],
					"stateMutability": "nonpayable",
					"type": "function"
				},
				{
					"inputs": [
						{
							"internalType": "bool",
							"name": "_enabled",
							"type": "bool"
						}
					],
					"name": "setSwapAndLiquifyEnabled",
					"outputs": [],
					"stateMutability": "nonpayable",
					"type": "function"
				},
				{
					"inputs": [
						{
							"internalType": "uint256",
							"name": "taxFee",
							"type": "uint256"
						}
					],
					"name": "setTaxFeePercent",
					"outputs": [],
					"stateMutability": "nonpayable",
					"type": "function"
				},
				{
					"inputs": [],
					"name": "swapAndLiquifyEnabled",
					"outputs": [
						{
							"internalType": "bool",
							"name": "",
							"type": "bool"
						}
					],
					"stateMutability": "view",
					"type": "function"
				},
				{
					"inputs": [],
					"name": "symbol",
					"outputs": [
						{
							"internalType": "string",
							"name": "",
							"type": "string"
						}
					],
					"stateMutability": "view",
					"type": "function"
				},
				{
					"inputs": [
						{
							"internalType": "uint256",
							"name": "rAmount",
							"type": "uint256"
						}
					],
					"name": "tokenFromReflection",
					"outputs": [
						{
							"internalType": "uint256",
							"name": "",
							"type": "uint256"
						}
					],
					"stateMutability": "view",
					"type": "function"
				},
				{
					"inputs": [],
					"name": "totalFees",
					"outputs": [
						{
							"internalType": "uint256",
							"name": "",
							"type": "uint256"
						}
					],
					"stateMutability": "view",
					"type": "function"
				},
				{
					"inputs": [],
					"name": "totalSupply",
					"outputs": [
						{
							"internalType": "uint256",
							"name": "",
							"type": "uint256"
						}
					],
					"stateMutability": "view",
					"type": "function"
				},
				{
					"inputs": [
						{
							"internalType": "address",
							"name": "recipient",
							"type": "address"
						},
						{
							"internalType": "uint256",
							"name": "amount",
							"type": "uint256"
						}
					],
					"name": "transfer",
					"outputs": [
						{
							"internalType": "bool",
							"name": "",
							"type": "bool"
						}
					],
					"stateMutability": "nonpayable",
					"type": "function"
				},
				{
					"inputs": [
						{
							"internalType": "address",
							"name": "sender",
							"type": "address"
						},
						{
							"internalType": "address",
							"name": "recipient",
							"type": "address"
						},
						{
							"internalType": "uint256",
							"name": "amount",
							"type": "uint256"
						}
					],
					"name": "transferFrom",
					"outputs": [
						{
							"internalType": "bool",
							"name": "",
							"type": "bool"
						}
					],
					"stateMutability": "nonpayable",
					"type": "function"
				},
				{
					"inputs": [
						{
							"internalType": "address",
							"name": "newOwner",
							"type": "address"
						}
					],
					"name": "transferOwnership",
					"outputs": [],
					"stateMutability": "nonpayable",
					"type": "function"
				},
				{
					"inputs": [],
					"name": "uniswapV2Pair",
					"outputs": [
						{
							"internalType": "address",
							"name": "",
							"type": "address"
						}
					],
					"stateMutability": "view",
					"type": "function"
				},
				{
					"inputs": [],
					"name": "uniswapV2Router",
					"outputs": [
						{
							"internalType": "contract IUniswapV2Router02",
							"name": "",
							"type": "address"
						}
					],
					"stateMutability": "view",
					"type": "function"
				},
				{
					"inputs": [],
					"name": "unlock",
					"outputs": [],
					"stateMutability": "nonpayable",
					"type": "function"
				},
				{
					"stateMutability": "payable",
					"type": "receive"
				}
			],
			"devdoc": {
				"kind": "dev",
				"methods": {
					"allowance(address,address)": {
						"details": "Returns the remaining number of tokens that `spender` will be allowed to spend on behalf of `owner` through {transferFrom}. This is zero by default. This value changes when {approve} or {transferFrom} are called."
					},
					"approve(address,uint256)": {
						"details": "Sets `amount` as the allowance of `spender` over the caller's tokens. Returns a boolean value indicating whether the operation succeeded. IMPORTANT: Beware that changing an allowance with this method brings the risk that someone may use both the old and the new allowance by unfortunate transaction ordering. One possible solution to mitigate this race condition is to first reduce the spender's allowance to 0 and set the desired value afterwards: https://github.com/ethereum/EIPs/issues/20#issuecomment-263524729 Emits an {Approval} event."
					},
					"balanceOf(address)": {
						"details": "Returns the amount of tokens owned by `account`."
					},
					"owner()": {
						"details": "Returns the address of the current owner."
					},
					"renounceOwnership()": {
						"details": "Leaves the contract without owner. It will not be possible to call `onlyOwner` functions anymore. Can only be called by the current owner. NOTE: Renouncing ownership will leave the contract without an owner, thereby removing any functionality that is only available to the owner."
					},
					"transfer(address,uint256)": {
						"details": "Moves `amount` tokens from the caller's account to `recipient`. Returns a boolean value indicating whether the operation succeeded. Emits a {Transfer} event."
					},
					"transferFrom(address,address,uint256)": {
						"details": "Moves `amount` tokens from `sender` to `recipient` using the allowance mechanism. `amount` is then deducted from the caller's allowance. Returns a boolean value indicating whether the operation succeeded. Emits a {Transfer} event."
					},
					"transferOwnership(address)": {
						"details": "Transfers ownership of the contract to a new account (`newOwner`). Can only be called by the current owner."
					}
				},
				"version": 1
			},
			"evm": {
				"assembly": "    /* \"sadc.sol\":25414:44521  contract CoinToken is Context, IERC20, Ownable {\r... */\n  mstore(0x40, 0xc0)\n    /* \"sadc.sol\":26396:26436  bool public swapAndLiquifyEnabled = true */\n  0x13\n  dup1\n  sload\n  not(0xff00)\n  and\n  0x0100\n  or\n  swap1\n  sstore\n    /* \"sadc.sol\":26924:28278  constructor (string memory _NAME, string memory _SYMBOL, uint256 _DECIMALS, uint256 _supply, uint256 _txFee,uint256 _lpFee,uint256 _MAXAMOUNT,uint256 SELLMAXAMOUNT,address routerAddress,address tokenOwner) public {\r... */\n  callvalue\n  dup1\n  iszero\n  tag_1\n  jumpi\n  0x00\n  dup1\n  revert\ntag_1:\n  pop\n  mload(0x40)\n  sub(codesize, bytecodeSize)\n  dup1\n  bytecodeSize\n  dup4\n  codecopy\n  dup2\n  dup2\n  add\n  0x40\n  mstore\n  0x0140\n  dup2\n  lt\n  iszero\n  tag_2\n  jumpi\n  0x00\n  dup1\n  revert\ntag_2:\n  dup2\n  add\n  swap1\n  dup1\n  dup1\n  mload\n  mload(0x40)\n  swap4\n  swap3\n  swap2\n  swap1\n  dup5\n  0x0100000000\n  dup3\n  gt\n  iszero\n  tag_3\n  jumpi\n  0x00\n  dup1\n  revert\ntag_3:\n  swap1\n  dup4\n  add\n  swap1\n  0x20\n  dup3\n  add\n  dup6\n  dup2\n  gt\n  iszero\n  tag_4\n  jumpi\n  0x00\n  dup1\n  revert\ntag_4:\n  dup3\n  mload\n  0x0100000000\n  dup2\n  gt\n  dup3\n  dup3\n  add\n  dup9\n  lt\n  or\n  iszero\n  tag_5\n  jumpi\n  0x00\n  dup1\n  revert\ntag_5:\n  dup3\n  mstore\n  pop\n  dup2\n  mload\n  0x20\n  swap2\n  dup3\n  add\n  swap3\n  swap1\n  swap2\n  add\n  swap1\n  dup1\n  dup4\n  dup4\n  0x00\ntag_6:\n  dup4\n  dup2\n  lt\n  iszero\n  tag_8\n  jumpi\n  dup2\n  dup2\n  add\n  mload\n  dup4\n  dup3\n  add\n  mstore\n  0x20\n  add\n  jump(tag_6)\ntag_8:\n  pop\n  pop\n  pop\n  pop\n  swap1\n  pop\n  swap1\n  dup2\n  add\n  swap1\n  0x1f\n  and\n  dup1\n  iszero\n  tag_9\n  jumpi\n  dup1\n  dup3\n  sub\n  dup1\n  mload\n  0x01\n  dup4\n  0x20\n  sub\n  0x0100\n  exp\n  sub\n  not\n  and\n  dup2\n  mstore\n  0x20\n  add\n  swap2\n  pop\ntag_9:\n  pop\n  0x40\n  mstore\n  0x20\n  add\n  dup1\n  mload\n  mload(0x40)\n  swap4\n  swap3\n  swap2\n  swap1\n  dup5\n  0x0100000000\n  dup3\n  gt\n  iszero\n  tag_10\n  jumpi\n  0x00\n  dup1\n  revert\ntag_10:\n  swap1\n  dup4\n  add\n  swap1\n  0x20\n  dup3\n  add\n  dup6\n  dup2\n  gt\n  iszero\n  tag_11\n  jumpi\n  0x00\n  dup1\n  revert\ntag_11:\n  dup3\n  mload\n  0x0100000000\n  dup2\n  gt\n  dup3\n  dup3\n  add\n  dup9\n  lt\n  or\n  iszero\n  tag_12\n  jumpi\n  0x00\n  dup1\n  revert\ntag_12:\n  dup3\n  mstore\n  pop\n  dup2\n  mload\n  0x20\n  swap2\n  dup3\n  add\n  swap3\n  swap1\n  swap2\n  add\n  swap1\n  dup1\n  dup4\n  dup4\n  0x00\ntag_13:\n  dup4\n  dup2\n  lt\n  iszero\n  tag_15\n  jumpi\n  dup2\n  dup2\n  add\n  mload\n  dup4\n  dup3\n  add\n  mstore\n  0x20\n  add\n  jump(tag_13)\ntag_15:\n  pop\n  pop\n  pop\n  pop\n  swap1\n  pop\n  swap1\n  dup2\n  add\n  swap1\n  0x1f\n  and\n  dup1\n  iszero\n  tag_16\n  jumpi\n  dup1\n  dup3\n  sub\n  dup1\n  mload\n  0x01\n  dup4\n  0x20\n  sub\n  0x0100\n  exp\n  sub\n  not\n  and\n  dup2\n  mstore\n  0x20\n  add\n  swap2\n  pop\ntag_16:\n  pop\n  0x40\n  swap1\n  dup2\n  mstore\n  0x20\n  dup3\n  dup2\n  add\n  mload\n  swap2\n  dup4\n  add\n  mload\n  0x60\n  dup5\n  add\n  mload\n  0x80\n  dup6\n  add\n  mload\n  0xa0\n  dup7\n  add\n  mload\n  0xc0\n  dup8\n  add\n  mload\n  0xe0\n  dup9\n  add\n  mload\n  0x0100\n  swap1\n  swap9\n  add\n  mload\n    /* \"sadc.sol\":27148:27161  _name = _NAME */\n  dup13\n  mload\n    /* \"sadc.sol\":26924:28278  constructor (string memory _NAME, string memory _SYMBOL, uint256 _DECIMALS, uint256 _supply, uint256 _txFee,uint256 _lpFee,uint256 _MAXAMOUNT,uint256 SELLMAXAMOUNT,address routerAddress,address tokenOwner) public {\r... */\n  swap8\n  swap11\n  pop\n  swap5\n  swap9\n  pop\n  swap3\n  swap7\n  swap2\n  swap6\n  swap1\n  swap5\n  swap3\n  swap4\n  swap2\n  swap3\n    /* \"sadc.sol\":27148:27161  _name = _NAME */\n  tag_19\n  swap2\n    /* \"sadc.sol\":27148:27153  _name */\n  0x0c\n  swap2\n    /* \"sadc.sol\":27148:27161  _name = _NAME */\n  dup14\n  add\n  swap1\n  tag_20\n  jump\t// in\ntag_19:\n  pop\n    /* \"sadc.sol\":27172:27189  _symbol = _SYMBOL */\n  dup9\n  mload\n  tag_21\n  swap1\n    /* \"sadc.sol\":27172:27179  _symbol */\n  0x0d\n  swap1\n    /* \"sadc.sol\":27172:27189  _symbol = _SYMBOL */\n  0x20\n  dup13\n  add\n  swap1\n  tag_20\n  jump\t// in\ntag_21:\n  pop\n    /* \"sadc.sol\":27200:27209  _decimals */\n  0x0e\n    /* \"sadc.sol\":27200:27221  _decimals = _DECIMALS */\n  dup9\n  swap1\n  sstore\n    /* \"sadc.sol\":27252:27254  10 */\n  0x0a\n    /* \"sadc.sol\":27252:27267  10 ** _decimals */\n  dup9\n  swap1\n  exp\n    /* \"sadc.sol\":27242:27267  _supply * 10 ** _decimals */\n  dup8\n  mul\n    /* \"sadc.sol\":27232:27239  _tTotal */\n  0x09\n    /* \"sadc.sol\":27232:27267  _tTotal = _supply * 10 ** _decimals */\n  dup2\n  swap1\n  sstore\n  not(0x00)\n    /* \"sadc.sol\":27242:27267  _supply * 10 ** _decimals */\n  dup2\n    /* \"sadc.sol\":27296:27309  MAX % _tTotal */\n  tag_22\n  jumpi\n  invalid\ntag_22:\n  mod\n    /* \"sadc.sol\":27289:27310  MAX - (MAX % _tTotal) */\n  not\n    /* \"sadc.sol\":27278:27285  _rTotal */\n  0x0a\n    /* \"sadc.sol\":27278:27311  _rTotal = (MAX - (MAX % _tTotal)) */\n  dup2\n  dup2\n  sstore\n    /* \"sadc.sol\":27322:27329  _taxFee */\n  0x0f\n    /* \"sadc.sol\":27322:27338  _taxFee = _txFee */\n  dup9\n  swap1\n  sstore\n    /* \"sadc.sol\":27349:27362  _liquidityFee */\n  0x11\n    /* \"sadc.sol\":27349:27371  _liquidityFee = _lpFee */\n  dup8\n  swap1\n  sstore\n    /* \"sadc.sol\":27382:27397  _previousTaxFee */\n  0x10\n    /* \"sadc.sol\":27382:27406  _previousTaxFee = _txFee */\n  dup9\n  swap1\n  sstore\n    /* \"sadc.sol\":27417:27438  _previousLiquidityFee */\n  0x12\n    /* \"sadc.sol\":27417:27447  _previousLiquidityFee = _lpFee */\n  dup8\n  swap1\n  sstore\n    /* \"sadc.sol\":27492:27501  _decimals */\n  sload(0x0e)\n    /* \"sadc.sol\":27486:27501  10 ** _decimals */\n  swap1\n  exp\n    /* \"sadc.sol\":27473:27501  _MAXAMOUNT * 10 ** _decimals */\n  dup6\n  dup2\n  mul\n    /* \"sadc.sol\":27458:27470  _maxTxAmount */\n  0x14\n    /* \"sadc.sol\":27458:27501  _maxTxAmount = _MAXAMOUNT * 10 ** _decimals */\n  sstore\n    /* \"sadc.sol\":27544:27575  SELLMAXAMOUNT * 10 ** _decimals */\n  dup5\n  mul\n    /* \"sadc.sol\":27512:27541  numTokensSellToAddToLiquidity */\n  0x15\n    /* \"sadc.sol\":27512:27575  numTokensSellToAddToLiquidity = SELLMAXAMOUNT * 10 ** _decimals */\n  sstore\n  sub(shl(0xa0, 0x01), 0x01)\n    /* \"sadc.sol\":27606:27625  _rOwned[tokenOwner] */\n  dup1\n  dup4\n  and\n    /* \"sadc.sol\":25907:25908  0 */\n  0x00\n    /* \"sadc.sol\":27606:27625  _rOwned[tokenOwner] */\n  swap1\n  dup2\n  mstore\n    /* \"sadc.sol\":27606:27613  _rOwned */\n  0x03\n    /* \"sadc.sol\":27606:27625  _rOwned[tokenOwner] */\n  0x20\n  swap1\n  dup2\n  mstore\n  0x40\n  swap2\n  dup3\n  swap1\n  keccak256\n    /* \"sadc.sol\":27606:27635  _rOwned[tokenOwner] = _rTotal */\n  swap4\n  swap1\n  swap4\n  sstore\n    /* \"sadc.sol\":27826:27852  _uniswapV2Router.factory() */\n  dup1\n  mload\n  shl(0xe0, 0xc45a0155)\n  dup2\n  mstore\n  swap1\n  mload\n    /* \"sadc.sol\":27713:27726  routerAddress */\n  dup6\n  swap4\n    /* \"sadc.sol\":27826:27850  _uniswapV2Router.factory */\n  swap3\n  dup5\n  and\n  swap3\n  0xc45a0155\n  swap3\n    /* \"sadc.sol\":27826:27852  _uniswapV2Router.factory() */\n  0x04\n  dup1\n  dup3\n  add\n  swap4\n  swap2\n  dup3\n  swap1\n  sub\n  add\n  dup2\n    /* \"sadc.sol\":27826:27850  _uniswapV2Router.factory */\n  dup7\n    /* \"sadc.sol\":27826:27852  _uniswapV2Router.factory() */\n  dup1\n  extcodesize\n  iszero\n  dup1\n  iszero\n  tag_23\n  jumpi\n  0x00\n  dup1\n  revert\ntag_23:\n  pop\n  gas\n  staticcall\n  iszero\n  dup1\n  iszero\n  tag_25\n  jumpi\n  returndatasize\n  0x00\n  dup1\n  returndatacopy\n  revert(0x00, returndatasize)\ntag_25:\n  pop\n  pop\n  pop\n  pop\n  mload(0x40)\n  returndatasize\n  0x20\n  dup2\n  lt\n  iszero\n  tag_26\n  jumpi\n  0x00\n  dup1\n  revert\ntag_26:\n  pop\n  mload\n    /* \"sadc.sol\":27894:27917  _uniswapV2Router.WETH() */\n  0x40\n  dup1\n  mload\n  shl(0xe3, 0x15ab88c9)\n  dup2\n  mstore\n  swap1\n  mload\n  sub(shl(0xa0, 0x01), 0x01)\n    /* \"sadc.sol\":27808:27878  IUniswapV2Factory(_uniswapV2Router.factory())\r... */\n  swap3\n  dup4\n  and\n  swap3\n  0xc9c65396\n  swap3\n    /* \"sadc.sol\":27887:27891  this */\n  address\n  swap3\n    /* \"sadc.sol\":27894:27915  _uniswapV2Router.WETH */\n  swap2\n  dup7\n  and\n  swap2\n  0xad5c4648\n  swap2\n    /* \"sadc.sol\":27894:27917  _uniswapV2Router.WETH() */\n  0x04\n  dup1\n  dup3\n  add\n  swap3\n    /* \"sadc.sol\":27826:27852  _uniswapV2Router.factory() */\n  0x20\n  swap3\n    /* \"sadc.sol\":27894:27917  _uniswapV2Router.WETH() */\n  swap1\n  swap2\n  swap1\n  dup3\n  swap1\n  sub\n  add\n  dup2\n    /* \"sadc.sol\":27894:27915  _uniswapV2Router.WETH */\n  dup7\n    /* \"sadc.sol\":27894:27917  _uniswapV2Router.WETH() */\n  dup1\n  extcodesize\n  iszero\n  dup1\n  iszero\n  tag_27\n  jumpi\n  0x00\n  dup1\n  revert\ntag_27:\n  pop\n  gas\n  staticcall\n  iszero\n  dup1\n  iszero\n  tag_29\n  jumpi\n  returndatasize\n  0x00\n  dup1\n  returndatacopy\n  revert(0x00, returndatasize)\ntag_29:\n  pop\n  pop\n  pop\n  pop\n  mload(0x40)\n  returndatasize\n  0x20\n  dup2\n  lt\n  iszero\n  tag_30\n  jumpi\n  0x00\n  dup1\n  revert\ntag_30:\n  pop\n  mload\n    /* \"sadc.sol\":27808:27918  IUniswapV2Factory(_uniswapV2Router.factory())\r... */\n  0x40\n  dup1\n  mload\n  not(sub(shl(0xe0, 0x01), 0x01))\n  0xe0\n  dup7\n  swap1\n  shl\n  and\n  dup2\n  mstore\n  sub(shl(0xa0, 0x01), 0x01)\n  swap4\n  dup5\n  and\n  0x04\n  dup3\n  add\n  mstore\n  swap3\n  swap1\n  swap2\n  and\n  0x24\n  dup4\n  add\n  mstore\n  mload\n  0x44\n  dup1\n  dup4\n  add\n  swap3\n    /* \"sadc.sol\":27894:27917  _uniswapV2Router.WETH() */\n  0x20\n  swap3\n    /* \"sadc.sol\":27808:27918  IUniswapV2Factory(_uniswapV2Router.factory())\r... */\n  swap2\n  swap1\n  dup3\n  swap1\n  sub\n  add\n  dup2\n  0x00\n  dup8\n  dup1\n  extcodesize\n  iszero\n  dup1\n  iszero\n  tag_31\n  jumpi\n  0x00\n  dup1\n  revert\ntag_31:\n  pop\n  gas\n  call\n  iszero\n  dup1\n  iszero\n  tag_33\n  jumpi\n  returndatasize\n  0x00\n  dup1\n  returndatacopy\n  revert(0x00, returndatasize)\ntag_33:\n  pop\n  pop\n  pop\n  pop\n  mload(0x40)\n  returndatasize\n  0x20\n  dup2\n  lt\n  iszero\n  tag_34\n  jumpi\n  0x00\n  dup1\n  revert\ntag_34:\n  pop\n  mload\n  not(sub(shl(0x60, 0x01), 0x01))\n    /* \"sadc.sol\":27792:27918  uniswapV2Pair = IUniswapV2Factory(_uniswapV2Router.factory())\r... */\n  0x60\n  swap2\n  dup3\n  shl\n  dup2\n  and\n  0xa0\n  mstore\n    /* \"sadc.sol\":27982:28016  uniswapV2Router = _uniswapV2Router */\n  swap1\n  dup3\n  swap1\n  shl\n  and\n  0x80\n  mstore\n  sub(shl(0xa0, 0x01), 0x01)\n    /* \"sadc.sol\":28089:28119  _isExcludedFromFee[tokenOwner] */\n  dup3\n  and\n  0x00\n  dup2\n  dup2\n  mstore\n    /* \"sadc.sol\":28089:28107  _isExcludedFromFee */\n  0x06\n    /* \"sadc.sol\":27808:27918  IUniswapV2Factory(_uniswapV2Router.factory())\r... */\n  0x20\n    /* \"sadc.sol\":28089:28119  _isExcludedFromFee[tokenOwner] */\n  swap1\n  dup2\n  mstore\n  0x40\n  dup1\n  dup4\n  keccak256\n    /* \"sadc.sol\":28089:28126  _isExcludedFromFee[tokenOwner] = true */\n  dup1\n  sload\n  not(0xff)\n  swap1\n  dup2\n  and\n    /* \"sadc.sol\":28122:28126  true */\n  0x01\n    /* \"sadc.sol\":28089:28126  _isExcludedFromFee[tokenOwner] = true */\n  swap1\n  dup2\n  or\n  swap1\n  swap3\n  sstore\n    /* \"sadc.sol\":28164:28168  this */\n  address\n    /* \"sadc.sol\":28137:28170  _isExcludedFromFee[address(this)] */\n  dup6\n  mstore\n  dup3\n  dup6\n  keccak256\n    /* \"sadc.sol\":28137:28177  _isExcludedFromFee[address(this)] = true */\n  dup1\n  sload\n  swap1\n  swap2\n  and\n  swap1\n  swap2\n  or\n  swap1\n  sstore\n    /* \"sadc.sol\":28194:28213  _owner = tokenOwner */\n  dup3\n  sload\n  not(sub(shl(0xa0, 0x01), 0x01))\n  and\n  dup5\n  or\n  dup4\n  sstore\n    /* \"sadc.sol\":28262:28269  _tTotal */\n  sload(0x09)\n    /* \"sadc.sol\":28229:28270  Transfer(address(0), tokenOwner, _tTotal) */\n  dup2\n  mload\n  swap1\n  dup2\n  mstore\n  swap1\n  mload\n  0xddf252ad1be2c89b69c2b068fc378daa952ba7f163c4a11628f55a4df523b3ef\n  swap3\n  swap2\n  dup2\n  swap1\n  sub\n  swap1\n  swap2\n  add\n  swap1\n  log3\n    /* \"sadc.sol\":26924:28278  constructor (string memory _NAME, string memory _SYMBOL, uint256 _DECIMALS, uint256 _supply, uint256 _txFee,uint256 _lpFee,uint256 _MAXAMOUNT,uint256 SELLMAXAMOUNT,address routerAddress,address tokenOwner) public {\r... */\n  pop\n  pop\n  pop\n  pop\n  pop\n  pop\n  pop\n  pop\n  pop\n  pop\n  pop\n    /* \"sadc.sol\":25414:44521  contract CoinToken is Context, IERC20, Ownable {\r... */\n  jump(tag_35)\ntag_20:\n  dup3\n  dup1\n  sload\n  0x01\n  dup2\n  0x01\n  and\n  iszero\n  0x0100\n  mul\n  sub\n  and\n  0x02\n  swap1\n  div\n  swap1\n  0x00\n  mstore\n  keccak256(0x00, 0x20)\n  swap1\n  0x1f\n  add\n  0x20\n  swap1\n  div\n  dup2\n  add\n  swap3\n  dup3\n  0x1f\n  lt\n  tag_37\n  jumpi\n  dup1\n  mload\n  not(0xff)\n  and\n  dup4\n  dup1\n  add\n  or\n  dup6\n  sstore\n  jump(tag_39)\ntag_37:\n  dup3\n  dup1\n  add\n  0x01\n  add\n  dup6\n  sstore\n  dup3\n  iszero\n  tag_39\n  jumpi\n  swap2\n  dup3\n  add\ntag_38:\n  dup3\n  dup2\n  gt\n  iszero\n  tag_39\n  jumpi\n  dup3\n  mload\n  dup3\n  sstore\n  swap2\n  0x20\n  add\n  swap2\n  swap1\n  0x01\n  add\n  swap1\n  jump(tag_38)\ntag_39:\n  pop\n  tag_40\n  swap3\n  swap2\n  pop\n  tag_41\n  jump\t// in\ntag_40:\n  pop\n  swap1\n  jump\t// out\ntag_41:\ntag_42:\n  dup1\n  dup3\n  gt\n  iszero\n  tag_40\n  jumpi\n  0x00\n  dup2\n  sstore\n  0x01\n  add\n  jump(tag_42)\ntag_35:\n  shr(0x60, mload(0x80))\n  shr(0x60, mload(0xa0))\n  codecopy(0x00, dataOffset(sub_0), dataSize(sub_0))\n  assignImmutable(\"0xf17089ced8c0c2239e63f2bbb45b3ebcf864ae70eb1ca01545337030cdeed50a\")\n  assignImmutable(\"0x373ab5f6f5686eaf15420a778a209383e0ee0196a782fa3fd3ec96f326a92e6e\")\n  return(0x00, dataSize(sub_0))\nstop\n\nsub_0: assembly {\n        /* \"sadc.sol\":25414:44521  contract CoinToken is Context, IERC20, Ownable {\r... */\n      mstore(0x40, 0x80)\n      jumpi(tag_1, lt(calldatasize, 0x04))\n      shr(0xe0, calldataload(0x00))\n      dup1\n      0x6bc87c3a\n      gt\n      tag_44\n      jumpi\n      dup1\n      0xa9059cbb\n      gt\n      tag_45\n      jumpi\n      dup1\n      0xd543dbeb\n      gt\n      tag_46\n      jumpi\n      dup1\n      0xd543dbeb\n      eq\n      tag_38\n      jumpi\n      dup1\n      0xdd467064\n      eq\n      tag_39\n      jumpi\n      dup1\n      0xdd62ed3e\n      eq\n      tag_40\n      jumpi\n      dup1\n      0xea2f0b37\n      eq\n      tag_41\n      jumpi\n      dup1\n      0xf0f165af\n      eq\n      tag_42\n      jumpi\n      dup1\n      0xf2fde38b\n      eq\n      tag_43\n      jumpi\n      jump(tag_2)\n    tag_46:\n      dup1\n      0xa9059cbb\n      eq\n      tag_33\n      jumpi\n      dup1\n      0xb2bdfa7b\n      eq\n      tag_34\n      jumpi\n      dup1\n      0xb6c52324\n      eq\n      tag_35\n      jumpi\n      dup1\n      0xc49b9a80\n      eq\n      tag_36\n      jumpi\n      dup1\n      0xd12a7688\n      eq\n      tag_37\n      jumpi\n      jump(tag_2)\n    tag_45:\n      dup1\n      0x8da5cb5b\n      gt\n      tag_47\n      jumpi\n      dup1\n      0x8da5cb5b\n      eq\n      tag_28\n      jumpi\n      dup1\n      0x8ee88c53\n      eq\n      tag_29\n      jumpi\n      dup1\n      0x95d89b41\n      eq\n      tag_30\n      jumpi\n      dup1\n      0xa457c2d7\n      eq\n      tag_31\n      jumpi\n      dup1\n      0xa69df4b5\n      eq\n      tag_32\n      jumpi\n      jump(tag_2)\n    tag_47:\n      dup1\n      0x6bc87c3a\n      eq\n      tag_23\n      jumpi\n      dup1\n      0x70a08231\n      eq\n      tag_24\n      jumpi\n      dup1\n      0x715018a6\n      eq\n      tag_25\n      jumpi\n      dup1\n      0x7d1db4a5\n      eq\n      tag_26\n      jumpi\n      dup1\n      0x88f82020\n      eq\n      tag_27\n      jumpi\n      jump(tag_2)\n    tag_44:\n      dup1\n      0x39509351\n      gt\n      tag_48\n      jumpi\n      dup1\n      0x48c54b9d\n      gt\n      tag_49\n      jumpi\n      dup1\n      0x48c54b9d\n      eq\n      tag_18\n      jumpi\n      dup1\n      0x49bd5a5e\n      eq\n      tag_19\n      jumpi\n      dup1\n      0x4a74bb02\n      eq\n      tag_20\n      jumpi\n      dup1\n      0x52390c02\n      eq\n      tag_21\n      jumpi\n      dup1\n      0x5342acb4\n      eq\n      tag_22\n      jumpi\n      jump(tag_2)\n    tag_49:\n      dup1\n      0x39509351\n      eq\n      tag_13\n      jumpi\n      dup1\n      0x3b124fe7\n      eq\n      tag_14\n      jumpi\n      dup1\n      0x3bd5d173\n      eq\n      tag_15\n      jumpi\n      dup1\n      0x437823ec\n      eq\n      tag_16\n      jumpi\n      dup1\n      0x4549b039\n      eq\n      tag_17\n      jumpi\n      jump(tag_2)\n    tag_48:\n      dup1\n      0x18160ddd\n      gt\n      tag_50\n      jumpi\n      dup1\n      0x18160ddd\n      eq\n      tag_8\n      jumpi\n      dup1\n      0x23b872dd\n      eq\n      tag_9\n      jumpi\n      dup1\n      0x2d838119\n      eq\n      tag_10\n      jumpi\n      dup1\n      0x313ce567\n      eq\n      tag_11\n      jumpi\n      dup1\n      0x3685d419\n      eq\n      tag_12\n      jumpi\n      jump(tag_2)\n    tag_50:\n      dup1\n      0x061c82d0\n      eq\n      tag_3\n      jumpi\n      dup1\n      0x06fdde03\n      eq\n      tag_4\n      jumpi\n      dup1\n      0x095ea7b3\n      eq\n      tag_5\n      jumpi\n      dup1\n      0x13114a9d\n      eq\n      tag_6\n      jumpi\n      dup1\n      0x1694505e\n      eq\n      tag_7\n      jumpi\n      jump(tag_2)\n    tag_1:\n      jumpi(tag_2, calldatasize)\n      stop\n    tag_2:\n      0x00\n      dup1\n      revert\n        /* \"sadc.sol\":33351:33449  function setTaxFeePercent(uint256 taxFee) external onlyOwner() {\r... */\n    tag_3:\n      callvalue\n      dup1\n      iszero\n      tag_53\n      jumpi\n      0x00\n      dup1\n      revert\n    tag_53:\n      pop\n      tag_54\n      0x04\n      dup1\n      calldatasize\n      sub\n      0x20\n      dup2\n      lt\n      iszero\n      tag_55\n      jumpi\n      0x00\n      dup1\n      revert\n    tag_55:\n      pop\n      calldataload\n      tag_56\n      jump\t// in\n    tag_54:\n      stop\n        /* \"sadc.sol\":28288:28371  function name() public view returns (string memory) {\r... */\n    tag_4:\n      callvalue\n      dup1\n      iszero\n      tag_57\n      jumpi\n      0x00\n      dup1\n      revert\n    tag_57:\n      pop\n      tag_58\n      tag_59\n      jump\t// in\n    tag_58:\n      0x40\n      dup1\n      mload\n      0x20\n      dup1\n      dup3\n      mstore\n      dup4\n      mload\n      dup2\n      dup4\n      add\n      mstore\n      dup4\n      mload\n      swap2\n      swap3\n      dup4\n      swap3\n      swap1\n      dup4\n      add\n      swap2\n      dup6\n      add\n      swap1\n      dup1\n      dup4\n      dup4\n      0x00\n    tag_60:\n      dup4\n      dup2\n      lt\n      iszero\n      tag_62\n      jumpi\n      dup2\n      dup2\n      add\n      mload\n      dup4\n      dup3\n      add\n      mstore\n      0x20\n      add\n      jump(tag_60)\n    tag_62:\n      pop\n      pop\n      pop\n      pop\n      swap1\n      pop\n      swap1\n      dup2\n      add\n      swap1\n      0x1f\n      and\n      dup1\n      iszero\n      tag_63\n      jumpi\n      dup1\n      dup3\n      sub\n      dup1\n      mload\n      0x01\n      dup4\n      0x20\n      sub\n      0x0100\n      exp\n      sub\n      not\n      and\n      dup2\n      mstore\n      0x20\n      add\n      swap2\n      pop\n    tag_63:\n      pop\n      swap3\n      pop\n      pop\n      pop\n      mload(0x40)\n      dup1\n      swap2\n      sub\n      swap1\n      return\n        /* \"sadc.sol\":29202:29363  function approve(address spender, uint256 amount) public override returns (bool) {\r... */\n    tag_5:\n      callvalue\n      dup1\n      iszero\n      tag_64\n      jumpi\n      0x00\n      dup1\n      revert\n    tag_64:\n      pop\n      tag_65\n      0x04\n      dup1\n      calldatasize\n      sub\n      0x40\n      dup2\n      lt\n      iszero\n      tag_66\n      jumpi\n      0x00\n      dup1\n      revert\n    tag_66:\n      pop\n      sub(shl(0xa0, 0x01), 0x01)\n      dup2\n      calldataload\n      and\n      swap1\n      0x20\n      add\n      calldataload\n      tag_67\n      jump\t// in\n    tag_65:\n      0x40\n      dup1\n      mload\n      swap2\n      iszero\n      iszero\n      dup3\n      mstore\n      mload\n      swap1\n      dup2\n      swap1\n      sub\n      0x20\n      add\n      swap1\n      return\n        /* \"sadc.sol\":30323:30410  function totalFees() public view returns (uint256) {\r... */\n    tag_6:\n      callvalue\n      dup1\n      iszero\n      tag_68\n      jumpi\n      0x00\n      dup1\n      revert\n    tag_68:\n      pop\n      tag_69\n      tag_70\n      jump\t// in\n    tag_69:\n      0x40\n      dup1\n      mload\n      swap2\n      dup3\n      mstore\n      mload\n      swap1\n      dup2\n      swap1\n      sub\n      0x20\n      add\n      swap1\n      return\n        /* \"sadc.sol\":26259:26310  IUniswapV2Router02 public immutable uniswapV2Router */\n    tag_7:\n      callvalue\n      dup1\n      iszero\n      tag_71\n      jumpi\n      0x00\n      dup1\n      revert\n    tag_71:\n      pop\n      tag_72\n      tag_73\n      jump\t// in\n    tag_72:\n      0x40\n      dup1\n      mload\n      sub(shl(0xa0, 0x01), 0x01)\n      swap1\n      swap3\n      and\n      dup3\n      mstore\n      mload\n      swap1\n      dup2\n      swap1\n      sub\n      0x20\n      add\n      swap1\n      return\n        /* \"sadc.sol\":28567:28662  function totalSupply() public view override returns (uint256) {\r... */\n    tag_8:\n      callvalue\n      dup1\n      iszero\n      tag_74\n      jumpi\n      0x00\n      dup1\n      revert\n    tag_74:\n      pop\n      tag_69\n      tag_76\n      jump\t// in\n        /* \"sadc.sol\":29371:29684  function transferFrom(address sender, address recipient, uint256 amount) public override returns (bool) {\r... */\n    tag_9:\n      callvalue\n      dup1\n      iszero\n      tag_77\n      jumpi\n      0x00\n      dup1\n      revert\n    tag_77:\n      pop\n      tag_65\n      0x04\n      dup1\n      calldatasize\n      sub\n      0x60\n      dup2\n      lt\n      iszero\n      tag_79\n      jumpi\n      0x00\n      dup1\n      revert\n    tag_79:\n      pop\n      sub(shl(0xa0, 0x01), 0x01)\n      dup2\n      calldataload\n      dup2\n      and\n      swap2\n      0x20\n      dup2\n      add\n      calldataload\n      swap1\n      swap2\n      and\n      swap1\n      0x40\n      add\n      calldataload\n      tag_80\n      jump\t// in\n        /* \"sadc.sol\":31247:31500  function tokenFromReflection(uint256 rAmount) public view returns(uint256) {\r... */\n    tag_10:\n      callvalue\n      dup1\n      iszero\n      tag_81\n      jumpi\n      0x00\n      dup1\n      revert\n    tag_81:\n      pop\n      tag_69\n      0x04\n      dup1\n      calldatasize\n      sub\n      0x20\n      dup2\n      lt\n      iszero\n      tag_83\n      jumpi\n      0x00\n      dup1\n      revert\n    tag_83:\n      pop\n      calldataload\n      tag_84\n      jump\t// in\n        /* \"sadc.sol\":28474:28559  function decimals() public view returns (uint256) {\r... */\n    tag_11:\n      callvalue\n      dup1\n      iszero\n      tag_85\n      jumpi\n      0x00\n      dup1\n      revert\n    tag_85:\n      pop\n      tag_69\n      tag_87\n      jump\t// in\n        /* \"sadc.sol\":31963:32442  function includeInReward(address account) external onlyOwner() {\r... */\n    tag_12:\n      callvalue\n      dup1\n      iszero\n      tag_88\n      jumpi\n      0x00\n      dup1\n      revert\n    tag_88:\n      pop\n      tag_54\n      0x04\n      dup1\n      calldatasize\n      sub\n      0x20\n      dup2\n      lt\n      iszero\n      tag_90\n      jumpi\n      0x00\n      dup1\n      revert\n    tag_90:\n      pop\n      calldataload\n      sub(shl(0xa0, 0x01), 0x01)\n      and\n      tag_91\n      jump\t// in\n        /* \"sadc.sol\":29692:29910  function increaseAllowance(address spender, uint256 addedValue) public virtual returns (bool) {\r... */\n    tag_13:\n      callvalue\n      dup1\n      iszero\n      tag_92\n      jumpi\n      0x00\n      dup1\n      revert\n    tag_92:\n      pop\n      tag_65\n      0x04\n      dup1\n      calldatasize\n      sub\n      0x40\n      dup2\n      lt\n      iszero\n      tag_94\n      jumpi\n      0x00\n      dup1\n      revert\n    tag_94:\n      pop\n      sub(shl(0xa0, 0x01), 0x01)\n      dup2\n      calldataload\n      and\n      swap1\n      0x20\n      add\n      calldataload\n      tag_95\n      jump\t// in\n        /* \"sadc.sol\":26105:26127  uint256 public _taxFee */\n    tag_14:\n      callvalue\n      dup1\n      iszero\n      tag_96\n      jumpi\n      0x00\n      dup1\n      revert\n    tag_96:\n      pop\n      tag_69\n      tag_98\n      jump\t// in\n        /* \"sadc.sol\":30418:30795  function deliver(uint256 tAmount) public {\r... */\n    tag_15:\n      callvalue\n      dup1\n      iszero\n      tag_99\n      jumpi\n      0x00\n      dup1\n      revert\n    tag_99:\n      pop\n      tag_54\n      0x04\n      dup1\n      calldatasize\n      sub\n      0x20\n      dup2\n      lt\n      iszero\n      tag_101\n      jumpi\n      0x00\n      dup1\n      revert\n    tag_101:\n      pop\n      calldataload\n      tag_102\n      jump\t// in\n        /* \"sadc.sol\":33106:33217  function excludeFromFee(address account) public onlyOwner {\r... */\n    tag_16:\n      callvalue\n      dup1\n      iszero\n      tag_103\n      jumpi\n      0x00\n      dup1\n      revert\n    tag_103:\n      pop\n      tag_54\n      0x04\n      dup1\n      calldatasize\n      sub\n      0x20\n      dup2\n      lt\n      iszero\n      tag_105\n      jumpi\n      0x00\n      dup1\n      revert\n    tag_105:\n      pop\n      calldataload\n      sub(shl(0xa0, 0x01), 0x01)\n      and\n      tag_106\n      jump\t// in\n        /* \"sadc.sol\":30803:31239  function reflectionFromToken(uint256 tAmount, bool deductTransferFee) public view returns(uint256) {\r... */\n    tag_17:\n      callvalue\n      dup1\n      iszero\n      tag_107\n      jumpi\n      0x00\n      dup1\n      revert\n    tag_107:\n      pop\n      tag_69\n      0x04\n      dup1\n      calldatasize\n      sub\n      0x40\n      dup2\n      lt\n      iszero\n      tag_109\n      jumpi\n      0x00\n      dup1\n      revert\n    tag_109:\n      pop\n      dup1\n      calldataload\n      swap1\n      0x20\n      add\n      calldataload\n      iszero\n      iszero\n      tag_110\n      jump\t// in\n        /* \"sadc.sol\":36652:36762  function claimTokens() public onlyOwner {\r... */\n    tag_18:\n      callvalue\n      dup1\n      iszero\n      tag_111\n      jumpi\n      0x00\n      dup1\n      revert\n    tag_111:\n      pop\n      tag_54\n      tag_113\n      jump\t// in\n        /* \"sadc.sol\":26317:26355  address public immutable uniswapV2Pair */\n    tag_19:\n      callvalue\n      dup1\n      iszero\n      tag_114\n      jumpi\n      0x00\n      dup1\n      revert\n    tag_114:\n      pop\n      tag_72\n      tag_116\n      jump\t// in\n        /* \"sadc.sol\":26396:26436  bool public swapAndLiquifyEnabled = true */\n    tag_20:\n      callvalue\n      dup1\n      iszero\n      tag_117\n      jumpi\n      0x00\n      dup1\n      revert\n    tag_117:\n      pop\n      tag_65\n      tag_119\n      jump\t// in\n        /* \"sadc.sol\":31508:31955  function excludeFromReward(address account) public onlyOwner() {\r... */\n    tag_21:\n      callvalue\n      dup1\n      iszero\n      tag_120\n      jumpi\n      0x00\n      dup1\n      revert\n    tag_120:\n      pop\n      tag_54\n      0x04\n      dup1\n      calldatasize\n      sub\n      0x20\n      dup2\n      lt\n      iszero\n      tag_122\n      jumpi\n      0x00\n      dup1\n      revert\n    tag_122:\n      pop\n      calldataload\n      sub(shl(0xa0, 0x01), 0x01)\n      and\n      tag_123\n      jump\t// in\n        /* \"sadc.sol\":37513:37636  function isExcludedFromFee(address account) public view returns(bool) {\r... */\n    tag_22:\n      callvalue\n      dup1\n      iszero\n      tag_124\n      jumpi\n      0x00\n      dup1\n      revert\n    tag_124:\n      pop\n      tag_65\n      0x04\n      dup1\n      calldatasize\n      sub\n      0x20\n      dup2\n      lt\n      iszero\n      tag_126\n      jumpi\n      0x00\n      dup1\n      revert\n    tag_126:\n      pop\n      calldataload\n      sub(shl(0xa0, 0x01), 0x01)\n      and\n      tag_127\n      jump\t// in\n        /* \"sadc.sol\":26178:26206  uint256 public _liquidityFee */\n    tag_23:\n      callvalue\n      dup1\n      iszero\n      tag_128\n      jumpi\n      0x00\n      dup1\n      revert\n    tag_128:\n      pop\n      tag_69\n      tag_130\n      jump\t// in\n        /* \"sadc.sol\":28670:28868  function balanceOf(address account) public view override returns (uint256) {\r... */\n    tag_24:\n      callvalue\n      dup1\n      iszero\n      tag_131\n      jumpi\n      0x00\n      dup1\n      revert\n    tag_131:\n      pop\n      tag_69\n      0x04\n      dup1\n      calldatasize\n      sub\n      0x20\n      dup2\n      lt\n      iszero\n      tag_133\n      jumpi\n      0x00\n      dup1\n      revert\n    tag_133:\n      pop\n      calldataload\n      sub(shl(0xa0, 0x01), 0x01)\n      and\n      tag_134\n      jump\t// in\n        /* \"sadc.sol\":16009:16157  function renounceOwnership() public virtual onlyOwner {\r... */\n    tag_25:\n      callvalue\n      dup1\n      iszero\n      tag_135\n      jumpi\n      0x00\n      dup1\n      revert\n    tag_135:\n      pop\n      tag_54\n      tag_137\n      jump\t// in\n        /* \"sadc.sol\":26449:26476  uint256 public _maxTxAmount */\n    tag_26:\n      callvalue\n      dup1\n      iszero\n      tag_138\n      jumpi\n      0x00\n      dup1\n      revert\n    tag_138:\n      pop\n      tag_69\n      tag_140\n      jump\t// in\n        /* \"sadc.sol\":30195:30315  function isExcludedFromReward(address account) public view returns (bool) {\r... */\n    tag_27:\n      callvalue\n      dup1\n      iszero\n      tag_141\n      jumpi\n      0x00\n      dup1\n      revert\n    tag_141:\n      pop\n      tag_65\n      0x04\n      dup1\n      calldatasize\n      sub\n      0x20\n      dup2\n      lt\n      iszero\n      tag_143\n      jumpi\n      0x00\n      dup1\n      revert\n    tag_143:\n      pop\n      calldataload\n      sub(shl(0xa0, 0x01), 0x01)\n      and\n      tag_144\n      jump\t// in\n        /* \"sadc.sol\":15366:15445  function owner() public view returns (address) {\r... */\n    tag_28:\n      callvalue\n      dup1\n      iszero\n      tag_145\n      jumpi\n      0x00\n      dup1\n      revert\n    tag_145:\n      pop\n      tag_72\n      tag_147\n      jump\t// in\n        /* \"sadc.sol\":33461:33583  function setLiquidityFeePercent(uint256 liquidityFee) external onlyOwner() {\r... */\n    tag_29:\n      callvalue\n      dup1\n      iszero\n      tag_148\n      jumpi\n      0x00\n      dup1\n      revert\n    tag_148:\n      pop\n      tag_54\n      0x04\n      dup1\n      calldatasize\n      sub\n      0x20\n      dup2\n      lt\n      iszero\n      tag_150\n      jumpi\n      0x00\n      dup1\n      revert\n    tag_150:\n      pop\n      calldataload\n      tag_151\n      jump\t// in\n        /* \"sadc.sol\":28379:28466  function symbol() public view returns (string memory) {\r... */\n    tag_30:\n      callvalue\n      dup1\n      iszero\n      tag_152\n      jumpi\n      0x00\n      dup1\n      revert\n    tag_152:\n      pop\n      tag_58\n      tag_154\n      jump\t// in\n        /* \"sadc.sol\":29918:30187  function decreaseAllowance(address spender, uint256 subtractedValue) public virtual returns (bool) {\r... */\n    tag_31:\n      callvalue\n      dup1\n      iszero\n      tag_159\n      jumpi\n      0x00\n      dup1\n      revert\n    tag_159:\n      pop\n      tag_65\n      0x04\n      dup1\n      calldatasize\n      sub\n      0x40\n      dup2\n      lt\n      iszero\n      tag_161\n      jumpi\n      0x00\n      dup1\n      revert\n    tag_161:\n      pop\n      sub(shl(0xa0, 0x01), 0x01)\n      dup2\n      calldataload\n      and\n      swap1\n      0x20\n      add\n      calldataload\n      tag_162\n      jump\t// in\n        /* \"sadc.sol\":17019:17312  function unlock() public virtual {\r... */\n    tag_32:\n      callvalue\n      dup1\n      iszero\n      tag_163\n      jumpi\n      0x00\n      dup1\n      revert\n    tag_163:\n      pop\n      tag_54\n      tag_165\n      jump\t// in\n        /* \"sadc.sol\":28876:29043  function transfer(address recipient, uint256 amount) public override returns (bool) {\r... */\n    tag_33:\n      callvalue\n      dup1\n      iszero\n      tag_166\n      jumpi\n      0x00\n      dup1\n      revert\n    tag_166:\n      pop\n      tag_65\n      0x04\n      dup1\n      calldatasize\n      sub\n      0x40\n      dup2\n      lt\n      iszero\n      tag_168\n      jumpi\n      0x00\n      dup1\n      revert\n    tag_168:\n      pop\n      sub(shl(0xa0, 0x01), 0x01)\n      dup2\n      calldataload\n      and\n      swap1\n      0x20\n      add\n      calldataload\n      tag_169\n      jump\t// in\n        /* \"sadc.sol\":15100:15121  address public _owner */\n    tag_34:\n      callvalue\n      dup1\n      iszero\n      tag_170\n      jumpi\n      0x00\n      dup1\n      revert\n    tag_170:\n      pop\n      tag_72\n      tag_172\n      jump\t// in\n        /* \"sadc.sol\":16564:16653  function geUnlockTime() public view returns (uint256) {\r... */\n    tag_35:\n      callvalue\n      dup1\n      iszero\n      tag_173\n      jumpi\n      0x00\n      dup1\n      revert\n    tag_173:\n      pop\n      tag_69\n      tag_175\n      jump\t// in\n        /* \"sadc.sol\":33901:34072  function setSwapAndLiquifyEnabled(bool _enabled) public onlyOwner {\r... */\n    tag_36:\n      callvalue\n      dup1\n      iszero\n      tag_176\n      jumpi\n      0x00\n      dup1\n      revert\n    tag_176:\n      pop\n      tag_54\n      0x04\n      dup1\n      calldatasize\n      sub\n      0x20\n      dup2\n      lt\n      iszero\n      tag_178\n      jumpi\n      0x00\n      dup1\n      revert\n    tag_178:\n      pop\n      calldataload\n      iszero\n      iszero\n      tag_179\n      jump\t// in\n        /* \"sadc.sol\":26483:26527  uint256 public numTokensSellToAddToLiquidity */\n    tag_37:\n      callvalue\n      dup1\n      iszero\n      tag_180\n      jumpi\n      0x00\n      dup1\n      revert\n    tag_180:\n      pop\n      tag_69\n      tag_182\n      jump\t// in\n        /* \"sadc.sol\":33764:33893  function setMaxTxPercent(uint256 maxTxPercent) public onlyOwner {\r... */\n    tag_38:\n      callvalue\n      dup1\n      iszero\n      tag_183\n      jumpi\n      0x00\n      dup1\n      revert\n    tag_183:\n      pop\n      tag_54\n      0x04\n      dup1\n      calldatasize\n      sub\n      0x20\n      dup2\n      lt\n      iszero\n      tag_185\n      jumpi\n      0x00\n      dup1\n      revert\n    tag_185:\n      pop\n      calldataload\n      tag_186\n      jump\t// in\n        /* \"sadc.sol\":16729:16943  function lock(uint256 time) public virtual onlyOwner {\r... */\n    tag_39:\n      callvalue\n      dup1\n      iszero\n      tag_187\n      jumpi\n      0x00\n      dup1\n      revert\n    tag_187:\n      pop\n      tag_54\n      0x04\n      dup1\n      calldatasize\n      sub\n      0x20\n      dup2\n      lt\n      iszero\n      tag_189\n      jumpi\n      0x00\n      dup1\n      revert\n    tag_189:\n      pop\n      calldataload\n      tag_190\n      jump\t// in\n        /* \"sadc.sol\":29051:29194  function allowance(address owner, address spender) public view override returns (uint256) {\r... */\n    tag_40:\n      callvalue\n      dup1\n      iszero\n      tag_191\n      jumpi\n      0x00\n      dup1\n      revert\n    tag_191:\n      pop\n      tag_69\n      0x04\n      dup1\n      calldatasize\n      sub\n      0x40\n      dup2\n      lt\n      iszero\n      tag_193\n      jumpi\n      0x00\n      dup1\n      revert\n    tag_193:\n      pop\n      sub(shl(0xa0, 0x01), 0x01)\n      dup2\n      calldataload\n      dup2\n      and\n      swap2\n      0x20\n      add\n      calldataload\n      and\n      tag_194\n      jump\t// in\n        /* \"sadc.sol\":33229:33339  function includeInFee(address account) public onlyOwner {\r... */\n    tag_41:\n      callvalue\n      dup1\n      iszero\n      tag_195\n      jumpi\n      0x00\n      dup1\n      revert\n    tag_195:\n      pop\n      tag_54\n      0x04\n      dup1\n      calldatasize\n      sub\n      0x20\n      dup2\n      lt\n      iszero\n      tag_197\n      jumpi\n      0x00\n      dup1\n      revert\n    tag_197:\n      pop\n      calldataload\n      sub(shl(0xa0, 0x01), 0x01)\n      and\n      tag_198\n      jump\t// in\n        /* \"sadc.sol\":33595:33753  function setNumTokensSellToAddToLiquidity(uint256 swapNumber) public onlyOwner {\r... */\n    tag_42:\n      callvalue\n      dup1\n      iszero\n      tag_199\n      jumpi\n      0x00\n      dup1\n      revert\n    tag_199:\n      pop\n      tag_54\n      0x04\n      dup1\n      calldatasize\n      sub\n      0x20\n      dup2\n      lt\n      iszero\n      tag_201\n      jumpi\n      0x00\n      dup1\n      revert\n    tag_201:\n      pop\n      calldataload\n      tag_202\n      jump\t// in\n        /* \"sadc.sol\":16312:16556  function transferOwnership(address newOwner) public virtual onlyOwner {\r... */\n    tag_43:\n      callvalue\n      dup1\n      iszero\n      tag_203\n      jumpi\n      0x00\n      dup1\n      revert\n    tag_203:\n      pop\n      tag_54\n      0x04\n      dup1\n      calldatasize\n      sub\n      0x20\n      dup2\n      lt\n      iszero\n      tag_205\n      jumpi\n      0x00\n      dup1\n      revert\n    tag_205:\n      pop\n      calldataload\n      sub(shl(0xa0, 0x01), 0x01)\n      and\n      tag_206\n      jump\t// in\n        /* \"sadc.sol\":33351:33449  function setTaxFeePercent(uint256 taxFee) external onlyOwner() {\r... */\n    tag_56:\n        /* \"sadc.sol\":15588:15600  _msgSender() */\n      tag_208\n        /* \"sadc.sol\":15588:15598  _msgSender */\n      tag_209\n        /* \"sadc.sol\":15588:15600  _msgSender() */\n      jump\t// in\n    tag_208:\n        /* \"sadc.sol\":15578:15584  _owner */\n      sload(0x00)\n      sub(shl(0xa0, 0x01), 0x01)\n      swap1\n      dup2\n      and\n        /* \"sadc.sol\":15578:15600  _owner == _msgSender() */\n      swap2\n      and\n      eq\n        /* \"sadc.sol\":15570:15637  require(_owner == _msgSender(), \"Ownable: caller is not the owner\") */\n      tag_210\n      jumpi\n      0x40\n      dup1\n      mload\n      shl(0xe5, 0x461bcd)\n      dup2\n      mstore\n      0x20\n      0x04\n      dup3\n      add\n      dup2\n      swap1\n      mstore\n      0x24\n      dup3\n      add\n      mstore\n      0x00\n      dup1\n      mload\n      0x20\n      data_9924ebdf1add33d25d4ef888e16131f0a5687b0580a36c21b5c301a6c462effe\n      dup4\n      codecopy\n      dup2\n      mload\n      swap2\n      mstore\n      0x44\n      dup3\n      add\n      mstore\n      swap1\n      mload\n      swap1\n      dup2\n      swap1\n      sub\n      0x64\n      add\n      swap1\n      revert\n    tag_210:\n        /* \"sadc.sol\":33425:33432  _taxFee */\n      0x0f\n        /* \"sadc.sol\":33425:33441  _taxFee = taxFee */\n      sstore\n        /* \"sadc.sol\":33351:33449  function setTaxFeePercent(uint256 taxFee) external onlyOwner() {\r... */\n      jump\t// out\n        /* \"sadc.sol\":28288:28371  function name() public view returns (string memory) {\r... */\n    tag_59:\n        /* \"sadc.sol\":28358:28363  _name */\n      0x0c\n        /* \"sadc.sol\":28351:28363  return _name */\n      dup1\n      sload\n      0x40\n      dup1\n      mload\n      0x20\n      0x1f\n      0x02\n      not(0x00)\n      0x0100\n      0x01\n      dup9\n      and\n      iszero\n      mul\n      add\n      swap1\n      swap6\n      and\n      swap5\n      swap1\n      swap5\n      div\n      swap4\n      dup5\n      add\n      dup2\n      swap1\n      div\n      dup2\n      mul\n      dup3\n      add\n      dup2\n      add\n      swap1\n      swap3\n      mstore\n      dup3\n      dup2\n      mstore\n        /* \"sadc.sol\":28325:28338  string memory */\n      0x60\n      swap4\n        /* \"sadc.sol\":28351:28363  return _name */\n      swap1\n      swap3\n        /* \"sadc.sol\":28358:28363  _name */\n      swap1\n      swap2\n        /* \"sadc.sol\":28351:28363  return _name */\n      dup4\n      add\n        /* \"sadc.sol\":28358:28363  _name */\n      dup3\n        /* \"sadc.sol\":28351:28363  return _name */\n      dup3\n      dup1\n      iszero\n      tag_213\n      jumpi\n      dup1\n      0x1f\n      lt\n      tag_214\n      jumpi\n      0x0100\n      dup1\n      dup4\n      sload\n      div\n      mul\n      dup4\n      mstore\n      swap2\n      0x20\n      add\n      swap2\n      jump(tag_213)\n    tag_214:\n      dup3\n      add\n      swap2\n      swap1\n      0x00\n      mstore\n      keccak256(0x00, 0x20)\n      swap1\n    tag_215:\n      dup2\n      sload\n      dup2\n      mstore\n      swap1\n      0x01\n      add\n      swap1\n      0x20\n      add\n      dup1\n      dup4\n      gt\n      tag_215\n      jumpi\n      dup3\n      swap1\n      sub\n      0x1f\n      and\n      dup3\n      add\n      swap2\n    tag_213:\n      pop\n      pop\n      pop\n      pop\n      pop\n      swap1\n      pop\n        /* \"sadc.sol\":28288:28371  function name() public view returns (string memory) {\r... */\n      swap1\n      jump\t// out\n        /* \"sadc.sol\":29202:29363  function approve(address spender, uint256 amount) public override returns (bool) {\r... */\n    tag_67:\n        /* \"sadc.sol\":29277:29281  bool */\n      0x00\n        /* \"sadc.sol\":29294:29333  _approve(_msgSender(), spender, amount) */\n      tag_217\n        /* \"sadc.sol\":29303:29315  _msgSender() */\n      tag_218\n        /* \"sadc.sol\":29303:29313  _msgSender */\n      tag_209\n        /* \"sadc.sol\":29303:29315  _msgSender() */\n      jump\t// in\n    tag_218:\n        /* \"sadc.sol\":29317:29324  spender */\n      dup5\n        /* \"sadc.sol\":29326:29332  amount */\n      dup5\n        /* \"sadc.sol\":29294:29302  _approve */\n      tag_219\n        /* \"sadc.sol\":29294:29333  _approve(_msgSender(), spender, amount) */\n      jump\t// in\n    tag_217:\n      pop\n        /* \"sadc.sol\":29351:29355  true */\n      0x01\n        /* \"sadc.sol\":29202:29363  function approve(address spender, uint256 amount) public override returns (bool) {\r... */\n    tag_216:\n      swap3\n      swap2\n      pop\n      pop\n      jump\t// out\n        /* \"sadc.sol\":30323:30410  function totalFees() public view returns (uint256) {\r... */\n    tag_70:\n        /* \"sadc.sol\":30392:30402  _tFeeTotal */\n      sload(0x0b)\n        /* \"sadc.sol\":30323:30410  function totalFees() public view returns (uint256) {\r... */\n      swap1\n      jump\t// out\n        /* \"sadc.sol\":26259:26310  IUniswapV2Router02 public immutable uniswapV2Router */\n    tag_73:\n      immutable(\"0x373ab5f6f5686eaf15420a778a209383e0ee0196a782fa3fd3ec96f326a92e6e\")\n      dup2\n      jump\t// out\n        /* \"sadc.sol\":28567:28662  function totalSupply() public view override returns (uint256) {\r... */\n    tag_76:\n        /* \"sadc.sol\":28647:28654  _tTotal */\n      sload(0x09)\n        /* \"sadc.sol\":28567:28662  function totalSupply() public view override returns (uint256) {\r... */\n      swap1\n      jump\t// out\n        /* \"sadc.sol\":29371:29684  function transferFrom(address sender, address recipient, uint256 amount) public override returns (bool) {\r... */\n    tag_80:\n        /* \"sadc.sol\":29469:29473  bool */\n      0x00\n        /* \"sadc.sol\":29486:29522  _transfer(sender, recipient, amount) */\n      tag_223\n        /* \"sadc.sol\":29496:29502  sender */\n      dup5\n        /* \"sadc.sol\":29504:29513  recipient */\n      dup5\n        /* \"sadc.sol\":29515:29521  amount */\n      dup5\n        /* \"sadc.sol\":29486:29495  _transfer */\n      tag_224\n        /* \"sadc.sol\":29486:29522  _transfer(sender, recipient, amount) */\n      jump\t// in\n    tag_223:\n        /* \"sadc.sol\":29533:29654  _approve(sender, _msgSender(), _allowances[sender][_msgSender()].sub(amount, \"ERC20: transfer amount exceeds allowance\")) */\n      tag_225\n        /* \"sadc.sol\":29542:29548  sender */\n      dup5\n        /* \"sadc.sol\":29550:29562  _msgSender() */\n      tag_226\n        /* \"sadc.sol\":29550:29560  _msgSender */\n      tag_209\n        /* \"sadc.sol\":29550:29562  _msgSender() */\n      jump\t// in\n    tag_226:\n        /* \"sadc.sol\":29564:29653  _allowances[sender][_msgSender()].sub(amount, \"ERC20: transfer amount exceeds allowance\") */\n      tag_227\n        /* \"sadc.sol\":29602:29608  amount */\n      dup6\n        /* \"sadc.sol\":29564:29653  _allowances[sender][_msgSender()].sub(amount, \"ERC20: transfer amount exceeds allowance\") */\n      mload(0x40)\n      dup1\n      0x60\n      add\n      0x40\n      mstore\n      dup1\n      0x28\n      dup2\n      mstore\n      0x20\n      add\n      data_974d1b4421da69cc60b481194f0dad36a5bb4e23da810da7a7fb30cdba178330\n      0x28\n      swap2\n      codecopy\n      sub(shl(0xa0, 0x01), 0x01)\n        /* \"sadc.sol\":29564:29583  _allowances[sender] */\n      dup11\n      and\n      0x00\n      swap1\n      dup2\n      mstore\n        /* \"sadc.sol\":29564:29575  _allowances */\n      0x05\n        /* \"sadc.sol\":29564:29583  _allowances[sender] */\n      0x20\n      mstore\n      0x40\n      dup2\n      keccak256\n      swap1\n        /* \"sadc.sol\":29584:29596  _msgSender() */\n      tag_228\n        /* \"sadc.sol\":29584:29594  _msgSender */\n      tag_209\n        /* \"sadc.sol\":29584:29596  _msgSender() */\n      jump\t// in\n    tag_228:\n      sub(shl(0xa0, 0x01), 0x01)\n        /* \"sadc.sol\":29564:29597  _allowances[sender][_msgSender()] */\n      and\n      dup2\n      mstore\n      0x20\n      dup2\n      add\n      swap2\n      swap1\n      swap2\n      mstore\n      0x40\n      add\n      0x00\n      keccak256\n      sload\n      swap2\n        /* \"sadc.sol\":29564:29653  _allowances[sender][_msgSender()].sub(amount, \"ERC20: transfer amount exceeds allowance\") */\n      swap1\n        /* \"sadc.sol\":29564:29601  _allowances[sender][_msgSender()].sub */\n      tag_229\n        /* \"sadc.sol\":29564:29653  _allowances[sender][_msgSender()].sub(amount, \"ERC20: transfer amount exceeds allowance\") */\n      jump\t// in\n    tag_227:\n        /* \"sadc.sol\":29533:29541  _approve */\n      tag_219\n        /* \"sadc.sol\":29533:29654  _approve(sender, _msgSender(), _allowances[sender][_msgSender()].sub(amount, \"ERC20: transfer amount exceeds allowance\")) */\n      jump\t// in\n    tag_225:\n      pop\n        /* \"sadc.sol\":29672:29676  true */\n      0x01\n        /* \"sadc.sol\":29371:29684  function transferFrom(address sender, address recipient, uint256 amount) public override returns (bool) {\r... */\n      swap4\n      swap3\n      pop\n      pop\n      pop\n      jump\t// out\n        /* \"sadc.sol\":31247:31500  function tokenFromReflection(uint256 rAmount) public view returns(uint256) {\r... */\n    tag_84:\n        /* \"sadc.sol\":31313:31320  uint256 */\n      0x00\n        /* \"sadc.sol\":31352:31359  _rTotal */\n      sload(0x0a)\n        /* \"sadc.sol\":31341:31348  rAmount */\n      dup3\n        /* \"sadc.sol\":31341:31359  rAmount <= _rTotal */\n      gt\n      iszero\n        /* \"sadc.sol\":31333:31406  require(rAmount <= _rTotal, \"Amount must be less than total reflections\") */\n      tag_231\n      jumpi\n      mload(0x40)\n      shl(0xe5, 0x461bcd)\n      dup2\n      mstore\n      0x04\n      add\n      dup1\n      dup1\n      0x20\n      add\n      dup3\n      dup2\n      sub\n      dup3\n      mstore\n      0x2a\n      dup2\n      mstore\n      0x20\n      add\n      dup1\n      data_22f7af55a509c3b14f0d528f087748dec8a8bf425135e3f5dc28c6a31ec6d812\n      0x2a\n      swap2\n      codecopy\n      0x40\n      add\n      swap2\n      pop\n      pop\n      mload(0x40)\n      dup1\n      swap2\n      sub\n      swap1\n      revert\n    tag_231:\n        /* \"sadc.sol\":31417:31436  uint256 currentRate */\n      0x00\n        /* \"sadc.sol\":31440:31450  _getRate() */\n      tag_232\n        /* \"sadc.sol\":31440:31448  _getRate */\n      tag_233\n        /* \"sadc.sol\":31440:31450  _getRate() */\n      jump\t// in\n    tag_232:\n        /* \"sadc.sol\":31417:31450  uint256 currentRate =  _getRate() */\n      swap1\n      pop\n        /* \"sadc.sol\":31468:31492  rAmount.div(currentRate) */\n      tag_234\n        /* \"sadc.sol\":31468:31475  rAmount */\n      dup4\n        /* \"sadc.sol\":31417:31450  uint256 currentRate =  _getRate() */\n      dup3\n        /* \"sadc.sol\":31468:31479  rAmount.div */\n      tag_235\n        /* \"sadc.sol\":31468:31492  rAmount.div(currentRate) */\n      jump\t// in\n    tag_234:\n        /* \"sadc.sol\":31461:31492  return rAmount.div(currentRate) */\n      swap2\n      pop\n      pop\n        /* \"sadc.sol\":31247:31500  function tokenFromReflection(uint256 rAmount) public view returns(uint256) {\r... */\n    tag_230:\n      swap2\n      swap1\n      pop\n      jump\t// out\n        /* \"sadc.sol\":28474:28559  function decimals() public view returns (uint256) {\r... */\n    tag_87:\n        /* \"sadc.sol\":28542:28551  _decimals */\n      sload(0x0e)\n        /* \"sadc.sol\":28474:28559  function decimals() public view returns (uint256) {\r... */\n      swap1\n      jump\t// out\n        /* \"sadc.sol\":31963:32442  function includeInReward(address account) external onlyOwner() {\r... */\n    tag_91:\n        /* \"sadc.sol\":15588:15600  _msgSender() */\n      tag_238\n        /* \"sadc.sol\":15588:15598  _msgSender */\n      tag_209\n        /* \"sadc.sol\":15588:15600  _msgSender() */\n      jump\t// in\n    tag_238:\n        /* \"sadc.sol\":15578:15584  _owner */\n      sload(0x00)\n      sub(shl(0xa0, 0x01), 0x01)\n      swap1\n      dup2\n      and\n        /* \"sadc.sol\":15578:15600  _owner == _msgSender() */\n      swap2\n      and\n      eq\n        /* \"sadc.sol\":15570:15637  require(_owner == _msgSender(), \"Ownable: caller is not the owner\") */\n      tag_239\n      jumpi\n      0x40\n      dup1\n      mload\n      shl(0xe5, 0x461bcd)\n      dup2\n      mstore\n      0x20\n      0x04\n      dup3\n      add\n      dup2\n      swap1\n      mstore\n      0x24\n      dup3\n      add\n      mstore\n      0x00\n      dup1\n      mload\n      0x20\n      data_9924ebdf1add33d25d4ef888e16131f0a5687b0580a36c21b5c301a6c462effe\n      dup4\n      codecopy\n      dup2\n      mload\n      swap2\n      mstore\n      0x44\n      dup3\n      add\n      mstore\n      swap1\n      mload\n      swap1\n      dup2\n      swap1\n      sub\n      0x64\n      add\n      swap1\n      revert\n    tag_239:\n      sub(shl(0xa0, 0x01), 0x01)\n        /* \"sadc.sol\":32045:32065  _isExcluded[account] */\n      dup2\n      and\n      0x00\n      swap1\n      dup2\n      mstore\n        /* \"sadc.sol\":32045:32056  _isExcluded */\n      0x07\n        /* \"sadc.sol\":32045:32065  _isExcluded[account] */\n      0x20\n      mstore\n      0x40\n      swap1\n      keccak256\n      sload\n      0xff\n      and\n        /* \"sadc.sol\":32037:32097  require(_isExcluded[account], \"Account is already excluded\") */\n      tag_241\n      jumpi\n      0x40\n      dup1\n      mload\n      shl(0xe5, 0x461bcd)\n      dup2\n      mstore\n      0x20\n      0x04\n      dup3\n      add\n      mstore\n      0x1b\n      0x24\n      dup3\n      add\n      mstore\n      0x4163636f756e7420697320616c7265616479206578636c756465640000000000\n      0x44\n      dup3\n      add\n      mstore\n      swap1\n      mload\n      swap1\n      dup2\n      swap1\n      sub\n      0x64\n      add\n      swap1\n      revert\n    tag_241:\n        /* \"sadc.sol\":32113:32122  uint256 i */\n      0x00\n        /* \"sadc.sol\":32108:32435  for (uint256 i = 0; i < _excluded.length; i++) {\r... */\n    tag_242:\n        /* \"sadc.sol\":32132:32141  _excluded */\n      0x08\n        /* \"sadc.sol\":32132:32148  _excluded.length */\n      sload\n        /* \"sadc.sol\":32128:32148  i < _excluded.length */\n      dup2\n      lt\n        /* \"sadc.sol\":32108:32435  for (uint256 i = 0; i < _excluded.length; i++) {\r... */\n      iszero\n      tag_243\n      jumpi\n        /* \"sadc.sol\":32190:32197  account */\n      dup2\n      sub(shl(0xa0, 0x01), 0x01)\n        /* \"sadc.sol\":32174:32197  _excluded[i] == account */\n      and\n        /* \"sadc.sol\":32174:32183  _excluded */\n      0x08\n        /* \"sadc.sol\":32184:32185  i */\n      dup3\n        /* \"sadc.sol\":32174:32186  _excluded[i] */\n      dup2\n      sload\n      dup2\n      lt\n      tag_245\n      jumpi\n      invalid\n    tag_245:\n      0x00\n      swap2\n      dup3\n      mstore\n      0x20\n      swap1\n      swap2\n      keccak256\n      add\n      sload\n      sub(shl(0xa0, 0x01), 0x01)\n      and\n        /* \"sadc.sol\":32174:32197  _excluded[i] == account */\n      eq\n        /* \"sadc.sol\":32170:32424  if (_excluded[i] == account) {\r... */\n      iszero\n      tag_247\n      jumpi\n        /* \"sadc.sol\":32233:32242  _excluded */\n      0x08\n        /* \"sadc.sol\":32243:32259  _excluded.length */\n      dup1\n      sload\n      not(0x00)\n        /* \"sadc.sol\":32243:32263  _excluded.length - 1 */\n      dup2\n      add\n      swap1\n        /* \"sadc.sol\":32233:32264  _excluded[_excluded.length - 1] */\n      dup2\n      lt\n      tag_248\n      jumpi\n      invalid\n    tag_248:\n      0x00\n      swap2\n      dup3\n      mstore\n      0x20\n      swap1\n      swap2\n      keccak256\n      add\n      sload\n        /* \"sadc.sol\":32218:32227  _excluded */\n      0x08\n        /* \"sadc.sol\":32218:32230  _excluded[i] */\n      dup1\n      sload\n      sub(shl(0xa0, 0x01), 0x01)\n        /* \"sadc.sol\":32233:32264  _excluded[_excluded.length - 1] */\n      swap1\n      swap3\n      and\n      swap2\n        /* \"sadc.sol\":32228:32229  i */\n      dup4\n      swap1\n        /* \"sadc.sol\":32218:32230  _excluded[i] */\n      dup2\n      lt\n      tag_250\n      jumpi\n      invalid\n    tag_250:\n      0x00\n      swap2\n      dup3\n      mstore\n      0x20\n      dup1\n      dup4\n      keccak256\n      swap2\n      swap1\n      swap2\n      add\n        /* \"sadc.sol\":32218:32264  _excluded[i] = _excluded[_excluded.length - 1] */\n      dup1\n      sload\n      not(sub(shl(0xa0, 0x01), 0x01))\n      and\n      sub(shl(0xa0, 0x01), 0x01)\n      swap5\n      dup6\n      and\n      or\n      swap1\n      sstore\n        /* \"sadc.sol\":32283:32299  _tOwned[account] */\n      swap2\n      dup5\n      and\n      dup2\n      mstore\n        /* \"sadc.sol\":32283:32290  _tOwned */\n      0x04\n        /* \"sadc.sol\":32283:32299  _tOwned[account] */\n      dup3\n      mstore\n      0x40\n      dup1\n      dup3\n      keccak256\n        /* \"sadc.sol\":32283:32303  _tOwned[account] = 0 */\n      dup3\n      swap1\n      sstore\n        /* \"sadc.sol\":32322:32333  _isExcluded */\n      0x07\n        /* \"sadc.sol\":32322:32342  _isExcluded[account] */\n      swap1\n      swap3\n      mstore\n      keccak256\n        /* \"sadc.sol\":32322:32350  _isExcluded[account] = false */\n      dup1\n      sload\n      not(0xff)\n      and\n      swap1\n      sstore\n        /* \"sadc.sol\":32369:32378  _excluded */\n      0x08\n        /* \"sadc.sol\":32369:32384  _excluded.pop() */\n      dup1\n      sload\n      dup1\n      tag_252\n      jumpi\n      invalid\n    tag_252:\n      0x00\n      dup3\n      dup2\n      mstore\n      0x20\n      swap1\n      keccak256\n      dup2\n      add\n      not(0x00)\n      swap1\n      dup2\n      add\n      dup1\n      sload\n      not(sub(shl(0xa0, 0x01), 0x01))\n      and\n      swap1\n      sstore\n      add\n      swap1\n      sstore\n        /* \"sadc.sol\":32403:32408  break */\n      jump(tag_243)\n        /* \"sadc.sol\":32170:32424  if (_excluded[i] == account) {\r... */\n    tag_247:\n        /* \"sadc.sol\":32150:32153  i++ */\n      0x01\n      add\n        /* \"sadc.sol\":32108:32435  for (uint256 i = 0; i < _excluded.length; i++) {\r... */\n      jump(tag_242)\n    tag_243:\n      pop\n        /* \"sadc.sol\":31963:32442  function includeInReward(address account) external onlyOwner() {\r... */\n      pop\n      jump\t// out\n        /* \"sadc.sol\":29692:29910  function increaseAllowance(address spender, uint256 addedValue) public virtual returns (bool) {\r... */\n    tag_95:\n        /* \"sadc.sol\":29780:29784  bool */\n      0x00\n        /* \"sadc.sol\":29797:29880  _approve(_msgSender(), spender, _allowances[_msgSender()][spender].add(addedValue)) */\n      tag_217\n        /* \"sadc.sol\":29806:29818  _msgSender() */\n      tag_256\n        /* \"sadc.sol\":29806:29816  _msgSender */\n      tag_209\n        /* \"sadc.sol\":29806:29818  _msgSender() */\n      jump\t// in\n    tag_256:\n        /* \"sadc.sol\":29820:29827  spender */\n      dup5\n        /* \"sadc.sol\":29829:29879  _allowances[_msgSender()][spender].add(addedValue) */\n      tag_227\n        /* \"sadc.sol\":29868:29878  addedValue */\n      dup6\n        /* \"sadc.sol\":29829:29840  _allowances */\n      0x05\n        /* \"sadc.sol\":29829:29854  _allowances[_msgSender()] */\n      0x00\n        /* \"sadc.sol\":29841:29853  _msgSender() */\n      tag_258\n        /* \"sadc.sol\":29841:29851  _msgSender */\n      tag_209\n        /* \"sadc.sol\":29841:29853  _msgSender() */\n      jump\t// in\n    tag_258:\n      sub(shl(0xa0, 0x01), 0x01)\n        /* \"sadc.sol\":29829:29854  _allowances[_msgSender()] */\n      swap1\n      dup2\n      and\n      dup3\n      mstore\n      0x20\n      dup1\n      dup4\n      add\n      swap4\n      swap1\n      swap4\n      mstore\n      0x40\n      swap2\n      dup3\n      add\n      0x00\n      swap1\n      dup2\n      keccak256\n        /* \"sadc.sol\":29829:29863  _allowances[_msgSender()][spender] */\n      swap2\n      dup13\n      and\n      dup2\n      mstore\n      swap3\n      mstore\n      swap1\n      keccak256\n      sload\n      swap1\n        /* \"sadc.sol\":29829:29867  _allowances[_msgSender()][spender].add */\n      tag_259\n        /* \"sadc.sol\":29829:29879  _allowances[_msgSender()][spender].add(addedValue) */\n      jump\t// in\n        /* \"sadc.sol\":26105:26127  uint256 public _taxFee */\n    tag_98:\n      sload(0x0f)\n      dup2\n      jump\t// out\n        /* \"sadc.sol\":30418:30795  function deliver(uint256 tAmount) public {\r... */\n    tag_102:\n        /* \"sadc.sol\":30470:30484  address sender */\n      0x00\n        /* \"sadc.sol\":30487:30499  _msgSender() */\n      tag_261\n        /* \"sadc.sol\":30487:30497  _msgSender */\n      tag_209\n        /* \"sadc.sol\":30487:30499  _msgSender() */\n      jump\t// in\n    tag_261:\n      sub(shl(0xa0, 0x01), 0x01)\n        /* \"sadc.sol\":30519:30538  _isExcluded[sender] */\n      dup2\n      and\n      0x00\n      swap1\n      dup2\n      mstore\n        /* \"sadc.sol\":30519:30530  _isExcluded */\n      0x07\n        /* \"sadc.sol\":30519:30538  _isExcluded[sender] */\n      0x20\n      mstore\n      0x40\n      swap1\n      keccak256\n      sload\n        /* \"sadc.sol\":30470:30499  address sender = _msgSender() */\n      swap1\n      swap2\n      pop\n        /* \"sadc.sol\":30519:30538  _isExcluded[sender] */\n      0xff\n      and\n        /* \"sadc.sol\":30518:30538  !_isExcluded[sender] */\n      iszero\n        /* \"sadc.sol\":30510:30587  require(!_isExcluded[sender], \"Excluded addresses cannot call this function\") */\n      tag_262\n      jumpi\n      mload(0x40)\n      shl(0xe5, 0x461bcd)\n      dup2\n      mstore\n      0x04\n      add\n      dup1\n      dup1\n      0x20\n      add\n      dup3\n      dup2\n      sub\n      dup3\n      mstore\n      0x2c\n      dup2\n      mstore\n      0x20\n      add\n      dup1\n      data_ecefcaf5fbcf9ca6dcdb02298ba1da96f4ead317b0a4779917ecb2e5e7dc3ac4\n      0x2c\n      swap2\n      codecopy\n      0x40\n      add\n      swap2\n      pop\n      pop\n      mload(0x40)\n      dup1\n      swap2\n      sub\n      swap1\n      revert\n    tag_262:\n        /* \"sadc.sol\":30599:30614  uint256 rAmount */\n      0x00\n        /* \"sadc.sol\":30623:30642  _getValues(tAmount) */\n      tag_263\n        /* \"sadc.sol\":30634:30641  tAmount */\n      dup4\n        /* \"sadc.sol\":30623:30633  _getValues */\n      tag_264\n        /* \"sadc.sol\":30623:30642  _getValues(tAmount) */\n      jump\t// in\n    tag_263:\n      pop\n      pop\n      pop\n      pop\n      sub(shl(0xa0, 0x01), 0x01)\n        /* \"sadc.sol\":30671:30686  _rOwned[sender] */\n      dup5\n      and\n      0x00\n      swap1\n      dup2\n      mstore\n        /* \"sadc.sol\":30671:30678  _rOwned */\n      0x03\n        /* \"sadc.sol\":30671:30686  _rOwned[sender] */\n      0x20\n      mstore\n      0x40\n      swap1\n      keccak256\n      sload\n        /* \"sadc.sol\":30598:30642  (uint256 rAmount,,,,,) = _getValues(tAmount) */\n      swap2\n      swap3\n      pop\n        /* \"sadc.sol\":30671:30699  _rOwned[sender].sub(rAmount) */\n      tag_265\n      swap2\n        /* \"sadc.sol\":30671:30686  _rOwned[sender] */\n      swap1\n      pop\n        /* \"sadc.sol\":30598:30642  (uint256 rAmount,,,,,) = _getValues(tAmount) */\n      dup3\n        /* \"sadc.sol\":30671:30690  _rOwned[sender].sub */\n      tag_266\n        /* \"sadc.sol\":30671:30699  _rOwned[sender].sub(rAmount) */\n      jump\t// in\n    tag_265:\n      sub(shl(0xa0, 0x01), 0x01)\n        /* \"sadc.sol\":30653:30668  _rOwned[sender] */\n      dup4\n      and\n      0x00\n      swap1\n      dup2\n      mstore\n        /* \"sadc.sol\":30653:30660  _rOwned */\n      0x03\n        /* \"sadc.sol\":30653:30668  _rOwned[sender] */\n      0x20\n      mstore\n      0x40\n      swap1\n      keccak256\n        /* \"sadc.sol\":30653:30699  _rOwned[sender] = _rOwned[sender].sub(rAmount) */\n      sstore\n        /* \"sadc.sol\":30720:30727  _rTotal */\n      sload(0x0a)\n        /* \"sadc.sol\":30720:30740  _rTotal.sub(rAmount) */\n      tag_267\n      swap1\n        /* \"sadc.sol\":30732:30739  rAmount */\n      dup3\n        /* \"sadc.sol\":30720:30731  _rTotal.sub */\n      tag_266\n        /* \"sadc.sol\":30720:30740  _rTotal.sub(rAmount) */\n      jump\t// in\n    tag_267:\n        /* \"sadc.sol\":30710:30717  _rTotal */\n      0x0a\n        /* \"sadc.sol\":30710:30740  _rTotal = _rTotal.sub(rAmount) */\n      sstore\n        /* \"sadc.sol\":30764:30774  _tFeeTotal */\n      sload(0x0b)\n        /* \"sadc.sol\":30764:30787  _tFeeTotal.add(tAmount) */\n      tag_268\n      swap1\n        /* \"sadc.sol\":30779:30786  tAmount */\n      dup5\n        /* \"sadc.sol\":30764:30778  _tFeeTotal.add */\n      tag_259\n        /* \"sadc.sol\":30764:30787  _tFeeTotal.add(tAmount) */\n      jump\t// in\n    tag_268:\n        /* \"sadc.sol\":30751:30761  _tFeeTotal */\n      0x0b\n        /* \"sadc.sol\":30751:30787  _tFeeTotal = _tFeeTotal.add(tAmount) */\n      sstore\n      pop\n      pop\n      pop\n        /* \"sadc.sol\":30418:30795  function deliver(uint256 tAmount) public {\r... */\n      jump\t// out\n        /* \"sadc.sol\":33106:33217  function excludeFromFee(address account) public onlyOwner {\r... */\n    tag_106:\n        /* \"sadc.sol\":15588:15600  _msgSender() */\n      tag_270\n        /* \"sadc.sol\":15588:15598  _msgSender */\n      tag_209\n        /* \"sadc.sol\":15588:15600  _msgSender() */\n      jump\t// in\n    tag_270:\n        /* \"sadc.sol\":15578:15584  _owner */\n      sload(0x00)\n      sub(shl(0xa0, 0x01), 0x01)\n      swap1\n      dup2\n      and\n        /* \"sadc.sol\":15578:15600  _owner == _msgSender() */\n      swap2\n      and\n      eq\n        /* \"sadc.sol\":15570:15637  require(_owner == _msgSender(), \"Ownable: caller is not the owner\") */\n      tag_271\n      jumpi\n      0x40\n      dup1\n      mload\n      shl(0xe5, 0x461bcd)\n      dup2\n      mstore\n      0x20\n      0x04\n      dup3\n      add\n      dup2\n      swap1\n      mstore\n      0x24\n      dup3\n      add\n      mstore\n      0x00\n      dup1\n      mload\n      0x20\n      data_9924ebdf1add33d25d4ef888e16131f0a5687b0580a36c21b5c301a6c462effe\n      dup4\n      codecopy\n      dup2\n      mload\n      swap2\n      mstore\n      0x44\n      dup3\n      add\n      mstore\n      swap1\n      mload\n      swap1\n      dup2\n      swap1\n      sub\n      0x64\n      add\n      swap1\n      revert\n    tag_271:\n      sub(shl(0xa0, 0x01), 0x01)\n        /* \"sadc.sol\":33175:33202  _isExcludedFromFee[account] */\n      and\n      0x00\n      swap1\n      dup2\n      mstore\n        /* \"sadc.sol\":33175:33193  _isExcludedFromFee */\n      0x06\n        /* \"sadc.sol\":33175:33202  _isExcludedFromFee[account] */\n      0x20\n      mstore\n      0x40\n      swap1\n      keccak256\n        /* \"sadc.sol\":33175:33209  _isExcludedFromFee[account] = true */\n      dup1\n      sload\n      not(0xff)\n      and\n        /* \"sadc.sol\":33205:33209  true */\n      0x01\n        /* \"sadc.sol\":33175:33209  _isExcludedFromFee[account] = true */\n      or\n      swap1\n      sstore\n        /* \"sadc.sol\":33106:33217  function excludeFromFee(address account) public onlyOwner {\r... */\n      jump\t// out\n        /* \"sadc.sol\":30803:31239  function reflectionFromToken(uint256 tAmount, bool deductTransferFee) public view returns(uint256) {\r... */\n    tag_110:\n        /* \"sadc.sol\":30893:30900  uint256 */\n      0x00\n        /* \"sadc.sol\":30932:30939  _tTotal */\n      sload(0x09)\n        /* \"sadc.sol\":30921:30928  tAmount */\n      dup4\n        /* \"sadc.sol\":30921:30939  tAmount <= _tTotal */\n      gt\n      iszero\n        /* \"sadc.sol\":30913:30975  require(tAmount <= _tTotal, \"Amount must be less than supply\") */\n      tag_274\n      jumpi\n      0x40\n      dup1\n      mload\n      shl(0xe5, 0x461bcd)\n      dup2\n      mstore\n      0x20\n      0x04\n      dup3\n      add\n      mstore\n      0x1f\n      0x24\n      dup3\n      add\n      mstore\n      0x416d6f756e74206d757374206265206c657373207468616e20737570706c7900\n      0x44\n      dup3\n      add\n      mstore\n      swap1\n      mload\n      swap1\n      dup2\n      swap1\n      sub\n      0x64\n      add\n      swap1\n      revert\n    tag_274:\n        /* \"sadc.sol\":30991:31008  deductTransferFee */\n      dup2\n        /* \"sadc.sol\":30986:31232  if (!deductTransferFee) {\r... */\n      tag_275\n      jumpi\n        /* \"sadc.sol\":31026:31041  uint256 rAmount */\n      0x00\n        /* \"sadc.sol\":31050:31069  _getValues(tAmount) */\n      tag_276\n        /* \"sadc.sol\":31061:31068  tAmount */\n      dup5\n        /* \"sadc.sol\":31050:31060  _getValues */\n      tag_264\n        /* \"sadc.sol\":31050:31069  _getValues(tAmount) */\n      jump\t// in\n    tag_276:\n      pop\n        /* \"sadc.sol\":31025:31069  (uint256 rAmount,,,,,) = _getValues(tAmount) */\n      swap4\n      swap6\n      pop\n        /* \"sadc.sol\":31084:31098  return rAmount */\n      tag_216\n      swap5\n      pop\n      pop\n      pop\n      pop\n      pop\n      jump\n        /* \"sadc.sol\":30986:31232  if (!deductTransferFee) {\r... */\n    tag_275:\n        /* \"sadc.sol\":31133:31156  uint256 rTransferAmount */\n      0x00\n        /* \"sadc.sol\":31164:31183  _getValues(tAmount) */\n      tag_278\n        /* \"sadc.sol\":31175:31182  tAmount */\n      dup5\n        /* \"sadc.sol\":31164:31174  _getValues */\n      tag_264\n        /* \"sadc.sol\":31164:31183  _getValues(tAmount) */\n      jump\t// in\n    tag_278:\n      pop\n        /* \"sadc.sol\":31131:31183  (,uint256 rTransferAmount,,,,) = _getValues(tAmount) */\n      swap3\n      swap6\n      pop\n        /* \"sadc.sol\":31198:31220  return rTransferAmount */\n      tag_216\n      swap5\n      pop\n      pop\n      pop\n      pop\n      pop\n      jump\n        /* \"sadc.sol\":36652:36762  function claimTokens() public onlyOwner {\r... */\n    tag_113:\n        /* \"sadc.sol\":15588:15600  _msgSender() */\n      tag_280\n        /* \"sadc.sol\":15588:15598  _msgSender */\n      tag_209\n        /* \"sadc.sol\":15588:15600  _msgSender() */\n      jump\t// in\n    tag_280:\n        /* \"sadc.sol\":15578:15584  _owner */\n      sload(0x00)\n      sub(shl(0xa0, 0x01), 0x01)\n      swap1\n      dup2\n      and\n        /* \"sadc.sol\":15578:15600  _owner == _msgSender() */\n      swap2\n      and\n      eq\n        /* \"sadc.sol\":15570:15637  require(_owner == _msgSender(), \"Ownable: caller is not the owner\") */\n      tag_281\n      jumpi\n      0x40\n      dup1\n      mload\n      shl(0xe5, 0x461bcd)\n      dup2\n      mstore\n      0x20\n      0x04\n      dup3\n      add\n      dup2\n      swap1\n      mstore\n      0x24\n      dup3\n      add\n      mstore\n      0x00\n      dup1\n      mload\n      0x20\n      data_9924ebdf1add33d25d4ef888e16131f0a5687b0580a36c21b5c301a6c462effe\n      dup4\n      codecopy\n      dup2\n      mload\n      swap2\n      mstore\n      0x44\n      dup3\n      add\n      mstore\n      swap1\n      mload\n      swap1\n      dup2\n      swap1\n      sub\n      0x64\n      add\n      swap1\n      revert\n    tag_281:\n        /* \"sadc.sol\":36715:36721  _owner */\n      0x00\n      dup1\n      sload\n        /* \"sadc.sol\":36707:36754  payable(_owner).transfer(address(this).balance) */\n      mload(0x40)\n      sub(shl(0xa0, 0x01), 0x01)\n        /* \"sadc.sol\":36715:36721  _owner */\n      swap1\n      swap2\n      and\n      swap2\n        /* \"sadc.sol\":36732:36753  address(this).balance */\n      selfbalance\n        /* \"sadc.sol\":36707:36754  payable(_owner).transfer(address(this).balance) */\n      dup1\n      iszero\n      0x08fc\n      mul\n      swap3\n        /* \"sadc.sol\":36732:36753  address(this).balance */\n      swap1\n      swap2\n        /* \"sadc.sol\":36707:36754  payable(_owner).transfer(address(this).balance) */\n      dup2\n        /* \"sadc.sol\":36715:36721  _owner */\n      dup2\n        /* \"sadc.sol\":36707:36754  payable(_owner).transfer(address(this).balance) */\n      dup2\n        /* \"sadc.sol\":36732:36753  address(this).balance */\n      dup6\n        /* \"sadc.sol\":36715:36721  _owner */\n      dup9\n        /* \"sadc.sol\":36707:36754  payable(_owner).transfer(address(this).balance) */\n      dup9\n      call\n      swap4\n      pop\n      pop\n      pop\n      pop\n      iszero\n      dup1\n      iszero\n      tag_284\n      jumpi\n      returndatasize\n      0x00\n      dup1\n      returndatacopy\n      revert(0x00, returndatasize)\n    tag_284:\n      pop\n        /* \"sadc.sol\":36652:36762  function claimTokens() public onlyOwner {\r... */\n      jump\t// out\n        /* \"sadc.sol\":26317:26355  address public immutable uniswapV2Pair */\n    tag_116:\n      immutable(\"0xf17089ced8c0c2239e63f2bbb45b3ebcf864ae70eb1ca01545337030cdeed50a\")\n      dup2\n      jump\t// out\n        /* \"sadc.sol\":26396:26436  bool public swapAndLiquifyEnabled = true */\n    tag_119:\n      sload(0x13)\n      0x0100\n      swap1\n      div\n      0xff\n      and\n      dup2\n      jump\t// out\n        /* \"sadc.sol\":31508:31955  function excludeFromReward(address account) public onlyOwner() {\r... */\n    tag_123:\n        /* \"sadc.sol\":15588:15600  _msgSender() */\n      tag_286\n        /* \"sadc.sol\":15588:15598  _msgSender */\n      tag_209\n        /* \"sadc.sol\":15588:15600  _msgSender() */\n      jump\t// in\n    tag_286:\n        /* \"sadc.sol\":15578:15584  _owner */\n      sload(0x00)\n      sub(shl(0xa0, 0x01), 0x01)\n      swap1\n      dup2\n      and\n        /* \"sadc.sol\":15578:15600  _owner == _msgSender() */\n      swap2\n      and\n      eq\n        /* \"sadc.sol\":15570:15637  require(_owner == _msgSender(), \"Ownable: caller is not the owner\") */\n      tag_287\n      jumpi\n      0x40\n      dup1\n      mload\n      shl(0xe5, 0x461bcd)\n      dup2\n      mstore\n      0x20\n      0x04\n      dup3\n      add\n      dup2\n      swap1\n      mstore\n      0x24\n      dup3\n      add\n      mstore\n      0x00\n      dup1\n      mload\n      0x20\n      data_9924ebdf1add33d25d4ef888e16131f0a5687b0580a36c21b5c301a6c462effe\n      dup4\n      codecopy\n      dup2\n      mload\n      swap2\n      mstore\n      0x44\n      dup3\n      add\n      mstore\n      swap1\n      mload\n      swap1\n      dup2\n      swap1\n      sub\n      0x64\n      add\n      swap1\n      revert\n    tag_287:\n      sub(shl(0xa0, 0x01), 0x01)\n        /* \"sadc.sol\":31705:31725  _isExcluded[account] */\n      dup2\n      and\n      0x00\n      swap1\n      dup2\n      mstore\n        /* \"sadc.sol\":31705:31716  _isExcluded */\n      0x07\n        /* \"sadc.sol\":31705:31725  _isExcluded[account] */\n      0x20\n      mstore\n      0x40\n      swap1\n      keccak256\n      sload\n      0xff\n      and\n        /* \"sadc.sol\":31704:31725  !_isExcluded[account] */\n      iszero\n        /* \"sadc.sol\":31696:31757  require(!_isExcluded[account], \"Account is already excluded\") */\n      tag_289\n      jumpi\n      0x40\n      dup1\n      mload\n      shl(0xe5, 0x461bcd)\n      dup2\n      mstore\n      0x20\n      0x04\n      dup3\n      add\n      mstore\n      0x1b\n      0x24\n      dup3\n      add\n      mstore\n      0x4163636f756e7420697320616c7265616479206578636c756465640000000000\n      0x44\n      dup3\n      add\n      mstore\n      swap1\n      mload\n      swap1\n      dup2\n      swap1\n      sub\n      0x64\n      add\n      swap1\n      revert\n    tag_289:\n      sub(shl(0xa0, 0x01), 0x01)\n        /* \"sadc.sol\":31771:31787  _rOwned[account] */\n      dup2\n      and\n        /* \"sadc.sol\":31790:31791  0 */\n      0x00\n        /* \"sadc.sol\":31771:31787  _rOwned[account] */\n      swap1\n      dup2\n      mstore\n        /* \"sadc.sol\":31771:31778  _rOwned */\n      0x03\n        /* \"sadc.sol\":31771:31787  _rOwned[account] */\n      0x20\n      mstore\n      0x40\n      swap1\n      keccak256\n      sload\n        /* \"sadc.sol\":31771:31791  _rOwned[account] > 0 */\n      iszero\n        /* \"sadc.sol\":31768:31876  if(_rOwned[account] > 0) {\r... */\n      tag_290\n      jumpi\n      sub(shl(0xa0, 0x01), 0x01)\n        /* \"sadc.sol\":31847:31863  _rOwned[account] */\n      dup2\n      and\n      0x00\n      swap1\n      dup2\n      mstore\n        /* \"sadc.sol\":31847:31854  _rOwned */\n      0x03\n        /* \"sadc.sol\":31847:31863  _rOwned[account] */\n      0x20\n      mstore\n      0x40\n      swap1\n      keccak256\n      sload\n        /* \"sadc.sol\":31827:31864  tokenFromReflection(_rOwned[account]) */\n      tag_291\n      swap1\n        /* \"sadc.sol\":31827:31846  tokenFromReflection */\n      tag_84\n        /* \"sadc.sol\":31827:31864  tokenFromReflection(_rOwned[account]) */\n      jump\t// in\n    tag_291:\n      sub(shl(0xa0, 0x01), 0x01)\n        /* \"sadc.sol\":31808:31824  _tOwned[account] */\n      dup3\n      and\n      0x00\n      swap1\n      dup2\n      mstore\n        /* \"sadc.sol\":31808:31815  _tOwned */\n      0x04\n        /* \"sadc.sol\":31808:31824  _tOwned[account] */\n      0x20\n      mstore\n      0x40\n      swap1\n      keccak256\n        /* \"sadc.sol\":31808:31864  _tOwned[account] = tokenFromReflection(_rOwned[account]) */\n      sstore\n        /* \"sadc.sol\":31768:31876  if(_rOwned[account] > 0) {\r... */\n    tag_290:\n      sub(shl(0xa0, 0x01), 0x01)\n        /* \"sadc.sol\":31886:31906  _isExcluded[account] */\n      and\n      0x00\n      dup2\n      dup2\n      mstore\n        /* \"sadc.sol\":31886:31897  _isExcluded */\n      0x07\n        /* \"sadc.sol\":31886:31906  _isExcluded[account] */\n      0x20\n      mstore\n      0x40\n      dup2\n      keccak256\n        /* \"sadc.sol\":31886:31913  _isExcluded[account] = true */\n      dup1\n      sload\n      not(0xff)\n      and\n        /* \"sadc.sol\":31909:31913  true */\n      0x01\n        /* \"sadc.sol\":31886:31913  _isExcluded[account] = true */\n      swap1\n      dup2\n      or\n      swap1\n      swap2\n      sstore\n        /* \"sadc.sol\":31924:31933  _excluded */\n      0x08\n        /* \"sadc.sol\":31924:31947  _excluded.push(account) */\n      dup1\n      sload\n      swap2\n      dup3\n      add\n      dup2\n      sstore\n      swap1\n      swap2\n      mstore\n      0xf3f7a9fe364faab93b216da50a3214154f22a0a2b415b23a84c8169e8b636ee3\n      add\n      dup1\n      sload\n      not(sub(shl(0xa0, 0x01), 0x01))\n      and\n      swap1\n      swap2\n      or\n      swap1\n      sstore\n        /* \"sadc.sol\":31508:31955  function excludeFromReward(address account) public onlyOwner() {\r... */\n      jump\t// out\n        /* \"sadc.sol\":37513:37636  function isExcludedFromFee(address account) public view returns(bool) {\r... */\n    tag_127:\n      sub(shl(0xa0, 0x01), 0x01)\n        /* \"sadc.sol\":37601:37628  _isExcludedFromFee[account] */\n      and\n        /* \"sadc.sol\":37577:37581  bool */\n      0x00\n        /* \"sadc.sol\":37601:37628  _isExcludedFromFee[account] */\n      swap1\n      dup2\n      mstore\n        /* \"sadc.sol\":37601:37619  _isExcludedFromFee */\n      0x06\n        /* \"sadc.sol\":37601:37628  _isExcludedFromFee[account] */\n      0x20\n      mstore\n      0x40\n      swap1\n      keccak256\n      sload\n      0xff\n      and\n      swap1\n        /* \"sadc.sol\":37513:37636  function isExcludedFromFee(address account) public view returns(bool) {\r... */\n      jump\t// out\n        /* \"sadc.sol\":26178:26206  uint256 public _liquidityFee */\n    tag_130:\n      sload(0x11)\n      dup2\n      jump\t// out\n        /* \"sadc.sol\":28670:28868  function balanceOf(address account) public view override returns (uint256) {\r... */\n    tag_134:\n      sub(shl(0xa0, 0x01), 0x01)\n        /* \"sadc.sol\":28760:28780  _isExcluded[account] */\n      dup2\n      and\n        /* \"sadc.sol\":28736:28743  uint256 */\n      0x00\n        /* \"sadc.sol\":28760:28780  _isExcluded[account] */\n      swap1\n      dup2\n      mstore\n        /* \"sadc.sol\":28760:28771  _isExcluded */\n      0x07\n        /* \"sadc.sol\":28760:28780  _isExcluded[account] */\n      0x20\n      mstore\n      0x40\n      dup2\n      keccak256\n      sload\n      0xff\n      and\n        /* \"sadc.sol\":28756:28805  if (_isExcluded[account]) return _tOwned[account] */\n      iszero\n      tag_295\n      jumpi\n      pop\n      sub(shl(0xa0, 0x01), 0x01)\n        /* \"sadc.sol\":28789:28805  _tOwned[account] */\n      dup2\n      and\n      0x00\n      swap1\n      dup2\n      mstore\n        /* \"sadc.sol\":28789:28796  _tOwned */\n      0x04\n        /* \"sadc.sol\":28789:28805  _tOwned[account] */\n      0x20\n      mstore\n      0x40\n      swap1\n      keccak256\n      sload\n        /* \"sadc.sol\":28782:28805  return _tOwned[account] */\n      jump(tag_230)\n        /* \"sadc.sol\":28756:28805  if (_isExcluded[account]) return _tOwned[account] */\n    tag_295:\n      sub(shl(0xa0, 0x01), 0x01)\n        /* \"sadc.sol\":28843:28859  _rOwned[account] */\n      dup3\n      and\n      0x00\n      swap1\n      dup2\n      mstore\n        /* \"sadc.sol\":28843:28850  _rOwned */\n      0x03\n        /* \"sadc.sol\":28843:28859  _rOwned[account] */\n      0x20\n      mstore\n      0x40\n      swap1\n      keccak256\n      sload\n        /* \"sadc.sol\":28823:28860  tokenFromReflection(_rOwned[account]) */\n      tag_216\n      swap1\n        /* \"sadc.sol\":28823:28842  tokenFromReflection */\n      tag_84\n        /* \"sadc.sol\":28823:28860  tokenFromReflection(_rOwned[account]) */\n      jump\t// in\n        /* \"sadc.sol\":16009:16157  function renounceOwnership() public virtual onlyOwner {\r... */\n    tag_137:\n        /* \"sadc.sol\":15588:15600  _msgSender() */\n      tag_298\n        /* \"sadc.sol\":15588:15598  _msgSender */\n      tag_209\n        /* \"sadc.sol\":15588:15600  _msgSender() */\n      jump\t// in\n    tag_298:\n        /* \"sadc.sol\":15578:15584  _owner */\n      sload(0x00)\n      sub(shl(0xa0, 0x01), 0x01)\n      swap1\n      dup2\n      and\n        /* \"sadc.sol\":15578:15600  _owner == _msgSender() */\n      swap2\n      and\n      eq\n        /* \"sadc.sol\":15570:15637  require(_owner == _msgSender(), \"Ownable: caller is not the owner\") */\n      tag_299\n      jumpi\n      0x40\n      dup1\n      mload\n      shl(0xe5, 0x461bcd)\n      dup2\n      mstore\n      0x20\n      0x04\n      dup3\n      add\n      dup2\n      swap1\n      mstore\n      0x24\n      dup3\n      add\n      mstore\n      0x00\n      dup1\n      mload\n      0x20\n      data_9924ebdf1add33d25d4ef888e16131f0a5687b0580a36c21b5c301a6c462effe\n      dup4\n      codecopy\n      dup2\n      mload\n      swap2\n      mstore\n      0x44\n      dup3\n      add\n      mstore\n      swap1\n      mload\n      swap1\n      dup2\n      swap1\n      sub\n      0x64\n      add\n      swap1\n      revert\n    tag_299:\n        /* \"sadc.sol\":16116:16117  0 */\n      0x00\n        /* \"sadc.sol\":16100:16106  _owner */\n      dup1\n      sload\n        /* \"sadc.sol\":16079:16119  OwnershipTransferred(_owner, address(0)) */\n      mload(0x40)\n      sub(shl(0xa0, 0x01), 0x01)\n        /* \"sadc.sol\":16100:16106  _owner */\n      swap1\n      swap2\n      and\n      swap1\n      0x00\n      dup1\n      mload\n      0x20\n      data_9c064737b570a74c2bac5d21056d93ac53115214216cd14d4a0fc9b60be81231\n      dup4\n      codecopy\n      dup2\n      mload\n      swap2\n      mstore\n        /* \"sadc.sol\":16079:16119  OwnershipTransferred(_owner, address(0)) */\n      swap1\n        /* \"sadc.sol\":16116:16117  0 */\n      dup4\n      swap1\n        /* \"sadc.sol\":16079:16119  OwnershipTransferred(_owner, address(0)) */\n      log3\n        /* \"sadc.sol\":16147:16148  0 */\n      0x00\n        /* \"sadc.sol\":16130:16149  _owner = address(0) */\n      dup1\n      sload\n      not(sub(shl(0xa0, 0x01), 0x01))\n      and\n      swap1\n      sstore\n        /* \"sadc.sol\":16009:16157  function renounceOwnership() public virtual onlyOwner {\r... */\n      jump\t// out\n        /* \"sadc.sol\":26449:26476  uint256 public _maxTxAmount */\n    tag_140:\n      sload(0x14)\n      dup2\n      jump\t// out\n        /* \"sadc.sol\":30195:30315  function isExcludedFromReward(address account) public view returns (bool) {\r... */\n    tag_144:\n      sub(shl(0xa0, 0x01), 0x01)\n        /* \"sadc.sol\":30287:30307  _isExcluded[account] */\n      and\n        /* \"sadc.sol\":30263:30267  bool */\n      0x00\n        /* \"sadc.sol\":30287:30307  _isExcluded[account] */\n      swap1\n      dup2\n      mstore\n        /* \"sadc.sol\":30287:30298  _isExcluded */\n      0x07\n        /* \"sadc.sol\":30287:30307  _isExcluded[account] */\n      0x20\n      mstore\n      0x40\n      swap1\n      keccak256\n      sload\n      0xff\n      and\n      swap1\n        /* \"sadc.sol\":30195:30315  function isExcludedFromReward(address account) public view returns (bool) {\r... */\n      jump\t// out\n        /* \"sadc.sol\":15366:15445  function owner() public view returns (address) {\r... */\n    tag_147:\n        /* \"sadc.sol\":15404:15411  address */\n      0x00\n        /* \"sadc.sol\":15431:15437  _owner */\n      sload\n      sub(shl(0xa0, 0x01), 0x01)\n      and\n        /* \"sadc.sol\":15366:15445  function owner() public view returns (address) {\r... */\n      swap1\n      jump\t// out\n        /* \"sadc.sol\":33461:33583  function setLiquidityFeePercent(uint256 liquidityFee) external onlyOwner() {\r... */\n    tag_151:\n        /* \"sadc.sol\":15588:15600  _msgSender() */\n      tag_304\n        /* \"sadc.sol\":15588:15598  _msgSender */\n      tag_209\n        /* \"sadc.sol\":15588:15600  _msgSender() */\n      jump\t// in\n    tag_304:\n        /* \"sadc.sol\":15578:15584  _owner */\n      sload(0x00)\n      sub(shl(0xa0, 0x01), 0x01)\n      swap1\n      dup2\n      and\n        /* \"sadc.sol\":15578:15600  _owner == _msgSender() */\n      swap2\n      and\n      eq\n        /* \"sadc.sol\":15570:15637  require(_owner == _msgSender(), \"Ownable: caller is not the owner\") */\n      tag_305\n      jumpi\n      0x40\n      dup1\n      mload\n      shl(0xe5, 0x461bcd)\n      dup2\n      mstore\n      0x20\n      0x04\n      dup3\n      add\n      dup2\n      swap1\n      mstore\n      0x24\n      dup3\n      add\n      mstore\n      0x00\n      dup1\n      mload\n      0x20\n      data_9924ebdf1add33d25d4ef888e16131f0a5687b0580a36c21b5c301a6c462effe\n      dup4\n      codecopy\n      dup2\n      mload\n      swap2\n      mstore\n      0x44\n      dup3\n      add\n      mstore\n      swap1\n      mload\n      swap1\n      dup2\n      swap1\n      sub\n      0x64\n      add\n      swap1\n      revert\n    tag_305:\n        /* \"sadc.sol\":33547:33560  _liquidityFee */\n      0x11\n        /* \"sadc.sol\":33547:33575  _liquidityFee = liquidityFee */\n      sstore\n        /* \"sadc.sol\":33461:33583  function setLiquidityFeePercent(uint256 liquidityFee) external onlyOwner() {\r... */\n      jump\t// out\n        /* \"sadc.sol\":28379:28466  function symbol() public view returns (string memory) {\r... */\n    tag_154:\n        /* \"sadc.sol\":28451:28458  _symbol */\n      0x0d\n        /* \"sadc.sol\":28444:28458  return _symbol */\n      dup1\n      sload\n      0x40\n      dup1\n      mload\n      0x20\n      0x1f\n      0x02\n      not(0x00)\n      0x0100\n      0x01\n      dup9\n      and\n      iszero\n      mul\n      add\n      swap1\n      swap6\n      and\n      swap5\n      swap1\n      swap5\n      div\n      swap4\n      dup5\n      add\n      dup2\n      swap1\n      div\n      dup2\n      mul\n      dup3\n      add\n      dup2\n      add\n      swap1\n      swap3\n      mstore\n      dup3\n      dup2\n      mstore\n        /* \"sadc.sol\":28418:28431  string memory */\n      0x60\n      swap4\n        /* \"sadc.sol\":28444:28458  return _symbol */\n      swap1\n      swap3\n        /* \"sadc.sol\":28451:28458  _symbol */\n      swap1\n      swap2\n        /* \"sadc.sol\":28444:28458  return _symbol */\n      dup4\n      add\n        /* \"sadc.sol\":28451:28458  _symbol */\n      dup3\n        /* \"sadc.sol\":28444:28458  return _symbol */\n      dup3\n      dup1\n      iszero\n      tag_213\n      jumpi\n      dup1\n      0x1f\n      lt\n      tag_214\n      jumpi\n      0x0100\n      dup1\n      dup4\n      sload\n      div\n      mul\n      dup4\n      mstore\n      swap2\n      0x20\n      add\n      swap2\n      jump(tag_213)\n        /* \"sadc.sol\":29918:30187  function decreaseAllowance(address spender, uint256 subtractedValue) public virtual returns (bool) {\r... */\n    tag_162:\n        /* \"sadc.sol\":30011:30015  bool */\n      0x00\n        /* \"sadc.sol\":30028:30157  _approve(_msgSender(), spender, _allowances[_msgSender()][spender].sub(subtractedValue, \"ERC20: decreased allowance below zero\")) */\n      tag_217\n        /* \"sadc.sol\":30037:30049  _msgSender() */\n      tag_313\n        /* \"sadc.sol\":30037:30047  _msgSender */\n      tag_209\n        /* \"sadc.sol\":30037:30049  _msgSender() */\n      jump\t// in\n    tag_313:\n        /* \"sadc.sol\":30051:30058  spender */\n      dup5\n        /* \"sadc.sol\":30060:30156  _allowances[_msgSender()][spender].sub(subtractedValue, \"ERC20: decreased allowance below zero\") */\n      tag_227\n        /* \"sadc.sol\":30099:30114  subtractedValue */\n      dup6\n        /* \"sadc.sol\":30060:30156  _allowances[_msgSender()][spender].sub(subtractedValue, \"ERC20: decreased allowance below zero\") */\n      mload(0x40)\n      dup1\n      0x60\n      add\n      0x40\n      mstore\n      dup1\n      0x25\n      dup2\n      mstore\n      0x20\n      add\n      data_f8b476f7d28209d77d4a4ac1fe36b9f8259aa1bb6bddfa6e89de7e51615cf8a8\n      0x25\n      swap2\n      codecopy\n        /* \"sadc.sol\":30060:30071  _allowances */\n      0x05\n        /* \"sadc.sol\":30060:30085  _allowances[_msgSender()] */\n      0x00\n        /* \"sadc.sol\":30072:30084  _msgSender() */\n      tag_315\n        /* \"sadc.sol\":30072:30082  _msgSender */\n      tag_209\n        /* \"sadc.sol\":30072:30084  _msgSender() */\n      jump\t// in\n    tag_315:\n      sub(shl(0xa0, 0x01), 0x01)\n        /* \"sadc.sol\":30060:30085  _allowances[_msgSender()] */\n      swap1\n      dup2\n      and\n      dup3\n      mstore\n      0x20\n      dup1\n      dup4\n      add\n      swap4\n      swap1\n      swap4\n      mstore\n      0x40\n      swap2\n      dup3\n      add\n      0x00\n      swap1\n      dup2\n      keccak256\n        /* \"sadc.sol\":30060:30094  _allowances[_msgSender()][spender] */\n      swap2\n      dup14\n      and\n      dup2\n      mstore\n      swap3\n      mstore\n      swap1\n      keccak256\n      sload\n      swap2\n        /* \"sadc.sol\":30060:30156  _allowances[_msgSender()][spender].sub(subtractedValue, \"ERC20: decreased allowance below zero\") */\n      swap1\n        /* \"sadc.sol\":30060:30098  _allowances[_msgSender()][spender].sub */\n      tag_229\n        /* \"sadc.sol\":30060:30156  _allowances[_msgSender()][spender].sub(subtractedValue, \"ERC20: decreased allowance below zero\") */\n      jump\t// in\n        /* \"sadc.sol\":17019:17312  function unlock() public virtual {\r... */\n    tag_165:\n        /* \"sadc.sol\":17071:17085  _previousOwner */\n      and(sub(shl(0xa0, 0x01), 0x01), sload(0x01))\n        /* \"sadc.sol\":17089:17099  msg.sender */\n      caller\n        /* \"sadc.sol\":17071:17099  _previousOwner == msg.sender */\n      eq\n        /* \"sadc.sol\":17063:17139  require(_previousOwner == msg.sender, \"You don't have permission to unlock\") */\n      tag_317\n      jumpi\n      mload(0x40)\n      shl(0xe5, 0x461bcd)\n      dup2\n      mstore\n      0x04\n      add\n      dup1\n      dup1\n      0x20\n      add\n      dup3\n      dup2\n      sub\n      dup3\n      mstore\n      0x23\n      dup2\n      mstore\n      0x20\n      add\n      dup1\n      data_f4eb59be3df39931213d374c3658377dca3f0d2b46b7bc965af767c57c74b611\n      0x23\n      swap2\n      codecopy\n      0x40\n      add\n      swap2\n      pop\n      pop\n      mload(0x40)\n      dup1\n      swap2\n      sub\n      swap1\n      revert\n    tag_317:\n        /* \"sadc.sol\":17164:17173  _lockTime */\n      sload(0x02)\n        /* \"sadc.sol\":17158:17161  now */\n      timestamp\n        /* \"sadc.sol\":17158:17173  now > _lockTime */\n      gt\n        /* \"sadc.sol\":17150:17210  require(now > _lockTime , \"Contract is locked until 7 days\") */\n      tag_318\n      jumpi\n      0x40\n      dup1\n      mload\n      shl(0xe5, 0x461bcd)\n      dup2\n      mstore\n      0x20\n      0x04\n      dup3\n      add\n      mstore\n      0x1f\n      0x24\n      dup3\n      add\n      mstore\n      0x436f6e7472616374206973206c6f636b656420756e74696c2037206461797300\n      0x44\n      dup3\n      add\n      mstore\n      swap1\n      mload\n      swap1\n      dup2\n      swap1\n      sub\n      0x64\n      add\n      swap1\n      revert\n    tag_318:\n        /* \"sadc.sol\":17255:17269  _previousOwner */\n      sload(0x01)\n      0x00\n        /* \"sadc.sol\":17247:17253  _owner */\n      dup1\n      sload\n        /* \"sadc.sol\":17226:17270  OwnershipTransferred(_owner, _previousOwner) */\n      mload(0x40)\n      sub(shl(0xa0, 0x01), 0x01)\n        /* \"sadc.sol\":17255:17269  _previousOwner */\n      swap4\n      dup5\n      and\n      swap4\n        /* \"sadc.sol\":17247:17253  _owner */\n      swap1\n      swap2\n      and\n      swap2\n      0x00\n      dup1\n      mload\n      0x20\n      data_9c064737b570a74c2bac5d21056d93ac53115214216cd14d4a0fc9b60be81231\n      dup4\n      codecopy\n      dup2\n      mload\n      swap2\n      mstore\n        /* \"sadc.sol\":17226:17270  OwnershipTransferred(_owner, _previousOwner) */\n      swap2\n      log3\n        /* \"sadc.sol\":17290:17304  _previousOwner */\n      sload(0x01)\n      0x00\n        /* \"sadc.sol\":17281:17304  _owner = _previousOwner */\n      dup1\n      sload\n      not(sub(shl(0xa0, 0x01), 0x01))\n      and\n      sub(shl(0xa0, 0x01), 0x01)\n        /* \"sadc.sol\":17290:17304  _previousOwner */\n      swap1\n      swap3\n      and\n        /* \"sadc.sol\":17281:17304  _owner = _previousOwner */\n      swap2\n      swap1\n      swap2\n      or\n      swap1\n      sstore\n        /* \"sadc.sol\":17019:17312  function unlock() public virtual {\r... */\n      jump\t// out\n        /* \"sadc.sol\":28876:29043  function transfer(address recipient, uint256 amount) public override returns (bool) {\r... */\n    tag_169:\n        /* \"sadc.sol\":28954:28958  bool */\n      0x00\n        /* \"sadc.sol\":28971:29013  _transfer(_msgSender(), recipient, amount) */\n      tag_217\n        /* \"sadc.sol\":28981:28993  _msgSender() */\n      tag_321\n        /* \"sadc.sol\":28981:28991  _msgSender */\n      tag_209\n        /* \"sadc.sol\":28981:28993  _msgSender() */\n      jump\t// in\n    tag_321:\n        /* \"sadc.sol\":28995:29004  recipient */\n      dup5\n        /* \"sadc.sol\":29006:29012  amount */\n      dup5\n        /* \"sadc.sol\":28971:28980  _transfer */\n      tag_224\n        /* \"sadc.sol\":28971:29013  _transfer(_msgSender(), recipient, amount) */\n      jump\t// in\n        /* \"sadc.sol\":15100:15121  address public _owner */\n    tag_172:\n      and(sub(shl(0xa0, 0x01), 0x01), sload(0x00))\n      dup2\n      jump\t// out\n        /* \"sadc.sol\":16564:16653  function geUnlockTime() public view returns (uint256) {\r... */\n    tag_175:\n        /* \"sadc.sol\":16636:16645  _lockTime */\n      sload(0x02)\n        /* \"sadc.sol\":16564:16653  function geUnlockTime() public view returns (uint256) {\r... */\n      swap1\n      jump\t// out\n        /* \"sadc.sol\":33901:34072  function setSwapAndLiquifyEnabled(bool _enabled) public onlyOwner {\r... */\n    tag_179:\n        /* \"sadc.sol\":15588:15600  _msgSender() */\n      tag_324\n        /* \"sadc.sol\":15588:15598  _msgSender */\n      tag_209\n        /* \"sadc.sol\":15588:15600  _msgSender() */\n      jump\t// in\n    tag_324:\n        /* \"sadc.sol\":15578:15584  _owner */\n      sload(0x00)\n      sub(shl(0xa0, 0x01), 0x01)\n      swap1\n      dup2\n      and\n        /* \"sadc.sol\":15578:15600  _owner == _msgSender() */\n      swap2\n      and\n      eq\n        /* \"sadc.sol\":15570:15637  require(_owner == _msgSender(), \"Ownable: caller is not the owner\") */\n      tag_325\n      jumpi\n      0x40\n      dup1\n      mload\n      shl(0xe5, 0x461bcd)\n      dup2\n      mstore\n      0x20\n      0x04\n      dup3\n      add\n      dup2\n      swap1\n      mstore\n      0x24\n      dup3\n      add\n      mstore\n      0x00\n      dup1\n      mload\n      0x20\n      data_9924ebdf1add33d25d4ef888e16131f0a5687b0580a36c21b5c301a6c462effe\n      dup4\n      codecopy\n      dup2\n      mload\n      swap2\n      mstore\n      0x44\n      dup3\n      add\n      mstore\n      swap1\n      mload\n      swap1\n      dup2\n      swap1\n      sub\n      0x64\n      add\n      swap1\n      revert\n    tag_325:\n        /* \"sadc.sol\":33978:33999  swapAndLiquifyEnabled */\n      0x13\n        /* \"sadc.sol\":33978:34010  swapAndLiquifyEnabled = _enabled */\n      dup1\n      sload\n      dup3\n      iszero\n      iszero\n      0x0100\n      dup2\n      mul\n      not(0xff00)\n      swap1\n      swap3\n      and\n      swap2\n      swap1\n      swap2\n      or\n      swap1\n      swap2\n      sstore\n        /* \"sadc.sol\":34026:34064  SwapAndLiquifyEnabledUpdated(_enabled) */\n      0x40\n      dup1\n      mload\n      swap2\n      dup3\n      mstore\n      mload\n      0x53726dfcaf90650aa7eb35524f4d3220f07413c8d6cb404cc8c18bf5591bc159\n      swap2\n      dup2\n      swap1\n      sub\n      0x20\n      add\n      swap1\n      log1\n        /* \"sadc.sol\":33901:34072  function setSwapAndLiquifyEnabled(bool _enabled) public onlyOwner {\r... */\n      pop\n      jump\t// out\n        /* \"sadc.sol\":26483:26527  uint256 public numTokensSellToAddToLiquidity */\n    tag_182:\n      sload(0x15)\n      dup2\n      jump\t// out\n        /* \"sadc.sol\":33764:33893  function setMaxTxPercent(uint256 maxTxPercent) public onlyOwner {\r... */\n    tag_186:\n        /* \"sadc.sol\":15588:15600  _msgSender() */\n      tag_328\n        /* \"sadc.sol\":15588:15598  _msgSender */\n      tag_209\n        /* \"sadc.sol\":15588:15600  _msgSender() */\n      jump\t// in\n    tag_328:\n        /* \"sadc.sol\":15578:15584  _owner */\n      sload(0x00)\n      sub(shl(0xa0, 0x01), 0x01)\n      swap1\n      dup2\n      and\n        /* \"sadc.sol\":15578:15600  _owner == _msgSender() */\n      swap2\n      and\n      eq\n        /* \"sadc.sol\":15570:15637  require(_owner == _msgSender(), \"Ownable: caller is not the owner\") */\n      tag_329\n      jumpi\n      0x40\n      dup1\n      mload\n      shl(0xe5, 0x461bcd)\n      dup2\n      mstore\n      0x20\n      0x04\n      dup3\n      add\n      dup2\n      swap1\n      mstore\n      0x24\n      dup3\n      add\n      mstore\n      0x00\n      dup1\n      mload\n      0x20\n      data_9924ebdf1add33d25d4ef888e16131f0a5687b0580a36c21b5c301a6c462effe\n      dup4\n      codecopy\n      dup2\n      mload\n      swap2\n      mstore\n      0x44\n      dup3\n      add\n      mstore\n      swap1\n      mload\n      swap1\n      dup2\n      swap1\n      sub\n      0x64\n      add\n      swap1\n      revert\n    tag_329:\n        /* \"sadc.sol\":33876:33885  _decimals */\n      sload(0x0e)\n        /* \"sadc.sol\":33870:33872  10 */\n      0x0a\n        /* \"sadc.sol\":33870:33885  10 ** _decimals */\n      exp\n        /* \"sadc.sol\":33854:33885  maxTxPercent  * 10 ** _decimals */\n      mul\n        /* \"sadc.sol\":33839:33851  _maxTxAmount */\n      0x14\n        /* \"sadc.sol\":33839:33885  _maxTxAmount = maxTxPercent  * 10 ** _decimals */\n      sstore\n        /* \"sadc.sol\":33764:33893  function setMaxTxPercent(uint256 maxTxPercent) public onlyOwner {\r... */\n      jump\t// out\n        /* \"sadc.sol\":16729:16943  function lock(uint256 time) public virtual onlyOwner {\r... */\n    tag_190:\n        /* \"sadc.sol\":15588:15600  _msgSender() */\n      tag_332\n        /* \"sadc.sol\":15588:15598  _msgSender */\n      tag_209\n        /* \"sadc.sol\":15588:15600  _msgSender() */\n      jump\t// in\n    tag_332:\n        /* \"sadc.sol\":15578:15584  _owner */\n      sload(0x00)\n      sub(shl(0xa0, 0x01), 0x01)\n      swap1\n      dup2\n      and\n        /* \"sadc.sol\":15578:15600  _owner == _msgSender() */\n      swap2\n      and\n      eq\n        /* \"sadc.sol\":15570:15637  require(_owner == _msgSender(), \"Ownable: caller is not the owner\") */\n      tag_333\n      jumpi\n      0x40\n      dup1\n      mload\n      shl(0xe5, 0x461bcd)\n      dup2\n      mstore\n      0x20\n      0x04\n      dup3\n      add\n      dup2\n      swap1\n      mstore\n      0x24\n      dup3\n      add\n      mstore\n      0x00\n      dup1\n      mload\n      0x20\n      data_9924ebdf1add33d25d4ef888e16131f0a5687b0580a36c21b5c301a6c462effe\n      dup4\n      codecopy\n      dup2\n      mload\n      swap2\n      mstore\n      0x44\n      dup3\n      add\n      mstore\n      swap1\n      mload\n      swap1\n      dup2\n      swap1\n      sub\n      0x64\n      add\n      swap1\n      revert\n    tag_333:\n        /* \"sadc.sol\":16810:16816  _owner */\n      0x00\n      dup1\n      sload\n      0x01\n        /* \"sadc.sol\":16793:16816  _previousOwner = _owner */\n      dup1\n      sload\n      not(sub(shl(0xa0, 0x01), 0x01))\n      swap1\n      dup2\n      and\n      sub(shl(0xa0, 0x01), 0x01)\n        /* \"sadc.sol\":16810:16816  _owner */\n      dup5\n      and\n        /* \"sadc.sol\":16793:16816  _previousOwner = _owner */\n      or\n      swap1\n      swap2\n      sstore\n        /* \"sadc.sol\":16827:16846  _owner = address(0) */\n      and\n      dup2\n      sstore\n        /* \"sadc.sol\":16869:16872  now */\n      timestamp\n        /* \"sadc.sol\":16869:16879  now + time */\n      dup3\n      add\n        /* \"sadc.sol\":16857:16866  _lockTime */\n      0x02\n        /* \"sadc.sol\":16857:16879  _lockTime = now + time */\n      sstore\n        /* \"sadc.sol\":16895:16935  OwnershipTransferred(_owner, address(0)) */\n      mload(0x40)\n        /* \"sadc.sol\":16810:16816  _owner */\n      dup2\n      swap1\n      0x00\n      dup1\n      mload\n      0x20\n      data_9c064737b570a74c2bac5d21056d93ac53115214216cd14d4a0fc9b60be81231\n      dup4\n      codecopy\n      dup2\n      mload\n      swap2\n      mstore\n        /* \"sadc.sol\":16895:16935  OwnershipTransferred(_owner, address(0)) */\n      swap1\n        /* \"sadc.sol\":16810:16816  _owner */\n      dup3\n      swap1\n        /* \"sadc.sol\":16895:16935  OwnershipTransferred(_owner, address(0)) */\n      log3\n        /* \"sadc.sol\":16729:16943  function lock(uint256 time) public virtual onlyOwner {\r... */\n      pop\n      jump\t// out\n        /* \"sadc.sol\":29051:29194  function allowance(address owner, address spender) public view override returns (uint256) {\r... */\n    tag_194:\n      sub(shl(0xa0, 0x01), 0x01)\n        /* \"sadc.sol\":29159:29177  _allowances[owner] */\n      swap2\n      dup3\n      and\n        /* \"sadc.sol\":29132:29139  uint256 */\n      0x00\n        /* \"sadc.sol\":29159:29177  _allowances[owner] */\n      swap1\n      dup2\n      mstore\n        /* \"sadc.sol\":29159:29170  _allowances */\n      0x05\n        /* \"sadc.sol\":29159:29177  _allowances[owner] */\n      0x20\n      swap1\n      dup2\n      mstore\n      0x40\n      dup1\n      dup4\n      keccak256\n        /* \"sadc.sol\":29159:29186  _allowances[owner][spender] */\n      swap4\n      swap1\n      swap5\n      and\n      dup3\n      mstore\n      swap2\n      swap1\n      swap2\n      mstore\n      keccak256\n      sload\n      swap1\n        /* \"sadc.sol\":29051:29194  function allowance(address owner, address spender) public view override returns (uint256) {\r... */\n      jump\t// out\n        /* \"sadc.sol\":33229:33339  function includeInFee(address account) public onlyOwner {\r... */\n    tag_198:\n        /* \"sadc.sol\":15588:15600  _msgSender() */\n      tag_337\n        /* \"sadc.sol\":15588:15598  _msgSender */\n      tag_209\n        /* \"sadc.sol\":15588:15600  _msgSender() */\n      jump\t// in\n    tag_337:\n        /* \"sadc.sol\":15578:15584  _owner */\n      sload(0x00)\n      sub(shl(0xa0, 0x01), 0x01)\n      swap1\n      dup2\n      and\n        /* \"sadc.sol\":15578:15600  _owner == _msgSender() */\n      swap2\n      and\n      eq\n        /* \"sadc.sol\":15570:15637  require(_owner == _msgSender(), \"Ownable: caller is not the owner\") */\n      tag_338\n      jumpi\n      0x40\n      dup1\n      mload\n      shl(0xe5, 0x461bcd)\n      dup2\n      mstore\n      0x20\n      0x04\n      dup3\n      add\n      dup2\n      swap1\n      mstore\n      0x24\n      dup3\n      add\n      mstore\n      0x00\n      dup1\n      mload\n      0x20\n      data_9924ebdf1add33d25d4ef888e16131f0a5687b0580a36c21b5c301a6c462effe\n      dup4\n      codecopy\n      dup2\n      mload\n      swap2\n      mstore\n      0x44\n      dup3\n      add\n      mstore\n      swap1\n      mload\n      swap1\n      dup2\n      swap1\n      sub\n      0x64\n      add\n      swap1\n      revert\n    tag_338:\n      sub(shl(0xa0, 0x01), 0x01)\n        /* \"sadc.sol\":33296:33323  _isExcludedFromFee[account] */\n      and\n        /* \"sadc.sol\":33326:33331  false */\n      0x00\n        /* \"sadc.sol\":33296:33323  _isExcludedFromFee[account] */\n      swap1\n      dup2\n      mstore\n        /* \"sadc.sol\":33296:33314  _isExcludedFromFee */\n      0x06\n        /* \"sadc.sol\":33296:33323  _isExcludedFromFee[account] */\n      0x20\n      mstore\n      0x40\n      swap1\n      keccak256\n        /* \"sadc.sol\":33296:33331  _isExcludedFromFee[account] = false */\n      dup1\n      sload\n      not(0xff)\n      and\n      swap1\n      sstore\n        /* \"sadc.sol\":33229:33339  function includeInFee(address account) public onlyOwner {\r... */\n      jump\t// out\n        /* \"sadc.sol\":33595:33753  function setNumTokensSellToAddToLiquidity(uint256 swapNumber) public onlyOwner {\r... */\n    tag_202:\n        /* \"sadc.sol\":15588:15600  _msgSender() */\n      tag_341\n        /* \"sadc.sol\":15588:15598  _msgSender */\n      tag_209\n        /* \"sadc.sol\":15588:15600  _msgSender() */\n      jump\t// in\n    tag_341:\n        /* \"sadc.sol\":15578:15584  _owner */\n      sload(0x00)\n      sub(shl(0xa0, 0x01), 0x01)\n      swap1\n      dup2\n      and\n        /* \"sadc.sol\":15578:15600  _owner == _msgSender() */\n      swap2\n      and\n      eq\n        /* \"sadc.sol\":15570:15637  require(_owner == _msgSender(), \"Ownable: caller is not the owner\") */\n      tag_342\n      jumpi\n      0x40\n      dup1\n      mload\n      shl(0xe5, 0x461bcd)\n      dup2\n      mstore\n      0x20\n      0x04\n      dup3\n      add\n      dup2\n      swap1\n      mstore\n      0x24\n      dup3\n      add\n      mstore\n      0x00\n      dup1\n      mload\n      0x20\n      data_9924ebdf1add33d25d4ef888e16131f0a5687b0580a36c21b5c301a6c462effe\n      dup4\n      codecopy\n      dup2\n      mload\n      swap2\n      mstore\n      0x44\n      dup3\n      add\n      mstore\n      swap1\n      mload\n      swap1\n      dup2\n      swap1\n      sub\n      0x64\n      add\n      swap1\n      revert\n    tag_342:\n        /* \"sadc.sol\":33736:33745  _decimals */\n      sload(0x0e)\n        /* \"sadc.sol\":33730:33732  10 */\n      0x0a\n        /* \"sadc.sol\":33730:33745  10 ** _decimals */\n      exp\n        /* \"sadc.sol\":33717:33745  swapNumber * 10 ** _decimals */\n      mul\n        /* \"sadc.sol\":33685:33714  numTokensSellToAddToLiquidity */\n      0x15\n        /* \"sadc.sol\":33685:33745  numTokensSellToAddToLiquidity = swapNumber * 10 ** _decimals */\n      sstore\n        /* \"sadc.sol\":33595:33753  function setNumTokensSellToAddToLiquidity(uint256 swapNumber) public onlyOwner {\r... */\n      jump\t// out\n        /* \"sadc.sol\":16312:16556  function transferOwnership(address newOwner) public virtual onlyOwner {\r... */\n    tag_206:\n        /* \"sadc.sol\":15588:15600  _msgSender() */\n      tag_345\n        /* \"sadc.sol\":15588:15598  _msgSender */\n      tag_209\n        /* \"sadc.sol\":15588:15600  _msgSender() */\n      jump\t// in\n    tag_345:\n        /* \"sadc.sol\":15578:15584  _owner */\n      sload(0x00)\n      sub(shl(0xa0, 0x01), 0x01)\n      swap1\n      dup2\n      and\n        /* \"sadc.sol\":15578:15600  _owner == _msgSender() */\n      swap2\n      and\n      eq\n        /* \"sadc.sol\":15570:15637  require(_owner == _msgSender(), \"Ownable: caller is not the owner\") */\n      tag_346\n      jumpi\n      0x40\n      dup1\n      mload\n      shl(0xe5, 0x461bcd)\n      dup2\n      mstore\n      0x20\n      0x04\n      dup3\n      add\n      dup2\n      swap1\n      mstore\n      0x24\n      dup3\n      add\n      mstore\n      0x00\n      dup1\n      mload\n      0x20\n      data_9924ebdf1add33d25d4ef888e16131f0a5687b0580a36c21b5c301a6c462effe\n      dup4\n      codecopy\n      dup2\n      mload\n      swap2\n      mstore\n      0x44\n      dup3\n      add\n      mstore\n      swap1\n      mload\n      swap1\n      dup2\n      swap1\n      sub\n      0x64\n      add\n      swap1\n      revert\n    tag_346:\n      sub(shl(0xa0, 0x01), 0x01)\n        /* \"sadc.sol\":16401:16423  newOwner != address(0) */\n      dup2\n      and\n        /* \"sadc.sol\":16393:16466  require(newOwner != address(0), \"Ownable: new owner is the zero address\") */\n      tag_348\n      jumpi\n      mload(0x40)\n      shl(0xe5, 0x461bcd)\n      dup2\n      mstore\n      0x04\n      add\n      dup1\n      dup1\n      0x20\n      add\n      dup3\n      dup2\n      sub\n      dup3\n      mstore\n      0x26\n      dup2\n      mstore\n      0x20\n      add\n      dup1\n      data_245f15ff17f551913a7a18385165551503906a406f905ac1c2437281a7cd0cfe\n      0x26\n      swap2\n      codecopy\n      0x40\n      add\n      swap2\n      pop\n      pop\n      mload(0x40)\n      dup1\n      swap2\n      sub\n      swap1\n      revert\n    tag_348:\n        /* \"sadc.sol\":16503:16509  _owner */\n      0x00\n      dup1\n      sload\n        /* \"sadc.sol\":16482:16520  OwnershipTransferred(_owner, newOwner) */\n      mload(0x40)\n      sub(shl(0xa0, 0x01), 0x01)\n      dup1\n      dup6\n      and\n      swap4\n        /* \"sadc.sol\":16503:16509  _owner */\n      swap3\n      and\n      swap2\n      0x00\n      dup1\n      mload\n      0x20\n      data_9c064737b570a74c2bac5d21056d93ac53115214216cd14d4a0fc9b60be81231\n      dup4\n      codecopy\n      dup2\n      mload\n      swap2\n      mstore\n        /* \"sadc.sol\":16482:16520  OwnershipTransferred(_owner, newOwner) */\n      swap2\n      log3\n        /* \"sadc.sol\":16531:16537  _owner */\n      0x00\n        /* \"sadc.sol\":16531:16548  _owner = newOwner */\n      dup1\n      sload\n      not(sub(shl(0xa0, 0x01), 0x01))\n      and\n      sub(shl(0xa0, 0x01), 0x01)\n      swap3\n      swap1\n      swap3\n      and\n      swap2\n      swap1\n      swap2\n      or\n      swap1\n      sstore\n        /* \"sadc.sol\":16312:16556  function transferOwnership(address newOwner) public virtual onlyOwner {\r... */\n      jump\t// out\n        /* \"sadc.sol\":8043:8149  function _msgSender() internal view virtual returns (address payable) {\r... */\n    tag_209:\n        /* \"sadc.sol\":8131:8141  msg.sender */\n      caller\n        /* \"sadc.sol\":8043:8149  function _msgSender() internal view virtual returns (address payable) {\r... */\n      swap1\n      jump\t// out\n        /* \"sadc.sol\":37644:37981  function _approve(address owner, address spender, uint256 amount) private {\r... */\n    tag_219:\n      sub(shl(0xa0, 0x01), 0x01)\n        /* \"sadc.sol\":37737:37756  owner != address(0) */\n      dup4\n      and\n        /* \"sadc.sol\":37729:37797  require(owner != address(0), \"ERC20: approve from the zero address\") */\n      tag_351\n      jumpi\n      mload(0x40)\n      shl(0xe5, 0x461bcd)\n      dup2\n      mstore\n      0x04\n      add\n      dup1\n      dup1\n      0x20\n      add\n      dup3\n      dup2\n      sub\n      dup3\n      mstore\n      0x24\n      dup2\n      mstore\n      0x20\n      add\n      dup1\n      data_c953f4879035ed60e766b34720f656aab5c697b141d924c283124ecedb91c208\n      0x24\n      swap2\n      codecopy\n      0x40\n      add\n      swap2\n      pop\n      pop\n      mload(0x40)\n      dup1\n      swap2\n      sub\n      swap1\n      revert\n    tag_351:\n      sub(shl(0xa0, 0x01), 0x01)\n        /* \"sadc.sol\":37816:37837  spender != address(0) */\n      dup3\n      and\n        /* \"sadc.sol\":37808:37876  require(spender != address(0), \"ERC20: approve to the zero address\") */\n      tag_352\n      jumpi\n      mload(0x40)\n      shl(0xe5, 0x461bcd)\n      dup2\n      mstore\n      0x04\n      add\n      dup1\n      dup1\n      0x20\n      add\n      dup3\n      dup2\n      sub\n      dup3\n      mstore\n      0x22\n      dup2\n      mstore\n      0x20\n      add\n      dup1\n      data_24883cc5fe64ace9d0df1893501ecb93c77180f0ff69cca79affb3c316dc8029\n      0x22\n      swap2\n      codecopy\n      0x40\n      add\n      swap2\n      pop\n      pop\n      mload(0x40)\n      dup1\n      swap2\n      sub\n      swap1\n      revert\n    tag_352:\n      sub(shl(0xa0, 0x01), 0x01)\n        /* \"sadc.sol\":37889:37907  _allowances[owner] */\n      dup1\n      dup5\n      and\n      0x00\n      dup2\n      dup2\n      mstore\n        /* \"sadc.sol\":37889:37900  _allowances */\n      0x05\n        /* \"sadc.sol\":37889:37907  _allowances[owner] */\n      0x20\n      swap1\n      dup2\n      mstore\n      0x40\n      dup1\n      dup4\n      keccak256\n        /* \"sadc.sol\":37889:37916  _allowances[owner][spender] */\n      swap5\n      dup8\n      and\n      dup1\n      dup5\n      mstore\n      swap5\n      dup3\n      mstore\n      swap2\n      dup3\n      swap1\n      keccak256\n        /* \"sadc.sol\":37889:37925  _allowances[owner][spender] = amount */\n      dup6\n      swap1\n      sstore\n        /* \"sadc.sol\":37941:37973  Approval(owner, spender, amount) */\n      dup2\n      mload\n      dup6\n      dup2\n      mstore\n      swap2\n      mload\n      0x8c5be1e5ebec7d5bd14f71427d1e84f3dd0314c0f7b2291e5b200ac8c7c3b925\n      swap3\n      dup2\n      swap1\n      sub\n      swap1\n      swap2\n      add\n      swap1\n      log3\n        /* \"sadc.sol\":37644:37981  function _approve(address owner, address spender, uint256 amount) private {\r... */\n      pop\n      pop\n      pop\n      jump\t// out\n        /* \"sadc.sol\":37989:39802  function _transfer(\r... */\n    tag_224:\n      sub(shl(0xa0, 0x01), 0x01)\n        /* \"sadc.sol\":38111:38129  from != address(0) */\n      dup4\n      and\n        /* \"sadc.sol\":38103:38171  require(from != address(0), \"ERC20: transfer from the zero address\") */\n      tag_354\n      jumpi\n      mload(0x40)\n      shl(0xe5, 0x461bcd)\n      dup2\n      mstore\n      0x04\n      add\n      dup1\n      dup1\n      0x20\n      add\n      dup3\n      dup2\n      sub\n      dup3\n      mstore\n      0x25\n      dup2\n      mstore\n      0x20\n      add\n      dup1\n      data_baecc556b46f4ed0f2b4cb599d60785ac8563dd2dc0a5bf12edea1c39e5e1fea\n      0x25\n      swap2\n      codecopy\n      0x40\n      add\n      swap2\n      pop\n      pop\n      mload(0x40)\n      dup1\n      swap2\n      sub\n      swap1\n      revert\n    tag_354:\n      sub(shl(0xa0, 0x01), 0x01)\n        /* \"sadc.sol\":38190:38206  to != address(0) */\n      dup3\n      and\n        /* \"sadc.sol\":38182:38246  require(to != address(0), \"ERC20: transfer to the zero address\") */\n      tag_355\n      jumpi\n      mload(0x40)\n      shl(0xe5, 0x461bcd)\n      dup2\n      mstore\n      0x04\n      add\n      dup1\n      dup1\n      0x20\n      add\n      dup3\n      dup2\n      sub\n      dup3\n      mstore\n      0x23\n      dup2\n      mstore\n      0x20\n      add\n      dup1\n      data_0557e210f7a69a685100a7e4e3d0a7024c546085cee28910fd17d0b081d9516f\n      0x23\n      swap2\n      codecopy\n      0x40\n      add\n      swap2\n      pop\n      pop\n      mload(0x40)\n      dup1\n      swap2\n      sub\n      swap1\n      revert\n    tag_355:\n        /* \"sadc.sol\":38274:38275  0 */\n      0x00\n        /* \"sadc.sol\":38265:38271  amount */\n      dup2\n        /* \"sadc.sol\":38265:38275  amount > 0 */\n      gt\n        /* \"sadc.sol\":38257:38321  require(amount > 0, \"Transfer amount must be greater than zero\") */\n      tag_356\n      jumpi\n      mload(0x40)\n      shl(0xe5, 0x461bcd)\n      dup2\n      mstore\n      0x04\n      add\n      dup1\n      dup1\n      0x20\n      add\n      dup3\n      dup2\n      sub\n      dup3\n      mstore\n      0x29\n      dup2\n      mstore\n      0x20\n      add\n      dup1\n      data_9edb5ab58321f35d2386ea65721c9b107daa2c273610fc16d394af2a320ba785\n      0x29\n      swap2\n      codecopy\n      0x40\n      add\n      swap2\n      pop\n      pop\n      mload(0x40)\n      dup1\n      swap2\n      sub\n      swap1\n      revert\n    tag_356:\n        /* \"sadc.sol\":38343:38350  owner() */\n      tag_357\n        /* \"sadc.sol\":38343:38348  owner */\n      tag_147\n        /* \"sadc.sol\":38343:38350  owner() */\n      jump\t// in\n    tag_357:\n      sub(shl(0xa0, 0x01), 0x01)\n        /* \"sadc.sol\":38335:38350  from != owner() */\n      and\n        /* \"sadc.sol\":38335:38339  from */\n      dup4\n      sub(shl(0xa0, 0x01), 0x01)\n        /* \"sadc.sol\":38335:38350  from != owner() */\n      and\n      eq\n      iszero\n        /* \"sadc.sol\":38335:38367  from != owner() && to != owner() */\n      dup1\n      iszero\n      tag_358\n      jumpi\n      pop\n        /* \"sadc.sol\":38360:38367  owner() */\n      tag_359\n        /* \"sadc.sol\":38360:38365  owner */\n      tag_147\n        /* \"sadc.sol\":38360:38367  owner() */\n      jump\t// in\n    tag_359:\n      sub(shl(0xa0, 0x01), 0x01)\n        /* \"sadc.sol\":38354:38367  to != owner() */\n      and\n        /* \"sadc.sol\":38354:38356  to */\n      dup3\n      sub(shl(0xa0, 0x01), 0x01)\n        /* \"sadc.sol\":38354:38367  to != owner() */\n      and\n      eq\n      iszero\n        /* \"sadc.sol\":38335:38367  from != owner() && to != owner() */\n    tag_358:\n        /* \"sadc.sol\":38332:38457  if(from != owner() && to != owner())\r... */\n      iszero\n      tag_361\n      jumpi\n        /* \"sadc.sol\":38400:38412  _maxTxAmount */\n      sload(0x14)\n        /* \"sadc.sol\":38390:38396  amount */\n      dup2\n        /* \"sadc.sol\":38390:38412  amount <= _maxTxAmount */\n      gt\n      iszero\n        /* \"sadc.sol\":38382:38457  require(amount <= _maxTxAmount, \"Transfer amount exceeds the maxTxAmount.\") */\n      tag_361\n      jumpi\n      mload(0x40)\n      shl(0xe5, 0x461bcd)\n      dup2\n      mstore\n      0x04\n      add\n      dup1\n      dup1\n      0x20\n      add\n      dup3\n      dup2\n      sub\n      dup3\n      mstore\n      0x28\n      dup2\n      mstore\n      0x20\n      add\n      dup1\n      data_72052210969ce5fd88e52b5e685de9548acef9bb1b6d02e29c1765d0674948dd\n      0x28\n      swap2\n      codecopy\n      0x40\n      add\n      swap2\n      pop\n      pop\n      mload(0x40)\n      dup1\n      swap2\n      sub\n      swap1\n      revert\n    tag_361:\n        /* \"sadc.sol\":38752:38780  uint256 contractTokenBalance */\n      0x00\n        /* \"sadc.sol\":38783:38807  balanceOf(address(this)) */\n      tag_362\n        /* \"sadc.sol\":38801:38805  this */\n      address\n        /* \"sadc.sol\":38783:38792  balanceOf */\n      tag_134\n        /* \"sadc.sol\":38783:38807  balanceOf(address(this)) */\n      jump\t// in\n    tag_362:\n        /* \"sadc.sol\":38752:38807  uint256 contractTokenBalance = balanceOf(address(this)) */\n      swap1\n      pop\n        /* \"sadc.sol\":38855:38867  _maxTxAmount */\n      sload(0x14)\n        /* \"sadc.sol\":38831:38851  contractTokenBalance */\n      dup2\n        /* \"sadc.sol\":38831:38867  contractTokenBalance >= _maxTxAmount */\n      lt\n        /* \"sadc.sol\":38828:38940  if(contractTokenBalance >= _maxTxAmount)\r... */\n      tag_363\n      jumpi\n      pop\n        /* \"sadc.sol\":38916:38928  _maxTxAmount */\n      sload(0x14)\n        /* \"sadc.sol\":38828:38940  if(contractTokenBalance >= _maxTxAmount)\r... */\n    tag_363:\n        /* \"sadc.sol\":39011:39040  numTokensSellToAddToLiquidity */\n      sload(0x15)\n        /* \"sadc.sol\":38987:39040  contractTokenBalance >= numTokensSellToAddToLiquidity */\n      dup2\n      lt\n      dup1\n      iszero\n      swap1\n      dup2\n      swap1\n        /* \"sadc.sol\":39069:39122  overMinTokenBalance &&\r... */\n      tag_364\n      jumpi\n      pop\n        /* \"sadc.sol\":39106:39122  inSwapAndLiquify */\n      and(0xff, sload(0x13))\n        /* \"sadc.sol\":39105:39122  !inSwapAndLiquify */\n      iszero\n        /* \"sadc.sol\":39069:39122  overMinTokenBalance &&\r... */\n    tag_364:\n        /* \"sadc.sol\":39069:39160  overMinTokenBalance &&\r... */\n      dup1\n      iszero\n      tag_365\n      jumpi\n      pop\n        /* \"sadc.sol\":39147:39160  uniswapV2Pair */\n      immutable(\"0xf17089ced8c0c2239e63f2bbb45b3ebcf864ae70eb1ca01545337030cdeed50a\")\n      sub(shl(0xa0, 0x01), 0x01)\n        /* \"sadc.sol\":39139:39160  from != uniswapV2Pair */\n      and\n        /* \"sadc.sol\":39139:39143  from */\n      dup6\n      sub(shl(0xa0, 0x01), 0x01)\n        /* \"sadc.sol\":39139:39160  from != uniswapV2Pair */\n      and\n      eq\n      iszero\n        /* \"sadc.sol\":39069:39160  overMinTokenBalance &&\r... */\n    tag_365:\n        /* \"sadc.sol\":39069:39198  overMinTokenBalance &&\r... */\n      dup1\n      iszero\n      tag_366\n      jumpi\n      pop\n        /* \"sadc.sol\":39177:39198  swapAndLiquifyEnabled */\n      sload(0x13)\n      0x0100\n      swap1\n      div\n      0xff\n      and\n        /* \"sadc.sol\":39069:39198  overMinTokenBalance &&\r... */\n    tag_366:\n        /* \"sadc.sol\":39051:39369  if (\r... */\n      iszero\n      tag_368\n      jumpi\n        /* \"sadc.sol\":39248:39277  numTokensSellToAddToLiquidity */\n      sload(0x15)\n        /* \"sadc.sol\":39225:39277  contractTokenBalance = numTokensSellToAddToLiquidity */\n      swap2\n      pop\n        /* \"sadc.sol\":39321:39357  swapAndLiquify(contractTokenBalance) */\n      tag_368\n        /* \"sadc.sol\":39336:39356  contractTokenBalance */\n      dup3\n        /* \"sadc.sol\":39321:39335  swapAndLiquify */\n      tag_369\n        /* \"sadc.sol\":39321:39357  swapAndLiquify(contractTokenBalance) */\n      jump\t// in\n    tag_368:\n      sub(shl(0xa0, 0x01), 0x01)\n        /* \"sadc.sol\":39577:39601  _isExcludedFromFee[from] */\n      dup6\n      and\n        /* \"sadc.sol\":39450:39462  bool takeFee */\n      0x00\n        /* \"sadc.sol\":39577:39601  _isExcludedFromFee[from] */\n      swap1\n      dup2\n      mstore\n        /* \"sadc.sol\":39577:39595  _isExcludedFromFee */\n      0x06\n        /* \"sadc.sol\":39577:39601  _isExcludedFromFee[from] */\n      0x20\n      mstore\n      0x40\n      swap1\n      keccak256\n      sload\n        /* \"sadc.sol\":39465:39469  true */\n      0x01\n      swap1\n        /* \"sadc.sol\":39577:39601  _isExcludedFromFee[from] */\n      0xff\n      and\n      dup1\n        /* \"sadc.sol\":39577:39627  _isExcludedFromFee[from] || _isExcludedFromFee[to] */\n      tag_370\n      jumpi\n      pop\n      sub(shl(0xa0, 0x01), 0x01)\n        /* \"sadc.sol\":39605:39627  _isExcludedFromFee[to] */\n      dup6\n      and\n      0x00\n      swap1\n      dup2\n      mstore\n        /* \"sadc.sol\":39605:39623  _isExcludedFromFee */\n      0x06\n        /* \"sadc.sol\":39605:39627  _isExcludedFromFee[to] */\n      0x20\n      mstore\n      0x40\n      swap1\n      keccak256\n      sload\n      0xff\n      and\n        /* \"sadc.sol\":39577:39627  _isExcludedFromFee[from] || _isExcludedFromFee[to] */\n    tag_370:\n        /* \"sadc.sol\":39574:39670  if(_isExcludedFromFee[from] || _isExcludedFromFee[to]){\r... */\n      iszero\n      tag_371\n      jumpi\n      pop\n        /* \"sadc.sol\":39653:39658  false */\n      0x00\n        /* \"sadc.sol\":39574:39670  if(_isExcludedFromFee[from] || _isExcludedFromFee[to]){\r... */\n    tag_371:\n        /* \"sadc.sol\":39756:39794  _tokenTransfer(from,to,amount,takeFee) */\n      tag_372\n        /* \"sadc.sol\":39771:39775  from */\n      dup7\n        /* \"sadc.sol\":39776:39778  to */\n      dup7\n        /* \"sadc.sol\":39779:39785  amount */\n      dup7\n        /* \"sadc.sol\":39786:39793  takeFee */\n      dup5\n        /* \"sadc.sol\":39756:39770  _tokenTransfer */\n      tag_373\n        /* \"sadc.sol\":39756:39794  _tokenTransfer(from,to,amount,takeFee) */\n      jump\t// in\n    tag_372:\n        /* \"sadc.sol\":37989:39802  function _transfer(\r... */\n      pop\n      pop\n      pop\n      pop\n      pop\n      pop\n      jump\t// out\n        /* \"sadc.sol\":4453:4645  function sub(uint256 a, uint256 b, string memory errorMessage) internal pure returns (uint256) {\r... */\n    tag_229:\n        /* \"sadc.sol\":4539:4546  uint256 */\n      0x00\n        /* \"sadc.sol\":4575:4587  errorMessage */\n      dup2\n        /* \"sadc.sol\":4567:4573  b <= a */\n      dup5\n      dup5\n      gt\n      iszero\n        /* \"sadc.sol\":4559:4588  require(b <= a, errorMessage) */\n      tag_375\n      jumpi\n      mload(0x40)\n      shl(0xe5, 0x461bcd)\n      dup2\n      mstore\n      0x04\n      add\n      dup1\n      dup1\n      0x20\n      add\n      dup3\n      dup2\n      sub\n      dup3\n      mstore\n      dup4\n      dup2\n      dup2\n      mload\n      dup2\n      mstore\n      0x20\n      add\n      swap2\n      pop\n      dup1\n      mload\n      swap1\n      0x20\n      add\n      swap1\n      dup1\n      dup4\n      dup4\n      0x00\n    tag_376:\n      dup4\n      dup2\n      lt\n      iszero\n      tag_378\n      jumpi\n      dup2\n      dup2\n      add\n      mload\n      dup4\n      dup3\n      add\n      mstore\n      0x20\n      add\n      jump(tag_376)\n    tag_378:\n      pop\n      pop\n      pop\n      pop\n      swap1\n      pop\n      swap1\n      dup2\n      add\n      swap1\n      0x1f\n      and\n      dup1\n      iszero\n      tag_379\n      jumpi\n      dup1\n      dup3\n      sub\n      dup1\n      mload\n      0x01\n      dup4\n      0x20\n      sub\n      0x0100\n      exp\n      sub\n      not\n      and\n      dup2\n      mstore\n      0x20\n      add\n      swap2\n      pop\n    tag_379:\n      pop\n      swap3\n      pop\n      pop\n      pop\n      mload(0x40)\n      dup1\n      swap2\n      sub\n      swap1\n      revert\n    tag_375:\n      pop\n      pop\n      pop\n        /* \"sadc.sol\":4611:4616  a - b */\n      swap1\n      sub\n      swap1\n        /* \"sadc.sol\":4453:4645  function sub(uint256 a, uint256 b, string memory errorMessage) internal pure returns (uint256) {\r... */\n      jump\t// out\n        /* \"sadc.sol\":35535:35698  function _getRate() private view returns(uint256) {\r... */\n    tag_233:\n        /* \"sadc.sol\":35576:35583  uint256 */\n      0x00\n        /* \"sadc.sol\":35597:35612  uint256 rSupply */\n      dup1\n        /* \"sadc.sol\":35614:35629  uint256 tSupply */\n      0x00\n        /* \"sadc.sol\":35633:35652  _getCurrentSupply() */\n      tag_381\n        /* \"sadc.sol\":35633:35650  _getCurrentSupply */\n      tag_382\n        /* \"sadc.sol\":35633:35652  _getCurrentSupply() */\n      jump\t// in\n    tag_381:\n        /* \"sadc.sol\":35596:35652  (uint256 rSupply, uint256 tSupply) = _getCurrentSupply() */\n      swap1\n      swap3\n      pop\n      swap1\n      pop\n        /* \"sadc.sol\":35670:35690  rSupply.div(tSupply) */\n      tag_383\n        /* \"sadc.sol\":35596:35652  (uint256 rSupply, uint256 tSupply) = _getCurrentSupply() */\n      dup3\n      dup3\n        /* \"sadc.sol\":35670:35681  rSupply.div */\n      tag_235\n        /* \"sadc.sol\":35670:35690  rSupply.div(tSupply) */\n      jump\t// in\n    tag_383:\n        /* \"sadc.sol\":35663:35690  return rSupply.div(tSupply) */\n      swap3\n      pop\n      pop\n      pop\n        /* \"sadc.sol\":35535:35698  function _getRate() private view returns(uint256) {\r... */\n      swap1\n      jump\t// out\n        /* \"sadc.sol\":5851:5983  function div(uint256 a, uint256 b) internal pure returns (uint256) {\r... */\n    tag_235:\n        /* \"sadc.sol\":5909:5916  uint256 */\n      0x00\n        /* \"sadc.sol\":5936:5975  div(a, b, \"SafeMath: division by zero\") */\n      tag_385\n        /* \"sadc.sol\":5940:5941  a */\n      dup4\n        /* \"sadc.sol\":5943:5944  b */\n      dup4\n        /* \"sadc.sol\":5936:5975  div(a, b, \"SafeMath: division by zero\") */\n      mload(0x40)\n      dup1\n      0x40\n      add\n      0x40\n      mstore\n      dup1\n      0x1a\n      dup2\n      mstore\n      0x20\n      add\n      0x536166654d6174683a206469766973696f6e206279207a65726f000000000000\n      dup2\n      mstore\n      pop\n        /* \"sadc.sol\":5936:5939  div */\n      tag_386\n        /* \"sadc.sol\":5936:5975  div(a, b, \"SafeMath: division by zero\") */\n      jump\t// in\n    tag_385:\n        /* \"sadc.sol\":5929:5975  return div(a, b, \"SafeMath: division by zero\") */\n      swap4\n        /* \"sadc.sol\":5851:5983  function div(uint256 a, uint256 b) internal pure returns (uint256) {\r... */\n      swap3\n      pop\n      pop\n      pop\n      jump\t// out\n        /* \"sadc.sol\":3550:3731  function add(uint256 a, uint256 b) internal pure returns (uint256) {\r... */\n    tag_259:\n        /* \"sadc.sol\":3608:3615  uint256 */\n      0x00\n        /* \"sadc.sol\":3640:3645  a + b */\n      dup3\n      dup3\n      add\n        /* \"sadc.sol\":3664:3670  c >= a */\n      dup4\n      dup2\n      lt\n      iszero\n        /* \"sadc.sol\":3656:3702  require(c >= a, \"SafeMath: addition overflow\") */\n      tag_385\n      jumpi\n      0x40\n      dup1\n      mload\n      shl(0xe5, 0x461bcd)\n      dup2\n      mstore\n      0x20\n      0x04\n      dup3\n      add\n      mstore\n      0x1b\n      0x24\n      dup3\n      add\n      mstore\n      0x536166654d6174683a206164646974696f6e206f766572666c6f770000000000\n      0x44\n      dup3\n      add\n      mstore\n      swap1\n      mload\n      swap1\n      dup2\n      swap1\n      sub\n      0x64\n      add\n      swap1\n      revert\n        /* \"sadc.sol\":34333:34752  function _getValues(uint256 tAmount) private view returns (uint256, uint256, uint256, uint256, uint256, uint256) {\r... */\n    tag_264:\n        /* \"sadc.sol\":34392:34399  uint256 */\n      0x00\n        /* \"sadc.sol\":34401:34408  uint256 */\n      dup1\n        /* \"sadc.sol\":34410:34417  uint256 */\n      0x00\n        /* \"sadc.sol\":34419:34426  uint256 */\n      dup1\n        /* \"sadc.sol\":34428:34435  uint256 */\n      0x00\n        /* \"sadc.sol\":34437:34444  uint256 */\n      dup1\n        /* \"sadc.sol\":34458:34481  uint256 tTransferAmount */\n      0x00\n        /* \"sadc.sol\":34483:34495  uint256 tFee */\n      dup1\n        /* \"sadc.sol\":34497:34515  uint256 tLiquidity */\n      0x00\n        /* \"sadc.sol\":34519:34539  _getTValues(tAmount) */\n      tag_390\n        /* \"sadc.sol\":34531:34538  tAmount */\n      dup11\n        /* \"sadc.sol\":34519:34530  _getTValues */\n      tag_391\n        /* \"sadc.sol\":34519:34539  _getTValues(tAmount) */\n      jump\t// in\n    tag_390:\n        /* \"sadc.sol\":34457:34539  (uint256 tTransferAmount, uint256 tFee, uint256 tLiquidity) = _getTValues(tAmount) */\n      swap3\n      pop\n      swap3\n      pop\n      swap3\n      pop\n        /* \"sadc.sol\":34551:34566  uint256 rAmount */\n      0x00\n        /* \"sadc.sol\":34568:34591  uint256 rTransferAmount */\n      dup1\n        /* \"sadc.sol\":34593:34605  uint256 rFee */\n      0x00\n        /* \"sadc.sol\":34609:34659  _getRValues(tAmount, tFee, tLiquidity, _getRate()) */\n      tag_392\n        /* \"sadc.sol\":34621:34628  tAmount */\n      dup14\n        /* \"sadc.sol\":34630:34634  tFee */\n      dup7\n        /* \"sadc.sol\":34636:34646  tLiquidity */\n      dup7\n        /* \"sadc.sol\":34648:34658  _getRate() */\n      tag_393\n        /* \"sadc.sol\":34648:34656  _getRate */\n      tag_233\n        /* \"sadc.sol\":34648:34658  _getRate() */\n      jump\t// in\n    tag_393:\n        /* \"sadc.sol\":34609:34620  _getRValues */\n      tag_394\n        /* \"sadc.sol\":34609:34659  _getRValues(tAmount, tFee, tLiquidity, _getRate()) */\n      jump\t// in\n    tag_392:\n        /* \"sadc.sol\":34550:34659  (uint256 rAmount, uint256 rTransferAmount, uint256 rFee) = _getRValues(tAmount, tFee, tLiquidity, _getRate()) */\n      swap2\n      swap16\n      swap1\n      swap15\n      pop\n      swap1\n      swap13\n      pop\n        /* \"sadc.sol\":34710:34725  tTransferAmount */\n      swap6\n      swap11\n      pop\n        /* \"sadc.sol\":34727:34731  tFee */\n      swap4\n      swap9\n      pop\n        /* \"sadc.sol\":34733:34743  tLiquidity */\n      swap2\n      swap7\n      pop\n        /* \"sadc.sol\":34333:34752  function _getValues(uint256 tAmount) private view returns (uint256, uint256, uint256, uint256, uint256, uint256) {\r... */\n      swap3\n      swap5\n      pop\n      pop\n      pop\n      pop\n      pop\n      jump\t// out\n        /* \"sadc.sol\":4014:4150  function sub(uint256 a, uint256 b) internal pure returns (uint256) {\r... */\n    tag_266:\n        /* \"sadc.sol\":4072:4079  uint256 */\n      0x00\n        /* \"sadc.sol\":4099:4142  sub(a, b, \"SafeMath: subtraction overflow\") */\n      tag_385\n        /* \"sadc.sol\":4103:4104  a */\n      dup4\n        /* \"sadc.sol\":4106:4107  b */\n      dup4\n        /* \"sadc.sol\":4099:4142  sub(a, b, \"SafeMath: subtraction overflow\") */\n      mload(0x40)\n      dup1\n      0x40\n      add\n      0x40\n      mstore\n      dup1\n      0x1e\n      dup2\n      mstore\n      0x20\n      add\n      0x536166654d6174683a207375627472616374696f6e206f766572666c6f770000\n      dup2\n      mstore\n      pop\n        /* \"sadc.sol\":4099:4102  sub */\n      tag_229\n        /* \"sadc.sol\":4099:4142  sub(a, b, \"SafeMath: subtraction overflow\") */\n      jump\t// in\n        /* \"sadc.sol\":39810:40795  function swapAndLiquify(uint256 contractTokenBalance) private lockTheSwap {\r... */\n    tag_369:\n        /* \"sadc.sol\":26834:26850  inSwapAndLiquify */\n      0x13\n        /* \"sadc.sol\":26834:26857  inSwapAndLiquify = true */\n      dup1\n      sload\n      not(0xff)\n      and\n        /* \"sadc.sol\":26853:26857  true */\n      0x01\n        /* \"sadc.sol\":26834:26857  inSwapAndLiquify = true */\n      or\n      swap1\n      sstore\n        /* \"sadc.sol\":26834:26850  inSwapAndLiquify */\n      0x00\n        /* \"sadc.sol\":39961:39988  contractTokenBalance.div(2) */\n      tag_399\n        /* \"sadc.sol\":39961:39981  contractTokenBalance */\n      dup3\n        /* \"sadc.sol\":39986:39987  2 */\n      0x02\n        /* \"sadc.sol\":39961:39985  contractTokenBalance.div */\n      tag_235\n        /* \"sadc.sol\":39961:39988  contractTokenBalance.div(2) */\n      jump\t// in\n    tag_399:\n        /* \"sadc.sol\":39946:39988  uint256 half = contractTokenBalance.div(2) */\n      swap1\n      pop\n        /* \"sadc.sol\":39999:40016  uint256 otherHalf */\n      0x00\n        /* \"sadc.sol\":40019:40049  contractTokenBalance.sub(half) */\n      tag_400\n        /* \"sadc.sol\":40019:40039  contractTokenBalance */\n      dup4\n        /* \"sadc.sol\":39946:39988  uint256 half = contractTokenBalance.div(2) */\n      dup4\n        /* \"sadc.sol\":40019:40043  contractTokenBalance.sub */\n      tag_266\n        /* \"sadc.sol\":40019:40049  contractTokenBalance.sub(half) */\n      jump\t// in\n    tag_400:\n        /* \"sadc.sol\":39999:40049  uint256 otherHalf = contractTokenBalance.sub(half) */\n      swap1\n      pop\n        /* \"sadc.sol\":40352:40373  address(this).balance */\n      selfbalance\n        /* \"sadc.sol\":40418:40440  swapTokensForEth(half) */\n      tag_401\n        /* \"sadc.sol\":40435:40439  half */\n      dup4\n        /* \"sadc.sol\":40418:40434  swapTokensForEth */\n      tag_402\n        /* \"sadc.sol\":40418:40440  swapTokensForEth(half) */\n      jump\t// in\n    tag_401:\n        /* \"sadc.sol\":40571:40589  uint256 newBalance */\n      0x00\n        /* \"sadc.sol\":40592:40633  address(this).balance.sub(initialBalance) */\n      tag_403\n        /* \"sadc.sol\":40592:40613  address(this).balance */\n      selfbalance\n        /* \"sadc.sol\":40618:40632  initialBalance */\n      dup4\n        /* \"sadc.sol\":40592:40617  address(this).balance.sub */\n      tag_266\n        /* \"sadc.sol\":40592:40633  address(this).balance.sub(initialBalance) */\n      jump\t// in\n    tag_403:\n        /* \"sadc.sol\":40571:40633  uint256 newBalance = address(this).balance.sub(initialBalance) */\n      swap1\n      pop\n        /* \"sadc.sol\":40683:40718  addLiquidity(otherHalf, newBalance) */\n      tag_404\n        /* \"sadc.sol\":40696:40705  otherHalf */\n      dup4\n        /* \"sadc.sol\":40707:40717  newBalance */\n      dup3\n        /* \"sadc.sol\":40683:40695  addLiquidity */\n      tag_405\n        /* \"sadc.sol\":40683:40718  addLiquidity(otherHalf, newBalance) */\n      jump\t// in\n    tag_404:\n        /* \"sadc.sol\":40744:40787  SwapAndLiquify(half, newBalance, otherHalf) */\n      0x40\n      dup1\n      mload\n      dup6\n      dup2\n      mstore\n      0x20\n      dup2\n      add\n      dup4\n      swap1\n      mstore\n      dup1\n      dup3\n      add\n      dup6\n      swap1\n      mstore\n      swap1\n      mload\n      0x17bbfb9a6069321b6ded73bd96327c9e6b7212a5cd51ff219cd61370acafb561\n      swap2\n      dup2\n      swap1\n      sub\n      0x60\n      add\n      swap1\n      log1\n      pop\n      pop\n        /* \"sadc.sol\":26880:26896  inSwapAndLiquify */\n      0x13\n        /* \"sadc.sol\":26880:26904  inSwapAndLiquify = false */\n      dup1\n      sload\n      not(0xff)\n      and\n      swap1\n      sstore\n      pop\n      pop\n      pop\n        /* \"sadc.sol\":39810:40795  function swapAndLiquify(uint256 contractTokenBalance) private lockTheSwap {\r... */\n      jump\t// out\n        /* \"sadc.sol\":41994:42828  function _tokenTransfer(address sender, address recipient, uint256 amount,bool takeFee) private {\r... */\n    tag_373:\n        /* \"sadc.sol\":42105:42112  takeFee */\n      dup1\n        /* \"sadc.sol\":42101:42141  if(!takeFee)\r... */\n      tag_408\n      jumpi\n        /* \"sadc.sol\":42127:42141  removeAllFee() */\n      tag_408\n        /* \"sadc.sol\":42127:42139  removeAllFee */\n      tag_409\n        /* \"sadc.sol\":42127:42141  removeAllFee() */\n      jump\t// in\n    tag_408:\n      sub(shl(0xa0, 0x01), 0x01)\n        /* \"sadc.sol\":42166:42185  _isExcluded[sender] */\n      dup5\n      and\n      0x00\n      swap1\n      dup2\n      mstore\n        /* \"sadc.sol\":42166:42177  _isExcluded */\n      0x07\n        /* \"sadc.sol\":42166:42185  _isExcluded[sender] */\n      0x20\n      mstore\n      0x40\n      swap1\n      keccak256\n      sload\n      0xff\n      and\n        /* \"sadc.sol\":42166:42212  _isExcluded[sender] && !_isExcluded[recipient] */\n      dup1\n      iszero\n      tag_410\n      jumpi\n      pop\n      sub(shl(0xa0, 0x01), 0x01)\n        /* \"sadc.sol\":42190:42212  _isExcluded[recipient] */\n      dup4\n      and\n      0x00\n      swap1\n      dup2\n      mstore\n        /* \"sadc.sol\":42190:42201  _isExcluded */\n      0x07\n        /* \"sadc.sol\":42190:42212  _isExcluded[recipient] */\n      0x20\n      mstore\n      0x40\n      swap1\n      keccak256\n      sload\n      0xff\n      and\n        /* \"sadc.sol\":42189:42212  !_isExcluded[recipient] */\n      iszero\n        /* \"sadc.sol\":42166:42212  _isExcluded[sender] && !_isExcluded[recipient] */\n    tag_410:\n        /* \"sadc.sol\":42162:42759  if (_isExcluded[sender] && !_isExcluded[recipient]) {\r... */\n      iszero\n      tag_411\n      jumpi\n        /* \"sadc.sol\":42229:42277  _transferFromExcluded(sender, recipient, amount) */\n      tag_412\n        /* \"sadc.sol\":42251:42257  sender */\n      dup5\n        /* \"sadc.sol\":42259:42268  recipient */\n      dup5\n        /* \"sadc.sol\":42270:42276  amount */\n      dup5\n        /* \"sadc.sol\":42229:42250  _transferFromExcluded */\n      tag_413\n        /* \"sadc.sol\":42229:42277  _transferFromExcluded(sender, recipient, amount) */\n      jump\t// in\n    tag_412:\n        /* \"sadc.sol\":42162:42759  if (_isExcluded[sender] && !_isExcluded[recipient]) {\r... */\n      jump(tag_430)\n    tag_411:\n      sub(shl(0xa0, 0x01), 0x01)\n        /* \"sadc.sol\":42300:42319  _isExcluded[sender] */\n      dup5\n      and\n      0x00\n      swap1\n      dup2\n      mstore\n        /* \"sadc.sol\":42300:42311  _isExcluded */\n      0x07\n        /* \"sadc.sol\":42300:42319  _isExcluded[sender] */\n      0x20\n      mstore\n      0x40\n      swap1\n      keccak256\n      sload\n      0xff\n      and\n        /* \"sadc.sol\":42299:42319  !_isExcluded[sender] */\n      iszero\n        /* \"sadc.sol\":42299:42345  !_isExcluded[sender] && _isExcluded[recipient] */\n      dup1\n      iszero\n      tag_415\n      jumpi\n      pop\n      sub(shl(0xa0, 0x01), 0x01)\n        /* \"sadc.sol\":42323:42345  _isExcluded[recipient] */\n      dup4\n      and\n      0x00\n      swap1\n      dup2\n      mstore\n        /* \"sadc.sol\":42323:42334  _isExcluded */\n      0x07\n        /* \"sadc.sol\":42323:42345  _isExcluded[recipient] */\n      0x20\n      mstore\n      0x40\n      swap1\n      keccak256\n      sload\n      0xff\n      and\n        /* \"sadc.sol\":42299:42345  !_isExcluded[sender] && _isExcluded[recipient] */\n    tag_415:\n        /* \"sadc.sol\":42295:42759  if (!_isExcluded[sender] && _isExcluded[recipient]) {\r... */\n      iszero\n      tag_416\n      jumpi\n        /* \"sadc.sol\":42362:42408  _transferToExcluded(sender, recipient, amount) */\n      tag_412\n        /* \"sadc.sol\":42382:42388  sender */\n      dup5\n        /* \"sadc.sol\":42390:42399  recipient */\n      dup5\n        /* \"sadc.sol\":42401:42407  amount */\n      dup5\n        /* \"sadc.sol\":42362:42381  _transferToExcluded */\n      tag_418\n        /* \"sadc.sol\":42362:42408  _transferToExcluded(sender, recipient, amount) */\n      jump\t// in\n        /* \"sadc.sol\":42295:42759  if (!_isExcluded[sender] && _isExcluded[recipient]) {\r... */\n    tag_416:\n      sub(shl(0xa0, 0x01), 0x01)\n        /* \"sadc.sol\":42431:42450  _isExcluded[sender] */\n      dup5\n      and\n      0x00\n      swap1\n      dup2\n      mstore\n        /* \"sadc.sol\":42431:42442  _isExcluded */\n      0x07\n        /* \"sadc.sol\":42431:42450  _isExcluded[sender] */\n      0x20\n      mstore\n      0x40\n      swap1\n      keccak256\n      sload\n      0xff\n      and\n        /* \"sadc.sol\":42430:42450  !_isExcluded[sender] */\n      iszero\n        /* \"sadc.sol\":42430:42477  !_isExcluded[sender] && !_isExcluded[recipient] */\n      dup1\n      iszero\n      tag_420\n      jumpi\n      pop\n      sub(shl(0xa0, 0x01), 0x01)\n        /* \"sadc.sol\":42455:42477  _isExcluded[recipient] */\n      dup4\n      and\n      0x00\n      swap1\n      dup2\n      mstore\n        /* \"sadc.sol\":42455:42466  _isExcluded */\n      0x07\n        /* \"sadc.sol\":42455:42477  _isExcluded[recipient] */\n      0x20\n      mstore\n      0x40\n      swap1\n      keccak256\n      sload\n      0xff\n      and\n        /* \"sadc.sol\":42454:42477  !_isExcluded[recipient] */\n      iszero\n        /* \"sadc.sol\":42430:42477  !_isExcluded[sender] && !_isExcluded[recipient] */\n    tag_420:\n        /* \"sadc.sol\":42426:42759  if (!_isExcluded[sender] && !_isExcluded[recipient]) {\r... */\n      iszero\n      tag_421\n      jumpi\n        /* \"sadc.sol\":42494:42538  _transferStandard(sender, recipient, amount) */\n      tag_412\n        /* \"sadc.sol\":42512:42518  sender */\n      dup5\n        /* \"sadc.sol\":42520:42529  recipient */\n      dup5\n        /* \"sadc.sol\":42531:42537  amount */\n      dup5\n        /* \"sadc.sol\":42494:42511  _transferStandard */\n      tag_423\n        /* \"sadc.sol\":42494:42538  _transferStandard(sender, recipient, amount) */\n      jump\t// in\n        /* \"sadc.sol\":42426:42759  if (!_isExcluded[sender] && !_isExcluded[recipient]) {\r... */\n    tag_421:\n      sub(shl(0xa0, 0x01), 0x01)\n        /* \"sadc.sol\":42560:42579  _isExcluded[sender] */\n      dup5\n      and\n      0x00\n      swap1\n      dup2\n      mstore\n        /* \"sadc.sol\":42560:42571  _isExcluded */\n      0x07\n        /* \"sadc.sol\":42560:42579  _isExcluded[sender] */\n      0x20\n      mstore\n      0x40\n      swap1\n      keccak256\n      sload\n      0xff\n      and\n        /* \"sadc.sol\":42560:42605  _isExcluded[sender] && _isExcluded[recipient] */\n      dup1\n      iszero\n      tag_425\n      jumpi\n      pop\n      sub(shl(0xa0, 0x01), 0x01)\n        /* \"sadc.sol\":42583:42605  _isExcluded[recipient] */\n      dup4\n      and\n      0x00\n      swap1\n      dup2\n      mstore\n        /* \"sadc.sol\":42583:42594  _isExcluded */\n      0x07\n        /* \"sadc.sol\":42583:42605  _isExcluded[recipient] */\n      0x20\n      mstore\n      0x40\n      swap1\n      keccak256\n      sload\n      0xff\n      and\n        /* \"sadc.sol\":42560:42605  _isExcluded[sender] && _isExcluded[recipient] */\n    tag_425:\n        /* \"sadc.sol\":42556:42759  if (_isExcluded[sender] && _isExcluded[recipient]) {\r... */\n      iszero\n      tag_426\n      jumpi\n        /* \"sadc.sol\":42622:42670  _transferBothExcluded(sender, recipient, amount) */\n      tag_412\n        /* \"sadc.sol\":42644:42650  sender */\n      dup5\n        /* \"sadc.sol\":42652:42661  recipient */\n      dup5\n        /* \"sadc.sol\":42663:42669  amount */\n      dup5\n        /* \"sadc.sol\":42622:42643  _transferBothExcluded */\n      tag_428\n        /* \"sadc.sol\":42622:42670  _transferBothExcluded(sender, recipient, amount) */\n      jump\t// in\n        /* \"sadc.sol\":42556:42759  if (_isExcluded[sender] && _isExcluded[recipient]) {\r... */\n    tag_426:\n        /* \"sadc.sol\":42703:42747  _transferStandard(sender, recipient, amount) */\n      tag_430\n        /* \"sadc.sol\":42721:42727  sender */\n      dup5\n        /* \"sadc.sol\":42729:42738  recipient */\n      dup5\n        /* \"sadc.sol\":42740:42746  amount */\n      dup5\n        /* \"sadc.sol\":42703:42720  _transferStandard */\n      tag_423\n        /* \"sadc.sol\":42703:42747  _transferStandard(sender, recipient, amount) */\n      jump\t// in\n    tag_430:\n        /* \"sadc.sol\":42783:42790  takeFee */\n      dup1\n        /* \"sadc.sol\":42779:42820  if(!takeFee)\r... */\n      tag_432\n      jumpi\n        /* \"sadc.sol\":42805:42820  restoreAllFee() */\n      tag_432\n        /* \"sadc.sol\":42805:42818  restoreAllFee */\n      tag_433\n        /* \"sadc.sol\":42805:42820  restoreAllFee() */\n      jump\t// in\n    tag_432:\n        /* \"sadc.sol\":41994:42828  function _tokenTransfer(address sender, address recipient, uint256 amount,bool takeFee) private {\r... */\n      pop\n      pop\n      pop\n      pop\n      jump\t// out\n        /* \"sadc.sol\":35706:36267  function _getCurrentSupply() private view returns(uint256, uint256) {\r... */\n    tag_382:\n        /* \"sadc.sol\":35803:35810  _rTotal */\n      sload(0x0a)\n        /* \"sadc.sol\":35839:35846  _tTotal */\n      sload(0x09)\n        /* \"sadc.sol\":35756:35763  uint256 */\n      0x00\n      swap2\n      dup3\n      swap2\n      dup3\n        /* \"sadc.sol\":35863:36152  for (uint256 i = 0; i < _excluded.length; i++) {\r... */\n    tag_435:\n        /* \"sadc.sol\":35887:35896  _excluded */\n      0x08\n        /* \"sadc.sol\":35887:35903  _excluded.length */\n      sload\n        /* \"sadc.sol\":35883:35903  i < _excluded.length */\n      dup2\n      lt\n        /* \"sadc.sol\":35863:36152  for (uint256 i = 0; i < _excluded.length; i++) {\r... */\n      iszero\n      tag_436\n      jumpi\n        /* \"sadc.sol\":35953:35960  rSupply */\n      dup3\n        /* \"sadc.sol\":35929:35936  _rOwned */\n      0x03\n        /* \"sadc.sol\":35929:35950  _rOwned[_excluded[i]] */\n      0x00\n        /* \"sadc.sol\":35937:35946  _excluded */\n      0x08\n        /* \"sadc.sol\":35947:35948  i */\n      dup5\n        /* \"sadc.sol\":35937:35949  _excluded[i] */\n      dup2\n      sload\n      dup2\n      lt\n      tag_438\n      jumpi\n      invalid\n    tag_438:\n      0x00\n      swap2\n      dup3\n      mstore\n      0x20\n      dup1\n      dup4\n      keccak256\n      swap1\n      swap2\n      add\n      sload\n      sub(shl(0xa0, 0x01), 0x01)\n      and\n        /* \"sadc.sol\":35929:35950  _rOwned[_excluded[i]] */\n      dup4\n      mstore\n      dup3\n      add\n      swap3\n      swap1\n      swap3\n      mstore\n      0x40\n      add\n      swap1\n      keccak256\n      sload\n        /* \"sadc.sol\":35929:35960  _rOwned[_excluded[i]] > rSupply */\n      gt\n      dup1\n        /* \"sadc.sol\":35929:35995  _rOwned[_excluded[i]] > rSupply || _tOwned[_excluded[i]] > tSupply */\n      tag_440\n      jumpi\n      pop\n        /* \"sadc.sol\":35988:35995  tSupply */\n      dup2\n        /* \"sadc.sol\":35964:35971  _tOwned */\n      0x04\n        /* \"sadc.sol\":35964:35985  _tOwned[_excluded[i]] */\n      0x00\n        /* \"sadc.sol\":35972:35981  _excluded */\n      0x08\n        /* \"sadc.sol\":35982:35983  i */\n      dup5\n        /* \"sadc.sol\":35972:35984  _excluded[i] */\n      dup2\n      sload\n      dup2\n      lt\n      tag_441\n      jumpi\n      invalid\n    tag_441:\n      0x00\n      swap2\n      dup3\n      mstore\n      0x20\n      dup1\n      dup4\n      keccak256\n      swap1\n      swap2\n      add\n      sload\n      sub(shl(0xa0, 0x01), 0x01)\n      and\n        /* \"sadc.sol\":35964:35985  _tOwned[_excluded[i]] */\n      dup4\n      mstore\n      dup3\n      add\n      swap3\n      swap1\n      swap3\n      mstore\n      0x40\n      add\n      swap1\n      keccak256\n      sload\n        /* \"sadc.sol\":35964:35995  _tOwned[_excluded[i]] > tSupply */\n      gt\n        /* \"sadc.sol\":35929:35995  _rOwned[_excluded[i]] > rSupply || _tOwned[_excluded[i]] > tSupply */\n    tag_440:\n        /* \"sadc.sol\":35925:36022  if (_rOwned[_excluded[i]] > rSupply || _tOwned[_excluded[i]] > tSupply) return (_rTotal, _tTotal) */\n      iszero\n      tag_443\n      jumpi\n        /* \"sadc.sol\":36005:36012  _rTotal */\n      sload(0x0a)\n        /* \"sadc.sol\":36014:36021  _tTotal */\n      sload(0x09)\n        /* \"sadc.sol\":35997:36022  return (_rTotal, _tTotal) */\n      swap5\n      pop\n      swap5\n      pop\n      pop\n      pop\n      pop\n      jump(tag_434)\n        /* \"sadc.sol\":35925:36022  if (_rOwned[_excluded[i]] > rSupply || _tOwned[_excluded[i]] > tSupply) return (_rTotal, _tTotal) */\n    tag_443:\n        /* \"sadc.sol\":36047:36081  rSupply.sub(_rOwned[_excluded[i]]) */\n      tag_444\n        /* \"sadc.sol\":36059:36066  _rOwned */\n      0x03\n        /* \"sadc.sol\":36059:36080  _rOwned[_excluded[i]] */\n      0x00\n        /* \"sadc.sol\":36067:36076  _excluded */\n      0x08\n        /* \"sadc.sol\":36077:36078  i */\n      dup5\n        /* \"sadc.sol\":36067:36079  _excluded[i] */\n      dup2\n      sload\n      dup2\n      lt\n      tag_445\n      jumpi\n      invalid\n    tag_445:\n      0x00\n      swap2\n      dup3\n      mstore\n      0x20\n      dup1\n      dup4\n      keccak256\n      swap1\n      swap2\n      add\n      sload\n      sub(shl(0xa0, 0x01), 0x01)\n      and\n        /* \"sadc.sol\":36059:36080  _rOwned[_excluded[i]] */\n      dup4\n      mstore\n      dup3\n      add\n      swap3\n      swap1\n      swap3\n      mstore\n      0x40\n      add\n      swap1\n      keccak256\n      sload\n        /* \"sadc.sol\":36047:36054  rSupply */\n      dup5\n      swap1\n        /* \"sadc.sol\":36047:36058  rSupply.sub */\n      tag_266\n        /* \"sadc.sol\":36047:36081  rSupply.sub(_rOwned[_excluded[i]]) */\n      jump\t// in\n    tag_444:\n        /* \"sadc.sol\":36037:36081  rSupply = rSupply.sub(_rOwned[_excluded[i]]) */\n      swap3\n      pop\n        /* \"sadc.sol\":36106:36140  tSupply.sub(_tOwned[_excluded[i]]) */\n      tag_447\n        /* \"sadc.sol\":36118:36125  _tOwned */\n      0x04\n        /* \"sadc.sol\":36118:36139  _tOwned[_excluded[i]] */\n      0x00\n        /* \"sadc.sol\":36126:36135  _excluded */\n      0x08\n        /* \"sadc.sol\":36136:36137  i */\n      dup5\n        /* \"sadc.sol\":36126:36138  _excluded[i] */\n      dup2\n      sload\n      dup2\n      lt\n      tag_448\n      jumpi\n      invalid\n    tag_448:\n      0x00\n      swap2\n      dup3\n      mstore\n      0x20\n      dup1\n      dup4\n      keccak256\n      swap1\n      swap2\n      add\n      sload\n      sub(shl(0xa0, 0x01), 0x01)\n      and\n        /* \"sadc.sol\":36118:36139  _tOwned[_excluded[i]] */\n      dup4\n      mstore\n      dup3\n      add\n      swap3\n      swap1\n      swap3\n      mstore\n      0x40\n      add\n      swap1\n      keccak256\n      sload\n        /* \"sadc.sol\":36106:36113  tSupply */\n      dup4\n      swap1\n        /* \"sadc.sol\":36106:36117  tSupply.sub */\n      tag_266\n        /* \"sadc.sol\":36106:36140  tSupply.sub(_tOwned[_excluded[i]]) */\n      jump\t// in\n    tag_447:\n        /* \"sadc.sol\":36096:36140  tSupply = tSupply.sub(_tOwned[_excluded[i]]) */\n      swap2\n      pop\n        /* \"sadc.sol\":35905:35908  i++ */\n      0x01\n      add\n        /* \"sadc.sol\":35863:36152  for (uint256 i = 0; i < _excluded.length; i++) {\r... */\n      jump(tag_435)\n    tag_436:\n      pop\n        /* \"sadc.sol\":36188:36195  _tTotal */\n      sload(0x09)\n        /* \"sadc.sol\":36176:36183  _rTotal */\n      sload(0x0a)\n        /* \"sadc.sol\":36176:36196  _rTotal.div(_tTotal) */\n      tag_450\n      swap2\n        /* \"sadc.sol\":36176:36187  _rTotal.div */\n      tag_235\n        /* \"sadc.sol\":36176:36196  _rTotal.div(_tTotal) */\n      jump\t// in\n    tag_450:\n        /* \"sadc.sol\":36166:36173  rSupply */\n      dup3\n        /* \"sadc.sol\":36166:36196  rSupply < _rTotal.div(_tTotal) */\n      lt\n        /* \"sadc.sol\":36162:36223  if (rSupply < _rTotal.div(_tTotal)) return (_rTotal, _tTotal) */\n      iszero\n      tag_451\n      jumpi\n        /* \"sadc.sol\":36206:36213  _rTotal */\n      sload(0x0a)\n        /* \"sadc.sol\":36215:36222  _tTotal */\n      sload(0x09)\n        /* \"sadc.sol\":36198:36223  return (_rTotal, _tTotal) */\n      swap4\n      pop\n      swap4\n      pop\n      pop\n      pop\n      jump(tag_434)\n        /* \"sadc.sol\":36162:36223  if (rSupply < _rTotal.div(_tTotal)) return (_rTotal, _tTotal) */\n    tag_451:\n        /* \"sadc.sol\":36242:36249  rSupply */\n      swap1\n      swap3\n      pop\n        /* \"sadc.sol\":36251:36258  tSupply */\n      swap1\n      pop\n        /* \"sadc.sol\":35706:36267  function _getCurrentSupply() private view returns(uint256, uint256) {\r... */\n    tag_434:\n      swap1\n      swap2\n      jump\t// out\n        /* \"sadc.sol\":6479:6757  function div(uint256 a, uint256 b, string memory errorMessage) internal pure returns (uint256) {\r... */\n    tag_386:\n        /* \"sadc.sol\":6565:6572  uint256 */\n      0x00\n        /* \"sadc.sol\":6600:6612  errorMessage */\n      dup2\n        /* \"sadc.sol\":6593:6598  b > 0 */\n      dup4\n        /* \"sadc.sol\":6585:6613  require(b > 0, errorMessage) */\n      tag_453\n      jumpi\n      mload(0x40)\n      shl(0xe5, 0x461bcd)\n      dup2\n      mstore\n      0x20\n      0x04\n      dup3\n      add\n      dup2\n      dup2\n      mstore\n      dup4\n      mload\n      0x24\n      dup5\n      add\n      mstore\n      dup4\n      mload\n      swap1\n      swap3\n      dup4\n      swap3\n      0x44\n      swap1\n      swap2\n      add\n      swap2\n      swap1\n      dup6\n      add\n      swap1\n      dup1\n      dup4\n      dup4\n      0x00\n      dup4\n      iszero\n      tag_378\n      jumpi\n      dup2\n      dup2\n      add\n      mload\n      dup4\n      dup3\n      add\n      mstore\n      0x20\n      add\n      jump(tag_376)\n    tag_453:\n      pop\n        /* \"sadc.sol\":6624:6633  uint256 c */\n      0x00\n        /* \"sadc.sol\":6640:6641  b */\n      dup4\n        /* \"sadc.sol\":6636:6637  a */\n      dup6\n        /* \"sadc.sol\":6636:6641  a / b */\n      dup2\n      tag_458\n      jumpi\n      invalid\n    tag_458:\n      div\n      swap6\n        /* \"sadc.sol\":6479:6757  function div(uint256 a, uint256 b, string memory errorMessage) internal pure returns (uint256) {\r... */\n      swap5\n      pop\n      pop\n      pop\n      pop\n      pop\n      jump\t// out\n        /* \"sadc.sol\":34760:35090  function _getTValues(uint256 tAmount) private view returns (uint256, uint256, uint256) {\r... */\n    tag_391:\n        /* \"sadc.sol\":34820:34827  uint256 */\n      0x00\n        /* \"sadc.sol\":34829:34836  uint256 */\n      dup1\n        /* \"sadc.sol\":34838:34845  uint256 */\n      0x00\n        /* \"sadc.sol\":34858:34870  uint256 tFee */\n      dup1\n        /* \"sadc.sol\":34873:34897  calculateTaxFee(tAmount) */\n      tag_460\n        /* \"sadc.sol\":34889:34896  tAmount */\n      dup6\n        /* \"sadc.sol\":34873:34888  calculateTaxFee */\n      tag_461\n        /* \"sadc.sol\":34873:34897  calculateTaxFee(tAmount) */\n      jump\t// in\n    tag_460:\n        /* \"sadc.sol\":34858:34897  uint256 tFee = calculateTaxFee(tAmount) */\n      swap1\n      pop\n        /* \"sadc.sol\":34908:34926  uint256 tLiquidity */\n      0x00\n        /* \"sadc.sol\":34929:34959  calculateLiquidityFee(tAmount) */\n      tag_462\n        /* \"sadc.sol\":34951:34958  tAmount */\n      dup7\n        /* \"sadc.sol\":34929:34950  calculateLiquidityFee */\n      tag_463\n        /* \"sadc.sol\":34929:34959  calculateLiquidityFee(tAmount) */\n      jump\t// in\n    tag_462:\n        /* \"sadc.sol\":34908:34959  uint256 tLiquidity = calculateLiquidityFee(tAmount) */\n      swap1\n      pop\n        /* \"sadc.sol\":34970:34993  uint256 tTransferAmount */\n      0x00\n        /* \"sadc.sol\":34996:35029  tAmount.sub(tFee).sub(tLiquidity) */\n      tag_464\n        /* \"sadc.sol\":34908:34959  uint256 tLiquidity = calculateLiquidityFee(tAmount) */\n      dup3\n        /* \"sadc.sol\":34996:35013  tAmount.sub(tFee) */\n      tag_465\n        /* \"sadc.sol\":34996:35003  tAmount */\n      dup10\n        /* \"sadc.sol\":35008:35012  tFee */\n      dup7\n        /* \"sadc.sol\":34996:35007  tAmount.sub */\n      tag_266\n        /* \"sadc.sol\":34996:35013  tAmount.sub(tFee) */\n      jump\t// in\n    tag_465:\n        /* \"sadc.sol\":34996:35017  tAmount.sub(tFee).sub */\n      swap1\n      tag_266\n        /* \"sadc.sol\":34996:35029  tAmount.sub(tFee).sub(tLiquidity) */\n      jump\t// in\n    tag_464:\n        /* \"sadc.sol\":34970:35029  uint256 tTransferAmount = tAmount.sub(tFee).sub(tLiquidity) */\n      swap8\n        /* \"sadc.sol\":35065:35069  tFee */\n      swap3\n      swap7\n      pop\n        /* \"sadc.sol\":35071:35081  tLiquidity */\n      swap1\n      swap5\n      pop\n        /* \"sadc.sol\":34760:35090  function _getTValues(uint256 tAmount) private view returns (uint256, uint256, uint256) {\r... */\n      swap1\n      swap3\n      pop\n      pop\n      pop\n      jump\t// out\n        /* \"sadc.sol\":35098:35527  function _getRValues(uint256 tAmount, uint256 tFee, uint256 tLiquidity, uint256 currentRate) private pure returns (uint256, uint256, uint256) {\r... */\n    tag_394:\n        /* \"sadc.sol\":35213:35220  uint256 */\n      0x00\n      dup1\n      dup1\n      dup1\n        /* \"sadc.sol\":35269:35293  tAmount.mul(currentRate) */\n      tag_467\n        /* \"sadc.sol\":35269:35276  tAmount */\n      dup9\n        /* \"sadc.sol\":35281:35292  currentRate */\n      dup7\n        /* \"sadc.sol\":35269:35280  tAmount.mul */\n      tag_468\n        /* \"sadc.sol\":35269:35293  tAmount.mul(currentRate) */\n      jump\t// in\n    tag_467:\n        /* \"sadc.sol\":35251:35293  uint256 rAmount = tAmount.mul(currentRate) */\n      swap1\n      pop\n        /* \"sadc.sol\":35304:35316  uint256 rFee */\n      0x00\n        /* \"sadc.sol\":35319:35340  tFee.mul(currentRate) */\n      tag_469\n        /* \"sadc.sol\":35319:35323  tFee */\n      dup9\n        /* \"sadc.sol\":35328:35339  currentRate */\n      dup8\n        /* \"sadc.sol\":35319:35327  tFee.mul */\n      tag_468\n        /* \"sadc.sol\":35319:35340  tFee.mul(currentRate) */\n      jump\t// in\n    tag_469:\n        /* \"sadc.sol\":35304:35340  uint256 rFee = tFee.mul(currentRate) */\n      swap1\n      pop\n        /* \"sadc.sol\":35351:35369  uint256 rLiquidity */\n      0x00\n        /* \"sadc.sol\":35372:35399  tLiquidity.mul(currentRate) */\n      tag_470\n        /* \"sadc.sol\":35372:35382  tLiquidity */\n      dup9\n        /* \"sadc.sol\":35387:35398  currentRate */\n      dup9\n        /* \"sadc.sol\":35372:35386  tLiquidity.mul */\n      tag_468\n        /* \"sadc.sol\":35372:35399  tLiquidity.mul(currentRate) */\n      jump\t// in\n    tag_470:\n        /* \"sadc.sol\":35351:35399  uint256 rLiquidity = tLiquidity.mul(currentRate) */\n      swap1\n      pop\n        /* \"sadc.sol\":35410:35433  uint256 rTransferAmount */\n      0x00\n        /* \"sadc.sol\":35436:35469  rAmount.sub(rFee).sub(rLiquidity) */\n      tag_471\n        /* \"sadc.sol\":35351:35399  uint256 rLiquidity = tLiquidity.mul(currentRate) */\n      dup3\n        /* \"sadc.sol\":35436:35453  rAmount.sub(rFee) */\n      tag_465\n        /* \"sadc.sol\":35436:35443  rAmount */\n      dup7\n        /* \"sadc.sol\":35448:35452  rFee */\n      dup7\n        /* \"sadc.sol\":35436:35447  rAmount.sub */\n      tag_266\n        /* \"sadc.sol\":35436:35453  rAmount.sub(rFee) */\n      jump\t// in\n        /* \"sadc.sol\":35436:35469  rAmount.sub(rFee).sub(rLiquidity) */\n    tag_471:\n        /* \"sadc.sol\":35488:35495  rAmount */\n      swap4\n      swap12\n      swap4\n      swap11\n      pop\n        /* \"sadc.sol\":35514:35518  rFee */\n      swap2\n      swap9\n      pop\n        /* \"sadc.sol\":35098:35527  function _getRValues(uint256 tAmount, uint256 tFee, uint256 tLiquidity, uint256 currentRate) private pure returns (uint256, uint256, uint256) {\r... */\n      swap2\n      swap7\n      pop\n      pop\n      pop\n      pop\n      pop\n      pop\n      pop\n      jump\t// out\n        /* \"sadc.sol\":40803:41392  function swapTokensForEth(uint256 tokenAmount) private {\r... */\n    tag_402:\n        /* \"sadc.sol\":40953:40969  new address[](2) */\n      0x40\n      dup1\n      mload\n        /* \"sadc.sol\":40967:40968  2 */\n      0x02\n        /* \"sadc.sol\":40953:40969  new address[](2) */\n      dup1\n      dup3\n      mstore\n        /* \"sadc.sol\":40929:40950  address[] memory path */\n      0x60\n        /* \"sadc.sol\":40953:40969  new address[](2) */\n      dup1\n      dup4\n      add\n      dup5\n      mstore\n        /* \"sadc.sol\":40929:40950  address[] memory path */\n      swap3\n        /* \"sadc.sol\":40953:40969  new address[](2) */\n      0x20\n      dup4\n      add\n      swap1\n      dup1\n      calldatasize\n      dup4\n      calldatacopy\n      add\n      swap1\n      pop\n      pop\n        /* \"sadc.sol\":40929:40969  address[] memory path = new address[](2) */\n      swap1\n      pop\n        /* \"sadc.sol\":40998:41002  this */\n      address\n        /* \"sadc.sol\":40980:40984  path */\n      dup2\n        /* \"sadc.sol\":40985:40986  0 */\n      0x00\n        /* \"sadc.sol\":40980:40987  path[0] */\n      dup2\n      mload\n      dup2\n      lt\n      tag_476\n      jumpi\n      invalid\n    tag_476:\n      0x20\n      mul\n      0x20\n      add\n      add\n        /* \"sadc.sol\":40980:41003  path[0] = address(this) */\n      swap1\n      sub(shl(0xa0, 0x01), 0x01)\n      and\n      swap1\n      dup2\n      sub(shl(0xa0, 0x01), 0x01)\n      and\n      dup2\n      mstore\n      pop\n      pop\n        /* \"sadc.sol\":41024:41039  uniswapV2Router */\n      immutable(\"0x373ab5f6f5686eaf15420a778a209383e0ee0196a782fa3fd3ec96f326a92e6e\")\n      sub(shl(0xa0, 0x01), 0x01)\n        /* \"sadc.sol\":41024:41044  uniswapV2Router.WETH */\n      and\n      0xad5c4648\n        /* \"sadc.sol\":41024:41046  uniswapV2Router.WETH() */\n      mload(0x40)\n      dup2\n      0xffffffff\n      and\n      0xe0\n      shl\n      dup2\n      mstore\n      0x04\n      add\n      0x20\n      mload(0x40)\n      dup1\n      dup4\n      sub\n      dup2\n      dup7\n      dup1\n      extcodesize\n      iszero\n      dup1\n      iszero\n      tag_477\n      jumpi\n      0x00\n      dup1\n      revert\n    tag_477:\n      pop\n      gas\n      staticcall\n      iszero\n      dup1\n      iszero\n      tag_479\n      jumpi\n      returndatasize\n      0x00\n      dup1\n      returndatacopy\n      revert(0x00, returndatasize)\n    tag_479:\n      pop\n      pop\n      pop\n      pop\n      mload(0x40)\n      returndatasize\n      0x20\n      dup2\n      lt\n      iszero\n      tag_480\n      jumpi\n      0x00\n      dup1\n      revert\n    tag_480:\n      pop\n      mload\n        /* \"sadc.sol\":41014:41021  path[1] */\n      dup2\n      mload\n        /* \"sadc.sol\":41014:41018  path */\n      dup3\n      swap1\n        /* \"sadc.sol\":41019:41020  1 */\n      0x01\n      swap1\n        /* \"sadc.sol\":41014:41021  path[1] */\n      dup2\n      lt\n      tag_481\n      jumpi\n      invalid\n    tag_481:\n      0x20\n      mul\n      0x20\n      add\n      add\n        /* \"sadc.sol\":41014:41046  path[1] = uniswapV2Router.WETH() */\n      swap1\n      sub(shl(0xa0, 0x01), 0x01)\n      and\n      swap1\n      dup2\n      sub(shl(0xa0, 0x01), 0x01)\n      and\n      dup2\n      mstore\n      pop\n      pop\n        /* \"sadc.sol\":41059:41121  _approve(address(this), address(uniswapV2Router), tokenAmount) */\n      tag_482\n        /* \"sadc.sol\":41076:41080  this */\n      address\n        /* \"sadc.sol\":41091:41106  uniswapV2Router */\n      immutable(\"0x373ab5f6f5686eaf15420a778a209383e0ee0196a782fa3fd3ec96f326a92e6e\")\n        /* \"sadc.sol\":41109:41120  tokenAmount */\n      dup5\n        /* \"sadc.sol\":41059:41067  _approve */\n      tag_219\n        /* \"sadc.sol\":41059:41121  _approve(address(this), address(uniswapV2Router), tokenAmount) */\n      jump\t// in\n    tag_482:\n        /* \"sadc.sol\":41160:41175  uniswapV2Router */\n      immutable(\"0x373ab5f6f5686eaf15420a778a209383e0ee0196a782fa3fd3ec96f326a92e6e\")\n      sub(shl(0xa0, 0x01), 0x01)\n        /* \"sadc.sol\":41160:41226  uniswapV2Router.swapExactTokensForETHSupportingFeeOnTransferTokens */\n      and\n      0x791ac947\n        /* \"sadc.sol\":41241:41252  tokenAmount */\n      dup4\n        /* \"sadc.sol\":41267:41268  0 */\n      0x00\n        /* \"sadc.sol\":41311:41315  path */\n      dup5\n        /* \"sadc.sol\":41338:41342  this */\n      address\n        /* \"sadc.sol\":41358:41373  block.timestamp */\n      timestamp\n        /* \"sadc.sol\":41160:41384  uniswapV2Router.swapExactTokensForETHSupportingFeeOnTransferTokens(\r... */\n      mload(0x40)\n      dup7\n      0xffffffff\n      and\n      0xe0\n      shl\n      dup2\n      mstore\n      0x04\n      add\n      dup1\n      dup7\n      dup2\n      mstore\n      0x20\n      add\n      dup6\n      dup2\n      mstore\n      0x20\n      add\n      dup1\n      0x20\n      add\n      dup5\n      sub(shl(0xa0, 0x01), 0x01)\n      and\n      dup2\n      mstore\n      0x20\n      add\n      dup4\n      dup2\n      mstore\n      0x20\n      add\n      dup3\n      dup2\n      sub\n      dup3\n      mstore\n      dup6\n      dup2\n      dup2\n      mload\n      dup2\n      mstore\n      0x20\n      add\n      swap2\n      pop\n      dup1\n      mload\n      swap1\n      0x20\n      add\n      swap1\n      0x20\n      mul\n      dup1\n      dup4\n      dup4\n      0x00\n    tag_483:\n      dup4\n      dup2\n      lt\n      iszero\n      tag_485\n      jumpi\n      dup2\n      dup2\n      add\n      mload\n      dup4\n      dup3\n      add\n      mstore\n      0x20\n      add\n      jump(tag_483)\n    tag_485:\n      pop\n      pop\n      pop\n      pop\n      swap1\n      pop\n      add\n      swap7\n      pop\n      pop\n      pop\n      pop\n      pop\n      pop\n      pop\n      0x00\n      mload(0x40)\n      dup1\n      dup4\n      sub\n      dup2\n      0x00\n      dup8\n      dup1\n      extcodesize\n      iszero\n      dup1\n      iszero\n      tag_486\n      jumpi\n      0x00\n      dup1\n      revert\n    tag_486:\n      pop\n      gas\n      call\n      iszero\n      dup1\n      iszero\n      tag_372\n      jumpi\n      returndatasize\n      0x00\n      dup1\n      returndatacopy\n      revert(0x00, returndatasize)\n        /* \"sadc.sol\":41400:41913  function addLiquidity(uint256 tokenAmount, uint256 ethAmount) private {\r... */\n    tag_405:\n        /* \"sadc.sol\":41548:41610  _approve(address(this), address(uniswapV2Router), tokenAmount) */\n      tag_490\n        /* \"sadc.sol\":41565:41569  this */\n      address\n        /* \"sadc.sol\":41580:41595  uniswapV2Router */\n      immutable(\"0x373ab5f6f5686eaf15420a778a209383e0ee0196a782fa3fd3ec96f326a92e6e\")\n        /* \"sadc.sol\":41598:41609  tokenAmount */\n      dup5\n        /* \"sadc.sol\":41548:41556  _approve */\n      tag_219\n        /* \"sadc.sol\":41548:41610  _approve(address(this), address(uniswapV2Router), tokenAmount) */\n      jump\t// in\n    tag_490:\n        /* \"sadc.sol\":41653:41668  uniswapV2Router */\n      immutable(\"0x373ab5f6f5686eaf15420a778a209383e0ee0196a782fa3fd3ec96f326a92e6e\")\n      sub(shl(0xa0, 0x01), 0x01)\n        /* \"sadc.sol\":41653:41684  uniswapV2Router.addLiquidityETH */\n      and\n      0xf305d719\n        /* \"sadc.sol\":41692:41701  ethAmount */\n      dup3\n        /* \"sadc.sol\":41725:41729  this */\n      address\n        /* \"sadc.sol\":41745:41756  tokenAmount */\n      dup6\n        /* \"sadc.sol\":41771:41772  0 */\n      0x00\n        /* \"sadc.sol\":41814:41815  0 */\n      dup1\n        /* \"sadc.sol\":41857:41864  owner() */\n      tag_491\n        /* \"sadc.sol\":41857:41862  owner */\n      tag_147\n        /* \"sadc.sol\":41857:41864  owner() */\n      jump\t// in\n    tag_491:\n        /* \"sadc.sol\":41879:41894  block.timestamp */\n      timestamp\n        /* \"sadc.sol\":41653:41905  uniswapV2Router.addLiquidityETH{value: ethAmount}(\r... */\n      mload(0x40)\n      dup9\n      0xffffffff\n      and\n      0xe0\n      shl\n      dup2\n      mstore\n      0x04\n      add\n      dup1\n      dup8\n      sub(shl(0xa0, 0x01), 0x01)\n      and\n      dup2\n      mstore\n      0x20\n      add\n      dup7\n      dup2\n      mstore\n      0x20\n      add\n      dup6\n      dup2\n      mstore\n      0x20\n      add\n      dup5\n      dup2\n      mstore\n      0x20\n      add\n      dup4\n      sub(shl(0xa0, 0x01), 0x01)\n      and\n      dup2\n      mstore\n      0x20\n      add\n      dup3\n      dup2\n      mstore\n      0x20\n      add\n      swap7\n      pop\n      pop\n      pop\n      pop\n      pop\n      pop\n      pop\n      0x60\n      mload(0x40)\n      dup1\n      dup4\n      sub\n      dup2\n      dup6\n      dup9\n      dup1\n      extcodesize\n      iszero\n      dup1\n      iszero\n      tag_492\n      jumpi\n      0x00\n      dup1\n      revert\n    tag_492:\n      pop\n      gas\n      call\n      iszero\n      dup1\n      iszero\n      tag_494\n      jumpi\n      returndatasize\n      0x00\n      dup1\n      returndatacopy\n      revert(0x00, returndatasize)\n    tag_494:\n      pop\n      pop\n      pop\n      pop\n      pop\n      mload(0x40)\n      returndatasize\n      0x60\n      dup2\n      lt\n      iszero\n      tag_432\n      jumpi\n      0x00\n      dup1\n      revert\n        /* \"sadc.sol\":37114:37364  function removeAllFee() private {\r... */\n    tag_409:\n        /* \"sadc.sol\":37160:37167  _taxFee */\n      sload(0x0f)\n        /* \"sadc.sol\":37160:37172  _taxFee == 0 */\n      iszero\n        /* \"sadc.sol\":37160:37194  _taxFee == 0 && _liquidityFee == 0 */\n      dup1\n      iszero\n      tag_497\n      jumpi\n      pop\n        /* \"sadc.sol\":37176:37189  _liquidityFee */\n      sload(0x11)\n        /* \"sadc.sol\":37176:37194  _liquidityFee == 0 */\n      iszero\n        /* \"sadc.sol\":37160:37194  _taxFee == 0 && _liquidityFee == 0 */\n    tag_497:\n        /* \"sadc.sol\":37157:37203  if(_taxFee == 0 && _liquidityFee == 0) return; */\n      iszero\n      tag_498\n      jumpi\n        /* \"sadc.sol\":37196:37203  return; */\n      jump(tag_496)\n        /* \"sadc.sol\":37157:37203  if(_taxFee == 0 && _liquidityFee == 0) return; */\n    tag_498:\n        /* \"sadc.sol\":37241:37248  _taxFee */\n      0x0f\n      dup1\n      sload\n        /* \"sadc.sol\":37223:37238  _previousTaxFee */\n      0x10\n        /* \"sadc.sol\":37223:37248  _previousTaxFee = _taxFee */\n      sstore\n        /* \"sadc.sol\":37283:37296  _liquidityFee */\n      0x11\n      dup1\n      sload\n        /* \"sadc.sol\":37259:37280  _previousLiquidityFee */\n      0x12\n        /* \"sadc.sol\":37259:37296  _previousLiquidityFee = _liquidityFee */\n      sstore\n      0x00\n        /* \"sadc.sol\":37317:37328  _taxFee = 0 */\n      swap2\n      dup3\n      swap1\n      sstore\n        /* \"sadc.sol\":37339:37356  _liquidityFee = 0 */\n      sstore\n        /* \"sadc.sol\":37114:37364  function removeAllFee() private {\r... */\n    tag_496:\n      jump\t// out\n        /* \"sadc.sol\":43940:44506  function _transferFromExcluded(address sender, address recipient, uint256 tAmount) private {\r... */\n    tag_413:\n        /* \"sadc.sol\":44043:44058  uint256 rAmount */\n      0x00\n        /* \"sadc.sol\":44060:44083  uint256 rTransferAmount */\n      dup1\n        /* \"sadc.sol\":44085:44097  uint256 rFee */\n      0x00\n        /* \"sadc.sol\":44099:44122  uint256 tTransferAmount */\n      dup1\n        /* \"sadc.sol\":44124:44136  uint256 tFee */\n      0x00\n        /* \"sadc.sol\":44138:44156  uint256 tLiquidity */\n      dup1\n        /* \"sadc.sol\":44160:44179  _getValues(tAmount) */\n      tag_500\n        /* \"sadc.sol\":44171:44178  tAmount */\n      dup8\n        /* \"sadc.sol\":44160:44170  _getValues */\n      tag_264\n        /* \"sadc.sol\":44160:44179  _getValues(tAmount) */\n      jump\t// in\n    tag_500:\n      sub(shl(0xa0, 0x01), 0x01)\n        /* \"sadc.sol\":44208:44223  _tOwned[sender] */\n      dup16\n      and\n      0x00\n      swap1\n      dup2\n      mstore\n        /* \"sadc.sol\":44208:44215  _tOwned */\n      0x04\n        /* \"sadc.sol\":44208:44223  _tOwned[sender] */\n      0x20\n      mstore\n      0x40\n      swap1\n      keccak256\n      sload\n        /* \"sadc.sol\":44042:44179  (uint256 rAmount, uint256 rTransferAmount, uint256 rFee, uint256 tTransferAmount, uint256 tFee, uint256 tLiquidity) = _getValues(tAmount) */\n      swap6\n      swap12\n      pop\n      swap4\n      swap10\n      pop\n      swap2\n      swap8\n      pop\n      swap6\n      pop\n      swap4\n      pop\n      swap2\n      pop\n        /* \"sadc.sol\":44208:44236  _tOwned[sender].sub(tAmount) */\n      tag_501\n      swap1\n        /* \"sadc.sol\":44228:44235  tAmount */\n      dup9\n        /* \"sadc.sol\":44208:44227  _tOwned[sender].sub */\n      tag_266\n        /* \"sadc.sol\":44208:44236  _tOwned[sender].sub(tAmount) */\n      jump\t// in\n    tag_501:\n      sub(shl(0xa0, 0x01), 0x01)\n        /* \"sadc.sol\":44190:44205  _tOwned[sender] */\n      dup11\n      and\n      0x00\n      swap1\n      dup2\n      mstore\n        /* \"sadc.sol\":44190:44197  _tOwned */\n      0x04\n        /* \"sadc.sol\":44190:44205  _tOwned[sender] */\n      0x20\n      swap1\n      dup2\n      mstore\n      0x40\n      dup1\n      dup4\n      keccak256\n        /* \"sadc.sol\":44190:44236  _tOwned[sender] = _tOwned[sender].sub(tAmount) */\n      swap4\n      swap1\n      swap4\n      sstore\n        /* \"sadc.sol\":44265:44272  _rOwned */\n      0x03\n        /* \"sadc.sol\":44265:44280  _rOwned[sender] */\n      swap1\n      mstore\n      keccak256\n      sload\n        /* \"sadc.sol\":44265:44293  _rOwned[sender].sub(rAmount) */\n      tag_502\n      swap1\n        /* \"sadc.sol\":44285:44292  rAmount */\n      dup8\n        /* \"sadc.sol\":44265:44284  _rOwned[sender].sub */\n      tag_266\n        /* \"sadc.sol\":44265:44293  _rOwned[sender].sub(rAmount) */\n      jump\t// in\n    tag_502:\n      sub(shl(0xa0, 0x01), 0x01)\n        /* \"sadc.sol\":44247:44262  _rOwned[sender] */\n      dup1\n      dup12\n      and\n      0x00\n      swap1\n      dup2\n      mstore\n        /* \"sadc.sol\":44247:44254  _rOwned */\n      0x03\n        /* \"sadc.sol\":44247:44262  _rOwned[sender] */\n      0x20\n      mstore\n      0x40\n      dup1\n      dup3\n      keccak256\n        /* \"sadc.sol\":44247:44293  _rOwned[sender] = _rOwned[sender].sub(rAmount) */\n      swap4\n      swap1\n      swap4\n      sstore\n        /* \"sadc.sol\":44325:44343  _rOwned[recipient] */\n      swap1\n      dup11\n      and\n      dup2\n      mstore\n      keccak256\n      sload\n        /* \"sadc.sol\":44325:44364  _rOwned[recipient].add(rTransferAmount) */\n      tag_503\n      swap1\n        /* \"sadc.sol\":44348:44363  rTransferAmount */\n      dup7\n        /* \"sadc.sol\":44325:44347  _rOwned[recipient].add */\n      tag_259\n        /* \"sadc.sol\":44325:44364  _rOwned[recipient].add(rTransferAmount) */\n      jump\t// in\n    tag_503:\n      sub(shl(0xa0, 0x01), 0x01)\n        /* \"sadc.sol\":44304:44322  _rOwned[recipient] */\n      dup10\n      and\n      0x00\n      swap1\n      dup2\n      mstore\n        /* \"sadc.sol\":44304:44311  _rOwned */\n      0x03\n        /* \"sadc.sol\":44304:44322  _rOwned[recipient] */\n      0x20\n      mstore\n      0x40\n      swap1\n      keccak256\n        /* \"sadc.sol\":44304:44364  _rOwned[recipient] = _rOwned[recipient].add(rTransferAmount) */\n      sstore\n        /* \"sadc.sol\":44378:44404  _takeLiquidity(tLiquidity) */\n      tag_504\n        /* \"sadc.sol\":44393:44403  tLiquidity */\n      dup2\n        /* \"sadc.sol\":44378:44392  _takeLiquidity */\n      tag_505\n        /* \"sadc.sol\":44378:44404  _takeLiquidity(tLiquidity) */\n      jump\t// in\n    tag_504:\n        /* \"sadc.sol\":44415:44438  _reflectFee(rFee, tFee) */\n      tag_506\n        /* \"sadc.sol\":44427:44431  rFee */\n      dup5\n        /* \"sadc.sol\":44433:44437  tFee */\n      dup4\n        /* \"sadc.sol\":44415:44426  _reflectFee */\n      tag_507\n        /* \"sadc.sol\":44415:44438  _reflectFee(rFee, tFee) */\n      jump\t// in\n    tag_506:\n        /* \"sadc.sol\":44471:44480  recipient */\n      dup8\n      sub(shl(0xa0, 0x01), 0x01)\n        /* \"sadc.sol\":44454:44498  Transfer(sender, recipient, tTransferAmount) */\n      and\n        /* \"sadc.sol\":44463:44469  sender */\n      dup10\n      sub(shl(0xa0, 0x01), 0x01)\n        /* \"sadc.sol\":44454:44498  Transfer(sender, recipient, tTransferAmount) */\n      and\n      0xddf252ad1be2c89b69c2b068fc378daa952ba7f163c4a11628f55a4df523b3ef\n        /* \"sadc.sol\":44482:44497  tTransferAmount */\n      dup6\n        /* \"sadc.sol\":44454:44498  Transfer(sender, recipient, tTransferAmount) */\n      mload(0x40)\n      dup1\n      dup3\n      dup2\n      mstore\n      0x20\n      add\n      swap2\n      pop\n      pop\n      mload(0x40)\n      dup1\n      swap2\n      sub\n      swap1\n      log3\n        /* \"sadc.sol\":43940:44506  function _transferFromExcluded(address sender, address recipient, uint256 tAmount) private {\r... */\n      pop\n      pop\n      pop\n      pop\n      pop\n      pop\n      pop\n      pop\n      pop\n      jump\t// out\n        /* \"sadc.sol\":43346:43932  function _transferToExcluded(address sender, address recipient, uint256 tAmount) private {\r... */\n    tag_418:\n        /* \"sadc.sol\":43447:43462  uint256 rAmount */\n      0x00\n        /* \"sadc.sol\":43464:43487  uint256 rTransferAmount */\n      dup1\n        /* \"sadc.sol\":43489:43501  uint256 rFee */\n      0x00\n        /* \"sadc.sol\":43503:43526  uint256 tTransferAmount */\n      dup1\n        /* \"sadc.sol\":43528:43540  uint256 tFee */\n      0x00\n        /* \"sadc.sol\":43542:43560  uint256 tLiquidity */\n      dup1\n        /* \"sadc.sol\":43564:43583  _getValues(tAmount) */\n      tag_509\n        /* \"sadc.sol\":43575:43582  tAmount */\n      dup8\n        /* \"sadc.sol\":43564:43574  _getValues */\n      tag_264\n        /* \"sadc.sol\":43564:43583  _getValues(tAmount) */\n      jump\t// in\n    tag_509:\n      sub(shl(0xa0, 0x01), 0x01)\n        /* \"sadc.sol\":43612:43627  _rOwned[sender] */\n      dup16\n      and\n      0x00\n      swap1\n      dup2\n      mstore\n        /* \"sadc.sol\":43612:43619  _rOwned */\n      0x03\n        /* \"sadc.sol\":43612:43627  _rOwned[sender] */\n      0x20\n      mstore\n      0x40\n      swap1\n      keccak256\n      sload\n        /* \"sadc.sol\":43446:43583  (uint256 rAmount, uint256 rTransferAmount, uint256 rFee, uint256 tTransferAmount, uint256 tFee, uint256 tLiquidity) = _getValues(tAmount) */\n      swap6\n      swap12\n      pop\n      swap4\n      swap10\n      pop\n      swap2\n      swap8\n      pop\n      swap6\n      pop\n      swap4\n      pop\n      swap2\n      pop\n        /* \"sadc.sol\":43612:43640  _rOwned[sender].sub(rAmount) */\n      tag_510\n      swap1\n        /* \"sadc.sol\":43446:43583  (uint256 rAmount, uint256 rTransferAmount, uint256 rFee, uint256 tTransferAmount, uint256 tFee, uint256 tLiquidity) = _getValues(tAmount) */\n      dup8\n        /* \"sadc.sol\":43612:43631  _rOwned[sender].sub */\n      tag_266\n        /* \"sadc.sol\":43612:43640  _rOwned[sender].sub(rAmount) */\n      jump\t// in\n    tag_510:\n      sub(shl(0xa0, 0x01), 0x01)\n        /* \"sadc.sol\":43594:43609  _rOwned[sender] */\n      dup1\n      dup12\n      and\n      0x00\n      swap1\n      dup2\n      mstore\n        /* \"sadc.sol\":43594:43601  _rOwned */\n      0x03\n        /* \"sadc.sol\":43594:43609  _rOwned[sender] */\n      0x20\n      swap1\n      dup2\n      mstore\n      0x40\n      dup1\n      dup4\n      keccak256\n        /* \"sadc.sol\":43594:43640  _rOwned[sender] = _rOwned[sender].sub(rAmount) */\n      swap5\n      swap1\n      swap5\n      sstore\n        /* \"sadc.sol\":43672:43690  _tOwned[recipient] */\n      swap2\n      dup12\n      and\n      dup2\n      mstore\n        /* \"sadc.sol\":43672:43679  _tOwned */\n      0x04\n        /* \"sadc.sol\":43672:43690  _tOwned[recipient] */\n      swap1\n      swap2\n      mstore\n      keccak256\n      sload\n        /* \"sadc.sol\":43672:43711  _tOwned[recipient].add(tTransferAmount) */\n      tag_511\n      swap1\n        /* \"sadc.sol\":43695:43710  tTransferAmount */\n      dup5\n        /* \"sadc.sol\":43672:43694  _tOwned[recipient].add */\n      tag_259\n        /* \"sadc.sol\":43672:43711  _tOwned[recipient].add(tTransferAmount) */\n      jump\t// in\n    tag_511:\n      sub(shl(0xa0, 0x01), 0x01)\n        /* \"sadc.sol\":43651:43669  _tOwned[recipient] */\n      dup10\n      and\n      0x00\n      swap1\n      dup2\n      mstore\n        /* \"sadc.sol\":43651:43658  _tOwned */\n      0x04\n        /* \"sadc.sol\":43651:43669  _tOwned[recipient] */\n      0x20\n      swap1\n      dup2\n      mstore\n      0x40\n      dup1\n      dup4\n      keccak256\n        /* \"sadc.sol\":43651:43711  _tOwned[recipient] = _tOwned[recipient].add(tTransferAmount) */\n      swap4\n      swap1\n      swap4\n      sstore\n        /* \"sadc.sol\":43743:43750  _rOwned */\n      0x03\n        /* \"sadc.sol\":43743:43761  _rOwned[recipient] */\n      swap1\n      mstore\n      keccak256\n      sload\n        /* \"sadc.sol\":43743:43782  _rOwned[recipient].add(rTransferAmount) */\n      tag_503\n      swap1\n        /* \"sadc.sol\":43766:43781  rTransferAmount */\n      dup7\n        /* \"sadc.sol\":43743:43765  _rOwned[recipient].add */\n      tag_259\n        /* \"sadc.sol\":43743:43782  _rOwned[recipient].add(rTransferAmount) */\n      jump\t// in\n        /* \"sadc.sol\":42836:43338  function _transferStandard(address sender, address recipient, uint256 tAmount) private {\r... */\n    tag_423:\n        /* \"sadc.sol\":42935:42950  uint256 rAmount */\n      0x00\n        /* \"sadc.sol\":42952:42975  uint256 rTransferAmount */\n      dup1\n        /* \"sadc.sol\":42977:42989  uint256 rFee */\n      0x00\n        /* \"sadc.sol\":42991:43014  uint256 tTransferAmount */\n      dup1\n        /* \"sadc.sol\":43016:43028  uint256 tFee */\n      0x00\n        /* \"sadc.sol\":43030:43048  uint256 tLiquidity */\n      dup1\n        /* \"sadc.sol\":43052:43071  _getValues(tAmount) */\n      tag_516\n        /* \"sadc.sol\":43063:43070  tAmount */\n      dup8\n        /* \"sadc.sol\":43052:43062  _getValues */\n      tag_264\n        /* \"sadc.sol\":43052:43071  _getValues(tAmount) */\n      jump\t// in\n    tag_516:\n      sub(shl(0xa0, 0x01), 0x01)\n        /* \"sadc.sol\":43100:43115  _rOwned[sender] */\n      dup16\n      and\n      0x00\n      swap1\n      dup2\n      mstore\n        /* \"sadc.sol\":43100:43107  _rOwned */\n      0x03\n        /* \"sadc.sol\":43100:43115  _rOwned[sender] */\n      0x20\n      mstore\n      0x40\n      swap1\n      keccak256\n      sload\n        /* \"sadc.sol\":42934:43071  (uint256 rAmount, uint256 rTransferAmount, uint256 rFee, uint256 tTransferAmount, uint256 tFee, uint256 tLiquidity) = _getValues(tAmount) */\n      swap6\n      swap12\n      pop\n      swap4\n      swap10\n      pop\n      swap2\n      swap8\n      pop\n      swap6\n      pop\n      swap4\n      pop\n      swap2\n      pop\n        /* \"sadc.sol\":43100:43128  _rOwned[sender].sub(rAmount) */\n      tag_502\n      swap1\n        /* \"sadc.sol\":42934:43071  (uint256 rAmount, uint256 rTransferAmount, uint256 rFee, uint256 tTransferAmount, uint256 tFee, uint256 tLiquidity) = _getValues(tAmount) */\n      dup8\n        /* \"sadc.sol\":43100:43119  _rOwned[sender].sub */\n      tag_266\n        /* \"sadc.sol\":43100:43128  _rOwned[sender].sub(rAmount) */\n      jump\t// in\n        /* \"sadc.sol\":32452:33094  function _transferBothExcluded(address sender, address recipient, uint256 tAmount) private {\r... */\n    tag_428:\n        /* \"sadc.sol\":32555:32570  uint256 rAmount */\n      0x00\n        /* \"sadc.sol\":32572:32595  uint256 rTransferAmount */\n      dup1\n        /* \"sadc.sol\":32597:32609  uint256 rFee */\n      0x00\n        /* \"sadc.sol\":32611:32634  uint256 tTransferAmount */\n      dup1\n        /* \"sadc.sol\":32636:32648  uint256 tFee */\n      0x00\n        /* \"sadc.sol\":32650:32668  uint256 tLiquidity */\n      dup1\n        /* \"sadc.sol\":32672:32691  _getValues(tAmount) */\n      tag_522\n        /* \"sadc.sol\":32683:32690  tAmount */\n      dup8\n        /* \"sadc.sol\":32672:32682  _getValues */\n      tag_264\n        /* \"sadc.sol\":32672:32691  _getValues(tAmount) */\n      jump\t// in\n    tag_522:\n      sub(shl(0xa0, 0x01), 0x01)\n        /* \"sadc.sol\":32720:32735  _tOwned[sender] */\n      dup16\n      and\n      0x00\n      swap1\n      dup2\n      mstore\n        /* \"sadc.sol\":32720:32727  _tOwned */\n      0x04\n        /* \"sadc.sol\":32720:32735  _tOwned[sender] */\n      0x20\n      mstore\n      0x40\n      swap1\n      keccak256\n      sload\n        /* \"sadc.sol\":32554:32691  (uint256 rAmount, uint256 rTransferAmount, uint256 rFee, uint256 tTransferAmount, uint256 tFee, uint256 tLiquidity) = _getValues(tAmount) */\n      swap6\n      swap12\n      pop\n      swap4\n      swap10\n      pop\n      swap2\n      swap8\n      pop\n      swap6\n      pop\n      swap4\n      pop\n      swap2\n      pop\n        /* \"sadc.sol\":32720:32748  _tOwned[sender].sub(tAmount) */\n      tag_523\n      swap1\n        /* \"sadc.sol\":32740:32747  tAmount */\n      dup9\n        /* \"sadc.sol\":32720:32739  _tOwned[sender].sub */\n      tag_266\n        /* \"sadc.sol\":32720:32748  _tOwned[sender].sub(tAmount) */\n      jump\t// in\n    tag_523:\n      sub(shl(0xa0, 0x01), 0x01)\n        /* \"sadc.sol\":32702:32717  _tOwned[sender] */\n      dup11\n      and\n      0x00\n      swap1\n      dup2\n      mstore\n        /* \"sadc.sol\":32702:32709  _tOwned */\n      0x04\n        /* \"sadc.sol\":32702:32717  _tOwned[sender] */\n      0x20\n      swap1\n      dup2\n      mstore\n      0x40\n      dup1\n      dup4\n      keccak256\n        /* \"sadc.sol\":32702:32748  _tOwned[sender] = _tOwned[sender].sub(tAmount) */\n      swap4\n      swap1\n      swap4\n      sstore\n        /* \"sadc.sol\":32777:32784  _rOwned */\n      0x03\n        /* \"sadc.sol\":32777:32792  _rOwned[sender] */\n      swap1\n      mstore\n      keccak256\n      sload\n        /* \"sadc.sol\":32777:32805  _rOwned[sender].sub(rAmount) */\n      tag_510\n      swap1\n        /* \"sadc.sol\":32797:32804  rAmount */\n      dup8\n        /* \"sadc.sol\":32777:32796  _rOwned[sender].sub */\n      tag_266\n        /* \"sadc.sol\":32777:32805  _rOwned[sender].sub(rAmount) */\n      jump\t// in\n        /* \"sadc.sol\":37376:37501  function restoreAllFee() private {\r... */\n    tag_433:\n        /* \"sadc.sol\":37430:37445  _previousTaxFee */\n      sload(0x10)\n        /* \"sadc.sol\":37420:37427  _taxFee */\n      0x0f\n        /* \"sadc.sol\":37420:37445  _taxFee = _previousTaxFee */\n      sstore\n        /* \"sadc.sol\":37472:37493  _previousLiquidityFee */\n      sload(0x12)\n        /* \"sadc.sol\":37456:37469  _liquidityFee */\n      0x11\n        /* \"sadc.sol\":37456:37493  _liquidityFee = _previousLiquidityFee */\n      sstore\n        /* \"sadc.sol\":37376:37501  function restoreAllFee() private {\r... */\n      jump\t// out\n        /* \"sadc.sol\":36774:36928  function calculateTaxFee(uint256 _amount) private view returns (uint256) {\r... */\n    tag_461:\n        /* \"sadc.sol\":36838:36845  uint256 */\n      0x00\n        /* \"sadc.sol\":36865:36920  _amount.mul(_taxFee).div(\r... */\n      tag_216\n        /* \"sadc.sol\":36904:36909  10**2 */\n      0x64\n        /* \"sadc.sol\":36865:36885  _amount.mul(_taxFee) */\n      tag_532\n        /* \"sadc.sol\":36877:36884  _taxFee */\n      sload(0x0f)\n        /* \"sadc.sol\":36865:36872  _amount */\n      dup6\n        /* \"sadc.sol\":36865:36876  _amount.mul */\n      tag_468\n      swap1\n        /* \"sadc.sol\":36865:36885  _amount.mul(_taxFee) */\n      swap2\n      swap1\n      0xffffffff\n      and\n      jump\t// in\n    tag_532:\n        /* \"sadc.sol\":36865:36889  _amount.mul(_taxFee).div */\n      swap1\n      tag_235\n        /* \"sadc.sol\":36865:36920  _amount.mul(_taxFee).div(\r... */\n      jump\t// in\n        /* \"sadc.sol\":36936:37102  function calculateLiquidityFee(uint256 _amount) private view returns (uint256) {\r... */\n    tag_463:\n        /* \"sadc.sol\":37006:37013  uint256 */\n      0x00\n        /* \"sadc.sol\":37033:37094  _amount.mul(_liquidityFee).div(\r... */\n      tag_216\n        /* \"sadc.sol\":37078:37083  10**2 */\n      0x64\n        /* \"sadc.sol\":37033:37059  _amount.mul(_liquidityFee) */\n      tag_532\n        /* \"sadc.sol\":37045:37058  _liquidityFee */\n      sload(0x11)\n        /* \"sadc.sol\":37033:37040  _amount */\n      dup6\n        /* \"sadc.sol\":37033:37044  _amount.mul */\n      tag_468\n      swap1\n        /* \"sadc.sol\":37033:37059  _amount.mul(_liquidityFee) */\n      swap2\n      swap1\n      0xffffffff\n      and\n      jump\t// in\n        /* \"sadc.sol\":4904:5375  function mul(uint256 a, uint256 b) internal pure returns (uint256) {\r... */\n    tag_468:\n        /* \"sadc.sol\":4962:4969  uint256 */\n      0x00\n        /* \"sadc.sol\":5207:5213  a == 0 */\n      dup3\n        /* \"sadc.sol\":5203:5250  if (a == 0) {\r... */\n      tag_537\n      jumpi\n      pop\n        /* \"sadc.sol\":5237:5238  0 */\n      0x00\n        /* \"sadc.sol\":5230:5238  return 0 */\n      jump(tag_216)\n        /* \"sadc.sol\":5203:5250  if (a == 0) {\r... */\n    tag_537:\n        /* \"sadc.sol\":5274:5279  a * b */\n      dup3\n      dup3\n      mul\n        /* \"sadc.sol\":5278:5279  b */\n      dup3\n        /* \"sadc.sol\":5274:5275  a */\n      dup5\n        /* \"sadc.sol\":5274:5279  a * b */\n      dup3\n        /* \"sadc.sol\":5274:5275  a */\n      dup2\n        /* \"sadc.sol\":5298:5303  c / a */\n      tag_538\n      jumpi\n      invalid\n    tag_538:\n      div\n        /* \"sadc.sol\":5298:5308  c / a == b */\n      eq\n        /* \"sadc.sol\":5290:5346  require(c / a == b, \"SafeMath: multiplication overflow\") */\n      tag_385\n      jumpi\n      mload(0x40)\n      shl(0xe5, 0x461bcd)\n      dup2\n      mstore\n      0x04\n      add\n      dup1\n      dup1\n      0x20\n      add\n      dup3\n      dup2\n      sub\n      dup3\n      mstore\n      0x21\n      dup2\n      mstore\n      0x20\n      add\n      dup1\n      data_9113bb53c2876a3805b2c9242029423fc540a728243ce887ab24c82cf119fba3\n      0x21\n      swap2\n      codecopy\n      0x40\n      add\n      swap2\n      pop\n      pop\n      mload(0x40)\n      dup1\n      swap2\n      sub\n      swap1\n      revert\n        /* \"sadc.sol\":36279:36634  function _takeLiquidity(uint256 tLiquidity) private {\r... */\n    tag_505:\n        /* \"sadc.sol\":36342:36361  uint256 currentRate */\n      0x00\n        /* \"sadc.sol\":36365:36375  _getRate() */\n      tag_541\n        /* \"sadc.sol\":36365:36373  _getRate */\n      tag_233\n        /* \"sadc.sol\":36365:36375  _getRate() */\n      jump\t// in\n    tag_541:\n        /* \"sadc.sol\":36342:36375  uint256 currentRate =  _getRate() */\n      swap1\n      pop\n        /* \"sadc.sol\":36386:36404  uint256 rLiquidity */\n      0x00\n        /* \"sadc.sol\":36407:36434  tLiquidity.mul(currentRate) */\n      tag_542\n        /* \"sadc.sol\":36407:36417  tLiquidity */\n      dup4\n        /* \"sadc.sol\":36342:36375  uint256 currentRate =  _getRate() */\n      dup4\n        /* \"sadc.sol\":36407:36421  tLiquidity.mul */\n      tag_468\n        /* \"sadc.sol\":36407:36434  tLiquidity.mul(currentRate) */\n      jump\t// in\n    tag_542:\n        /* \"sadc.sol\":36486:36490  this */\n      address\n        /* \"sadc.sol\":36470:36492  _rOwned[address(this)] */\n      0x00\n      swap1\n      dup2\n      mstore\n        /* \"sadc.sol\":36470:36477  _rOwned */\n      0x03\n        /* \"sadc.sol\":36470:36492  _rOwned[address(this)] */\n      0x20\n      mstore\n      0x40\n      swap1\n      keccak256\n      sload\n        /* \"sadc.sol\":36386:36434  uint256 rLiquidity = tLiquidity.mul(currentRate) */\n      swap1\n      swap2\n      pop\n        /* \"sadc.sol\":36470:36508  _rOwned[address(this)].add(rLiquidity) */\n      tag_543\n      swap1\n        /* \"sadc.sol\":36386:36434  uint256 rLiquidity = tLiquidity.mul(currentRate) */\n      dup3\n        /* \"sadc.sol\":36470:36496  _rOwned[address(this)].add */\n      tag_259\n        /* \"sadc.sol\":36470:36508  _rOwned[address(this)].add(rLiquidity) */\n      jump\t// in\n    tag_543:\n        /* \"sadc.sol\":36461:36465  this */\n      address\n        /* \"sadc.sol\":36445:36467  _rOwned[address(this)] */\n      0x00\n      swap1\n      dup2\n      mstore\n        /* \"sadc.sol\":36445:36452  _rOwned */\n      0x03\n        /* \"sadc.sol\":36445:36467  _rOwned[address(this)] */\n      0x20\n      swap1\n      dup2\n      mstore\n      0x40\n      dup1\n      dup4\n      keccak256\n        /* \"sadc.sol\":36445:36508  _rOwned[address(this)] = _rOwned[address(this)].add(rLiquidity) */\n      swap4\n      swap1\n      swap4\n      sstore\n        /* \"sadc.sol\":36522:36533  _isExcluded */\n      0x07\n        /* \"sadc.sol\":36522:36548  _isExcluded[address(this)] */\n      swap1\n      mstore\n      keccak256\n      sload\n      0xff\n      and\n        /* \"sadc.sol\":36519:36626  if(_isExcluded[address(this)])\r... */\n      iszero\n      tag_544\n      jumpi\n        /* \"sadc.sol\":36604:36608  this */\n      address\n        /* \"sadc.sol\":36588:36610  _tOwned[address(this)] */\n      0x00\n      swap1\n      dup2\n      mstore\n        /* \"sadc.sol\":36588:36595  _tOwned */\n      0x04\n        /* \"sadc.sol\":36588:36610  _tOwned[address(this)] */\n      0x20\n      mstore\n      0x40\n      swap1\n      keccak256\n      sload\n        /* \"sadc.sol\":36588:36626  _tOwned[address(this)].add(tLiquidity) */\n      tag_545\n      swap1\n        /* \"sadc.sol\":36615:36625  tLiquidity */\n      dup5\n        /* \"sadc.sol\":36588:36614  _tOwned[address(this)].add */\n      tag_259\n        /* \"sadc.sol\":36588:36626  _tOwned[address(this)].add(tLiquidity) */\n      jump\t// in\n    tag_545:\n        /* \"sadc.sol\":36579:36583  this */\n      address\n        /* \"sadc.sol\":36563:36585  _tOwned[address(this)] */\n      0x00\n      swap1\n      dup2\n      mstore\n        /* \"sadc.sol\":36563:36570  _tOwned */\n      0x04\n        /* \"sadc.sol\":36563:36585  _tOwned[address(this)] */\n      0x20\n      mstore\n      0x40\n      swap1\n      keccak256\n        /* \"sadc.sol\":36563:36626  _tOwned[address(this)] = _tOwned[address(this)].add(tLiquidity) */\n      sstore\n        /* \"sadc.sol\":36519:36626  if(_isExcluded[address(this)])\r... */\n    tag_544:\n        /* \"sadc.sol\":36279:36634  function _takeLiquidity(uint256 tLiquidity) private {\r... */\n      pop\n      pop\n      pop\n      jump\t// out\n        /* \"sadc.sol\":34178:34325  function _reflectFee(uint256 rFee, uint256 tFee) private {\r... */\n    tag_507:\n        /* \"sadc.sol\":34256:34263  _rTotal */\n      sload(0x0a)\n        /* \"sadc.sol\":34256:34273  _rTotal.sub(rFee) */\n      tag_547\n      swap1\n        /* \"sadc.sol\":34268:34272  rFee */\n      dup4\n        /* \"sadc.sol\":34256:34267  _rTotal.sub */\n      tag_266\n        /* \"sadc.sol\":34256:34273  _rTotal.sub(rFee) */\n      jump\t// in\n    tag_547:\n        /* \"sadc.sol\":34246:34253  _rTotal */\n      0x0a\n        /* \"sadc.sol\":34246:34273  _rTotal = _rTotal.sub(rFee) */\n      sstore\n        /* \"sadc.sol\":34297:34307  _tFeeTotal */\n      sload(0x0b)\n        /* \"sadc.sol\":34297:34317  _tFeeTotal.add(tFee) */\n      tag_548\n      swap1\n        /* \"sadc.sol\":34312:34316  tFee */\n      dup3\n        /* \"sadc.sol\":34297:34311  _tFeeTotal.add */\n      tag_259\n        /* \"sadc.sol\":34297:34317  _tFeeTotal.add(tFee) */\n      jump\t// in\n    tag_548:\n        /* \"sadc.sol\":34284:34294  _tFeeTotal */\n      0x0b\n        /* \"sadc.sol\":34284:34317  _tFeeTotal = _tFeeTotal.add(tFee) */\n      sstore\n      pop\n      pop\n        /* \"sadc.sol\":34178:34325  function _reflectFee(uint256 rFee, uint256 tFee) private {\r... */\n      jump\t// out\n    stop\n    data_0557e210f7a69a685100a7e4e3d0a7024c546085cee28910fd17d0b081d9516f 45524332303a207472616e7366657220746f20746865207a65726f2061646472657373\n    data_22f7af55a509c3b14f0d528f087748dec8a8bf425135e3f5dc28c6a31ec6d812 416d6f756e74206d757374206265206c657373207468616e20746f74616c207265666c656374696f6e73\n    data_245f15ff17f551913a7a18385165551503906a406f905ac1c2437281a7cd0cfe 4f776e61626c653a206e6577206f776e657220697320746865207a65726f2061646472657373\n    data_24883cc5fe64ace9d0df1893501ecb93c77180f0ff69cca79affb3c316dc8029 45524332303a20617070726f766520746f20746865207a65726f2061646472657373\n    data_72052210969ce5fd88e52b5e685de9548acef9bb1b6d02e29c1765d0674948dd 5472616e7366657220616d6f756e74206578636565647320746865206d61785478416d6f756e742e\n    data_9113bb53c2876a3805b2c9242029423fc540a728243ce887ab24c82cf119fba3 536166654d6174683a206d756c7469706c69636174696f6e206f766572666c6f77\n    data_974d1b4421da69cc60b481194f0dad36a5bb4e23da810da7a7fb30cdba178330 45524332303a207472616e7366657220616d6f756e74206578636565647320616c6c6f77616e6365\n    data_9924ebdf1add33d25d4ef888e16131f0a5687b0580a36c21b5c301a6c462effe 4f776e61626c653a2063616c6c6572206973206e6f7420746865206f776e6572\n    data_9c064737b570a74c2bac5d21056d93ac53115214216cd14d4a0fc9b60be81231 8be0079c531659141344cd1fd0a4f28419497f9722a3daafe3b4186f6b6457e0\n    data_9edb5ab58321f35d2386ea65721c9b107daa2c273610fc16d394af2a320ba785 5472616e7366657220616d6f756e74206d7573742062652067726561746572207468616e207a65726f\n    data_baecc556b46f4ed0f2b4cb599d60785ac8563dd2dc0a5bf12edea1c39e5e1fea 45524332303a207472616e736665722066726f6d20746865207a65726f2061646472657373\n    data_c953f4879035ed60e766b34720f656aab5c697b141d924c283124ecedb91c208 45524332303a20617070726f76652066726f6d20746865207a65726f2061646472657373\n    data_ecefcaf5fbcf9ca6dcdb02298ba1da96f4ead317b0a4779917ecb2e5e7dc3ac4 4578636c75646564206164647265737365732063616e6e6f742063616c6c20746869732066756e6374696f6e\n    data_f4eb59be3df39931213d374c3658377dca3f0d2b46b7bc965af767c57c74b611 596f7520646f6e27742068617665207065726d697373696f6e20746f20756e6c6f636b\n    data_f8b476f7d28209d77d4a4ac1fe36b9f8259aa1bb6bddfa6e89de7e51615cf8a8 45524332303a2064656372656173656420616c6c6f77616e63652062656c6f77207a65726f\n\n    auxdata: 0xa2646970667358221220ac999a26c28c3f60af13b5765e938c8b59cb52f8f56d4cbdcf819ceb65f3238264736f6c634300060c0033\n}\n",
				"bytecode": {
					"linkReferences": {},
					"object": "60c06040526013805461ff0019166101001790553480156200002057600080fd5b50604051620031143803806200311483398181016040526101408110156200004757600080fd5b81019080805160405193929190846401000000008211156200006857600080fd5b9083019060208201858111156200007e57600080fd5b82516401000000008111828201881017156200009957600080fd5b82525081516020918201929091019080838360005b83811015620000c8578181015183820152602001620000ae565b50505050905090810190601f168015620000f65780820380516001836020036101000a031916815260200191505b50604052602001805160405193929190846401000000008211156200011a57600080fd5b9083019060208201858111156200013057600080fd5b82516401000000008111828201881017156200014b57600080fd5b82525081516020918201929091019080838360005b838110156200017a57818101518382015260200162000160565b50505050905090810190601f168015620001a85780820380516001836020036101000a031916815260200191505b506040908152602082810151918301516060840151608085015160a086015160c087015160e0880151610100909801518c51979a5094985092969195909492939192620001fb91600c918d019062000486565b5088516200021190600d9060208c019062000486565b50600e889055600a88900a87026009819055600019816200022e57fe5b0619600a818155600f889055601187905560108890556012879055600e54900a85810260145584026015556001600160a01b0380831660009081526003602090815260409182902093909355805163c45a015560e01b8152905185939284169263c45a01559260048082019391829003018186803b158015620002b057600080fd5b505afa158015620002c5573d6000803e3d6000fd5b505050506040513d6020811015620002dc57600080fd5b5051604080516315ab88c960e31b815290516001600160a01b039283169263c9c653969230929186169163ad5c464891600480820192602092909190829003018186803b1580156200032d57600080fd5b505afa15801562000342573d6000803e3d6000fd5b505050506040513d60208110156200035957600080fd5b5051604080516001600160e01b031960e086901b1681526001600160a01b0393841660048201529290911660248301525160448083019260209291908290030181600087803b158015620003ac57600080fd5b505af1158015620003c1573d6000803e3d6000fd5b505050506040513d6020811015620003d857600080fd5b50516001600160601b0319606091821b811660a0529082901b166080526001600160a01b0382166000818152600660209081526040808320805460ff1990811660019081179092553085528285208054909116909117905582546001600160a01b03191684178355600954815190815290517fddf252ad1be2c89b69c2b068fc378daa952ba7f163c4a11628f55a4df523b3ef929181900390910190a3505050505050505050505062000522565b828054600181600116156101000203166002900490600052602060002090601f016020900481019282601f10620004c957805160ff1916838001178555620004f9565b82800160010185558215620004f9579182015b82811115620004f9578251825591602001919060010190620004dc565b50620005079291506200050b565b5090565b5b808211156200050757600081556001016200050c565b60805160601c60a05160601c612baa6200056a60003980610fcb5280611b20525080610a205280612283528061233b52806123625280612448528061246f5250612baa6000f3fe60806040526004361061024a5760003560e01c80636bc87c3a11610139578063a9059cbb116100b6578063d543dbeb1161007a578063d543dbeb146107e8578063dd46706414610812578063dd62ed3e1461083c578063ea2f0b3714610877578063f0f165af146108aa578063f2fde38b146108d457610251565b8063a9059cbb14610744578063b2bdfa7b1461077d578063b6c5232414610792578063c49b9a80146107a7578063d12a7688146107d357610251565b80638da5cb5b116100fd5780638da5cb5b146106a25780638ee88c53146106b757806395d89b41146106e1578063a457c2d7146106f6578063a69df4b51461072f57610251565b80636bc87c3a146105fd57806370a0823114610612578063715018a6146106455780637d1db4a51461065a57806388f820201461066f57610251565b806339509351116101c757806348c54b9d1161018b57806348c54b9d1461055857806349bd5a5e1461056d5780634a74bb021461058257806352390c02146105975780635342acb4146105ca57610251565b8063395093511461047b5780633b124fe7146104b45780633bd5d173146104c9578063437823ec146104f35780634549b0391461052657610251565b806318160ddd1161020e57806318160ddd146103b157806323b872dd146103c65780632d83811914610409578063313ce567146104335780633685d4191461044857610251565b8063061c82d01461025657806306fdde0314610282578063095ea7b31461030c57806313114a9d146103595780631694505e1461038057610251565b3661025157005b600080fd5b34801561026257600080fd5b506102806004803603602081101561027957600080fd5b5035610907565b005b34801561028e57600080fd5b50610297610964565b6040805160208082528351818301528351919283929083019185019080838360005b838110156102d15781810151838201526020016102b9565b50505050905090810190601f1680156102fe5780820380516001836020036101000a031916815260200191505b509250505060405180910390f35b34801561031857600080fd5b506103456004803603604081101561032f57600080fd5b506001600160a01b0381351690602001356109fa565b604080519115158252519081900360200190f35b34801561036557600080fd5b5061036e610a18565b60408051918252519081900360200190f35b34801561038c57600080fd5b50610395610a1e565b604080516001600160a01b039092168252519081900360200190f35b3480156103bd57600080fd5b5061036e610a42565b3480156103d257600080fd5b50610345600480360360608110156103e957600080fd5b506001600160a01b03813581169160208101359091169060400135610a48565b34801561041557600080fd5b5061036e6004803603602081101561042c57600080fd5b5035610acf565b34801561043f57600080fd5b5061036e610b31565b34801561045457600080fd5b506102806004803603602081101561046b57600080fd5b50356001600160a01b0316610b37565b34801561048757600080fd5b506103456004803603604081101561049e57600080fd5b506001600160a01b038135169060200135610cf8565b3480156104c057600080fd5b5061036e610d46565b3480156104d557600080fd5b50610280600480360360208110156104ec57600080fd5b5035610d4c565b3480156104ff57600080fd5b506102806004803603602081101561051657600080fd5b50356001600160a01b0316610e26565b34801561053257600080fd5b5061036e6004803603604081101561054957600080fd5b50803590602001351515610ea2565b34801561056457600080fd5b50610280610f34565b34801561057957600080fd5b50610395610fc9565b34801561058e57600080fd5b50610345610fed565b3480156105a357600080fd5b50610280600480360360208110156105ba57600080fd5b50356001600160a01b0316610ffb565b3480156105d657600080fd5b50610345600480360360208110156105ed57600080fd5b50356001600160a01b0316611181565b34801561060957600080fd5b5061036e61119f565b34801561061e57600080fd5b5061036e6004803603602081101561063557600080fd5b50356001600160a01b03166111a5565b34801561065157600080fd5b50610280611207565b34801561066657600080fd5b5061036e611297565b34801561067b57600080fd5b506103456004803603602081101561069257600080fd5b50356001600160a01b031661129d565b3480156106ae57600080fd5b506103956112bb565b3480156106c357600080fd5b50610280600480360360208110156106da57600080fd5b50356112ca565b3480156106ed57600080fd5b50610297611327565b34801561070257600080fd5b506103456004803603604081101561071957600080fd5b506001600160a01b038135169060200135611388565b34801561073b57600080fd5b506102806113f0565b34801561075057600080fd5b506103456004803603604081101561076757600080fd5b506001600160a01b0381351690602001356114de565b34801561078957600080fd5b506103956114f2565b34801561079e57600080fd5b5061036e611501565b3480156107b357600080fd5b50610280600480360360208110156107ca57600080fd5b50351515611507565b3480156107df57600080fd5b5061036e6115ae565b3480156107f457600080fd5b506102806004803603602081101561080b57600080fd5b50356115b4565b34801561081e57600080fd5b506102806004803603602081101561083557600080fd5b5035611618565b34801561084857600080fd5b5061036e6004803603604081101561085f57600080fd5b506001600160a01b03813581169160200135166116b6565b34801561088357600080fd5b506102806004803603602081101561089a57600080fd5b50356001600160a01b03166116e1565b3480156108b657600080fd5b50610280600480360360208110156108cd57600080fd5b503561175a565b3480156108e057600080fd5b50610280600480360360208110156108f757600080fd5b50356001600160a01b03166117be565b61090f6118a4565b6000546001600160a01b0390811691161461095f576040805162461bcd60e51b81526020600482018190526024820152600080516020612a4f833981519152604482015290519081900360640190fd5b600f55565b600c8054604080516020601f60026000196101006001881615020190951694909404938401819004810282018101909252828152606093909290918301828280156109f05780601f106109c5576101008083540402835291602001916109f0565b820191906000526020600020905b8154815290600101906020018083116109d357829003601f168201915b5050505050905090565b6000610a0e610a076118a4565b84846118a8565b5060015b92915050565b600b5490565b7f000000000000000000000000000000000000000000000000000000000000000081565b60095490565b6000610a55848484611994565b610ac584610a616118a4565b610ac085604051806060016040528060288152602001612a27602891396001600160a01b038a16600090815260056020526040812090610a9f6118a4565b6001600160a01b031681526020810191909152604001600020549190611bda565b6118a8565b5060019392505050565b6000600a54821115610b125760405162461bcd60e51b815260040180806020018281038252602a81526020018061296c602a913960400191505060405180910390fd5b6000610b1c611c71565b9050610b288382611c94565b9150505b919050565b600e5490565b610b3f6118a4565b6000546001600160a01b03908116911614610b8f576040805162461bcd60e51b81526020600482018190526024820152600080516020612a4f833981519152604482015290519081900360640190fd5b6001600160a01b03811660009081526007602052604090205460ff16610bfc576040805162461bcd60e51b815260206004820152601b60248201527f4163636f756e7420697320616c7265616479206578636c756465640000000000604482015290519081900360640190fd5b60005b600854811015610cf457816001600160a01b031660088281548110610c2057fe5b6000918252602090912001546001600160a01b03161415610cec57600880546000198101908110610c4d57fe5b600091825260209091200154600880546001600160a01b039092169183908110610c7357fe5b600091825260208083209190910180546001600160a01b0319166001600160a01b039485161790559184168152600482526040808220829055600790925220805460ff191690556008805480610cc557fe5b600082815260209020810160001990810180546001600160a01b0319169055019055610cf4565b600101610bff565b5050565b6000610a0e610d056118a4565b84610ac08560056000610d166118a4565b6001600160a01b03908116825260208083019390935260409182016000908120918c168152925290205490611cdd565b600f5481565b6000610d566118a4565b6001600160a01b03811660009081526007602052604090205490915060ff1615610db15760405162461bcd60e51b815260040180806020018281038252602c815260200180612b01602c913960400191505060405180910390fd5b6000610dbc83611d37565b505050506001600160a01b038416600090815260036020526040902054919250610de891905082611d86565b6001600160a01b038316600090815260036020526040902055600a54610e0e9082611d86565b600a55600b54610e1e9084611cdd565b600b55505050565b610e2e6118a4565b6000546001600160a01b03908116911614610e7e576040805162461bcd60e51b81526020600482018190526024820152600080516020612a4f833981519152604482015290519081900360640190fd5b6001600160a01b03166000908152600660205260409020805460ff19166001179055565b6000600954831115610efb576040805162461bcd60e51b815260206004820152601f60248201527f416d6f756e74206d757374206265206c657373207468616e20737570706c7900604482015290519081900360640190fd5b81610f1a576000610f0b84611d37565b50939550610a12945050505050565b6000610f2584611d37565b50929550610a12945050505050565b610f3c6118a4565b6000546001600160a01b03908116911614610f8c576040805162461bcd60e51b81526020600482018190526024820152600080516020612a4f833981519152604482015290519081900360640190fd5b600080546040516001600160a01b03909116914780156108fc02929091818181858888f19350505050158015610fc6573d6000803e3d6000fd5b50565b7f000000000000000000000000000000000000000000000000000000000000000081565b601354610100900460ff1681565b6110036118a4565b6000546001600160a01b03908116911614611053576040805162461bcd60e51b81526020600482018190526024820152600080516020612a4f833981519152604482015290519081900360640190fd5b6001600160a01b03811660009081526007602052604090205460ff16156110c1576040805162461bcd60e51b815260206004820152601b60248201527f4163636f756e7420697320616c7265616479206578636c756465640000000000604482015290519081900360640190fd5b6001600160a01b0381166000908152600360205260409020541561111b576001600160a01b03811660009081526003602052604090205461110190610acf565b6001600160a01b0382166000908152600460205260409020555b6001600160a01b03166000818152600760205260408120805460ff191660019081179091556008805491820181559091527ff3f7a9fe364faab93b216da50a3214154f22a0a2b415b23a84c8169e8b636ee30180546001600160a01b0319169091179055565b6001600160a01b031660009081526006602052604090205460ff1690565b60115481565b6001600160a01b03811660009081526007602052604081205460ff16156111e557506001600160a01b038116600090815260046020526040902054610b2c565b6001600160a01b038216600090815260036020526040902054610a1290610acf565b61120f6118a4565b6000546001600160a01b0390811691161461125f576040805162461bcd60e51b81526020600482018190526024820152600080516020612a4f833981519152604482015290519081900360640190fd5b600080546040516001600160a01b0390911690600080516020612a6f833981519152908390a3600080546001600160a01b0319169055565b60145481565b6001600160a01b031660009081526007602052604090205460ff1690565b6000546001600160a01b031690565b6112d26118a4565b6000546001600160a01b03908116911614611322576040805162461bcd60e51b81526020600482018190526024820152600080516020612a4f833981519152604482015290519081900360640190fd5b601155565b600d8054604080516020601f60026000196101006001881615020190951694909404938401819004810282018101909252828152606093909290918301828280156109f05780601f106109c5576101008083540402835291602001916109f0565b6000610a0e6113956118a4565b84610ac085604051806060016040528060258152602001612b5060259139600560006113bf6118a4565b6001600160a01b03908116825260208083019390935260409182016000908120918d16815292529020549190611bda565b6001546001600160a01b031633146114395760405162461bcd60e51b8152600401808060200182810382526023815260200180612b2d6023913960400191505060405180910390fd5b600254421161148f576040805162461bcd60e51b815260206004820152601f60248201527f436f6e7472616374206973206c6f636b656420756e74696c2037206461797300604482015290519081900360640190fd5b600154600080546040516001600160a01b039384169390911691600080516020612a6f83398151915291a3600154600080546001600160a01b0319166001600160a01b03909216919091179055565b6000610a0e6114eb6118a4565b8484611994565b6000546001600160a01b031681565b60025490565b61150f6118a4565b6000546001600160a01b0390811691161461155f576040805162461bcd60e51b81526020600482018190526024820152600080516020612a4f833981519152604482015290519081900360640190fd5b60138054821515610100810261ff00199092169190911790915560408051918252517f53726dfcaf90650aa7eb35524f4d3220f07413c8d6cb404cc8c18bf5591bc1599181900360200190a150565b60155481565b6115bc6118a4565b6000546001600160a01b0390811691161461160c576040805162461bcd60e51b81526020600482018190526024820152600080516020612a4f833981519152604482015290519081900360640190fd5b600e54600a0a02601455565b6116206118a4565b6000546001600160a01b03908116911614611670576040805162461bcd60e51b81526020600482018190526024820152600080516020612a4f833981519152604482015290519081900360640190fd5b60008054600180546001600160a01b03199081166001600160a01b038416179091551681554282016002556040518190600080516020612a6f833981519152908290a350565b6001600160a01b03918216600090815260056020908152604080832093909416825291909152205490565b6116e96118a4565b6000546001600160a01b03908116911614611739576040805162461bcd60e51b81526020600482018190526024820152600080516020612a4f833981519152604482015290519081900360640190fd5b6001600160a01b03166000908152600660205260409020805460ff19169055565b6117626118a4565b6000546001600160a01b039081169116146117b2576040805162461bcd60e51b81526020600482018190526024820152600080516020612a4f833981519152604482015290519081900360640190fd5b600e54600a0a02601555565b6117c66118a4565b6000546001600160a01b03908116911614611816576040805162461bcd60e51b81526020600482018190526024820152600080516020612a4f833981519152604482015290519081900360640190fd5b6001600160a01b03811661185b5760405162461bcd60e51b81526004018080602001828103825260268152602001806129966026913960400191505060405180910390fd5b600080546040516001600160a01b0380851693921691600080516020612a6f83398151915291a3600080546001600160a01b0319166001600160a01b0392909216919091179055565b3390565b6001600160a01b0383166118ed5760405162461bcd60e51b8152600401808060200182810382526024815260200180612add6024913960400191505060405180910390fd5b6001600160a01b0382166119325760405162461bcd60e51b81526004018080602001828103825260228152602001806129bc6022913960400191505060405180910390fd5b6001600160a01b03808416600081815260056020908152604080832094871680845294825291829020859055815185815291517f8c5be1e5ebec7d5bd14f71427d1e84f3dd0314c0f7b2291e5b200ac8c7c3b9259281900390910190a3505050565b6001600160a01b0383166119d95760405162461bcd60e51b8152600401808060200182810382526025815260200180612ab86025913960400191505060405180910390fd5b6001600160a01b038216611a1e5760405162461bcd60e51b81526004018080602001828103825260238152602001806129496023913960400191505060405180910390fd5b60008111611a5d5760405162461bcd60e51b8152600401808060200182810382526029815260200180612a8f6029913960400191505060405180910390fd5b611a656112bb565b6001600160a01b0316836001600160a01b031614158015611a9f5750611a896112bb565b6001600160a01b0316826001600160a01b031614155b15611ae557601454811115611ae55760405162461bcd60e51b81526004018080602001828103825260288152602001806129de6028913960400191505060405180910390fd5b6000611af0306111a5565b90506014548110611b0057506014545b60155481108015908190611b17575060135460ff16155b8015611b5557507f00000000000000000000000000000000000000000000000000000000000000006001600160a01b0316856001600160a01b031614155b8015611b685750601354610100900460ff165b15611b7b576015549150611b7b82611dc8565b6001600160a01b03851660009081526006602052604090205460019060ff1680611bbd57506001600160a01b03851660009081526006602052604090205460ff165b15611bc6575060005b611bd286868684611e65565b505050505050565b60008184841115611c695760405162461bcd60e51b81526004018080602001828103825283818151815260200191508051906020019080838360005b83811015611c2e578181015183820152602001611c16565b50505050905090810190601f168015611c5b5780820380516001836020036101000a031916815260200191505b509250505060405180910390fd5b505050900390565b6000806000611c7e611fd9565b9092509050611c8d8282611c94565b9250505090565b6000611cd683836040518060400160405280601a81526020017f536166654d6174683a206469766973696f6e206279207a65726f00000000000081525061213c565b9392505050565b600082820183811015611cd6576040805162461bcd60e51b815260206004820152601b60248201527f536166654d6174683a206164646974696f6e206f766572666c6f770000000000604482015290519081900360640190fd5b6000806000806000806000806000611d4e8a6121a1565b9250925092506000806000611d6c8d8686611d67611c71565b6121e3565b919f909e50909c50959a5093985091965092945050505050565b6000611cd683836040518060400160405280601e81526020017f536166654d6174683a207375627472616374696f6e206f766572666c6f770000815250611bda565b6013805460ff191660011790556000611de2826002611c94565b90506000611df08383611d86565b905047611dfc83612233565b6000611e084783611d86565b9050611e148382612442565b604080518581526020810183905280820185905290517f17bbfb9a6069321b6ded73bd96327c9e6b7212a5cd51ff219cd61370acafb5619181900360600190a150506013805460ff19169055505050565b80611e7257611e72612540565b6001600160a01b03841660009081526007602052604090205460ff168015611eb357506001600160a01b03831660009081526007602052604090205460ff16155b15611ec857611ec3848484612572565b611fc6565b6001600160a01b03841660009081526007602052604090205460ff16158015611f0957506001600160a01b03831660009081526007602052604090205460ff165b15611f1957611ec3848484612696565b6001600160a01b03841660009081526007602052604090205460ff16158015611f5b57506001600160a01b03831660009081526007602052604090205460ff16155b15611f6b57611ec384848461273f565b6001600160a01b03841660009081526007602052604090205460ff168015611fab57506001600160a01b03831660009081526007602052604090205460ff165b15611fbb57611ec3848484612783565b611fc684848461273f565b80611fd357611fd36127f6565b50505050565b600a546009546000918291825b60085481101561210a5782600360006008848154811061200257fe5b60009182526020808320909101546001600160a01b031683528201929092526040019020541180612067575081600460006008848154811061204057fe5b60009182526020808320909101546001600160a01b03168352820192909252604001902054115b1561207e57600a5460095494509450505050612138565b6120be600360006008848154811061209257fe5b60009182526020808320909101546001600160a01b031683528201929092526040019020548490611d86565b925061210060046000600884815481106120d457fe5b60009182526020808320909101546001600160a01b031683528201929092526040019020548390611d86565b9150600101611fe6565b50600954600a5461211a91611c94565b82101561213257600a54600954935093505050612138565b90925090505b9091565b6000818361218b5760405162461bcd60e51b8152602060048201818152835160248401528351909283926044909101919085019080838360008315611c2e578181015183820152602001611c16565b50600083858161219757fe5b0495945050505050565b6000806000806121b085612804565b905060006121bd86612826565b905060006121d5826121cf8986611d86565b90611d86565b979296509094509092505050565b60008080806121f28886612842565b905060006122008887612842565b9050600061220e8888612842565b90506000612220826121cf8686611d86565b939b939a50919850919650505050505050565b6040805160028082526060808301845292602083019080368337019050509050308160008151811061226157fe5b60200260200101906001600160a01b031690816001600160a01b0316815250507f00000000000000000000000000000000000000000000000000000000000000006001600160a01b031663ad5c46486040518163ffffffff1660e01b815260040160206040518083038186803b1580156122da57600080fd5b505afa1580156122ee573d6000803e3d6000fd5b505050506040513d602081101561230457600080fd5b505181518290600190811061231557fe5b60200260200101906001600160a01b031690816001600160a01b031681525050612360307f0000000000000000000000000000000000000000000000000000000000000000846118a8565b7f00000000000000000000000000000000000000000000000000000000000000006001600160a01b031663791ac9478360008430426040518663ffffffff1660e01b81526004018086815260200185815260200180602001846001600160a01b03168152602001838152602001828103825285818151815260200191508051906020019060200280838360005b838110156124055781810151838201526020016123ed565b505050509050019650505050505050600060405180830381600087803b15801561242e57600080fd5b505af1158015611bd2573d6000803e3d6000fd5b61246d307f0000000000000000000000000000000000000000000000000000000000000000846118a8565b7f00000000000000000000000000000000000000000000000000000000000000006001600160a01b031663f305d7198230856000806124aa6112bb565b426040518863ffffffff1660e01b815260040180876001600160a01b03168152602001868152602001858152602001848152602001836001600160a01b0316815260200182815260200196505050505050506060604051808303818588803b15801561251557600080fd5b505af1158015612529573d6000803e3d6000fd5b50505050506040513d6060811015611fd357600080fd5b600f541580156125505750601154155b1561255a57612570565b600f805460105560118054601255600091829055555b565b60008060008060008061258487611d37565b6001600160a01b038f16600090815260046020526040902054959b509399509197509550935091506125b69088611d86565b6001600160a01b038a166000908152600460209081526040808320939093556003905220546125e59087611d86565b6001600160a01b03808b1660009081526003602052604080822093909355908a16815220546126149086611cdd565b6001600160a01b0389166000908152600360205260409020556126368161289b565b6126408483612924565b876001600160a01b0316896001600160a01b03167fddf252ad1be2c89b69c2b068fc378daa952ba7f163c4a11628f55a4df523b3ef856040518082815260200191505060405180910390a3505050505050505050565b6000806000806000806126a887611d37565b6001600160a01b038f16600090815260036020526040902054959b509399509197509550935091506126da9087611d86565b6001600160a01b03808b16600090815260036020908152604080832094909455918b168152600490915220546127109084611cdd565b6001600160a01b0389166000908152600460209081526040808320939093556003905220546126149086611cdd565b60008060008060008061275187611d37565b6001600160a01b038f16600090815260036020526040902054959b509399509197509550935091506125e59087611d86565b60008060008060008061279587611d37565b6001600160a01b038f16600090815260046020526040902054959b509399509197509550935091506127c79088611d86565b6001600160a01b038a166000908152600460209081526040808320939093556003905220546126da9087611d86565b601054600f55601254601155565b6000610a126064612820600f548561284290919063ffffffff16565b90611c94565b6000610a1260646128206011548561284290919063ffffffff16565b60008261285157506000610a12565b8282028284828161285e57fe5b0414611cd65760405162461bcd60e51b8152600401808060200182810382526021815260200180612a066021913960400191505060405180910390fd5b60006128a5611c71565b905060006128b38383612842565b306000908152600360205260409020549091506128d09082611cdd565b3060009081526003602090815260408083209390935560079052205460ff161561291f573060009081526004602052604090205461290e9084611cdd565b306000908152600460205260409020555b505050565b600a546129319083611d86565b600a55600b546129419082611cdd565b600b55505056fe45524332303a207472616e7366657220746f20746865207a65726f2061646472657373416d6f756e74206d757374206265206c657373207468616e20746f74616c207265666c656374696f6e734f776e61626c653a206e6577206f776e657220697320746865207a65726f206164647265737345524332303a20617070726f766520746f20746865207a65726f20616464726573735472616e7366657220616d6f756e74206578636565647320746865206d61785478416d6f756e742e536166654d6174683a206d756c7469706c69636174696f6e206f766572666c6f7745524332303a207472616e7366657220616d6f756e74206578636565647320616c6c6f77616e63654f776e61626c653a2063616c6c6572206973206e6f7420746865206f776e65728be0079c531659141344cd1fd0a4f28419497f9722a3daafe3b4186f6b6457e05472616e7366657220616d6f756e74206d7573742062652067726561746572207468616e207a65726f45524332303a207472616e736665722066726f6d20746865207a65726f206164647265737345524332303a20617070726f76652066726f6d20746865207a65726f20616464726573734578636c75646564206164647265737365732063616e6e6f742063616c6c20746869732066756e6374696f6e596f7520646f6e27742068617665207065726d697373696f6e20746f20756e6c6f636b45524332303a2064656372656173656420616c6c6f77616e63652062656c6f77207a65726fa2646970667358221220ac999a26c28c3f60af13b5765e938c8b59cb52f8f56d4cbdcf819ceb65f3238264736f6c634300060c0033",
					"opcodes": "PUSH1 0xC0 PUSH1 0x40 MSTORE PUSH1 0x13 DUP1 SLOAD PUSH2 0xFF00 NOT AND PUSH2 0x100 OR SWAP1 SSTORE CALLVALUE DUP1 ISZERO PUSH3 0x20 JUMPI PUSH1 0x0 DUP1 REVERT JUMPDEST POP PUSH1 0x40 MLOAD PUSH3 0x3114 CODESIZE SUB DUP1 PUSH3 0x3114 DUP4 CODECOPY DUP2 DUP2 ADD PUSH1 0x40 MSTORE PUSH2 0x140 DUP2 LT ISZERO PUSH3 0x47 JUMPI PUSH1 0x0 DUP1 REVERT JUMPDEST DUP2 ADD SWAP1 DUP1 DUP1 MLOAD PUSH1 0x40 MLOAD SWAP4 SWAP3 SWAP2 SWAP1 DUP5 PUSH5 0x100000000 DUP3 GT ISZERO PUSH3 0x68 JUMPI PUSH1 0x0 DUP1 REVERT JUMPDEST SWAP1 DUP4 ADD SWAP1 PUSH1 0x20 DUP3 ADD DUP6 DUP2 GT ISZERO PUSH3 0x7E JUMPI PUSH1 0x0 DUP1 REVERT JUMPDEST DUP3 MLOAD PUSH5 0x100000000 DUP2 GT DUP3 DUP3 ADD DUP9 LT OR ISZERO PUSH3 0x99 JUMPI PUSH1 0x0 DUP1 REVERT JUMPDEST DUP3 MSTORE POP DUP2 MLOAD PUSH1 0x20 SWAP2 DUP3 ADD SWAP3 SWAP1 SWAP2 ADD SWAP1 DUP1 DUP4 DUP4 PUSH1 0x0 JUMPDEST DUP4 DUP2 LT ISZERO PUSH3 0xC8 JUMPI DUP2 DUP2 ADD MLOAD DUP4 DUP3 ADD MSTORE PUSH1 0x20 ADD PUSH3 0xAE JUMP JUMPDEST POP POP POP POP SWAP1 POP SWAP1 DUP2 ADD SWAP1 PUSH1 0x1F AND DUP1 ISZERO PUSH3 0xF6 JUMPI DUP1 DUP3 SUB DUP1 MLOAD PUSH1 0x1 DUP4 PUSH1 0x20 SUB PUSH2 0x100 EXP SUB NOT AND DUP2 MSTORE PUSH1 0x20 ADD SWAP2 POP JUMPDEST POP PUSH1 0x40 MSTORE PUSH1 0x20 ADD DUP1 MLOAD PUSH1 0x40 MLOAD SWAP4 SWAP3 SWAP2 SWAP1 DUP5 PUSH5 0x100000000 DUP3 GT ISZERO PUSH3 0x11A JUMPI PUSH1 0x0 DUP1 REVERT JUMPDEST SWAP1 DUP4 ADD SWAP1 PUSH1 0x20 DUP3 ADD DUP6 DUP2 GT ISZERO PUSH3 0x130 JUMPI PUSH1 0x0 DUP1 REVERT JUMPDEST DUP3 MLOAD PUSH5 0x100000000 DUP2 GT DUP3 DUP3 ADD DUP9 LT OR ISZERO PUSH3 0x14B JUMPI PUSH1 0x0 DUP1 REVERT JUMPDEST DUP3 MSTORE POP DUP2 MLOAD PUSH1 0x20 SWAP2 DUP3 ADD SWAP3 SWAP1 SWAP2 ADD SWAP1 DUP1 DUP4 DUP4 PUSH1 0x0 JUMPDEST DUP4 DUP2 LT ISZERO PUSH3 0x17A JUMPI DUP2 DUP2 ADD MLOAD DUP4 DUP3 ADD MSTORE PUSH1 0x20 ADD PUSH3 0x160 JUMP JUMPDEST POP POP POP POP SWAP1 POP SWAP1 DUP2 ADD SWAP1 PUSH1 0x1F AND DUP1 ISZERO PUSH3 0x1A8 JUMPI DUP1 DUP3 SUB DUP1 MLOAD PUSH1 0x1 DUP4 PUSH1 0x20 SUB PUSH2 0x100 EXP SUB NOT AND DUP2 MSTORE PUSH1 0x20 ADD SWAP2 POP JUMPDEST POP PUSH1 0x40 SWAP1 DUP2 MSTORE PUSH1 0x20 DUP3 DUP2 ADD MLOAD SWAP2 DUP4 ADD MLOAD PUSH1 0x60 DUP5 ADD MLOAD PUSH1 0x80 DUP6 ADD MLOAD PUSH1 0xA0 DUP7 ADD MLOAD PUSH1 0xC0 DUP8 ADD MLOAD PUSH1 0xE0 DUP9 ADD MLOAD PUSH2 0x100 SWAP1 SWAP9 ADD MLOAD DUP13 MLOAD SWAP8 SWAP11 POP SWAP5 SWAP9 POP SWAP3 SWAP7 SWAP2 SWAP6 SWAP1 SWAP5 SWAP3 SWAP4 SWAP2 SWAP3 PUSH3 0x1FB SWAP2 PUSH1 0xC SWAP2 DUP14 ADD SWAP1 PUSH3 0x486 JUMP JUMPDEST POP DUP9 MLOAD PUSH3 0x211 SWAP1 PUSH1 0xD SWAP1 PUSH1 0x20 DUP13 ADD SWAP1 PUSH3 0x486 JUMP JUMPDEST POP PUSH1 0xE DUP9 SWAP1 SSTORE PUSH1 0xA DUP9 SWAP1 EXP DUP8 MUL PUSH1 0x9 DUP2 SWAP1 SSTORE PUSH1 0x0 NOT DUP2 PUSH3 0x22E JUMPI INVALID JUMPDEST MOD NOT PUSH1 0xA DUP2 DUP2 SSTORE PUSH1 0xF DUP9 SWAP1 SSTORE PUSH1 0x11 DUP8 SWAP1 SSTORE PUSH1 0x10 DUP9 SWAP1 SSTORE PUSH1 0x12 DUP8 SWAP1 SSTORE PUSH1 0xE SLOAD SWAP1 EXP DUP6 DUP2 MUL PUSH1 0x14 SSTORE DUP5 MUL PUSH1 0x15 SSTORE PUSH1 0x1 PUSH1 0x1 PUSH1 0xA0 SHL SUB DUP1 DUP4 AND PUSH1 0x0 SWAP1 DUP2 MSTORE PUSH1 0x3 PUSH1 0x20 SWAP1 DUP2 MSTORE PUSH1 0x40 SWAP2 DUP3 SWAP1 KECCAK256 SWAP4 SWAP1 SWAP4 SSTORE DUP1 MLOAD PUSH4 0xC45A0155 PUSH1 0xE0 SHL DUP2 MSTORE SWAP1 MLOAD DUP6 SWAP4 SWAP3 DUP5 AND SWAP3 PUSH4 0xC45A0155 SWAP3 PUSH1 0x4 DUP1 DUP3 ADD SWAP4 SWAP2 DUP3 SWAP1 SUB ADD DUP2 DUP7 DUP1 EXTCODESIZE ISZERO DUP1 ISZERO PUSH3 0x2B0 JUMPI PUSH1 0x0 DUP1 REVERT JUMPDEST POP GAS STATICCALL ISZERO DUP1 ISZERO PUSH3 0x2C5 JUMPI RETURNDATASIZE PUSH1 0x0 DUP1 RETURNDATACOPY RETURNDATASIZE PUSH1 0x0 REVERT JUMPDEST POP POP POP POP PUSH1 0x40 MLOAD RETURNDATASIZE PUSH1 0x20 DUP2 LT ISZERO PUSH3 0x2DC JUMPI PUSH1 0x0 DUP1 REVERT JUMPDEST POP MLOAD PUSH1 0x40 DUP1 MLOAD PUSH4 0x15AB88C9 PUSH1 0xE3 SHL DUP2 MSTORE SWAP1 MLOAD PUSH1 0x1 PUSH1 0x1 PUSH1 0xA0 SHL SUB SWAP3 DUP4 AND SWAP3 PUSH4 0xC9C65396 SWAP3 ADDRESS SWAP3 SWAP2 DUP7 AND SWAP2 PUSH4 0xAD5C4648 SWAP2 PUSH1 0x4 DUP1 DUP3 ADD SWAP3 PUSH1 0x20 SWAP3 SWAP1 SWAP2 SWAP1 DUP3 SWAP1 SUB ADD DUP2 DUP7 DUP1 EXTCODESIZE ISZERO DUP1 ISZERO PUSH3 0x32D JUMPI PUSH1 0x0 DUP1 REVERT JUMPDEST POP GAS STATICCALL ISZERO DUP1 ISZERO PUSH3 0x342 JUMPI RETURNDATASIZE PUSH1 0x0 DUP1 RETURNDATACOPY RETURNDATASIZE PUSH1 0x0 REVERT JUMPDEST POP POP POP POP PUSH1 0x40 MLOAD RETURNDATASIZE PUSH1 0x20 DUP2 LT ISZERO PUSH3 0x359 JUMPI PUSH1 0x0 DUP1 REVERT JUMPDEST POP MLOAD PUSH1 0x40 DUP1 MLOAD PUSH1 0x1 PUSH1 0x1 PUSH1 0xE0 SHL SUB NOT PUSH1 0xE0 DUP7 SWAP1 SHL AND DUP2 MSTORE PUSH1 0x1 PUSH1 0x1 PUSH1 0xA0 SHL SUB SWAP4 DUP5 AND PUSH1 0x4 DUP3 ADD MSTORE SWAP3 SWAP1 SWAP2 AND PUSH1 0x24 DUP4 ADD MSTORE MLOAD PUSH1 0x44 DUP1 DUP4 ADD SWAP3 PUSH1 0x20 SWAP3 SWAP2 SWAP1 DUP3 SWAP1 SUB ADD DUP2 PUSH1 0x0 DUP8 DUP1 EXTCODESIZE ISZERO DUP1 ISZERO PUSH3 0x3AC JUMPI PUSH1 0x0 DUP1 REVERT JUMPDEST POP GAS CALL ISZERO DUP1 ISZERO PUSH3 0x3C1 JUMPI RETURNDATASIZE PUSH1 0x0 DUP1 RETURNDATACOPY RETURNDATASIZE PUSH1 0x0 REVERT JUMPDEST POP POP POP POP PUSH1 0x40 MLOAD RETURNDATASIZE PUSH1 0x20 DUP2 LT ISZERO PUSH3 0x3D8 JUMPI PUSH1 0x0 DUP1 REVERT JUMPDEST POP MLOAD PUSH1 0x1 PUSH1 0x1 PUSH1 0x60 SHL SUB NOT PUSH1 0x60 SWAP2 DUP3 SHL DUP2 AND PUSH1 0xA0 MSTORE SWAP1 DUP3 SWAP1 SHL AND PUSH1 0x80 MSTORE PUSH1 0x1 PUSH1 0x1 PUSH1 0xA0 SHL SUB DUP3 AND PUSH1 0x0 DUP2 DUP2 MSTORE PUSH1 0x6 PUSH1 0x20 SWAP1 DUP2 MSTORE PUSH1 0x40 DUP1 DUP4 KECCAK256 DUP1 SLOAD PUSH1 0xFF NOT SWAP1 DUP2 AND PUSH1 0x1 SWAP1 DUP2 OR SWAP1 SWAP3 SSTORE ADDRESS DUP6 MSTORE DUP3 DUP6 KECCAK256 DUP1 SLOAD SWAP1 SWAP2 AND SWAP1 SWAP2 OR SWAP1 SSTORE DUP3 SLOAD PUSH1 0x1 PUSH1 0x1 PUSH1 0xA0 SHL SUB NOT AND DUP5 OR DUP4 SSTORE PUSH1 0x9 SLOAD DUP2 MLOAD SWAP1 DUP2 MSTORE SWAP1 MLOAD PUSH32 0xDDF252AD1BE2C89B69C2B068FC378DAA952BA7F163C4A11628F55A4DF523B3EF SWAP3 SWAP2 DUP2 SWAP1 SUB SWAP1 SWAP2 ADD SWAP1 LOG3 POP POP POP POP POP POP POP POP POP POP POP PUSH3 0x522 JUMP JUMPDEST DUP3 DUP1 SLOAD PUSH1 0x1 DUP2 PUSH1 0x1 AND ISZERO PUSH2 0x100 MUL SUB AND PUSH1 0x2 SWAP1 DIV SWAP1 PUSH1 0x0 MSTORE PUSH1 0x20 PUSH1 0x0 KECCAK256 SWAP1 PUSH1 0x1F ADD PUSH1 0x20 SWAP1 DIV DUP2 ADD SWAP3 DUP3 PUSH1 0x1F LT PUSH3 0x4C9 JUMPI DUP1 MLOAD PUSH1 0xFF NOT AND DUP4 DUP1 ADD OR DUP6 SSTORE PUSH3 0x4F9 JUMP JUMPDEST DUP3 DUP1 ADD PUSH1 0x1 ADD DUP6 SSTORE DUP3 ISZERO PUSH3 0x4F9 JUMPI SWAP2 DUP3 ADD JUMPDEST DUP3 DUP2 GT ISZERO PUSH3 0x4F9 JUMPI DUP3 MLOAD DUP3 SSTORE SWAP2 PUSH1 0x20 ADD SWAP2 SWAP1 PUSH1 0x1 ADD SWAP1 PUSH3 0x4DC JUMP JUMPDEST POP PUSH3 0x507 SWAP3 SWAP2 POP PUSH3 0x50B JUMP JUMPDEST POP SWAP1 JUMP JUMPDEST JUMPDEST DUP1 DUP3 GT ISZERO PUSH3 0x507 JUMPI PUSH1 0x0 DUP2 SSTORE PUSH1 0x1 ADD PUSH3 0x50C JUMP JUMPDEST PUSH1 0x80 MLOAD PUSH1 0x60 SHR PUSH1 0xA0 MLOAD PUSH1 0x60 SHR PUSH2 0x2BAA PUSH3 0x56A PUSH1 0x0 CODECOPY DUP1 PUSH2 0xFCB MSTORE DUP1 PUSH2 0x1B20 MSTORE POP DUP1 PUSH2 0xA20 MSTORE DUP1 PUSH2 0x2283 MSTORE DUP1 PUSH2 0x233B MSTORE DUP1 PUSH2 0x2362 MSTORE DUP1 PUSH2 0x2448 MSTORE DUP1 PUSH2 0x246F MSTORE POP PUSH2 0x2BAA PUSH1 0x0 RETURN INVALID PUSH1 0x80 PUSH1 0x40 MSTORE PUSH1 0x4 CALLDATASIZE LT PUSH2 0x24A JUMPI PUSH1 0x0 CALLDATALOAD PUSH1 0xE0 SHR DUP1 PUSH4 0x6BC87C3A GT PUSH2 0x139 JUMPI DUP1 PUSH4 0xA9059CBB GT PUSH2 0xB6 JUMPI DUP1 PUSH4 0xD543DBEB GT PUSH2 0x7A JUMPI DUP1 PUSH4 0xD543DBEB EQ PUSH2 0x7E8 JUMPI DUP1 PUSH4 0xDD467064 EQ PUSH2 0x812 JUMPI DUP1 PUSH4 0xDD62ED3E EQ PUSH2 0x83C JUMPI DUP1 PUSH4 0xEA2F0B37 EQ PUSH2 0x877 JUMPI DUP1 PUSH4 0xF0F165AF EQ PUSH2 0x8AA JUMPI DUP1 PUSH4 0xF2FDE38B EQ PUSH2 0x8D4 JUMPI PUSH2 0x251 JUMP JUMPDEST DUP1 PUSH4 0xA9059CBB EQ PUSH2 0x744 JUMPI DUP1 PUSH4 0xB2BDFA7B EQ PUSH2 0x77D JUMPI DUP1 PUSH4 0xB6C52324 EQ PUSH2 0x792 JUMPI DUP1 PUSH4 0xC49B9A80 EQ PUSH2 0x7A7 JUMPI DUP1 PUSH4 0xD12A7688 EQ PUSH2 0x7D3 JUMPI PUSH2 0x251 JUMP JUMPDEST DUP1 PUSH4 0x8DA5CB5B GT PUSH2 0xFD JUMPI DUP1 PUSH4 0x8DA5CB5B EQ PUSH2 0x6A2 JUMPI DUP1 PUSH4 0x8EE88C53 EQ PUSH2 0x6B7 JUMPI DUP1 PUSH4 0x95D89B41 EQ PUSH2 0x6E1 JUMPI DUP1 PUSH4 0xA457C2D7 EQ PUSH2 0x6F6 JUMPI DUP1 PUSH4 0xA69DF4B5 EQ PUSH2 0x72F JUMPI PUSH2 0x251 JUMP JUMPDEST DUP1 PUSH4 0x6BC87C3A EQ PUSH2 0x5FD JUMPI DUP1 PUSH4 0x70A08231 EQ PUSH2 0x612 JUMPI DUP1 PUSH4 0x715018A6 EQ PUSH2 0x645 JUMPI DUP1 PUSH4 0x7D1DB4A5 EQ PUSH2 0x65A JUMPI DUP1 PUSH4 0x88F82020 EQ PUSH2 0x66F JUMPI PUSH2 0x251 JUMP JUMPDEST DUP1 PUSH4 0x39509351 GT PUSH2 0x1C7 JUMPI DUP1 PUSH4 0x48C54B9D GT PUSH2 0x18B JUMPI DUP1 PUSH4 0x48C54B9D EQ PUSH2 0x558 JUMPI DUP1 PUSH4 0x49BD5A5E EQ PUSH2 0x56D JUMPI DUP1 PUSH4 0x4A74BB02 EQ PUSH2 0x582 JUMPI DUP1 PUSH4 0x52390C02 EQ PUSH2 0x597 JUMPI DUP1 PUSH4 0x5342ACB4 EQ PUSH2 0x5CA JUMPI PUSH2 0x251 JUMP JUMPDEST DUP1 PUSH4 0x39509351 EQ PUSH2 0x47B JUMPI DUP1 PUSH4 0x3B124FE7 EQ PUSH2 0x4B4 JUMPI DUP1 PUSH4 0x3BD5D173 EQ PUSH2 0x4C9 JUMPI DUP1 PUSH4 0x437823EC EQ PUSH2 0x4F3 JUMPI DUP1 PUSH4 0x4549B039 EQ PUSH2 0x526 JUMPI PUSH2 0x251 JUMP JUMPDEST DUP1 PUSH4 0x18160DDD GT PUSH2 0x20E JUMPI DUP1 PUSH4 0x18160DDD EQ PUSH2 0x3B1 JUMPI DUP1 PUSH4 0x23B872DD EQ PUSH2 0x3C6 JUMPI DUP1 PUSH4 0x2D838119 EQ PUSH2 0x409 JUMPI DUP1 PUSH4 0x313CE567 EQ PUSH2 0x433 JUMPI DUP1 PUSH4 0x3685D419 EQ PUSH2 0x448 JUMPI PUSH2 0x251 JUMP JUMPDEST DUP1 PUSH4 0x61C82D0 EQ PUSH2 0x256 JUMPI DUP1 PUSH4 0x6FDDE03 EQ PUSH2 0x282 JUMPI DUP1 PUSH4 0x95EA7B3 EQ PUSH2 0x30C JUMPI DUP1 PUSH4 0x13114A9D EQ PUSH2 0x359 JUMPI DUP1 PUSH4 0x1694505E EQ PUSH2 0x380 JUMPI PUSH2 0x251 JUMP JUMPDEST CALLDATASIZE PUSH2 0x251 JUMPI STOP JUMPDEST PUSH1 0x0 DUP1 REVERT JUMPDEST CALLVALUE DUP1 ISZERO PUSH2 0x262 JUMPI PUSH1 0x0 DUP1 REVERT JUMPDEST POP PUSH2 0x280 PUSH1 0x4 DUP1 CALLDATASIZE SUB PUSH1 0x20 DUP2 LT ISZERO PUSH2 0x279 JUMPI PUSH1 0x0 DUP1 REVERT JUMPDEST POP CALLDATALOAD PUSH2 0x907 JUMP JUMPDEST STOP JUMPDEST CALLVALUE DUP1 ISZERO PUSH2 0x28E JUMPI PUSH1 0x0 DUP1 REVERT JUMPDEST POP PUSH2 0x297 PUSH2 0x964 JUMP JUMPDEST PUSH1 0x40 DUP1 MLOAD PUSH1 0x20 DUP1 DUP3 MSTORE DUP4 MLOAD DUP2 DUP4 ADD MSTORE DUP4 MLOAD SWAP2 SWAP3 DUP4 SWAP3 SWAP1 DUP4 ADD SWAP2 DUP6 ADD SWAP1 DUP1 DUP4 DUP4 PUSH1 0x0 JUMPDEST DUP4 DUP2 LT ISZERO PUSH2 0x2D1 JUMPI DUP2 DUP2 ADD MLOAD DUP4 DUP3 ADD MSTORE PUSH1 0x20 ADD PUSH2 0x2B9 JUMP JUMPDEST POP POP POP POP SWAP1 POP SWAP1 DUP2 ADD SWAP1 PUSH1 0x1F AND DUP1 ISZERO PUSH2 0x2FE JUMPI DUP1 DUP3 SUB DUP1 MLOAD PUSH1 0x1 DUP4 PUSH1 0x20 SUB PUSH2 0x100 EXP SUB NOT AND DUP2 MSTORE PUSH1 0x20 ADD SWAP2 POP JUMPDEST POP SWAP3 POP POP POP PUSH1 0x40 MLOAD DUP1 SWAP2 SUB SWAP1 RETURN JUMPDEST CALLVALUE DUP1 ISZERO PUSH2 0x318 JUMPI PUSH1 0x0 DUP1 REVERT JUMPDEST POP PUSH2 0x345 PUSH1 0x4 DUP1 CALLDATASIZE SUB PUSH1 0x40 DUP2 LT ISZERO PUSH2 0x32F JUMPI PUSH1 0x0 DUP1 REVERT JUMPDEST POP PUSH1 0x1 PUSH1 0x1 PUSH1 0xA0 SHL SUB DUP2 CALLDATALOAD AND SWAP1 PUSH1 0x20 ADD CALLDATALOAD PUSH2 0x9FA JUMP JUMPDEST PUSH1 0x40 DUP1 MLOAD SWAP2 ISZERO ISZERO DUP3 MSTORE MLOAD SWAP1 DUP2 SWAP1 SUB PUSH1 0x20 ADD SWAP1 RETURN JUMPDEST CALLVALUE DUP1 ISZERO PUSH2 0x365 JUMPI PUSH1 0x0 DUP1 REVERT JUMPDEST POP PUSH2 0x36E PUSH2 0xA18 JUMP JUMPDEST PUSH1 0x40 DUP1 MLOAD SWAP2 DUP3 MSTORE MLOAD SWAP1 DUP2 SWAP1 SUB PUSH1 0x20 ADD SWAP1 RETURN JUMPDEST CALLVALUE DUP1 ISZERO PUSH2 0x38C JUMPI PUSH1 0x0 DUP1 REVERT JUMPDEST POP PUSH2 0x395 PUSH2 0xA1E JUMP JUMPDEST PUSH1 0x40 DUP1 MLOAD PUSH1 0x1 PUSH1 0x1 PUSH1 0xA0 SHL SUB SWAP1 SWAP3 AND DUP3 MSTORE MLOAD SWAP1 DUP2 SWAP1 SUB PUSH1 0x20 ADD SWAP1 RETURN JUMPDEST CALLVALUE DUP1 ISZERO PUSH2 0x3BD JUMPI PUSH1 0x0 DUP1 REVERT JUMPDEST POP PUSH2 0x36E PUSH2 0xA42 JUMP JUMPDEST CALLVALUE DUP1 ISZERO PUSH2 0x3D2 JUMPI PUSH1 0x0 DUP1 REVERT JUMPDEST POP PUSH2 0x345 PUSH1 0x4 DUP1 CALLDATASIZE SUB PUSH1 0x60 DUP2 LT ISZERO PUSH2 0x3E9 JUMPI PUSH1 0x0 DUP1 REVERT JUMPDEST POP PUSH1 0x1 PUSH1 0x1 PUSH1 0xA0 SHL SUB DUP2 CALLDATALOAD DUP2 AND SWAP2 PUSH1 0x20 DUP2 ADD CALLDATALOAD SWAP1 SWAP2 AND SWAP1 PUSH1 0x40 ADD CALLDATALOAD PUSH2 0xA48 JUMP JUMPDEST CALLVALUE DUP1 ISZERO PUSH2 0x415 JUMPI PUSH1 0x0 DUP1 REVERT JUMPDEST POP PUSH2 0x36E PUSH1 0x4 DUP1 CALLDATASIZE SUB PUSH1 0x20 DUP2 LT ISZERO PUSH2 0x42C JUMPI PUSH1 0x0 DUP1 REVERT JUMPDEST POP CALLDATALOAD PUSH2 0xACF JUMP JUMPDEST CALLVALUE DUP1 ISZERO PUSH2 0x43F JUMPI PUSH1 0x0 DUP1 REVERT JUMPDEST POP PUSH2 0x36E PUSH2 0xB31 JUMP JUMPDEST CALLVALUE DUP1 ISZERO PUSH2 0x454 JUMPI PUSH1 0x0 DUP1 REVERT JUMPDEST POP PUSH2 0x280 PUSH1 0x4 DUP1 CALLDATASIZE SUB PUSH1 0x20 DUP2 LT ISZERO PUSH2 0x46B JUMPI PUSH1 0x0 DUP1 REVERT JUMPDEST POP CALLDATALOAD PUSH1 0x1 PUSH1 0x1 PUSH1 0xA0 SHL SUB AND PUSH2 0xB37 JUMP JUMPDEST CALLVALUE DUP1 ISZERO PUSH2 0x487 JUMPI PUSH1 0x0 DUP1 REVERT JUMPDEST POP PUSH2 0x345 PUSH1 0x4 DUP1 CALLDATASIZE SUB PUSH1 0x40 DUP2 LT ISZERO PUSH2 0x49E JUMPI PUSH1 0x0 DUP1 REVERT JUMPDEST POP PUSH1 0x1 PUSH1 0x1 PUSH1 0xA0 SHL SUB DUP2 CALLDATALOAD AND SWAP1 PUSH1 0x20 ADD CALLDATALOAD PUSH2 0xCF8 JUMP JUMPDEST CALLVALUE DUP1 ISZERO PUSH2 0x4C0 JUMPI PUSH1 0x0 DUP1 REVERT JUMPDEST POP PUSH2 0x36E PUSH2 0xD46 JUMP JUMPDEST CALLVALUE DUP1 ISZERO PUSH2 0x4D5 JUMPI PUSH1 0x0 DUP1 REVERT JUMPDEST POP PUSH2 0x280 PUSH1 0x4 DUP1 CALLDATASIZE SUB PUSH1 0x20 DUP2 LT ISZERO PUSH2 0x4EC JUMPI PUSH1 0x0 DUP1 REVERT JUMPDEST POP CALLDATALOAD PUSH2 0xD4C JUMP JUMPDEST CALLVALUE DUP1 ISZERO PUSH2 0x4FF JUMPI PUSH1 0x0 DUP1 REVERT JUMPDEST POP PUSH2 0x280 PUSH1 0x4 DUP1 CALLDATASIZE SUB PUSH1 0x20 DUP2 LT ISZERO PUSH2 0x516 JUMPI PUSH1 0x0 DUP1 REVERT JUMPDEST POP CALLDATALOAD PUSH1 0x1 PUSH1 0x1 PUSH1 0xA0 SHL SUB AND PUSH2 0xE26 JUMP JUMPDEST CALLVALUE DUP1 ISZERO PUSH2 0x532 JUMPI PUSH1 0x0 DUP1 REVERT JUMPDEST POP PUSH2 0x36E PUSH1 0x4 DUP1 CALLDATASIZE SUB PUSH1 0x40 DUP2 LT ISZERO PUSH2 0x549 JUMPI PUSH1 0x0 DUP1 REVERT JUMPDEST POP DUP1 CALLDATALOAD SWAP1 PUSH1 0x20 ADD CALLDATALOAD ISZERO ISZERO PUSH2 0xEA2 JUMP JUMPDEST CALLVALUE DUP1 ISZERO PUSH2 0x564 JUMPI PUSH1 0x0 DUP1 REVERT JUMPDEST POP PUSH2 0x280 PUSH2 0xF34 JUMP JUMPDEST CALLVALUE DUP1 ISZERO PUSH2 0x579 JUMPI PUSH1 0x0 DUP1 REVERT JUMPDEST POP PUSH2 0x395 PUSH2 0xFC9 JUMP JUMPDEST CALLVALUE DUP1 ISZERO PUSH2 0x58E JUMPI PUSH1 0x0 DUP1 REVERT JUMPDEST POP PUSH2 0x345 PUSH2 0xFED JUMP JUMPDEST CALLVALUE DUP1 ISZERO PUSH2 0x5A3 JUMPI PUSH1 0x0 DUP1 REVERT JUMPDEST POP PUSH2 0x280 PUSH1 0x4 DUP1 CALLDATASIZE SUB PUSH1 0x20 DUP2 LT ISZERO PUSH2 0x5BA JUMPI PUSH1 0x0 DUP1 REVERT JUMPDEST POP CALLDATALOAD PUSH1 0x1 PUSH1 0x1 PUSH1 0xA0 SHL SUB AND PUSH2 0xFFB JUMP JUMPDEST CALLVALUE DUP1 ISZERO PUSH2 0x5D6 JUMPI PUSH1 0x0 DUP1 REVERT JUMPDEST POP PUSH2 0x345 PUSH1 0x4 DUP1 CALLDATASIZE SUB PUSH1 0x20 DUP2 LT ISZERO PUSH2 0x5ED JUMPI PUSH1 0x0 DUP1 REVERT JUMPDEST POP CALLDATALOAD PUSH1 0x1 PUSH1 0x1 PUSH1 0xA0 SHL SUB AND PUSH2 0x1181 JUMP JUMPDEST CALLVALUE DUP1 ISZERO PUSH2 0x609 JUMPI PUSH1 0x0 DUP1 REVERT JUMPDEST POP PUSH2 0x36E PUSH2 0x119F JUMP JUMPDEST CALLVALUE DUP1 ISZERO PUSH2 0x61E JUMPI PUSH1 0x0 DUP1 REVERT JUMPDEST POP PUSH2 0x36E PUSH1 0x4 DUP1 CALLDATASIZE SUB PUSH1 0x20 DUP2 LT ISZERO PUSH2 0x635 JUMPI PUSH1 0x0 DUP1 REVERT JUMPDEST POP CALLDATALOAD PUSH1 0x1 PUSH1 0x1 PUSH1 0xA0 SHL SUB AND PUSH2 0x11A5 JUMP JUMPDEST CALLVALUE DUP1 ISZERO PUSH2 0x651 JUMPI PUSH1 0x0 DUP1 REVERT JUMPDEST POP PUSH2 0x280 PUSH2 0x1207 JUMP JUMPDEST CALLVALUE DUP1 ISZERO PUSH2 0x666 JUMPI PUSH1 0x0 DUP1 REVERT JUMPDEST POP PUSH2 0x36E PUSH2 0x1297 JUMP JUMPDEST CALLVALUE DUP1 ISZERO PUSH2 0x67B JUMPI PUSH1 0x0 DUP1 REVERT JUMPDEST POP PUSH2 0x345 PUSH1 0x4 DUP1 CALLDATASIZE SUB PUSH1 0x20 DUP2 LT ISZERO PUSH2 0x692 JUMPI PUSH1 0x0 DUP1 REVERT JUMPDEST POP CALLDATALOAD PUSH1 0x1 PUSH1 0x1 PUSH1 0xA0 SHL SUB AND PUSH2 0x129D JUMP JUMPDEST CALLVALUE DUP1 ISZERO PUSH2 0x6AE JUMPI PUSH1 0x0 DUP1 REVERT JUMPDEST POP PUSH2 0x395 PUSH2 0x12BB JUMP JUMPDEST CALLVALUE DUP1 ISZERO PUSH2 0x6C3 JUMPI PUSH1 0x0 DUP1 REVERT JUMPDEST POP PUSH2 0x280 PUSH1 0x4 DUP1 CALLDATASIZE SUB PUSH1 0x20 DUP2 LT ISZERO PUSH2 0x6DA JUMPI PUSH1 0x0 DUP1 REVERT JUMPDEST POP CALLDATALOAD PUSH2 0x12CA JUMP JUMPDEST CALLVALUE DUP1 ISZERO PUSH2 0x6ED JUMPI PUSH1 0x0 DUP1 REVERT JUMPDEST POP PUSH2 0x297 PUSH2 0x1327 JUMP JUMPDEST CALLVALUE DUP1 ISZERO PUSH2 0x702 JUMPI PUSH1 0x0 DUP1 REVERT JUMPDEST POP PUSH2 0x345 PUSH1 0x4 DUP1 CALLDATASIZE SUB PUSH1 0x40 DUP2 LT ISZERO PUSH2 0x719 JUMPI PUSH1 0x0 DUP1 REVERT JUMPDEST POP PUSH1 0x1 PUSH1 0x1 PUSH1 0xA0 SHL SUB DUP2 CALLDATALOAD AND SWAP1 PUSH1 0x20 ADD CALLDATALOAD PUSH2 0x1388 JUMP JUMPDEST CALLVALUE DUP1 ISZERO PUSH2 0x73B JUMPI PUSH1 0x0 DUP1 REVERT JUMPDEST POP PUSH2 0x280 PUSH2 0x13F0 JUMP JUMPDEST CALLVALUE DUP1 ISZERO PUSH2 0x750 JUMPI PUSH1 0x0 DUP1 REVERT JUMPDEST POP PUSH2 0x345 PUSH1 0x4 DUP1 CALLDATASIZE SUB PUSH1 0x40 DUP2 LT ISZERO PUSH2 0x767 JUMPI PUSH1 0x0 DUP1 REVERT JUMPDEST POP PUSH1 0x1 PUSH1 0x1 PUSH1 0xA0 SHL SUB DUP2 CALLDATALOAD AND SWAP1 PUSH1 0x20 ADD CALLDATALOAD PUSH2 0x14DE JUMP JUMPDEST CALLVALUE DUP1 ISZERO PUSH2 0x789 JUMPI PUSH1 0x0 DUP1 REVERT JUMPDEST POP PUSH2 0x395 PUSH2 0x14F2 JUMP JUMPDEST CALLVALUE DUP1 ISZERO PUSH2 0x79E JUMPI PUSH1 0x0 DUP1 REVERT JUMPDEST POP PUSH2 0x36E PUSH2 0x1501 JUMP JUMPDEST CALLVALUE DUP1 ISZERO PUSH2 0x7B3 JUMPI PUSH1 0x0 DUP1 REVERT JUMPDEST POP PUSH2 0x280 PUSH1 0x4 DUP1 CALLDATASIZE SUB PUSH1 0x20 DUP2 LT ISZERO PUSH2 0x7CA JUMPI PUSH1 0x0 DUP1 REVERT JUMPDEST POP CALLDATALOAD ISZERO ISZERO PUSH2 0x1507 JUMP JUMPDEST CALLVALUE DUP1 ISZERO PUSH2 0x7DF JUMPI PUSH1 0x0 DUP1 REVERT JUMPDEST POP PUSH2 0x36E PUSH2 0x15AE JUMP JUMPDEST CALLVALUE DUP1 ISZERO PUSH2 0x7F4 JUMPI PUSH1 0x0 DUP1 REVERT JUMPDEST POP PUSH2 0x280 PUSH1 0x4 DUP1 CALLDATASIZE SUB PUSH1 0x20 DUP2 LT ISZERO PUSH2 0x80B JUMPI PUSH1 0x0 DUP1 REVERT JUMPDEST POP CALLDATALOAD PUSH2 0x15B4 JUMP JUMPDEST CALLVALUE DUP1 ISZERO PUSH2 0x81E JUMPI PUSH1 0x0 DUP1 REVERT JUMPDEST POP PUSH2 0x280 PUSH1 0x4 DUP1 CALLDATASIZE SUB PUSH1 0x20 DUP2 LT ISZERO PUSH2 0x835 JUMPI PUSH1 0x0 DUP1 REVERT JUMPDEST POP CALLDATALOAD PUSH2 0x1618 JUMP JUMPDEST CALLVALUE DUP1 ISZERO PUSH2 0x848 JUMPI PUSH1 0x0 DUP1 REVERT JUMPDEST POP PUSH2 0x36E PUSH1 0x4 DUP1 CALLDATASIZE SUB PUSH1 0x40 DUP2 LT ISZERO PUSH2 0x85F JUMPI PUSH1 0x0 DUP1 REVERT JUMPDEST POP PUSH1 0x1 PUSH1 0x1 PUSH1 0xA0 SHL SUB DUP2 CALLDATALOAD DUP2 AND SWAP2 PUSH1 0x20 ADD CALLDATALOAD AND PUSH2 0x16B6 JUMP JUMPDEST CALLVALUE DUP1 ISZERO PUSH2 0x883 JUMPI PUSH1 0x0 DUP1 REVERT JUMPDEST POP PUSH2 0x280 PUSH1 0x4 DUP1 CALLDATASIZE SUB PUSH1 0x20 DUP2 LT ISZERO PUSH2 0x89A JUMPI PUSH1 0x0 DUP1 REVERT JUMPDEST POP CALLDATALOAD PUSH1 0x1 PUSH1 0x1 PUSH1 0xA0 SHL SUB AND PUSH2 0x16E1 JUMP JUMPDEST CALLVALUE DUP1 ISZERO PUSH2 0x8B6 JUMPI PUSH1 0x0 DUP1 REVERT JUMPDEST POP PUSH2 0x280 PUSH1 0x4 DUP1 CALLDATASIZE SUB PUSH1 0x20 DUP2 LT ISZERO PUSH2 0x8CD JUMPI PUSH1 0x0 DUP1 REVERT JUMPDEST POP CALLDATALOAD PUSH2 0x175A JUMP JUMPDEST CALLVALUE DUP1 ISZERO PUSH2 0x8E0 JUMPI PUSH1 0x0 DUP1 REVERT JUMPDEST POP PUSH2 0x280 PUSH1 0x4 DUP1 CALLDATASIZE SUB PUSH1 0x20 DUP2 LT ISZERO PUSH2 0x8F7 JUMPI PUSH1 0x0 DUP1 REVERT JUMPDEST POP CALLDATALOAD PUSH1 0x1 PUSH1 0x1 PUSH1 0xA0 SHL SUB AND PUSH2 0x17BE JUMP JUMPDEST PUSH2 0x90F PUSH2 0x18A4 JUMP JUMPDEST PUSH1 0x0 SLOAD PUSH1 0x1 PUSH1 0x1 PUSH1 0xA0 SHL SUB SWAP1 DUP2 AND SWAP2 AND EQ PUSH2 0x95F JUMPI PUSH1 0x40 DUP1 MLOAD PUSH3 0x461BCD PUSH1 0xE5 SHL DUP2 MSTORE PUSH1 0x20 PUSH1 0x4 DUP3 ADD DUP2 SWAP1 MSTORE PUSH1 0x24 DUP3 ADD MSTORE PUSH1 0x0 DUP1 MLOAD PUSH1 0x20 PUSH2 0x2A4F DUP4 CODECOPY DUP2 MLOAD SWAP2 MSTORE PUSH1 0x44 DUP3 ADD MSTORE SWAP1 MLOAD SWAP1 DUP2 SWAP1 SUB PUSH1 0x64 ADD SWAP1 REVERT JUMPDEST PUSH1 0xF SSTORE JUMP JUMPDEST PUSH1 0xC DUP1 SLOAD PUSH1 0x40 DUP1 MLOAD PUSH1 0x20 PUSH1 0x1F PUSH1 0x2 PUSH1 0x0 NOT PUSH2 0x100 PUSH1 0x1 DUP9 AND ISZERO MUL ADD SWAP1 SWAP6 AND SWAP5 SWAP1 SWAP5 DIV SWAP4 DUP5 ADD DUP2 SWAP1 DIV DUP2 MUL DUP3 ADD DUP2 ADD SWAP1 SWAP3 MSTORE DUP3 DUP2 MSTORE PUSH1 0x60 SWAP4 SWAP1 SWAP3 SWAP1 SWAP2 DUP4 ADD DUP3 DUP3 DUP1 ISZERO PUSH2 0x9F0 JUMPI DUP1 PUSH1 0x1F LT PUSH2 0x9C5 JUMPI PUSH2 0x100 DUP1 DUP4 SLOAD DIV MUL DUP4 MSTORE SWAP2 PUSH1 0x20 ADD SWAP2 PUSH2 0x9F0 JUMP JUMPDEST DUP3 ADD SWAP2 SWAP1 PUSH1 0x0 MSTORE PUSH1 0x20 PUSH1 0x0 KECCAK256 SWAP1 JUMPDEST DUP2 SLOAD DUP2 MSTORE SWAP1 PUSH1 0x1 ADD SWAP1 PUSH1 0x20 ADD DUP1 DUP4 GT PUSH2 0x9D3 JUMPI DUP3 SWAP1 SUB PUSH1 0x1F AND DUP3 ADD SWAP2 JUMPDEST POP POP POP POP POP SWAP1 POP SWAP1 JUMP JUMPDEST PUSH1 0x0 PUSH2 0xA0E PUSH2 0xA07 PUSH2 0x18A4 JUMP JUMPDEST DUP5 DUP5 PUSH2 0x18A8 JUMP JUMPDEST POP PUSH1 0x1 JUMPDEST SWAP3 SWAP2 POP POP JUMP JUMPDEST PUSH1 0xB SLOAD SWAP1 JUMP JUMPDEST PUSH32 0x0 DUP2 JUMP JUMPDEST PUSH1 0x9 SLOAD SWAP1 JUMP JUMPDEST PUSH1 0x0 PUSH2 0xA55 DUP5 DUP5 DUP5 PUSH2 0x1994 JUMP JUMPDEST PUSH2 0xAC5 DUP5 PUSH2 0xA61 PUSH2 0x18A4 JUMP JUMPDEST PUSH2 0xAC0 DUP6 PUSH1 0x40 MLOAD DUP1 PUSH1 0x60 ADD PUSH1 0x40 MSTORE DUP1 PUSH1 0x28 DUP2 MSTORE PUSH1 0x20 ADD PUSH2 0x2A27 PUSH1 0x28 SWAP2 CODECOPY PUSH1 0x1 PUSH1 0x1 PUSH1 0xA0 SHL SUB DUP11 AND PUSH1 0x0 SWAP1 DUP2 MSTORE PUSH1 0x5 PUSH1 0x20 MSTORE PUSH1 0x40 DUP2 KECCAK256 SWAP1 PUSH2 0xA9F PUSH2 0x18A4 JUMP JUMPDEST PUSH1 0x1 PUSH1 0x1 PUSH1 0xA0 SHL SUB AND DUP2 MSTORE PUSH1 0x20 DUP2 ADD SWAP2 SWAP1 SWAP2 MSTORE PUSH1 0x40 ADD PUSH1 0x0 KECCAK256 SLOAD SWAP2 SWAP1 PUSH2 0x1BDA JUMP JUMPDEST PUSH2 0x18A8 JUMP JUMPDEST POP PUSH1 0x1 SWAP4 SWAP3 POP POP POP JUMP JUMPDEST PUSH1 0x0 PUSH1 0xA SLOAD DUP3 GT ISZERO PUSH2 0xB12 JUMPI PUSH1 0x40 MLOAD PUSH3 0x461BCD PUSH1 0xE5 SHL DUP2 MSTORE PUSH1 0x4 ADD DUP1 DUP1 PUSH1 0x20 ADD DUP3 DUP2 SUB DUP3 MSTORE PUSH1 0x2A DUP2 MSTORE PUSH1 0x20 ADD DUP1 PUSH2 0x296C PUSH1 0x2A SWAP2 CODECOPY PUSH1 0x40 ADD SWAP2 POP POP PUSH1 0x40 MLOAD DUP1 SWAP2 SUB SWAP1 REVERT JUMPDEST PUSH1 0x0 PUSH2 0xB1C PUSH2 0x1C71 JUMP JUMPDEST SWAP1 POP PUSH2 0xB28 DUP4 DUP3 PUSH2 0x1C94 JUMP JUMPDEST SWAP2 POP POP JUMPDEST SWAP2 SWAP1 POP JUMP JUMPDEST PUSH1 0xE SLOAD SWAP1 JUMP JUMPDEST PUSH2 0xB3F PUSH2 0x18A4 JUMP JUMPDEST PUSH1 0x0 SLOAD PUSH1 0x1 PUSH1 0x1 PUSH1 0xA0 SHL SUB SWAP1 DUP2 AND SWAP2 AND EQ PUSH2 0xB8F JUMPI PUSH1 0x40 DUP1 MLOAD PUSH3 0x461BCD PUSH1 0xE5 SHL DUP2 MSTORE PUSH1 0x20 PUSH1 0x4 DUP3 ADD DUP2 SWAP1 MSTORE PUSH1 0x24 DUP3 ADD MSTORE PUSH1 0x0 DUP1 MLOAD PUSH1 0x20 PUSH2 0x2A4F DUP4 CODECOPY DUP2 MLOAD SWAP2 MSTORE PUSH1 0x44 DUP3 ADD MSTORE SWAP1 MLOAD SWAP1 DUP2 SWAP1 SUB PUSH1 0x64 ADD SWAP1 REVERT JUMPDEST PUSH1 0x1 PUSH1 0x1 PUSH1 0xA0 SHL SUB DUP2 AND PUSH1 0x0 SWAP1 DUP2 MSTORE PUSH1 0x7 PUSH1 0x20 MSTORE PUSH1 0x40 SWAP1 KECCAK256 SLOAD PUSH1 0xFF AND PUSH2 0xBFC JUMPI PUSH1 0x40 DUP1 MLOAD PUSH3 0x461BCD PUSH1 0xE5 SHL DUP2 MSTORE PUSH1 0x20 PUSH1 0x4 DUP3 ADD MSTORE PUSH1 0x1B PUSH1 0x24 DUP3 ADD MSTORE PUSH32 0x4163636F756E7420697320616C7265616479206578636C756465640000000000 PUSH1 0x44 DUP3 ADD MSTORE SWAP1 MLOAD SWAP1 DUP2 SWAP1 SUB PUSH1 0x64 ADD SWAP1 REVERT JUMPDEST PUSH1 0x0 JUMPDEST PUSH1 0x8 SLOAD DUP2 LT ISZERO PUSH2 0xCF4 JUMPI DUP2 PUSH1 0x1 PUSH1 0x1 PUSH1 0xA0 SHL SUB AND PUSH1 0x8 DUP3 DUP2 SLOAD DUP2 LT PUSH2 0xC20 JUMPI INVALID JUMPDEST PUSH1 0x0 SWAP2 DUP3 MSTORE PUSH1 0x20 SWAP1 SWAP2 KECCAK256 ADD SLOAD PUSH1 0x1 PUSH1 0x1 PUSH1 0xA0 SHL SUB AND EQ ISZERO PUSH2 0xCEC JUMPI PUSH1 0x8 DUP1 SLOAD PUSH1 0x0 NOT DUP2 ADD SWAP1 DUP2 LT PUSH2 0xC4D JUMPI INVALID JUMPDEST PUSH1 0x0 SWAP2 DUP3 MSTORE PUSH1 0x20 SWAP1 SWAP2 KECCAK256 ADD SLOAD PUSH1 0x8 DUP1 SLOAD PUSH1 0x1 PUSH1 0x1 PUSH1 0xA0 SHL SUB SWAP1 SWAP3 AND SWAP2 DUP4 SWAP1 DUP2 LT PUSH2 0xC73 JUMPI INVALID JUMPDEST PUSH1 0x0 SWAP2 DUP3 MSTORE PUSH1 0x20 DUP1 DUP4 KECCAK256 SWAP2 SWAP1 SWAP2 ADD DUP1 SLOAD PUSH1 0x1 PUSH1 0x1 PUSH1 0xA0 SHL SUB NOT AND PUSH1 0x1 PUSH1 0x1 PUSH1 0xA0 SHL SUB SWAP5 DUP6 AND OR SWAP1 SSTORE SWAP2 DUP5 AND DUP2 MSTORE PUSH1 0x4 DUP3 MSTORE PUSH1 0x40 DUP1 DUP3 KECCAK256 DUP3 SWAP1 SSTORE PUSH1 0x7 SWAP1 SWAP3 MSTORE KECCAK256 DUP1 SLOAD PUSH1 0xFF NOT AND SWAP1 SSTORE PUSH1 0x8 DUP1 SLOAD DUP1 PUSH2 0xCC5 JUMPI INVALID JUMPDEST PUSH1 0x0 DUP3 DUP2 MSTORE PUSH1 0x20 SWAP1 KECCAK256 DUP2 ADD PUSH1 0x0 NOT SWAP1 DUP2 ADD DUP1 SLOAD PUSH1 0x1 PUSH1 0x1 PUSH1 0xA0 SHL SUB NOT AND SWAP1 SSTORE ADD SWAP1 SSTORE PUSH2 0xCF4 JUMP JUMPDEST PUSH1 0x1 ADD PUSH2 0xBFF JUMP JUMPDEST POP POP JUMP JUMPDEST PUSH1 0x0 PUSH2 0xA0E PUSH2 0xD05 PUSH2 0x18A4 JUMP JUMPDEST DUP5 PUSH2 0xAC0 DUP6 PUSH1 0x5 PUSH1 0x0 PUSH2 0xD16 PUSH2 0x18A4 JUMP JUMPDEST PUSH1 0x1 PUSH1 0x1 PUSH1 0xA0 SHL SUB SWAP1 DUP2 AND DUP3 MSTORE PUSH1 0x20 DUP1 DUP4 ADD SWAP4 SWAP1 SWAP4 MSTORE PUSH1 0x40 SWAP2 DUP3 ADD PUSH1 0x0 SWAP1 DUP2 KECCAK256 SWAP2 DUP13 AND DUP2 MSTORE SWAP3 MSTORE SWAP1 KECCAK256 SLOAD SWAP1 PUSH2 0x1CDD JUMP JUMPDEST PUSH1 0xF SLOAD DUP2 JUMP JUMPDEST PUSH1 0x0 PUSH2 0xD56 PUSH2 0x18A4 JUMP JUMPDEST PUSH1 0x1 PUSH1 0x1 PUSH1 0xA0 SHL SUB DUP2 AND PUSH1 0x0 SWAP1 DUP2 MSTORE PUSH1 0x7 PUSH1 0x20 MSTORE PUSH1 0x40 SWAP1 KECCAK256 SLOAD SWAP1 SWAP2 POP PUSH1 0xFF AND ISZERO PUSH2 0xDB1 JUMPI PUSH1 0x40 MLOAD PUSH3 0x461BCD PUSH1 0xE5 SHL DUP2 MSTORE PUSH1 0x4 ADD DUP1 DUP1 PUSH1 0x20 ADD DUP3 DUP2 SUB DUP3 MSTORE PUSH1 0x2C DUP2 MSTORE PUSH1 0x20 ADD DUP1 PUSH2 0x2B01 PUSH1 0x2C SWAP2 CODECOPY PUSH1 0x40 ADD SWAP2 POP POP PUSH1 0x40 MLOAD DUP1 SWAP2 SUB SWAP1 REVERT JUMPDEST PUSH1 0x0 PUSH2 0xDBC DUP4 PUSH2 0x1D37 JUMP JUMPDEST POP POP POP POP PUSH1 0x1 PUSH1 0x1 PUSH1 0xA0 SHL SUB DUP5 AND PUSH1 0x0 SWAP1 DUP2 MSTORE PUSH1 0x3 PUSH1 0x20 MSTORE PUSH1 0x40 SWAP1 KECCAK256 SLOAD SWAP2 SWAP3 POP PUSH2 0xDE8 SWAP2 SWAP1 POP DUP3 PUSH2 0x1D86 JUMP JUMPDEST PUSH1 0x1 PUSH1 0x1 PUSH1 0xA0 SHL SUB DUP4 AND PUSH1 0x0 SWAP1 DUP2 MSTORE PUSH1 0x3 PUSH1 0x20 MSTORE PUSH1 0x40 SWAP1 KECCAK256 SSTORE PUSH1 0xA SLOAD PUSH2 0xE0E SWAP1 DUP3 PUSH2 0x1D86 JUMP JUMPDEST PUSH1 0xA SSTORE PUSH1 0xB SLOAD PUSH2 0xE1E SWAP1 DUP5 PUSH2 0x1CDD JUMP JUMPDEST PUSH1 0xB SSTORE POP POP POP JUMP JUMPDEST PUSH2 0xE2E PUSH2 0x18A4 JUMP JUMPDEST PUSH1 0x0 SLOAD PUSH1 0x1 PUSH1 0x1 PUSH1 0xA0 SHL SUB SWAP1 DUP2 AND SWAP2 AND EQ PUSH2 0xE7E JUMPI PUSH1 0x40 DUP1 MLOAD PUSH3 0x461BCD PUSH1 0xE5 SHL DUP2 MSTORE PUSH1 0x20 PUSH1 0x4 DUP3 ADD DUP2 SWAP1 MSTORE PUSH1 0x24 DUP3 ADD MSTORE PUSH1 0x0 DUP1 MLOAD PUSH1 0x20 PUSH2 0x2A4F DUP4 CODECOPY DUP2 MLOAD SWAP2 MSTORE PUSH1 0x44 DUP3 ADD MSTORE SWAP1 MLOAD SWAP1 DUP2 SWAP1 SUB PUSH1 0x64 ADD SWAP1 REVERT JUMPDEST PUSH1 0x1 PUSH1 0x1 PUSH1 0xA0 SHL SUB AND PUSH1 0x0 SWAP1 DUP2 MSTORE PUSH1 0x6 PUSH1 0x20 MSTORE PUSH1 0x40 SWAP1 KECCAK256 DUP1 SLOAD PUSH1 0xFF NOT AND PUSH1 0x1 OR SWAP1 SSTORE JUMP JUMPDEST PUSH1 0x0 PUSH1 0x9 SLOAD DUP4 GT ISZERO PUSH2 0xEFB JUMPI PUSH1 0x40 DUP1 MLOAD PUSH3 0x461BCD PUSH1 0xE5 SHL DUP2 MSTORE PUSH1 0x20 PUSH1 0x4 DUP3 ADD MSTORE PUSH1 0x1F PUSH1 0x24 DUP3 ADD MSTORE PUSH32 0x416D6F756E74206D757374206265206C657373207468616E20737570706C7900 PUSH1 0x44 DUP3 ADD MSTORE SWAP1 MLOAD SWAP1 DUP2 SWAP1 SUB PUSH1 0x64 ADD SWAP1 REVERT JUMPDEST DUP2 PUSH2 0xF1A JUMPI PUSH1 0x0 PUSH2 0xF0B DUP5 PUSH2 0x1D37 JUMP JUMPDEST POP SWAP4 SWAP6 POP PUSH2 0xA12 SWAP5 POP POP POP POP POP JUMP JUMPDEST PUSH1 0x0 PUSH2 0xF25 DUP5 PUSH2 0x1D37 JUMP JUMPDEST POP SWAP3 SWAP6 POP PUSH2 0xA12 SWAP5 POP POP POP POP POP JUMP JUMPDEST PUSH2 0xF3C PUSH2 0x18A4 JUMP JUMPDEST PUSH1 0x0 SLOAD PUSH1 0x1 PUSH1 0x1 PUSH1 0xA0 SHL SUB SWAP1 DUP2 AND SWAP2 AND EQ PUSH2 0xF8C JUMPI PUSH1 0x40 DUP1 MLOAD PUSH3 0x461BCD PUSH1 0xE5 SHL DUP2 MSTORE PUSH1 0x20 PUSH1 0x4 DUP3 ADD DUP2 SWAP1 MSTORE PUSH1 0x24 DUP3 ADD MSTORE PUSH1 0x0 DUP1 MLOAD PUSH1 0x20 PUSH2 0x2A4F DUP4 CODECOPY DUP2 MLOAD SWAP2 MSTORE PUSH1 0x44 DUP3 ADD MSTORE SWAP1 MLOAD SWAP1 DUP2 SWAP1 SUB PUSH1 0x64 ADD SWAP1 REVERT JUMPDEST PUSH1 0x0 DUP1 SLOAD PUSH1 0x40 MLOAD PUSH1 0x1 PUSH1 0x1 PUSH1 0xA0 SHL SUB SWAP1 SWAP2 AND SWAP2 SELFBALANCE DUP1 ISZERO PUSH2 0x8FC MUL SWAP3 SWAP1 SWAP2 DUP2 DUP2 DUP2 DUP6 DUP9 DUP9 CALL SWAP4 POP POP POP POP ISZERO DUP1 ISZERO PUSH2 0xFC6 JUMPI RETURNDATASIZE PUSH1 0x0 DUP1 RETURNDATACOPY RETURNDATASIZE PUSH1 0x0 REVERT JUMPDEST POP JUMP JUMPDEST PUSH32 0x0 DUP2 JUMP JUMPDEST PUSH1 0x13 SLOAD PUSH2 0x100 SWAP1 DIV PUSH1 0xFF AND DUP2 JUMP JUMPDEST PUSH2 0x1003 PUSH2 0x18A4 JUMP JUMPDEST PUSH1 0x0 SLOAD PUSH1 0x1 PUSH1 0x1 PUSH1 0xA0 SHL SUB SWAP1 DUP2 AND SWAP2 AND EQ PUSH2 0x1053 JUMPI PUSH1 0x40 DUP1 MLOAD PUSH3 0x461BCD PUSH1 0xE5 SHL DUP2 MSTORE PUSH1 0x20 PUSH1 0x4 DUP3 ADD DUP2 SWAP1 MSTORE PUSH1 0x24 DUP3 ADD MSTORE PUSH1 0x0 DUP1 MLOAD PUSH1 0x20 PUSH2 0x2A4F DUP4 CODECOPY DUP2 MLOAD SWAP2 MSTORE PUSH1 0x44 DUP3 ADD MSTORE SWAP1 MLOAD SWAP1 DUP2 SWAP1 SUB PUSH1 0x64 ADD SWAP1 REVERT JUMPDEST PUSH1 0x1 PUSH1 0x1 PUSH1 0xA0 SHL SUB DUP2 AND PUSH1 0x0 SWAP1 DUP2 MSTORE PUSH1 0x7 PUSH1 0x20 MSTORE PUSH1 0x40 SWAP1 KECCAK256 SLOAD PUSH1 0xFF AND ISZERO PUSH2 0x10C1 JUMPI PUSH1 0x40 DUP1 MLOAD PUSH3 0x461BCD PUSH1 0xE5 SHL DUP2 MSTORE PUSH1 0x20 PUSH1 0x4 DUP3 ADD MSTORE PUSH1 0x1B PUSH1 0x24 DUP3 ADD MSTORE PUSH32 0x4163636F756E7420697320616C7265616479206578636C756465640000000000 PUSH1 0x44 DUP3 ADD MSTORE SWAP1 MLOAD SWAP1 DUP2 SWAP1 SUB PUSH1 0x64 ADD SWAP1 REVERT JUMPDEST PUSH1 0x1 PUSH1 0x1 PUSH1 0xA0 SHL SUB DUP2 AND PUSH1 0x0 SWAP1 DUP2 MSTORE PUSH1 0x3 PUSH1 0x20 MSTORE PUSH1 0x40 SWAP1 KECCAK256 SLOAD ISZERO PUSH2 0x111B JUMPI PUSH1 0x1 PUSH1 0x1 PUSH1 0xA0 SHL SUB DUP2 AND PUSH1 0x0 SWAP1 DUP2 MSTORE PUSH1 0x3 PUSH1 0x20 MSTORE PUSH1 0x40 SWAP1 KECCAK256 SLOAD PUSH2 0x1101 SWAP1 PUSH2 0xACF JUMP JUMPDEST PUSH1 0x1 PUSH1 0x1 PUSH1 0xA0 SHL SUB DUP3 AND PUSH1 0x0 SWAP1 DUP2 MSTORE PUSH1 0x4 PUSH1 0x20 MSTORE PUSH1 0x40 SWAP1 KECCAK256 SSTORE JUMPDEST PUSH1 0x1 PUSH1 0x1 PUSH1 0xA0 SHL SUB AND PUSH1 0x0 DUP2 DUP2 MSTORE PUSH1 0x7 PUSH1 0x20 MSTORE PUSH1 0x40 DUP2 KECCAK256 DUP1 SLOAD PUSH1 0xFF NOT AND PUSH1 0x1 SWAP1 DUP2 OR SWAP1 SWAP2 SSTORE PUSH1 0x8 DUP1 SLOAD SWAP2 DUP3 ADD DUP2 SSTORE SWAP1 SWAP2 MSTORE PUSH32 0xF3F7A9FE364FAAB93B216DA50A3214154F22A0A2B415B23A84C8169E8B636EE3 ADD DUP1 SLOAD PUSH1 0x1 PUSH1 0x1 PUSH1 0xA0 SHL SUB NOT AND SWAP1 SWAP2 OR SWAP1 SSTORE JUMP JUMPDEST PUSH1 0x1 PUSH1 0x1 PUSH1 0xA0 SHL SUB AND PUSH1 0x0 SWAP1 DUP2 MSTORE PUSH1 0x6 PUSH1 0x20 MSTORE PUSH1 0x40 SWAP1 KECCAK256 SLOAD PUSH1 0xFF AND SWAP1 JUMP JUMPDEST PUSH1 0x11 SLOAD DUP2 JUMP JUMPDEST PUSH1 0x1 PUSH1 0x1 PUSH1 0xA0 SHL SUB DUP2 AND PUSH1 0x0 SWAP1 DUP2 MSTORE PUSH1 0x7 PUSH1 0x20 MSTORE PUSH1 0x40 DUP2 KECCAK256 SLOAD PUSH1 0xFF AND ISZERO PUSH2 0x11E5 JUMPI POP PUSH1 0x1 PUSH1 0x1 PUSH1 0xA0 SHL SUB DUP2 AND PUSH1 0x0 SWAP1 DUP2 MSTORE PUSH1 0x4 PUSH1 0x20 MSTORE PUSH1 0x40 SWAP1 KECCAK256 SLOAD PUSH2 0xB2C JUMP JUMPDEST PUSH1 0x1 PUSH1 0x1 PUSH1 0xA0 SHL SUB DUP3 AND PUSH1 0x0 SWAP1 DUP2 MSTORE PUSH1 0x3 PUSH1 0x20 MSTORE PUSH1 0x40 SWAP1 KECCAK256 SLOAD PUSH2 0xA12 SWAP1 PUSH2 0xACF JUMP JUMPDEST PUSH2 0x120F PUSH2 0x18A4 JUMP JUMPDEST PUSH1 0x0 SLOAD PUSH1 0x1 PUSH1 0x1 PUSH1 0xA0 SHL SUB SWAP1 DUP2 AND SWAP2 AND EQ PUSH2 0x125F JUMPI PUSH1 0x40 DUP1 MLOAD PUSH3 0x461BCD PUSH1 0xE5 SHL DUP2 MSTORE PUSH1 0x20 PUSH1 0x4 DUP3 ADD DUP2 SWAP1 MSTORE PUSH1 0x24 DUP3 ADD MSTORE PUSH1 0x0 DUP1 MLOAD PUSH1 0x20 PUSH2 0x2A4F DUP4 CODECOPY DUP2 MLOAD SWAP2 MSTORE PUSH1 0x44 DUP3 ADD MSTORE SWAP1 MLOAD SWAP1 DUP2 SWAP1 SUB PUSH1 0x64 ADD SWAP1 REVERT JUMPDEST PUSH1 0x0 DUP1 SLOAD PUSH1 0x40 MLOAD PUSH1 0x1 PUSH1 0x1 PUSH1 0xA0 SHL SUB SWAP1 SWAP2 AND SWAP1 PUSH1 0x0 DUP1 MLOAD PUSH1 0x20 PUSH2 0x2A6F DUP4 CODECOPY DUP2 MLOAD SWAP2 MSTORE SWAP1 DUP4 SWAP1 LOG3 PUSH1 0x0 DUP1 SLOAD PUSH1 0x1 PUSH1 0x1 PUSH1 0xA0 SHL SUB NOT AND SWAP1 SSTORE JUMP JUMPDEST PUSH1 0x14 SLOAD DUP2 JUMP JUMPDEST PUSH1 0x1 PUSH1 0x1 PUSH1 0xA0 SHL SUB AND PUSH1 0x0 SWAP1 DUP2 MSTORE PUSH1 0x7 PUSH1 0x20 MSTORE PUSH1 0x40 SWAP1 KECCAK256 SLOAD PUSH1 0xFF AND SWAP1 JUMP JUMPDEST PUSH1 0x0 SLOAD PUSH1 0x1 PUSH1 0x1 PUSH1 0xA0 SHL SUB AND SWAP1 JUMP JUMPDEST PUSH2 0x12D2 PUSH2 0x18A4 JUMP JUMPDEST PUSH1 0x0 SLOAD PUSH1 0x1 PUSH1 0x1 PUSH1 0xA0 SHL SUB SWAP1 DUP2 AND SWAP2 AND EQ PUSH2 0x1322 JUMPI PUSH1 0x40 DUP1 MLOAD PUSH3 0x461BCD PUSH1 0xE5 SHL DUP2 MSTORE PUSH1 0x20 PUSH1 0x4 DUP3 ADD DUP2 SWAP1 MSTORE PUSH1 0x24 DUP3 ADD MSTORE PUSH1 0x0 DUP1 MLOAD PUSH1 0x20 PUSH2 0x2A4F DUP4 CODECOPY DUP2 MLOAD SWAP2 MSTORE PUSH1 0x44 DUP3 ADD MSTORE SWAP1 MLOAD SWAP1 DUP2 SWAP1 SUB PUSH1 0x64 ADD SWAP1 REVERT JUMPDEST PUSH1 0x11 SSTORE JUMP JUMPDEST PUSH1 0xD DUP1 SLOAD PUSH1 0x40 DUP1 MLOAD PUSH1 0x20 PUSH1 0x1F PUSH1 0x2 PUSH1 0x0 NOT PUSH2 0x100 PUSH1 0x1 DUP9 AND ISZERO MUL ADD SWAP1 SWAP6 AND SWAP5 SWAP1 SWAP5 DIV SWAP4 DUP5 ADD DUP2 SWAP1 DIV DUP2 MUL DUP3 ADD DUP2 ADD SWAP1 SWAP3 MSTORE DUP3 DUP2 MSTORE PUSH1 0x60 SWAP4 SWAP1 SWAP3 SWAP1 SWAP2 DUP4 ADD DUP3 DUP3 DUP1 ISZERO PUSH2 0x9F0 JUMPI DUP1 PUSH1 0x1F LT PUSH2 0x9C5 JUMPI PUSH2 0x100 DUP1 DUP4 SLOAD DIV MUL DUP4 MSTORE SWAP2 PUSH1 0x20 ADD SWAP2 PUSH2 0x9F0 JUMP JUMPDEST PUSH1 0x0 PUSH2 0xA0E PUSH2 0x1395 PUSH2 0x18A4 JUMP JUMPDEST DUP5 PUSH2 0xAC0 DUP6 PUSH1 0x40 MLOAD DUP1 PUSH1 0x60 ADD PUSH1 0x40 MSTORE DUP1 PUSH1 0x25 DUP2 MSTORE PUSH1 0x20 ADD PUSH2 0x2B50 PUSH1 0x25 SWAP2 CODECOPY PUSH1 0x5 PUSH1 0x0 PUSH2 0x13BF PUSH2 0x18A4 JUMP JUMPDEST PUSH1 0x1 PUSH1 0x1 PUSH1 0xA0 SHL SUB SWAP1 DUP2 AND DUP3 MSTORE PUSH1 0x20 DUP1 DUP4 ADD SWAP4 SWAP1 SWAP4 MSTORE PUSH1 0x40 SWAP2 DUP3 ADD PUSH1 0x0 SWAP1 DUP2 KECCAK256 SWAP2 DUP14 AND DUP2 MSTORE SWAP3 MSTORE SWAP1 KECCAK256 SLOAD SWAP2 SWAP1 PUSH2 0x1BDA JUMP JUMPDEST PUSH1 0x1 SLOAD PUSH1 0x1 PUSH1 0x1 PUSH1 0xA0 SHL SUB AND CALLER EQ PUSH2 0x1439 JUMPI PUSH1 0x40 MLOAD PUSH3 0x461BCD PUSH1 0xE5 SHL DUP2 MSTORE PUSH1 0x4 ADD DUP1 DUP1 PUSH1 0x20 ADD DUP3 DUP2 SUB DUP3 MSTORE PUSH1 0x23 DUP2 MSTORE PUSH1 0x20 ADD DUP1 PUSH2 0x2B2D PUSH1 0x23 SWAP2 CODECOPY PUSH1 0x40 ADD SWAP2 POP POP PUSH1 0x40 MLOAD DUP1 SWAP2 SUB SWAP1 REVERT JUMPDEST PUSH1 0x2 SLOAD TIMESTAMP GT PUSH2 0x148F JUMPI PUSH1 0x40 DUP1 MLOAD PUSH3 0x461BCD PUSH1 0xE5 SHL DUP2 MSTORE PUSH1 0x20 PUSH1 0x4 DUP3 ADD MSTORE PUSH1 0x1F PUSH1 0x24 DUP3 ADD MSTORE PUSH32 0x436F6E7472616374206973206C6F636B656420756E74696C2037206461797300 PUSH1 0x44 DUP3 ADD MSTORE SWAP1 MLOAD SWAP1 DUP2 SWAP1 SUB PUSH1 0x64 ADD SWAP1 REVERT JUMPDEST PUSH1 0x1 SLOAD PUSH1 0x0 DUP1 SLOAD PUSH1 0x40 MLOAD PUSH1 0x1 PUSH1 0x1 PUSH1 0xA0 SHL SUB SWAP4 DUP5 AND SWAP4 SWAP1 SWAP2 AND SWAP2 PUSH1 0x0 DUP1 MLOAD PUSH1 0x20 PUSH2 0x2A6F DUP4 CODECOPY DUP2 MLOAD SWAP2 MSTORE SWAP2 LOG3 PUSH1 0x1 SLOAD PUSH1 0x0 DUP1 SLOAD PUSH1 0x1 PUSH1 0x1 PUSH1 0xA0 SHL SUB NOT AND PUSH1 0x1 PUSH1 0x1 PUSH1 0xA0 SHL SUB SWAP1 SWAP3 AND SWAP2 SWAP1 SWAP2 OR SWAP1 SSTORE JUMP JUMPDEST PUSH1 0x0 PUSH2 0xA0E PUSH2 0x14EB PUSH2 0x18A4 JUMP JUMPDEST DUP5 DUP5 PUSH2 0x1994 JUMP JUMPDEST PUSH1 0x0 SLOAD PUSH1 0x1 PUSH1 0x1 PUSH1 0xA0 SHL SUB AND DUP2 JUMP JUMPDEST PUSH1 0x2 SLOAD SWAP1 JUMP JUMPDEST PUSH2 0x150F PUSH2 0x18A4 JUMP JUMPDEST PUSH1 0x0 SLOAD PUSH1 0x1 PUSH1 0x1 PUSH1 0xA0 SHL SUB SWAP1 DUP2 AND SWAP2 AND EQ PUSH2 0x155F JUMPI PUSH1 0x40 DUP1 MLOAD PUSH3 0x461BCD PUSH1 0xE5 SHL DUP2 MSTORE PUSH1 0x20 PUSH1 0x4 DUP3 ADD DUP2 SWAP1 MSTORE PUSH1 0x24 DUP3 ADD MSTORE PUSH1 0x0 DUP1 MLOAD PUSH1 0x20 PUSH2 0x2A4F DUP4 CODECOPY DUP2 MLOAD SWAP2 MSTORE PUSH1 0x44 DUP3 ADD MSTORE SWAP1 MLOAD SWAP1 DUP2 SWAP1 SUB PUSH1 0x64 ADD SWAP1 REVERT JUMPDEST PUSH1 0x13 DUP1 SLOAD DUP3 ISZERO ISZERO PUSH2 0x100 DUP2 MUL PUSH2 0xFF00 NOT SWAP1 SWAP3 AND SWAP2 SWAP1 SWAP2 OR SWAP1 SWAP2 SSTORE PUSH1 0x40 DUP1 MLOAD SWAP2 DUP3 MSTORE MLOAD PUSH32 0x53726DFCAF90650AA7EB35524F4D3220F07413C8D6CB404CC8C18BF5591BC159 SWAP2 DUP2 SWAP1 SUB PUSH1 0x20 ADD SWAP1 LOG1 POP JUMP JUMPDEST PUSH1 0x15 SLOAD DUP2 JUMP JUMPDEST PUSH2 0x15BC PUSH2 0x18A4 JUMP JUMPDEST PUSH1 0x0 SLOAD PUSH1 0x1 PUSH1 0x1 PUSH1 0xA0 SHL SUB SWAP1 DUP2 AND SWAP2 AND EQ PUSH2 0x160C JUMPI PUSH1 0x40 DUP1 MLOAD PUSH3 0x461BCD PUSH1 0xE5 SHL DUP2 MSTORE PUSH1 0x20 PUSH1 0x4 DUP3 ADD DUP2 SWAP1 MSTORE PUSH1 0x24 DUP3 ADD MSTORE PUSH1 0x0 DUP1 MLOAD PUSH1 0x20 PUSH2 0x2A4F DUP4 CODECOPY DUP2 MLOAD SWAP2 MSTORE PUSH1 0x44 DUP3 ADD MSTORE SWAP1 MLOAD SWAP1 DUP2 SWAP1 SUB PUSH1 0x64 ADD SWAP1 REVERT JUMPDEST PUSH1 0xE SLOAD PUSH1 0xA EXP MUL PUSH1 0x14 SSTORE JUMP JUMPDEST PUSH2 0x1620 PUSH2 0x18A4 JUMP JUMPDEST PUSH1 0x0 SLOAD PUSH1 0x1 PUSH1 0x1 PUSH1 0xA0 SHL SUB SWAP1 DUP2 AND SWAP2 AND EQ PUSH2 0x1670 JUMPI PUSH1 0x40 DUP1 MLOAD PUSH3 0x461BCD PUSH1 0xE5 SHL DUP2 MSTORE PUSH1 0x20 PUSH1 0x4 DUP3 ADD DUP2 SWAP1 MSTORE PUSH1 0x24 DUP3 ADD MSTORE PUSH1 0x0 DUP1 MLOAD PUSH1 0x20 PUSH2 0x2A4F DUP4 CODECOPY DUP2 MLOAD SWAP2 MSTORE PUSH1 0x44 DUP3 ADD MSTORE SWAP1 MLOAD SWAP1 DUP2 SWAP1 SUB PUSH1 0x64 ADD SWAP1 REVERT JUMPDEST PUSH1 0x0 DUP1 SLOAD PUSH1 0x1 DUP1 SLOAD PUSH1 0x1 PUSH1 0x1 PUSH1 0xA0 SHL SUB NOT SWAP1 DUP2 AND PUSH1 0x1 PUSH1 0x1 PUSH1 0xA0 SHL SUB DUP5 AND OR SWAP1 SWAP2 SSTORE AND DUP2 SSTORE TIMESTAMP DUP3 ADD PUSH1 0x2 SSTORE PUSH1 0x40 MLOAD DUP2 SWAP1 PUSH1 0x0 DUP1 MLOAD PUSH1 0x20 PUSH2 0x2A6F DUP4 CODECOPY DUP2 MLOAD SWAP2 MSTORE SWAP1 DUP3 SWAP1 LOG3 POP JUMP JUMPDEST PUSH1 0x1 PUSH1 0x1 PUSH1 0xA0 SHL SUB SWAP2 DUP3 AND PUSH1 0x0 SWAP1 DUP2 MSTORE PUSH1 0x5 PUSH1 0x20 SWAP1 DUP2 MSTORE PUSH1 0x40 DUP1 DUP4 KECCAK256 SWAP4 SWAP1 SWAP5 AND DUP3 MSTORE SWAP2 SWAP1 SWAP2 MSTORE KECCAK256 SLOAD SWAP1 JUMP JUMPDEST PUSH2 0x16E9 PUSH2 0x18A4 JUMP JUMPDEST PUSH1 0x0 SLOAD PUSH1 0x1 PUSH1 0x1 PUSH1 0xA0 SHL SUB SWAP1 DUP2 AND SWAP2 AND EQ PUSH2 0x1739 JUMPI PUSH1 0x40 DUP1 MLOAD PUSH3 0x461BCD PUSH1 0xE5 SHL DUP2 MSTORE PUSH1 0x20 PUSH1 0x4 DUP3 ADD DUP2 SWAP1 MSTORE PUSH1 0x24 DUP3 ADD MSTORE PUSH1 0x0 DUP1 MLOAD PUSH1 0x20 PUSH2 0x2A4F DUP4 CODECOPY DUP2 MLOAD SWAP2 MSTORE PUSH1 0x44 DUP3 ADD MSTORE SWAP1 MLOAD SWAP1 DUP2 SWAP1 SUB PUSH1 0x64 ADD SWAP1 REVERT JUMPDEST PUSH1 0x1 PUSH1 0x1 PUSH1 0xA0 SHL SUB AND PUSH1 0x0 SWAP1 DUP2 MSTORE PUSH1 0x6 PUSH1 0x20 MSTORE PUSH1 0x40 SWAP1 KECCAK256 DUP1 SLOAD PUSH1 0xFF NOT AND SWAP1 SSTORE JUMP JUMPDEST PUSH2 0x1762 PUSH2 0x18A4 JUMP JUMPDEST PUSH1 0x0 SLOAD PUSH1 0x1 PUSH1 0x1 PUSH1 0xA0 SHL SUB SWAP1 DUP2 AND SWAP2 AND EQ PUSH2 0x17B2 JUMPI PUSH1 0x40 DUP1 MLOAD PUSH3 0x461BCD PUSH1 0xE5 SHL DUP2 MSTORE PUSH1 0x20 PUSH1 0x4 DUP3 ADD DUP2 SWAP1 MSTORE PUSH1 0x24 DUP3 ADD MSTORE PUSH1 0x0 DUP1 MLOAD PUSH1 0x20 PUSH2 0x2A4F DUP4 CODECOPY DUP2 MLOAD SWAP2 MSTORE PUSH1 0x44 DUP3 ADD MSTORE SWAP1 MLOAD SWAP1 DUP2 SWAP1 SUB PUSH1 0x64 ADD SWAP1 REVERT JUMPDEST PUSH1 0xE SLOAD PUSH1 0xA EXP MUL PUSH1 0x15 SSTORE JUMP JUMPDEST PUSH2 0x17C6 PUSH2 0x18A4 JUMP JUMPDEST PUSH1 0x0 SLOAD PUSH1 0x1 PUSH1 0x1 PUSH1 0xA0 SHL SUB SWAP1 DUP2 AND SWAP2 AND EQ PUSH2 0x1816 JUMPI PUSH1 0x40 DUP1 MLOAD PUSH3 0x461BCD PUSH1 0xE5 SHL DUP2 MSTORE PUSH1 0x20 PUSH1 0x4 DUP3 ADD DUP2 SWAP1 MSTORE PUSH1 0x24 DUP3 ADD MSTORE PUSH1 0x0 DUP1 MLOAD PUSH1 0x20 PUSH2 0x2A4F DUP4 CODECOPY DUP2 MLOAD SWAP2 MSTORE PUSH1 0x44 DUP3 ADD MSTORE SWAP1 MLOAD SWAP1 DUP2 SWAP1 SUB PUSH1 0x64 ADD SWAP1 REVERT JUMPDEST PUSH1 0x1 PUSH1 0x1 PUSH1 0xA0 SHL SUB DUP2 AND PUSH2 0x185B JUMPI PUSH1 0x40 MLOAD PUSH3 0x461BCD PUSH1 0xE5 SHL DUP2 MSTORE PUSH1 0x4 ADD DUP1 DUP1 PUSH1 0x20 ADD DUP3 DUP2 SUB DUP3 MSTORE PUSH1 0x26 DUP2 MSTORE PUSH1 0x20 ADD DUP1 PUSH2 0x2996 PUSH1 0x26 SWAP2 CODECOPY PUSH1 0x40 ADD SWAP2 POP POP PUSH1 0x40 MLOAD DUP1 SWAP2 SUB SWAP1 REVERT JUMPDEST PUSH1 0x0 DUP1 SLOAD PUSH1 0x40 MLOAD PUSH1 0x1 PUSH1 0x1 PUSH1 0xA0 SHL SUB DUP1 DUP6 AND SWAP4 SWAP3 AND SWAP2 PUSH1 0x0 DUP1 MLOAD PUSH1 0x20 PUSH2 0x2A6F DUP4 CODECOPY DUP2 MLOAD SWAP2 MSTORE SWAP2 LOG3 PUSH1 0x0 DUP1 SLOAD PUSH1 0x1 PUSH1 0x1 PUSH1 0xA0 SHL SUB NOT AND PUSH1 0x1 PUSH1 0x1 PUSH1 0xA0 SHL SUB SWAP3 SWAP1 SWAP3 AND SWAP2 SWAP1 SWAP2 OR SWAP1 SSTORE JUMP JUMPDEST CALLER SWAP1 JUMP JUMPDEST PUSH1 0x1 PUSH1 0x1 PUSH1 0xA0 SHL SUB DUP4 AND PUSH2 0x18ED JUMPI PUSH1 0x40 MLOAD PUSH3 0x461BCD PUSH1 0xE5 SHL DUP2 MSTORE PUSH1 0x4 ADD DUP1 DUP1 PUSH1 0x20 ADD DUP3 DUP2 SUB DUP3 MSTORE PUSH1 0x24 DUP2 MSTORE PUSH1 0x20 ADD DUP1 PUSH2 0x2ADD PUSH1 0x24 SWAP2 CODECOPY PUSH1 0x40 ADD SWAP2 POP POP PUSH1 0x40 MLOAD DUP1 SWAP2 SUB SWAP1 REVERT JUMPDEST PUSH1 0x1 PUSH1 0x1 PUSH1 0xA0 SHL SUB DUP3 AND PUSH2 0x1932 JUMPI PUSH1 0x40 MLOAD PUSH3 0x461BCD PUSH1 0xE5 SHL DUP2 MSTORE PUSH1 0x4 ADD DUP1 DUP1 PUSH1 0x20 ADD DUP3 DUP2 SUB DUP3 MSTORE PUSH1 0x22 DUP2 MSTORE PUSH1 0x20 ADD DUP1 PUSH2 0x29BC PUSH1 0x22 SWAP2 CODECOPY PUSH1 0x40 ADD SWAP2 POP POP PUSH1 0x40 MLOAD DUP1 SWAP2 SUB SWAP1 REVERT JUMPDEST PUSH1 0x1 PUSH1 0x1 PUSH1 0xA0 SHL SUB DUP1 DUP5 AND PUSH1 0x0 DUP2 DUP2 MSTORE PUSH1 0x5 PUSH1 0x20 SWAP1 DUP2 MSTORE PUSH1 0x40 DUP1 DUP4 KECCAK256 SWAP5 DUP8 AND DUP1 DUP5 MSTORE SWAP5 DUP3 MSTORE SWAP2 DUP3 SWAP1 KECCAK256 DUP6 SWAP1 SSTORE DUP2 MLOAD DUP6 DUP2 MSTORE SWAP2 MLOAD PUSH32 0x8C5BE1E5EBEC7D5BD14F71427D1E84F3DD0314C0F7B2291E5B200AC8C7C3B925 SWAP3 DUP2 SWAP1 SUB SWAP1 SWAP2 ADD SWAP1 LOG3 POP POP POP JUMP JUMPDEST PUSH1 0x1 PUSH1 0x1 PUSH1 0xA0 SHL SUB DUP4 AND PUSH2 0x19D9 JUMPI PUSH1 0x40 MLOAD PUSH3 0x461BCD PUSH1 0xE5 SHL DUP2 MSTORE PUSH1 0x4 ADD DUP1 DUP1 PUSH1 0x20 ADD DUP3 DUP2 SUB DUP3 MSTORE PUSH1 0x25 DUP2 MSTORE PUSH1 0x20 ADD DUP1 PUSH2 0x2AB8 PUSH1 0x25 SWAP2 CODECOPY PUSH1 0x40 ADD SWAP2 POP POP PUSH1 0x40 MLOAD DUP1 SWAP2 SUB SWAP1 REVERT JUMPDEST PUSH1 0x1 PUSH1 0x1 PUSH1 0xA0 SHL SUB DUP3 AND PUSH2 0x1A1E JUMPI PUSH1 0x40 MLOAD PUSH3 0x461BCD PUSH1 0xE5 SHL DUP2 MSTORE PUSH1 0x4 ADD DUP1 DUP1 PUSH1 0x20 ADD DUP3 DUP2 SUB DUP3 MSTORE PUSH1 0x23 DUP2 MSTORE PUSH1 0x20 ADD DUP1 PUSH2 0x2949 PUSH1 0x23 SWAP2 CODECOPY PUSH1 0x40 ADD SWAP2 POP POP PUSH1 0x40 MLOAD DUP1 SWAP2 SUB SWAP1 REVERT JUMPDEST PUSH1 0x0 DUP2 GT PUSH2 0x1A5D JUMPI PUSH1 0x40 MLOAD PUSH3 0x461BCD PUSH1 0xE5 SHL DUP2 MSTORE PUSH1 0x4 ADD DUP1 DUP1 PUSH1 0x20 ADD DUP3 DUP2 SUB DUP3 MSTORE PUSH1 0x29 DUP2 MSTORE PUSH1 0x20 ADD DUP1 PUSH2 0x2A8F PUSH1 0x29 SWAP2 CODECOPY PUSH1 0x40 ADD SWAP2 POP POP PUSH1 0x40 MLOAD DUP1 SWAP2 SUB SWAP1 REVERT JUMPDEST PUSH2 0x1A65 PUSH2 0x12BB JUMP JUMPDEST PUSH1 0x1 PUSH1 0x1 PUSH1 0xA0 SHL SUB AND DUP4 PUSH1 0x1 PUSH1 0x1 PUSH1 0xA0 SHL SUB AND EQ ISZERO DUP1 ISZERO PUSH2 0x1A9F JUMPI POP PUSH2 0x1A89 PUSH2 0x12BB JUMP JUMPDEST PUSH1 0x1 PUSH1 0x1 PUSH1 0xA0 SHL SUB AND DUP3 PUSH1 0x1 PUSH1 0x1 PUSH1 0xA0 SHL SUB AND EQ ISZERO JUMPDEST ISZERO PUSH2 0x1AE5 JUMPI PUSH1 0x14 SLOAD DUP2 GT ISZERO PUSH2 0x1AE5 JUMPI PUSH1 0x40 MLOAD PUSH3 0x461BCD PUSH1 0xE5 SHL DUP2 MSTORE PUSH1 0x4 ADD DUP1 DUP1 PUSH1 0x20 ADD DUP3 DUP2 SUB DUP3 MSTORE PUSH1 0x28 DUP2 MSTORE PUSH1 0x20 ADD DUP1 PUSH2 0x29DE PUSH1 0x28 SWAP2 CODECOPY PUSH1 0x40 ADD SWAP2 POP POP PUSH1 0x40 MLOAD DUP1 SWAP2 SUB SWAP1 REVERT JUMPDEST PUSH1 0x0 PUSH2 0x1AF0 ADDRESS PUSH2 0x11A5 JUMP JUMPDEST SWAP1 POP PUSH1 0x14 SLOAD DUP2 LT PUSH2 0x1B00 JUMPI POP PUSH1 0x14 SLOAD JUMPDEST PUSH1 0x15 SLOAD DUP2 LT DUP1 ISZERO SWAP1 DUP2 SWAP1 PUSH2 0x1B17 JUMPI POP PUSH1 0x13 SLOAD PUSH1 0xFF AND ISZERO JUMPDEST DUP1 ISZERO PUSH2 0x1B55 JUMPI POP PUSH32 0x0 PUSH1 0x1 PUSH1 0x1 PUSH1 0xA0 SHL SUB AND DUP6 PUSH1 0x1 PUSH1 0x1 PUSH1 0xA0 SHL SUB AND EQ ISZERO JUMPDEST DUP1 ISZERO PUSH2 0x1B68 JUMPI POP PUSH1 0x13 SLOAD PUSH2 0x100 SWAP1 DIV PUSH1 0xFF AND JUMPDEST ISZERO PUSH2 0x1B7B JUMPI PUSH1 0x15 SLOAD SWAP2 POP PUSH2 0x1B7B DUP3 PUSH2 0x1DC8 JUMP JUMPDEST PUSH1 0x1 PUSH1 0x1 PUSH1 0xA0 SHL SUB DUP6 AND PUSH1 0x0 SWAP1 DUP2 MSTORE PUSH1 0x6 PUSH1 0x20 MSTORE PUSH1 0x40 SWAP1 KECCAK256 SLOAD PUSH1 0x1 SWAP1 PUSH1 0xFF AND DUP1 PUSH2 0x1BBD JUMPI POP PUSH1 0x1 PUSH1 0x1 PUSH1 0xA0 SHL SUB DUP6 AND PUSH1 0x0 SWAP1 DUP2 MSTORE PUSH1 0x6 PUSH1 0x20 MSTORE PUSH1 0x40 SWAP1 KECCAK256 SLOAD PUSH1 0xFF AND JUMPDEST ISZERO PUSH2 0x1BC6 JUMPI POP PUSH1 0x0 JUMPDEST PUSH2 0x1BD2 DUP7 DUP7 DUP7 DUP5 PUSH2 0x1E65 JUMP JUMPDEST POP POP POP POP POP POP JUMP JUMPDEST PUSH1 0x0 DUP2 DUP5 DUP5 GT ISZERO PUSH2 0x1C69 JUMPI PUSH1 0x40 MLOAD PUSH3 0x461BCD PUSH1 0xE5 SHL DUP2 MSTORE PUSH1 0x4 ADD DUP1 DUP1 PUSH1 0x20 ADD DUP3 DUP2 SUB DUP3 MSTORE DUP4 DUP2 DUP2 MLOAD DUP2 MSTORE PUSH1 0x20 ADD SWAP2 POP DUP1 MLOAD SWAP1 PUSH1 0x20 ADD SWAP1 DUP1 DUP4 DUP4 PUSH1 0x0 JUMPDEST DUP4 DUP2 LT ISZERO PUSH2 0x1C2E JUMPI DUP2 DUP2 ADD MLOAD DUP4 DUP3 ADD MSTORE PUSH1 0x20 ADD PUSH2 0x1C16 JUMP JUMPDEST POP POP POP POP SWAP1 POP SWAP1 DUP2 ADD SWAP1 PUSH1 0x1F AND DUP1 ISZERO PUSH2 0x1C5B JUMPI DUP1 DUP3 SUB DUP1 MLOAD PUSH1 0x1 DUP4 PUSH1 0x20 SUB PUSH2 0x100 EXP SUB NOT AND DUP2 MSTORE PUSH1 0x20 ADD SWAP2 POP JUMPDEST POP SWAP3 POP POP POP PUSH1 0x40 MLOAD DUP1 SWAP2 SUB SWAP1 REVERT JUMPDEST POP POP POP SWAP1 SUB SWAP1 JUMP JUMPDEST PUSH1 0x0 DUP1 PUSH1 0x0 PUSH2 0x1C7E PUSH2 0x1FD9 JUMP JUMPDEST SWAP1 SWAP3 POP SWAP1 POP PUSH2 0x1C8D DUP3 DUP3 PUSH2 0x1C94 JUMP JUMPDEST SWAP3 POP POP POP SWAP1 JUMP JUMPDEST PUSH1 0x0 PUSH2 0x1CD6 DUP4 DUP4 PUSH1 0x40 MLOAD DUP1 PUSH1 0x40 ADD PUSH1 0x40 MSTORE DUP1 PUSH1 0x1A DUP2 MSTORE PUSH1 0x20 ADD PUSH32 0x536166654D6174683A206469766973696F6E206279207A65726F000000000000 DUP2 MSTORE POP PUSH2 0x213C JUMP JUMPDEST SWAP4 SWAP3 POP POP POP JUMP JUMPDEST PUSH1 0x0 DUP3 DUP3 ADD DUP4 DUP2 LT ISZERO PUSH2 0x1CD6 JUMPI PUSH1 0x40 DUP1 MLOAD PUSH3 0x461BCD PUSH1 0xE5 SHL DUP2 MSTORE PUSH1 0x20 PUSH1 0x4 DUP3 ADD MSTORE PUSH1 0x1B PUSH1 0x24 DUP3 ADD MSTORE PUSH32 0x536166654D6174683A206164646974696F6E206F766572666C6F770000000000 PUSH1 0x44 DUP3 ADD MSTORE SWAP1 MLOAD SWAP1 DUP2 SWAP1 SUB PUSH1 0x64 ADD SWAP1 REVERT JUMPDEST PUSH1 0x0 DUP1 PUSH1 0x0 DUP1 PUSH1 0x0 DUP1 PUSH1 0x0 DUP1 PUSH1 0x0 PUSH2 0x1D4E DUP11 PUSH2 0x21A1 JUMP JUMPDEST SWAP3 POP SWAP3 POP SWAP3 POP PUSH1 0x0 DUP1 PUSH1 0x0 PUSH2 0x1D6C DUP14 DUP7 DUP7 PUSH2 0x1D67 PUSH2 0x1C71 JUMP JUMPDEST PUSH2 0x21E3 JUMP JUMPDEST SWAP2 SWAP16 SWAP1 SWAP15 POP SWAP1 SWAP13 POP SWAP6 SWAP11 POP SWAP4 SWAP9 POP SWAP2 SWAP7 POP SWAP3 SWAP5 POP POP POP POP POP JUMP JUMPDEST PUSH1 0x0 PUSH2 0x1CD6 DUP4 DUP4 PUSH1 0x40 MLOAD DUP1 PUSH1 0x40 ADD PUSH1 0x40 MSTORE DUP1 PUSH1 0x1E DUP2 MSTORE PUSH1 0x20 ADD PUSH32 0x536166654D6174683A207375627472616374696F6E206F766572666C6F770000 DUP2 MSTORE POP PUSH2 0x1BDA JUMP JUMPDEST PUSH1 0x13 DUP1 SLOAD PUSH1 0xFF NOT AND PUSH1 0x1 OR SWAP1 SSTORE PUSH1 0x0 PUSH2 0x1DE2 DUP3 PUSH1 0x2 PUSH2 0x1C94 JUMP JUMPDEST SWAP1 POP PUSH1 0x0 PUSH2 0x1DF0 DUP4 DUP4 PUSH2 0x1D86 JUMP JUMPDEST SWAP1 POP SELFBALANCE PUSH2 0x1DFC DUP4 PUSH2 0x2233 JUMP JUMPDEST PUSH1 0x0 PUSH2 0x1E08 SELFBALANCE DUP4 PUSH2 0x1D86 JUMP JUMPDEST SWAP1 POP PUSH2 0x1E14 DUP4 DUP3 PUSH2 0x2442 JUMP JUMPDEST PUSH1 0x40 DUP1 MLOAD DUP6 DUP2 MSTORE PUSH1 0x20 DUP2 ADD DUP4 SWAP1 MSTORE DUP1 DUP3 ADD DUP6 SWAP1 MSTORE SWAP1 MLOAD PUSH32 0x17BBFB9A6069321B6DED73BD96327C9E6B7212A5CD51FF219CD61370ACAFB561 SWAP2 DUP2 SWAP1 SUB PUSH1 0x60 ADD SWAP1 LOG1 POP POP PUSH1 0x13 DUP1 SLOAD PUSH1 0xFF NOT AND SWAP1 SSTORE POP POP POP JUMP JUMPDEST DUP1 PUSH2 0x1E72 JUMPI PUSH2 0x1E72 PUSH2 0x2540 JUMP JUMPDEST PUSH1 0x1 PUSH1 0x1 PUSH1 0xA0 SHL SUB DUP5 AND PUSH1 0x0 SWAP1 DUP2 MSTORE PUSH1 0x7 PUSH1 0x20 MSTORE PUSH1 0x40 SWAP1 KECCAK256 SLOAD PUSH1 0xFF AND DUP1 ISZERO PUSH2 0x1EB3 JUMPI POP PUSH1 0x1 PUSH1 0x1 PUSH1 0xA0 SHL SUB DUP4 AND PUSH1 0x0 SWAP1 DUP2 MSTORE PUSH1 0x7 PUSH1 0x20 MSTORE PUSH1 0x40 SWAP1 KECCAK256 SLOAD PUSH1 0xFF AND ISZERO JUMPDEST ISZERO PUSH2 0x1EC8 JUMPI PUSH2 0x1EC3 DUP5 DUP5 DUP5 PUSH2 0x2572 JUMP JUMPDEST PUSH2 0x1FC6 JUMP JUMPDEST PUSH1 0x1 PUSH1 0x1 PUSH1 0xA0 SHL SUB DUP5 AND PUSH1 0x0 SWAP1 DUP2 MSTORE PUSH1 0x7 PUSH1 0x20 MSTORE PUSH1 0x40 SWAP1 KECCAK256 SLOAD PUSH1 0xFF AND ISZERO DUP1 ISZERO PUSH2 0x1F09 JUMPI POP PUSH1 0x1 PUSH1 0x1 PUSH1 0xA0 SHL SUB DUP4 AND PUSH1 0x0 SWAP1 DUP2 MSTORE PUSH1 0x7 PUSH1 0x20 MSTORE PUSH1 0x40 SWAP1 KECCAK256 SLOAD PUSH1 0xFF AND JUMPDEST ISZERO PUSH2 0x1F19 JUMPI PUSH2 0x1EC3 DUP5 DUP5 DUP5 PUSH2 0x2696 JUMP JUMPDEST PUSH1 0x1 PUSH1 0x1 PUSH1 0xA0 SHL SUB DUP5 AND PUSH1 0x0 SWAP1 DUP2 MSTORE PUSH1 0x7 PUSH1 0x20 MSTORE PUSH1 0x40 SWAP1 KECCAK256 SLOAD PUSH1 0xFF AND ISZERO DUP1 ISZERO PUSH2 0x1F5B JUMPI POP PUSH1 0x1 PUSH1 0x1 PUSH1 0xA0 SHL SUB DUP4 AND PUSH1 0x0 SWAP1 DUP2 MSTORE PUSH1 0x7 PUSH1 0x20 MSTORE PUSH1 0x40 SWAP1 KECCAK256 SLOAD PUSH1 0xFF AND ISZERO JUMPDEST ISZERO PUSH2 0x1F6B JUMPI PUSH2 0x1EC3 DUP5 DUP5 DUP5 PUSH2 0x273F JUMP JUMPDEST PUSH1 0x1 PUSH1 0x1 PUSH1 0xA0 SHL SUB DUP5 AND PUSH1 0x0 SWAP1 DUP2 MSTORE PUSH1 0x7 PUSH1 0x20 MSTORE PUSH1 0x40 SWAP1 KECCAK256 SLOAD PUSH1 0xFF AND DUP1 ISZERO PUSH2 0x1FAB JUMPI POP PUSH1 0x1 PUSH1 0x1 PUSH1 0xA0 SHL SUB DUP4 AND PUSH1 0x0 SWAP1 DUP2 MSTORE PUSH1 0x7 PUSH1 0x20 MSTORE PUSH1 0x40 SWAP1 KECCAK256 SLOAD PUSH1 0xFF AND JUMPDEST ISZERO PUSH2 0x1FBB JUMPI PUSH2 0x1EC3 DUP5 DUP5 DUP5 PUSH2 0x2783 JUMP JUMPDEST PUSH2 0x1FC6 DUP5 DUP5 DUP5 PUSH2 0x273F JUMP JUMPDEST DUP1 PUSH2 0x1FD3 JUMPI PUSH2 0x1FD3 PUSH2 0x27F6 JUMP JUMPDEST POP POP POP POP JUMP JUMPDEST PUSH1 0xA SLOAD PUSH1 0x9 SLOAD PUSH1 0x0 SWAP2 DUP3 SWAP2 DUP3 JUMPDEST PUSH1 0x8 SLOAD DUP2 LT ISZERO PUSH2 0x210A JUMPI DUP3 PUSH1 0x3 PUSH1 0x0 PUSH1 0x8 DUP5 DUP2 SLOAD DUP2 LT PUSH2 0x2002 JUMPI INVALID JUMPDEST PUSH1 0x0 SWAP2 DUP3 MSTORE PUSH1 0x20 DUP1 DUP4 KECCAK256 SWAP1 SWAP2 ADD SLOAD PUSH1 0x1 PUSH1 0x1 PUSH1 0xA0 SHL SUB AND DUP4 MSTORE DUP3 ADD SWAP3 SWAP1 SWAP3 MSTORE PUSH1 0x40 ADD SWAP1 KECCAK256 SLOAD GT DUP1 PUSH2 0x2067 JUMPI POP DUP2 PUSH1 0x4 PUSH1 0x0 PUSH1 0x8 DUP5 DUP2 SLOAD DUP2 LT PUSH2 0x2040 JUMPI INVALID JUMPDEST PUSH1 0x0 SWAP2 DUP3 MSTORE PUSH1 0x20 DUP1 DUP4 KECCAK256 SWAP1 SWAP2 ADD SLOAD PUSH1 0x1 PUSH1 0x1 PUSH1 0xA0 SHL SUB AND DUP4 MSTORE DUP3 ADD SWAP3 SWAP1 SWAP3 MSTORE PUSH1 0x40 ADD SWAP1 KECCAK256 SLOAD GT JUMPDEST ISZERO PUSH2 0x207E JUMPI PUSH1 0xA SLOAD PUSH1 0x9 SLOAD SWAP5 POP SWAP5 POP POP POP POP PUSH2 0x2138 JUMP JUMPDEST PUSH2 0x20BE PUSH1 0x3 PUSH1 0x0 PUSH1 0x8 DUP5 DUP2 SLOAD DUP2 LT PUSH2 0x2092 JUMPI INVALID JUMPDEST PUSH1 0x0 SWAP2 DUP3 MSTORE PUSH1 0x20 DUP1 DUP4 KECCAK256 SWAP1 SWAP2 ADD SLOAD PUSH1 0x1 PUSH1 0x1 PUSH1 0xA0 SHL SUB AND DUP4 MSTORE DUP3 ADD SWAP3 SWAP1 SWAP3 MSTORE PUSH1 0x40 ADD SWAP1 KECCAK256 SLOAD DUP5 SWAP1 PUSH2 0x1D86 JUMP JUMPDEST SWAP3 POP PUSH2 0x2100 PUSH1 0x4 PUSH1 0x0 PUSH1 0x8 DUP5 DUP2 SLOAD DUP2 LT PUSH2 0x20D4 JUMPI INVALID JUMPDEST PUSH1 0x0 SWAP2 DUP3 MSTORE PUSH1 0x20 DUP1 DUP4 KECCAK256 SWAP1 SWAP2 ADD SLOAD PUSH1 0x1 PUSH1 0x1 PUSH1 0xA0 SHL SUB AND DUP4 MSTORE DUP3 ADD SWAP3 SWAP1 SWAP3 MSTORE PUSH1 0x40 ADD SWAP1 KECCAK256 SLOAD DUP4 SWAP1 PUSH2 0x1D86 JUMP JUMPDEST SWAP2 POP PUSH1 0x1 ADD PUSH2 0x1FE6 JUMP JUMPDEST POP PUSH1 0x9 SLOAD PUSH1 0xA SLOAD PUSH2 0x211A SWAP2 PUSH2 0x1C94 JUMP JUMPDEST DUP3 LT ISZERO PUSH2 0x2132 JUMPI PUSH1 0xA SLOAD PUSH1 0x9 SLOAD SWAP4 POP SWAP4 POP POP POP PUSH2 0x2138 JUMP JUMPDEST SWAP1 SWAP3 POP SWAP1 POP JUMPDEST SWAP1 SWAP2 JUMP JUMPDEST PUSH1 0x0 DUP2 DUP4 PUSH2 0x218B JUMPI PUSH1 0x40 MLOAD PUSH3 0x461BCD PUSH1 0xE5 SHL DUP2 MSTORE PUSH1 0x20 PUSH1 0x4 DUP3 ADD DUP2 DUP2 MSTORE DUP4 MLOAD PUSH1 0x24 DUP5 ADD MSTORE DUP4 MLOAD SWAP1 SWAP3 DUP4 SWAP3 PUSH1 0x44 SWAP1 SWAP2 ADD SWAP2 SWAP1 DUP6 ADD SWAP1 DUP1 DUP4 DUP4 PUSH1 0x0 DUP4 ISZERO PUSH2 0x1C2E JUMPI DUP2 DUP2 ADD MLOAD DUP4 DUP3 ADD MSTORE PUSH1 0x20 ADD PUSH2 0x1C16 JUMP JUMPDEST POP PUSH1 0x0 DUP4 DUP6 DUP2 PUSH2 0x2197 JUMPI INVALID JUMPDEST DIV SWAP6 SWAP5 POP POP POP POP POP JUMP JUMPDEST PUSH1 0x0 DUP1 PUSH1 0x0 DUP1 PUSH2 0x21B0 DUP6 PUSH2 0x2804 JUMP JUMPDEST SWAP1 POP PUSH1 0x0 PUSH2 0x21BD DUP7 PUSH2 0x2826 JUMP JUMPDEST SWAP1 POP PUSH1 0x0 PUSH2 0x21D5 DUP3 PUSH2 0x21CF DUP10 DUP7 PUSH2 0x1D86 JUMP JUMPDEST SWAP1 PUSH2 0x1D86 JUMP JUMPDEST SWAP8 SWAP3 SWAP7 POP SWAP1 SWAP5 POP SWAP1 SWAP3 POP POP POP JUMP JUMPDEST PUSH1 0x0 DUP1 DUP1 DUP1 PUSH2 0x21F2 DUP9 DUP7 PUSH2 0x2842 JUMP JUMPDEST SWAP1 POP PUSH1 0x0 PUSH2 0x2200 DUP9 DUP8 PUSH2 0x2842 JUMP JUMPDEST SWAP1 POP PUSH1 0x0 PUSH2 0x220E DUP9 DUP9 PUSH2 0x2842 JUMP JUMPDEST SWAP1 POP PUSH1 0x0 PUSH2 0x2220 DUP3 PUSH2 0x21CF DUP7 DUP7 PUSH2 0x1D86 JUMP JUMPDEST SWAP4 SWAP12 SWAP4 SWAP11 POP SWAP2 SWAP9 POP SWAP2 SWAP7 POP POP POP POP POP POP POP JUMP JUMPDEST PUSH1 0x40 DUP1 MLOAD PUSH1 0x2 DUP1 DUP3 MSTORE PUSH1 0x60 DUP1 DUP4 ADD DUP5 MSTORE SWAP3 PUSH1 0x20 DUP4 ADD SWAP1 DUP1 CALLDATASIZE DUP4 CALLDATACOPY ADD SWAP1 POP POP SWAP1 POP ADDRESS DUP2 PUSH1 0x0 DUP2 MLOAD DUP2 LT PUSH2 0x2261 JUMPI INVALID JUMPDEST PUSH1 0x20 MUL PUSH1 0x20 ADD ADD SWAP1 PUSH1 0x1 PUSH1 0x1 PUSH1 0xA0 SHL SUB AND SWAP1 DUP2 PUSH1 0x1 PUSH1 0x1 PUSH1 0xA0 SHL SUB AND DUP2 MSTORE POP POP PUSH32 0x0 PUSH1 0x1 PUSH1 0x1 PUSH1 0xA0 SHL SUB AND PUSH4 0xAD5C4648 PUSH1 0x40 MLOAD DUP2 PUSH4 0xFFFFFFFF AND PUSH1 0xE0 SHL DUP2 MSTORE PUSH1 0x4 ADD PUSH1 0x20 PUSH1 0x40 MLOAD DUP1 DUP4 SUB DUP2 DUP7 DUP1 EXTCODESIZE ISZERO DUP1 ISZERO PUSH2 0x22DA JUMPI PUSH1 0x0 DUP1 REVERT JUMPDEST POP GAS STATICCALL ISZERO DUP1 ISZERO PUSH2 0x22EE JUMPI RETURNDATASIZE PUSH1 0x0 DUP1 RETURNDATACOPY RETURNDATASIZE PUSH1 0x0 REVERT JUMPDEST POP POP POP POP PUSH1 0x40 MLOAD RETURNDATASIZE PUSH1 0x20 DUP2 LT ISZERO PUSH2 0x2304 JUMPI PUSH1 0x0 DUP1 REVERT JUMPDEST POP MLOAD DUP2 MLOAD DUP3 SWAP1 PUSH1 0x1 SWAP1 DUP2 LT PUSH2 0x2315 JUMPI INVALID JUMPDEST PUSH1 0x20 MUL PUSH1 0x20 ADD ADD SWAP1 PUSH1 0x1 PUSH1 0x1 PUSH1 0xA0 SHL SUB AND SWAP1 DUP2 PUSH1 0x1 PUSH1 0x1 PUSH1 0xA0 SHL SUB AND DUP2 MSTORE POP POP PUSH2 0x2360 ADDRESS PUSH32 0x0 DUP5 PUSH2 0x18A8 JUMP JUMPDEST PUSH32 0x0 PUSH1 0x1 PUSH1 0x1 PUSH1 0xA0 SHL SUB AND PUSH4 0x791AC947 DUP4 PUSH1 0x0 DUP5 ADDRESS TIMESTAMP PUSH1 0x40 MLOAD DUP7 PUSH4 0xFFFFFFFF AND PUSH1 0xE0 SHL DUP2 MSTORE PUSH1 0x4 ADD DUP1 DUP7 DUP2 MSTORE PUSH1 0x20 ADD DUP6 DUP2 MSTORE PUSH1 0x20 ADD DUP1 PUSH1 0x20 ADD DUP5 PUSH1 0x1 PUSH1 0x1 PUSH1 0xA0 SHL SUB AND DUP2 MSTORE PUSH1 0x20 ADD DUP4 DUP2 MSTORE PUSH1 0x20 ADD DUP3 DUP2 SUB DUP3 MSTORE DUP6 DUP2 DUP2 MLOAD DUP2 MSTORE PUSH1 0x20 ADD SWAP2 POP DUP1 MLOAD SWAP1 PUSH1 0x20 ADD SWAP1 PUSH1 0x20 MUL DUP1 DUP4 DUP4 PUSH1 0x0 JUMPDEST DUP4 DUP2 LT ISZERO PUSH2 0x2405 JUMPI DUP2 DUP2 ADD MLOAD DUP4 DUP3 ADD MSTORE PUSH1 0x20 ADD PUSH2 0x23ED JUMP JUMPDEST POP POP POP POP SWAP1 POP ADD SWAP7 POP POP POP POP POP POP POP PUSH1 0x0 PUSH1 0x40 MLOAD DUP1 DUP4 SUB DUP2 PUSH1 0x0 DUP8 DUP1 EXTCODESIZE ISZERO DUP1 ISZERO PUSH2 0x242E JUMPI PUSH1 0x0 DUP1 REVERT JUMPDEST POP GAS CALL ISZERO DUP1 ISZERO PUSH2 0x1BD2 JUMPI RETURNDATASIZE PUSH1 0x0 DUP1 RETURNDATACOPY RETURNDATASIZE PUSH1 0x0 REVERT JUMPDEST PUSH2 0x246D ADDRESS PUSH32 0x0 DUP5 PUSH2 0x18A8 JUMP JUMPDEST PUSH32 0x0 PUSH1 0x1 PUSH1 0x1 PUSH1 0xA0 SHL SUB AND PUSH4 0xF305D719 DUP3 ADDRESS DUP6 PUSH1 0x0 DUP1 PUSH2 0x24AA PUSH2 0x12BB JUMP JUMPDEST TIMESTAMP PUSH1 0x40 MLOAD DUP9 PUSH4 0xFFFFFFFF AND PUSH1 0xE0 SHL DUP2 MSTORE PUSH1 0x4 ADD DUP1 DUP8 PUSH1 0x1 PUSH1 0x1 PUSH1 0xA0 SHL SUB AND DUP2 MSTORE PUSH1 0x20 ADD DUP7 DUP2 MSTORE PUSH1 0x20 ADD DUP6 DUP2 MSTORE PUSH1 0x20 ADD DUP5 DUP2 MSTORE PUSH1 0x20 ADD DUP4 PUSH1 0x1 PUSH1 0x1 PUSH1 0xA0 SHL SUB AND DUP2 MSTORE PUSH1 0x20 ADD DUP3 DUP2 MSTORE PUSH1 0x20 ADD SWAP7 POP POP POP POP POP POP POP PUSH1 0x60 PUSH1 0x40 MLOAD DUP1 DUP4 SUB DUP2 DUP6 DUP9 DUP1 EXTCODESIZE ISZERO DUP1 ISZERO PUSH2 0x2515 JUMPI PUSH1 0x0 DUP1 REVERT JUMPDEST POP GAS CALL ISZERO DUP1 ISZERO PUSH2 0x2529 JUMPI RETURNDATASIZE PUSH1 0x0 DUP1 RETURNDATACOPY RETURNDATASIZE PUSH1 0x0 REVERT JUMPDEST POP POP POP POP POP PUSH1 0x40 MLOAD RETURNDATASIZE PUSH1 0x60 DUP2 LT ISZERO PUSH2 0x1FD3 JUMPI PUSH1 0x0 DUP1 REVERT JUMPDEST PUSH1 0xF SLOAD ISZERO DUP1 ISZERO PUSH2 0x2550 JUMPI POP PUSH1 0x11 SLOAD ISZERO JUMPDEST ISZERO PUSH2 0x255A JUMPI PUSH2 0x2570 JUMP JUMPDEST PUSH1 0xF DUP1 SLOAD PUSH1 0x10 SSTORE PUSH1 0x11 DUP1 SLOAD PUSH1 0x12 SSTORE PUSH1 0x0 SWAP2 DUP3 SWAP1 SSTORE SSTORE JUMPDEST JUMP JUMPDEST PUSH1 0x0 DUP1 PUSH1 0x0 DUP1 PUSH1 0x0 DUP1 PUSH2 0x2584 DUP8 PUSH2 0x1D37 JUMP JUMPDEST PUSH1 0x1 PUSH1 0x1 PUSH1 0xA0 SHL SUB DUP16 AND PUSH1 0x0 SWAP1 DUP2 MSTORE PUSH1 0x4 PUSH1 0x20 MSTORE PUSH1 0x40 SWAP1 KECCAK256 SLOAD SWAP6 SWAP12 POP SWAP4 SWAP10 POP SWAP2 SWAP8 POP SWAP6 POP SWAP4 POP SWAP2 POP PUSH2 0x25B6 SWAP1 DUP9 PUSH2 0x1D86 JUMP JUMPDEST PUSH1 0x1 PUSH1 0x1 PUSH1 0xA0 SHL SUB DUP11 AND PUSH1 0x0 SWAP1 DUP2 MSTORE PUSH1 0x4 PUSH1 0x20 SWAP1 DUP2 MSTORE PUSH1 0x40 DUP1 DUP4 KECCAK256 SWAP4 SWAP1 SWAP4 SSTORE PUSH1 0x3 SWAP1 MSTORE KECCAK256 SLOAD PUSH2 0x25E5 SWAP1 DUP8 PUSH2 0x1D86 JUMP JUMPDEST PUSH1 0x1 PUSH1 0x1 PUSH1 0xA0 SHL SUB DUP1 DUP12 AND PUSH1 0x0 SWAP1 DUP2 MSTORE PUSH1 0x3 PUSH1 0x20 MSTORE PUSH1 0x40 DUP1 DUP3 KECCAK256 SWAP4 SWAP1 SWAP4 SSTORE SWAP1 DUP11 AND DUP2 MSTORE KECCAK256 SLOAD PUSH2 0x2614 SWAP1 DUP7 PUSH2 0x1CDD JUMP JUMPDEST PUSH1 0x1 PUSH1 0x1 PUSH1 0xA0 SHL SUB DUP10 AND PUSH1 0x0 SWAP1 DUP2 MSTORE PUSH1 0x3 PUSH1 0x20 MSTORE PUSH1 0x40 SWAP1 KECCAK256 SSTORE PUSH2 0x2636 DUP2 PUSH2 0x289B JUMP JUMPDEST PUSH2 0x2640 DUP5 DUP4 PUSH2 0x2924 JUMP JUMPDEST DUP8 PUSH1 0x1 PUSH1 0x1 PUSH1 0xA0 SHL SUB AND DUP10 PUSH1 0x1 PUSH1 0x1 PUSH1 0xA0 SHL SUB AND PUSH32 0xDDF252AD1BE2C89B69C2B068FC378DAA952BA7F163C4A11628F55A4DF523B3EF DUP6 PUSH1 0x40 MLOAD DUP1 DUP3 DUP2 MSTORE PUSH1 0x20 ADD SWAP2 POP POP PUSH1 0x40 MLOAD DUP1 SWAP2 SUB SWAP1 LOG3 POP POP POP POP POP POP POP POP POP JUMP JUMPDEST PUSH1 0x0 DUP1 PUSH1 0x0 DUP1 PUSH1 0x0 DUP1 PUSH2 0x26A8 DUP8 PUSH2 0x1D37 JUMP JUMPDEST PUSH1 0x1 PUSH1 0x1 PUSH1 0xA0 SHL SUB DUP16 AND PUSH1 0x0 SWAP1 DUP2 MSTORE PUSH1 0x3 PUSH1 0x20 MSTORE PUSH1 0x40 SWAP1 KECCAK256 SLOAD SWAP6 SWAP12 POP SWAP4 SWAP10 POP SWAP2 SWAP8 POP SWAP6 POP SWAP4 POP SWAP2 POP PUSH2 0x26DA SWAP1 DUP8 PUSH2 0x1D86 JUMP JUMPDEST PUSH1 0x1 PUSH1 0x1 PUSH1 0xA0 SHL SUB DUP1 DUP12 AND PUSH1 0x0 SWAP1 DUP2 MSTORE PUSH1 0x3 PUSH1 0x20 SWAP1 DUP2 MSTORE PUSH1 0x40 DUP1 DUP4 KECCAK256 SWAP5 SWAP1 SWAP5 SSTORE SWAP2 DUP12 AND DUP2 MSTORE PUSH1 0x4 SWAP1 SWAP2 MSTORE KECCAK256 SLOAD PUSH2 0x2710 SWAP1 DUP5 PUSH2 0x1CDD JUMP JUMPDEST PUSH1 0x1 PUSH1 0x1 PUSH1 0xA0 SHL SUB DUP10 AND PUSH1 0x0 SWAP1 DUP2 MSTORE PUSH1 0x4 PUSH1 0x20 SWAP1 DUP2 MSTORE PUSH1 0x40 DUP1 DUP4 KECCAK256 SWAP4 SWAP1 SWAP4 SSTORE PUSH1 0x3 SWAP1 MSTORE KECCAK256 SLOAD PUSH2 0x2614 SWAP1 DUP7 PUSH2 0x1CDD JUMP JUMPDEST PUSH1 0x0 DUP1 PUSH1 0x0 DUP1 PUSH1 0x0 DUP1 PUSH2 0x2751 DUP8 PUSH2 0x1D37 JUMP JUMPDEST PUSH1 0x1 PUSH1 0x1 PUSH1 0xA0 SHL SUB DUP16 AND PUSH1 0x0 SWAP1 DUP2 MSTORE PUSH1 0x3 PUSH1 0x20 MSTORE PUSH1 0x40 SWAP1 KECCAK256 SLOAD SWAP6 SWAP12 POP SWAP4 SWAP10 POP SWAP2 SWAP8 POP SWAP6 POP SWAP4 POP SWAP2 POP PUSH2 0x25E5 SWAP1 DUP8 PUSH2 0x1D86 JUMP JUMPDEST PUSH1 0x0 DUP1 PUSH1 0x0 DUP1 PUSH1 0x0 DUP1 PUSH2 0x2795 DUP8 PUSH2 0x1D37 JUMP JUMPDEST PUSH1 0x1 PUSH1 0x1 PUSH1 0xA0 SHL SUB DUP16 AND PUSH1 0x0 SWAP1 DUP2 MSTORE PUSH1 0x4 PUSH1 0x20 MSTORE PUSH1 0x40 SWAP1 KECCAK256 SLOAD SWAP6 SWAP12 POP SWAP4 SWAP10 POP SWAP2 SWAP8 POP SWAP6 POP SWAP4 POP SWAP2 POP PUSH2 0x27C7 SWAP1 DUP9 PUSH2 0x1D86 JUMP JUMPDEST PUSH1 0x1 PUSH1 0x1 PUSH1 0xA0 SHL SUB DUP11 AND PUSH1 0x0 SWAP1 DUP2 MSTORE PUSH1 0x4 PUSH1 0x20 SWAP1 DUP2 MSTORE PUSH1 0x40 DUP1 DUP4 KECCAK256 SWAP4 SWAP1 SWAP4 SSTORE PUSH1 0x3 SWAP1 MSTORE KECCAK256 SLOAD PUSH2 0x26DA SWAP1 DUP8 PUSH2 0x1D86 JUMP JUMPDEST PUSH1 0x10 SLOAD PUSH1 0xF SSTORE PUSH1 0x12 SLOAD PUSH1 0x11 SSTORE JUMP JUMPDEST PUSH1 0x0 PUSH2 0xA12 PUSH1 0x64 PUSH2 0x2820 PUSH1 0xF SLOAD DUP6 PUSH2 0x2842 SWAP1 SWAP2 SWAP1 PUSH4 0xFFFFFFFF AND JUMP JUMPDEST SWAP1 PUSH2 0x1C94 JUMP JUMPDEST PUSH1 0x0 PUSH2 0xA12 PUSH1 0x64 PUSH2 0x2820 PUSH1 0x11 SLOAD DUP6 PUSH2 0x2842 SWAP1 SWAP2 SWAP1 PUSH4 0xFFFFFFFF AND JUMP JUMPDEST PUSH1 0x0 DUP3 PUSH2 0x2851 JUMPI POP PUSH1 0x0 PUSH2 0xA12 JUMP JUMPDEST DUP3 DUP3 MUL DUP3 DUP5 DUP3 DUP2 PUSH2 0x285E JUMPI INVALID JUMPDEST DIV EQ PUSH2 0x1CD6 JUMPI PUSH1 0x40 MLOAD PUSH3 0x461BCD PUSH1 0xE5 SHL DUP2 MSTORE PUSH1 0x4 ADD DUP1 DUP1 PUSH1 0x20 ADD DUP3 DUP2 SUB DUP3 MSTORE PUSH1 0x21 DUP2 MSTORE PUSH1 0x20 ADD DUP1 PUSH2 0x2A06 PUSH1 0x21 SWAP2 CODECOPY PUSH1 0x40 ADD SWAP2 POP POP PUSH1 0x40 MLOAD DUP1 SWAP2 SUB SWAP1 REVERT JUMPDEST PUSH1 0x0 PUSH2 0x28A5 PUSH2 0x1C71 JUMP JUMPDEST SWAP1 POP PUSH1 0x0 PUSH2 0x28B3 DUP4 DUP4 PUSH2 0x2842 JUMP JUMPDEST ADDRESS PUSH1 0x0 SWAP1 DUP2 MSTORE PUSH1 0x3 PUSH1 0x20 MSTORE PUSH1 0x40 SWAP1 KECCAK256 SLOAD SWAP1 SWAP2 POP PUSH2 0x28D0 SWAP1 DUP3 PUSH2 0x1CDD JUMP JUMPDEST ADDRESS PUSH1 0x0 SWAP1 DUP2 MSTORE PUSH1 0x3 PUSH1 0x20 SWAP1 DUP2 MSTORE PUSH1 0x40 DUP1 DUP4 KECCAK256 SWAP4 SWAP1 SWAP4 SSTORE PUSH1 0x7 SWAP1 MSTORE KECCAK256 SLOAD PUSH1 0xFF AND ISZERO PUSH2 0x291F JUMPI ADDRESS PUSH1 0x0 SWAP1 DUP2 MSTORE PUSH1 0x4 PUSH1 0x20 MSTORE PUSH1 0x40 SWAP1 KECCAK256 SLOAD PUSH2 0x290E SWAP1 DUP5 PUSH2 0x1CDD JUMP JUMPDEST ADDRESS PUSH1 0x0 SWAP1 DUP2 MSTORE PUSH1 0x4 PUSH1 0x20 MSTORE PUSH1 0x40 SWAP1 KECCAK256 SSTORE JUMPDEST POP POP POP JUMP JUMPDEST PUSH1 0xA SLOAD PUSH2 0x2931 SWAP1 DUP4 PUSH2 0x1D86 JUMP JUMPDEST PUSH1 0xA SSTORE PUSH1 0xB SLOAD PUSH2 0x2941 SWAP1 DUP3 PUSH2 0x1CDD JUMP JUMPDEST PUSH1 0xB SSTORE POP POP JUMP INVALID GASLIMIT MSTORE NUMBER ORIGIN ADDRESS GASPRICE KECCAK256 PUSH21 0x72616E7366657220746F20746865207A65726F2061 PUSH5 0x6472657373 COINBASE PUSH14 0x6F756E74206D757374206265206C PUSH6 0x737320746861 PUSH15 0x20746F74616C207265666C65637469 PUSH16 0x6E734F776E61626C653A206E6577206F PUSH24 0x6E657220697320746865207A65726F206164647265737345 MSTORE NUMBER ORIGIN ADDRESS GASPRICE KECCAK256 PUSH2 0x7070 PUSH19 0x6F766520746F20746865207A65726F20616464 PUSH19 0x6573735472616E7366657220616D6F756E7420 PUSH6 0x786365656473 KECCAK256 PUSH21 0x6865206D61785478416D6F756E742E536166654D61 PUSH21 0x683A206D756C7469706C69636174696F6E206F7665 PUSH19 0x666C6F7745524332303A207472616E73666572 KECCAK256 PUSH2 0x6D6F PUSH22 0x6E74206578636565647320616C6C6F77616E63654F77 PUSH15 0x61626C653A2063616C6C6572206973 KECCAK256 PUSH15 0x6F7420746865206F776E65728BE007 SWAP13 MSTORE8 AND MSIZE EQ SGT DIFFICULTY 0xCD 0x1F 0xD0 LOG4 CALLCODE DUP5 NOT 0x49 PUSH32 0x9722A3DAAFE3B4186F6B6457E05472616E7366657220616D6F756E74206D7573 PUSH21 0x2062652067726561746572207468616E207A65726F GASLIMIT MSTORE NUMBER ORIGIN ADDRESS GASPRICE KECCAK256 PUSH21 0x72616E736665722066726F6D20746865207A65726F KECCAK256 PUSH2 0x6464 PUSH19 0x65737345524332303A20617070726F76652066 PUSH19 0x6F6D20746865207A65726F2061646472657373 GASLIMIT PUSH25 0x636C75646564206164647265737365732063616E6E6F742063 PUSH2 0x6C6C KECCAK256 PUSH21 0x6869732066756E6374696F6E596F7520646F6E2774 KECCAK256 PUSH9 0x617665207065726D69 PUSH20 0x73696F6E20746F20756E6C6F636B45524332303A KECCAK256 PUSH5 0x6563726561 PUSH20 0x656420616C6C6F77616E63652062656C6F77207A PUSH6 0x726FA2646970 PUSH7 0x7358221220AC99 SWAP11 0x26 0xC2 DUP13 EXTCODEHASH PUSH1 0xAF SGT 0xB5 PUSH23 0x5E938C8B59CB52F8F56D4CBDCF819CEB65F3238264736F PUSH13 0x634300060C0033000000000000 "
				},
				"gasEstimates": {
					"creation": {
						"codeDepositCost": "2235600",
						"executionCost": "infinite",
						"totalCost": "infinite"
					},
					"external": {
						"_liquidityFee()": "1044",
						"_maxTxAmount()": "1110",
						"_owner()": "1104",
						"_taxFee()": "1066",
						"allowance(address,address)": "1338",
						"approve(address,uint256)": "infinite",
						"balanceOf(address)": "infinite",
						"claimTokens()": "infinite",
						"decimals()": "1110",
						"decreaseAllowance(address,uint256)": "infinite",
						"deliver(uint256)": "infinite",
						"excludeFromFee(address)": "infinite",
						"excludeFromReward(address)": "infinite",
						"geUnlockTime()": "1087",
						"includeInFee(address)": "infinite",
						"includeInReward(address)": "infinite",
						"increaseAllowance(address,uint256)": "infinite",
						"isExcludedFromFee(address)": "1287",
						"isExcludedFromReward(address)": "1288",
						"lock(uint256)": "infinite",
						"name()": "infinite",
						"numTokensSellToAddToLiquidity()": "1131",
						"owner()": "1082",
						"reflectionFromToken(uint256,bool)": "infinite",
						"renounceOwnership()": "infinite",
						"setLiquidityFeePercent(uint256)": "infinite",
						"setMaxTxPercent(uint256)": "infinite",
						"setNumTokensSellToAddToLiquidity(uint256)": "infinite",
						"setSwapAndLiquifyEnabled(bool)": "infinite",
						"setTaxFeePercent(uint256)": "infinite",
						"swapAndLiquifyEnabled()": "1110",
						"symbol()": "infinite",
						"tokenFromReflection(uint256)": "infinite",
						"totalFees()": "1111",
						"totalSupply()": "1044",
						"transfer(address,uint256)": "infinite",
						"transferFrom(address,address,uint256)": "infinite",
						"transferOwnership(address)": "infinite",
						"uniswapV2Pair()": "infinite",
						"uniswapV2Router()": "infinite",
						"unlock()": "infinite"
					},
					"internal": {
						"_approve(address,address,uint256)": "infinite",
						"_getCurrentSupply()": "infinite",
						"_getRValues(uint256,uint256,uint256,uint256)": "infinite",
						"_getRate()": "infinite",
						"_getTValues(uint256)": "infinite",
						"_getValues(uint256)": "infinite",
						"_reflectFee(uint256,uint256)": "infinite",
						"_takeLiquidity(uint256)": "infinite",
						"_tokenTransfer(address,address,uint256,bool)": "infinite",
						"_transfer(address,address,uint256)": "infinite",
						"_transferBothExcluded(address,address,uint256)": "infinite",
						"_transferFromExcluded(address,address,uint256)": "infinite",
						"_transferStandard(address,address,uint256)": "infinite",
						"_transferToExcluded(address,address,uint256)": "infinite",
						"addLiquidity(uint256,uint256)": "infinite",
						"calculateLiquidityFee(uint256)": "infinite",
						"calculateTaxFee(uint256)": "infinite",
						"removeAllFee()": "53291",
						"restoreAllFee()": "41621",
						"swapAndLiquify(uint256)": "infinite",
						"swapTokensForEth(uint256)": "infinite"
					}
				},
				"methodIdentifiers": {
					"_liquidityFee()": "6bc87c3a",
					"_maxTxAmount()": "7d1db4a5",
					"_owner()": "b2bdfa7b",
					"_taxFee()": "3b124fe7",
					"allowance(address,address)": "dd62ed3e",
					"approve(address,uint256)": "095ea7b3",
					"balanceOf(address)": "70a08231",
					"claimTokens()": "48c54b9d",
					"decimals()": "313ce567",
					"decreaseAllowance(address,uint256)": "a457c2d7",
					"deliver(uint256)": "3bd5d173",
					"excludeFromFee(address)": "437823ec",
					"excludeFromReward(address)": "52390c02",
					"geUnlockTime()": "b6c52324",
					"includeInFee(address)": "ea2f0b37",
					"includeInReward(address)": "3685d419",
					"increaseAllowance(address,uint256)": "39509351",
					"isExcludedFromFee(address)": "5342acb4",
					"isExcludedFromReward(address)": "88f82020",
					"lock(uint256)": "dd467064",
					"name()": "06fdde03",
					"numTokensSellToAddToLiquidity()": "d12a7688",
					"owner()": "8da5cb5b",
					"reflectionFromToken(uint256,bool)": "4549b039",
					"renounceOwnership()": "715018a6",
					"setLiquidityFeePercent(uint256)": "8ee88c53",
					"setMaxTxPercent(uint256)": "d543dbeb",
					"setNumTokensSellToAddToLiquidity(uint256)": "f0f165af",
					"setSwapAndLiquifyEnabled(bool)": "c49b9a80",
					"setTaxFeePercent(uint256)": "061c82d0",
					"swapAndLiquifyEnabled()": "4a74bb02",
					"symbol()": "95d89b41",
					"tokenFromReflection(uint256)": "2d838119",
					"totalFees()": "13114a9d",
					"totalSupply()": "18160ddd",
					"transfer(address,uint256)": "a9059cbb",
					"transferFrom(address,address,uint256)": "23b872dd",
					"transferOwnership(address)": "f2fde38b",
					"uniswapV2Pair()": "49bd5a5e",
					"uniswapV2Router()": "1694505e",
					"unlock()": "a69df4b5"
				}
			},
			"storageLayout": {
				"storage": [
					{
						"astId": 497,
						"contract": "sadc.sol:CoinToken",
						"label": "_owner",
						"offset": 0,
						"slot": "0",
						"type": "t_address"
					},
					{
						"astId": 499,
						"contract": "sadc.sol:CoinToken",
						"label": "_previousOwner",
						"offset": 0,
						"slot": "1",
						"type": "t_address"
					},
					{
						"astId": 501,
						"contract": "sadc.sol:CoinToken",
						"label": "_lockTime",
						"offset": 0,
						"slot": "2",
						"type": "t_uint256"
					},
					{
						"astId": 1357,
						"contract": "sadc.sol:CoinToken",
						"label": "_rOwned",
						"offset": 0,
						"slot": "3",
						"type": "t_mapping(t_address,t_uint256)"
					},
					{
						"astId": 1361,
						"contract": "sadc.sol:CoinToken",
						"label": "_tOwned",
						"offset": 0,
						"slot": "4",
						"type": "t_mapping(t_address,t_uint256)"
					},
					{
						"astId": 1367,
						"contract": "sadc.sol:CoinToken",
						"label": "_allowances",
						"offset": 0,
						"slot": "5",
						"type": "t_mapping(t_address,t_mapping(t_address,t_uint256))"
					},
					{
						"astId": 1371,
						"contract": "sadc.sol:CoinToken",
						"label": "_isExcludedFromFee",
						"offset": 0,
						"slot": "6",
						"type": "t_mapping(t_address,t_bool)"
					},
					{
						"astId": 1375,
						"contract": "sadc.sol:CoinToken",
						"label": "_isExcluded",
						"offset": 0,
						"slot": "7",
						"type": "t_mapping(t_address,t_bool)"
					},
					{
						"astId": 1378,
						"contract": "sadc.sol:CoinToken",
						"label": "_excluded",
						"offset": 0,
						"slot": "8",
						"type": "t_array(t_address)dyn_storage"
					},
					{
						"astId": 1387,
						"contract": "sadc.sol:CoinToken",
						"label": "_tTotal",
						"offset": 0,
						"slot": "9",
						"type": "t_uint256"
					},
					{
						"astId": 1389,
						"contract": "sadc.sol:CoinToken",
						"label": "_rTotal",
						"offset": 0,
						"slot": "10",
						"type": "t_uint256"
					},
					{
						"astId": 1391,
						"contract": "sadc.sol:CoinToken",
						"label": "_tFeeTotal",
						"offset": 0,
						"slot": "11",
						"type": "t_uint256"
					},
					{
						"astId": 1393,
						"contract": "sadc.sol:CoinToken",
						"label": "_name",
						"offset": 0,
						"slot": "12",
						"type": "t_string_storage"
					},
					{
						"astId": 1395,
						"contract": "sadc.sol:CoinToken",
						"label": "_symbol",
						"offset": 0,
						"slot": "13",
						"type": "t_string_storage"
					},
					{
						"astId": 1397,
						"contract": "sadc.sol:CoinToken",
						"label": "_decimals",
						"offset": 0,
						"slot": "14",
						"type": "t_uint256"
					},
					{
						"astId": 1399,
						"contract": "sadc.sol:CoinToken",
						"label": "_taxFee",
						"offset": 0,
						"slot": "15",
						"type": "t_uint256"
					},
					{
						"astId": 1401,
						"contract": "sadc.sol:CoinToken",
						"label": "_previousTaxFee",
						"offset": 0,
						"slot": "16",
						"type": "t_uint256"
					},
					{
						"astId": 1403,
						"contract": "sadc.sol:CoinToken",
						"label": "_liquidityFee",
						"offset": 0,
						"slot": "17",
						"type": "t_uint256"
					},
					{
						"astId": 1405,
						"contract": "sadc.sol:CoinToken",
						"label": "_previousLiquidityFee",
						"offset": 0,
						"slot": "18",
						"type": "t_uint256"
					},
					{
						"astId": 1411,
						"contract": "sadc.sol:CoinToken",
						"label": "inSwapAndLiquify",
						"offset": 0,
						"slot": "19",
						"type": "t_bool"
					},
					{
						"astId": 1414,
						"contract": "sadc.sol:CoinToken",
						"label": "swapAndLiquifyEnabled",
						"offset": 1,
						"slot": "19",
						"type": "t_bool"
					},
					{
						"astId": 1416,
						"contract": "sadc.sol:CoinToken",
						"label": "_maxTxAmount",
						"offset": 0,
						"slot": "20",
						"type": "t_uint256"
					},
					{
						"astId": 1418,
						"contract": "sadc.sol:CoinToken",
						"label": "numTokensSellToAddToLiquidity",
						"offset": 0,
						"slot": "21",
						"type": "t_uint256"
					}
				],
				"types": {
					"t_address": {
						"encoding": "inplace",
						"label": "address",
						"numberOfBytes": "20"
					},
					"t_array(t_address)dyn_storage": {
						"base": "t_address",
						"encoding": "dynamic_array",
						"label": "address[]",
						"numberOfBytes": "32"
					},
					"t_bool": {
						"encoding": "inplace",
						"label": "bool",
						"numberOfBytes": "1"
					},
					"t_mapping(t_address,t_bool)": {
						"encoding": "mapping",
						"key": "t_address",
						"label": "mapping(address => bool)",
						"numberOfBytes": "32",
						"value": "t_bool"
					},
					"t_mapping(t_address,t_mapping(t_address,t_uint256))": {
						"encoding": "mapping",
						"key": "t_address",
						"label": "mapping(address => mapping(address => uint256))",
						"numberOfBytes": "32",
						"value": "t_mapping(t_address,t_uint256)"
					},
					"t_mapping(t_address,t_uint256)": {
						"encoding": "mapping",
						"key": "t_address",
						"label": "mapping(address => uint256)",
						"numberOfBytes": "32",
						"value": "t_uint256"
					},
					"t_string_storage": {
						"encoding": "bytes",
						"label": "string",
						"numberOfBytes": "32"
					},
					"t_uint256": {
						"encoding": "inplace",
						"label": "uint256",
						"numberOfBytes": "32"
					}
				}
			},
			"userdoc": {
				"kind": "user",
				"methods": {},
				"version": 1
			}
		}
	}
}