{
	"asd.sol": {
		"CoinToken": {
			"abi": [
				{
					"inputs": [
						{
							"internalType": "string",
							"name": "_NAME",
							"type": "string"
						},
						{
							"internalType": "string",
							"name": "_SYMBOL",
							"type": "string"
						},
						{
							"internalType": "uint256",
							"name": "_DECIMALS",
							"type": "uint256"
						},
						{
							"internalType": "uint256",
							"name": "_supply",
							"type": "uint256"
						},
						{
							"internalType": "uint256",
							"name": "_txFee",
							"type": "uint256"
						},
						{
							"internalType": "uint256",
							"name": "_lpFee",
							"type": "uint256"
						},
						{
							"internalType": "uint256",
							"name": "_DexFee",
							"type": "uint256"
						},
						{
							"internalType": "address",
							"name": "routerAddress",
							"type": "address"
						},
						{
							"internalType": "address",
							"name": "feeaddress",
							"type": "address"
						},
						{
							"internalType": "address",
							"name": "tokenOwner",
							"type": "address"
						},
						{
							"internalType": "address",
							"name": "service",
							"type": "address"
						}
					],
					"stateMutability": "payable",
					"type": "constructor"
				},
				{
					"anonymous": false,
					"inputs": [
						{
							"indexed": true,
							"internalType": "address",
							"name": "owner",
							"type": "address"
						},
						{
							"indexed": true,
							"internalType": "address",
							"name": "spender",
							"type": "address"
						},
						{
							"indexed": false,
							"internalType": "uint256",
							"name": "value",
							"type": "uint256"
						}
					],
					"name": "Approval",
					"type": "event"
				},
				{
					"anonymous": false,
					"inputs": [
						{
							"indexed": false,
							"internalType": "uint256",
							"name": "minTokensBeforeSwap",
							"type": "uint256"
						}
					],
					"name": "MinTokensBeforeSwapUpdated",
					"type": "event"
				},
				{
					"anonymous": false,
					"inputs": [
						{
							"indexed": true,
							"internalType": "address",
							"name": "previousOwner",
							"type": "address"
						},
						{
							"indexed": true,
							"internalType": "address",
							"name": "newOwner",
							"type": "address"
						}
					],
					"name": "OwnershipTransferred",
					"type": "event"
				},
				{
					"anonymous": false,
					"inputs": [
						{
							"indexed": false,
							"internalType": "uint256",
							"name": "tokensSwapped",
							"type": "uint256"
						},
						{
							"indexed": false,
							"internalType": "uint256",
							"name": "ethReceived",
							"type": "uint256"
						},
						{
							"indexed": false,
							"internalType": "uint256",
							"name": "tokensIntoLiqudity",
							"type": "uint256"
						}
					],
					"name": "SwapAndLiquify",
					"type": "event"
				},
				{
					"anonymous": false,
					"inputs": [
						{
							"indexed": false,
							"internalType": "bool",
							"name": "enabled",
							"type": "bool"
						}
					],
					"name": "SwapAndLiquifyEnabledUpdated",
					"type": "event"
				},
				{
					"anonymous": false,
					"inputs": [
						{
							"indexed": true,
							"internalType": "address",
							"name": "from",
							"type": "address"
						},
						{
							"indexed": true,
							"internalType": "address",
							"name": "to",
							"type": "address"
						},
						{
							"indexed": false,
							"internalType": "uint256",
							"name": "value",
							"type": "uint256"
						}
					],
					"name": "Transfer",
					"type": "event"
				},
				{
					"inputs": [],
					"name": "_devFee",
					"outputs": [
						{
							"internalType": "uint256",
							"name": "",
							"type": "uint256"
						}
					],
					"stateMutability": "view",
					"type": "function"
				},
				{
					"inputs": [],
					"name": "_devWalletAddress",
					"outputs": [
						{
							"internalType": "address",
							"name": "",
							"type": "address"
						}
					],
					"stateMutability": "view",
					"type": "function"
				},
				{
					"inputs": [],
					"name": "_liquidityFee",
					"outputs": [
						{
							"internalType": "uint256",
							"name": "",
							"type": "uint256"
						}
					],
					"stateMutability": "view",
					"type": "function"
				},
				{
					"inputs": [],
					"name": "_lockTime",
					"outputs": [
						{
							"internalType": "uint256",
							"name": "",
							"type": "uint256"
						}
					],
					"stateMutability": "view",
					"type": "function"
				},
				{
					"inputs": [],
					"name": "_maxTxAmount",
					"outputs": [
						{
							"internalType": "uint256",
							"name": "",
							"type": "uint256"
						}
					],
					"stateMutability": "view",
					"type": "function"
				},
				{
					"inputs": [],
					"name": "_owner",
					"outputs": [
						{
							"internalType": "address",
							"name": "",
							"type": "address"
						}
					],
					"stateMutability": "view",
					"type": "function"
				},
				{
					"inputs": [],
					"name": "_taxFee",
					"outputs": [
						{
							"internalType": "uint256",
							"name": "",
							"type": "uint256"
						}
					],
					"stateMutability": "view",
					"type": "function"
				},
				{
					"inputs": [
						{
							"internalType": "address",
							"name": "owner",
							"type": "address"
						},
						{
							"internalType": "address",
							"name": "spender",
							"type": "address"
						}
					],
					"name": "allowance",
					"outputs": [
						{
							"internalType": "uint256",
							"name": "",
							"type": "uint256"
						}
					],
					"stateMutability": "view",
					"type": "function"
				},
				{
					"inputs": [
						{
							"internalType": "address",
							"name": "spender",
							"type": "address"
						},
						{
							"internalType": "uint256",
							"name": "amount",
							"type": "uint256"
						}
					],
					"name": "approve",
					"outputs": [
						{
							"internalType": "bool",
							"name": "",
							"type": "bool"
						}
					],
					"stateMutability": "nonpayable",
					"type": "function"
				},
				{
					"inputs": [
						{
							"internalType": "address",
							"name": "account",
							"type": "address"
						}
					],
					"name": "balanceOf",
					"outputs": [
						{
							"internalType": "uint256",
							"name": "",
							"type": "uint256"
						}
					],
					"stateMutability": "view",
					"type": "function"
				},
				{
					"inputs": [],
					"name": "decimals",
					"outputs": [
						{
							"internalType": "uint256",
							"name": "",
							"type": "uint256"
						}
					],
					"stateMutability": "view",
					"type": "function"
				},
				{
					"inputs": [
						{
							"internalType": "address",
							"name": "spender",
							"type": "address"
						},
						{
							"internalType": "uint256",
							"name": "subtractedValue",
							"type": "uint256"
						}
					],
					"name": "decreaseAllowance",
					"outputs": [
						{
							"internalType": "bool",
							"name": "",
							"type": "bool"
						}
					],
					"stateMutability": "nonpayable",
					"type": "function"
				},
				{
					"inputs": [
						{
							"internalType": "uint256",
							"name": "tAmount",
							"type": "uint256"
						}
					],
					"name": "deliver",
					"outputs": [],
					"stateMutability": "nonpayable",
					"type": "function"
				},
				{
					"inputs": [
						{
							"internalType": "address",
							"name": "account",
							"type": "address"
						}
					],
					"name": "excludeFromFee",
					"outputs": [],
					"stateMutability": "nonpayable",
					"type": "function"
				},
				{
					"inputs": [
						{
							"internalType": "address",
							"name": "account",
							"type": "address"
						}
					],
					"name": "excludeFromReward",
					"outputs": [],
					"stateMutability": "nonpayable",
					"type": "function"
				},
				{
					"inputs": [
						{
							"internalType": "address",
							"name": "account",
							"type": "address"
						}
					],
					"name": "includeInFee",
					"outputs": [],
					"stateMutability": "nonpayable",
					"type": "function"
				},
				{
					"inputs": [
						{
							"internalType": "address",
							"name": "account",
							"type": "address"
						}
					],
					"name": "includeInReward",
					"outputs": [],
					"stateMutability": "nonpayable",
					"type": "function"
				},
				{
					"inputs": [
						{
							"internalType": "address",
							"name": "spender",
							"type": "address"
						},
						{
							"internalType": "uint256",
							"name": "addedValue",
							"type": "uint256"
						}
					],
					"name": "increaseAllowance",
					"outputs": [
						{
							"internalType": "bool",
							"name": "",
							"type": "bool"
						}
					],
					"stateMutability": "nonpayable",
					"type": "function"
				},
				{
					"inputs": [
						{
							"internalType": "address",
							"name": "account",
							"type": "address"
						}
					],
					"name": "isExcludedFromFee",
					"outputs": [
						{
							"internalType": "bool",
							"name": "",
							"type": "bool"
						}
					],
					"stateMutability": "view",
					"type": "function"
				},
				{
					"inputs": [
						{
							"internalType": "address",
							"name": "account",
							"type": "address"
						}
					],
					"name": "isExcludedFromReward",
					"outputs": [
						{
							"internalType": "bool",
							"name": "",
							"type": "bool"
						}
					],
					"stateMutability": "view",
					"type": "function"
				},
				{
					"inputs": [
						{
							"internalType": "uint256",
							"name": "time",
							"type": "uint256"
						}
					],
					"name": "lock",
					"outputs": [],
					"stateMutability": "nonpayable",
					"type": "function"
				},
				{
					"inputs": [],
					"name": "name",
					"outputs": [
						{
							"internalType": "string",
							"name": "",
							"type": "string"
						}
					],
					"stateMutability": "view",
					"type": "function"
				},
				{
					"inputs": [],
					"name": "numTokensSellToAddToLiquidity",
					"outputs": [
						{
							"internalType": "uint256",
							"name": "",
							"type": "uint256"
						}
					],
					"stateMutability": "view",
					"type": "function"
				},
				{
					"inputs": [],
					"name": "owner",
					"outputs": [
						{
							"internalType": "address",
							"name": "",
							"type": "address"
						}
					],
					"stateMutability": "view",
					"type": "function"
				},
				{
					"inputs": [
						{
							"internalType": "uint256",
							"name": "tAmount",
							"type": "uint256"
						},
						{
							"internalType": "bool",
							"name": "deductTransferFee",
							"type": "bool"
						}
					],
					"name": "reflectionFromToken",
					"outputs": [
						{
							"internalType": "uint256",
							"name": "",
							"type": "uint256"
						}
					],
					"stateMutability": "view",
					"type": "function"
				},
				{
					"inputs": [],
					"name": "renounceOwnership",
					"outputs": [],
					"stateMutability": "nonpayable",
					"type": "function"
				},
				{
					"inputs": [
						{
							"internalType": "uint256",
							"name": "devFee",
							"type": "uint256"
						}
					],
					"name": "setDevFeePercent",
					"outputs": [],
					"stateMutability": "nonpayable",
					"type": "function"
				},
				{
					"inputs": [
						{
							"internalType": "address",
							"name": "_addr",
							"type": "address"
						}
					],
					"name": "setDevWalletAddress",
					"outputs": [],
					"stateMutability": "nonpayable",
					"type": "function"
				},
				{
					"inputs": [
						{
							"internalType": "uint256",
							"name": "liquidityFee",
							"type": "uint256"
						}
					],
					"name": "setLiquidityFeePercent",
					"outputs": [],
					"stateMutability": "nonpayable",
					"type": "function"
				},
				{
					"inputs": [
						{
							"internalType": "uint256",
							"name": "maxTxPercent",
							"type": "uint256"
						}
					],
					"name": "setMaxTxPercent",
					"outputs": [],
					"stateMutability": "nonpayable",
					"type": "function"
				},
				{
					"inputs": [
						{
							"internalType": "uint256",
							"name": "amountToUpdate",
							"type": "uint256"
						}
					],
					"name": "setNumTokensSellToAddToLiquidity",
					"outputs": [],
					"stateMutability": "nonpayable",
					"type": "function"
				},
				{
					"inputs": [
						{
							"internalType": "address",
							"name": "newRouter",
							"type": "address"
						}
					],
					"name": "setRouterAddress",
					"outputs": [],
					"stateMutability": "nonpayable",
					"type": "function"
				},
				{
					"inputs": [
						{
							"internalType": "bool",
							"name": "_enabled",
							"type": "bool"
						}
					],
					"name": "setSwapAndLiquifyEnabled",
					"outputs": [],
					"stateMutability": "nonpayable",
					"type": "function"
				},
				{
					"inputs": [
						{
							"internalType": "uint256",
							"name": "taxFee",
							"type": "uint256"
						}
					],
					"name": "setTaxFeePercent",
					"outputs": [],
					"stateMutability": "nonpayable",
					"type": "function"
				},
				{
					"inputs": [],
					"name": "swapAndLiquifyEnabled",
					"outputs": [
						{
							"internalType": "bool",
							"name": "",
							"type": "bool"
						}
					],
					"stateMutability": "view",
					"type": "function"
				},
				{
					"inputs": [],
					"name": "symbol",
					"outputs": [
						{
							"internalType": "string",
							"name": "",
							"type": "string"
						}
					],
					"stateMutability": "view",
					"type": "function"
				},
				{
					"inputs": [
						{
							"internalType": "uint256",
							"name": "rAmount",
							"type": "uint256"
						}
					],
					"name": "tokenFromReflection",
					"outputs": [
						{
							"internalType": "uint256",
							"name": "",
							"type": "uint256"
						}
					],
					"stateMutability": "view",
					"type": "function"
				},
				{
					"inputs": [],
					"name": "totalFees",
					"outputs": [
						{
							"internalType": "uint256",
							"name": "",
							"type": "uint256"
						}
					],
					"stateMutability": "view",
					"type": "function"
				},
				{
					"inputs": [],
					"name": "totalSupply",
					"outputs": [
						{
							"internalType": "uint256",
							"name": "",
							"type": "uint256"
						}
					],
					"stateMutability": "view",
					"type": "function"
				},
				{
					"inputs": [
						{
							"internalType": "address",
							"name": "recipient",
							"type": "address"
						},
						{
							"internalType": "uint256",
							"name": "amount",
							"type": "uint256"
						}
					],
					"name": "transfer",
					"outputs": [
						{
							"internalType": "bool",
							"name": "",
							"type": "bool"
						}
					],
					"stateMutability": "nonpayable",
					"type": "function"
				},
				{
					"inputs": [
						{
							"internalType": "address",
							"name": "sender",
							"type": "address"
						},
						{
							"internalType": "address",
							"name": "recipient",
							"type": "address"
						},
						{
							"internalType": "uint256",
							"name": "amount",
							"type": "uint256"
						}
					],
					"name": "transferFrom",
					"outputs": [
						{
							"internalType": "bool",
							"name": "",
							"type": "bool"
						}
					],
					"stateMutability": "nonpayable",
					"type": "function"
				},
				{
					"inputs": [
						{
							"internalType": "address",
							"name": "newOwner",
							"type": "address"
						}
					],
					"name": "transferOwnership",
					"outputs": [],
					"stateMutability": "nonpayable",
					"type": "function"
				},
				{
					"inputs": [],
					"name": "uniswapV2Pair",
					"outputs": [
						{
							"internalType": "address",
							"name": "",
							"type": "address"
						}
					],
					"stateMutability": "view",
					"type": "function"
				},
				{
					"inputs": [],
					"name": "uniswapV2Router",
					"outputs": [
						{
							"internalType": "contract IUniswapV2Router02",
							"name": "",
							"type": "address"
						}
					],
					"stateMutability": "view",
					"type": "function"
				},
				{
					"inputs": [],
					"name": "unlock",
					"outputs": [],
					"stateMutability": "nonpayable",
					"type": "function"
				},
				{
					"stateMutability": "payable",
					"type": "receive"
				}
			],
			"devdoc": {
				"kind": "dev",
				"methods": {},
				"version": 1
			},
			"evm": {
				"assembly": "    /* \"asd.sol\":16735:35961  contract CoinToken is Context, IERC20, Ownable {\r... */\n  0x80\n  0x40\n  dup2\n  swap1\n  mstore\n    /* \"asd.sol\":17803:17843  bool public swapAndLiquifyEnabled = true */\n  0x17\n  dup1\n  sload\n  not(shl(0xa8, 0xff))\n  and\n  shl(0xa8, 0x01)\n  or\n  swap1\n  sstore\n    /* \"asd.sol\":18319:19851  constructor (string memory _NAME, string memory _SYMBOL, uint256 _DECIMALS, uint256 _supply, uint256 _txFee,uint256 _lpFee,uint256 _DexFee,address routerAddress,address feeaddress,address tokenOwner,address service) public payable {\r... */\n  bytecodeSize\n  codesize\n  dup2\n  swap1\n  sub\n  swap1\n  dup2\n  swap1\n    /* \"asd.sol\":16735:35961  contract CoinToken is Context, IERC20, Ownable {\r... */\n  dup4\n    /* \"asd.sol\":18319:19851  constructor (string memory _NAME, string memory _SYMBOL, uint256 _DECIMALS, uint256 _supply, uint256 _txFee,uint256 _lpFee,uint256 _DexFee,address routerAddress,address feeaddress,address tokenOwner,address service) public payable {\r... */\n  codecopy\n  dup2\n  add\n  0x40\n  dup2\n  swap1\n  mstore\n  tag_1\n  swap2\n  tag_2\n  jump\t// in\ntag_1:\n    /* \"asd.sol\":7401:7407  _owner */\n  0x00\n    /* \"asd.sol\":7401:7422  _owner = _msgSender() */\n  dup1\n  sload\n  not(sub(shl(0xa0, 0x01), 0x01))\n  and\n    /* \"asd.sol\":3534:3544  msg.sender */\n  caller\n    /* \"asd.sol\":7401:7422  _owner = _msgSender() */\n  swap1\n  dup2\n  or\n  dup3\n  sstore\n    /* \"asd.sol\":7438:7478  OwnershipTransferred(address(0), _owner) */\n  mload(0x40)\n    /* \"asd.sol\":3534:3544  msg.sender */\n  swap1\n  swap2\n    /* \"asd.sol\":7401:7407  _owner */\n  swap1\n    /* \"asd.sol\":7438:7478  OwnershipTransferred(address(0), _owner) */\n  0x8be0079c531659141344cd1fd0a4f28419497f9722a3daafe3b4186f6b6457e0\n  swap1\n    /* \"asd.sol\":7401:7407  _owner */\n  dup3\n  swap1\n    /* \"asd.sol\":7438:7478  OwnershipTransferred(address(0), _owner) */\n  log3\n    /* \"asd.sol\":18561:18574  _name = _NAME */\n  dup11\n  mload\n  tag_9\n  swap1\n    /* \"asd.sol\":18561:18566  _name */\n  0x0d\n  swap1\n    /* \"asd.sol\":18561:18574  _name = _NAME */\n  0x20\n  dup15\n  add\n  swap1\n  tag_10\n  jump\t// in\ntag_9:\n  pop\n    /* \"asd.sol\":18585:18602  _symbol = _SYMBOL */\n  dup10\n  mload\n  tag_11\n  swap1\n    /* \"asd.sol\":18585:18592  _symbol */\n  0x0e\n  swap1\n    /* \"asd.sol\":18585:18602  _symbol = _SYMBOL */\n  0x20\n  dup14\n  add\n  swap1\n  tag_10\n  jump\t// in\ntag_11:\n  pop\n    /* \"asd.sol\":18613:18622  _decimals */\n  0x0f\n    /* \"asd.sol\":18613:18634  _decimals = _DECIMALS */\n  dup10\n  swap1\n  sstore\n    /* \"asd.sol\":18665:18680  10 ** _decimals */\n  tag_12\n    /* \"asd.sol\":18625:18634  _DECIMALS */\n  dup10\n    /* \"asd.sol\":18665:18667  10 */\n  0x0a\n    /* \"asd.sol\":18665:18680  10 ** _decimals */\n  tag_13\n  jump\t// in\ntag_12:\n    /* \"asd.sol\":18655:18680  _supply * 10 ** _decimals */\n  tag_14\n  swap1\n    /* \"asd.sol\":18655:18662  _supply */\n  dup10\n    /* \"asd.sol\":18655:18680  _supply * 10 ** _decimals */\n  tag_15\n  jump\t// in\ntag_14:\n    /* \"asd.sol\":18645:18652  _tTotal */\n  0x0a\n    /* \"asd.sol\":18645:18680  _tTotal = _supply * 10 ** _decimals */\n  dup2\n  swap1\n  sstore\n    /* \"asd.sol\":18709:18722  MAX % _tTotal */\n  tag_16\n  swap1\n  not(0x00)\n  tag_17\n  jump\t// in\ntag_16:\n    /* \"asd.sol\":18702:18723  MAX - (MAX % _tTotal) */\n  tag_18\n  swap1\n  not(0x00)\n  tag_19\n  jump\t// in\ntag_18:\n    /* \"asd.sol\":18691:18698  _rTotal */\n  0x0b\n    /* \"asd.sol\":18691:18724  _rTotal = (MAX - (MAX % _tTotal)) */\n  sstore\n    /* \"asd.sol\":18735:18742  _taxFee */\n  0x10\n    /* \"asd.sol\":18735:18751  _taxFee = _txFee */\n  dup8\n  swap1\n  sstore\n    /* \"asd.sol\":18762:18775  _liquidityFee */\n  0x14\n    /* \"asd.sol\":18762:18784  _liquidityFee = _lpFee */\n  dup7\n  swap1\n  sstore\n    /* \"asd.sol\":18795:18810  _previousTaxFee */\n  0x11\n    /* \"asd.sol\":18795:18819  _previousTaxFee = _txFee */\n  dup8\n  swap1\n  sstore\n    /* \"asd.sol\":18828:18835  _devFee */\n  0x12\n    /* \"asd.sol\":18828:18845  _devFee = _DexFee */\n  dup6\n  swap1\n  sstore\n    /* \"asd.sol\":18850:18865  _previousDevFee */\n  0x13\n    /* \"asd.sol\":18850:18875  _previousDevFee = _devFee */\n  dup6\n  swap1\n  sstore\n    /* \"asd.sol\":18886:18907  _previousLiquidityFee */\n  0x15\n    /* \"asd.sol\":18886:18916  _previousLiquidityFee = _lpFee */\n  dup7\n  swap1\n  sstore\n    /* \"asd.sol\":18971:18980  _decimals */\n  sload(0x0f)\n    /* \"asd.sol\":18965:18980  10 ** _decimals */\n  tag_20\n  swap1\n    /* \"asd.sol\":18965:18967  10 */\n  0x0a\n    /* \"asd.sol\":18965:18980  10 ** _decimals */\n  tag_13\n  jump\t// in\ntag_20:\n    /* \"asd.sol\":18957:18961  1000 */\n  0x03e8\n    /* \"asd.sol\":18943:18950  _tTotal */\n  sload(0x0a)\n    /* \"asd.sol\":18953:18954  5 */\n  0x05\n    /* \"asd.sol\":18943:18954  _tTotal * 5 */\n  tag_21\n  swap2\n  swap1\n  tag_15\n  jump\t// in\ntag_21:\n    /* \"asd.sol\":18943:18961  _tTotal * 5 / 1000 */\n  tag_22\n  swap2\n  swap1\n  tag_23\n  jump\t// in\ntag_22:\n    /* \"asd.sol\":18942:18980  (_tTotal * 5 / 1000) * 10 ** _decimals */\n  tag_24\n  swap2\n  swap1\n  tag_15\n  jump\t// in\ntag_24:\n    /* \"asd.sol\":18927:18939  _maxTxAmount */\n  0x18\n    /* \"asd.sol\":18927:18980  _maxTxAmount = (_tTotal * 5 / 1000) * 10 ** _decimals */\n  sstore\n    /* \"asd.sol\":19053:19062  _decimals */\n  sload(0x0f)\n    /* \"asd.sol\":19047:19062  10 ** _decimals */\n  tag_25\n  swap1\n    /* \"asd.sol\":19047:19049  10 */\n  0x0a\n    /* \"asd.sol\":19047:19062  10 ** _decimals */\n  tag_13\n  jump\t// in\ntag_25:\n    /* \"asd.sol\":19038:19043  10000 */\n  0x2710\n    /* \"asd.sol\":19024:19031  _tTotal */\n  sload(0x0a)\n    /* \"asd.sol\":19034:19035  5 */\n  0x05\n    /* \"asd.sol\":19024:19035  _tTotal * 5 */\n  tag_26\n  swap2\n  swap1\n  tag_15\n  jump\t// in\ntag_26:\n    /* \"asd.sol\":19024:19043  _tTotal * 5 / 10000 */\n  tag_27\n  swap2\n  swap1\n  tag_23\n  jump\t// in\ntag_27:\n    /* \"asd.sol\":19023:19062  (_tTotal * 5 / 10000) * 10 ** _decimals */\n  tag_28\n  swap2\n  swap1\n  tag_15\n  jump\t// in\ntag_28:\n    /* \"asd.sol\":18991:19020  numTokensSellToAddToLiquidity */\n  0x19\n    /* \"asd.sol\":18991:19062  numTokensSellToAddToLiquidity = (_tTotal * 5 / 10000) * 10 ** _decimals */\n  sstore\n    /* \"asd.sol\":19073:19090  _devWalletAddress */\n  0x09\n    /* \"asd.sol\":19073:19103  _devWalletAddress = feeaddress */\n  dup1\n  sload\n  not(sub(shl(0xa0, 0x01), 0x01))\n  and\n  sub(shl(0xa0, 0x01), 0x01)\n  dup6\n  dup2\n  and\n  swap2\n  swap1\n  swap2\n  or\n  swap1\n  swap2\n  sstore\n    /* \"asd.sol\":19146:19153  _rTotal */\n  sload(0x0b)\n    /* \"asd.sol\":19124:19143  _rOwned[tokenOwner] */\n  dup4\n  dup3\n  and\n  0x00\n  swap1\n  dup2\n  mstore\n    /* \"asd.sol\":19124:19131  _rOwned */\n  0x03\n    /* \"asd.sol\":19124:19143  _rOwned[tokenOwner] */\n  0x20\n  swap1\n  dup2\n  mstore\n  0x40\n  swap2\n  dup3\n  swap1\n  keccak256\n    /* \"asd.sol\":19124:19153  _rOwned[tokenOwner] = _rTotal */\n  swap3\n  swap1\n  swap3\n  sstore\n    /* \"asd.sol\":19344:19370  _uniswapV2Router.factory() */\n  dup1\n  mload\n  shl(0xe0, 0xc45a0155)\n  dup2\n  mstore\n  swap1\n  mload\n    /* \"asd.sol\":19231:19244  routerAddress */\n  dup8\n  swap4\n    /* \"asd.sol\":19344:19368  _uniswapV2Router.factory */\n  dup5\n  and\n  swap3\n  0xc45a0155\n  swap3\n    /* \"asd.sol\":19344:19370  _uniswapV2Router.factory() */\n  0x04\n  dup1\n  dup3\n  add\n  swap4\n  swap2\n  dup3\n  swap1\n  sub\n  add\n  dup2\n    /* \"asd.sol\":19344:19368  _uniswapV2Router.factory */\n  dup7\n    /* \"asd.sol\":19344:19370  _uniswapV2Router.factory() */\n  dup1\n  extcodesize\n  iszero\n  dup1\n  iszero\n  tag_29\n  jumpi\n  0x00\n  dup1\n  revert\ntag_29:\n  pop\n  gas\n  staticcall\n  iszero\n  dup1\n  iszero\n  tag_31\n  jumpi\n  returndatasize\n  0x00\n  dup1\n  returndatacopy\n  revert(0x00, returndatasize)\ntag_31:\n  pop\n  pop\n  pop\n  pop\n  mload(0x40)\n  returndatasize\n  not(0x1f)\n  0x1f\n  dup3\n  add\n  and\n  dup3\n  add\n  dup1\n  0x40\n  mstore\n  pop\n  dup2\n  add\n  swap1\n  tag_32\n  swap2\n  swap1\n  tag_33\n  jump\t// in\ntag_32:\n  sub(shl(0xa0, 0x01), 0x01)\n    /* \"asd.sol\":19326:19396  IUniswapV2Factory(_uniswapV2Router.factory())\r... */\n  and\n  0xc9c65396\n    /* \"asd.sol\":19405:19409  this */\n  address\n    /* \"asd.sol\":19412:19428  _uniswapV2Router */\n  dup4\n  sub(shl(0xa0, 0x01), 0x01)\n    /* \"asd.sol\":19412:19433  _uniswapV2Router.WETH */\n  and\n  0xad5c4648\n    /* \"asd.sol\":19412:19435  _uniswapV2Router.WETH() */\n  mload(0x40)\n  dup2\n  0xffffffff\n  and\n  0xe0\n  shl\n  dup2\n  mstore\n  0x04\n  add\n  0x20\n  mload(0x40)\n  dup1\n  dup4\n  sub\n  dup2\n  dup7\n  dup1\n  extcodesize\n  iszero\n  dup1\n  iszero\n  tag_34\n  jumpi\n  0x00\n  dup1\n  revert\ntag_34:\n  pop\n  gas\n  staticcall\n  iszero\n  dup1\n  iszero\n  tag_36\n  jumpi\n  returndatasize\n  0x00\n  dup1\n  returndatacopy\n  revert(0x00, returndatasize)\ntag_36:\n  pop\n  pop\n  pop\n  pop\n  mload(0x40)\n  returndatasize\n  not(0x1f)\n  0x1f\n  dup3\n  add\n  and\n  dup3\n  add\n  dup1\n  0x40\n  mstore\n  pop\n  dup2\n  add\n  swap1\n  tag_37\n  swap2\n  swap1\n  tag_33\n  jump\t// in\ntag_37:\n    /* \"asd.sol\":19326:19436  IUniswapV2Factory(_uniswapV2Router.factory())\r... */\n  mload(0x40)\n  not(sub(shl(0xe0, 0x01), 0x01))\n  0xe0\n  dup6\n  swap1\n  shl\n  and\n  dup2\n  mstore\n  sub(shl(0xa0, 0x01), 0x01)\n    /* \"#utility.yul\":2810:2825   */\n  swap3\n  dup4\n  and\n    /* \"asd.sol\":19326:19436  IUniswapV2Factory(_uniswapV2Router.factory())\r... */\n  0x04\n  dup3\n  add\n    /* \"#utility.yul\":2792:2826   */\n  mstore\n    /* \"#utility.yul\":2862:2877   */\n  swap2\n  and\n    /* \"#utility.yul\":2842:2860   */\n  0x24\n  dup3\n  add\n    /* \"#utility.yul\":2835:2878   */\n  mstore\n    /* \"#utility.yul\":2727:2745   */\n  0x44\n  add\n    /* \"asd.sol\":19326:19436  IUniswapV2Factory(_uniswapV2Router.factory())\r... */\n  0x20\n  mload(0x40)\n  dup1\n  dup4\n  sub\n  dup2\n  0x00\n  dup8\n  dup1\n  extcodesize\n  iszero\n  dup1\n  iszero\n  tag_40\n  jumpi\n  0x00\n  dup1\n  revert\ntag_40:\n  pop\n  gas\n  call\n  iszero\n  dup1\n  iszero\n  tag_42\n  jumpi\n  returndatasize\n  0x00\n  dup1\n  returndatacopy\n  revert(0x00, returndatasize)\ntag_42:\n  pop\n  pop\n  pop\n  pop\n  mload(0x40)\n  returndatasize\n  not(0x1f)\n  0x1f\n  dup3\n  add\n  and\n  dup3\n  add\n  dup1\n  0x40\n  mstore\n  pop\n  dup2\n  add\n  swap1\n  tag_43\n  swap2\n  swap1\n  tag_33\n  jump\t// in\ntag_43:\n    /* \"asd.sol\":19310:19323  uniswapV2Pair */\n  0x17\n    /* \"asd.sol\":19310:19436  uniswapV2Pair = IUniswapV2Factory(_uniswapV2Router.factory())\r... */\n  dup1\n  sload\n  sub(shl(0xa0, 0x01), 0x01)\n  swap3\n  dup4\n  and\n  not(sub(shl(0xa0, 0x01), 0x01))\n  swap2\n  dup3\n  and\n  or\n  swap1\n  swap2\n  sstore\n    /* \"asd.sol\":19500:19515  uniswapV2Router */\n  0x16\n    /* \"asd.sol\":19500:19534  uniswapV2Router = _uniswapV2Router */\n  dup1\n  sload\n  dup5\n  dup5\n  and\n  swap1\n  dup4\n  and\n  or\n  swap1\n  sstore\n    /* \"asd.sol\":19607:19637  _isExcludedFromFee[tokenOwner] */\n  dup5\n  dup3\n  and\n    /* \"asd.sol\":19310:19323  uniswapV2Pair */\n  0x00\n    /* \"asd.sol\":19607:19637  _isExcludedFromFee[tokenOwner] */\n  dup2\n  dup2\n  mstore\n    /* \"asd.sol\":19607:19625  _isExcludedFromFee */\n  0x06\n    /* \"asd.sol\":19607:19637  _isExcludedFromFee[tokenOwner] */\n  0x20\n  mstore\n  0x40\n  dup1\n  dup3\n  keccak256\n    /* \"asd.sol\":19607:19644  _isExcludedFromFee[tokenOwner] = true */\n  dup1\n  sload\n  not(0xff)\n  swap1\n  dup2\n  and\n    /* \"asd.sol\":19310:19436  uniswapV2Pair = IUniswapV2Factory(_uniswapV2Router.factory())\r... */\n  0x01\n    /* \"asd.sol\":19607:19644  _isExcludedFromFee[tokenOwner] = true */\n  swap1\n  dup2\n  or\n  swap1\n  swap3\n  sstore\n    /* \"asd.sol\":19682:19686  this */\n  address\n    /* \"asd.sol\":19655:19688  _isExcludedFromFee[address(this)] */\n  dup5\n  mstore\n  dup3\n  dup5\n  keccak256\n    /* \"asd.sol\":19655:19695  _isExcludedFromFee[address(this)] = true */\n  dup1\n  sload\n  swap1\n  swap2\n  and\n  swap1\n  swap2\n  or\n  swap1\n  sstore\n    /* \"asd.sol\":19712:19731  _owner = tokenOwner */\n  dup2\n  sload\n  swap1\n  swap4\n  and\n  swap1\n  swap2\n  or\n  dup2\n  sstore\n    /* \"asd.sol\":19742:19778  payable(service).transfer(msg.value) */\n  swap1\n  mload\n    /* \"asd.sol\":19742:19767  payable(service).transfer */\n  swap2\n  dup5\n  and\n  swap2\n    /* \"asd.sol\":19768:19777  msg.value */\n  callvalue\n    /* \"asd.sol\":19742:19778  payable(service).transfer(msg.value) */\n  dup1\n  iszero\n  0x08fc\n  mul\n  swap3\n    /* \"asd.sol\":19768:19777  msg.value */\n  swap1\n  swap2\n    /* \"asd.sol\":19742:19778  payable(service).transfer(msg.value) */\n  swap1\n  dup2\n    /* \"asd.sol\":19310:19323  uniswapV2Pair */\n  dup2\n    /* \"asd.sol\":19742:19778  payable(service).transfer(msg.value) */\n  dup2\n    /* \"asd.sol\":19768:19777  msg.value */\n  dup6\n    /* \"asd.sol\":19742:19767  payable(service).transfer */\n  dup9\n    /* \"asd.sol\":19742:19778  payable(service).transfer(msg.value) */\n  dup9\n  call\n  swap4\n  pop\n  pop\n  pop\n  pop\n  iszero\n  dup1\n  iszero\n  tag_45\n  jumpi\n  returndatasize\n  0x00\n  dup1\n  returndatacopy\n  revert(0x00, returndatasize)\ntag_45:\n  pop\n    /* \"asd.sol\":19815:19825  tokenOwner */\n  dup3\n  sub(shl(0xa0, 0x01), 0x01)\n    /* \"asd.sol\":19794:19835  Transfer(address(0), tokenOwner, _tTotal) */\n  and\n    /* \"asd.sol\":19811:19812  0 */\n  0x00\n  sub(shl(0xa0, 0x01), 0x01)\n    /* \"asd.sol\":19794:19835  Transfer(address(0), tokenOwner, _tTotal) */\n  and\n  0xddf252ad1be2c89b69c2b068fc378daa952ba7f163c4a11628f55a4df523b3ef\n    /* \"asd.sol\":19827:19834  _tTotal */\n  sload(0x0a)\n    /* \"asd.sol\":19794:19835  Transfer(address(0), tokenOwner, _tTotal) */\n  mload(0x40)\n  tag_46\n  swap2\n    /* \"#utility.yul\":3035:3060   */\n  dup2\n  mstore\n    /* \"#utility.yul\":3023:3025   */\n  0x20\n    /* \"#utility.yul\":3008:3026   */\n  add\n  swap1\n    /* \"#utility.yul\":2990:3066   */\n  jump\n    /* \"asd.sol\":19794:19835  Transfer(address(0), tokenOwner, _tTotal) */\ntag_46:\n  mload(0x40)\n  dup1\n  swap2\n  sub\n  swap1\n  log3\n    /* \"asd.sol\":18319:19851  constructor (string memory _NAME, string memory _SYMBOL, uint256 _DECIMALS, uint256 _supply, uint256 _txFee,uint256 _lpFee,uint256 _DexFee,address routerAddress,address feeaddress,address tokenOwner,address service) public payable {\r... */\n  pop\n  pop\n  pop\n  pop\n  pop\n  pop\n  pop\n  pop\n  pop\n  pop\n  pop\n  pop\n    /* \"asd.sol\":16735:35961  contract CoinToken is Context, IERC20, Ownable {\r... */\n  jump(tag_61)\ntag_10:\n  dup3\n  dup1\n  sload\n  tag_50\n  swap1\n  tag_51\n  jump\t// in\ntag_50:\n  swap1\n  0x00\n  mstore\n  keccak256(0x00, 0x20)\n  swap1\n  0x1f\n  add\n  0x20\n  swap1\n  div\n  dup2\n  add\n  swap3\n  dup3\n  tag_53\n  jumpi\n  0x00\n  dup6\n  sstore\n  jump(tag_56)\ntag_53:\n  dup3\n  0x1f\n  lt\n  tag_54\n  jumpi\n  dup1\n  mload\n  not(0xff)\n  and\n  dup4\n  dup1\n  add\n  or\n  dup6\n  sstore\n  jump(tag_56)\ntag_54:\n  dup3\n  dup1\n  add\n  0x01\n  add\n  dup6\n  sstore\n  dup3\n  iszero\n  tag_56\n  jumpi\n  swap2\n  dup3\n  add\ntag_55:\n  dup3\n  dup2\n  gt\n  iszero\n  tag_56\n  jumpi\n  dup3\n  mload\n  dup3\n  sstore\n  swap2\n  0x20\n  add\n  swap2\n  swap1\n  0x01\n  add\n  swap1\n  jump(tag_55)\ntag_56:\n  pop\n  tag_57\n  swap3\n  swap2\n  pop\n  tag_58\n  jump\t// in\ntag_57:\n  pop\n  swap1\n  jump\t// out\ntag_58:\ntag_59:\n  dup1\n  dup3\n  gt\n  iszero\n  tag_57\n  jumpi\n  0x00\n  dup2\n  sstore\n  0x01\n  add\n  jump(tag_59)\n    /* \"#utility.yul\":14:191   */\ntag_62:\n    /* \"#utility.yul\":93:106   */\n  dup1\n  mload\n  sub(shl(0xa0, 0x01), 0x01)\n    /* \"#utility.yul\":135:166   */\n  dup2\n  and\n    /* \"#utility.yul\":125:167   */\n  dup2\n  eq\n    /* \"#utility.yul\":115:117   */\n  tag_64\n  jumpi\n    /* \"#utility.yul\":181:182   */\n  0x00\n    /* \"#utility.yul\":178:179   */\n  dup1\n    /* \"#utility.yul\":171:183   */\n  revert\n    /* \"#utility.yul\":115:117   */\ntag_64:\n    /* \"#utility.yul\":74:191   */\n  swap2\n  swap1\n  pop\n  jump\t// out\n    /* \"#utility.yul\":196:1105   */\ntag_65:\n    /* \"#utility.yul\":250:255   */\n  0x00\n    /* \"#utility.yul\":303:306   */\n  dup3\n    /* \"#utility.yul\":296:300   */\n  0x1f\n    /* \"#utility.yul\":288:294   */\n  dup4\n    /* \"#utility.yul\":284:301   */\n  add\n    /* \"#utility.yul\":280:307   */\n  slt\n    /* \"#utility.yul\":270:272   */\n  tag_67\n  jumpi\n    /* \"#utility.yul\":325:330   */\n  dup1\n    /* \"#utility.yul\":318:323   */\n  dup2\n    /* \"#utility.yul\":311:331   */\n  revert\n    /* \"#utility.yul\":270:272   */\ntag_67:\n    /* \"#utility.yul\":352:365   */\n  dup2\n  mload\n  sub(shl(0x40, 0x01), 0x01)\n    /* \"#utility.yul\":414:424   */\n  dup1\n  dup3\n  gt\n    /* \"#utility.yul\":411:413   */\n  iszero\n  tag_69\n  jumpi\n    /* \"#utility.yul\":427:445   */\n  tag_69\n  tag_70\n  jump\t// in\ntag_69:\n    /* \"#utility.yul\":502:504   */\n  0x40\n    /* \"#utility.yul\":496:505   */\n  mload\n    /* \"#utility.yul\":470:472   */\n  0x1f\n    /* \"#utility.yul\":556:569   */\n  dup4\n  add\n  not(0x1f)\n    /* \"#utility.yul\":552:574   */\n  swap1\n  dup2\n  and\n    /* \"#utility.yul\":576:578   */\n  0x3f\n    /* \"#utility.yul\":548:579   */\n  add\n    /* \"#utility.yul\":544:584   */\n  and\n    /* \"#utility.yul\":532:585   */\n  dup2\n  add\n  swap1\n    /* \"#utility.yul\":600:618   */\n  dup3\n  dup3\n  gt\n    /* \"#utility.yul\":620:642   */\n  dup2\n  dup4\n  lt\n    /* \"#utility.yul\":597:643   */\n  or\n    /* \"#utility.yul\":594:596   */\n  iszero\n  tag_72\n  jumpi\n    /* \"#utility.yul\":646:664   */\n  tag_72\n  tag_70\n  jump\t// in\ntag_72:\n    /* \"#utility.yul\":686:696   */\n  dup2\n    /* \"#utility.yul\":682:684   */\n  0x40\n    /* \"#utility.yul\":675:697   */\n  mstore\n    /* \"#utility.yul\":721:723   */\n  dup4\n    /* \"#utility.yul\":713:719   */\n  dup2\n    /* \"#utility.yul\":706:724   */\n  mstore\n    /* \"#utility.yul\":743:747   */\n  0x20\n    /* \"#utility.yul\":733:747   */\n  swap3\n  pop\n    /* \"#utility.yul\":788:791   */\n  dup7\n    /* \"#utility.yul\":783:785   */\n  dup4\n    /* \"#utility.yul\":778:780   */\n  dup6\n    /* \"#utility.yul\":770:776   */\n  dup9\n    /* \"#utility.yul\":766:781   */\n  add\n    /* \"#utility.yul\":762:786   */\n  add\n    /* \"#utility.yul\":759:792   */\n  gt\n    /* \"#utility.yul\":756:758   */\n  iszero\n  tag_73\n  jumpi\n    /* \"#utility.yul\":809:814   */\n  dup5\n    /* \"#utility.yul\":802:807   */\n  dup6\n    /* \"#utility.yul\":795:815   */\n  revert\n    /* \"#utility.yul\":756:758   */\ntag_73:\n    /* \"#utility.yul\":835:840   */\n  dup5\n    /* \"#utility.yul\":826:840   */\n  swap2\n  pop\n    /* \"#utility.yul\":849:982   */\ntag_74:\n    /* \"#utility.yul\":863:865   */\n  dup4\n    /* \"#utility.yul\":860:861   */\n  dup3\n    /* \"#utility.yul\":857:866   */\n  lt\n    /* \"#utility.yul\":849:982   */\n  iszero\n  tag_76\n  jumpi\n    /* \"#utility.yul\":951:965   */\n  dup6\n  dup3\n  add\n    /* \"#utility.yul\":947:970   */\n  dup4\n  add\n    /* \"#utility.yul\":941:971   */\n  mload\n    /* \"#utility.yul\":920:934   */\n  dup2\n  dup4\n  add\n    /* \"#utility.yul\":916:939   */\n  dup5\n  add\n    /* \"#utility.yul\":909:972   */\n  mstore\n    /* \"#utility.yul\":874:884   */\n  swap1\n  dup3\n  add\n  swap1\n    /* \"#utility.yul\":849:982   */\n  jump(tag_74)\ntag_76:\n    /* \"#utility.yul\":1000:1002   */\n  dup4\n    /* \"#utility.yul\":997:998   */\n  dup3\n    /* \"#utility.yul\":994:1003   */\n  gt\n    /* \"#utility.yul\":991:993   */\n  iszero\n  tag_77\n  jumpi\n    /* \"#utility.yul\":1059:1064   */\n  dup5\n    /* \"#utility.yul\":1054:1056   */\n  dup4\n    /* \"#utility.yul\":1049:1051   */\n  dup6\n    /* \"#utility.yul\":1041:1047   */\n  dup4\n    /* \"#utility.yul\":1037:1052   */\n  add\n    /* \"#utility.yul\":1033:1057   */\n  add\n    /* \"#utility.yul\":1026:1065   */\n  mstore\n    /* \"#utility.yul\":991:993   */\ntag_77:\n    /* \"#utility.yul\":1093:1099   */\n  swap7\n    /* \"#utility.yul\":260:1105   */\n  swap6\n  pop\n  pop\n  pop\n  pop\n  pop\n  pop\n  jump\t// out\n    /* \"#utility.yul\":1110:1328   */\ntag_33:\n    /* \"#utility.yul\":1180:1186   */\n  0x00\n    /* \"#utility.yul\":1233:1235   */\n  0x20\n    /* \"#utility.yul\":1221:1230   */\n  dup3\n    /* \"#utility.yul\":1212:1219   */\n  dup5\n    /* \"#utility.yul\":1208:1231   */\n  sub\n    /* \"#utility.yul\":1204:1236   */\n  slt\n    /* \"#utility.yul\":1201:1203   */\n  iszero\n  tag_79\n  jumpi\n    /* \"#utility.yul\":1254:1260   */\n  dup1\n    /* \"#utility.yul\":1246:1252   */\n  dup2\n    /* \"#utility.yul\":1239:1261   */\n  revert\n    /* \"#utility.yul\":1201:1203   */\ntag_79:\n    /* \"#utility.yul\":1282:1322   */\n  tag_80\n    /* \"#utility.yul\":1312:1321   */\n  dup3\n    /* \"#utility.yul\":1282:1322   */\n  tag_62\n  jump\t// in\ntag_80:\n    /* \"#utility.yul\":1272:1322   */\n  swap4\n    /* \"#utility.yul\":1191:1328   */\n  swap3\n  pop\n  pop\n  pop\n  jump\t// out\n    /* \"#utility.yul\":1333:2575   */\ntag_2:\n    /* \"#utility.yul\":1513:1519   */\n  0x00\n    /* \"#utility.yul\":1521:1527   */\n  dup1\n    /* \"#utility.yul\":1529:1535   */\n  0x00\n    /* \"#utility.yul\":1537:1543   */\n  dup1\n    /* \"#utility.yul\":1545:1551   */\n  0x00\n    /* \"#utility.yul\":1553:1559   */\n  dup1\n    /* \"#utility.yul\":1561:1567   */\n  0x00\n    /* \"#utility.yul\":1569:1575   */\n  dup1\n    /* \"#utility.yul\":1577:1583   */\n  0x00\n    /* \"#utility.yul\":1585:1591   */\n  dup1\n    /* \"#utility.yul\":1593:1600   */\n  0x00\n    /* \"#utility.yul\":1647:1650   */\n  0x0160\n    /* \"#utility.yul\":1635:1644   */\n  dup13\n    /* \"#utility.yul\":1626:1633   */\n  dup15\n    /* \"#utility.yul\":1622:1645   */\n  sub\n    /* \"#utility.yul\":1618:1651   */\n  slt\n    /* \"#utility.yul\":1615:1617   */\n  iszero\n  tag_82\n  jumpi\n    /* \"#utility.yul\":1669:1675   */\n  dup7\n    /* \"#utility.yul\":1661:1667   */\n  dup8\n    /* \"#utility.yul\":1654:1676   */\n  revert\n    /* \"#utility.yul\":1615:1617   */\ntag_82:\n    /* \"#utility.yul\":1701:1717   */\n  dup12\n  mload\n  sub(shl(0x40, 0x01), 0x01)\n    /* \"#utility.yul\":1729:1759   */\n  dup2\n  gt\n    /* \"#utility.yul\":1726:1728   */\n  iszero\n  tag_83\n  jumpi\n    /* \"#utility.yul\":1777:1783   */\n  dup8\n    /* \"#utility.yul\":1769:1775   */\n  dup9\n    /* \"#utility.yul\":1762:1784   */\n  revert\n    /* \"#utility.yul\":1726:1728   */\ntag_83:\n    /* \"#utility.yul\":1805:1866   */\n  tag_84\n    /* \"#utility.yul\":1858:1865   */\n  dup15\n    /* \"#utility.yul\":1849:1855   */\n  dup3\n    /* \"#utility.yul\":1838:1847   */\n  dup16\n    /* \"#utility.yul\":1834:1856   */\n  add\n    /* \"#utility.yul\":1805:1866   */\n  tag_65\n  jump\t// in\ntag_84:\n    /* \"#utility.yul\":1912:1914   */\n  0x20\n    /* \"#utility.yul\":1897:1915   */\n  dup15\n  add\n    /* \"#utility.yul\":1891:1916   */\n  mload\n    /* \"#utility.yul\":1795:1866   */\n  swap1\n  swap13\n  pop\n    /* \"#utility.yul\":1891:1916   */\n  swap1\n  pop\n  sub(shl(0x40, 0x01), 0x01)\n    /* \"#utility.yul\":1928:1960   */\n  dup2\n  gt\n    /* \"#utility.yul\":1925:1927   */\n  iszero\n  tag_85\n  jumpi\n    /* \"#utility.yul\":1978:1984   */\n  dup8\n    /* \"#utility.yul\":1970:1976   */\n  dup9\n    /* \"#utility.yul\":1963:1985   */\n  revert\n    /* \"#utility.yul\":1925:1927   */\ntag_85:\n    /* \"#utility.yul\":2006:2069   */\n  tag_86\n    /* \"#utility.yul\":2061:2068   */\n  dup15\n    /* \"#utility.yul\":2050:2058   */\n  dup3\n    /* \"#utility.yul\":2039:2048   */\n  dup16\n    /* \"#utility.yul\":2035:2059   */\n  add\n    /* \"#utility.yul\":2006:2069   */\n  tag_65\n  jump\t// in\ntag_86:\n    /* \"#utility.yul\":1996:2069   */\n  swap11\n  pop\n  pop\n    /* \"#utility.yul\":2109:2111   */\n  0x40\n    /* \"#utility.yul\":2098:2107   */\n  dup13\n    /* \"#utility.yul\":2094:2112   */\n  add\n    /* \"#utility.yul\":2088:2113   */\n  mload\n    /* \"#utility.yul\":2078:2113   */\n  swap9\n  pop\n    /* \"#utility.yul\":2153:2155   */\n  0x60\n    /* \"#utility.yul\":2142:2151   */\n  dup13\n    /* \"#utility.yul\":2138:2156   */\n  add\n    /* \"#utility.yul\":2132:2157   */\n  mload\n    /* \"#utility.yul\":2122:2157   */\n  swap8\n  pop\n    /* \"#utility.yul\":2197:2200   */\n  0x80\n    /* \"#utility.yul\":2186:2195   */\n  dup13\n    /* \"#utility.yul\":2182:2201   */\n  add\n    /* \"#utility.yul\":2176:2202   */\n  mload\n    /* \"#utility.yul\":2166:2202   */\n  swap7\n  pop\n    /* \"#utility.yul\":2242:2245   */\n  0xa0\n    /* \"#utility.yul\":2231:2240   */\n  dup13\n    /* \"#utility.yul\":2227:2246   */\n  add\n    /* \"#utility.yul\":2221:2247   */\n  mload\n    /* \"#utility.yul\":2211:2247   */\n  swap6\n  pop\n    /* \"#utility.yul\":2287:2290   */\n  0xc0\n    /* \"#utility.yul\":2276:2285   */\n  dup13\n    /* \"#utility.yul\":2272:2291   */\n  add\n    /* \"#utility.yul\":2266:2292   */\n  mload\n    /* \"#utility.yul\":2256:2292   */\n  swap5\n  pop\n    /* \"#utility.yul\":2311:2361   */\n  tag_87\n    /* \"#utility.yul\":2356:2359   */\n  0xe0\n    /* \"#utility.yul\":2345:2354   */\n  dup14\n    /* \"#utility.yul\":2341:2360   */\n  add\n    /* \"#utility.yul\":2311:2361   */\n  tag_62\n  jump\t// in\ntag_87:\n    /* \"#utility.yul\":2301:2361   */\n  swap4\n  pop\n    /* \"#utility.yul\":2380:2430   */\n  tag_88\n    /* \"#utility.yul\":2425:2428   */\n  0x0100\n    /* \"#utility.yul\":2414:2423   */\n  dup14\n    /* \"#utility.yul\":2410:2429   */\n  add\n    /* \"#utility.yul\":2380:2430   */\n  tag_62\n  jump\t// in\ntag_88:\n    /* \"#utility.yul\":2370:2430   */\n  swap3\n  pop\n    /* \"#utility.yul\":2449:2499   */\n  tag_89\n    /* \"#utility.yul\":2494:2497   */\n  0x0120\n    /* \"#utility.yul\":2483:2492   */\n  dup14\n    /* \"#utility.yul\":2479:2498   */\n  add\n    /* \"#utility.yul\":2449:2499   */\n  tag_62\n  jump\t// in\ntag_89:\n    /* \"#utility.yul\":2439:2499   */\n  swap2\n  pop\n    /* \"#utility.yul\":2519:2569   */\n  tag_90\n    /* \"#utility.yul\":2564:2567   */\n  0x0140\n    /* \"#utility.yul\":2553:2562   */\n  dup14\n    /* \"#utility.yul\":2549:2568   */\n  add\n    /* \"#utility.yul\":2519:2569   */\n  tag_62\n  jump\t// in\ntag_90:\n    /* \"#utility.yul\":2508:2569   */\n  swap1\n  pop\n    /* \"#utility.yul\":1605:2575   */\n  swap3\n  swap6\n  swap9\n  swap12\n  pop\n  swap3\n  swap6\n  swap9\n  swap12\n  swap1\n  swap4\n  swap7\n  swap10\n  pop\n  jump\t// out\n    /* \"#utility.yul\":3071:3191   */\ntag_23:\n    /* \"#utility.yul\":3111:3112   */\n  0x00\n    /* \"#utility.yul\":3137:3138   */\n  dup3\n    /* \"#utility.yul\":3127:3129   */\n  tag_95\n  jumpi\n    /* \"#utility.yul\":3142:3160   */\n  tag_95\n  tag_96\n  jump\t// in\ntag_95:\n  pop\n    /* \"#utility.yul\":3176:3185   */\n  div\n  swap1\n    /* \"#utility.yul\":3117:3191   */\n  jump\t// out\n    /* \"#utility.yul\":3196:3618   */\ntag_97:\n    /* \"#utility.yul\":3285:3286   */\n  0x01\n    /* \"#utility.yul\":3328:3333   */\n  dup2\n    /* \"#utility.yul\":3285:3286   */\n  dup2\n    /* \"#utility.yul\":3342:3612   */\ntag_99:\n    /* \"#utility.yul\":3363:3370   */\n  dup1\n    /* \"#utility.yul\":3353:3361   */\n  dup6\n    /* \"#utility.yul\":3350:3371   */\n  gt\n    /* \"#utility.yul\":3342:3612   */\n  iszero\n  tag_101\n  jumpi\n    /* \"#utility.yul\":3422:3426   */\n  dup2\n    /* \"#utility.yul\":3418:3419   */\n  0x00\n    /* \"#utility.yul\":3414:3420   */\n  not\n    /* \"#utility.yul\":3410:3427   */\n  div\n    /* \"#utility.yul\":3404:3408   */\n  dup3\n    /* \"#utility.yul\":3401:3428   */\n  gt\n    /* \"#utility.yul\":3398:3400   */\n  iszero\n  tag_103\n  jumpi\n    /* \"#utility.yul\":3431:3449   */\n  tag_103\n  tag_104\n  jump\t// in\ntag_103:\n    /* \"#utility.yul\":3481:3488   */\n  dup1\n    /* \"#utility.yul\":3471:3479   */\n  dup6\n    /* \"#utility.yul\":3467:3489   */\n  and\n    /* \"#utility.yul\":3464:3466   */\n  iszero\n  tag_105\n  jumpi\n    /* \"#utility.yul\":3501:3517   */\n  swap2\n  dup2\n  mul\n  swap2\n    /* \"#utility.yul\":3464:3466   */\ntag_105:\n    /* \"#utility.yul\":3580:3602   */\n  swap4\n  dup5\n  shr\n  swap4\n    /* \"#utility.yul\":3540:3555   */\n  swap1\n  dup1\n  mul\n  swap1\n    /* \"#utility.yul\":3342:3612   */\n  jump(tag_99)\ntag_101:\n    /* \"#utility.yul\":3346:3349   */\n  pop\n    /* \"#utility.yul\":3260:3618   */\n  swap3\n  pop\n  swap3\n  swap1\n  pop\n  jump\t// out\n    /* \"#utility.yul\":3623:3754   */\ntag_13:\n    /* \"#utility.yul\":3683:3688   */\n  0x00\n    /* \"#utility.yul\":3712:3748   */\n  tag_80\n    /* \"#utility.yul\":3739:3747   */\n  dup4\n    /* \"#utility.yul\":3733:3737   */\n  dup4\n    /* \"#utility.yul\":3808:3813   */\n  0x00\n    /* \"#utility.yul\":3838:3846   */\n  dup3\n    /* \"#utility.yul\":3828:3830   */\n  tag_110\n  jumpi\n  pop\n    /* \"#utility.yul\":3879:3880   */\n  0x01\n    /* \"#utility.yul\":3893:3898   */\n  jump(tag_109)\n    /* \"#utility.yul\":3828:3830   */\ntag_110:\n    /* \"#utility.yul\":3927:3931   */\n  dup2\n    /* \"#utility.yul\":3917:3919   */\n  tag_111\n  jumpi\n  pop\n    /* \"#utility.yul\":3964:3965   */\n  0x00\n    /* \"#utility.yul\":3978:3983   */\n  jump(tag_109)\n    /* \"#utility.yul\":3917:3919   */\ntag_111:\n    /* \"#utility.yul\":4009:4013   */\n  dup2\n    /* \"#utility.yul\":4027:4028   */\n  0x01\n    /* \"#utility.yul\":4022:4081   */\n  dup2\n  eq\n  tag_113\n  jumpi\n    /* \"#utility.yul\":4095:4096   */\n  0x02\n    /* \"#utility.yul\":4090:4220   */\n  dup2\n  eq\n  tag_114\n  jumpi\n    /* \"#utility.yul\":4002:4220   */\n  jump(tag_112)\n    /* \"#utility.yul\":4022:4081   */\ntag_113:\n    /* \"#utility.yul\":4052:4053   */\n  0x01\n    /* \"#utility.yul\":4043:4053   */\n  swap2\n  pop\n    /* \"#utility.yul\":4066:4071   */\n  pop\n  jump(tag_109)\n    /* \"#utility.yul\":4090:4220   */\ntag_114:\n    /* \"#utility.yul\":4127:4130   */\n  0xff\n    /* \"#utility.yul\":4117:4125   */\n  dup5\n    /* \"#utility.yul\":4114:4131   */\n  gt\n    /* \"#utility.yul\":4111:4113   */\n  iszero\n  tag_116\n  jumpi\n    /* \"#utility.yul\":4134:4152   */\n  tag_116\n  tag_104\n  jump\t// in\ntag_116:\n  pop\n  pop\n    /* \"#utility.yul\":4190:4191   */\n  0x01\n    /* \"#utility.yul\":4176:4192   */\n  dup3\n  shl\n    /* \"#utility.yul\":4205:4210   */\n  jump(tag_109)\n    /* \"#utility.yul\":4002:4220   */\ntag_112:\n  pop\n    /* \"#utility.yul\":4304:4306   */\n  0x20\n    /* \"#utility.yul\":4294:4302   */\n  dup4\n    /* \"#utility.yul\":4291:4307   */\n  lt\n    /* \"#utility.yul\":4285:4288   */\n  0x0133\n    /* \"#utility.yul\":4279:4283   */\n  dup4\n    /* \"#utility.yul\":4276:4289   */\n  lt\n    /* \"#utility.yul\":4272:4308   */\n  and\n    /* \"#utility.yul\":4266:4268   */\n  0x4e\n    /* \"#utility.yul\":4256:4264   */\n  dup5\n    /* \"#utility.yul\":4253:4269   */\n  lt\n    /* \"#utility.yul\":4248:4250   */\n  0x0b\n    /* \"#utility.yul\":4242:4246   */\n  dup5\n    /* \"#utility.yul\":4239:4251   */\n  lt\n    /* \"#utility.yul\":4235:4270   */\n  and\n    /* \"#utility.yul\":4232:4309   */\n  or\n    /* \"#utility.yul\":4229:4231   */\n  iszero\n  tag_117\n  jumpi\n  pop\n    /* \"#utility.yul\":4341:4360   */\n  dup2\n  dup2\n  exp\n    /* \"#utility.yul\":4373:4378   */\n  jump(tag_109)\n    /* \"#utility.yul\":4229:4231   */\ntag_117:\n    /* \"#utility.yul\":4420:4454   */\n  tag_118\n    /* \"#utility.yul\":4445:4453   */\n  dup4\n    /* \"#utility.yul\":4439:4443   */\n  dup4\n    /* \"#utility.yul\":4420:4454   */\n  tag_97\n  jump\t// in\ntag_118:\n    /* \"#utility.yul\":4490:4496   */\n  dup1\n    /* \"#utility.yul\":4486:4487   */\n  0x00\n    /* \"#utility.yul\":4482:4488   */\n  not\n    /* \"#utility.yul\":4478:4497   */\n  div\n    /* \"#utility.yul\":4469:4476   */\n  dup3\n    /* \"#utility.yul\":4466:4498   */\n  gt\n    /* \"#utility.yul\":4463:4465   */\n  iszero\n  tag_120\n  jumpi\n    /* \"#utility.yul\":4501:4519   */\n  tag_120\n  tag_104\n  jump\t// in\ntag_120:\n    /* \"#utility.yul\":4539:4559   */\n  mul\n  swap1\n  pop\n    /* \"#utility.yul\":3818:4565   */\ntag_109:\n  swap3\n  swap2\n  pop\n  pop\n  jump\t// out\n    /* \"#utility.yul\":4570:4738   */\ntag_15:\n    /* \"#utility.yul\":4610:4617   */\n  0x00\n    /* \"#utility.yul\":4676:4677   */\n  dup2\n    /* \"#utility.yul\":4672:4673   */\n  0x00\n    /* \"#utility.yul\":4668:4674   */\n  not\n    /* \"#utility.yul\":4664:4678   */\n  div\n    /* \"#utility.yul\":4661:4662   */\n  dup4\n    /* \"#utility.yul\":4658:4679   */\n  gt\n    /* \"#utility.yul\":4653:4654   */\n  dup3\n    /* \"#utility.yul\":4646:4655   */\n  iszero\n    /* \"#utility.yul\":4639:4656   */\n  iszero\n    /* \"#utility.yul\":4635:4680   */\n  and\n    /* \"#utility.yul\":4632:4634   */\n  iszero\n  tag_123\n  jumpi\n    /* \"#utility.yul\":4683:4701   */\n  tag_123\n  tag_104\n  jump\t// in\ntag_123:\n  pop\n    /* \"#utility.yul\":4723:4732   */\n  mul\n  swap1\n    /* \"#utility.yul\":4622:4738   */\n  jump\t// out\n    /* \"#utility.yul\":4743:4868   */\ntag_19:\n    /* \"#utility.yul\":4783:4787   */\n  0x00\n    /* \"#utility.yul\":4811:4812   */\n  dup3\n    /* \"#utility.yul\":4808:4809   */\n  dup3\n    /* \"#utility.yul\":4805:4813   */\n  lt\n    /* \"#utility.yul\":4802:4804   */\n  iszero\n  tag_126\n  jumpi\n    /* \"#utility.yul\":4816:4834   */\n  tag_126\n  tag_104\n  jump\t// in\ntag_126:\n  pop\n    /* \"#utility.yul\":4853:4862   */\n  sub\n  swap1\n    /* \"#utility.yul\":4792:4868   */\n  jump\t// out\n    /* \"#utility.yul\":4873:5253   */\ntag_51:\n    /* \"#utility.yul\":4952:4953   */\n  0x01\n    /* \"#utility.yul\":4948:4960   */\n  dup2\n  dup2\n  shr\n  swap1\n    /* \"#utility.yul\":4995:5007   */\n  dup3\n  and\n  dup1\n    /* \"#utility.yul\":5016:5018   */\n  tag_128\n  jumpi\n    /* \"#utility.yul\":5070:5074   */\n  0x7f\n    /* \"#utility.yul\":5062:5068   */\n  dup3\n    /* \"#utility.yul\":5058:5075   */\n  and\n    /* \"#utility.yul\":5048:5075   */\n  swap2\n  pop\n    /* \"#utility.yul\":5016:5018   */\ntag_128:\n    /* \"#utility.yul\":5123:5125   */\n  0x20\n    /* \"#utility.yul\":5115:5121   */\n  dup3\n    /* \"#utility.yul\":5112:5126   */\n  lt\n    /* \"#utility.yul\":5092:5110   */\n  dup2\n    /* \"#utility.yul\":5089:5127   */\n  eq\n    /* \"#utility.yul\":5086:5088   */\n  iszero\n  tag_129\n  jumpi\n    /* \"#utility.yul\":5169:5179   */\n  0x4e487b71\n    /* \"#utility.yul\":5164:5167   */\n  0xe0\n    /* \"#utility.yul\":5160:5180   */\n  shl\n    /* \"#utility.yul\":5157:5158   */\n  0x00\n    /* \"#utility.yul\":5150:5181   */\n  mstore\n    /* \"#utility.yul\":5204:5208   */\n  0x22\n    /* \"#utility.yul\":5201:5202   */\n  0x04\n    /* \"#utility.yul\":5194:5209   */\n  mstore\n    /* \"#utility.yul\":5232:5236   */\n  0x24\n    /* \"#utility.yul\":5229:5230   */\n  0x00\n    /* \"#utility.yul\":5222:5237   */\n  revert\n    /* \"#utility.yul\":5086:5088   */\ntag_129:\n  pop\n    /* \"#utility.yul\":4928:5253   */\n  swap2\n  swap1\n  pop\n  jump\t// out\n    /* \"#utility.yul\":5258:5370   */\ntag_17:\n    /* \"#utility.yul\":5290:5291   */\n  0x00\n    /* \"#utility.yul\":5316:5317   */\n  dup3\n    /* \"#utility.yul\":5306:5308   */\n  tag_132\n  jumpi\n    /* \"#utility.yul\":5321:5339   */\n  tag_132\n  tag_96\n  jump\t// in\ntag_132:\n  pop\n    /* \"#utility.yul\":5355:5364   */\n  mod\n  swap1\n    /* \"#utility.yul\":5296:5370   */\n  jump\t// out\n    /* \"#utility.yul\":5375:5502   */\ntag_104:\n    /* \"#utility.yul\":5436:5446   */\n  0x4e487b71\n    /* \"#utility.yul\":5431:5434   */\n  0xe0\n    /* \"#utility.yul\":5427:5447   */\n  shl\n    /* \"#utility.yul\":5424:5425   */\n  0x00\n    /* \"#utility.yul\":5417:5448   */\n  mstore\n    /* \"#utility.yul\":5467:5471   */\n  0x11\n    /* \"#utility.yul\":5464:5465   */\n  0x04\n    /* \"#utility.yul\":5457:5472   */\n  mstore\n    /* \"#utility.yul\":5491:5495   */\n  0x24\n    /* \"#utility.yul\":5488:5489   */\n  0x00\n    /* \"#utility.yul\":5481:5496   */\n  revert\n    /* \"#utility.yul\":5507:5634   */\ntag_96:\n    /* \"#utility.yul\":5568:5578   */\n  0x4e487b71\n    /* \"#utility.yul\":5563:5566   */\n  0xe0\n    /* \"#utility.yul\":5559:5579   */\n  shl\n    /* \"#utility.yul\":5556:5557   */\n  0x00\n    /* \"#utility.yul\":5549:5580   */\n  mstore\n    /* \"#utility.yul\":5599:5603   */\n  0x12\n    /* \"#utility.yul\":5596:5597   */\n  0x04\n    /* \"#utility.yul\":5589:5604   */\n  mstore\n    /* \"#utility.yul\":5623:5627   */\n  0x24\n    /* \"#utility.yul\":5620:5621   */\n  0x00\n    /* \"#utility.yul\":5613:5628   */\n  revert\n    /* \"#utility.yul\":5639:5766   */\ntag_70:\n    /* \"#utility.yul\":5700:5710   */\n  0x4e487b71\n    /* \"#utility.yul\":5695:5698   */\n  0xe0\n    /* \"#utility.yul\":5691:5711   */\n  shl\n    /* \"#utility.yul\":5688:5689   */\n  0x00\n    /* \"#utility.yul\":5681:5712   */\n  mstore\n    /* \"#utility.yul\":5731:5735   */\n  0x41\n    /* \"#utility.yul\":5728:5729   */\n  0x04\n    /* \"#utility.yul\":5721:5736   */\n  mstore\n    /* \"#utility.yul\":5755:5759   */\n  0x24\n    /* \"#utility.yul\":5752:5753   */\n  0x00\n    /* \"#utility.yul\":5745:5760   */\n  revert\n    /* \"#utility.yul\":5671:5766   */\ntag_61:\n    /* \"asd.sol\":16735:35961  contract CoinToken is Context, IERC20, Ownable {\r... */\n  dataSize(sub_0)\n  dup1\n  dataOffset(sub_0)\n  0x00\n  codecopy\n  0x00\n  return\nstop\n\nsub_0: assembly {\n        /* \"asd.sol\":16735:35961  contract CoinToken is Context, IERC20, Ownable {\r... */\n      mstore(0x40, 0x80)\n      jumpi(tag_1, lt(calldatasize, 0x04))\n      shr(0xe0, calldataload(0x00))\n      dup1\n      0x6bc87c3a\n      gt\n      tag_48\n      jumpi\n      dup1\n      0xa9059cbb\n      gt\n      tag_49\n      jumpi\n      dup1\n      0xd543dbeb\n      gt\n      tag_50\n      jumpi\n      dup1\n      0xd543dbeb\n      eq\n      tag_42\n      jumpi\n      dup1\n      0xdd467064\n      eq\n      tag_43\n      jumpi\n      dup1\n      0xdd62ed3e\n      eq\n      tag_44\n      jumpi\n      dup1\n      0xea2f0b37\n      eq\n      tag_45\n      jumpi\n      dup1\n      0xf0f165af\n      eq\n      tag_46\n      jumpi\n      dup1\n      0xf2fde38b\n      eq\n      tag_47\n      jumpi\n      0x00\n      dup1\n      revert\n    tag_50:\n      dup1\n      0xa9059cbb\n      eq\n      tag_36\n      jumpi\n      dup1\n      0xaa45026b\n      eq\n      tag_37\n      jumpi\n      dup1\n      0xb2bdfa7b\n      eq\n      tag_38\n      jumpi\n      dup1\n      0xb425bac3\n      eq\n      tag_39\n      jumpi\n      dup1\n      0xc49b9a80\n      eq\n      tag_40\n      jumpi\n      dup1\n      0xd12a7688\n      eq\n      tag_41\n      jumpi\n      0x00\n      dup1\n      revert\n    tag_49:\n      dup1\n      0x88f82020\n      gt\n      tag_51\n      jumpi\n      dup1\n      0x88f82020\n      eq\n      tag_30\n      jumpi\n      dup1\n      0x8da5cb5b\n      eq\n      tag_31\n      jumpi\n      dup1\n      0x8ee88c53\n      eq\n      tag_32\n      jumpi\n      dup1\n      0x95d89b41\n      eq\n      tag_33\n      jumpi\n      dup1\n      0xa457c2d7\n      eq\n      tag_34\n      jumpi\n      dup1\n      0xa69df4b5\n      eq\n      tag_35\n      jumpi\n      0x00\n      dup1\n      revert\n    tag_51:\n      dup1\n      0x6bc87c3a\n      eq\n      tag_25\n      jumpi\n      dup1\n      0x70a08231\n      eq\n      tag_26\n      jumpi\n      dup1\n      0x715018a6\n      eq\n      tag_27\n      jumpi\n      dup1\n      0x79af25a6\n      eq\n      tag_28\n      jumpi\n      dup1\n      0x7d1db4a5\n      eq\n      tag_29\n      jumpi\n      0x00\n      dup1\n      revert\n    tag_48:\n      dup1\n      0x379e2919\n      gt\n      tag_52\n      jumpi\n      dup1\n      0x437823ec\n      gt\n      tag_53\n      jumpi\n      dup1\n      0x437823ec\n      eq\n      tag_19\n      jumpi\n      dup1\n      0x4549b039\n      eq\n      tag_20\n      jumpi\n      dup1\n      0x49bd5a5e\n      eq\n      tag_21\n      jumpi\n      dup1\n      0x4a74bb02\n      eq\n      tag_22\n      jumpi\n      dup1\n      0x52390c02\n      eq\n      tag_23\n      jumpi\n      dup1\n      0x5342acb4\n      eq\n      tag_24\n      jumpi\n      0x00\n      dup1\n      revert\n    tag_53:\n      dup1\n      0x379e2919\n      eq\n      tag_14\n      jumpi\n      dup1\n      0x39509351\n      eq\n      tag_15\n      jumpi\n      dup1\n      0x3b124fe7\n      eq\n      tag_16\n      jumpi\n      dup1\n      0x3bd5d173\n      eq\n      tag_17\n      jumpi\n      dup1\n      0x41cb87fc\n      eq\n      tag_18\n      jumpi\n      0x00\n      dup1\n      revert\n    tag_52:\n      dup1\n      0x1694505e\n      gt\n      tag_54\n      jumpi\n      dup1\n      0x1694505e\n      eq\n      tag_8\n      jumpi\n      dup1\n      0x18160ddd\n      eq\n      tag_9\n      jumpi\n      dup1\n      0x23b872dd\n      eq\n      tag_10\n      jumpi\n      dup1\n      0x2d838119\n      eq\n      tag_11\n      jumpi\n      dup1\n      0x313ce567\n      eq\n      tag_12\n      jumpi\n      dup1\n      0x3685d419\n      eq\n      tag_13\n      jumpi\n      0x00\n      dup1\n      revert\n    tag_54:\n      dup1\n      0x061c82d0\n      eq\n      tag_3\n      jumpi\n      dup1\n      0x06fdde03\n      eq\n      tag_4\n      jumpi\n      dup1\n      0x095ea7b3\n      eq\n      tag_5\n      jumpi\n      dup1\n      0x120a0612\n      eq\n      tag_6\n      jumpi\n      dup1\n      0x13114a9d\n      eq\n      tag_7\n      jumpi\n      0x00\n      dup1\n      revert\n    tag_1:\n      jumpi(tag_2, calldatasize)\n      stop\n    tag_2:\n      0x00\n      dup1\n      revert\n        /* \"asd.sol\":24850:24948  function setTaxFeePercent(uint256 taxFee) external onlyOwner() {\r... */\n    tag_3:\n      callvalue\n      dup1\n      iszero\n      tag_57\n      jumpi\n      0x00\n      dup1\n      revert\n    tag_57:\n      pop\n      tag_58\n      tag_59\n      calldatasize\n      0x04\n      tag_60\n      jump\t// in\n    tag_59:\n      tag_61\n      jump\t// in\n    tag_58:\n      stop\n        /* \"asd.sol\":19859:19942  function name() public view returns (string memory) {\r... */\n    tag_4:\n      callvalue\n      dup1\n      iszero\n      tag_62\n      jumpi\n      0x00\n      dup1\n      revert\n    tag_62:\n      pop\n      tag_63\n      tag_64\n      jump\t// in\n    tag_63:\n      mload(0x40)\n      tag_65\n      swap2\n      swap1\n      tag_66\n      jump\t// in\n    tag_65:\n      mload(0x40)\n      dup1\n      swap2\n      sub\n      swap1\n      return\n        /* \"asd.sol\":20773:20934  function approve(address spender, uint256 amount) public override returns (bool) {\r... */\n    tag_5:\n      callvalue\n      dup1\n      iszero\n      tag_67\n      jumpi\n      0x00\n      dup1\n      revert\n    tag_67:\n      pop\n      tag_68\n      tag_69\n      calldatasize\n      0x04\n      tag_70\n      jump\t// in\n    tag_69:\n      tag_71\n      jump\t// in\n    tag_68:\n      mload(0x40)\n        /* \"#utility.yul\":4179:4193   */\n      swap1\n      iszero\n        /* \"#utility.yul\":4172:4194   */\n      iszero\n        /* \"#utility.yul\":4154:4195   */\n      dup2\n      mstore\n        /* \"#utility.yul\":4142:4144   */\n      0x20\n        /* \"#utility.yul\":4127:4145   */\n      add\n        /* \"asd.sol\":20773:20934  function approve(address spender, uint256 amount) public override returns (bool) {\r... */\n      tag_65\n        /* \"#utility.yul\":4109:4201   */\n      jump\n        /* \"asd.sol\":25340:25445  function setDevWalletAddress(address _addr) public onlyOwner {\r... */\n    tag_6:\n      callvalue\n      dup1\n      iszero\n      tag_74\n      jumpi\n      0x00\n      dup1\n      revert\n    tag_74:\n      pop\n      tag_58\n      tag_76\n      calldatasize\n      0x04\n      tag_77\n      jump\t// in\n    tag_76:\n      tag_78\n      jump\t// in\n        /* \"asd.sol\":21894:21981  function totalFees() public view returns (uint256) {\r... */\n    tag_7:\n      callvalue\n      dup1\n      iszero\n      tag_79\n      jumpi\n      0x00\n      dup1\n      revert\n    tag_79:\n      pop\n        /* \"asd.sol\":21963:21973  _tFeeTotal */\n      sload(0x0c)\n        /* \"asd.sol\":21894:21981  function totalFees() public view returns (uint256) {\r... */\n    tag_80:\n      mload(0x40)\n        /* \"#utility.yul\":11049:11074   */\n      swap1\n      dup2\n      mstore\n        /* \"#utility.yul\":11037:11039   */\n      0x20\n        /* \"#utility.yul\":11022:11040   */\n      add\n        /* \"asd.sol\":21894:21981  function totalFees() public view returns (uint256) {\r... */\n      tag_65\n        /* \"#utility.yul\":11004:11080   */\n      jump\n        /* \"asd.sol\":17692:17733  IUniswapV2Router02 public uniswapV2Router */\n    tag_8:\n      callvalue\n      dup1\n      iszero\n      tag_84\n      jumpi\n      0x00\n      dup1\n      revert\n    tag_84:\n      pop\n      sload(0x16)\n      tag_85\n      swap1\n      sub(shl(0xa0, 0x01), 0x01)\n      and\n      dup2\n      jump\n    tag_85:\n      mload(0x40)\n      sub(shl(0xa0, 0x01), 0x01)\n        /* \"#utility.yul\":3049:3081   */\n      swap1\n      swap2\n      and\n        /* \"#utility.yul\":3031:3082   */\n      dup2\n      mstore\n        /* \"#utility.yul\":3019:3021   */\n      0x20\n        /* \"#utility.yul\":3004:3022   */\n      add\n        /* \"asd.sol\":17692:17733  IUniswapV2Router02 public uniswapV2Router */\n      tag_65\n        /* \"#utility.yul\":2986:3088   */\n      jump\n        /* \"asd.sol\":20138:20233  function totalSupply() public view override returns (uint256) {\r... */\n    tag_9:\n      callvalue\n      dup1\n      iszero\n      tag_89\n      jumpi\n      0x00\n      dup1\n      revert\n    tag_89:\n      pop\n        /* \"asd.sol\":20218:20225  _tTotal */\n      sload(0x0a)\n        /* \"asd.sol\":20138:20233  function totalSupply() public view override returns (uint256) {\r... */\n      jump(tag_80)\n        /* \"asd.sol\":20942:21255  function transferFrom(address sender, address recipient, uint256 amount) public override returns (bool) {\r... */\n    tag_10:\n      callvalue\n      dup1\n      iszero\n      tag_93\n      jumpi\n      0x00\n      dup1\n      revert\n    tag_93:\n      pop\n      tag_68\n      tag_95\n      calldatasize\n      0x04\n      tag_96\n      jump\t// in\n    tag_95:\n      tag_97\n      jump\t// in\n        /* \"asd.sol\":22821:23074  function tokenFromReflection(uint256 rAmount) public view returns(uint256) {\r... */\n    tag_11:\n      callvalue\n      dup1\n      iszero\n      tag_99\n      jumpi\n      0x00\n      dup1\n      revert\n    tag_99:\n      pop\n      tag_80\n      tag_101\n      calldatasize\n      0x04\n      tag_60\n      jump\t// in\n    tag_101:\n      tag_102\n      jump\t// in\n        /* \"asd.sol\":20045:20130  function decimals() public view returns (uint256) {\r... */\n    tag_12:\n      callvalue\n      dup1\n      iszero\n      tag_104\n      jumpi\n      0x00\n      dup1\n      revert\n    tag_104:\n      pop\n        /* \"asd.sol\":20113:20122  _decimals */\n      sload(0x0f)\n        /* \"asd.sol\":20045:20130  function decimals() public view returns (uint256) {\r... */\n      jump(tag_80)\n        /* \"asd.sol\":23423:23902  function includeInReward(address account) external onlyOwner() {\r... */\n    tag_13:\n      callvalue\n      dup1\n      iszero\n      tag_108\n      jumpi\n      0x00\n      dup1\n      revert\n    tag_108:\n      pop\n      tag_58\n      tag_110\n      calldatasize\n      0x04\n      tag_77\n      jump\t// in\n    tag_110:\n      tag_111\n      jump\t// in\n        /* \"asd.sol\":24956:25054  function setDevFeePercent(uint256 devFee) external onlyOwner() {\r... */\n    tag_14:\n      callvalue\n      dup1\n      iszero\n      tag_112\n      jumpi\n      0x00\n      dup1\n      revert\n    tag_112:\n      pop\n      tag_58\n      tag_114\n      calldatasize\n      0x04\n      tag_60\n      jump\t// in\n    tag_114:\n      tag_115\n      jump\t// in\n        /* \"asd.sol\":21263:21481  function increaseAllowance(address spender, uint256 addedValue) public virtual returns (bool) {\r... */\n    tag_15:\n      callvalue\n      dup1\n      iszero\n      tag_116\n      jumpi\n      0x00\n      dup1\n      revert\n    tag_116:\n      pop\n      tag_68\n      tag_118\n      calldatasize\n      0x04\n      tag_70\n      jump\t// in\n    tag_118:\n      tag_119\n      jump\t// in\n        /* \"asd.sol\":17479:17501  uint256 public _taxFee */\n    tag_16:\n      callvalue\n      dup1\n      iszero\n      tag_121\n      jumpi\n      0x00\n      dup1\n      revert\n    tag_121:\n      pop\n      tag_80\n      sload(0x10)\n      dup2\n      jump\n        /* \"asd.sol\":21989:22367  function deliver(uint256 tAmount) public {\r... */\n    tag_17:\n      callvalue\n      dup1\n      iszero\n      tag_125\n      jumpi\n      0x00\n      dup1\n      revert\n    tag_125:\n      pop\n      tag_58\n      tag_127\n      calldatasize\n      0x04\n      tag_60\n      jump\t// in\n    tag_127:\n      tag_128\n      jump\t// in\n        /* \"asd.sol\":35476:35794  function setRouterAddress(address newRouter) external onlyOwner {\r... */\n    tag_18:\n      callvalue\n      dup1\n      iszero\n      tag_129\n      jumpi\n      0x00\n      dup1\n      revert\n    tag_129:\n      pop\n      tag_58\n      tag_131\n      calldatasize\n      0x04\n      tag_77\n      jump\t// in\n    tag_131:\n      tag_132\n      jump\t// in\n        /* \"asd.sol\":24605:24716  function excludeFromFee(address account) public onlyOwner {\r... */\n    tag_19:\n      callvalue\n      dup1\n      iszero\n      tag_133\n      jumpi\n      0x00\n      dup1\n      revert\n    tag_133:\n      pop\n      tag_58\n      tag_135\n      calldatasize\n      0x04\n      tag_77\n      jump\t// in\n    tag_135:\n      tag_136\n      jump\t// in\n        /* \"asd.sol\":22375:22813  function reflectionFromToken(uint256 tAmount, bool deductTransferFee) public view returns(uint256) {\r... */\n    tag_20:\n      callvalue\n      dup1\n      iszero\n      tag_137\n      jumpi\n      0x00\n      dup1\n      revert\n    tag_137:\n      pop\n      tag_80\n      tag_139\n      calldatasize\n      0x04\n      tag_140\n      jump\t// in\n    tag_139:\n      tag_141\n      jump\t// in\n        /* \"asd.sol\":17740:17768  address public uniswapV2Pair */\n    tag_21:\n      callvalue\n      dup1\n      iszero\n      tag_143\n      jumpi\n      0x00\n      dup1\n      revert\n    tag_143:\n      pop\n      sload(0x17)\n      tag_85\n      swap1\n      sub(shl(0xa0, 0x01), 0x01)\n      and\n      dup2\n      jump\n        /* \"asd.sol\":17803:17843  bool public swapAndLiquifyEnabled = true */\n    tag_22:\n      callvalue\n      dup1\n      iszero\n      tag_148\n      jumpi\n      0x00\n      dup1\n      revert\n    tag_148:\n      pop\n      sload(0x17)\n      tag_68\n      swap1\n      shl(0xa8, 0x01)\n      swap1\n      div\n      0xff\n      and\n      dup2\n      jump\n        /* \"asd.sol\":23082:23415  function excludeFromReward(address account) public onlyOwner() {\r... */\n    tag_23:\n      callvalue\n      dup1\n      iszero\n      tag_152\n      jumpi\n      0x00\n      dup1\n      revert\n    tag_152:\n      pop\n      tag_58\n      tag_154\n      calldatasize\n      0x04\n      tag_77\n      jump\t// in\n    tag_154:\n      tag_155\n      jump\t// in\n        /* \"asd.sol\":29666:29789  function isExcludedFromFee(address account) public view returns(bool) {\r... */\n    tag_24:\n      callvalue\n      dup1\n      iszero\n      tag_156\n      jumpi\n      0x00\n      dup1\n      revert\n    tag_156:\n      pop\n      tag_68\n      tag_158\n      calldatasize\n      0x04\n      tag_77\n      jump\t// in\n    tag_158:\n      sub(shl(0xa0, 0x01), 0x01)\n        /* \"asd.sol\":29754:29781  _isExcludedFromFee[account] */\n      and\n        /* \"asd.sol\":29730:29734  bool */\n      0x00\n        /* \"asd.sol\":29754:29781  _isExcludedFromFee[account] */\n      swap1\n      dup2\n      mstore\n        /* \"asd.sol\":29754:29772  _isExcludedFromFee */\n      0x06\n        /* \"asd.sol\":29754:29781  _isExcludedFromFee[account] */\n      0x20\n      mstore\n      0x40\n      swap1\n      keccak256\n      sload\n      0xff\n      and\n      swap1\n        /* \"asd.sol\":29666:29789  function isExcludedFromFee(address account) public view returns(bool) {\r... */\n      jump\n        /* \"asd.sol\":17613:17641  uint256 public _liquidityFee */\n    tag_25:\n      callvalue\n      dup1\n      iszero\n      tag_161\n      jumpi\n      0x00\n      dup1\n      revert\n    tag_161:\n      pop\n      tag_80\n      sload(0x14)\n      dup2\n      jump\n        /* \"asd.sol\":20241:20439  function balanceOf(address account) public view override returns (uint256) {\r... */\n    tag_26:\n      callvalue\n      dup1\n      iszero\n      tag_165\n      jumpi\n      0x00\n      dup1\n      revert\n    tag_165:\n      pop\n      tag_80\n      tag_167\n      calldatasize\n      0x04\n      tag_77\n      jump\t// in\n    tag_167:\n      tag_168\n      jump\t// in\n        /* \"asd.sol\":7729:7877  function renounceOwnership() public virtual onlyOwner {\r... */\n    tag_27:\n      callvalue\n      dup1\n      iszero\n      tag_170\n      jumpi\n      0x00\n      dup1\n      revert\n    tag_170:\n      pop\n      tag_58\n      tag_172\n      jump\t// in\n        /* \"asd.sol\":7252:7276  uint256 public _lockTime */\n    tag_28:\n      callvalue\n      dup1\n      iszero\n      tag_173\n      jumpi\n      0x00\n      dup1\n      revert\n    tag_173:\n      pop\n      tag_80\n      sload(0x02)\n      dup2\n      jump\n        /* \"asd.sol\":17850:17877  uint256 public _maxTxAmount */\n    tag_29:\n      callvalue\n      dup1\n      iszero\n      tag_177\n      jumpi\n      0x00\n      dup1\n      revert\n    tag_177:\n      pop\n      tag_80\n      sload(0x18)\n      dup2\n      jump\n        /* \"asd.sol\":21766:21886  function isExcludedFromReward(address account) public view returns (bool) {\r... */\n    tag_30:\n      callvalue\n      dup1\n      iszero\n      tag_181\n      jumpi\n      0x00\n      dup1\n      revert\n    tag_181:\n      pop\n      tag_68\n      tag_183\n      calldatasize\n      0x04\n      tag_77\n      jump\t// in\n    tag_183:\n      sub(shl(0xa0, 0x01), 0x01)\n        /* \"asd.sol\":21858:21878  _isExcluded[account] */\n      and\n        /* \"asd.sol\":21834:21838  bool */\n      0x00\n        /* \"asd.sol\":21858:21878  _isExcluded[account] */\n      swap1\n      dup2\n      mstore\n        /* \"asd.sol\":21858:21869  _isExcluded */\n      0x07\n        /* \"asd.sol\":21858:21878  _isExcluded[account] */\n      0x20\n      mstore\n      0x40\n      swap1\n      keccak256\n      sload\n      0xff\n      and\n      swap1\n        /* \"asd.sol\":21766:21886  function isExcludedFromReward(address account) public view returns (bool) {\r... */\n      jump\n        /* \"asd.sol\":7498:7585  function owner() public view virtual returns (address) {\r... */\n    tag_31:\n      callvalue\n      dup1\n      iszero\n      tag_186\n      jumpi\n      0x00\n      dup1\n      revert\n    tag_186:\n      pop\n        /* \"asd.sol\":7544:7551  address */\n      0x00\n        /* \"asd.sol\":7571:7577  _owner */\n      sload\n      sub(shl(0xa0, 0x01), 0x01)\n      and\n        /* \"asd.sol\":7498:7585  function owner() public view virtual returns (address) {\r... */\n      jump(tag_85)\n        /* \"asd.sol\":25066:25188  function setLiquidityFeePercent(uint256 liquidityFee) external onlyOwner() {\r... */\n    tag_32:\n      callvalue\n      dup1\n      iszero\n      tag_190\n      jumpi\n      0x00\n      dup1\n      revert\n    tag_190:\n      pop\n      tag_58\n      tag_192\n      calldatasize\n      0x04\n      tag_60\n      jump\t// in\n    tag_192:\n      tag_193\n      jump\t// in\n        /* \"asd.sol\":19950:20037  function symbol() public view returns (string memory) {\r... */\n    tag_33:\n      callvalue\n      dup1\n      iszero\n      tag_194\n      jumpi\n      0x00\n      dup1\n      revert\n    tag_194:\n      pop\n      tag_63\n      tag_196\n      jump\t// in\n        /* \"asd.sol\":21489:21758  function decreaseAllowance(address spender, uint256 subtractedValue) public virtual returns (bool) {\r... */\n    tag_34:\n      callvalue\n      dup1\n      iszero\n      tag_198\n      jumpi\n      0x00\n      dup1\n      revert\n    tag_198:\n      pop\n      tag_68\n      tag_200\n      calldatasize\n      0x04\n      tag_70\n      jump\t// in\n    tag_200:\n      tag_201\n      jump\t// in\n        /* \"asd.sol\":8497:8791  function unlock() public virtual {\r... */\n    tag_35:\n      callvalue\n      dup1\n      iszero\n      tag_203\n      jumpi\n      0x00\n      dup1\n      revert\n    tag_203:\n      pop\n      tag_58\n      tag_205\n      jump\t// in\n        /* \"asd.sol\":20447:20614  function transfer(address recipient, uint256 amount) public override returns (bool) {\r... */\n    tag_36:\n      callvalue\n      dup1\n      iszero\n      tag_206\n      jumpi\n      0x00\n      dup1\n      revert\n    tag_206:\n      pop\n      tag_68\n      tag_208\n      calldatasize\n      0x04\n      tag_70\n      jump\t// in\n    tag_208:\n      tag_209\n      jump\t// in\n        /* \"asd.sol\":17546:17568  uint256 public _devFee */\n    tag_37:\n      callvalue\n      dup1\n      iszero\n      tag_211\n      jumpi\n      0x00\n      dup1\n      revert\n    tag_211:\n      pop\n      tag_80\n      sload(0x12)\n      dup2\n      jump\n        /* \"asd.sol\":7187:7208  address public _owner */\n    tag_38:\n      callvalue\n      dup1\n      iszero\n      tag_215\n      jumpi\n      0x00\n      dup1\n      revert\n    tag_215:\n      pop\n      sload(0x00)\n      tag_85\n      swap1\n      sub(shl(0xa0, 0x01), 0x01)\n      and\n      dup2\n      jump\n        /* \"asd.sol\":17179:17211  address public _devWalletAddress */\n    tag_39:\n      callvalue\n      dup1\n      iszero\n      tag_219\n      jumpi\n      0x00\n      dup1\n      revert\n    tag_219:\n      pop\n      sload(0x09)\n      tag_85\n      swap1\n      sub(shl(0xa0, 0x01), 0x01)\n      and\n      dup2\n      jump\n        /* \"asd.sol\":25459:25630  function setSwapAndLiquifyEnabled(bool _enabled) public onlyOwner {\r... */\n    tag_40:\n      callvalue\n      dup1\n      iszero\n      tag_223\n      jumpi\n      0x00\n      dup1\n      revert\n    tag_223:\n      pop\n      tag_58\n      tag_225\n      calldatasize\n      0x04\n      tag_226\n      jump\t// in\n    tag_225:\n      tag_227\n      jump\t// in\n        /* \"asd.sol\":17884:17928  uint256 public numTokensSellToAddToLiquidity */\n    tag_41:\n      callvalue\n      dup1\n      iszero\n      tag_228\n      jumpi\n      0x00\n      dup1\n      revert\n    tag_228:\n      pop\n      tag_80\n      sload(0x19)\n      dup2\n      jump\n        /* \"asd.sol\":25199:25328  function setMaxTxPercent(uint256 maxTxPercent) public onlyOwner {\r... */\n    tag_42:\n      callvalue\n      dup1\n      iszero\n      tag_232\n      jumpi\n      0x00\n      dup1\n      revert\n    tag_232:\n      pop\n      tag_58\n      tag_234\n      calldatasize\n      0x04\n      tag_60\n      jump\t// in\n    tag_234:\n      tag_235\n      jump\t// in\n        /* \"asd.sol\":8213:8421  function lock(uint256 time) public virtual onlyOwner {\r... */\n    tag_43:\n      callvalue\n      dup1\n      iszero\n      tag_236\n      jumpi\n      0x00\n      dup1\n      revert\n    tag_236:\n      pop\n      tag_58\n      tag_238\n      calldatasize\n      0x04\n      tag_60\n      jump\t// in\n    tag_238:\n      tag_239\n      jump\t// in\n        /* \"asd.sol\":20622:20765  function allowance(address owner, address spender) public view override returns (uint256) {\r... */\n    tag_44:\n      callvalue\n      dup1\n      iszero\n      tag_240\n      jumpi\n      0x00\n      dup1\n      revert\n    tag_240:\n      pop\n      tag_80\n      tag_242\n      calldatasize\n      0x04\n      tag_243\n      jump\t// in\n    tag_242:\n      sub(shl(0xa0, 0x01), 0x01)\n        /* \"asd.sol\":20730:20748  _allowances[owner] */\n      swap2\n      dup3\n      and\n        /* \"asd.sol\":20703:20710  uint256 */\n      0x00\n        /* \"asd.sol\":20730:20748  _allowances[owner] */\n      swap1\n      dup2\n      mstore\n        /* \"asd.sol\":20730:20741  _allowances */\n      0x05\n        /* \"asd.sol\":20730:20748  _allowances[owner] */\n      0x20\n      swap1\n      dup2\n      mstore\n      0x40\n      dup1\n      dup4\n      keccak256\n        /* \"asd.sol\":20730:20757  _allowances[owner][spender] */\n      swap4\n      swap1\n      swap5\n      and\n      dup3\n      mstore\n      swap2\n      swap1\n      swap2\n      mstore\n      keccak256\n      sload\n      swap1\n        /* \"asd.sol\":20622:20765  function allowance(address owner, address spender) public view override returns (uint256) {\r... */\n      jump\n        /* \"asd.sol\":24728:24838  function includeInFee(address account) public onlyOwner {\r... */\n    tag_45:\n      callvalue\n      dup1\n      iszero\n      tag_246\n      jumpi\n      0x00\n      dup1\n      revert\n    tag_246:\n      pop\n      tag_58\n      tag_248\n      calldatasize\n      0x04\n      tag_77\n      jump\t// in\n    tag_248:\n      tag_249\n      jump\t// in\n        /* \"asd.sol\":35802:35952  function setNumTokensSellToAddToLiquidity(uint256 amountToUpdate) external onlyOwner {\r... */\n    tag_46:\n      callvalue\n      dup1\n      iszero\n      tag_250\n      jumpi\n      0x00\n      dup1\n      revert\n    tag_250:\n      pop\n      tag_58\n      tag_252\n      calldatasize\n      0x04\n      tag_60\n      jump\t// in\n    tag_252:\n      tag_253\n      jump\t// in\n        /* \"asd.sol\":7887:8131  function transferOwnership(address newOwner) public virtual onlyOwner {\r... */\n    tag_47:\n      callvalue\n      dup1\n      iszero\n      tag_254\n      jumpi\n      0x00\n      dup1\n      revert\n    tag_254:\n      pop\n      tag_58\n      tag_256\n      calldatasize\n      0x04\n      tag_77\n      jump\t// in\n    tag_256:\n      tag_257\n      jump\t// in\n        /* \"asd.sol\":24850:24948  function setTaxFeePercent(uint256 taxFee) external onlyOwner() {\r... */\n    tag_61:\n        /* \"asd.sol\":7544:7551  address */\n      0x00\n        /* \"asd.sol\":7571:7577  _owner */\n      sload\n      sub(shl(0xa0, 0x01), 0x01)\n      and\n        /* \"asd.sol\":3534:3544  msg.sender */\n      caller\n        /* \"asd.sol\":7637:7660  owner() == _msgSender() */\n      eq\n        /* \"asd.sol\":7629:7697  require(owner() == _msgSender(), \"Ownable: caller is not the owner\") */\n      tag_262\n      jumpi\n      mload(0x40)\n      shl(0xe5, 0x461bcd)\n      dup2\n      mstore\n      0x04\n      add\n      tag_263\n      swap1\n      tag_264\n      jump\t// in\n    tag_263:\n      mload(0x40)\n      dup1\n      swap2\n      sub\n      swap1\n      revert\n    tag_262:\n        /* \"asd.sol\":24924:24931  _taxFee */\n      0x10\n        /* \"asd.sol\":24924:24940  _taxFee = taxFee */\n      sstore\n        /* \"asd.sol\":24850:24948  function setTaxFeePercent(uint256 taxFee) external onlyOwner() {\r... */\n      jump\t// out\n        /* \"asd.sol\":19859:19942  function name() public view returns (string memory) {\r... */\n    tag_64:\n        /* \"asd.sol\":19896:19909  string memory */\n      0x60\n        /* \"asd.sol\":19929:19934  _name */\n      0x0d\n        /* \"asd.sol\":19922:19934  return _name */\n      dup1\n      sload\n      tag_267\n      swap1\n      tag_268\n      jump\t// in\n    tag_267:\n      dup1\n      0x1f\n      add\n      0x20\n      dup1\n      swap2\n      div\n      mul\n      0x20\n      add\n      mload(0x40)\n      swap1\n      dup2\n      add\n      0x40\n      mstore\n      dup1\n      swap3\n      swap2\n      swap1\n      dup2\n      dup2\n      mstore\n      0x20\n      add\n      dup3\n      dup1\n      sload\n      tag_269\n      swap1\n      tag_268\n      jump\t// in\n    tag_269:\n      dup1\n      iszero\n      tag_270\n      jumpi\n      dup1\n      0x1f\n      lt\n      tag_271\n      jumpi\n      0x0100\n      dup1\n      dup4\n      sload\n      div\n      mul\n      dup4\n      mstore\n      swap2\n      0x20\n      add\n      swap2\n      jump(tag_270)\n    tag_271:\n      dup3\n      add\n      swap2\n      swap1\n      0x00\n      mstore\n      keccak256(0x00, 0x20)\n      swap1\n    tag_272:\n      dup2\n      sload\n      dup2\n      mstore\n      swap1\n      0x01\n      add\n      swap1\n      0x20\n      add\n      dup1\n      dup4\n      gt\n      tag_272\n      jumpi\n      dup3\n      swap1\n      sub\n      0x1f\n      and\n      dup3\n      add\n      swap2\n    tag_270:\n      pop\n      pop\n      pop\n      pop\n      pop\n      swap1\n      pop\n        /* \"asd.sol\":19859:19942  function name() public view returns (string memory) {\r... */\n      swap1\n      jump\t// out\n        /* \"asd.sol\":20773:20934  function approve(address spender, uint256 amount) public override returns (bool) {\r... */\n    tag_71:\n        /* \"asd.sol\":20848:20852  bool */\n      0x00\n        /* \"asd.sol\":20865:20904  _approve(_msgSender(), spender, amount) */\n      tag_274\n        /* \"asd.sol\":3534:3544  msg.sender */\n      caller\n        /* \"asd.sol\":20888:20895  spender */\n      dup5\n        /* \"asd.sol\":20897:20903  amount */\n      dup5\n        /* \"asd.sol\":20865:20873  _approve */\n      tag_276\n        /* \"asd.sol\":20865:20904  _approve(_msgSender(), spender, amount) */\n      jump\t// in\n    tag_274:\n      pop\n        /* \"asd.sol\":20922:20926  true */\n      0x01\n        /* \"asd.sol\":20773:20934  function approve(address spender, uint256 amount) public override returns (bool) {\r... */\n    tag_273:\n      swap3\n      swap2\n      pop\n      pop\n      jump\t// out\n        /* \"asd.sol\":25340:25445  function setDevWalletAddress(address _addr) public onlyOwner {\r... */\n    tag_78:\n        /* \"asd.sol\":7544:7551  address */\n      0x00\n        /* \"asd.sol\":7571:7577  _owner */\n      sload\n      sub(shl(0xa0, 0x01), 0x01)\n      and\n        /* \"asd.sol\":3534:3544  msg.sender */\n      caller\n        /* \"asd.sol\":7637:7660  owner() == _msgSender() */\n      eq\n        /* \"asd.sol\":7629:7697  require(owner() == _msgSender(), \"Ownable: caller is not the owner\") */\n      tag_280\n      jumpi\n      mload(0x40)\n      shl(0xe5, 0x461bcd)\n      dup2\n      mstore\n      0x04\n      add\n      tag_263\n      swap1\n      tag_264\n      jump\t// in\n    tag_280:\n        /* \"asd.sol\":25412:25429  _devWalletAddress */\n      0x09\n        /* \"asd.sol\":25412:25437  _devWalletAddress = _addr */\n      dup1\n      sload\n      not(sub(shl(0xa0, 0x01), 0x01))\n      and\n      sub(shl(0xa0, 0x01), 0x01)\n      swap3\n      swap1\n      swap3\n      and\n      swap2\n      swap1\n      swap2\n      or\n      swap1\n      sstore\n        /* \"asd.sol\":25340:25445  function setDevWalletAddress(address _addr) public onlyOwner {\r... */\n      jump\t// out\n        /* \"asd.sol\":20942:21255  function transferFrom(address sender, address recipient, uint256 amount) public override returns (bool) {\r... */\n    tag_97:\n        /* \"asd.sol\":21040:21044  bool */\n      0x00\n        /* \"asd.sol\":21057:21093  _transfer(sender, recipient, amount) */\n      tag_286\n        /* \"asd.sol\":21067:21073  sender */\n      dup5\n        /* \"asd.sol\":21075:21084  recipient */\n      dup5\n        /* \"asd.sol\":21086:21092  amount */\n      dup5\n        /* \"asd.sol\":21057:21066  _transfer */\n      tag_287\n        /* \"asd.sol\":21057:21093  _transfer(sender, recipient, amount) */\n      jump\t// in\n    tag_286:\n        /* \"asd.sol\":21104:21225  _approve(sender, _msgSender(), _allowances[sender][_msgSender()].sub(amount, \"ERC20: transfer amount exceeds allowance\")) */\n      tag_288\n        /* \"asd.sol\":21113:21119  sender */\n      dup5\n        /* \"asd.sol\":3534:3544  msg.sender */\n      caller\n        /* \"asd.sol\":21135:21224  _allowances[sender][_msgSender()].sub(amount, \"ERC20: transfer amount exceeds allowance\") */\n      tag_290\n        /* \"asd.sol\":21173:21179  amount */\n      dup6\n        /* \"asd.sol\":21135:21224  _allowances[sender][_msgSender()].sub(amount, \"ERC20: transfer amount exceeds allowance\") */\n      mload(0x40)\n      dup1\n      0x60\n      add\n      0x40\n      mstore\n      dup1\n      0x28\n      dup2\n      mstore\n      0x20\n      add\n      data_974d1b4421da69cc60b481194f0dad36a5bb4e23da810da7a7fb30cdba178330\n      0x28\n      swap2\n      codecopy\n      sub(shl(0xa0, 0x01), 0x01)\n        /* \"asd.sol\":21135:21154  _allowances[sender] */\n      dup11\n      and\n      0x00\n      swap1\n      dup2\n      mstore\n        /* \"asd.sol\":21135:21146  _allowances */\n      0x05\n        /* \"asd.sol\":21135:21154  _allowances[sender] */\n      0x20\n      swap1\n      dup2\n      mstore\n      0x40\n      dup1\n      dup4\n      keccak256\n        /* \"asd.sol\":3534:3544  msg.sender */\n      caller\n        /* \"asd.sol\":21135:21168  _allowances[sender][_msgSender()] */\n      dup5\n      mstore\n      swap1\n      swap2\n      mstore\n      swap1\n      keccak256\n      sload\n      swap2\n      swap1\n        /* \"asd.sol\":21135:21172  _allowances[sender][_msgSender()].sub */\n      tag_292\n        /* \"asd.sol\":21135:21224  _allowances[sender][_msgSender()].sub(amount, \"ERC20: transfer amount exceeds allowance\") */\n      jump\t// in\n    tag_290:\n        /* \"asd.sol\":21104:21112  _approve */\n      tag_276\n        /* \"asd.sol\":21104:21225  _approve(sender, _msgSender(), _allowances[sender][_msgSender()].sub(amount, \"ERC20: transfer amount exceeds allowance\")) */\n      jump\t// in\n    tag_288:\n      pop\n        /* \"asd.sol\":21243:21247  true */\n      0x01\n        /* \"asd.sol\":20942:21255  function transferFrom(address sender, address recipient, uint256 amount) public override returns (bool) {\r... */\n      swap4\n      swap3\n      pop\n      pop\n      pop\n      jump\t// out\n        /* \"asd.sol\":22821:23074  function tokenFromReflection(uint256 rAmount) public view returns(uint256) {\r... */\n    tag_102:\n        /* \"asd.sol\":22887:22894  uint256 */\n      0x00\n        /* \"asd.sol\":22926:22933  _rTotal */\n      sload(0x0b)\n        /* \"asd.sol\":22915:22922  rAmount */\n      dup3\n        /* \"asd.sol\":22915:22933  rAmount <= _rTotal */\n      gt\n      iszero\n        /* \"asd.sol\":22907:22980  require(rAmount <= _rTotal, \"Amount must be less than total reflections\") */\n      tag_294\n      jumpi\n      mload(0x40)\n      shl(0xe5, 0x461bcd)\n      dup2\n      mstore\n        /* \"#utility.yul\":5655:5657   */\n      0x20\n        /* \"asd.sol\":22907:22980  require(rAmount <= _rTotal, \"Amount must be less than total reflections\") */\n      0x04\n      dup3\n      add\n        /* \"#utility.yul\":5637:5658   */\n      mstore\n        /* \"#utility.yul\":5694:5696   */\n      0x2a\n        /* \"#utility.yul\":5674:5692   */\n      0x24\n      dup3\n      add\n        /* \"#utility.yul\":5667:5697   */\n      mstore\n        /* \"#utility.yul\":5733:5767   */\n      0x416d6f756e74206d757374206265206c657373207468616e20746f74616c2072\n        /* \"#utility.yul\":5713:5731   */\n      0x44\n      dup3\n      add\n        /* \"#utility.yul\":5706:5768   */\n      mstore\n      shl(0xb0, 0x65666c656374696f6e73)\n        /* \"#utility.yul\":5784:5802   */\n      0x64\n      dup3\n      add\n        /* \"#utility.yul\":5777:5817   */\n      mstore\n        /* \"#utility.yul\":5834:5853   */\n      0x84\n      add\n        /* \"asd.sol\":22907:22980  require(rAmount <= _rTotal, \"Amount must be less than total reflections\") */\n      tag_263\n        /* \"#utility.yul\":5627:5859   */\n      jump\n        /* \"asd.sol\":22907:22980  require(rAmount <= _rTotal, \"Amount must be less than total reflections\") */\n    tag_294:\n        /* \"asd.sol\":22991:23010  uint256 currentRate */\n      0x00\n        /* \"asd.sol\":23014:23024  _getRate() */\n      tag_297\n        /* \"asd.sol\":23014:23022  _getRate */\n      tag_298\n        /* \"asd.sol\":23014:23024  _getRate() */\n      jump\t// in\n    tag_297:\n        /* \"asd.sol\":22991:23024  uint256 currentRate =  _getRate() */\n      swap1\n      pop\n        /* \"asd.sol\":23042:23066  rAmount.div(currentRate) */\n      tag_299\n        /* \"asd.sol\":23042:23049  rAmount */\n      dup4\n        /* \"asd.sol\":22991:23024  uint256 currentRate =  _getRate() */\n      dup3\n        /* \"asd.sol\":23042:23053  rAmount.div */\n      tag_300\n        /* \"asd.sol\":23042:23066  rAmount.div(currentRate) */\n      jump\t// in\n    tag_299:\n        /* \"asd.sol\":23035:23066  return rAmount.div(currentRate) */\n      swap4\n        /* \"asd.sol\":22821:23074  function tokenFromReflection(uint256 rAmount) public view returns(uint256) {\r... */\n      swap3\n      pop\n      pop\n      pop\n      jump\t// out\n        /* \"asd.sol\":23423:23902  function includeInReward(address account) external onlyOwner() {\r... */\n    tag_111:\n        /* \"asd.sol\":7544:7551  address */\n      0x00\n        /* \"asd.sol\":7571:7577  _owner */\n      sload\n      sub(shl(0xa0, 0x01), 0x01)\n      and\n        /* \"asd.sol\":3534:3544  msg.sender */\n      caller\n        /* \"asd.sol\":7637:7660  owner() == _msgSender() */\n      eq\n        /* \"asd.sol\":7629:7697  require(owner() == _msgSender(), \"Ownable: caller is not the owner\") */\n      tag_305\n      jumpi\n      mload(0x40)\n      shl(0xe5, 0x461bcd)\n      dup2\n      mstore\n      0x04\n      add\n      tag_263\n      swap1\n      tag_264\n      jump\t// in\n    tag_305:\n      sub(shl(0xa0, 0x01), 0x01)\n        /* \"asd.sol\":23505:23525  _isExcluded[account] */\n      dup2\n      and\n      0x00\n      swap1\n      dup2\n      mstore\n        /* \"asd.sol\":23505:23516  _isExcluded */\n      0x07\n        /* \"asd.sol\":23505:23525  _isExcluded[account] */\n      0x20\n      mstore\n      0x40\n      swap1\n      keccak256\n      sload\n      0xff\n      and\n        /* \"asd.sol\":23497:23557  require(_isExcluded[account], \"Account is already included\") */\n      tag_308\n      jumpi\n      mload(0x40)\n      shl(0xe5, 0x461bcd)\n      dup2\n      mstore\n        /* \"#utility.yul\":7232:7234   */\n      0x20\n        /* \"asd.sol\":23497:23557  require(_isExcluded[account], \"Account is already included\") */\n      0x04\n      dup3\n      add\n        /* \"#utility.yul\":7214:7235   */\n      mstore\n        /* \"#utility.yul\":7271:7273   */\n      0x1b\n        /* \"#utility.yul\":7251:7269   */\n      0x24\n      dup3\n      add\n        /* \"#utility.yul\":7244:7274   */\n      mstore\n        /* \"#utility.yul\":7310:7339   */\n      0x4163636f756e7420697320616c726561647920696e636c756465640000000000\n        /* \"#utility.yul\":7290:7308   */\n      0x44\n      dup3\n      add\n        /* \"#utility.yul\":7283:7340   */\n      mstore\n        /* \"#utility.yul\":7357:7375   */\n      0x64\n      add\n        /* \"asd.sol\":23497:23557  require(_isExcluded[account], \"Account is already included\") */\n      tag_263\n        /* \"#utility.yul\":7204:7381   */\n      jump\n        /* \"asd.sol\":23497:23557  require(_isExcluded[account], \"Account is already included\") */\n    tag_308:\n        /* \"asd.sol\":23573:23582  uint256 i */\n      0x00\n        /* \"asd.sol\":23568:23895  for (uint256 i = 0; i < _excluded.length; i++) {\r... */\n    tag_311:\n        /* \"asd.sol\":23592:23601  _excluded */\n      0x08\n        /* \"asd.sol\":23592:23608  _excluded.length */\n      sload\n        /* \"asd.sol\":23588:23608  i < _excluded.length */\n      dup2\n      lt\n        /* \"asd.sol\":23568:23895  for (uint256 i = 0; i < _excluded.length; i++) {\r... */\n      iszero\n      tag_312\n      jumpi\n        /* \"asd.sol\":23650:23657  account */\n      dup2\n      sub(shl(0xa0, 0x01), 0x01)\n        /* \"asd.sol\":23634:23657  _excluded[i] == account */\n      and\n        /* \"asd.sol\":23634:23643  _excluded */\n      0x08\n        /* \"asd.sol\":23644:23645  i */\n      dup3\n        /* \"asd.sol\":23634:23646  _excluded[i] */\n      dup2\n      sload\n      dup2\n      lt\n      tag_314\n      jumpi\n      mstore(0x00, shl(0xe0, 0x4e487b71))\n      mstore(0x04, 0x32)\n      revert(0x00, 0x24)\n    tag_314:\n      0x00\n      swap2\n      dup3\n      mstore\n      0x20\n      swap1\n      swap2\n      keccak256\n      add\n      sload\n      sub(shl(0xa0, 0x01), 0x01)\n      and\n        /* \"asd.sol\":23634:23657  _excluded[i] == account */\n      eq\n        /* \"asd.sol\":23630:23884  if (_excluded[i] == account) {\r... */\n      iszero\n      tag_316\n      jumpi\n        /* \"asd.sol\":23693:23702  _excluded */\n      0x08\n        /* \"asd.sol\":23703:23719  _excluded.length */\n      dup1\n      sload\n        /* \"asd.sol\":23703:23723  _excluded.length - 1 */\n      tag_317\n      swap1\n        /* \"asd.sol\":23722:23723  1 */\n      0x01\n      swap1\n        /* \"asd.sol\":23703:23723  _excluded.length - 1 */\n      tag_318\n      jump\t// in\n    tag_317:\n        /* \"asd.sol\":23693:23724  _excluded[_excluded.length - 1] */\n      dup2\n      sload\n      dup2\n      lt\n      tag_319\n      jumpi\n      mstore(0x00, shl(0xe0, 0x4e487b71))\n      mstore(0x04, 0x32)\n      revert(0x00, 0x24)\n    tag_319:\n      0x00\n      swap2\n      dup3\n      mstore\n      0x20\n      swap1\n      swap2\n      keccak256\n      add\n      sload\n        /* \"asd.sol\":23678:23687  _excluded */\n      0x08\n        /* \"asd.sol\":23678:23690  _excluded[i] */\n      dup1\n      sload\n      sub(shl(0xa0, 0x01), 0x01)\n        /* \"asd.sol\":23693:23724  _excluded[_excluded.length - 1] */\n      swap1\n      swap3\n      and\n      swap2\n        /* \"asd.sol\":23688:23689  i */\n      dup4\n      swap1\n        /* \"asd.sol\":23678:23690  _excluded[i] */\n      dup2\n      lt\n      tag_321\n      jumpi\n      mstore(0x00, shl(0xe0, 0x4e487b71))\n      mstore(0x04, 0x32)\n      revert(0x00, 0x24)\n    tag_321:\n      0x00\n      swap2\n      dup3\n      mstore\n      0x20\n      dup1\n      dup4\n      keccak256\n      swap2\n      swap1\n      swap2\n      add\n        /* \"asd.sol\":23678:23724  _excluded[i] = _excluded[_excluded.length - 1] */\n      dup1\n      sload\n      not(sub(shl(0xa0, 0x01), 0x01))\n      and\n      sub(shl(0xa0, 0x01), 0x01)\n      swap5\n      dup6\n      and\n      or\n      swap1\n      sstore\n        /* \"asd.sol\":23743:23759  _tOwned[account] */\n      swap2\n      dup5\n      and\n      dup2\n      mstore\n        /* \"asd.sol\":23743:23750  _tOwned */\n      0x04\n        /* \"asd.sol\":23743:23759  _tOwned[account] */\n      dup3\n      mstore\n      0x40\n      dup1\n      dup3\n      keccak256\n        /* \"asd.sol\":23743:23763  _tOwned[account] = 0 */\n      dup3\n      swap1\n      sstore\n        /* \"asd.sol\":23782:23793  _isExcluded */\n      0x07\n        /* \"asd.sol\":23782:23802  _isExcluded[account] */\n      swap1\n      swap3\n      mstore\n      keccak256\n        /* \"asd.sol\":23782:23810  _isExcluded[account] = false */\n      dup1\n      sload\n      not(0xff)\n      and\n      swap1\n      sstore\n        /* \"asd.sol\":23829:23838  _excluded */\n      0x08\n        /* \"asd.sol\":23829:23844  _excluded.pop() */\n      dup1\n      sload\n      dup1\n      tag_323\n      jumpi\n      mstore(0x00, shl(0xe0, 0x4e487b71))\n      mstore(0x04, 0x31)\n      revert(0x00, 0x24)\n    tag_323:\n      0x00\n      dup3\n      dup2\n      mstore\n      0x20\n      swap1\n      keccak256\n      dup2\n      add\n      not(0x00)\n      swap1\n      dup2\n      add\n      dup1\n      sload\n      not(sub(shl(0xa0, 0x01), 0x01))\n      and\n      swap1\n      sstore\n      add\n      swap1\n      sstore\n        /* \"asd.sol\":23568:23895  for (uint256 i = 0; i < _excluded.length; i++) {\r... */\n      pop\n        /* \"asd.sol\":23423:23902  function includeInReward(address account) external onlyOwner() {\r... */\n      pop\n      jump\t// out\n        /* \"asd.sol\":23630:23884  if (_excluded[i] == account) {\r... */\n    tag_316:\n        /* \"asd.sol\":23610:23613  i++ */\n      dup1\n      tag_325\n      dup2\n      tag_326\n      jump\t// in\n    tag_325:\n      swap2\n      pop\n      pop\n        /* \"asd.sol\":23568:23895  for (uint256 i = 0; i < _excluded.length; i++) {\r... */\n      jump(tag_311)\n    tag_312:\n      pop\n        /* \"asd.sol\":23423:23902  function includeInReward(address account) external onlyOwner() {\r... */\n      pop\n      jump\t// out\n        /* \"asd.sol\":24956:25054  function setDevFeePercent(uint256 devFee) external onlyOwner() {\r... */\n    tag_115:\n        /* \"asd.sol\":7544:7551  address */\n      0x00\n        /* \"asd.sol\":7571:7577  _owner */\n      sload\n      sub(shl(0xa0, 0x01), 0x01)\n      and\n        /* \"asd.sol\":3534:3544  msg.sender */\n      caller\n        /* \"asd.sol\":7637:7660  owner() == _msgSender() */\n      eq\n        /* \"asd.sol\":7629:7697  require(owner() == _msgSender(), \"Ownable: caller is not the owner\") */\n      tag_330\n      jumpi\n      mload(0x40)\n      shl(0xe5, 0x461bcd)\n      dup2\n      mstore\n      0x04\n      add\n      tag_263\n      swap1\n      tag_264\n      jump\t// in\n    tag_330:\n        /* \"asd.sol\":25030:25037  _devFee */\n      0x12\n        /* \"asd.sol\":25030:25046  _devFee = devFee */\n      sstore\n        /* \"asd.sol\":24956:25054  function setDevFeePercent(uint256 devFee) external onlyOwner() {\r... */\n      jump\t// out\n        /* \"asd.sol\":21263:21481  function increaseAllowance(address spender, uint256 addedValue) public virtual returns (bool) {\r... */\n    tag_119:\n        /* \"asd.sol\":3534:3544  msg.sender */\n      caller\n        /* \"asd.sol\":21351:21355  bool */\n      0x00\n        /* \"asd.sol\":21400:21425  _allowances[_msgSender()] */\n      dup2\n      dup2\n      mstore\n        /* \"asd.sol\":21400:21411  _allowances */\n      0x05\n        /* \"asd.sol\":21400:21425  _allowances[_msgSender()] */\n      0x20\n      swap1\n      dup2\n      mstore\n      0x40\n      dup1\n      dup4\n      keccak256\n      sub(shl(0xa0, 0x01), 0x01)\n        /* \"asd.sol\":21400:21434  _allowances[_msgSender()][spender] */\n      dup8\n      and\n      dup5\n      mstore\n      swap1\n      swap2\n      mstore\n      dup2\n      keccak256\n      sload\n        /* \"asd.sol\":21351:21355  bool */\n      swap1\n      swap2\n        /* \"asd.sol\":21368:21451  _approve(_msgSender(), spender, _allowances[_msgSender()][spender].add(addedValue)) */\n      tag_274\n      swap2\n        /* \"asd.sol\":21391:21398  spender */\n      dup6\n      swap1\n        /* \"asd.sol\":21400:21450  _allowances[_msgSender()][spender].add(addedValue) */\n      tag_290\n      swap1\n        /* \"asd.sol\":21439:21449  addedValue */\n      dup7\n        /* \"asd.sol\":21400:21438  _allowances[_msgSender()][spender].add */\n      tag_338\n        /* \"asd.sol\":21400:21450  _allowances[_msgSender()][spender].add(addedValue) */\n      jump\t// in\n        /* \"asd.sol\":21989:22367  function deliver(uint256 tAmount) public {\r... */\n    tag_128:\n        /* \"asd.sol\":3534:3544  msg.sender */\n      caller\n        /* \"asd.sol\":22041:22055  address sender */\n      0x00\n        /* \"asd.sol\":22090:22109  _isExcluded[sender] */\n      dup2\n      dup2\n      mstore\n        /* \"asd.sol\":22090:22101  _isExcluded */\n      0x07\n        /* \"asd.sol\":22090:22109  _isExcluded[sender] */\n      0x20\n      mstore\n      0x40\n      swap1\n      keccak256\n      sload\n      0xff\n      and\n        /* \"asd.sol\":22089:22109  !_isExcluded[sender] */\n      iszero\n        /* \"asd.sol\":22081:22158  require(!_isExcluded[sender], \"Excluded addresses cannot call this function\") */\n      tag_341\n      jumpi\n      mload(0x40)\n      shl(0xe5, 0x461bcd)\n      dup2\n      mstore\n        /* \"#utility.yul\":10692:10694   */\n      0x20\n        /* \"asd.sol\":22081:22158  require(!_isExcluded[sender], \"Excluded addresses cannot call this function\") */\n      0x04\n      dup3\n      add\n        /* \"#utility.yul\":10674:10695   */\n      mstore\n        /* \"#utility.yul\":10731:10733   */\n      0x2c\n        /* \"#utility.yul\":10711:10729   */\n      0x24\n      dup3\n      add\n        /* \"#utility.yul\":10704:10734   */\n      mstore\n        /* \"#utility.yul\":10770:10804   */\n      0x4578636c75646564206164647265737365732063616e6e6f742063616c6c2074\n        /* \"#utility.yul\":10750:10768   */\n      0x44\n      dup3\n      add\n        /* \"#utility.yul\":10743:10805   */\n      mstore\n      shl(0xa1, 0x3434b990333ab731ba34b7b7)\n        /* \"#utility.yul\":10821:10839   */\n      0x64\n      dup3\n      add\n        /* \"#utility.yul\":10814:10856   */\n      mstore\n        /* \"#utility.yul\":10873:10892   */\n      0x84\n      add\n        /* \"asd.sol\":22081:22158  require(!_isExcluded[sender], \"Excluded addresses cannot call this function\") */\n      tag_263\n        /* \"#utility.yul\":10664:10898   */\n      jump\n        /* \"asd.sol\":22081:22158  require(!_isExcluded[sender], \"Excluded addresses cannot call this function\") */\n    tag_341:\n        /* \"asd.sol\":22170:22185  uint256 rAmount */\n      0x00\n        /* \"asd.sol\":22195:22214  _getValues(tAmount) */\n      tag_344\n        /* \"asd.sol\":22206:22213  tAmount */\n      dup4\n        /* \"asd.sol\":22195:22205  _getValues */\n      tag_345\n        /* \"asd.sol\":22195:22214  _getValues(tAmount) */\n      jump\t// in\n    tag_344:\n      pop\n      pop\n      pop\n      sub(shl(0xa0, 0x01), 0x01)\n        /* \"asd.sol\":22243:22258  _rOwned[sender] */\n      dup7\n      and\n      0x00\n      swap1\n      dup2\n      mstore\n        /* \"asd.sol\":22243:22250  _rOwned */\n      0x03\n        /* \"asd.sol\":22243:22258  _rOwned[sender] */\n      0x20\n      mstore\n      0x40\n      swap1\n      keccak256\n      sload\n        /* \"asd.sol\":22169:22214  (uint256 rAmount,,,,,,) = _getValues(tAmount) */\n      swap4\n      swap5\n      pop\n        /* \"asd.sol\":22243:22271  _rOwned[sender].sub(rAmount) */\n      tag_346\n      swap4\n        /* \"asd.sol\":22243:22258  _rOwned[sender] */\n      swap3\n      pop\n        /* \"asd.sol\":22169:22214  (uint256 rAmount,,,,,,) = _getValues(tAmount) */\n      dup5\n      swap2\n      pop\n      pop\n        /* \"asd.sol\":22243:22262  _rOwned[sender].sub */\n      tag_347\n        /* \"asd.sol\":22243:22271  _rOwned[sender].sub(rAmount) */\n      jump\t// in\n    tag_346:\n      sub(shl(0xa0, 0x01), 0x01)\n        /* \"asd.sol\":22225:22240  _rOwned[sender] */\n      dup4\n      and\n      0x00\n      swap1\n      dup2\n      mstore\n        /* \"asd.sol\":22225:22232  _rOwned */\n      0x03\n        /* \"asd.sol\":22225:22240  _rOwned[sender] */\n      0x20\n      mstore\n      0x40\n      swap1\n      keccak256\n        /* \"asd.sol\":22225:22271  _rOwned[sender] = _rOwned[sender].sub(rAmount) */\n      sstore\n        /* \"asd.sol\":22292:22299  _rTotal */\n      sload(0x0b)\n        /* \"asd.sol\":22292:22312  _rTotal.sub(rAmount) */\n      tag_348\n      swap1\n        /* \"asd.sol\":22304:22311  rAmount */\n      dup3\n        /* \"asd.sol\":22292:22303  _rTotal.sub */\n      tag_347\n        /* \"asd.sol\":22292:22312  _rTotal.sub(rAmount) */\n      jump\t// in\n    tag_348:\n        /* \"asd.sol\":22282:22289  _rTotal */\n      0x0b\n        /* \"asd.sol\":22282:22312  _rTotal = _rTotal.sub(rAmount) */\n      sstore\n        /* \"asd.sol\":22336:22346  _tFeeTotal */\n      sload(0x0c)\n        /* \"asd.sol\":22336:22359  _tFeeTotal.add(tAmount) */\n      tag_349\n      swap1\n        /* \"asd.sol\":22351:22358  tAmount */\n      dup5\n        /* \"asd.sol\":22336:22350  _tFeeTotal.add */\n      tag_338\n        /* \"asd.sol\":22336:22359  _tFeeTotal.add(tAmount) */\n      jump\t// in\n    tag_349:\n        /* \"asd.sol\":22323:22333  _tFeeTotal */\n      0x0c\n        /* \"asd.sol\":22323:22359  _tFeeTotal = _tFeeTotal.add(tAmount) */\n      sstore\n      pop\n      pop\n      pop\n        /* \"asd.sol\":21989:22367  function deliver(uint256 tAmount) public {\r... */\n      jump\t// out\n        /* \"asd.sol\":35476:35794  function setRouterAddress(address newRouter) external onlyOwner {\r... */\n    tag_132:\n        /* \"asd.sol\":7544:7551  address */\n      0x00\n        /* \"asd.sol\":7571:7577  _owner */\n      sload\n      sub(shl(0xa0, 0x01), 0x01)\n      and\n        /* \"asd.sol\":3534:3544  msg.sender */\n      caller\n        /* \"asd.sol\":7637:7660  owner() == _msgSender() */\n      eq\n        /* \"asd.sol\":7629:7697  require(owner() == _msgSender(), \"Ownable: caller is not the owner\") */\n      tag_353\n      jumpi\n      mload(0x40)\n      shl(0xe5, 0x461bcd)\n      dup2\n      mstore\n      0x04\n      add\n      tag_263\n      swap1\n      tag_264\n      jump\t// in\n    tag_353:\n        /* \"asd.sol\":35551:35586  IUniswapV2Router02 _uniswapV2Router */\n      0x00\n        /* \"asd.sol\":35608:35617  newRouter */\n      dup2\n        /* \"asd.sol\":35551:35618  IUniswapV2Router02 _uniswapV2Router = IUniswapV2Router02(newRouter) */\n      swap1\n      pop\n        /* \"asd.sol\":35663:35679  _uniswapV2Router */\n      dup1\n      sub(shl(0xa0, 0x01), 0x01)\n        /* \"asd.sol\":35663:35687  _uniswapV2Router.factory */\n      and\n      0xc45a0155\n        /* \"asd.sol\":35663:35689  _uniswapV2Router.factory() */\n      mload(0x40)\n      dup2\n      0xffffffff\n      and\n      0xe0\n      shl\n      dup2\n      mstore\n      0x04\n      add\n      0x20\n      mload(0x40)\n      dup1\n      dup4\n      sub\n      dup2\n      dup7\n      dup1\n      extcodesize\n      iszero\n      dup1\n      iszero\n      tag_356\n      jumpi\n      0x00\n      dup1\n      revert\n    tag_356:\n      pop\n      gas\n      staticcall\n      iszero\n      dup1\n      iszero\n      tag_358\n      jumpi\n      returndatasize\n      0x00\n      dup1\n      returndatacopy\n      revert(0x00, returndatasize)\n    tag_358:\n      pop\n      pop\n      pop\n      pop\n      mload(0x40)\n      returndatasize\n      not(0x1f)\n      0x1f\n      dup3\n      add\n      and\n      dup3\n      add\n      dup1\n      0x40\n      mstore\n      pop\n      dup2\n      add\n      swap1\n      tag_359\n      swap2\n      swap1\n      tag_360\n      jump\t// in\n    tag_359:\n      sub(shl(0xa0, 0x01), 0x01)\n        /* \"asd.sol\":35645:35701  IUniswapV2Factory(_uniswapV2Router.factory()).createPair */\n      and\n      0xc9c65396\n        /* \"asd.sol\":35710:35714  this */\n      address\n        /* \"asd.sol\":35717:35733  _uniswapV2Router */\n      dup4\n      sub(shl(0xa0, 0x01), 0x01)\n        /* \"asd.sol\":35717:35738  _uniswapV2Router.WETH */\n      and\n      0xad5c4648\n        /* \"asd.sol\":35717:35740  _uniswapV2Router.WETH() */\n      mload(0x40)\n      dup2\n      0xffffffff\n      and\n      0xe0\n      shl\n      dup2\n      mstore\n      0x04\n      add\n      0x20\n      mload(0x40)\n      dup1\n      dup4\n      sub\n      dup2\n      dup7\n      dup1\n      extcodesize\n      iszero\n      dup1\n      iszero\n      tag_361\n      jumpi\n      0x00\n      dup1\n      revert\n    tag_361:\n      pop\n      gas\n      staticcall\n      iszero\n      dup1\n      iszero\n      tag_363\n      jumpi\n      returndatasize\n      0x00\n      dup1\n      returndatacopy\n      revert(0x00, returndatasize)\n    tag_363:\n      pop\n      pop\n      pop\n      pop\n      mload(0x40)\n      returndatasize\n      not(0x1f)\n      0x1f\n      dup3\n      add\n      and\n      dup3\n      add\n      dup1\n      0x40\n      mstore\n      pop\n      dup2\n      add\n      swap1\n      tag_364\n      swap2\n      swap1\n      tag_360\n      jump\t// in\n    tag_364:\n        /* \"asd.sol\":35645:35741  IUniswapV2Factory(_uniswapV2Router.factory()).createPair(address(this), _uniswapV2Router.WETH()) */\n      mload(0x40)\n      not(sub(shl(0xe0, 0x01), 0x01))\n      0xe0\n      dup6\n      swap1\n      shl\n      and\n      dup2\n      mstore\n      sub(shl(0xa0, 0x01), 0x01)\n        /* \"#utility.yul\":3323:3338   */\n      swap3\n      dup4\n      and\n        /* \"asd.sol\":35645:35741  IUniswapV2Factory(_uniswapV2Router.factory()).createPair(address(this), _uniswapV2Router.WETH()) */\n      0x04\n      dup3\n      add\n        /* \"#utility.yul\":3305:3339   */\n      mstore\n        /* \"#utility.yul\":3375:3390   */\n      swap2\n      and\n        /* \"#utility.yul\":3355:3373   */\n      0x24\n      dup3\n      add\n        /* \"#utility.yul\":3348:3391   */\n      mstore\n        /* \"#utility.yul\":3240:3258   */\n      0x44\n      add\n        /* \"asd.sol\":35645:35741  IUniswapV2Factory(_uniswapV2Router.factory()).createPair(address(this), _uniswapV2Router.WETH()) */\n      0x20\n      mload(0x40)\n      dup1\n      dup4\n      sub\n      dup2\n      0x00\n      dup8\n      dup1\n      extcodesize\n      iszero\n      dup1\n      iszero\n      tag_367\n      jumpi\n      0x00\n      dup1\n      revert\n    tag_367:\n      pop\n      gas\n      call\n      iszero\n      dup1\n      iszero\n      tag_369\n      jumpi\n      returndatasize\n      0x00\n      dup1\n      returndatacopy\n      revert(0x00, returndatasize)\n    tag_369:\n      pop\n      pop\n      pop\n      pop\n      mload(0x40)\n      returndatasize\n      not(0x1f)\n      0x1f\n      dup3\n      add\n      and\n      dup3\n      add\n      dup1\n      0x40\n      mstore\n      pop\n      dup2\n      add\n      swap1\n      tag_370\n      swap2\n      swap1\n      tag_360\n      jump\t// in\n    tag_370:\n        /* \"asd.sol\":35629:35642  uniswapV2Pair */\n      0x17\n        /* \"asd.sol\":35629:35741  uniswapV2Pair = IUniswapV2Factory(_uniswapV2Router.factory()).createPair(address(this), _uniswapV2Router.WETH()) */\n      dup1\n      sload\n      sub(shl(0xa0, 0x01), 0x01)\n      swap3\n      dup4\n      and\n      not(sub(shl(0xa0, 0x01), 0x01))\n      swap2\n      dup3\n      and\n      or\n      swap1\n      swap2\n      sstore\n        /* \"asd.sol\":35752:35767  uniswapV2Router */\n      0x16\n        /* \"asd.sol\":35752:35786  uniswapV2Router = _uniswapV2Router */\n      dup1\n      sload\n      swap4\n      swap1\n      swap3\n      and\n      swap3\n      and\n      swap2\n      swap1\n      swap2\n      or\n      swap1\n      sstore\n      pop\n        /* \"asd.sol\":35476:35794  function setRouterAddress(address newRouter) external onlyOwner {\r... */\n      jump\t// out\n        /* \"asd.sol\":24605:24716  function excludeFromFee(address account) public onlyOwner {\r... */\n    tag_136:\n        /* \"asd.sol\":7544:7551  address */\n      0x00\n        /* \"asd.sol\":7571:7577  _owner */\n      sload\n      sub(shl(0xa0, 0x01), 0x01)\n      and\n        /* \"asd.sol\":3534:3544  msg.sender */\n      caller\n        /* \"asd.sol\":7637:7660  owner() == _msgSender() */\n      eq\n        /* \"asd.sol\":7629:7697  require(owner() == _msgSender(), \"Ownable: caller is not the owner\") */\n      tag_374\n      jumpi\n      mload(0x40)\n      shl(0xe5, 0x461bcd)\n      dup2\n      mstore\n      0x04\n      add\n      tag_263\n      swap1\n      tag_264\n      jump\t// in\n    tag_374:\n      sub(shl(0xa0, 0x01), 0x01)\n        /* \"asd.sol\":24674:24701  _isExcludedFromFee[account] */\n      and\n      0x00\n      swap1\n      dup2\n      mstore\n        /* \"asd.sol\":24674:24692  _isExcludedFromFee */\n      0x06\n        /* \"asd.sol\":24674:24701  _isExcludedFromFee[account] */\n      0x20\n      mstore\n      0x40\n      swap1\n      keccak256\n        /* \"asd.sol\":24674:24708  _isExcludedFromFee[account] = true */\n      dup1\n      sload\n      not(0xff)\n      and\n        /* \"asd.sol\":24704:24708  true */\n      0x01\n        /* \"asd.sol\":24674:24708  _isExcludedFromFee[account] = true */\n      or\n      swap1\n      sstore\n        /* \"asd.sol\":24605:24716  function excludeFromFee(address account) public onlyOwner {\r... */\n      jump\t// out\n        /* \"asd.sol\":22375:22813  function reflectionFromToken(uint256 tAmount, bool deductTransferFee) public view returns(uint256) {\r... */\n    tag_141:\n        /* \"asd.sol\":22465:22472  uint256 */\n      0x00\n        /* \"asd.sol\":22504:22511  _tTotal */\n      sload(0x0a)\n        /* \"asd.sol\":22493:22500  tAmount */\n      dup4\n        /* \"asd.sol\":22493:22511  tAmount <= _tTotal */\n      gt\n      iszero\n        /* \"asd.sol\":22485:22547  require(tAmount <= _tTotal, \"Amount must be less than supply\") */\n      tag_378\n      jumpi\n      mload(0x40)\n      shl(0xe5, 0x461bcd)\n      dup2\n      mstore\n        /* \"#utility.yul\":7588:7590   */\n      0x20\n        /* \"asd.sol\":22485:22547  require(tAmount <= _tTotal, \"Amount must be less than supply\") */\n      0x04\n      dup3\n      add\n        /* \"#utility.yul\":7570:7591   */\n      mstore\n        /* \"#utility.yul\":7627:7629   */\n      0x1f\n        /* \"#utility.yul\":7607:7625   */\n      0x24\n      dup3\n      add\n        /* \"#utility.yul\":7600:7630   */\n      mstore\n        /* \"#utility.yul\":7666:7699   */\n      0x416d6f756e74206d757374206265206c657373207468616e20737570706c7900\n        /* \"#utility.yul\":7646:7664   */\n      0x44\n      dup3\n      add\n        /* \"#utility.yul\":7639:7700   */\n      mstore\n        /* \"#utility.yul\":7717:7735   */\n      0x64\n      add\n        /* \"asd.sol\":22485:22547  require(tAmount <= _tTotal, \"Amount must be less than supply\") */\n      tag_263\n        /* \"#utility.yul\":7560:7741   */\n      jump\n        /* \"asd.sol\":22485:22547  require(tAmount <= _tTotal, \"Amount must be less than supply\") */\n    tag_378:\n        /* \"asd.sol\":22563:22580  deductTransferFee */\n      dup2\n        /* \"asd.sol\":22558:22806  if (!deductTransferFee) {\r... */\n      tag_381\n      jumpi\n        /* \"asd.sol\":22598:22613  uint256 rAmount */\n      0x00\n        /* \"asd.sol\":22623:22642  _getValues(tAmount) */\n      tag_382\n        /* \"asd.sol\":22634:22641  tAmount */\n      dup5\n        /* \"asd.sol\":22623:22633  _getValues */\n      tag_345\n        /* \"asd.sol\":22623:22642  _getValues(tAmount) */\n      jump\t// in\n    tag_382:\n      pop\n        /* \"asd.sol\":22597:22642  (uint256 rAmount,,,,,,) = _getValues(tAmount) */\n      swap5\n      swap7\n      pop\n        /* \"asd.sol\":22657:22671  return rAmount */\n      tag_273\n      swap6\n      pop\n      pop\n      pop\n      pop\n      pop\n      pop\n      jump\n        /* \"asd.sol\":22558:22806  if (!deductTransferFee) {\r... */\n    tag_381:\n        /* \"asd.sol\":22706:22729  uint256 rTransferAmount */\n      0x00\n        /* \"asd.sol\":22738:22757  _getValues(tAmount) */\n      tag_384\n        /* \"asd.sol\":22749:22756  tAmount */\n      dup5\n        /* \"asd.sol\":22738:22748  _getValues */\n      tag_345\n        /* \"asd.sol\":22738:22757  _getValues(tAmount) */\n      jump\t// in\n    tag_384:\n      pop\n        /* \"asd.sol\":22704:22757  (,uint256 rTransferAmount,,,,,) = _getValues(tAmount) */\n      swap4\n      swap7\n      pop\n        /* \"asd.sol\":22772:22794  return rTransferAmount */\n      tag_273\n      swap6\n      pop\n      pop\n      pop\n      pop\n      pop\n      pop\n      jump\n        /* \"asd.sol\":23082:23415  function excludeFromReward(address account) public onlyOwner() {\r... */\n    tag_155:\n        /* \"asd.sol\":7544:7551  address */\n      0x00\n        /* \"asd.sol\":7571:7577  _owner */\n      sload\n      sub(shl(0xa0, 0x01), 0x01)\n      and\n        /* \"asd.sol\":3534:3544  msg.sender */\n      caller\n        /* \"asd.sol\":7637:7660  owner() == _msgSender() */\n      eq\n        /* \"asd.sol\":7629:7697  require(owner() == _msgSender(), \"Ownable: caller is not the owner\") */\n      tag_388\n      jumpi\n      mload(0x40)\n      shl(0xe5, 0x461bcd)\n      dup2\n      mstore\n      0x04\n      add\n      tag_263\n      swap1\n      tag_264\n      jump\t// in\n    tag_388:\n      sub(shl(0xa0, 0x01), 0x01)\n        /* \"asd.sol\":23165:23185  _isExcluded[account] */\n      dup2\n      and\n      0x00\n      swap1\n      dup2\n      mstore\n        /* \"asd.sol\":23165:23176  _isExcluded */\n      0x07\n        /* \"asd.sol\":23165:23185  _isExcluded[account] */\n      0x20\n      mstore\n      0x40\n      swap1\n      keccak256\n      sload\n      0xff\n      and\n        /* \"asd.sol\":23164:23185  !_isExcluded[account] */\n      iszero\n        /* \"asd.sol\":23156:23217  require(!_isExcluded[account], \"Account is already excluded\") */\n      tag_391\n      jumpi\n      mload(0x40)\n      shl(0xe5, 0x461bcd)\n      dup2\n      mstore\n        /* \"#utility.yul\":6876:6878   */\n      0x20\n        /* \"asd.sol\":23156:23217  require(!_isExcluded[account], \"Account is already excluded\") */\n      0x04\n      dup3\n      add\n        /* \"#utility.yul\":6858:6879   */\n      mstore\n        /* \"#utility.yul\":6915:6917   */\n      0x1b\n        /* \"#utility.yul\":6895:6913   */\n      0x24\n      dup3\n      add\n        /* \"#utility.yul\":6888:6918   */\n      mstore\n        /* \"#utility.yul\":6954:6983   */\n      0x4163636f756e7420697320616c7265616479206578636c756465640000000000\n        /* \"#utility.yul\":6934:6952   */\n      0x44\n      dup3\n      add\n        /* \"#utility.yul\":6927:6984   */\n      mstore\n        /* \"#utility.yul\":7001:7019   */\n      0x64\n      add\n        /* \"asd.sol\":23156:23217  require(!_isExcluded[account], \"Account is already excluded\") */\n      tag_263\n        /* \"#utility.yul\":6848:7025   */\n      jump\n        /* \"asd.sol\":23156:23217  require(!_isExcluded[account], \"Account is already excluded\") */\n    tag_391:\n      sub(shl(0xa0, 0x01), 0x01)\n        /* \"asd.sol\":23231:23247  _rOwned[account] */\n      dup2\n      and\n        /* \"asd.sol\":23250:23251  0 */\n      0x00\n        /* \"asd.sol\":23231:23247  _rOwned[account] */\n      swap1\n      dup2\n      mstore\n        /* \"asd.sol\":23231:23238  _rOwned */\n      0x03\n        /* \"asd.sol\":23231:23247  _rOwned[account] */\n      0x20\n      mstore\n      0x40\n      swap1\n      keccak256\n      sload\n        /* \"asd.sol\":23231:23251  _rOwned[account] > 0 */\n      iszero\n        /* \"asd.sol\":23228:23336  if(_rOwned[account] > 0) {\r... */\n      tag_394\n      jumpi\n      sub(shl(0xa0, 0x01), 0x01)\n        /* \"asd.sol\":23307:23323  _rOwned[account] */\n      dup2\n      and\n      0x00\n      swap1\n      dup2\n      mstore\n        /* \"asd.sol\":23307:23314  _rOwned */\n      0x03\n        /* \"asd.sol\":23307:23323  _rOwned[account] */\n      0x20\n      mstore\n      0x40\n      swap1\n      keccak256\n      sload\n        /* \"asd.sol\":23287:23324  tokenFromReflection(_rOwned[account]) */\n      tag_395\n      swap1\n        /* \"asd.sol\":23287:23306  tokenFromReflection */\n      tag_102\n        /* \"asd.sol\":23287:23324  tokenFromReflection(_rOwned[account]) */\n      jump\t// in\n    tag_395:\n      sub(shl(0xa0, 0x01), 0x01)\n        /* \"asd.sol\":23268:23284  _tOwned[account] */\n      dup3\n      and\n      0x00\n      swap1\n      dup2\n      mstore\n        /* \"asd.sol\":23268:23275  _tOwned */\n      0x04\n        /* \"asd.sol\":23268:23284  _tOwned[account] */\n      0x20\n      mstore\n      0x40\n      swap1\n      keccak256\n        /* \"asd.sol\":23268:23324  _tOwned[account] = tokenFromReflection(_rOwned[account]) */\n      sstore\n        /* \"asd.sol\":23228:23336  if(_rOwned[account] > 0) {\r... */\n    tag_394:\n      sub(shl(0xa0, 0x01), 0x01)\n        /* \"asd.sol\":23346:23366  _isExcluded[account] */\n      and\n      0x00\n      dup2\n      dup2\n      mstore\n        /* \"asd.sol\":23346:23357  _isExcluded */\n      0x07\n        /* \"asd.sol\":23346:23366  _isExcluded[account] */\n      0x20\n      mstore\n      0x40\n      dup2\n      keccak256\n        /* \"asd.sol\":23346:23373  _isExcluded[account] = true */\n      dup1\n      sload\n      not(0xff)\n      and\n        /* \"asd.sol\":23369:23373  true */\n      0x01\n        /* \"asd.sol\":23346:23373  _isExcluded[account] = true */\n      swap1\n      dup2\n      or\n      swap1\n      swap2\n      sstore\n        /* \"asd.sol\":23384:23393  _excluded */\n      0x08\n        /* \"asd.sol\":23384:23407  _excluded.push(account) */\n      dup1\n      sload\n      swap2\n      dup3\n      add\n      dup2\n      sstore\n      swap1\n      swap2\n      mstore\n      0xf3f7a9fe364faab93b216da50a3214154f22a0a2b415b23a84c8169e8b636ee3\n      add\n      dup1\n      sload\n      not(sub(shl(0xa0, 0x01), 0x01))\n      and\n      swap1\n      swap2\n      or\n      swap1\n      sstore\n        /* \"asd.sol\":23082:23415  function excludeFromReward(address account) public onlyOwner() {\r... */\n      jump\t// out\n        /* \"asd.sol\":20241:20439  function balanceOf(address account) public view override returns (uint256) {\r... */\n    tag_168:\n      sub(shl(0xa0, 0x01), 0x01)\n        /* \"asd.sol\":20331:20351  _isExcluded[account] */\n      dup2\n      and\n        /* \"asd.sol\":20307:20314  uint256 */\n      0x00\n        /* \"asd.sol\":20331:20351  _isExcluded[account] */\n      swap1\n      dup2\n      mstore\n        /* \"asd.sol\":20331:20342  _isExcluded */\n      0x07\n        /* \"asd.sol\":20331:20351  _isExcluded[account] */\n      0x20\n      mstore\n      0x40\n      dup2\n      keccak256\n      sload\n      0xff\n      and\n        /* \"asd.sol\":20327:20376  if (_isExcluded[account]) return _tOwned[account] */\n      iszero\n      tag_399\n      jumpi\n      pop\n      sub(shl(0xa0, 0x01), 0x01)\n        /* \"asd.sol\":20360:20376  _tOwned[account] */\n      and\n      0x00\n      swap1\n      dup2\n      mstore\n        /* \"asd.sol\":20360:20367  _tOwned */\n      0x04\n        /* \"asd.sol\":20360:20376  _tOwned[account] */\n      0x20\n      mstore\n      0x40\n      swap1\n      keccak256\n      sload\n      swap1\n        /* \"asd.sol\":20241:20439  function balanceOf(address account) public view override returns (uint256) {\r... */\n      jump\t// out\n        /* \"asd.sol\":20327:20376  if (_isExcluded[account]) return _tOwned[account] */\n    tag_399:\n      sub(shl(0xa0, 0x01), 0x01)\n        /* \"asd.sol\":20414:20430  _rOwned[account] */\n      dup3\n      and\n      0x00\n      swap1\n      dup2\n      mstore\n        /* \"asd.sol\":20414:20421  _rOwned */\n      0x03\n        /* \"asd.sol\":20414:20430  _rOwned[account] */\n      0x20\n      mstore\n      0x40\n      swap1\n      keccak256\n      sload\n        /* \"asd.sol\":20394:20431  tokenFromReflection(_rOwned[account]) */\n      tag_273\n      swap1\n        /* \"asd.sol\":20394:20413  tokenFromReflection */\n      tag_102\n        /* \"asd.sol\":20394:20431  tokenFromReflection(_rOwned[account]) */\n      jump\t// in\n        /* \"asd.sol\":7729:7877  function renounceOwnership() public virtual onlyOwner {\r... */\n    tag_172:\n        /* \"asd.sol\":7544:7551  address */\n      0x00\n        /* \"asd.sol\":7571:7577  _owner */\n      sload\n      sub(shl(0xa0, 0x01), 0x01)\n      and\n        /* \"asd.sol\":3534:3544  msg.sender */\n      caller\n        /* \"asd.sol\":7637:7660  owner() == _msgSender() */\n      eq\n        /* \"asd.sol\":7629:7697  require(owner() == _msgSender(), \"Ownable: caller is not the owner\") */\n      tag_404\n      jumpi\n      mload(0x40)\n      shl(0xe5, 0x461bcd)\n      dup2\n      mstore\n      0x04\n      add\n      tag_263\n      swap1\n      tag_264\n      jump\t// in\n    tag_404:\n        /* \"asd.sol\":7836:7837  0 */\n      0x00\n        /* \"asd.sol\":7820:7826  _owner */\n      dup1\n      sload\n        /* \"asd.sol\":7799:7839  OwnershipTransferred(_owner, address(0)) */\n      mload(0x40)\n      sub(shl(0xa0, 0x01), 0x01)\n        /* \"asd.sol\":7820:7826  _owner */\n      swap1\n      swap2\n      and\n      swap1\n      0x00\n      dup1\n      mload\n      0x20\n      data_9c064737b570a74c2bac5d21056d93ac53115214216cd14d4a0fc9b60be81231\n      dup4\n      codecopy\n      dup2\n      mload\n      swap2\n      mstore\n        /* \"asd.sol\":7799:7839  OwnershipTransferred(_owner, address(0)) */\n      swap1\n        /* \"asd.sol\":7836:7837  0 */\n      dup4\n      swap1\n        /* \"asd.sol\":7799:7839  OwnershipTransferred(_owner, address(0)) */\n      log3\n        /* \"asd.sol\":7867:7868  0 */\n      0x00\n        /* \"asd.sol\":7850:7869  _owner = address(0) */\n      dup1\n      sload\n      not(sub(shl(0xa0, 0x01), 0x01))\n      and\n      swap1\n      sstore\n        /* \"asd.sol\":7729:7877  function renounceOwnership() public virtual onlyOwner {\r... */\n      jump\t// out\n        /* \"asd.sol\":25066:25188  function setLiquidityFeePercent(uint256 liquidityFee) external onlyOwner() {\r... */\n    tag_193:\n        /* \"asd.sol\":7544:7551  address */\n      0x00\n        /* \"asd.sol\":7571:7577  _owner */\n      sload\n      sub(shl(0xa0, 0x01), 0x01)\n      and\n        /* \"asd.sol\":3534:3544  msg.sender */\n      caller\n        /* \"asd.sol\":7637:7660  owner() == _msgSender() */\n      eq\n        /* \"asd.sol\":7629:7697  require(owner() == _msgSender(), \"Ownable: caller is not the owner\") */\n      tag_412\n      jumpi\n      mload(0x40)\n      shl(0xe5, 0x461bcd)\n      dup2\n      mstore\n      0x04\n      add\n      tag_263\n      swap1\n      tag_264\n      jump\t// in\n    tag_412:\n        /* \"asd.sol\":25152:25165  _liquidityFee */\n      0x14\n        /* \"asd.sol\":25152:25180  _liquidityFee = liquidityFee */\n      sstore\n        /* \"asd.sol\":25066:25188  function setLiquidityFeePercent(uint256 liquidityFee) external onlyOwner() {\r... */\n      jump\t// out\n        /* \"asd.sol\":19950:20037  function symbol() public view returns (string memory) {\r... */\n    tag_196:\n        /* \"asd.sol\":19989:20002  string memory */\n      0x60\n        /* \"asd.sol\":20022:20029  _symbol */\n      0x0e\n        /* \"asd.sol\":20015:20029  return _symbol */\n      dup1\n      sload\n      tag_267\n      swap1\n      tag_268\n      jump\t// in\n        /* \"asd.sol\":21489:21758  function decreaseAllowance(address spender, uint256 subtractedValue) public virtual returns (bool) {\r... */\n    tag_201:\n        /* \"asd.sol\":21582:21586  bool */\n      0x00\n        /* \"asd.sol\":21599:21728  _approve(_msgSender(), spender, _allowances[_msgSender()][spender].sub(subtractedValue, \"ERC20: decreased allowance below zero\")) */\n      tag_274\n        /* \"asd.sol\":3534:3544  msg.sender */\n      caller\n        /* \"asd.sol\":21622:21629  spender */\n      dup5\n        /* \"asd.sol\":21631:21727  _allowances[_msgSender()][spender].sub(subtractedValue, \"ERC20: decreased allowance below zero\") */\n      tag_290\n        /* \"asd.sol\":21670:21685  subtractedValue */\n      dup6\n        /* \"asd.sol\":21631:21727  _allowances[_msgSender()][spender].sub(subtractedValue, \"ERC20: decreased allowance below zero\") */\n      mload(0x40)\n      dup1\n      0x60\n      add\n      0x40\n      mstore\n      dup1\n      0x25\n      dup2\n      mstore\n      0x20\n      add\n      data_f8b476f7d28209d77d4a4ac1fe36b9f8259aa1bb6bddfa6e89de7e51615cf8a8\n      0x25\n      swap2\n      codecopy\n        /* \"asd.sol\":3534:3544  msg.sender */\n      caller\n        /* \"asd.sol\":21631:21656  _allowances[_msgSender()] */\n      0x00\n      swap1\n      dup2\n      mstore\n        /* \"asd.sol\":21631:21642  _allowances */\n      0x05\n        /* \"asd.sol\":21631:21656  _allowances[_msgSender()] */\n      0x20\n      swap1\n      dup2\n      mstore\n      0x40\n      dup1\n      dup4\n      keccak256\n      sub(shl(0xa0, 0x01), 0x01)\n        /* \"asd.sol\":21631:21665  _allowances[_msgSender()][spender] */\n      dup14\n      and\n      dup5\n      mstore\n      swap1\n      swap2\n      mstore\n      swap1\n      keccak256\n      sload\n      swap2\n      swap1\n        /* \"asd.sol\":21631:21669  _allowances[_msgSender()][spender].sub */\n      tag_292\n        /* \"asd.sol\":21631:21727  _allowances[_msgSender()][spender].sub(subtractedValue, \"ERC20: decreased allowance below zero\") */\n      jump\t// in\n        /* \"asd.sol\":8497:8791  function unlock() public virtual {\r... */\n    tag_205:\n        /* \"asd.sol\":8549:8563  _previousOwner */\n      and(sub(shl(0xa0, 0x01), 0x01), sload(0x01))\n        /* \"asd.sol\":8567:8577  msg.sender */\n      caller\n        /* \"asd.sol\":8549:8577  _previousOwner == msg.sender */\n      eq\n        /* \"asd.sol\":8541:8618  require(_previousOwner == msg.sender, \"You don't have permission to unlock.\") */\n      tag_427\n      jumpi\n      mload(0x40)\n      shl(0xe5, 0x461bcd)\n      dup2\n      mstore\n        /* \"#utility.yul\":9128:9130   */\n      0x20\n        /* \"asd.sol\":8541:8618  require(_previousOwner == msg.sender, \"You don't have permission to unlock.\") */\n      0x04\n      dup3\n      add\n        /* \"#utility.yul\":9110:9131   */\n      mstore\n        /* \"#utility.yul\":9167:9169   */\n      0x24\n        /* \"#utility.yul\":9147:9165   */\n      dup1\n      dup3\n      add\n        /* \"#utility.yul\":9140:9170   */\n      mstore\n        /* \"#utility.yul\":9206:9240   */\n      0x596f7520646f6e27742068617665207065726d697373696f6e20746f20756e6c\n        /* \"#utility.yul\":9186:9204   */\n      0x44\n      dup3\n      add\n        /* \"#utility.yul\":9179:9241   */\n      mstore\n      shl(0xe1, 0x37b1b597)\n        /* \"#utility.yul\":9257:9275   */\n      0x64\n      dup3\n      add\n        /* \"#utility.yul\":9250:9284   */\n      mstore\n        /* \"#utility.yul\":9301:9320   */\n      0x84\n      add\n        /* \"asd.sol\":8541:8618  require(_previousOwner == msg.sender, \"You don't have permission to unlock.\") */\n      tag_263\n        /* \"#utility.yul\":9100:9326   */\n      jump\n        /* \"asd.sol\":8541:8618  require(_previousOwner == msg.sender, \"You don't have permission to unlock.\") */\n    tag_427:\n        /* \"asd.sol\":8655:8664  _lockTime */\n      sload(0x02)\n        /* \"asd.sol\":8637:8652  block.timestamp */\n      timestamp\n        /* \"asd.sol\":8637:8664  block.timestamp > _lockTime */\n      gt\n        /* \"asd.sol\":8629:8689  require(block.timestamp > _lockTime , \"Contract is locked.\") */\n      tag_430\n      jumpi\n      mload(0x40)\n      shl(0xe5, 0x461bcd)\n      dup2\n      mstore\n        /* \"#utility.yul\":10344:10346   */\n      0x20\n        /* \"asd.sol\":8629:8689  require(block.timestamp > _lockTime , \"Contract is locked.\") */\n      0x04\n      dup3\n      add\n        /* \"#utility.yul\":10326:10347   */\n      mstore\n        /* \"#utility.yul\":10383:10385   */\n      0x13\n        /* \"#utility.yul\":10363:10381   */\n      0x24\n      dup3\n      add\n        /* \"#utility.yul\":10356:10386   */\n      mstore\n      shl(0x69, 0x21b7b73a3930b1ba1034b9903637b1b5b2b217)\n        /* \"#utility.yul\":10402:10420   */\n      0x44\n      dup3\n      add\n        /* \"#utility.yul\":10395:10444   */\n      mstore\n        /* \"#utility.yul\":10461:10479   */\n      0x64\n      add\n        /* \"asd.sol\":8629:8689  require(block.timestamp > _lockTime , \"Contract is locked.\") */\n      tag_263\n        /* \"#utility.yul\":10316:10485   */\n      jump\n        /* \"asd.sol\":8629:8689  require(block.timestamp > _lockTime , \"Contract is locked.\") */\n    tag_430:\n        /* \"asd.sol\":8734:8748  _previousOwner */\n      sload(0x01)\n      0x00\n        /* \"asd.sol\":8726:8732  _owner */\n      dup1\n      sload\n        /* \"asd.sol\":8705:8749  OwnershipTransferred(_owner, _previousOwner) */\n      mload(0x40)\n      sub(shl(0xa0, 0x01), 0x01)\n        /* \"asd.sol\":8734:8748  _previousOwner */\n      swap4\n      dup5\n      and\n      swap4\n        /* \"asd.sol\":8726:8732  _owner */\n      swap1\n      swap2\n      and\n      swap2\n      0x00\n      dup1\n      mload\n      0x20\n      data_9c064737b570a74c2bac5d21056d93ac53115214216cd14d4a0fc9b60be81231\n      dup4\n      codecopy\n      dup2\n      mload\n      swap2\n      mstore\n        /* \"asd.sol\":8705:8749  OwnershipTransferred(_owner, _previousOwner) */\n      swap2\n      log3\n        /* \"asd.sol\":8769:8783  _previousOwner */\n      sload(0x01)\n      0x00\n        /* \"asd.sol\":8760:8783  _owner = _previousOwner */\n      dup1\n      sload\n      not(sub(shl(0xa0, 0x01), 0x01))\n      and\n      sub(shl(0xa0, 0x01), 0x01)\n        /* \"asd.sol\":8769:8783  _previousOwner */\n      swap1\n      swap3\n      and\n        /* \"asd.sol\":8760:8783  _owner = _previousOwner */\n      swap2\n      swap1\n      swap2\n      or\n      swap1\n      sstore\n        /* \"asd.sol\":8497:8791  function unlock() public virtual {\r... */\n      jump\t// out\n        /* \"asd.sol\":20447:20614  function transfer(address recipient, uint256 amount) public override returns (bool) {\r... */\n    tag_209:\n        /* \"asd.sol\":20525:20529  bool */\n      0x00\n        /* \"asd.sol\":20542:20584  _transfer(_msgSender(), recipient, amount) */\n      tag_274\n        /* \"asd.sol\":3534:3544  msg.sender */\n      caller\n        /* \"asd.sol\":20566:20575  recipient */\n      dup5\n        /* \"asd.sol\":20577:20583  amount */\n      dup5\n        /* \"asd.sol\":20542:20551  _transfer */\n      tag_287\n        /* \"asd.sol\":20542:20584  _transfer(_msgSender(), recipient, amount) */\n      jump\t// in\n        /* \"asd.sol\":25459:25630  function setSwapAndLiquifyEnabled(bool _enabled) public onlyOwner {\r... */\n    tag_227:\n        /* \"asd.sol\":7544:7551  address */\n      0x00\n        /* \"asd.sol\":7571:7577  _owner */\n      sload\n      sub(shl(0xa0, 0x01), 0x01)\n      and\n        /* \"asd.sol\":3534:3544  msg.sender */\n      caller\n        /* \"asd.sol\":7637:7660  owner() == _msgSender() */\n      eq\n        /* \"asd.sol\":7629:7697  require(owner() == _msgSender(), \"Ownable: caller is not the owner\") */\n      tag_439\n      jumpi\n      mload(0x40)\n      shl(0xe5, 0x461bcd)\n      dup2\n      mstore\n      0x04\n      add\n      tag_263\n      swap1\n      tag_264\n      jump\t// in\n    tag_439:\n        /* \"asd.sol\":25536:25557  swapAndLiquifyEnabled */\n      0x17\n        /* \"asd.sol\":25536:25568  swapAndLiquifyEnabled = _enabled */\n      dup1\n      sload\n      dup3\n      iszero\n      iszero\n      shl(0xa8, 0x01)\n      mul\n      not(shl(0xa8, 0xff))\n      swap1\n      swap2\n      and\n      or\n      swap1\n      sstore\n        /* \"asd.sol\":25584:25622  SwapAndLiquifyEnabledUpdated(_enabled) */\n      mload(0x40)\n      0x53726dfcaf90650aa7eb35524f4d3220f07413c8d6cb404cc8c18bf5591bc159\n      swap1\n      tag_442\n      swap1\n        /* \"asd.sol\":25560:25568  _enabled */\n      dup4\n        /* \"#utility.yul\":4179:4193   */\n      iszero\n        /* \"#utility.yul\":4172:4194   */\n      iszero\n        /* \"#utility.yul\":4154:4195   */\n      dup2\n      mstore\n        /* \"#utility.yul\":4142:4144   */\n      0x20\n        /* \"#utility.yul\":4127:4145   */\n      add\n      swap1\n        /* \"#utility.yul\":4109:4201   */\n      jump\n        /* \"asd.sol\":25584:25622  SwapAndLiquifyEnabledUpdated(_enabled) */\n    tag_442:\n      mload(0x40)\n      dup1\n      swap2\n      sub\n      swap1\n      log1\n        /* \"asd.sol\":25459:25630  function setSwapAndLiquifyEnabled(bool _enabled) public onlyOwner {\r... */\n      pop\n      jump\t// out\n        /* \"asd.sol\":25199:25328  function setMaxTxPercent(uint256 maxTxPercent) public onlyOwner {\r... */\n    tag_235:\n        /* \"asd.sol\":7544:7551  address */\n      0x00\n        /* \"asd.sol\":7571:7577  _owner */\n      sload\n      sub(shl(0xa0, 0x01), 0x01)\n      and\n        /* \"asd.sol\":3534:3544  msg.sender */\n      caller\n        /* \"asd.sol\":7637:7660  owner() == _msgSender() */\n      eq\n        /* \"asd.sol\":7629:7697  require(owner() == _msgSender(), \"Ownable: caller is not the owner\") */\n      tag_446\n      jumpi\n      mload(0x40)\n      shl(0xe5, 0x461bcd)\n      dup2\n      mstore\n      0x04\n      add\n      tag_263\n      swap1\n      tag_264\n      jump\t// in\n    tag_446:\n        /* \"asd.sol\":25311:25320  _decimals */\n      sload(0x0f)\n        /* \"asd.sol\":25305:25320  10 ** _decimals */\n      tag_449\n      swap1\n        /* \"asd.sol\":25305:25307  10 */\n      0x0a\n        /* \"asd.sol\":25305:25320  10 ** _decimals */\n      tag_450\n      jump\t// in\n    tag_449:\n        /* \"asd.sol\":25289:25320  maxTxPercent  * 10 ** _decimals */\n      tag_451\n      swap1\n        /* \"asd.sol\":25289:25301  maxTxPercent */\n      dup3\n        /* \"asd.sol\":25289:25320  maxTxPercent  * 10 ** _decimals */\n      tag_452\n      jump\t// in\n    tag_451:\n        /* \"asd.sol\":25274:25286  _maxTxAmount */\n      0x18\n        /* \"asd.sol\":25274:25320  _maxTxAmount = maxTxPercent  * 10 ** _decimals */\n      sstore\n      pop\n        /* \"asd.sol\":25199:25328  function setMaxTxPercent(uint256 maxTxPercent) public onlyOwner {\r... */\n      jump\t// out\n        /* \"asd.sol\":8213:8421  function lock(uint256 time) public virtual onlyOwner {\r... */\n    tag_239:\n        /* \"asd.sol\":7544:7551  address */\n      0x00\n        /* \"asd.sol\":7571:7577  _owner */\n      sload\n      sub(shl(0xa0, 0x01), 0x01)\n      and\n        /* \"asd.sol\":3534:3544  msg.sender */\n      caller\n        /* \"asd.sol\":7637:7660  owner() == _msgSender() */\n      eq\n        /* \"asd.sol\":7629:7697  require(owner() == _msgSender(), \"Ownable: caller is not the owner\") */\n      tag_456\n      jumpi\n      mload(0x40)\n      shl(0xe5, 0x461bcd)\n      dup2\n      mstore\n      0x04\n      add\n      tag_263\n      swap1\n      tag_264\n      jump\t// in\n    tag_456:\n        /* \"asd.sol\":8294:8300  _owner */\n      0x00\n      dup1\n      sload\n      0x01\n        /* \"asd.sol\":8277:8300  _previousOwner = _owner */\n      dup1\n      sload\n      not(sub(shl(0xa0, 0x01), 0x01))\n      swap1\n      dup2\n      and\n      sub(shl(0xa0, 0x01), 0x01)\n        /* \"asd.sol\":8294:8300  _owner */\n      dup5\n      and\n        /* \"asd.sol\":8277:8300  _previousOwner = _owner */\n      or\n      swap1\n      swap2\n      sstore\n        /* \"asd.sol\":8311:8330  _owner = address(0) */\n      and\n      dup2\n      sstore\n        /* \"asd.sol\":8341:8350  _lockTime */\n      0x02\n        /* \"asd.sol\":8341:8357  _lockTime = time */\n      dup3\n      swap1\n      sstore\n        /* \"asd.sol\":8373:8413  OwnershipTransferred(_owner, address(0)) */\n      mload(0x40)\n        /* \"asd.sol\":8294:8300  _owner */\n      dup2\n      swap1\n      0x00\n      dup1\n      mload\n      0x20\n      data_9c064737b570a74c2bac5d21056d93ac53115214216cd14d4a0fc9b60be81231\n      dup4\n      codecopy\n      dup2\n      mload\n      swap2\n      mstore\n        /* \"asd.sol\":8373:8413  OwnershipTransferred(_owner, address(0)) */\n      swap1\n        /* \"asd.sol\":8294:8300  _owner */\n      dup3\n      swap1\n        /* \"asd.sol\":8373:8413  OwnershipTransferred(_owner, address(0)) */\n      log3\n        /* \"asd.sol\":8213:8421  function lock(uint256 time) public virtual onlyOwner {\r... */\n      pop\n      jump\t// out\n        /* \"asd.sol\":24728:24838  function includeInFee(address account) public onlyOwner {\r... */\n    tag_249:\n        /* \"asd.sol\":7544:7551  address */\n      0x00\n        /* \"asd.sol\":7571:7577  _owner */\n      sload\n      sub(shl(0xa0, 0x01), 0x01)\n      and\n        /* \"asd.sol\":3534:3544  msg.sender */\n      caller\n        /* \"asd.sol\":7637:7660  owner() == _msgSender() */\n      eq\n        /* \"asd.sol\":7629:7697  require(owner() == _msgSender(), \"Ownable: caller is not the owner\") */\n      tag_463\n      jumpi\n      mload(0x40)\n      shl(0xe5, 0x461bcd)\n      dup2\n      mstore\n      0x04\n      add\n      tag_263\n      swap1\n      tag_264\n      jump\t// in\n    tag_463:\n      sub(shl(0xa0, 0x01), 0x01)\n        /* \"asd.sol\":24795:24822  _isExcludedFromFee[account] */\n      and\n        /* \"asd.sol\":24825:24830  false */\n      0x00\n        /* \"asd.sol\":24795:24822  _isExcludedFromFee[account] */\n      swap1\n      dup2\n      mstore\n        /* \"asd.sol\":24795:24813  _isExcludedFromFee */\n      0x06\n        /* \"asd.sol\":24795:24822  _isExcludedFromFee[account] */\n      0x20\n      mstore\n      0x40\n      swap1\n      keccak256\n        /* \"asd.sol\":24795:24830  _isExcludedFromFee[account] = false */\n      dup1\n      sload\n      not(0xff)\n      and\n      swap1\n      sstore\n        /* \"asd.sol\":24728:24838  function includeInFee(address account) public onlyOwner {\r... */\n      jump\t// out\n        /* \"asd.sol\":35802:35952  function setNumTokensSellToAddToLiquidity(uint256 amountToUpdate) external onlyOwner {\r... */\n    tag_253:\n        /* \"asd.sol\":7544:7551  address */\n      0x00\n        /* \"asd.sol\":7571:7577  _owner */\n      sload\n      sub(shl(0xa0, 0x01), 0x01)\n      and\n        /* \"asd.sol\":3534:3544  msg.sender */\n      caller\n        /* \"asd.sol\":7637:7660  owner() == _msgSender() */\n      eq\n        /* \"asd.sol\":7629:7697  require(owner() == _msgSender(), \"Ownable: caller is not the owner\") */\n      tag_469\n      jumpi\n      mload(0x40)\n      shl(0xe5, 0x461bcd)\n      dup2\n      mstore\n      0x04\n      add\n      tag_263\n      swap1\n      tag_264\n      jump\t// in\n    tag_469:\n        /* \"asd.sol\":35898:35927  numTokensSellToAddToLiquidity */\n      0x19\n        /* \"asd.sol\":35898:35944  numTokensSellToAddToLiquidity = amountToUpdate */\n      sstore\n        /* \"asd.sol\":35802:35952  function setNumTokensSellToAddToLiquidity(uint256 amountToUpdate) external onlyOwner {\r... */\n      jump\t// out\n        /* \"asd.sol\":7887:8131  function transferOwnership(address newOwner) public virtual onlyOwner {\r... */\n    tag_257:\n        /* \"asd.sol\":7544:7551  address */\n      0x00\n        /* \"asd.sol\":7571:7577  _owner */\n      sload\n      sub(shl(0xa0, 0x01), 0x01)\n      and\n        /* \"asd.sol\":3534:3544  msg.sender */\n      caller\n        /* \"asd.sol\":7637:7660  owner() == _msgSender() */\n      eq\n        /* \"asd.sol\":7629:7697  require(owner() == _msgSender(), \"Ownable: caller is not the owner\") */\n      tag_475\n      jumpi\n      mload(0x40)\n      shl(0xe5, 0x461bcd)\n      dup2\n      mstore\n      0x04\n      add\n      tag_263\n      swap1\n      tag_264\n      jump\t// in\n    tag_475:\n      sub(shl(0xa0, 0x01), 0x01)\n        /* \"asd.sol\":7976:7998  newOwner != address(0) */\n      dup2\n      and\n        /* \"asd.sol\":7968:8041  require(newOwner != address(0), \"Ownable: new owner is the zero address\") */\n      tag_478\n      jumpi\n      mload(0x40)\n      shl(0xe5, 0x461bcd)\n      dup2\n      mstore\n        /* \"#utility.yul\":6066:6068   */\n      0x20\n        /* \"asd.sol\":7968:8041  require(newOwner != address(0), \"Ownable: new owner is the zero address\") */\n      0x04\n      dup3\n      add\n        /* \"#utility.yul\":6048:6069   */\n      mstore\n        /* \"#utility.yul\":6105:6107   */\n      0x26\n        /* \"#utility.yul\":6085:6103   */\n      0x24\n      dup3\n      add\n        /* \"#utility.yul\":6078:6108   */\n      mstore\n        /* \"#utility.yul\":6144:6178   */\n      0x4f776e61626c653a206e6577206f776e657220697320746865207a65726f2061\n        /* \"#utility.yul\":6124:6142   */\n      0x44\n      dup3\n      add\n        /* \"#utility.yul\":6117:6179   */\n      mstore\n      shl(0xd0, 0x646472657373)\n        /* \"#utility.yul\":6195:6213   */\n      0x64\n      dup3\n      add\n        /* \"#utility.yul\":6188:6224   */\n      mstore\n        /* \"#utility.yul\":6241:6260   */\n      0x84\n      add\n        /* \"asd.sol\":7968:8041  require(newOwner != address(0), \"Ownable: new owner is the zero address\") */\n      tag_263\n        /* \"#utility.yul\":6038:6266   */\n      jump\n        /* \"asd.sol\":7968:8041  require(newOwner != address(0), \"Ownable: new owner is the zero address\") */\n    tag_478:\n        /* \"asd.sol\":8078:8084  _owner */\n      0x00\n      dup1\n      sload\n        /* \"asd.sol\":8057:8095  OwnershipTransferred(_owner, newOwner) */\n      mload(0x40)\n      sub(shl(0xa0, 0x01), 0x01)\n      dup1\n      dup6\n      and\n      swap4\n        /* \"asd.sol\":8078:8084  _owner */\n      swap3\n      and\n      swap2\n      0x00\n      dup1\n      mload\n      0x20\n      data_9c064737b570a74c2bac5d21056d93ac53115214216cd14d4a0fc9b60be81231\n      dup4\n      codecopy\n      dup2\n      mload\n      swap2\n      mstore\n        /* \"asd.sol\":8057:8095  OwnershipTransferred(_owner, newOwner) */\n      swap2\n      log3\n        /* \"asd.sol\":8106:8112  _owner */\n      0x00\n        /* \"asd.sol\":8106:8123  _owner = newOwner */\n      dup1\n      sload\n      not(sub(shl(0xa0, 0x01), 0x01))\n      and\n      sub(shl(0xa0, 0x01), 0x01)\n      swap3\n      swap1\n      swap3\n      and\n      swap2\n      swap1\n      swap2\n      or\n      swap1\n      sstore\n        /* \"asd.sol\":7887:8131  function transferOwnership(address newOwner) public virtual onlyOwner {\r... */\n      jump\t// out\n        /* \"asd.sol\":29797:30134  function _approve(address owner, address spender, uint256 amount) private {\r... */\n    tag_276:\n      sub(shl(0xa0, 0x01), 0x01)\n        /* \"asd.sol\":29890:29909  owner != address(0) */\n      dup4\n      and\n        /* \"asd.sol\":29882:29950  require(owner != address(0), \"ERC20: approve from the zero address\") */\n      tag_483\n      jumpi\n      mload(0x40)\n      shl(0xe5, 0x461bcd)\n      dup2\n      mstore\n        /* \"#utility.yul\":9939:9941   */\n      0x20\n        /* \"asd.sol\":29882:29950  require(owner != address(0), \"ERC20: approve from the zero address\") */\n      0x04\n      dup3\n      add\n        /* \"#utility.yul\":9921:9942   */\n      mstore\n        /* \"#utility.yul\":9978:9980   */\n      0x24\n        /* \"#utility.yul\":9958:9976   */\n      dup1\n      dup3\n      add\n        /* \"#utility.yul\":9951:9981   */\n      mstore\n        /* \"#utility.yul\":10017:10051   */\n      0x45524332303a20617070726f76652066726f6d20746865207a65726f20616464\n        /* \"#utility.yul\":9997:10015   */\n      0x44\n      dup3\n      add\n        /* \"#utility.yul\":9990:10052   */\n      mstore\n      shl(0xe0, 0x72657373)\n        /* \"#utility.yul\":10068:10086   */\n      0x64\n      dup3\n      add\n        /* \"#utility.yul\":10061:10095   */\n      mstore\n        /* \"#utility.yul\":10112:10131   */\n      0x84\n      add\n        /* \"asd.sol\":29882:29950  require(owner != address(0), \"ERC20: approve from the zero address\") */\n      tag_263\n        /* \"#utility.yul\":9911:10137   */\n      jump\n        /* \"asd.sol\":29882:29950  require(owner != address(0), \"ERC20: approve from the zero address\") */\n    tag_483:\n      sub(shl(0xa0, 0x01), 0x01)\n        /* \"asd.sol\":29969:29990  spender != address(0) */\n      dup3\n      and\n        /* \"asd.sol\":29961:30029  require(spender != address(0), \"ERC20: approve to the zero address\") */\n      tag_486\n      jumpi\n      mload(0x40)\n      shl(0xe5, 0x461bcd)\n      dup2\n      mstore\n        /* \"#utility.yul\":6473:6475   */\n      0x20\n        /* \"asd.sol\":29961:30029  require(spender != address(0), \"ERC20: approve to the zero address\") */\n      0x04\n      dup3\n      add\n        /* \"#utility.yul\":6455:6476   */\n      mstore\n        /* \"#utility.yul\":6512:6514   */\n      0x22\n        /* \"#utility.yul\":6492:6510   */\n      0x24\n      dup3\n      add\n        /* \"#utility.yul\":6485:6515   */\n      mstore\n        /* \"#utility.yul\":6551:6585   */\n      0x45524332303a20617070726f766520746f20746865207a65726f206164647265\n        /* \"#utility.yul\":6531:6549   */\n      0x44\n      dup3\n      add\n        /* \"#utility.yul\":6524:6586   */\n      mstore\n      shl(0xf0, 0x7373)\n        /* \"#utility.yul\":6602:6620   */\n      0x64\n      dup3\n      add\n        /* \"#utility.yul\":6595:6627   */\n      mstore\n        /* \"#utility.yul\":6644:6663   */\n      0x84\n      add\n        /* \"asd.sol\":29961:30029  require(spender != address(0), \"ERC20: approve to the zero address\") */\n      tag_263\n        /* \"#utility.yul\":6445:6669   */\n      jump\n        /* \"asd.sol\":29961:30029  require(spender != address(0), \"ERC20: approve to the zero address\") */\n    tag_486:\n      sub(shl(0xa0, 0x01), 0x01)\n        /* \"asd.sol\":30042:30060  _allowances[owner] */\n      dup4\n      dup2\n      and\n      0x00\n      dup2\n      dup2\n      mstore\n        /* \"asd.sol\":30042:30053  _allowances */\n      0x05\n        /* \"asd.sol\":30042:30060  _allowances[owner] */\n      0x20\n      swap1\n      dup2\n      mstore\n      0x40\n      dup1\n      dup4\n      keccak256\n        /* \"asd.sol\":30042:30069  _allowances[owner][spender] */\n      swap5\n      dup8\n      and\n      dup1\n      dup5\n      mstore\n      swap5\n      dup3\n      mstore\n      swap2\n      dup3\n      swap1\n      keccak256\n        /* \"asd.sol\":30042:30078  _allowances[owner][spender] = amount */\n      dup6\n      swap1\n      sstore\n        /* \"asd.sol\":30094:30126  Approval(owner, spender, amount) */\n      swap1\n      mload\n        /* \"#utility.yul\":11049:11074   */\n      dup5\n      dup2\n      mstore\n        /* \"asd.sol\":30094:30126  Approval(owner, spender, amount) */\n      0x8c5be1e5ebec7d5bd14f71427d1e84f3dd0314c0f7b2291e5b200ac8c7c3b925\n      swap2\n        /* \"#utility.yul\":11022:11040   */\n      add\n        /* \"asd.sol\":30094:30126  Approval(owner, spender, amount) */\n      mload(0x40)\n      dup1\n      swap2\n      sub\n      swap1\n      log3\n        /* \"asd.sol\":29797:30134  function _approve(address owner, address spender, uint256 amount) private {\r... */\n      pop\n      pop\n      pop\n      jump\t// out\n        /* \"asd.sol\":30142:31423  function _transfer(\r... */\n    tag_287:\n      sub(shl(0xa0, 0x01), 0x01)\n        /* \"asd.sol\":30264:30282  from != address(0) */\n      dup4\n      and\n        /* \"asd.sol\":30256:30324  require(from != address(0), \"ERC20: transfer from the zero address\") */\n      tag_491\n      jumpi\n      mload(0x40)\n      shl(0xe5, 0x461bcd)\n      dup2\n      mstore\n        /* \"#utility.yul\":9533:9535   */\n      0x20\n        /* \"asd.sol\":30256:30324  require(from != address(0), \"ERC20: transfer from the zero address\") */\n      0x04\n      dup3\n      add\n        /* \"#utility.yul\":9515:9536   */\n      mstore\n        /* \"#utility.yul\":9572:9574   */\n      0x25\n        /* \"#utility.yul\":9552:9570   */\n      0x24\n      dup3\n      add\n        /* \"#utility.yul\":9545:9575   */\n      mstore\n        /* \"#utility.yul\":9611:9645   */\n      0x45524332303a207472616e736665722066726f6d20746865207a65726f206164\n        /* \"#utility.yul\":9591:9609   */\n      0x44\n      dup3\n      add\n        /* \"#utility.yul\":9584:9646   */\n      mstore\n      shl(0xd8, 0x6472657373)\n        /* \"#utility.yul\":9662:9680   */\n      0x64\n      dup3\n      add\n        /* \"#utility.yul\":9655:9690   */\n      mstore\n        /* \"#utility.yul\":9707:9726   */\n      0x84\n      add\n        /* \"asd.sol\":30256:30324  require(from != address(0), \"ERC20: transfer from the zero address\") */\n      tag_263\n        /* \"#utility.yul\":9505:9732   */\n      jump\n        /* \"asd.sol\":30256:30324  require(from != address(0), \"ERC20: transfer from the zero address\") */\n    tag_491:\n      sub(shl(0xa0, 0x01), 0x01)\n        /* \"asd.sol\":30343:30359  to != address(0) */\n      dup3\n      and\n        /* \"asd.sol\":30335:30399  require(to != address(0), \"ERC20: transfer to the zero address\") */\n      tag_494\n      jumpi\n      mload(0x40)\n      shl(0xe5, 0x461bcd)\n      dup2\n      mstore\n        /* \"#utility.yul\":5251:5253   */\n      0x20\n        /* \"asd.sol\":30335:30399  require(to != address(0), \"ERC20: transfer to the zero address\") */\n      0x04\n      dup3\n      add\n        /* \"#utility.yul\":5233:5254   */\n      mstore\n        /* \"#utility.yul\":5290:5292   */\n      0x23\n        /* \"#utility.yul\":5270:5288   */\n      0x24\n      dup3\n      add\n        /* \"#utility.yul\":5263:5293   */\n      mstore\n        /* \"#utility.yul\":5329:5363   */\n      0x45524332303a207472616e7366657220746f20746865207a65726f2061646472\n        /* \"#utility.yul\":5309:5327   */\n      0x44\n      dup3\n      add\n        /* \"#utility.yul\":5302:5364   */\n      mstore\n      shl(0xe8, 0x657373)\n        /* \"#utility.yul\":5380:5398   */\n      0x64\n      dup3\n      add\n        /* \"#utility.yul\":5373:5406   */\n      mstore\n        /* \"#utility.yul\":5423:5442   */\n      0x84\n      add\n        /* \"asd.sol\":30335:30399  require(to != address(0), \"ERC20: transfer to the zero address\") */\n      tag_263\n        /* \"#utility.yul\":5223:5448   */\n      jump\n        /* \"asd.sol\":30335:30399  require(to != address(0), \"ERC20: transfer to the zero address\") */\n    tag_494:\n        /* \"asd.sol\":30427:30428  0 */\n      0x00\n        /* \"asd.sol\":30418:30424  amount */\n      dup2\n        /* \"asd.sol\":30418:30428  amount > 0 */\n      gt\n        /* \"asd.sol\":30410:30474  require(amount > 0, \"Transfer amount must be greater than zero\") */\n      tag_497\n      jumpi\n      mload(0x40)\n      shl(0xe5, 0x461bcd)\n      dup2\n      mstore\n        /* \"#utility.yul\":8718:8720   */\n      0x20\n        /* \"asd.sol\":30410:30474  require(amount > 0, \"Transfer amount must be greater than zero\") */\n      0x04\n      dup3\n      add\n        /* \"#utility.yul\":8700:8721   */\n      mstore\n        /* \"#utility.yul\":8757:8759   */\n      0x29\n        /* \"#utility.yul\":8737:8755   */\n      0x24\n      dup3\n      add\n        /* \"#utility.yul\":8730:8760   */\n      mstore\n        /* \"#utility.yul\":8796:8830   */\n      0x5472616e7366657220616d6f756e74206d757374206265206772656174657220\n        /* \"#utility.yul\":8776:8794   */\n      0x44\n      dup3\n      add\n        /* \"#utility.yul\":8769:8831   */\n      mstore\n      shl(0xb8, 0x7468616e207a65726f)\n        /* \"#utility.yul\":8847:8865   */\n      0x64\n      dup3\n      add\n        /* \"#utility.yul\":8840:8879   */\n      mstore\n        /* \"#utility.yul\":8896:8915   */\n      0x84\n      add\n        /* \"asd.sol\":30410:30474  require(amount > 0, \"Transfer amount must be greater than zero\") */\n      tag_263\n        /* \"#utility.yul\":8690:8921   */\n      jump\n        /* \"asd.sol\":30410:30474  require(amount > 0, \"Transfer amount must be greater than zero\") */\n    tag_497:\n        /* \"asd.sol\":7544:7551  address */\n      0x00\n        /* \"asd.sol\":7571:7577  _owner */\n      sload\n      sub(shl(0xa0, 0x01), 0x01)\n        /* \"asd.sol\":30488:30503  from != owner() */\n      dup5\n      dup2\n      and\n        /* \"asd.sol\":7571:7577  _owner */\n      swap2\n      and\n        /* \"asd.sol\":30488:30503  from != owner() */\n      eq\n      dup1\n      iszero\n      swap1\n        /* \"asd.sol\":30488:30520  from != owner() && to != owner() */\n      tag_501\n      jumpi\n      pop\n        /* \"asd.sol\":7544:7551  address */\n      0x00\n        /* \"asd.sol\":7571:7577  _owner */\n      sload\n      sub(shl(0xa0, 0x01), 0x01)\n        /* \"asd.sol\":30507:30520  to != owner() */\n      dup4\n      dup2\n      and\n        /* \"asd.sol\":7571:7577  _owner */\n      swap2\n      and\n        /* \"asd.sol\":30507:30520  to != owner() */\n      eq\n      iszero\n        /* \"asd.sol\":30488:30520  from != owner() && to != owner() */\n    tag_501:\n        /* \"asd.sol\":30485:30610  if(from != owner() && to != owner())\r... */\n      iszero\n      tag_504\n      jumpi\n        /* \"asd.sol\":30553:30565  _maxTxAmount */\n      sload(0x18)\n        /* \"asd.sol\":30543:30549  amount */\n      dup2\n        /* \"asd.sol\":30543:30565  amount <= _maxTxAmount */\n      gt\n      iszero\n        /* \"asd.sol\":30535:30610  require(amount <= _maxTxAmount, \"Transfer amount exceeds the maxTxAmount.\") */\n      tag_504\n      jumpi\n      mload(0x40)\n      shl(0xe5, 0x461bcd)\n      dup2\n      mstore\n        /* \"#utility.yul\":7948:7950   */\n      0x20\n        /* \"asd.sol\":30535:30610  require(amount <= _maxTxAmount, \"Transfer amount exceeds the maxTxAmount.\") */\n      0x04\n      dup3\n      add\n        /* \"#utility.yul\":7930:7951   */\n      mstore\n        /* \"#utility.yul\":7987:7989   */\n      0x28\n        /* \"#utility.yul\":7967:7985   */\n      0x24\n      dup3\n      add\n        /* \"#utility.yul\":7960:7990   */\n      mstore\n        /* \"#utility.yul\":8026:8060   */\n      0x5472616e7366657220616d6f756e74206578636565647320746865206d617854\n        /* \"#utility.yul\":8006:8024   */\n      0x44\n      dup3\n      add\n        /* \"#utility.yul\":7999:8061   */\n      mstore\n      shl(0xc1, 0x3c20b6b7bab73a17)\n        /* \"#utility.yul\":8077:8095   */\n      0x64\n      dup3\n      add\n        /* \"#utility.yul\":8070:8108   */\n      mstore\n        /* \"#utility.yul\":8125:8144   */\n      0x84\n      add\n        /* \"asd.sol\":30535:30610  require(amount <= _maxTxAmount, \"Transfer amount exceeds the maxTxAmount.\") */\n      tag_263\n        /* \"#utility.yul\":7920:8150   */\n      jump\n        /* \"asd.sol\":30535:30610  require(amount <= _maxTxAmount, \"Transfer amount exceeds the maxTxAmount.\") */\n    tag_504:\n        /* \"asd.sol\":30623:30651  uint256 contractTokenBalance */\n      0x00\n        /* \"asd.sol\":30654:30678  balanceOf(address(this)) */\n      tag_507\n        /* \"asd.sol\":30672:30676  this */\n      address\n        /* \"asd.sol\":30654:30663  balanceOf */\n      tag_168\n        /* \"asd.sol\":30654:30678  balanceOf(address(this)) */\n      jump\t// in\n    tag_507:\n        /* \"asd.sol\":30623:30678  uint256 contractTokenBalance = balanceOf(address(this)) */\n      swap1\n      pop\n        /* \"asd.sol\":30726:30738  _maxTxAmount */\n      sload(0x18)\n        /* \"asd.sol\":30702:30722  contractTokenBalance */\n      dup2\n        /* \"asd.sol\":30702:30738  contractTokenBalance >= _maxTxAmount */\n      lt\n        /* \"asd.sol\":30699:30811  if(contractTokenBalance >= _maxTxAmount)\r... */\n      tag_508\n      jumpi\n      pop\n        /* \"asd.sol\":30787:30799  _maxTxAmount */\n      sload(0x18)\n        /* \"asd.sol\":30699:30811  if(contractTokenBalance >= _maxTxAmount)\r... */\n    tag_508:\n        /* \"asd.sol\":30882:30911  numTokensSellToAddToLiquidity */\n      sload(0x19)\n        /* \"asd.sol\":30858:30911  contractTokenBalance >= numTokensSellToAddToLiquidity */\n      dup2\n      lt\n      dup1\n      iszero\n      swap1\n      dup2\n      swap1\n        /* \"asd.sol\":30940:30993  overMinTokenBalance &&\r... */\n      tag_509\n      jumpi\n      pop\n        /* \"asd.sol\":30977:30993  inSwapAndLiquify */\n      sload(0x17)\n      shl(0xa0, 0x01)\n      swap1\n      div\n      0xff\n      and\n        /* \"asd.sol\":30976:30993  !inSwapAndLiquify */\n      iszero\n        /* \"asd.sol\":30940:30993  overMinTokenBalance &&\r... */\n    tag_509:\n        /* \"asd.sol\":30940:31031  overMinTokenBalance &&\r... */\n      dup1\n      iszero\n      tag_510\n      jumpi\n      pop\n        /* \"asd.sol\":31018:31031  uniswapV2Pair */\n      sload(0x17)\n      sub(shl(0xa0, 0x01), 0x01)\n        /* \"asd.sol\":31010:31031  from != uniswapV2Pair */\n      dup7\n      dup2\n      and\n        /* \"asd.sol\":31018:31031  uniswapV2Pair */\n      swap2\n      and\n        /* \"asd.sol\":31010:31031  from != uniswapV2Pair */\n      eq\n      iszero\n        /* \"asd.sol\":30940:31031  overMinTokenBalance &&\r... */\n    tag_510:\n        /* \"asd.sol\":30940:31069  overMinTokenBalance &&\r... */\n      dup1\n      iszero\n      tag_511\n      jumpi\n      pop\n        /* \"asd.sol\":31048:31069  swapAndLiquifyEnabled */\n      sload(0x17)\n      shl(0xa8, 0x01)\n      swap1\n      div\n      0xff\n      and\n        /* \"asd.sol\":30940:31069  overMinTokenBalance &&\r... */\n    tag_511:\n        /* \"asd.sol\":30922:31211  if (\r... */\n      iszero\n      tag_513\n      jumpi\n        /* \"asd.sol\":31119:31148  numTokensSellToAddToLiquidity */\n      sload(0x19)\n        /* \"asd.sol\":31096:31148  contractTokenBalance = numTokensSellToAddToLiquidity */\n      swap2\n      pop\n        /* \"asd.sol\":31163:31199  swapAndLiquify(contractTokenBalance) */\n      tag_513\n        /* \"asd.sol\":31178:31198  contractTokenBalance */\n      dup3\n        /* \"asd.sol\":31163:31177  swapAndLiquify */\n      tag_514\n        /* \"asd.sol\":31163:31199  swapAndLiquify(contractTokenBalance) */\n      jump\t// in\n    tag_513:\n      sub(shl(0xa0, 0x01), 0x01)\n        /* \"asd.sol\":31264:31288  _isExcludedFromFee[from] */\n      dup6\n      and\n        /* \"asd.sol\":31231:31243  bool takeFee */\n      0x00\n        /* \"asd.sol\":31264:31288  _isExcludedFromFee[from] */\n      swap1\n      dup2\n      mstore\n        /* \"asd.sol\":31264:31282  _isExcludedFromFee */\n      0x06\n        /* \"asd.sol\":31264:31288  _isExcludedFromFee[from] */\n      0x20\n      mstore\n      0x40\n      swap1\n      keccak256\n      sload\n        /* \"asd.sol\":31246:31250  true */\n      0x01\n      swap1\n        /* \"asd.sol\":31264:31288  _isExcludedFromFee[from] */\n      0xff\n      and\n      dup1\n        /* \"asd.sol\":31264:31314  _isExcludedFromFee[from] || _isExcludedFromFee[to] */\n      tag_515\n      jumpi\n      pop\n      sub(shl(0xa0, 0x01), 0x01)\n        /* \"asd.sol\":31292:31314  _isExcludedFromFee[to] */\n      dup6\n      and\n      0x00\n      swap1\n      dup2\n      mstore\n        /* \"asd.sol\":31292:31310  _isExcludedFromFee */\n      0x06\n        /* \"asd.sol\":31292:31314  _isExcludedFromFee[to] */\n      0x20\n      mstore\n      0x40\n      swap1\n      keccak256\n      sload\n      0xff\n      and\n        /* \"asd.sol\":31264:31314  _isExcludedFromFee[from] || _isExcludedFromFee[to] */\n    tag_515:\n        /* \"asd.sol\":31261:31357  if(_isExcludedFromFee[from] || _isExcludedFromFee[to]){\r... */\n      iszero\n      tag_516\n      jumpi\n      pop\n        /* \"asd.sol\":31340:31345  false */\n      0x00\n        /* \"asd.sol\":31261:31357  if(_isExcludedFromFee[from] || _isExcludedFromFee[to]){\r... */\n    tag_516:\n        /* \"asd.sol\":31377:31415  _tokenTransfer(from,to,amount,takeFee) */\n      tag_517\n        /* \"asd.sol\":31392:31396  from */\n      dup7\n        /* \"asd.sol\":31397:31399  to */\n      dup7\n        /* \"asd.sol\":31400:31406  amount */\n      dup7\n        /* \"asd.sol\":31407:31414  takeFee */\n      dup5\n        /* \"asd.sol\":31377:31391  _tokenTransfer */\n      tag_518\n        /* \"asd.sol\":31377:31415  _tokenTransfer(from,to,amount,takeFee) */\n      jump\t// in\n    tag_517:\n        /* \"asd.sol\":30142:31423  function _transfer(\r... */\n      pop\n      pop\n      pop\n      pop\n      pop\n      pop\n      jump\t// out\n        /* \"asd.sol\":2768:2974  function sub(uint256 a, uint256 b, string memory errorMessage) internal pure returns (uint256) {\r... */\n    tag_292:\n        /* \"asd.sol\":2854:2861  uint256 */\n      0x00\n        /* \"asd.sol\":2915:2927  errorMessage */\n      dup2\n        /* \"asd.sol\":2907:2913  b <= a */\n      dup5\n      dup5\n      gt\n      iszero\n        /* \"asd.sol\":2899:2928  require(b <= a, errorMessage) */\n      tag_520\n      jumpi\n      mload(0x40)\n      shl(0xe5, 0x461bcd)\n      dup2\n      mstore\n      0x04\n      add\n      tag_263\n      swap2\n      swap1\n      tag_66\n      jump\t// in\n    tag_520:\n      pop\n      pop\n      pop\n        /* \"asd.sol\":2950:2955  a - b */\n      swap1\n      sub\n      swap1\n        /* \"asd.sol\":2768:2974  function sub(uint256 a, uint256 b, string memory errorMessage) internal pure returns (uint256) {\r... */\n      jump\t// out\n        /* \"asd.sol\":27274:27437  function _getRate() private view returns(uint256) {\r... */\n    tag_298:\n        /* \"asd.sol\":27315:27322  uint256 */\n      0x00\n        /* \"asd.sol\":27336:27351  uint256 rSupply */\n      dup1\n        /* \"asd.sol\":27353:27368  uint256 tSupply */\n      0x00\n        /* \"asd.sol\":27372:27391  _getCurrentSupply() */\n      tag_523\n        /* \"asd.sol\":27372:27389  _getCurrentSupply */\n      tag_524\n        /* \"asd.sol\":27372:27391  _getCurrentSupply() */\n      jump\t// in\n    tag_523:\n        /* \"asd.sol\":27335:27391  (uint256 rSupply, uint256 tSupply) = _getCurrentSupply() */\n      swap1\n      swap3\n      pop\n      swap1\n      pop\n        /* \"asd.sol\":27409:27429  rSupply.div(tSupply) */\n      tag_525\n        /* \"asd.sol\":27335:27391  (uint256 rSupply, uint256 tSupply) = _getCurrentSupply() */\n      dup3\n      dup3\n        /* \"asd.sol\":27409:27420  rSupply.div */\n      tag_300\n        /* \"asd.sol\":27409:27429  rSupply.div(tSupply) */\n      jump\t// in\n    tag_525:\n        /* \"asd.sol\":27402:27429  return rSupply.div(tSupply) */\n      swap3\n      pop\n      pop\n      pop\n        /* \"asd.sol\":27274:27437  function _getRate() private view returns(uint256) {\r... */\n      swap1\n      jump\t// out\n        /* \"asd.sol\":2550:2648  function div(uint256 a, uint256 b) internal pure returns (uint256) {\r... */\n    tag_300:\n        /* \"asd.sol\":2608:2615  uint256 */\n      0x00\n        /* \"asd.sol\":2635:2640  a / b */\n      tag_299\n        /* \"asd.sol\":2639:2640  b */\n      dup3\n        /* \"asd.sol\":2635:2636  a */\n      dup5\n        /* \"asd.sol\":2635:2640  a / b */\n      tag_528\n      jump\t// in\n        /* \"asd.sol\":2224:2322  function add(uint256 a, uint256 b) internal pure returns (uint256) {\r... */\n    tag_338:\n        /* \"asd.sol\":2282:2289  uint256 */\n      0x00\n        /* \"asd.sol\":2309:2314  a + b */\n      tag_299\n        /* \"asd.sol\":2313:2314  b */\n      dup3\n        /* \"asd.sol\":2309:2310  a */\n      dup5\n        /* \"asd.sol\":2309:2314  a + b */\n      tag_531\n      jump\t// in\n        /* \"asd.sol\":25891:26345  function _getValues(uint256 tAmount) private view returns (uint256, uint256, uint256, uint256, uint256, uint256, uint256) {\r... */\n    tag_345:\n        /* \"asd.sol\":25950:25957  uint256 */\n      0x00\n        /* \"asd.sol\":25959:25966  uint256 */\n      dup1\n        /* \"asd.sol\":25968:25975  uint256 */\n      0x00\n        /* \"asd.sol\":25977:25984  uint256 */\n      dup1\n        /* \"asd.sol\":25986:25993  uint256 */\n      0x00\n        /* \"asd.sol\":25995:26002  uint256 */\n      dup1\n        /* \"asd.sol\":26004:26011  uint256 */\n      0x00\n        /* \"asd.sol\":26025:26048  uint256 tTransferAmount */\n      dup1\n        /* \"asd.sol\":26050:26062  uint256 tFee */\n      0x00\n        /* \"asd.sol\":26064:26082  uint256 tLiquidity */\n      dup1\n        /* \"asd.sol\":26084:26096  uint256 tDev */\n      0x00\n        /* \"asd.sol\":26100:26120  _getTValues(tAmount) */\n      tag_533\n        /* \"asd.sol\":26112:26119  tAmount */\n      dup13\n        /* \"asd.sol\":26100:26111  _getTValues */\n      tag_534\n        /* \"asd.sol\":26100:26120  _getTValues(tAmount) */\n      jump\t// in\n    tag_533:\n        /* \"asd.sol\":26024:26120  (uint256 tTransferAmount, uint256 tFee, uint256 tLiquidity, uint256 tDev) = _getTValues(tAmount) */\n      swap4\n      pop\n      swap4\n      pop\n      swap4\n      pop\n      swap4\n      pop\n        /* \"asd.sol\":26132:26147  uint256 rAmount */\n      0x00\n        /* \"asd.sol\":26149:26172  uint256 rTransferAmount */\n      dup1\n        /* \"asd.sol\":26174:26186  uint256 rFee */\n      0x00\n        /* \"asd.sol\":26190:26246  _getRValues(tAmount, tFee, tLiquidity, tDev, _getRate()) */\n      tag_535\n        /* \"asd.sol\":26202:26209  tAmount */\n      dup16\n        /* \"asd.sol\":26211:26215  tFee */\n      dup8\n        /* \"asd.sol\":26217:26227  tLiquidity */\n      dup8\n        /* \"asd.sol\":26229:26233  tDev */\n      dup8\n        /* \"asd.sol\":26235:26245  _getRate() */\n      tag_536\n        /* \"asd.sol\":26235:26243  _getRate */\n      tag_298\n        /* \"asd.sol\":26235:26245  _getRate() */\n      jump\t// in\n    tag_536:\n        /* \"asd.sol\":26190:26201  _getRValues */\n      tag_537\n        /* \"asd.sol\":26190:26246  _getRValues(tAmount, tFee, tLiquidity, tDev, _getRate()) */\n      jump\t// in\n    tag_535:\n        /* \"asd.sol\":26131:26246  (uint256 rAmount, uint256 rTransferAmount, uint256 rFee) = _getRValues(tAmount, tFee, tLiquidity, tDev, _getRate()) */\n      swap2\n      swap16\n      pop\n      swap14\n      pop\n      swap12\n      pop\n        /* \"asd.sol\":26297:26312  tTransferAmount */\n      swap6\n      swap10\n      pop\n        /* \"asd.sol\":26314:26318  tFee */\n      swap4\n      swap8\n      pop\n        /* \"asd.sol\":26320:26330  tLiquidity */\n      swap2\n      swap6\n      pop\n        /* \"asd.sol\":26332:26336  tDev */\n      swap4\n      pop\n      pop\n      pop\n      pop\n        /* \"asd.sol\":25891:26345  function _getValues(uint256 tAmount) private view returns (uint256, uint256, uint256, uint256, uint256, uint256, uint256) {\r... */\n      swap2\n      swap4\n      swap6\n      swap8\n      swap1\n      swap3\n      swap5\n      swap7\n      pop\n      jump\t// out\n        /* \"asd.sol\":2332:2430  function sub(uint256 a, uint256 b) internal pure returns (uint256) {\r... */\n    tag_347:\n        /* \"asd.sol\":2390:2397  uint256 */\n      0x00\n        /* \"asd.sol\":2417:2422  a - b */\n      tag_299\n        /* \"asd.sol\":2421:2422  b */\n      dup3\n        /* \"asd.sol\":2417:2418  a */\n      dup5\n        /* \"asd.sol\":2417:2422  a - b */\n      tag_318\n      jump\t// in\n        /* \"asd.sol\":31431:31896  function swapAndLiquify(uint256 contractTokenBalance) private lockTheSwap {\r... */\n    tag_514:\n        /* \"asd.sol\":18229:18245  inSwapAndLiquify */\n      0x17\n        /* \"asd.sol\":18229:18252  inSwapAndLiquify = true */\n      dup1\n      sload\n      not(shl(0xa0, 0xff))\n      and\n      shl(0xa0, 0x01)\n      or\n      swap1\n      sstore\n      0x00\n        /* \"asd.sol\":31531:31558  contractTokenBalance.div(2) */\n      tag_542\n        /* \"asd.sol\":31531:31551  contractTokenBalance */\n      dup3\n        /* \"asd.sol\":31556:31557  2 */\n      0x02\n        /* \"asd.sol\":31531:31555  contractTokenBalance.div */\n      tag_300\n        /* \"asd.sol\":31531:31558  contractTokenBalance.div(2) */\n      jump\t// in\n    tag_542:\n        /* \"asd.sol\":31516:31558  uint256 half = contractTokenBalance.div(2) */\n      swap1\n      pop\n        /* \"asd.sol\":31569:31586  uint256 otherHalf */\n      0x00\n        /* \"asd.sol\":31589:31619  contractTokenBalance.sub(half) */\n      tag_543\n        /* \"asd.sol\":31589:31609  contractTokenBalance */\n      dup4\n        /* \"asd.sol\":31516:31558  uint256 half = contractTokenBalance.div(2) */\n      dup4\n        /* \"asd.sol\":31589:31613  contractTokenBalance.sub */\n      tag_347\n        /* \"asd.sol\":31589:31619  contractTokenBalance.sub(half) */\n      jump\t// in\n    tag_543:\n        /* \"asd.sol\":31569:31619  uint256 otherHalf = contractTokenBalance.sub(half) */\n      swap1\n      pop\n        /* \"asd.sol\":31655:31676  address(this).balance */\n      selfbalance\n        /* \"asd.sol\":31687:31709  swapTokensForEth(half) */\n      tag_544\n        /* \"asd.sol\":31704:31708  half */\n      dup4\n        /* \"asd.sol\":31687:31703  swapTokensForEth */\n      tag_545\n        /* \"asd.sol\":31687:31709  swapTokensForEth(half) */\n      jump\t// in\n    tag_544:\n        /* \"asd.sol\":31721:31739  uint256 newBalance */\n      0x00\n        /* \"asd.sol\":31742:31783  address(this).balance.sub(initialBalance) */\n      tag_546\n        /* \"asd.sol\":31742:31763  address(this).balance */\n      selfbalance\n        /* \"asd.sol\":31768:31782  initialBalance */\n      dup4\n        /* \"asd.sol\":31742:31767  address(this).balance.sub */\n      tag_347\n        /* \"asd.sol\":31742:31783  address(this).balance.sub(initialBalance) */\n      jump\t// in\n    tag_546:\n        /* \"asd.sol\":31721:31783  uint256 newBalance = address(this).balance.sub(initialBalance) */\n      swap1\n      pop\n        /* \"asd.sol\":31794:31829  addLiquidity(otherHalf, newBalance) */\n      tag_547\n        /* \"asd.sol\":31807:31816  otherHalf */\n      dup4\n        /* \"asd.sol\":31818:31828  newBalance */\n      dup3\n        /* \"asd.sol\":31794:31806  addLiquidity */\n      tag_548\n        /* \"asd.sol\":31794:31829  addLiquidity(otherHalf, newBalance) */\n      jump\t// in\n    tag_547:\n        /* \"asd.sol\":31845:31888  SwapAndLiquify(half, newBalance, otherHalf) */\n      0x40\n      dup1\n      mload\n        /* \"#utility.yul\":12275:12300   */\n      dup6\n      dup2\n      mstore\n        /* \"#utility.yul\":12331:12333   */\n      0x20\n        /* \"#utility.yul\":12316:12334   */\n      dup2\n      add\n        /* \"#utility.yul\":12309:12343   */\n      dup4\n      swap1\n      mstore\n        /* \"#utility.yul\":12359:12377   */\n      swap1\n      dup2\n      add\n        /* \"#utility.yul\":12352:12386   */\n      dup5\n      swap1\n      mstore\n        /* \"asd.sol\":31845:31888  SwapAndLiquify(half, newBalance, otherHalf) */\n      0x17bbfb9a6069321b6ded73bd96327c9e6b7212a5cd51ff219cd61370acafb561\n      swap1\n        /* \"#utility.yul\":12263:12265   */\n      0x60\n        /* \"#utility.yul\":12248:12266   */\n      add\n        /* \"asd.sol\":31845:31888  SwapAndLiquify(half, newBalance, otherHalf) */\n      mload(0x40)\n      dup1\n      swap2\n      sub\n      swap1\n      log1\n      pop\n      pop\n        /* \"asd.sol\":18275:18291  inSwapAndLiquify */\n      0x17\n        /* \"asd.sol\":18275:18299  inSwapAndLiquify = false */\n      dup1\n      sload\n      not(shl(0xa0, 0xff))\n      and\n      swap1\n      sstore\n      pop\n      pop\n      pop\n        /* \"asd.sol\":31431:31896  function swapAndLiquify(uint256 contractTokenBalance) private lockTheSwap {\r... */\n      jump\t// out\n        /* \"asd.sol\":32833:33667  function _tokenTransfer(address sender, address recipient, uint256 amount,bool takeFee) private {\r... */\n    tag_518:\n        /* \"asd.sol\":32944:32951  takeFee */\n      dup1\n        /* \"asd.sol\":32940:32980  if(!takeFee)\r... */\n      tag_553\n      jumpi\n        /* \"asd.sol\":32966:32980  removeAllFee() */\n      tag_553\n        /* \"asd.sol\":29300:29307  _taxFee */\n      0x10\n      dup1\n      sload\n        /* \"asd.sol\":29282:29297  _previousTaxFee */\n      0x11\n        /* \"asd.sol\":29282:29307  _previousTaxFee = _taxFee */\n      sstore\n        /* \"asd.sol\":29336:29343  _devFee */\n      0x12\n      dup1\n      sload\n        /* \"asd.sol\":29318:29333  _previousDevFee */\n      0x13\n        /* \"asd.sol\":29318:29343  _previousDevFee = _devFee */\n      sstore\n        /* \"asd.sol\":29378:29391  _liquidityFee */\n      0x14\n      dup1\n      sload\n        /* \"asd.sol\":29354:29375  _previousLiquidityFee */\n      0x15\n        /* \"asd.sol\":29354:29391  _previousLiquidityFee = _liquidityFee */\n      sstore\n      0x00\n        /* \"asd.sol\":29412:29423  _taxFee = 0 */\n      swap3\n      dup4\n      swap1\n      sstore\n        /* \"asd.sol\":29434:29445  _devFee = 0 */\n      swap1\n      dup3\n      swap1\n      sstore\n        /* \"asd.sol\":29456:29473  _liquidityFee = 0 */\n      sstore\n        /* \"asd.sol\":29238:29481  function removeAllFee() private { \r... */\n      jump\n        /* \"asd.sol\":32966:32980  removeAllFee() */\n    tag_553:\n      sub(shl(0xa0, 0x01), 0x01)\n        /* \"asd.sol\":33005:33024  _isExcluded[sender] */\n      dup5\n      and\n      0x00\n      swap1\n      dup2\n      mstore\n        /* \"asd.sol\":33005:33016  _isExcluded */\n      0x07\n        /* \"asd.sol\":33005:33024  _isExcluded[sender] */\n      0x20\n      mstore\n      0x40\n      swap1\n      keccak256\n      sload\n      0xff\n      and\n        /* \"asd.sol\":33005:33051  _isExcluded[sender] && !_isExcluded[recipient] */\n      dup1\n      iszero\n      tag_555\n      jumpi\n      pop\n      sub(shl(0xa0, 0x01), 0x01)\n        /* \"asd.sol\":33029:33051  _isExcluded[recipient] */\n      dup4\n      and\n      0x00\n      swap1\n      dup2\n      mstore\n        /* \"asd.sol\":33029:33040  _isExcluded */\n      0x07\n        /* \"asd.sol\":33029:33051  _isExcluded[recipient] */\n      0x20\n      mstore\n      0x40\n      swap1\n      keccak256\n      sload\n      0xff\n      and\n        /* \"asd.sol\":33028:33051  !_isExcluded[recipient] */\n      iszero\n        /* \"asd.sol\":33005:33051  _isExcluded[sender] && !_isExcluded[recipient] */\n    tag_555:\n        /* \"asd.sol\":33001:33598  if (_isExcluded[sender] && !_isExcluded[recipient]) {\r... */\n      iszero\n      tag_556\n      jumpi\n        /* \"asd.sol\":33068:33116  _transferFromExcluded(sender, recipient, amount) */\n      tag_557\n        /* \"asd.sol\":33090:33096  sender */\n      dup5\n        /* \"asd.sol\":33098:33107  recipient */\n      dup5\n        /* \"asd.sol\":33109:33115  amount */\n      dup5\n        /* \"asd.sol\":33068:33089  _transferFromExcluded */\n      tag_558\n        /* \"asd.sol\":33068:33116  _transferFromExcluded(sender, recipient, amount) */\n      jump\t// in\n    tag_557:\n        /* \"asd.sol\":33001:33598  if (_isExcluded[sender] && !_isExcluded[recipient]) {\r... */\n      jump(tag_575)\n    tag_556:\n      sub(shl(0xa0, 0x01), 0x01)\n        /* \"asd.sol\":33139:33158  _isExcluded[sender] */\n      dup5\n      and\n      0x00\n      swap1\n      dup2\n      mstore\n        /* \"asd.sol\":33139:33150  _isExcluded */\n      0x07\n        /* \"asd.sol\":33139:33158  _isExcluded[sender] */\n      0x20\n      mstore\n      0x40\n      swap1\n      keccak256\n      sload\n      0xff\n      and\n        /* \"asd.sol\":33138:33158  !_isExcluded[sender] */\n      iszero\n        /* \"asd.sol\":33138:33184  !_isExcluded[sender] && _isExcluded[recipient] */\n      dup1\n      iszero\n      tag_560\n      jumpi\n      pop\n      sub(shl(0xa0, 0x01), 0x01)\n        /* \"asd.sol\":33162:33184  _isExcluded[recipient] */\n      dup4\n      and\n      0x00\n      swap1\n      dup2\n      mstore\n        /* \"asd.sol\":33162:33173  _isExcluded */\n      0x07\n        /* \"asd.sol\":33162:33184  _isExcluded[recipient] */\n      0x20\n      mstore\n      0x40\n      swap1\n      keccak256\n      sload\n      0xff\n      and\n        /* \"asd.sol\":33138:33184  !_isExcluded[sender] && _isExcluded[recipient] */\n    tag_560:\n        /* \"asd.sol\":33134:33598  if (!_isExcluded[sender] && _isExcluded[recipient]) {\r... */\n      iszero\n      tag_561\n      jumpi\n        /* \"asd.sol\":33201:33247  _transferToExcluded(sender, recipient, amount) */\n      tag_557\n        /* \"asd.sol\":33221:33227  sender */\n      dup5\n        /* \"asd.sol\":33229:33238  recipient */\n      dup5\n        /* \"asd.sol\":33240:33246  amount */\n      dup5\n        /* \"asd.sol\":33201:33220  _transferToExcluded */\n      tag_563\n        /* \"asd.sol\":33201:33247  _transferToExcluded(sender, recipient, amount) */\n      jump\t// in\n        /* \"asd.sol\":33134:33598  if (!_isExcluded[sender] && _isExcluded[recipient]) {\r... */\n    tag_561:\n      sub(shl(0xa0, 0x01), 0x01)\n        /* \"asd.sol\":33270:33289  _isExcluded[sender] */\n      dup5\n      and\n      0x00\n      swap1\n      dup2\n      mstore\n        /* \"asd.sol\":33270:33281  _isExcluded */\n      0x07\n        /* \"asd.sol\":33270:33289  _isExcluded[sender] */\n      0x20\n      mstore\n      0x40\n      swap1\n      keccak256\n      sload\n      0xff\n      and\n        /* \"asd.sol\":33269:33289  !_isExcluded[sender] */\n      iszero\n        /* \"asd.sol\":33269:33316  !_isExcluded[sender] && !_isExcluded[recipient] */\n      dup1\n      iszero\n      tag_565\n      jumpi\n      pop\n      sub(shl(0xa0, 0x01), 0x01)\n        /* \"asd.sol\":33294:33316  _isExcluded[recipient] */\n      dup4\n      and\n      0x00\n      swap1\n      dup2\n      mstore\n        /* \"asd.sol\":33294:33305  _isExcluded */\n      0x07\n        /* \"asd.sol\":33294:33316  _isExcluded[recipient] */\n      0x20\n      mstore\n      0x40\n      swap1\n      keccak256\n      sload\n      0xff\n      and\n        /* \"asd.sol\":33293:33316  !_isExcluded[recipient] */\n      iszero\n        /* \"asd.sol\":33269:33316  !_isExcluded[sender] && !_isExcluded[recipient] */\n    tag_565:\n        /* \"asd.sol\":33265:33598  if (!_isExcluded[sender] && !_isExcluded[recipient]) {\r... */\n      iszero\n      tag_566\n      jumpi\n        /* \"asd.sol\":33333:33377  _transferStandard(sender, recipient, amount) */\n      tag_557\n        /* \"asd.sol\":33351:33357  sender */\n      dup5\n        /* \"asd.sol\":33359:33368  recipient */\n      dup5\n        /* \"asd.sol\":33370:33376  amount */\n      dup5\n        /* \"asd.sol\":33333:33350  _transferStandard */\n      tag_568\n        /* \"asd.sol\":33333:33377  _transferStandard(sender, recipient, amount) */\n      jump\t// in\n        /* \"asd.sol\":33265:33598  if (!_isExcluded[sender] && !_isExcluded[recipient]) {\r... */\n    tag_566:\n      sub(shl(0xa0, 0x01), 0x01)\n        /* \"asd.sol\":33399:33418  _isExcluded[sender] */\n      dup5\n      and\n      0x00\n      swap1\n      dup2\n      mstore\n        /* \"asd.sol\":33399:33410  _isExcluded */\n      0x07\n        /* \"asd.sol\":33399:33418  _isExcluded[sender] */\n      0x20\n      mstore\n      0x40\n      swap1\n      keccak256\n      sload\n      0xff\n      and\n        /* \"asd.sol\":33399:33444  _isExcluded[sender] && _isExcluded[recipient] */\n      dup1\n      iszero\n      tag_570\n      jumpi\n      pop\n      sub(shl(0xa0, 0x01), 0x01)\n        /* \"asd.sol\":33422:33444  _isExcluded[recipient] */\n      dup4\n      and\n      0x00\n      swap1\n      dup2\n      mstore\n        /* \"asd.sol\":33422:33433  _isExcluded */\n      0x07\n        /* \"asd.sol\":33422:33444  _isExcluded[recipient] */\n      0x20\n      mstore\n      0x40\n      swap1\n      keccak256\n      sload\n      0xff\n      and\n        /* \"asd.sol\":33399:33444  _isExcluded[sender] && _isExcluded[recipient] */\n    tag_570:\n        /* \"asd.sol\":33395:33598  if (_isExcluded[sender] && _isExcluded[recipient]) {\r... */\n      iszero\n      tag_571\n      jumpi\n        /* \"asd.sol\":33461:33509  _transferBothExcluded(sender, recipient, amount) */\n      tag_557\n        /* \"asd.sol\":33483:33489  sender */\n      dup5\n        /* \"asd.sol\":33491:33500  recipient */\n      dup5\n        /* \"asd.sol\":33502:33508  amount */\n      dup5\n        /* \"asd.sol\":33461:33482  _transferBothExcluded */\n      tag_573\n        /* \"asd.sol\":33461:33509  _transferBothExcluded(sender, recipient, amount) */\n      jump\t// in\n        /* \"asd.sol\":33395:33598  if (_isExcluded[sender] && _isExcluded[recipient]) {\r... */\n    tag_571:\n        /* \"asd.sol\":33542:33586  _transferStandard(sender, recipient, amount) */\n      tag_575\n        /* \"asd.sol\":33560:33566  sender */\n      dup5\n        /* \"asd.sol\":33568:33577  recipient */\n      dup5\n        /* \"asd.sol\":33579:33585  amount */\n      dup5\n        /* \"asd.sol\":33542:33559  _transferStandard */\n      tag_568\n        /* \"asd.sol\":33542:33586  _transferStandard(sender, recipient, amount) */\n      jump\t// in\n    tag_575:\n        /* \"asd.sol\":33622:33629  takeFee */\n      dup1\n        /* \"asd.sol\":33618:33659  if(!takeFee)\r... */\n      tag_577\n      jumpi\n        /* \"asd.sol\":33644:33659  restoreAllFee() */\n      tag_577\n        /* \"asd.sol\":29547:29562  _previousTaxFee */\n      sload(0x11)\n        /* \"asd.sol\":29537:29544  _taxFee */\n      0x10\n        /* \"asd.sol\":29537:29562  _taxFee = _previousTaxFee */\n      sstore\n        /* \"asd.sol\":29583:29598  _previousDevFee */\n      sload(0x13)\n        /* \"asd.sol\":29573:29580  _devFee */\n      0x12\n        /* \"asd.sol\":29573:29598  _devFee = _previousDevFee */\n      sstore\n        /* \"asd.sol\":29625:29646  _previousLiquidityFee */\n      sload(0x15)\n        /* \"asd.sol\":29609:29622  _liquidityFee */\n      0x14\n        /* \"asd.sol\":29609:29646  _liquidityFee = _previousLiquidityFee */\n      sstore\n        /* \"asd.sol\":29493:29654  function restoreAllFee() private {\r... */\n      jump\n        /* \"asd.sol\":33644:33659  restoreAllFee() */\n    tag_577:\n        /* \"asd.sol\":32833:33667  function _tokenTransfer(address sender, address recipient, uint256 amount,bool takeFee) private {\r... */\n      pop\n      pop\n      pop\n      pop\n      jump\t// out\n        /* \"asd.sol\":27445:28006  function _getCurrentSupply() private view returns(uint256, uint256) {\r... */\n    tag_524:\n        /* \"asd.sol\":27542:27549  _rTotal */\n      sload(0x0b)\n        /* \"asd.sol\":27578:27585  _tTotal */\n      sload(0x0a)\n        /* \"asd.sol\":27495:27502  uint256 */\n      0x00\n      swap2\n      dup3\n      swap2\n      dup3\n        /* \"asd.sol\":27602:27891  for (uint256 i = 0; i < _excluded.length; i++) {\r... */\n    tag_580:\n        /* \"asd.sol\":27626:27635  _excluded */\n      0x08\n        /* \"asd.sol\":27626:27642  _excluded.length */\n      sload\n        /* \"asd.sol\":27622:27642  i < _excluded.length */\n      dup2\n      lt\n        /* \"asd.sol\":27602:27891  for (uint256 i = 0; i < _excluded.length; i++) {\r... */\n      iszero\n      tag_581\n      jumpi\n        /* \"asd.sol\":27692:27699  rSupply */\n      dup3\n        /* \"asd.sol\":27668:27675  _rOwned */\n      0x03\n        /* \"asd.sol\":27668:27689  _rOwned[_excluded[i]] */\n      0x00\n        /* \"asd.sol\":27676:27685  _excluded */\n      0x08\n        /* \"asd.sol\":27686:27687  i */\n      dup5\n        /* \"asd.sol\":27676:27688  _excluded[i] */\n      dup2\n      sload\n      dup2\n      lt\n      tag_583\n      jumpi\n      mstore(0x00, shl(0xe0, 0x4e487b71))\n      mstore(0x04, 0x32)\n      revert(0x00, 0x24)\n    tag_583:\n      0x00\n      swap2\n      dup3\n      mstore\n      0x20\n      dup1\n      dup4\n      keccak256\n      swap1\n      swap2\n      add\n      sload\n      sub(shl(0xa0, 0x01), 0x01)\n      and\n        /* \"asd.sol\":27668:27689  _rOwned[_excluded[i]] */\n      dup4\n      mstore\n      dup3\n      add\n      swap3\n      swap1\n      swap3\n      mstore\n      0x40\n      add\n      swap1\n      keccak256\n      sload\n        /* \"asd.sol\":27668:27699  _rOwned[_excluded[i]] > rSupply */\n      gt\n      dup1\n        /* \"asd.sol\":27668:27734  _rOwned[_excluded[i]] > rSupply || _tOwned[_excluded[i]] > tSupply */\n      tag_585\n      jumpi\n      pop\n        /* \"asd.sol\":27727:27734  tSupply */\n      dup2\n        /* \"asd.sol\":27703:27710  _tOwned */\n      0x04\n        /* \"asd.sol\":27703:27724  _tOwned[_excluded[i]] */\n      0x00\n        /* \"asd.sol\":27711:27720  _excluded */\n      0x08\n        /* \"asd.sol\":27721:27722  i */\n      dup5\n        /* \"asd.sol\":27711:27723  _excluded[i] */\n      dup2\n      sload\n      dup2\n      lt\n      tag_586\n      jumpi\n      mstore(0x00, shl(0xe0, 0x4e487b71))\n      mstore(0x04, 0x32)\n      revert(0x00, 0x24)\n    tag_586:\n      0x00\n      swap2\n      dup3\n      mstore\n      0x20\n      dup1\n      dup4\n      keccak256\n      swap1\n      swap2\n      add\n      sload\n      sub(shl(0xa0, 0x01), 0x01)\n      and\n        /* \"asd.sol\":27703:27724  _tOwned[_excluded[i]] */\n      dup4\n      mstore\n      dup3\n      add\n      swap3\n      swap1\n      swap3\n      mstore\n      0x40\n      add\n      swap1\n      keccak256\n      sload\n        /* \"asd.sol\":27703:27734  _tOwned[_excluded[i]] > tSupply */\n      gt\n        /* \"asd.sol\":27668:27734  _rOwned[_excluded[i]] > rSupply || _tOwned[_excluded[i]] > tSupply */\n    tag_585:\n        /* \"asd.sol\":27664:27761  if (_rOwned[_excluded[i]] > rSupply || _tOwned[_excluded[i]] > tSupply) return (_rTotal, _tTotal) */\n      iszero\n      tag_588\n      jumpi\n        /* \"asd.sol\":27744:27751  _rTotal */\n      sload(0x0b)\n        /* \"asd.sol\":27753:27760  _tTotal */\n      sload(0x0a)\n        /* \"asd.sol\":27736:27761  return (_rTotal, _tTotal) */\n      swap5\n      pop\n      swap5\n      pop\n      pop\n      pop\n      pop\n        /* \"asd.sol\":27445:28006  function _getCurrentSupply() private view returns(uint256, uint256) {\r... */\n      swap1\n      swap2\n      jump\t// out\n        /* \"asd.sol\":27664:27761  if (_rOwned[_excluded[i]] > rSupply || _tOwned[_excluded[i]] > tSupply) return (_rTotal, _tTotal) */\n    tag_588:\n        /* \"asd.sol\":27786:27820  rSupply.sub(_rOwned[_excluded[i]]) */\n      tag_589\n        /* \"asd.sol\":27798:27805  _rOwned */\n      0x03\n        /* \"asd.sol\":27798:27819  _rOwned[_excluded[i]] */\n      0x00\n        /* \"asd.sol\":27806:27815  _excluded */\n      0x08\n        /* \"asd.sol\":27816:27817  i */\n      dup5\n        /* \"asd.sol\":27806:27818  _excluded[i] */\n      dup2\n      sload\n      dup2\n      lt\n      tag_590\n      jumpi\n      mstore(0x00, shl(0xe0, 0x4e487b71))\n      mstore(0x04, 0x32)\n      revert(0x00, 0x24)\n    tag_590:\n      0x00\n      swap2\n      dup3\n      mstore\n      0x20\n      dup1\n      dup4\n      keccak256\n      swap1\n      swap2\n      add\n      sload\n      sub(shl(0xa0, 0x01), 0x01)\n      and\n        /* \"asd.sol\":27798:27819  _rOwned[_excluded[i]] */\n      dup4\n      mstore\n      dup3\n      add\n      swap3\n      swap1\n      swap3\n      mstore\n      0x40\n      add\n      swap1\n      keccak256\n      sload\n        /* \"asd.sol\":27786:27793  rSupply */\n      dup5\n      swap1\n        /* \"asd.sol\":27786:27797  rSupply.sub */\n      tag_347\n        /* \"asd.sol\":27786:27820  rSupply.sub(_rOwned[_excluded[i]]) */\n      jump\t// in\n    tag_589:\n        /* \"asd.sol\":27776:27820  rSupply = rSupply.sub(_rOwned[_excluded[i]]) */\n      swap3\n      pop\n        /* \"asd.sol\":27845:27879  tSupply.sub(_tOwned[_excluded[i]]) */\n      tag_592\n        /* \"asd.sol\":27857:27864  _tOwned */\n      0x04\n        /* \"asd.sol\":27857:27878  _tOwned[_excluded[i]] */\n      0x00\n        /* \"asd.sol\":27865:27874  _excluded */\n      0x08\n        /* \"asd.sol\":27875:27876  i */\n      dup5\n        /* \"asd.sol\":27865:27877  _excluded[i] */\n      dup2\n      sload\n      dup2\n      lt\n      tag_593\n      jumpi\n      mstore(0x00, shl(0xe0, 0x4e487b71))\n      mstore(0x04, 0x32)\n      revert(0x00, 0x24)\n    tag_593:\n      0x00\n      swap2\n      dup3\n      mstore\n      0x20\n      dup1\n      dup4\n      keccak256\n      swap1\n      swap2\n      add\n      sload\n      sub(shl(0xa0, 0x01), 0x01)\n      and\n        /* \"asd.sol\":27857:27878  _tOwned[_excluded[i]] */\n      dup4\n      mstore\n      dup3\n      add\n      swap3\n      swap1\n      swap3\n      mstore\n      0x40\n      add\n      swap1\n      keccak256\n      sload\n        /* \"asd.sol\":27845:27852  tSupply */\n      dup4\n      swap1\n        /* \"asd.sol\":27845:27856  tSupply.sub */\n      tag_347\n        /* \"asd.sol\":27845:27879  tSupply.sub(_tOwned[_excluded[i]]) */\n      jump\t// in\n    tag_592:\n        /* \"asd.sol\":27835:27879  tSupply = tSupply.sub(_tOwned[_excluded[i]]) */\n      swap2\n      pop\n        /* \"asd.sol\":27644:27647  i++ */\n      dup1\n      tag_595\n      dup2\n      tag_326\n      jump\t// in\n    tag_595:\n      swap2\n      pop\n      pop\n        /* \"asd.sol\":27602:27891  for (uint256 i = 0; i < _excluded.length; i++) {\r... */\n      jump(tag_580)\n    tag_581:\n      pop\n        /* \"asd.sol\":27927:27934  _tTotal */\n      sload(0x0a)\n        /* \"asd.sol\":27915:27922  _rTotal */\n      sload(0x0b)\n        /* \"asd.sol\":27915:27935  _rTotal.div(_tTotal) */\n      tag_596\n      swap2\n        /* \"asd.sol\":27915:27926  _rTotal.div */\n      tag_300\n        /* \"asd.sol\":27915:27935  _rTotal.div(_tTotal) */\n      jump\t// in\n    tag_596:\n        /* \"asd.sol\":27905:27912  rSupply */\n      dup3\n        /* \"asd.sol\":27905:27935  rSupply < _rTotal.div(_tTotal) */\n      lt\n        /* \"asd.sol\":27901:27962  if (rSupply < _rTotal.div(_tTotal)) return (_rTotal, _tTotal) */\n      iszero\n      tag_597\n      jumpi\n        /* \"asd.sol\":27945:27952  _rTotal */\n      sload(0x0b)\n        /* \"asd.sol\":27954:27961  _tTotal */\n      sload(0x0a)\n        /* \"asd.sol\":27937:27962  return (_rTotal, _tTotal) */\n      swap4\n      pop\n      swap4\n      pop\n      pop\n      pop\n        /* \"asd.sol\":27445:28006  function _getCurrentSupply() private view returns(uint256, uint256) {\r... */\n      swap1\n      swap2\n      jump\t// out\n        /* \"asd.sol\":27901:27962  if (rSupply < _rTotal.div(_tTotal)) return (_rTotal, _tTotal) */\n    tag_597:\n        /* \"asd.sol\":27981:27988  rSupply */\n      swap1\n      swap4\n        /* \"asd.sol\":27990:27997  tSupply */\n      swap1\n      swap3\n      pop\n        /* \"asd.sol\":27445:28006  function _getCurrentSupply() private view returns(uint256, uint256) {\r... */\n      swap1\n      pop\n      jump\t// out\n        /* \"asd.sol\":26353:26758  function _getTValues(uint256 tAmount) private view returns (uint256, uint256, uint256, uint256) {\r... */\n    tag_534:\n        /* \"asd.sol\":26413:26420  uint256 */\n      0x00\n        /* \"asd.sol\":26422:26429  uint256 */\n      dup1\n        /* \"asd.sol\":26431:26438  uint256 */\n      0x00\n        /* \"asd.sol\":26440:26447  uint256 */\n      dup1\n        /* \"asd.sol\":26460:26472  uint256 tFee */\n      0x00\n        /* \"asd.sol\":26475:26499  calculateTaxFee(tAmount) */\n      tag_599\n        /* \"asd.sol\":26491:26498  tAmount */\n      dup7\n        /* \"asd.sol\":26475:26490  calculateTaxFee */\n      tag_600\n        /* \"asd.sol\":26475:26499  calculateTaxFee(tAmount) */\n      jump\t// in\n    tag_599:\n        /* \"asd.sol\":26460:26499  uint256 tFee = calculateTaxFee(tAmount) */\n      swap1\n      pop\n        /* \"asd.sol\":26510:26528  uint256 tLiquidity */\n      0x00\n        /* \"asd.sol\":26531:26561  calculateLiquidityFee(tAmount) */\n      tag_601\n        /* \"asd.sol\":26553:26560  tAmount */\n      dup8\n        /* \"asd.sol\":26531:26552  calculateLiquidityFee */\n      tag_602\n        /* \"asd.sol\":26531:26561  calculateLiquidityFee(tAmount) */\n      jump\t// in\n    tag_601:\n        /* \"asd.sol\":26510:26561  uint256 tLiquidity = calculateLiquidityFee(tAmount) */\n      swap1\n      pop\n        /* \"asd.sol\":26572:26584  uint256 tDev */\n      0x00\n        /* \"asd.sol\":26587:26611  calculateDevFee(tAmount) */\n      tag_603\n        /* \"asd.sol\":26603:26610  tAmount */\n      dup9\n        /* \"asd.sol\":26587:26602  calculateDevFee */\n      tag_604\n        /* \"asd.sol\":26587:26611  calculateDevFee(tAmount) */\n      jump\t// in\n    tag_603:\n        /* \"asd.sol\":26572:26611  uint256 tDev = calculateDevFee(tAmount) */\n      swap1\n      pop\n        /* \"asd.sol\":26622:26645  uint256 tTransferAmount */\n      0x00\n        /* \"asd.sol\":26648:26691  tAmount.sub(tFee).sub(tLiquidity).sub(tDev) */\n      tag_605\n        /* \"asd.sol\":26572:26611  uint256 tDev = calculateDevFee(tAmount) */\n      dup3\n        /* \"asd.sol\":26648:26681  tAmount.sub(tFee).sub(tLiquidity) */\n      tag_607\n        /* \"asd.sol\":26670:26680  tLiquidity */\n      dup6\n        /* \"asd.sol\":26648:26681  tAmount.sub(tFee).sub(tLiquidity) */\n      dup2\n        /* \"asd.sol\":26648:26655  tAmount */\n      dup14\n        /* \"asd.sol\":26660:26664  tFee */\n      dup10\n        /* \"asd.sol\":26648:26659  tAmount.sub */\n      tag_347\n        /* \"asd.sol\":26648:26665  tAmount.sub(tFee) */\n      jump\t// in\n    tag_607:\n        /* \"asd.sol\":26648:26669  tAmount.sub(tFee).sub */\n      swap1\n      tag_347\n        /* \"asd.sol\":26648:26681  tAmount.sub(tFee).sub(tLiquidity) */\n      jump\t// in\n        /* \"asd.sol\":26648:26691  tAmount.sub(tFee).sub(tLiquidity).sub(tDev) */\n    tag_605:\n        /* \"asd.sol\":26622:26691  uint256 tTransferAmount = tAmount.sub(tFee).sub(tLiquidity).sub(tDev) */\n      swap10\n        /* \"asd.sol\":26727:26731  tFee */\n      swap4\n      swap9\n      pop\n        /* \"asd.sol\":26733:26743  tLiquidity */\n      swap2\n      swap7\n      pop\n      swap5\n      pop\n        /* \"asd.sol\":26353:26758  function _getTValues(uint256 tAmount) private view returns (uint256, uint256, uint256, uint256) {\r... */\n      swap1\n      swap3\n      pop\n      pop\n      pop\n      jump\t// out\n        /* \"asd.sol\":26766:27266  function _getRValues(uint256 tAmount, uint256 tFee, uint256 tLiquidity, uint256 tDev, uint256 currentRate) private pure returns (uint256, uint256, uint256) {\r... */\n    tag_537:\n        /* \"asd.sol\":26895:26902  uint256 */\n      0x00\n      dup1\n      dup1\n      dup1\n        /* \"asd.sol\":26951:26975  tAmount.mul(currentRate) */\n      tag_609\n        /* \"asd.sol\":26951:26958  tAmount */\n      dup10\n        /* \"asd.sol\":26963:26974  currentRate */\n      dup7\n        /* \"asd.sol\":26951:26962  tAmount.mul */\n      tag_610\n        /* \"asd.sol\":26951:26975  tAmount.mul(currentRate) */\n      jump\t// in\n    tag_609:\n        /* \"asd.sol\":26933:26975  uint256 rAmount = tAmount.mul(currentRate) */\n      swap1\n      pop\n        /* \"asd.sol\":26986:26998  uint256 rFee */\n      0x00\n        /* \"asd.sol\":27001:27022  tFee.mul(currentRate) */\n      tag_611\n        /* \"asd.sol\":27001:27005  tFee */\n      dup10\n        /* \"asd.sol\":27010:27021  currentRate */\n      dup8\n        /* \"asd.sol\":27001:27009  tFee.mul */\n      tag_610\n        /* \"asd.sol\":27001:27022  tFee.mul(currentRate) */\n      jump\t// in\n    tag_611:\n        /* \"asd.sol\":26986:27022  uint256 rFee = tFee.mul(currentRate) */\n      swap1\n      pop\n        /* \"asd.sol\":27033:27051  uint256 rLiquidity */\n      0x00\n        /* \"asd.sol\":27054:27081  tLiquidity.mul(currentRate) */\n      tag_612\n        /* \"asd.sol\":27054:27064  tLiquidity */\n      dup10\n        /* \"asd.sol\":27069:27080  currentRate */\n      dup9\n        /* \"asd.sol\":27054:27068  tLiquidity.mul */\n      tag_610\n        /* \"asd.sol\":27054:27081  tLiquidity.mul(currentRate) */\n      jump\t// in\n    tag_612:\n        /* \"asd.sol\":27033:27081  uint256 rLiquidity = tLiquidity.mul(currentRate) */\n      swap1\n      pop\n        /* \"asd.sol\":27092:27104  uint256 rDev */\n      0x00\n        /* \"asd.sol\":27107:27128  tDev.mul(currentRate) */\n      tag_613\n        /* \"asd.sol\":27107:27111  tDev */\n      dup10\n        /* \"asd.sol\":27116:27127  currentRate */\n      dup10\n        /* \"asd.sol\":27107:27115  tDev.mul */\n      tag_610\n        /* \"asd.sol\":27107:27128  tDev.mul(currentRate) */\n      jump\t// in\n    tag_613:\n        /* \"asd.sol\":27092:27128  uint256 rDev = tDev.mul(currentRate) */\n      swap1\n      pop\n        /* \"asd.sol\":27139:27162  uint256 rTransferAmount */\n      0x00\n        /* \"asd.sol\":27165:27208  rAmount.sub(rFee).sub(rLiquidity).sub(rDev) */\n      tag_614\n        /* \"asd.sol\":27092:27128  uint256 rDev = tDev.mul(currentRate) */\n      dup3\n        /* \"asd.sol\":27165:27198  rAmount.sub(rFee).sub(rLiquidity) */\n      tag_607\n        /* \"asd.sol\":27187:27197  rLiquidity */\n      dup6\n        /* \"asd.sol\":27165:27198  rAmount.sub(rFee).sub(rLiquidity) */\n      dup2\n        /* \"asd.sol\":27165:27172  rAmount */\n      dup10\n        /* \"asd.sol\":27177:27181  rFee */\n      dup10\n        /* \"asd.sol\":27165:27176  rAmount.sub */\n      tag_347\n        /* \"asd.sol\":27165:27182  rAmount.sub(rFee) */\n      jump\t// in\n        /* \"asd.sol\":27165:27208  rAmount.sub(rFee).sub(rLiquidity).sub(rDev) */\n    tag_614:\n        /* \"asd.sol\":27227:27234  rAmount */\n      swap5\n      swap14\n      swap5\n      swap13\n      pop\n        /* \"asd.sol\":27253:27257  rFee */\n      swap3\n      swap11\n      pop\n        /* \"asd.sol\":26766:27266  function _getRValues(uint256 tAmount, uint256 tFee, uint256 tLiquidity, uint256 tDev, uint256 currentRate) private pure returns (uint256, uint256, uint256) {\r... */\n      swap3\n      swap9\n      pop\n      pop\n      pop\n      pop\n      pop\n      pop\n      pop\n      pop\n      pop\n      jump\t// out\n        /* \"asd.sol\":31904:32403  function swapTokensForEth(uint256 tokenAmount) private {\r... */\n    tag_545:\n        /* \"asd.sol\":31994:32010  new address[](2) */\n      0x40\n      dup1\n      mload\n        /* \"asd.sol\":32008:32009  2 */\n      0x02\n        /* \"asd.sol\":31994:32010  new address[](2) */\n      dup1\n      dup3\n      mstore\n      0x60\n      dup3\n      add\n      dup4\n      mstore\n        /* \"asd.sol\":31970:31991  address[] memory path */\n      0x00\n      swap3\n        /* \"asd.sol\":31994:32010  new address[](2) */\n      0x20\n      dup4\n      add\n      swap1\n      dup1\n      calldatasize\n      dup4\n      calldatacopy\n      add\n      swap1\n      pop\n      pop\n        /* \"asd.sol\":31970:32010  address[] memory path = new address[](2) */\n      swap1\n      pop\n        /* \"asd.sol\":32039:32043  this */\n      address\n        /* \"asd.sol\":32021:32025  path */\n      dup2\n        /* \"asd.sol\":32026:32027  0 */\n      0x00\n        /* \"asd.sol\":32021:32028  path[0] */\n      dup2\n      mload\n      dup2\n      lt\n      tag_620\n      jumpi\n      mstore(0x00, shl(0xe0, 0x4e487b71))\n      mstore(0x04, 0x32)\n      revert(0x00, 0x24)\n    tag_620:\n      sub(shl(0xa0, 0x01), 0x01)\n        /* \"asd.sol\":32021:32044  path[0] = address(this) */\n      swap3\n      dup4\n      and\n        /* \"asd.sol\":32021:32028  path[0] */\n      0x20\n      swap2\n      dup3\n      mul\n      swap3\n      swap1\n      swap3\n      add\n      dup2\n      add\n        /* \"asd.sol\":32021:32044  path[0] = address(this) */\n      swap2\n      swap1\n      swap2\n      mstore\n        /* \"asd.sol\":32065:32080  uniswapV2Router */\n      sload(0x16)\n        /* \"asd.sol\":32065:32087  uniswapV2Router.WETH() */\n      0x40\n      dup1\n      mload\n      shl(0xe3, 0x15ab88c9)\n      dup2\n      mstore\n      swap1\n      mload\n        /* \"asd.sol\":32065:32080  uniswapV2Router */\n      swap2\n      swap1\n      swap4\n      and\n      swap3\n        /* \"asd.sol\":32065:32085  uniswapV2Router.WETH */\n      0xad5c4648\n      swap3\n        /* \"asd.sol\":32065:32087  uniswapV2Router.WETH() */\n      0x04\n      dup1\n      dup4\n      add\n      swap4\n        /* \"asd.sol\":32021:32028  path[0] */\n      swap2\n      swap3\n        /* \"asd.sol\":32065:32087  uniswapV2Router.WETH() */\n      dup3\n      swap1\n      sub\n      add\n      dup2\n        /* \"asd.sol\":32065:32080  uniswapV2Router */\n      dup7\n        /* \"asd.sol\":32065:32087  uniswapV2Router.WETH() */\n      dup1\n      extcodesize\n      iszero\n      dup1\n      iszero\n      tag_621\n      jumpi\n      0x00\n      dup1\n      revert\n    tag_621:\n      pop\n      gas\n      staticcall\n      iszero\n      dup1\n      iszero\n      tag_623\n      jumpi\n      returndatasize\n      0x00\n      dup1\n      returndatacopy\n      revert(0x00, returndatasize)\n    tag_623:\n      pop\n      pop\n      pop\n      pop\n      mload(0x40)\n      returndatasize\n      not(0x1f)\n      0x1f\n      dup3\n      add\n      and\n      dup3\n      add\n      dup1\n      0x40\n      mstore\n      pop\n      dup2\n      add\n      swap1\n      tag_624\n      swap2\n      swap1\n      tag_360\n      jump\t// in\n    tag_624:\n        /* \"asd.sol\":32055:32059  path */\n      dup2\n        /* \"asd.sol\":32060:32061  1 */\n      0x01\n        /* \"asd.sol\":32055:32062  path[1] */\n      dup2\n      mload\n      dup2\n      lt\n      tag_625\n      jumpi\n      mstore(0x00, shl(0xe0, 0x4e487b71))\n      mstore(0x04, 0x32)\n      revert(0x00, 0x24)\n    tag_625:\n      sub(shl(0xa0, 0x01), 0x01)\n        /* \"asd.sol\":32055:32087  path[1] = uniswapV2Router.WETH() */\n      swap3\n      dup4\n      and\n        /* \"asd.sol\":32055:32062  path[1] */\n      0x20\n      swap2\n      dup3\n      mul\n      swap3\n      swap1\n      swap3\n      add\n      add\n        /* \"asd.sol\":32055:32087  path[1] = uniswapV2Router.WETH() */\n      mstore\n        /* \"asd.sol\":32130:32145  uniswapV2Router */\n      sload(0x16)\n        /* \"asd.sol\":32098:32160  _approve(address(this), address(uniswapV2Router), tokenAmount) */\n      tag_626\n      swap2\n        /* \"asd.sol\":32115:32119  this */\n      address\n      swap2\n        /* \"asd.sol\":32130:32145  uniswapV2Router */\n      and\n        /* \"asd.sol\":32148:32159  tokenAmount */\n      dup5\n        /* \"asd.sol\":32098:32106  _approve */\n      tag_276\n        /* \"asd.sol\":32098:32160  _approve(address(this), address(uniswapV2Router), tokenAmount) */\n      jump\t// in\n    tag_626:\n        /* \"asd.sol\":32171:32186  uniswapV2Router */\n      sload(0x16)\n        /* \"asd.sol\":32171:32395  uniswapV2Router.swapExactTokensForETHSupportingFeeOnTransferTokens(\r... */\n      mload(0x40)\n      shl(0xe0, 0x791ac947)\n      dup2\n      mstore\n      sub(shl(0xa0, 0x01), 0x01)\n        /* \"asd.sol\":32171:32186  uniswapV2Router */\n      swap1\n      swap2\n      and\n      swap1\n        /* \"asd.sol\":32171:32237  uniswapV2Router.swapExactTokensForETHSupportingFeeOnTransferTokens */\n      0x791ac947\n      swap1\n        /* \"asd.sol\":32171:32395  uniswapV2Router.swapExactTokensForETHSupportingFeeOnTransferTokens(\r... */\n      tag_627\n      swap1\n        /* \"asd.sol\":32252:32263  tokenAmount */\n      dup6\n      swap1\n        /* \"asd.sol\":32171:32186  uniswapV2Router */\n      0x00\n      swap1\n        /* \"asd.sol\":32322:32326  path */\n      dup7\n      swap1\n        /* \"asd.sol\":32349:32353  this */\n      address\n      swap1\n        /* \"asd.sol\":32369:32384  block.timestamp */\n      timestamp\n      swap1\n        /* \"asd.sol\":32171:32395  uniswapV2Router.swapExactTokensForETHSupportingFeeOnTransferTokens(\r... */\n      0x04\n      add\n      tag_628\n      jump\t// in\n    tag_627:\n      0x00\n      mload(0x40)\n      dup1\n      dup4\n      sub\n      dup2\n      0x00\n      dup8\n      dup1\n      extcodesize\n      iszero\n      dup1\n      iszero\n      tag_629\n      jumpi\n      0x00\n      dup1\n      revert\n    tag_629:\n      pop\n      gas\n      call\n      iszero\n      dup1\n      iszero\n      tag_517\n      jumpi\n      returndatasize\n      0x00\n      dup1\n      returndatacopy\n      revert(0x00, returndatasize)\n        /* \"asd.sol\":32411:32825  function addLiquidity(uint256 tokenAmount, uint256 ethAmount) private {\r... */\n    tag_548:\n        /* \"asd.sol\":32524:32539  uniswapV2Router */\n      sload(0x16)\n        /* \"asd.sol\":32492:32554  _approve(address(this), address(uniswapV2Router), tokenAmount) */\n      tag_633\n      swap1\n        /* \"asd.sol\":32509:32513  this */\n      address\n      swap1\n      sub(shl(0xa0, 0x01), 0x01)\n        /* \"asd.sol\":32524:32539  uniswapV2Router */\n      and\n        /* \"asd.sol\":32542:32553  tokenAmount */\n      dup5\n        /* \"asd.sol\":32492:32500  _approve */\n      tag_276\n        /* \"asd.sol\":32492:32554  _approve(address(this), address(uniswapV2Router), tokenAmount) */\n      jump\t// in\n    tag_633:\n        /* \"asd.sol\":32565:32580  uniswapV2Router */\n      and(sub(shl(0xa0, 0x01), 0x01), sload(0x16))\n        /* \"asd.sol\":32565:32596  uniswapV2Router.addLiquidityETH */\n      0xf305d719\n        /* \"asd.sol\":32604:32613  ethAmount */\n      dup3\n        /* \"asd.sol\":32637:32641  this */\n      address\n        /* \"asd.sol\":32657:32668  tokenAmount */\n      dup6\n        /* \"asd.sol\":32565:32580  uniswapV2Router */\n      0x00\n      dup1\n        /* \"asd.sol\":32769:32776  owner() */\n      tag_634\n        /* \"asd.sol\":7544:7551  address */\n      0x00\n        /* \"asd.sol\":7571:7577  _owner */\n      sload\n      sub(shl(0xa0, 0x01), 0x01)\n      and\n      swap1\n        /* \"asd.sol\":7498:7585  function owner() public view virtual returns (address) {\r... */\n      jump\n        /* \"asd.sol\":32769:32776  owner() */\n    tag_634:\n        /* \"asd.sol\":32565:32817  uniswapV2Router.addLiquidityETH{value: ethAmount}(\r... */\n      mload(0x40)\n      0xe0\n      dup9\n      swap1\n      shl\n      not(sub(shl(0xe0, 0x01), 0x01))\n      and\n      dup2\n      mstore\n      sub(shl(0xa0, 0x01), 0x01)\n        /* \"#utility.yul\":3761:3776   */\n      swap6\n      dup7\n      and\n        /* \"asd.sol\":32565:32817  uniswapV2Router.addLiquidityETH{value: ethAmount}(\r... */\n      0x04\n      dup3\n      add\n        /* \"#utility.yul\":3743:3777   */\n      mstore\n        /* \"#utility.yul\":3793:3811   */\n      0x24\n      dup2\n      add\n        /* \"#utility.yul\":3786:3820   */\n      swap5\n      swap1\n      swap5\n      mstore\n        /* \"#utility.yul\":3836:3854   */\n      0x44\n      dup5\n      add\n        /* \"#utility.yul\":3829:3863   */\n      swap3\n      swap1\n      swap3\n      mstore\n        /* \"#utility.yul\":3879:3897   */\n      0x64\n      dup4\n      add\n        /* \"#utility.yul\":3872:3906   */\n      mstore\n        /* \"#utility.yul\":3943:3958   */\n      swap1\n      swap2\n      and\n        /* \"#utility.yul\":3922:3941   */\n      0x84\n      dup3\n      add\n        /* \"#utility.yul\":3915:3959   */\n      mstore\n        /* \"asd.sol\":32791:32806  block.timestamp */\n      timestamp\n        /* \"#utility.yul\":3975:3994   */\n      0xa4\n      dup3\n      add\n        /* \"#utility.yul\":3968:4003   */\n      mstore\n        /* \"#utility.yul\":3677:3696   */\n      0xc4\n      add\n        /* \"asd.sol\":32565:32817  uniswapV2Router.addLiquidityETH{value: ethAmount}(\r... */\n      0x60\n      mload(0x40)\n      dup1\n      dup4\n      sub\n      dup2\n      dup6\n      dup9\n      dup1\n      extcodesize\n      iszero\n      dup1\n      iszero\n      tag_637\n      jumpi\n      0x00\n      dup1\n      revert\n    tag_637:\n      pop\n      gas\n      call\n      iszero\n      dup1\n      iszero\n      tag_639\n      jumpi\n      returndatasize\n      0x00\n      dup1\n      returndatacopy\n      revert(0x00, returndatasize)\n    tag_639:\n      pop\n      pop\n      pop\n      pop\n      pop\n      mload(0x40)\n      returndatasize\n      not(0x1f)\n      0x1f\n      dup3\n      add\n      and\n      dup3\n      add\n      dup1\n      0x40\n      mstore\n      pop\n      dup2\n      add\n      swap1\n      tag_640\n      swap2\n      swap1\n      tag_641\n      jump\t// in\n    tag_640:\n      pop\n      pop\n      pop\n        /* \"asd.sol\":32411:32825  function addLiquidity(uint256 tokenAmount, uint256 ethAmount) private {\r... */\n      pop\n      pop\n      jump\t// out\n        /* \"asd.sol\":34857:35462  function _transferFromExcluded(address sender, address recipient, uint256 tAmount) private {\r... */\n    tag_558:\n        /* \"asd.sol\":34960:34975  uint256 rAmount */\n      0x00\n        /* \"asd.sol\":34977:35000  uint256 rTransferAmount */\n      dup1\n        /* \"asd.sol\":35002:35014  uint256 rFee */\n      0x00\n        /* \"asd.sol\":35016:35039  uint256 tTransferAmount */\n      dup1\n        /* \"asd.sol\":35041:35053  uint256 tFee */\n      0x00\n        /* \"asd.sol\":35055:35073  uint256 tLiquidity */\n      dup1\n        /* \"asd.sol\":35075:35087  uint256 tDev */\n      0x00\n        /* \"asd.sol\":35091:35110  _getValues(tAmount) */\n      tag_644\n        /* \"asd.sol\":35102:35109  tAmount */\n      dup9\n        /* \"asd.sol\":35091:35101  _getValues */\n      tag_345\n        /* \"asd.sol\":35091:35110  _getValues(tAmount) */\n      jump\t// in\n    tag_644:\n        /* \"asd.sol\":34959:35110  (uint256 rAmount, uint256 rTransferAmount, uint256 rFee, uint256 tTransferAmount, uint256 tFee, uint256 tLiquidity, uint256 tDev) = _getValues(tAmount) */\n      swap7\n      pop\n      swap7\n      pop\n      swap7\n      pop\n      swap7\n      pop\n      swap7\n      pop\n      swap7\n      pop\n      swap7\n      pop\n        /* \"asd.sol\":35139:35167  _tOwned[sender].sub(tAmount) */\n      tag_645\n        /* \"asd.sol\":35159:35166  tAmount */\n      dup9\n        /* \"asd.sol\":35139:35146  _tOwned */\n      0x04\n        /* \"asd.sol\":35139:35154  _tOwned[sender] */\n      0x00\n        /* \"asd.sol\":35147:35153  sender */\n      dup14\n      sub(shl(0xa0, 0x01), 0x01)\n        /* \"asd.sol\":35139:35154  _tOwned[sender] */\n      and\n      sub(shl(0xa0, 0x01), 0x01)\n      and\n      dup2\n      mstore\n      0x20\n      add\n      swap1\n      dup2\n      mstore\n      0x20\n      add\n      0x00\n      keccak256\n      sload\n        /* \"asd.sol\":35139:35158  _tOwned[sender].sub */\n      tag_347\n      swap1\n        /* \"asd.sol\":35139:35167  _tOwned[sender].sub(tAmount) */\n      swap2\n      swap1\n      0xffffffff\n      and\n      jump\t// in\n    tag_645:\n      sub(shl(0xa0, 0x01), 0x01)\n        /* \"asd.sol\":35121:35136  _tOwned[sender] */\n      dup12\n      and\n      0x00\n      swap1\n      dup2\n      mstore\n        /* \"asd.sol\":35121:35128  _tOwned */\n      0x04\n        /* \"asd.sol\":35121:35136  _tOwned[sender] */\n      0x20\n      swap1\n      dup2\n      mstore\n      0x40\n      dup1\n      dup4\n      keccak256\n        /* \"asd.sol\":35121:35167  _tOwned[sender] = _tOwned[sender].sub(tAmount) */\n      swap4\n      swap1\n      swap4\n      sstore\n        /* \"asd.sol\":35196:35203  _rOwned */\n      0x03\n        /* \"asd.sol\":35196:35211  _rOwned[sender] */\n      swap1\n      mstore\n      keccak256\n      sload\n        /* \"asd.sol\":35196:35224  _rOwned[sender].sub(rAmount) */\n      tag_646\n      swap1\n        /* \"asd.sol\":35216:35223  rAmount */\n      dup9\n        /* \"asd.sol\":35196:35215  _rOwned[sender].sub */\n      tag_347\n        /* \"asd.sol\":35196:35224  _rOwned[sender].sub(rAmount) */\n      jump\t// in\n    tag_646:\n      sub(shl(0xa0, 0x01), 0x01)\n        /* \"asd.sol\":35178:35193  _rOwned[sender] */\n      dup1\n      dup13\n      and\n      0x00\n      swap1\n      dup2\n      mstore\n        /* \"asd.sol\":35178:35185  _rOwned */\n      0x03\n        /* \"asd.sol\":35178:35193  _rOwned[sender] */\n      0x20\n      mstore\n      0x40\n      dup1\n      dup3\n      keccak256\n        /* \"asd.sol\":35178:35224  _rOwned[sender] = _rOwned[sender].sub(rAmount) */\n      swap4\n      swap1\n      swap4\n      sstore\n        /* \"asd.sol\":35256:35274  _rOwned[recipient] */\n      swap1\n      dup12\n      and\n      dup2\n      mstore\n      keccak256\n      sload\n        /* \"asd.sol\":35256:35295  _rOwned[recipient].add(rTransferAmount) */\n      tag_647\n      swap1\n        /* \"asd.sol\":35279:35294  rTransferAmount */\n      dup8\n        /* \"asd.sol\":35256:35278  _rOwned[recipient].add */\n      tag_338\n        /* \"asd.sol\":35256:35295  _rOwned[recipient].add(rTransferAmount) */\n      jump\t// in\n    tag_647:\n      sub(shl(0xa0, 0x01), 0x01)\n        /* \"asd.sol\":35235:35253  _rOwned[recipient] */\n      dup11\n      and\n      0x00\n      swap1\n      dup2\n      mstore\n        /* \"asd.sol\":35235:35242  _rOwned */\n      0x03\n        /* \"asd.sol\":35235:35253  _rOwned[recipient] */\n      0x20\n      mstore\n      0x40\n      swap1\n      keccak256\n        /* \"asd.sol\":35235:35295  _rOwned[recipient] = _rOwned[recipient].add(rTransferAmount) */\n      sstore\n        /* \"asd.sol\":35309:35335  _takeLiquidity(tLiquidity) */\n      tag_648\n        /* \"asd.sol\":35324:35334  tLiquidity */\n      dup3\n        /* \"asd.sol\":35309:35323  _takeLiquidity */\n      tag_649\n        /* \"asd.sol\":35309:35335  _takeLiquidity(tLiquidity) */\n      jump\t// in\n    tag_648:\n        /* \"asd.sol\":35346:35360  _takeDev(tDev) */\n      tag_650\n        /* \"asd.sol\":35355:35359  tDev */\n      dup2\n        /* \"asd.sol\":35346:35354  _takeDev */\n      tag_651\n        /* \"asd.sol\":35346:35360  _takeDev(tDev) */\n      jump\t// in\n    tag_650:\n        /* \"asd.sol\":35371:35394  _reflectFee(rFee, tFee) */\n      tag_652\n        /* \"asd.sol\":35383:35387  rFee */\n      dup6\n        /* \"asd.sol\":35389:35393  tFee */\n      dup5\n        /* \"asd.sol\":35371:35382  _reflectFee */\n      tag_653\n        /* \"asd.sol\":35371:35394  _reflectFee(rFee, tFee) */\n      jump\t// in\n    tag_652:\n        /* \"asd.sol\":35427:35436  recipient */\n      dup9\n      sub(shl(0xa0, 0x01), 0x01)\n        /* \"asd.sol\":35410:35454  Transfer(sender, recipient, tTransferAmount) */\n      and\n        /* \"asd.sol\":35419:35425  sender */\n      dup11\n      sub(shl(0xa0, 0x01), 0x01)\n        /* \"asd.sol\":35410:35454  Transfer(sender, recipient, tTransferAmount) */\n      and\n      0xddf252ad1be2c89b69c2b068fc378daa952ba7f163c4a11628f55a4df523b3ef\n        /* \"asd.sol\":35438:35453  tTransferAmount */\n      dup7\n        /* \"asd.sol\":35410:35454  Transfer(sender, recipient, tTransferAmount) */\n      mload(0x40)\n      tag_654\n      swap2\n        /* \"#utility.yul\":11049:11074   */\n      dup2\n      mstore\n        /* \"#utility.yul\":11037:11039   */\n      0x20\n        /* \"#utility.yul\":11022:11040   */\n      add\n      swap1\n        /* \"#utility.yul\":11004:11080   */\n      jump\n        /* \"asd.sol\":35410:35454  Transfer(sender, recipient, tTransferAmount) */\n    tag_654:\n      mload(0x40)\n      dup1\n      swap2\n      sub\n      swap1\n      log3\n        /* \"asd.sol\":34857:35462  function _transferFromExcluded(address sender, address recipient, uint256 tAmount) private {\r... */\n      pop\n      pop\n      pop\n      pop\n      pop\n      pop\n      pop\n      pop\n      pop\n      pop\n      jump\t// out\n        /* \"asd.sol\":34224:34849  function _transferToExcluded(address sender, address recipient, uint256 tAmount) private {\r... */\n    tag_563:\n        /* \"asd.sol\":34325:34340  uint256 rAmount */\n      0x00\n        /* \"asd.sol\":34342:34365  uint256 rTransferAmount */\n      dup1\n        /* \"asd.sol\":34367:34379  uint256 rFee */\n      0x00\n        /* \"asd.sol\":34381:34404  uint256 tTransferAmount */\n      dup1\n        /* \"asd.sol\":34406:34418  uint256 tFee */\n      0x00\n        /* \"asd.sol\":34420:34438  uint256 tLiquidity */\n      dup1\n        /* \"asd.sol\":34440:34452  uint256 tDev */\n      0x00\n        /* \"asd.sol\":34456:34475  _getValues(tAmount) */\n      tag_656\n        /* \"asd.sol\":34467:34474  tAmount */\n      dup9\n        /* \"asd.sol\":34456:34466  _getValues */\n      tag_345\n        /* \"asd.sol\":34456:34475  _getValues(tAmount) */\n      jump\t// in\n    tag_656:\n        /* \"asd.sol\":34324:34475  (uint256 rAmount, uint256 rTransferAmount, uint256 rFee, uint256 tTransferAmount, uint256 tFee, uint256 tLiquidity, uint256 tDev) = _getValues(tAmount) */\n      swap7\n      pop\n      swap7\n      pop\n      swap7\n      pop\n      swap7\n      pop\n      swap7\n      pop\n      swap7\n      pop\n      swap7\n      pop\n        /* \"asd.sol\":34504:34532  _rOwned[sender].sub(rAmount) */\n      tag_657\n        /* \"asd.sol\":34524:34531  rAmount */\n      dup8\n        /* \"asd.sol\":34504:34511  _rOwned */\n      0x03\n        /* \"asd.sol\":34504:34519  _rOwned[sender] */\n      0x00\n        /* \"asd.sol\":34512:34518  sender */\n      dup14\n      sub(shl(0xa0, 0x01), 0x01)\n        /* \"asd.sol\":34504:34519  _rOwned[sender] */\n      and\n      sub(shl(0xa0, 0x01), 0x01)\n      and\n      dup2\n      mstore\n      0x20\n      add\n      swap1\n      dup2\n      mstore\n      0x20\n      add\n      0x00\n      keccak256\n      sload\n        /* \"asd.sol\":34504:34523  _rOwned[sender].sub */\n      tag_347\n      swap1\n        /* \"asd.sol\":34504:34532  _rOwned[sender].sub(rAmount) */\n      swap2\n      swap1\n      0xffffffff\n      and\n      jump\t// in\n    tag_657:\n      sub(shl(0xa0, 0x01), 0x01)\n        /* \"asd.sol\":34486:34501  _rOwned[sender] */\n      dup1\n      dup13\n      and\n      0x00\n      swap1\n      dup2\n      mstore\n        /* \"asd.sol\":34486:34493  _rOwned */\n      0x03\n        /* \"asd.sol\":34486:34501  _rOwned[sender] */\n      0x20\n      swap1\n      dup2\n      mstore\n      0x40\n      dup1\n      dup4\n      keccak256\n        /* \"asd.sol\":34486:34532  _rOwned[sender] = _rOwned[sender].sub(rAmount) */\n      swap5\n      swap1\n      swap5\n      sstore\n        /* \"asd.sol\":34564:34582  _tOwned[recipient] */\n      swap2\n      dup13\n      and\n      dup2\n      mstore\n        /* \"asd.sol\":34564:34571  _tOwned */\n      0x04\n        /* \"asd.sol\":34564:34582  _tOwned[recipient] */\n      swap1\n      swap2\n      mstore\n      keccak256\n      sload\n        /* \"asd.sol\":34564:34603  _tOwned[recipient].add(tTransferAmount) */\n      tag_658\n      swap1\n        /* \"asd.sol\":34587:34602  tTransferAmount */\n      dup6\n        /* \"asd.sol\":34564:34586  _tOwned[recipient].add */\n      tag_338\n        /* \"asd.sol\":34564:34603  _tOwned[recipient].add(tTransferAmount) */\n      jump\t// in\n    tag_658:\n      sub(shl(0xa0, 0x01), 0x01)\n        /* \"asd.sol\":34543:34561  _tOwned[recipient] */\n      dup11\n      and\n      0x00\n      swap1\n      dup2\n      mstore\n        /* \"asd.sol\":34543:34550  _tOwned */\n      0x04\n        /* \"asd.sol\":34543:34561  _tOwned[recipient] */\n      0x20\n      swap1\n      dup2\n      mstore\n      0x40\n      dup1\n      dup4\n      keccak256\n        /* \"asd.sol\":34543:34603  _tOwned[recipient] = _tOwned[recipient].add(tTransferAmount) */\n      swap4\n      swap1\n      swap4\n      sstore\n        /* \"asd.sol\":34635:34642  _rOwned */\n      0x03\n        /* \"asd.sol\":34635:34653  _rOwned[recipient] */\n      swap1\n      mstore\n      keccak256\n      sload\n        /* \"asd.sol\":34635:34674  _rOwned[recipient].add(rTransferAmount) */\n      tag_647\n      swap1\n        /* \"asd.sol\":34658:34673  rTransferAmount */\n      dup8\n        /* \"asd.sol\":34635:34657  _rOwned[recipient].add */\n      tag_338\n        /* \"asd.sol\":34635:34674  _rOwned[recipient].add(rTransferAmount) */\n      jump\t// in\n        /* \"asd.sol\":33675:34216  function _transferStandard(address sender, address recipient, uint256 tAmount) private {\r... */\n    tag_568:\n        /* \"asd.sol\":33774:33789  uint256 rAmount */\n      0x00\n        /* \"asd.sol\":33791:33814  uint256 rTransferAmount */\n      dup1\n        /* \"asd.sol\":33816:33828  uint256 rFee */\n      0x00\n        /* \"asd.sol\":33830:33853  uint256 tTransferAmount */\n      dup1\n        /* \"asd.sol\":33855:33867  uint256 tFee */\n      0x00\n        /* \"asd.sol\":33869:33887  uint256 tLiquidity */\n      dup1\n        /* \"asd.sol\":33889:33901  uint256 tDev */\n      0x00\n        /* \"asd.sol\":33905:33924  _getValues(tAmount) */\n      tag_665\n        /* \"asd.sol\":33916:33923  tAmount */\n      dup9\n        /* \"asd.sol\":33905:33915  _getValues */\n      tag_345\n        /* \"asd.sol\":33905:33924  _getValues(tAmount) */\n      jump\t// in\n    tag_665:\n        /* \"asd.sol\":33773:33924  (uint256 rAmount, uint256 rTransferAmount, uint256 rFee, uint256 tTransferAmount, uint256 tFee, uint256 tLiquidity, uint256 tDev) = _getValues(tAmount) */\n      swap7\n      pop\n      swap7\n      pop\n      swap7\n      pop\n      swap7\n      pop\n      swap7\n      pop\n      swap7\n      pop\n      swap7\n      pop\n        /* \"asd.sol\":33953:33981  _rOwned[sender].sub(rAmount) */\n      tag_646\n        /* \"asd.sol\":33973:33980  rAmount */\n      dup8\n        /* \"asd.sol\":33953:33960  _rOwned */\n      0x03\n        /* \"asd.sol\":33953:33968  _rOwned[sender] */\n      0x00\n        /* \"asd.sol\":33961:33967  sender */\n      dup14\n      sub(shl(0xa0, 0x01), 0x01)\n        /* \"asd.sol\":33953:33968  _rOwned[sender] */\n      and\n      sub(shl(0xa0, 0x01), 0x01)\n      and\n      dup2\n      mstore\n      0x20\n      add\n      swap1\n      dup2\n      mstore\n      0x20\n      add\n      0x00\n      keccak256\n      sload\n        /* \"asd.sol\":33953:33972  _rOwned[sender].sub */\n      tag_347\n      swap1\n        /* \"asd.sol\":33953:33981  _rOwned[sender].sub(rAmount) */\n      swap2\n      swap1\n      0xffffffff\n      and\n      jump\t// in\n        /* \"asd.sol\":23912:24593  function _transferBothExcluded(address sender, address recipient, uint256 tAmount) private {\r... */\n    tag_573:\n        /* \"asd.sol\":24015:24030  uint256 rAmount */\n      0x00\n        /* \"asd.sol\":24032:24055  uint256 rTransferAmount */\n      dup1\n        /* \"asd.sol\":24057:24069  uint256 rFee */\n      0x00\n        /* \"asd.sol\":24071:24094  uint256 tTransferAmount */\n      dup1\n        /* \"asd.sol\":24096:24108  uint256 tFee */\n      0x00\n        /* \"asd.sol\":24110:24128  uint256 tLiquidity */\n      dup1\n        /* \"asd.sol\":24130:24142  uint256 tDev */\n      0x00\n        /* \"asd.sol\":24146:24165  _getValues(tAmount) */\n      tag_673\n        /* \"asd.sol\":24157:24164  tAmount */\n      dup9\n        /* \"asd.sol\":24146:24156  _getValues */\n      tag_345\n        /* \"asd.sol\":24146:24165  _getValues(tAmount) */\n      jump\t// in\n    tag_673:\n        /* \"asd.sol\":24014:24165  (uint256 rAmount, uint256 rTransferAmount, uint256 rFee, uint256 tTransferAmount, uint256 tFee, uint256 tLiquidity, uint256 tDev) = _getValues(tAmount) */\n      swap7\n      pop\n      swap7\n      pop\n      swap7\n      pop\n      swap7\n      pop\n      swap7\n      pop\n      swap7\n      pop\n      swap7\n      pop\n        /* \"asd.sol\":24194:24222  _tOwned[sender].sub(tAmount) */\n      tag_674\n        /* \"asd.sol\":24214:24221  tAmount */\n      dup9\n        /* \"asd.sol\":24194:24201  _tOwned */\n      0x04\n        /* \"asd.sol\":24194:24209  _tOwned[sender] */\n      0x00\n        /* \"asd.sol\":24202:24208  sender */\n      dup14\n      sub(shl(0xa0, 0x01), 0x01)\n        /* \"asd.sol\":24194:24209  _tOwned[sender] */\n      and\n      sub(shl(0xa0, 0x01), 0x01)\n      and\n      dup2\n      mstore\n      0x20\n      add\n      swap1\n      dup2\n      mstore\n      0x20\n      add\n      0x00\n      keccak256\n      sload\n        /* \"asd.sol\":24194:24213  _tOwned[sender].sub */\n      tag_347\n      swap1\n        /* \"asd.sol\":24194:24222  _tOwned[sender].sub(tAmount) */\n      swap2\n      swap1\n      0xffffffff\n      and\n      jump\t// in\n    tag_674:\n      sub(shl(0xa0, 0x01), 0x01)\n        /* \"asd.sol\":24176:24191  _tOwned[sender] */\n      dup12\n      and\n      0x00\n      swap1\n      dup2\n      mstore\n        /* \"asd.sol\":24176:24183  _tOwned */\n      0x04\n        /* \"asd.sol\":24176:24191  _tOwned[sender] */\n      0x20\n      swap1\n      dup2\n      mstore\n      0x40\n      dup1\n      dup4\n      keccak256\n        /* \"asd.sol\":24176:24222  _tOwned[sender] = _tOwned[sender].sub(tAmount) */\n      swap4\n      swap1\n      swap4\n      sstore\n        /* \"asd.sol\":24251:24258  _rOwned */\n      0x03\n        /* \"asd.sol\":24251:24266  _rOwned[sender] */\n      swap1\n      mstore\n      keccak256\n      sload\n        /* \"asd.sol\":24251:24279  _rOwned[sender].sub(rAmount) */\n      tag_657\n      swap1\n        /* \"asd.sol\":24271:24278  rAmount */\n      dup9\n        /* \"asd.sol\":24251:24270  _rOwned[sender].sub */\n      tag_347\n        /* \"asd.sol\":24251:24279  _rOwned[sender].sub(rAmount) */\n      jump\t// in\n        /* \"asd.sol\":28736:28890  function calculateTaxFee(uint256 _amount) private view returns (uint256) {\r... */\n    tag_600:\n        /* \"asd.sol\":28800:28807  uint256 */\n      0x00\n        /* \"asd.sol\":28827:28882  _amount.mul(_taxFee).div(\r... */\n      tag_273\n        /* \"asd.sol\":28866:28871  10**2 */\n      0x64\n        /* \"asd.sol\":28827:28847  _amount.mul(_taxFee) */\n      tag_685\n        /* \"asd.sol\":28839:28846  _taxFee */\n      sload(0x10)\n        /* \"asd.sol\":28827:28834  _amount */\n      dup6\n        /* \"asd.sol\":28827:28838  _amount.mul */\n      tag_610\n      swap1\n        /* \"asd.sol\":28827:28847  _amount.mul(_taxFee) */\n      swap2\n      swap1\n      0xffffffff\n      and\n      jump\t// in\n    tag_685:\n        /* \"asd.sol\":28827:28851  _amount.mul(_taxFee).div */\n      swap1\n      tag_300\n        /* \"asd.sol\":28827:28882  _amount.mul(_taxFee).div(\r... */\n      jump\t// in\n        /* \"asd.sol\":29060:29226  function calculateLiquidityFee(uint256 _amount) private view returns (uint256) {\r... */\n    tag_602:\n        /* \"asd.sol\":29130:29137  uint256 */\n      0x00\n        /* \"asd.sol\":29157:29218  _amount.mul(_liquidityFee).div(\r... */\n      tag_273\n        /* \"asd.sol\":29202:29207  10**2 */\n      0x64\n        /* \"asd.sol\":29157:29183  _amount.mul(_liquidityFee) */\n      tag_685\n        /* \"asd.sol\":29169:29182  _liquidityFee */\n      sload(0x14)\n        /* \"asd.sol\":29157:29164  _amount */\n      dup6\n        /* \"asd.sol\":29157:29168  _amount.mul */\n      tag_610\n      swap1\n        /* \"asd.sol\":29157:29183  _amount.mul(_liquidityFee) */\n      swap2\n      swap1\n      0xffffffff\n      and\n      jump\t// in\n        /* \"asd.sol\":28898:29052  function calculateDevFee(uint256 _amount) private view returns (uint256) {\r... */\n    tag_604:\n        /* \"asd.sol\":28962:28969  uint256 */\n      0x00\n        /* \"asd.sol\":28989:29044  _amount.mul(_devFee).div(\r... */\n      tag_273\n        /* \"asd.sol\":29028:29033  10**2 */\n      0x64\n        /* \"asd.sol\":28989:29009  _amount.mul(_devFee) */\n      tag_685\n        /* \"asd.sol\":29001:29008  _devFee */\n      sload(0x12)\n        /* \"asd.sol\":28989:28996  _amount */\n      dup6\n        /* \"asd.sol\":28989:29000  _amount.mul */\n      tag_610\n      swap1\n        /* \"asd.sol\":28989:29009  _amount.mul(_devFee) */\n      swap2\n      swap1\n      0xffffffff\n      and\n      jump\t// in\n        /* \"asd.sol\":2440:2538  function mul(uint256 a, uint256 b) internal pure returns (uint256) {\r... */\n    tag_610:\n        /* \"asd.sol\":2498:2505  uint256 */\n      0x00\n        /* \"asd.sol\":2525:2530  a * b */\n      tag_299\n        /* \"asd.sol\":2529:2530  b */\n      dup3\n        /* \"asd.sol\":2525:2526  a */\n      dup5\n        /* \"asd.sol\":2525:2530  a * b */\n      tag_452\n      jump\t// in\n        /* \"asd.sol\":28018:28373  function _takeLiquidity(uint256 tLiquidity) private {\r... */\n    tag_649:\n        /* \"asd.sol\":28081:28100  uint256 currentRate */\n      0x00\n        /* \"asd.sol\":28104:28114  _getRate() */\n      tag_695\n        /* \"asd.sol\":28104:28112  _getRate */\n      tag_298\n        /* \"asd.sol\":28104:28114  _getRate() */\n      jump\t// in\n    tag_695:\n        /* \"asd.sol\":28081:28114  uint256 currentRate =  _getRate() */\n      swap1\n      pop\n        /* \"asd.sol\":28125:28143  uint256 rLiquidity */\n      0x00\n        /* \"asd.sol\":28146:28173  tLiquidity.mul(currentRate) */\n      tag_696\n        /* \"asd.sol\":28146:28156  tLiquidity */\n      dup4\n        /* \"asd.sol\":28081:28114  uint256 currentRate =  _getRate() */\n      dup4\n        /* \"asd.sol\":28146:28160  tLiquidity.mul */\n      tag_610\n        /* \"asd.sol\":28146:28173  tLiquidity.mul(currentRate) */\n      jump\t// in\n    tag_696:\n        /* \"asd.sol\":28225:28229  this */\n      address\n        /* \"asd.sol\":28209:28231  _rOwned[address(this)] */\n      0x00\n      swap1\n      dup2\n      mstore\n        /* \"asd.sol\":28209:28216  _rOwned */\n      0x03\n        /* \"asd.sol\":28209:28231  _rOwned[address(this)] */\n      0x20\n      mstore\n      0x40\n      swap1\n      keccak256\n      sload\n        /* \"asd.sol\":28125:28173  uint256 rLiquidity = tLiquidity.mul(currentRate) */\n      swap1\n      swap2\n      pop\n        /* \"asd.sol\":28209:28247  _rOwned[address(this)].add(rLiquidity) */\n      tag_697\n      swap1\n        /* \"asd.sol\":28125:28173  uint256 rLiquidity = tLiquidity.mul(currentRate) */\n      dup3\n        /* \"asd.sol\":28209:28235  _rOwned[address(this)].add */\n      tag_338\n        /* \"asd.sol\":28209:28247  _rOwned[address(this)].add(rLiquidity) */\n      jump\t// in\n    tag_697:\n        /* \"asd.sol\":28200:28204  this */\n      address\n        /* \"asd.sol\":28184:28206  _rOwned[address(this)] */\n      0x00\n      swap1\n      dup2\n      mstore\n        /* \"asd.sol\":28184:28191  _rOwned */\n      0x03\n        /* \"asd.sol\":28184:28206  _rOwned[address(this)] */\n      0x20\n      swap1\n      dup2\n      mstore\n      0x40\n      dup1\n      dup4\n      keccak256\n        /* \"asd.sol\":28184:28247  _rOwned[address(this)] = _rOwned[address(this)].add(rLiquidity) */\n      swap4\n      swap1\n      swap4\n      sstore\n        /* \"asd.sol\":28261:28272  _isExcluded */\n      0x07\n        /* \"asd.sol\":28261:28287  _isExcluded[address(this)] */\n      swap1\n      mstore\n      keccak256\n      sload\n      0xff\n      and\n        /* \"asd.sol\":28258:28365  if(_isExcluded[address(this)])\r... */\n      iszero\n      tag_698\n      jumpi\n        /* \"asd.sol\":28343:28347  this */\n      address\n        /* \"asd.sol\":28327:28349  _tOwned[address(this)] */\n      0x00\n      swap1\n      dup2\n      mstore\n        /* \"asd.sol\":28327:28334  _tOwned */\n      0x04\n        /* \"asd.sol\":28327:28349  _tOwned[address(this)] */\n      0x20\n      mstore\n      0x40\n      swap1\n      keccak256\n      sload\n        /* \"asd.sol\":28327:28365  _tOwned[address(this)].add(tLiquidity) */\n      tag_699\n      swap1\n        /* \"asd.sol\":28354:28364  tLiquidity */\n      dup5\n        /* \"asd.sol\":28327:28353  _tOwned[address(this)].add */\n      tag_338\n        /* \"asd.sol\":28327:28365  _tOwned[address(this)].add(tLiquidity) */\n      jump\t// in\n    tag_699:\n        /* \"asd.sol\":28318:28322  this */\n      address\n        /* \"asd.sol\":28302:28324  _tOwned[address(this)] */\n      0x00\n      swap1\n      dup2\n      mstore\n        /* \"asd.sol\":28302:28309  _tOwned */\n      0x04\n        /* \"asd.sol\":28302:28324  _tOwned[address(this)] */\n      0x20\n      mstore\n      0x40\n      swap1\n      keccak256\n        /* \"asd.sol\":28302:28365  _tOwned[address(this)] = _tOwned[address(this)].add(tLiquidity) */\n      sstore\n        /* \"asd.sol\":28258:28365  if(_isExcluded[address(this)])\r... */\n    tag_698:\n        /* \"asd.sol\":28018:28373  function _takeLiquidity(uint256 tLiquidity) private {\r... */\n      pop\n      pop\n      pop\n      jump\t// out\n        /* \"asd.sol\":28385:28724  function _takeDev(uint256 tDev) private {\r... */\n    tag_651:\n        /* \"asd.sol\":28436:28455  uint256 currentRate */\n      0x00\n        /* \"asd.sol\":28459:28469  _getRate() */\n      tag_701\n        /* \"asd.sol\":28459:28467  _getRate */\n      tag_298\n        /* \"asd.sol\":28459:28469  _getRate() */\n      jump\t// in\n    tag_701:\n        /* \"asd.sol\":28436:28469  uint256 currentRate =  _getRate() */\n      swap1\n      pop\n        /* \"asd.sol\":28480:28492  uint256 rDev */\n      0x00\n        /* \"asd.sol\":28495:28516  tDev.mul(currentRate) */\n      tag_702\n        /* \"asd.sol\":28495:28499  tDev */\n      dup4\n        /* \"asd.sol\":28436:28469  uint256 currentRate =  _getRate() */\n      dup4\n        /* \"asd.sol\":28495:28503  tDev.mul */\n      tag_610\n        /* \"asd.sol\":28495:28516  tDev.mul(currentRate) */\n      jump\t// in\n    tag_702:\n        /* \"asd.sol\":28564:28581  _devWalletAddress */\n      and(sub(shl(0xa0, 0x01), 0x01), sload(0x09))\n        /* \"asd.sol\":28556:28582  _rOwned[_devWalletAddress] */\n      0x00\n      swap1\n      dup2\n      mstore\n        /* \"asd.sol\":28556:28563  _rOwned */\n      0x03\n        /* \"asd.sol\":28556:28582  _rOwned[_devWalletAddress] */\n      0x20\n      mstore\n      0x40\n      swap1\n      keccak256\n      sload\n        /* \"asd.sol\":28480:28516  uint256 rDev = tDev.mul(currentRate) */\n      swap1\n      swap2\n      pop\n        /* \"asd.sol\":28556:28592  _rOwned[_devWalletAddress].add(rDev) */\n      tag_703\n      swap1\n        /* \"asd.sol\":28480:28516  uint256 rDev = tDev.mul(currentRate) */\n      dup3\n        /* \"asd.sol\":28556:28586  _rOwned[_devWalletAddress].add */\n      tag_338\n        /* \"asd.sol\":28556:28592  _rOwned[_devWalletAddress].add(rDev) */\n      jump\t// in\n    tag_703:\n        /* \"asd.sol\":28535:28552  _devWalletAddress */\n      0x09\n      dup1\n      sload\n      sub(shl(0xa0, 0x01), 0x01)\n      swap1\n      dup2\n      and\n        /* \"asd.sol\":28527:28553  _rOwned[_devWalletAddress] */\n      0x00\n      swap1\n      dup2\n      mstore\n        /* \"asd.sol\":28527:28534  _rOwned */\n      0x03\n        /* \"asd.sol\":28527:28553  _rOwned[_devWalletAddress] */\n      0x20\n      swap1\n      dup2\n      mstore\n      0x40\n      dup1\n      dup4\n      keccak256\n        /* \"asd.sol\":28527:28592  _rOwned[_devWalletAddress] = _rOwned[_devWalletAddress].add(rDev) */\n      swap6\n      swap1\n      swap6\n      sstore\n        /* \"asd.sol\":28618:28635  _devWalletAddress */\n      swap3\n      sload\n      swap1\n      swap2\n      and\n        /* \"asd.sol\":28606:28636  _isExcluded[_devWalletAddress] */\n      dup2\n      mstore\n        /* \"asd.sol\":28606:28617  _isExcluded */\n      0x07\n        /* \"asd.sol\":28606:28636  _isExcluded[_devWalletAddress] */\n      swap1\n      swap2\n      mstore\n      keccak256\n      sload\n      0xff\n      and\n        /* \"asd.sol\":28603:28716  if(_isExcluded[_devWalletAddress])\r... */\n      iszero\n      tag_698\n      jumpi\n        /* \"asd.sol\":28688:28705  _devWalletAddress */\n      and(sub(shl(0xa0, 0x01), 0x01), sload(0x09))\n        /* \"asd.sol\":28680:28706  _tOwned[_devWalletAddress] */\n      0x00\n      swap1\n      dup2\n      mstore\n        /* \"asd.sol\":28680:28687  _tOwned */\n      0x04\n        /* \"asd.sol\":28680:28706  _tOwned[_devWalletAddress] */\n      0x20\n      mstore\n      0x40\n      swap1\n      keccak256\n      sload\n        /* \"asd.sol\":28680:28716  _tOwned[_devWalletAddress].add(tDev) */\n      tag_705\n      swap1\n        /* \"asd.sol\":28711:28715  tDev */\n      dup5\n        /* \"asd.sol\":28680:28710  _tOwned[_devWalletAddress].add */\n      tag_338\n        /* \"asd.sol\":28680:28716  _tOwned[_devWalletAddress].add(tDev) */\n      jump\t// in\n    tag_705:\n        /* \"asd.sol\":28659:28676  _devWalletAddress */\n      and(sub(shl(0xa0, 0x01), 0x01), sload(0x09))\n        /* \"asd.sol\":28651:28677  _tOwned[_devWalletAddress] */\n      0x00\n      swap1\n      dup2\n      mstore\n        /* \"asd.sol\":28651:28658  _tOwned */\n      0x04\n        /* \"asd.sol\":28651:28677  _tOwned[_devWalletAddress] */\n      0x20\n      mstore\n      0x40\n      swap1\n      keccak256\n        /* \"asd.sol\":28651:28716  _tOwned[_devWalletAddress] = _tOwned[_devWalletAddress].add(tDev) */\n      sstore\n        /* \"asd.sol\":28385:28724  function _takeDev(uint256 tDev) private {\r... */\n      pop\n      pop\n      pop\n      jump\t// out\n        /* \"asd.sol\":25736:25883  function _reflectFee(uint256 rFee, uint256 tFee) private {\r... */\n    tag_653:\n        /* \"asd.sol\":25814:25821  _rTotal */\n      sload(0x0b)\n        /* \"asd.sol\":25814:25831  _rTotal.sub(rFee) */\n      tag_707\n      swap1\n        /* \"asd.sol\":25826:25830  rFee */\n      dup4\n        /* \"asd.sol\":25814:25825  _rTotal.sub */\n      tag_347\n        /* \"asd.sol\":25814:25831  _rTotal.sub(rFee) */\n      jump\t// in\n    tag_707:\n        /* \"asd.sol\":25804:25811  _rTotal */\n      0x0b\n        /* \"asd.sol\":25804:25831  _rTotal = _rTotal.sub(rFee) */\n      sstore\n        /* \"asd.sol\":25855:25865  _tFeeTotal */\n      sload(0x0c)\n        /* \"asd.sol\":25855:25875  _tFeeTotal.add(tFee) */\n      tag_708\n      swap1\n        /* \"asd.sol\":25870:25874  tFee */\n      dup3\n        /* \"asd.sol\":25855:25869  _tFeeTotal.add */\n      tag_338\n        /* \"asd.sol\":25855:25875  _tFeeTotal.add(tFee) */\n      jump\t// in\n    tag_708:\n        /* \"asd.sol\":25842:25852  _tFeeTotal */\n      0x0c\n        /* \"asd.sol\":25842:25875  _tFeeTotal = _tFeeTotal.add(tFee) */\n      sstore\n      pop\n      pop\n        /* \"asd.sol\":25736:25883  function _reflectFee(uint256 rFee, uint256 tFee) private {\r... */\n      jump\t// out\n        /* \"#utility.yul\":14:174   */\n    tag_710:\n        /* \"#utility.yul\":79:99   */\n      dup1\n      calldataload\n        /* \"#utility.yul\":135:148   */\n      dup1\n      iszero\n        /* \"#utility.yul\":128:149   */\n      iszero\n        /* \"#utility.yul\":118:150   */\n      dup2\n      eq\n        /* \"#utility.yul\":108:110   */\n      tag_712\n      jumpi\n        /* \"#utility.yul\":164:165   */\n      0x00\n        /* \"#utility.yul\":161:162   */\n      dup1\n        /* \"#utility.yul\":154:166   */\n      revert\n        /* \"#utility.yul\":108:110   */\n    tag_712:\n        /* \"#utility.yul\":60:174   */\n      swap2\n      swap1\n      pop\n      jump\t// out\n        /* \"#utility.yul\":179:436   */\n    tag_77:\n        /* \"#utility.yul\":238:244   */\n      0x00\n        /* \"#utility.yul\":291:293   */\n      0x20\n        /* \"#utility.yul\":279:288   */\n      dup3\n        /* \"#utility.yul\":270:277   */\n      dup5\n        /* \"#utility.yul\":266:289   */\n      sub\n        /* \"#utility.yul\":262:294   */\n      slt\n        /* \"#utility.yul\":259:261   */\n      iszero\n      tag_714\n      jumpi\n        /* \"#utility.yul\":312:318   */\n      dup1\n        /* \"#utility.yul\":304:310   */\n      dup2\n        /* \"#utility.yul\":297:319   */\n      revert\n        /* \"#utility.yul\":259:261   */\n    tag_714:\n        /* \"#utility.yul\":356:365   */\n      dup2\n        /* \"#utility.yul\":343:366   */\n      calldataload\n        /* \"#utility.yul\":375:406   */\n      tag_299\n        /* \"#utility.yul\":400:405   */\n      dup2\n        /* \"#utility.yul\":375:406   */\n      tag_716\n      jump\t// in\n        /* \"#utility.yul\":441:702   */\n    tag_360:\n        /* \"#utility.yul\":511:517   */\n      0x00\n        /* \"#utility.yul\":564:566   */\n      0x20\n        /* \"#utility.yul\":552:561   */\n      dup3\n        /* \"#utility.yul\":543:550   */\n      dup5\n        /* \"#utility.yul\":539:562   */\n      sub\n        /* \"#utility.yul\":535:567   */\n      slt\n        /* \"#utility.yul\":532:534   */\n      iszero\n      tag_718\n      jumpi\n        /* \"#utility.yul\":585:591   */\n      dup1\n        /* \"#utility.yul\":577:583   */\n      dup2\n        /* \"#utility.yul\":570:592   */\n      revert\n        /* \"#utility.yul\":532:534   */\n    tag_718:\n        /* \"#utility.yul\":622:631   */\n      dup2\n        /* \"#utility.yul\":616:632   */\n      mload\n        /* \"#utility.yul\":641:672   */\n      tag_299\n        /* \"#utility.yul\":666:671   */\n      dup2\n        /* \"#utility.yul\":641:672   */\n      tag_716\n      jump\t// in\n        /* \"#utility.yul\":707:1105   */\n    tag_243:\n        /* \"#utility.yul\":775:781   */\n      0x00\n        /* \"#utility.yul\":783:789   */\n      dup1\n        /* \"#utility.yul\":836:838   */\n      0x40\n        /* \"#utility.yul\":824:833   */\n      dup4\n        /* \"#utility.yul\":815:822   */\n      dup6\n        /* \"#utility.yul\":811:834   */\n      sub\n        /* \"#utility.yul\":807:839   */\n      slt\n        /* \"#utility.yul\":804:806   */\n      iszero\n      tag_721\n      jumpi\n        /* \"#utility.yul\":857:863   */\n      dup1\n        /* \"#utility.yul\":849:855   */\n      dup2\n        /* \"#utility.yul\":842:864   */\n      revert\n        /* \"#utility.yul\":804:806   */\n    tag_721:\n        /* \"#utility.yul\":901:910   */\n      dup3\n        /* \"#utility.yul\":888:911   */\n      calldataload\n        /* \"#utility.yul\":920:951   */\n      tag_722\n        /* \"#utility.yul\":945:950   */\n      dup2\n        /* \"#utility.yul\":920:951   */\n      tag_716\n      jump\t// in\n    tag_722:\n        /* \"#utility.yul\":970:975   */\n      swap2\n      pop\n        /* \"#utility.yul\":1027:1029   */\n      0x20\n        /* \"#utility.yul\":1012:1030   */\n      dup4\n      add\n        /* \"#utility.yul\":999:1031   */\n      calldataload\n        /* \"#utility.yul\":1040:1073   */\n      tag_723\n        /* \"#utility.yul\":999:1031   */\n      dup2\n        /* \"#utility.yul\":1040:1073   */\n      tag_716\n      jump\t// in\n    tag_723:\n        /* \"#utility.yul\":1092:1099   */\n      dup1\n        /* \"#utility.yul\":1082:1099   */\n      swap2\n      pop\n      pop\n        /* \"#utility.yul\":794:1105   */\n      swap3\n      pop\n      swap3\n      swap1\n      pop\n      jump\t// out\n        /* \"#utility.yul\":1110:1576   */\n    tag_96:\n        /* \"#utility.yul\":1187:1193   */\n      0x00\n        /* \"#utility.yul\":1195:1201   */\n      dup1\n        /* \"#utility.yul\":1203:1209   */\n      0x00\n        /* \"#utility.yul\":1256:1258   */\n      0x60\n        /* \"#utility.yul\":1244:1253   */\n      dup5\n        /* \"#utility.yul\":1235:1242   */\n      dup7\n        /* \"#utility.yul\":1231:1254   */\n      sub\n        /* \"#utility.yul\":1227:1259   */\n      slt\n        /* \"#utility.yul\":1224:1226   */\n      iszero\n      tag_725\n      jumpi\n        /* \"#utility.yul\":1277:1283   */\n      dup1\n        /* \"#utility.yul\":1269:1275   */\n      dup2\n        /* \"#utility.yul\":1262:1284   */\n      revert\n        /* \"#utility.yul\":1224:1226   */\n    tag_725:\n        /* \"#utility.yul\":1321:1330   */\n      dup4\n        /* \"#utility.yul\":1308:1331   */\n      calldataload\n        /* \"#utility.yul\":1340:1371   */\n      tag_726\n        /* \"#utility.yul\":1365:1370   */\n      dup2\n        /* \"#utility.yul\":1340:1371   */\n      tag_716\n      jump\t// in\n    tag_726:\n        /* \"#utility.yul\":1390:1395   */\n      swap3\n      pop\n        /* \"#utility.yul\":1447:1449   */\n      0x20\n        /* \"#utility.yul\":1432:1450   */\n      dup5\n      add\n        /* \"#utility.yul\":1419:1451   */\n      calldataload\n        /* \"#utility.yul\":1460:1493   */\n      tag_727\n        /* \"#utility.yul\":1419:1451   */\n      dup2\n        /* \"#utility.yul\":1460:1493   */\n      tag_716\n      jump\t// in\n    tag_727:\n        /* \"#utility.yul\":1214:1576   */\n      swap3\n      swap6\n        /* \"#utility.yul\":1512:1519   */\n      swap3\n      swap5\n      pop\n      pop\n      pop\n        /* \"#utility.yul\":1566:1568   */\n      0x40\n        /* \"#utility.yul\":1551:1569   */\n      swap2\n      swap1\n      swap2\n      add\n        /* \"#utility.yul\":1538:1570   */\n      calldataload\n      swap1\n        /* \"#utility.yul\":1214:1576   */\n      jump\t// out\n        /* \"#utility.yul\":1581:1906   */\n    tag_70:\n        /* \"#utility.yul\":1649:1655   */\n      0x00\n        /* \"#utility.yul\":1657:1663   */\n      dup1\n        /* \"#utility.yul\":1710:1712   */\n      0x40\n        /* \"#utility.yul\":1698:1707   */\n      dup4\n        /* \"#utility.yul\":1689:1696   */\n      dup6\n        /* \"#utility.yul\":1685:1708   */\n      sub\n        /* \"#utility.yul\":1681:1713   */\n      slt\n        /* \"#utility.yul\":1678:1680   */\n      iszero\n      tag_729\n      jumpi\n        /* \"#utility.yul\":1731:1737   */\n      dup2\n        /* \"#utility.yul\":1723:1729   */\n      dup3\n        /* \"#utility.yul\":1716:1738   */\n      revert\n        /* \"#utility.yul\":1678:1680   */\n    tag_729:\n        /* \"#utility.yul\":1775:1784   */\n      dup3\n        /* \"#utility.yul\":1762:1785   */\n      calldataload\n        /* \"#utility.yul\":1794:1825   */\n      tag_730\n        /* \"#utility.yul\":1819:1824   */\n      dup2\n        /* \"#utility.yul\":1794:1825   */\n      tag_716\n      jump\t// in\n    tag_730:\n        /* \"#utility.yul\":1844:1849   */\n      swap5\n        /* \"#utility.yul\":1896:1898   */\n      0x20\n        /* \"#utility.yul\":1881:1899   */\n      swap4\n      swap1\n      swap4\n      add\n        /* \"#utility.yul\":1868:1900   */\n      calldataload\n      swap4\n      pop\n      pop\n      pop\n        /* \"#utility.yul\":1668:1906   */\n      jump\t// out\n        /* \"#utility.yul\":1911:2101   */\n    tag_226:\n        /* \"#utility.yul\":1967:1973   */\n      0x00\n        /* \"#utility.yul\":2020:2022   */\n      0x20\n        /* \"#utility.yul\":2008:2017   */\n      dup3\n        /* \"#utility.yul\":1999:2006   */\n      dup5\n        /* \"#utility.yul\":1995:2018   */\n      sub\n        /* \"#utility.yul\":1991:2023   */\n      slt\n        /* \"#utility.yul\":1988:1990   */\n      iszero\n      tag_732\n      jumpi\n        /* \"#utility.yul\":2041:2047   */\n      dup1\n        /* \"#utility.yul\":2033:2039   */\n      dup2\n        /* \"#utility.yul\":2026:2048   */\n      revert\n        /* \"#utility.yul\":1988:1990   */\n    tag_732:\n        /* \"#utility.yul\":2069:2095   */\n      tag_299\n        /* \"#utility.yul\":2085:2094   */\n      dup3\n        /* \"#utility.yul\":2069:2095   */\n      tag_710\n      jump\t// in\n        /* \"#utility.yul\":2106:2296   */\n    tag_60:\n        /* \"#utility.yul\":2165:2171   */\n      0x00\n        /* \"#utility.yul\":2218:2220   */\n      0x20\n        /* \"#utility.yul\":2206:2215   */\n      dup3\n        /* \"#utility.yul\":2197:2204   */\n      dup5\n        /* \"#utility.yul\":2193:2216   */\n      sub\n        /* \"#utility.yul\":2189:2221   */\n      slt\n        /* \"#utility.yul\":2186:2188   */\n      iszero\n      tag_735\n      jumpi\n        /* \"#utility.yul\":2239:2245   */\n      dup1\n        /* \"#utility.yul\":2231:2237   */\n      dup2\n        /* \"#utility.yul\":2224:2246   */\n      revert\n        /* \"#utility.yul\":2186:2188   */\n    tag_735:\n      pop\n        /* \"#utility.yul\":2267:2290   */\n      calldataload\n      swap2\n        /* \"#utility.yul\":2176:2296   */\n      swap1\n      pop\n      jump\t// out\n        /* \"#utility.yul\":2301:2559   */\n    tag_140:\n        /* \"#utility.yul\":2366:2372   */\n      0x00\n        /* \"#utility.yul\":2374:2380   */\n      dup1\n        /* \"#utility.yul\":2427:2429   */\n      0x40\n        /* \"#utility.yul\":2415:2424   */\n      dup4\n        /* \"#utility.yul\":2406:2413   */\n      dup6\n        /* \"#utility.yul\":2402:2425   */\n      sub\n        /* \"#utility.yul\":2398:2430   */\n      slt\n        /* \"#utility.yul\":2395:2397   */\n      iszero\n      tag_737\n      jumpi\n        /* \"#utility.yul\":2448:2454   */\n      dup2\n        /* \"#utility.yul\":2440:2446   */\n      dup3\n        /* \"#utility.yul\":2433:2455   */\n      revert\n        /* \"#utility.yul\":2395:2397   */\n    tag_737:\n        /* \"#utility.yul\":2489:2498   */\n      dup3\n        /* \"#utility.yul\":2476:2499   */\n      calldataload\n        /* \"#utility.yul\":2466:2499   */\n      swap2\n      pop\n        /* \"#utility.yul\":2518:2553   */\n      tag_738\n        /* \"#utility.yul\":2549:2551   */\n      0x20\n        /* \"#utility.yul\":2538:2547   */\n      dup5\n        /* \"#utility.yul\":2534:2552   */\n      add\n        /* \"#utility.yul\":2518:2553   */\n      tag_710\n      jump\t// in\n    tag_738:\n        /* \"#utility.yul\":2508:2553   */\n      swap1\n      pop\n        /* \"#utility.yul\":2385:2559   */\n      swap3\n      pop\n      swap3\n      swap1\n      pop\n      jump\t// out\n        /* \"#utility.yul\":2564:2880   */\n    tag_641:\n        /* \"#utility.yul\":2652:2658   */\n      0x00\n        /* \"#utility.yul\":2660:2666   */\n      dup1\n        /* \"#utility.yul\":2668:2674   */\n      0x00\n        /* \"#utility.yul\":2721:2723   */\n      0x60\n        /* \"#utility.yul\":2709:2718   */\n      dup5\n        /* \"#utility.yul\":2700:2707   */\n      dup7\n        /* \"#utility.yul\":2696:2719   */\n      sub\n        /* \"#utility.yul\":2692:2724   */\n      slt\n        /* \"#utility.yul\":2689:2691   */\n      iszero\n      tag_740\n      jumpi\n        /* \"#utility.yul\":2742:2748   */\n      dup3\n        /* \"#utility.yul\":2734:2740   */\n      dup4\n        /* \"#utility.yul\":2727:2749   */\n      revert\n        /* \"#utility.yul\":2689:2691   */\n    tag_740:\n        /* \"#utility.yul\":2776:2785   */\n      dup4\n        /* \"#utility.yul\":2770:2786   */\n      mload\n        /* \"#utility.yul\":2760:2786   */\n      swap3\n      pop\n        /* \"#utility.yul\":2826:2828   */\n      0x20\n        /* \"#utility.yul\":2815:2824   */\n      dup5\n        /* \"#utility.yul\":2811:2829   */\n      add\n        /* \"#utility.yul\":2805:2830   */\n      mload\n        /* \"#utility.yul\":2795:2830   */\n      swap2\n      pop\n        /* \"#utility.yul\":2870:2872   */\n      0x40\n        /* \"#utility.yul\":2859:2868   */\n      dup5\n        /* \"#utility.yul\":2855:2873   */\n      add\n        /* \"#utility.yul\":2849:2874   */\n      mload\n        /* \"#utility.yul\":2839:2874   */\n      swap1\n      pop\n        /* \"#utility.yul\":2679:2880   */\n      swap3\n      pop\n      swap3\n      pop\n      swap3\n      jump\t// out\n        /* \"#utility.yul\":4441:5044   */\n    tag_66:\n        /* \"#utility.yul\":4553:4557   */\n      0x00\n        /* \"#utility.yul\":4582:4584   */\n      0x20\n        /* \"#utility.yul\":4611:4613   */\n      dup1\n        /* \"#utility.yul\":4600:4609   */\n      dup4\n        /* \"#utility.yul\":4593:4614   */\n      mstore\n        /* \"#utility.yul\":4643:4649   */\n      dup4\n        /* \"#utility.yul\":4637:4650   */\n      mload\n        /* \"#utility.yul\":4686:4692   */\n      dup1\n        /* \"#utility.yul\":4681:4683   */\n      dup3\n        /* \"#utility.yul\":4670:4679   */\n      dup6\n        /* \"#utility.yul\":4666:4684   */\n      add\n        /* \"#utility.yul\":4659:4693   */\n      mstore\n        /* \"#utility.yul\":4711:4715   */\n      dup3\n        /* \"#utility.yul\":4724:4864   */\n    tag_747:\n        /* \"#utility.yul\":4738:4744   */\n      dup2\n        /* \"#utility.yul\":4735:4736   */\n      dup2\n        /* \"#utility.yul\":4732:4745   */\n      lt\n        /* \"#utility.yul\":4724:4864   */\n      iszero\n      tag_749\n      jumpi\n        /* \"#utility.yul\":4833:4847   */\n      dup6\n      dup2\n      add\n        /* \"#utility.yul\":4829:4852   */\n      dup4\n      add\n        /* \"#utility.yul\":4823:4853   */\n      mload\n        /* \"#utility.yul\":4799:4816   */\n      dup6\n      dup3\n      add\n        /* \"#utility.yul\":4818:4820   */\n      0x40\n        /* \"#utility.yul\":4795:4821   */\n      add\n        /* \"#utility.yul\":4788:4854   */\n      mstore\n        /* \"#utility.yul\":4753:4763   */\n      dup3\n      add\n        /* \"#utility.yul\":4724:4864   */\n      jump(tag_747)\n    tag_749:\n        /* \"#utility.yul\":4882:4888   */\n      dup2\n        /* \"#utility.yul\":4879:4880   */\n      dup2\n        /* \"#utility.yul\":4876:4889   */\n      gt\n        /* \"#utility.yul\":4873:4875   */\n      iszero\n      tag_750\n      jumpi\n        /* \"#utility.yul\":4952:4956   */\n      dup4\n        /* \"#utility.yul\":4947:4949   */\n      0x40\n        /* \"#utility.yul\":4938:4944   */\n      dup4\n        /* \"#utility.yul\":4927:4936   */\n      dup8\n        /* \"#utility.yul\":4923:4945   */\n      add\n        /* \"#utility.yul\":4919:4950   */\n      add\n        /* \"#utility.yul\":4912:4957   */\n      mstore\n        /* \"#utility.yul\":4873:4875   */\n    tag_750:\n      pop\n        /* \"#utility.yul\":5028:5030   */\n      0x1f\n        /* \"#utility.yul\":5007:5022   */\n      add\n      not(0x1f)\n        /* \"#utility.yul\":5003:5032   */\n      and\n        /* \"#utility.yul\":4988:5033   */\n      swap3\n      swap1\n      swap3\n      add\n        /* \"#utility.yul\":5035:5037   */\n      0x40\n        /* \"#utility.yul\":4984:5038   */\n      add\n      swap4\n        /* \"#utility.yul\":4562:5044   */\n      swap3\n      pop\n      pop\n      pop\n      jump\t// out\n        /* \"#utility.yul\":8155:8511   */\n    tag_264:\n        /* \"#utility.yul\":8357:8359   */\n      0x20\n        /* \"#utility.yul\":8339:8360   */\n      dup1\n      dup3\n      mstore\n        /* \"#utility.yul\":8376:8394   */\n      dup2\n      dup2\n      add\n        /* \"#utility.yul\":8369:8399   */\n      mstore\n        /* \"#utility.yul\":8435:8469   */\n      0x4f776e61626c653a2063616c6c6572206973206e6f7420746865206f776e6572\n        /* \"#utility.yul\":8430:8432   */\n      0x40\n        /* \"#utility.yul\":8415:8433   */\n      dup3\n      add\n        /* \"#utility.yul\":8408:8470   */\n      mstore\n        /* \"#utility.yul\":8502:8504   */\n      0x60\n        /* \"#utility.yul\":8487:8505   */\n      add\n      swap1\n        /* \"#utility.yul\":8329:8511   */\n      jump\t// out\n        /* \"#utility.yul\":11085:12068   */\n    tag_628:\n        /* \"#utility.yul\":11347:11351   */\n      0x00\n        /* \"#utility.yul\":11395:11398   */\n      0xa0\n        /* \"#utility.yul\":11384:11393   */\n      dup3\n        /* \"#utility.yul\":11380:11399   */\n      add\n        /* \"#utility.yul\":11426:11432   */\n      dup8\n        /* \"#utility.yul\":11415:11424   */\n      dup4\n        /* \"#utility.yul\":11408:11433   */\n      mstore\n        /* \"#utility.yul\":11452:11454   */\n      0x20\n        /* \"#utility.yul\":11490:11496   */\n      dup8\n        /* \"#utility.yul\":11485:11487   */\n      dup2\n        /* \"#utility.yul\":11474:11483   */\n      dup6\n        /* \"#utility.yul\":11470:11488   */\n      add\n        /* \"#utility.yul\":11463:11497   */\n      mstore\n        /* \"#utility.yul\":11533:11536   */\n      0xa0\n        /* \"#utility.yul\":11528:11530   */\n      0x40\n        /* \"#utility.yul\":11517:11526   */\n      dup6\n        /* \"#utility.yul\":11513:11531   */\n      add\n        /* \"#utility.yul\":11506:11537   */\n      mstore\n        /* \"#utility.yul\":11557:11563   */\n      dup2\n        /* \"#utility.yul\":11592:11598   */\n      dup8\n        /* \"#utility.yul\":11586:11599   */\n      mload\n        /* \"#utility.yul\":11623:11629   */\n      dup1\n        /* \"#utility.yul\":11615:11621   */\n      dup5\n        /* \"#utility.yul\":11608:11630   */\n      mstore\n        /* \"#utility.yul\":11661:11664   */\n      0xc0\n        /* \"#utility.yul\":11650:11659   */\n      dup7\n        /* \"#utility.yul\":11646:11665   */\n      add\n        /* \"#utility.yul\":11639:11665   */\n      swap2\n      pop\n        /* \"#utility.yul\":11700:11702   */\n      dup3\n        /* \"#utility.yul\":11692:11698   */\n      dup10\n        /* \"#utility.yul\":11688:11703   */\n      add\n        /* \"#utility.yul\":11674:11703   */\n      swap4\n      pop\n        /* \"#utility.yul\":11721:11725   */\n      dup5\n        /* \"#utility.yul\":11734:11929   */\n    tag_768:\n        /* \"#utility.yul\":11748:11754   */\n      dup2\n        /* \"#utility.yul\":11745:11746   */\n      dup2\n        /* \"#utility.yul\":11742:11755   */\n      lt\n        /* \"#utility.yul\":11734:11929   */\n      iszero\n      tag_770\n      jumpi\n        /* \"#utility.yul\":11813:11826   */\n      dup5\n      mload\n      sub(shl(0xa0, 0x01), 0x01)\n        /* \"#utility.yul\":11809:11848   */\n      and\n        /* \"#utility.yul\":11797:11849   */\n      dup4\n      mstore\n        /* \"#utility.yul\":11904:11919   */\n      swap4\n      dup4\n      add\n      swap4\n        /* \"#utility.yul\":11869:11881   */\n      swap2\n      dup4\n      add\n      swap2\n        /* \"#utility.yul\":11845:11846   */\n      0x01\n        /* \"#utility.yul\":11763:11772   */\n      add\n        /* \"#utility.yul\":11734:11929   */\n      jump(tag_768)\n    tag_770:\n      pop\n      pop\n      sub(shl(0xa0, 0x01), 0x01)\n        /* \"#utility.yul\":11985:12017   */\n      swap7\n      swap1\n      swap7\n      and\n        /* \"#utility.yul\":11980:11982   */\n      0x60\n        /* \"#utility.yul\":11965:11983   */\n      dup6\n      add\n        /* \"#utility.yul\":11958:12018   */\n      mstore\n      pop\n      pop\n      pop\n        /* \"#utility.yul\":12049:12052   */\n      0x80\n        /* \"#utility.yul\":12034:12053   */\n      add\n        /* \"#utility.yul\":12027:12062   */\n      mstore\n        /* \"#utility.yul\":11946:11949   */\n      swap4\n        /* \"#utility.yul\":11356:12068   */\n      swap3\n      pop\n      pop\n      pop\n      jump\t// out\n        /* \"#utility.yul\":12397:12525   */\n    tag_531:\n        /* \"#utility.yul\":12437:12440   */\n      0x00\n        /* \"#utility.yul\":12468:12469   */\n      dup3\n        /* \"#utility.yul\":12464:12470   */\n      not\n        /* \"#utility.yul\":12461:12462   */\n      dup3\n        /* \"#utility.yul\":12458:12471   */\n      gt\n        /* \"#utility.yul\":12455:12457   */\n      iszero\n      tag_774\n      jumpi\n        /* \"#utility.yul\":12474:12492   */\n      tag_774\n      tag_775\n      jump\t// in\n    tag_774:\n      pop\n        /* \"#utility.yul\":12510:12519   */\n      add\n      swap1\n        /* \"#utility.yul\":12445:12525   */\n      jump\t// out\n        /* \"#utility.yul\":12530:12747   */\n    tag_528:\n        /* \"#utility.yul\":12570:12571   */\n      0x00\n        /* \"#utility.yul\":12596:12597   */\n      dup3\n        /* \"#utility.yul\":12586:12588   */\n      tag_777\n      jumpi\n      shl(0xe0, 0x4e487b71)\n        /* \"#utility.yul\":12621:12652   */\n      dup2\n      mstore\n        /* \"#utility.yul\":12675:12679   */\n      0x12\n        /* \"#utility.yul\":12672:12673   */\n      0x04\n        /* \"#utility.yul\":12665:12680   */\n      mstore\n        /* \"#utility.yul\":12703:12707   */\n      0x24\n        /* \"#utility.yul\":12628:12629   */\n      dup2\n        /* \"#utility.yul\":12693:12708   */\n      revert\n        /* \"#utility.yul\":12586:12588   */\n    tag_777:\n      pop\n        /* \"#utility.yul\":12732:12741   */\n      div\n      swap1\n        /* \"#utility.yul\":12576:12747   */\n      jump\t// out\n        /* \"#utility.yul\":12752:13174   */\n    tag_778:\n        /* \"#utility.yul\":12841:12842   */\n      0x01\n        /* \"#utility.yul\":12884:12889   */\n      dup2\n        /* \"#utility.yul\":12841:12842   */\n      dup2\n        /* \"#utility.yul\":12898:13168   */\n    tag_780:\n        /* \"#utility.yul\":12919:12926   */\n      dup1\n        /* \"#utility.yul\":12909:12917   */\n      dup6\n        /* \"#utility.yul\":12906:12927   */\n      gt\n        /* \"#utility.yul\":12898:13168   */\n      iszero\n      tag_782\n      jumpi\n        /* \"#utility.yul\":12978:12982   */\n      dup2\n        /* \"#utility.yul\":12974:12975   */\n      0x00\n        /* \"#utility.yul\":12970:12976   */\n      not\n        /* \"#utility.yul\":12966:12983   */\n      div\n        /* \"#utility.yul\":12960:12964   */\n      dup3\n        /* \"#utility.yul\":12957:12984   */\n      gt\n        /* \"#utility.yul\":12954:12956   */\n      iszero\n      tag_784\n      jumpi\n        /* \"#utility.yul\":12987:13005   */\n      tag_784\n      tag_775\n      jump\t// in\n    tag_784:\n        /* \"#utility.yul\":13037:13044   */\n      dup1\n        /* \"#utility.yul\":13027:13035   */\n      dup6\n        /* \"#utility.yul\":13023:13045   */\n      and\n        /* \"#utility.yul\":13020:13022   */\n      iszero\n      tag_785\n      jumpi\n        /* \"#utility.yul\":13057:13073   */\n      swap2\n      dup2\n      mul\n      swap2\n        /* \"#utility.yul\":13020:13022   */\n    tag_785:\n        /* \"#utility.yul\":13136:13158   */\n      swap4\n      dup5\n      shr\n      swap4\n        /* \"#utility.yul\":13096:13111   */\n      swap1\n      dup1\n      mul\n      swap1\n        /* \"#utility.yul\":12898:13168   */\n      jump(tag_780)\n    tag_782:\n        /* \"#utility.yul\":12902:12905   */\n      pop\n        /* \"#utility.yul\":12816:13174   */\n      swap3\n      pop\n      swap3\n      swap1\n      pop\n      jump\t// out\n        /* \"#utility.yul\":13179:13310   */\n    tag_450:\n        /* \"#utility.yul\":13239:13244   */\n      0x00\n        /* \"#utility.yul\":13268:13304   */\n      tag_299\n        /* \"#utility.yul\":13295:13303   */\n      dup4\n        /* \"#utility.yul\":13289:13293   */\n      dup4\n        /* \"#utility.yul\":13364:13369   */\n      0x00\n        /* \"#utility.yul\":13394:13402   */\n      dup3\n        /* \"#utility.yul\":13384:13386   */\n      tag_790\n      jumpi\n      pop\n        /* \"#utility.yul\":13435:13436   */\n      0x01\n        /* \"#utility.yul\":13449:13454   */\n      jump(tag_273)\n        /* \"#utility.yul\":13384:13386   */\n    tag_790:\n        /* \"#utility.yul\":13483:13487   */\n      dup2\n        /* \"#utility.yul\":13473:13475   */\n      tag_791\n      jumpi\n      pop\n        /* \"#utility.yul\":13520:13521   */\n      0x00\n        /* \"#utility.yul\":13534:13539   */\n      jump(tag_273)\n        /* \"#utility.yul\":13473:13475   */\n    tag_791:\n        /* \"#utility.yul\":13565:13569   */\n      dup2\n        /* \"#utility.yul\":13583:13584   */\n      0x01\n        /* \"#utility.yul\":13578:13637   */\n      dup2\n      eq\n      tag_793\n      jumpi\n        /* \"#utility.yul\":13651:13652   */\n      0x02\n        /* \"#utility.yul\":13646:13776   */\n      dup2\n      eq\n      tag_794\n      jumpi\n        /* \"#utility.yul\":13558:13776   */\n      jump(tag_792)\n        /* \"#utility.yul\":13578:13637   */\n    tag_793:\n        /* \"#utility.yul\":13608:13609   */\n      0x01\n        /* \"#utility.yul\":13599:13609   */\n      swap2\n      pop\n        /* \"#utility.yul\":13622:13627   */\n      pop\n      jump(tag_273)\n        /* \"#utility.yul\":13646:13776   */\n    tag_794:\n        /* \"#utility.yul\":13683:13686   */\n      0xff\n        /* \"#utility.yul\":13673:13681   */\n      dup5\n        /* \"#utility.yul\":13670:13687   */\n      gt\n        /* \"#utility.yul\":13667:13669   */\n      iszero\n      tag_796\n      jumpi\n        /* \"#utility.yul\":13690:13708   */\n      tag_796\n      tag_775\n      jump\t// in\n    tag_796:\n      pop\n      pop\n        /* \"#utility.yul\":13746:13747   */\n      0x01\n        /* \"#utility.yul\":13732:13748   */\n      dup3\n      shl\n        /* \"#utility.yul\":13761:13766   */\n      jump(tag_273)\n        /* \"#utility.yul\":13558:13776   */\n    tag_792:\n      pop\n        /* \"#utility.yul\":13860:13862   */\n      0x20\n        /* \"#utility.yul\":13850:13858   */\n      dup4\n        /* \"#utility.yul\":13847:13863   */\n      lt\n        /* \"#utility.yul\":13841:13844   */\n      0x0133\n        /* \"#utility.yul\":13835:13839   */\n      dup4\n        /* \"#utility.yul\":13832:13845   */\n      lt\n        /* \"#utility.yul\":13828:13864   */\n      and\n        /* \"#utility.yul\":13822:13824   */\n      0x4e\n        /* \"#utility.yul\":13812:13820   */\n      dup5\n        /* \"#utility.yul\":13809:13825   */\n      lt\n        /* \"#utility.yul\":13804:13806   */\n      0x0b\n        /* \"#utility.yul\":13798:13802   */\n      dup5\n        /* \"#utility.yul\":13795:13807   */\n      lt\n        /* \"#utility.yul\":13791:13826   */\n      and\n        /* \"#utility.yul\":13788:13865   */\n      or\n        /* \"#utility.yul\":13785:13787   */\n      iszero\n      tag_797\n      jumpi\n      pop\n        /* \"#utility.yul\":13897:13916   */\n      dup2\n      dup2\n      exp\n        /* \"#utility.yul\":13929:13934   */\n      jump(tag_273)\n        /* \"#utility.yul\":13785:13787   */\n    tag_797:\n        /* \"#utility.yul\":13976:14010   */\n      tag_798\n        /* \"#utility.yul\":14001:14009   */\n      dup4\n        /* \"#utility.yul\":13995:13999   */\n      dup4\n        /* \"#utility.yul\":13976:14010   */\n      tag_778\n      jump\t// in\n    tag_798:\n        /* \"#utility.yul\":14046:14052   */\n      dup1\n        /* \"#utility.yul\":14042:14043   */\n      0x00\n        /* \"#utility.yul\":14038:14044   */\n      not\n        /* \"#utility.yul\":14034:14053   */\n      div\n        /* \"#utility.yul\":14025:14032   */\n      dup3\n        /* \"#utility.yul\":14022:14054   */\n      gt\n        /* \"#utility.yul\":14019:14021   */\n      iszero\n      tag_800\n      jumpi\n        /* \"#utility.yul\":14057:14075   */\n      tag_800\n      tag_775\n      jump\t// in\n    tag_800:\n        /* \"#utility.yul\":14095:14115   */\n      mul\n      swap4\n        /* \"#utility.yul\":13374:14121   */\n      swap3\n      pop\n      pop\n      pop\n      jump\t// out\n        /* \"#utility.yul\":14126:14294   */\n    tag_452:\n        /* \"#utility.yul\":14166:14173   */\n      0x00\n        /* \"#utility.yul\":14232:14233   */\n      dup2\n        /* \"#utility.yul\":14228:14229   */\n      0x00\n        /* \"#utility.yul\":14224:14230   */\n      not\n        /* \"#utility.yul\":14220:14234   */\n      div\n        /* \"#utility.yul\":14217:14218   */\n      dup4\n        /* \"#utility.yul\":14214:14235   */\n      gt\n        /* \"#utility.yul\":14209:14210   */\n      dup3\n        /* \"#utility.yul\":14202:14211   */\n      iszero\n        /* \"#utility.yul\":14195:14212   */\n      iszero\n        /* \"#utility.yul\":14191:14236   */\n      and\n        /* \"#utility.yul\":14188:14190   */\n      iszero\n      tag_803\n      jumpi\n        /* \"#utility.yul\":14239:14257   */\n      tag_803\n      tag_775\n      jump\t// in\n    tag_803:\n      pop\n        /* \"#utility.yul\":14279:14288   */\n      mul\n      swap1\n        /* \"#utility.yul\":14178:14294   */\n      jump\t// out\n        /* \"#utility.yul\":14299:14424   */\n    tag_318:\n        /* \"#utility.yul\":14339:14343   */\n      0x00\n        /* \"#utility.yul\":14367:14368   */\n      dup3\n        /* \"#utility.yul\":14364:14365   */\n      dup3\n        /* \"#utility.yul\":14361:14369   */\n      lt\n        /* \"#utility.yul\":14358:14360   */\n      iszero\n      tag_806\n      jumpi\n        /* \"#utility.yul\":14372:14390   */\n      tag_806\n      tag_775\n      jump\t// in\n    tag_806:\n      pop\n        /* \"#utility.yul\":14409:14418   */\n      sub\n      swap1\n        /* \"#utility.yul\":14348:14424   */\n      jump\t// out\n        /* \"#utility.yul\":14429:14809   */\n    tag_268:\n        /* \"#utility.yul\":14508:14509   */\n      0x01\n        /* \"#utility.yul\":14504:14516   */\n      dup2\n      dup2\n      shr\n      swap1\n        /* \"#utility.yul\":14551:14563   */\n      dup3\n      and\n      dup1\n        /* \"#utility.yul\":14572:14574   */\n      tag_808\n      jumpi\n        /* \"#utility.yul\":14626:14630   */\n      0x7f\n        /* \"#utility.yul\":14618:14624   */\n      dup3\n        /* \"#utility.yul\":14614:14631   */\n      and\n        /* \"#utility.yul\":14604:14631   */\n      swap2\n      pop\n        /* \"#utility.yul\":14572:14574   */\n    tag_808:\n        /* \"#utility.yul\":14679:14681   */\n      0x20\n        /* \"#utility.yul\":14671:14677   */\n      dup3\n        /* \"#utility.yul\":14668:14682   */\n      lt\n        /* \"#utility.yul\":14648:14666   */\n      dup2\n        /* \"#utility.yul\":14645:14683   */\n      eq\n        /* \"#utility.yul\":14642:14644   */\n      iszero\n      tag_809\n      jumpi\n        /* \"#utility.yul\":14725:14735   */\n      0x4e487b71\n        /* \"#utility.yul\":14720:14723   */\n      0xe0\n        /* \"#utility.yul\":14716:14736   */\n      shl\n        /* \"#utility.yul\":14713:14714   */\n      0x00\n        /* \"#utility.yul\":14706:14737   */\n      mstore\n        /* \"#utility.yul\":14760:14764   */\n      0x22\n        /* \"#utility.yul\":14757:14758   */\n      0x04\n        /* \"#utility.yul\":14750:14765   */\n      mstore\n        /* \"#utility.yul\":14788:14792   */\n      0x24\n        /* \"#utility.yul\":14785:14786   */\n      0x00\n        /* \"#utility.yul\":14778:14793   */\n      revert\n        /* \"#utility.yul\":14642:14644   */\n    tag_809:\n      pop\n        /* \"#utility.yul\":14484:14809   */\n      swap2\n      swap1\n      pop\n      jump\t// out\n        /* \"#utility.yul\":14814:14949   */\n    tag_326:\n        /* \"#utility.yul\":14853:14856   */\n      0x00\n      not(0x00)\n        /* \"#utility.yul\":14874:14891   */\n      dup3\n      eq\n        /* \"#utility.yul\":14871:14873   */\n      iszero\n      tag_812\n      jumpi\n        /* \"#utility.yul\":14894:14912   */\n      tag_812\n      tag_775\n      jump\t// in\n    tag_812:\n      pop\n        /* \"#utility.yul\":14941:14942   */\n      0x01\n        /* \"#utility.yul\":14930:14943   */\n      add\n      swap1\n        /* \"#utility.yul\":14861:14949   */\n      jump\t// out\n        /* \"#utility.yul\":14954:15081   */\n    tag_775:\n        /* \"#utility.yul\":15015:15025   */\n      0x4e487b71\n        /* \"#utility.yul\":15010:15013   */\n      0xe0\n        /* \"#utility.yul\":15006:15026   */\n      shl\n        /* \"#utility.yul\":15003:15004   */\n      0x00\n        /* \"#utility.yul\":14996:15027   */\n      mstore\n        /* \"#utility.yul\":15046:15050   */\n      0x11\n        /* \"#utility.yul\":15043:15044   */\n      0x04\n        /* \"#utility.yul\":15036:15051   */\n      mstore\n        /* \"#utility.yul\":15070:15074   */\n      0x24\n        /* \"#utility.yul\":15067:15068   */\n      0x00\n        /* \"#utility.yul\":15060:15075   */\n      revert\n        /* \"#utility.yul\":15086:15217   */\n    tag_716:\n      sub(shl(0xa0, 0x01), 0x01)\n        /* \"#utility.yul\":15161:15192   */\n      dup2\n      and\n        /* \"#utility.yul\":15151:15193   */\n      dup2\n      eq\n        /* \"#utility.yul\":15141:15143   */\n      tag_815\n      jumpi\n        /* \"#utility.yul\":15207:15208   */\n      0x00\n        /* \"#utility.yul\":15204:15205   */\n      dup1\n        /* \"#utility.yul\":15197:15209   */\n      revert\n        /* \"#utility.yul\":15141:15143   */\n    tag_815:\n        /* \"#utility.yul\":15131:15217   */\n      pop\n      jump\t// out\n    stop\n    data_974d1b4421da69cc60b481194f0dad36a5bb4e23da810da7a7fb30cdba178330 45524332303a207472616e7366657220616d6f756e74206578636565647320616c6c6f77616e6365\n    data_9c064737b570a74c2bac5d21056d93ac53115214216cd14d4a0fc9b60be81231 8be0079c531659141344cd1fd0a4f28419497f9722a3daafe3b4186f6b6457e0\n    data_f8b476f7d28209d77d4a4ac1fe36b9f8259aa1bb6bddfa6e89de7e51615cf8a8 45524332303a2064656372656173656420616c6c6f77616e63652062656c6f77207a65726f\n\n    auxdata: 0xa26469706673582212204957f42ee76ddeb40eb9243306c1c4903044ebefec4c6d798f922ea987e6dbac64736f6c63430008040033\n}\n",
				"bytecode": {
					"linkReferences": {},
					"object": "608060408190526017805460ff60a81b1916600160a81b1790556200347a388190039081908339810160408190526200003891620005ca565b600080546001600160a01b0319163390811782556040519091907f8be0079c531659141344cd1fd0a4f28419497f9722a3daafe3b4186f6b6457e0908290a38a516200008c90600d9060208e019062000430565b508951620000a290600e9060208d019062000430565b50600f899055620000b589600a62000715565b620000c19089620007d3565b600a819055620000d4906000196200084c565b620000e290600019620007f5565b600b55601087905560148690556011879055601285905560138590556015869055600f546200011390600a62000715565b6103e8600a546005620001279190620007d3565b620001339190620006b5565b6200013f9190620007d3565b601855600f546200015290600a62000715565b612710600a546005620001669190620007d3565b620001729190620006b5565b6200017e9190620007d3565b601955600980546001600160a01b0319166001600160a01b0385811691909117909155600b5483821660009081526003602090815260409182902092909255805163c45a015560e01b81529051879384169263c45a01559260048082019391829003018186803b158015620001f257600080fd5b505afa15801562000207573d6000803e3d6000fd5b505050506040513d601f19601f820116820180604052508101906200022d9190620005a6565b6001600160a01b031663c9c6539630836001600160a01b031663ad5c46486040518163ffffffff1660e01b815260040160206040518083038186803b1580156200027657600080fd5b505afa1580156200028b573d6000803e3d6000fd5b505050506040513d601f19601f82011682018060405250810190620002b19190620005a6565b6040516001600160e01b031960e085901b1681526001600160a01b03928316600482015291166024820152604401602060405180830381600087803b158015620002fa57600080fd5b505af11580156200030f573d6000803e3d6000fd5b505050506040513d601f19601f82011682018060405250810190620003359190620005a6565b601780546001600160a01b039283166001600160a01b03199182161790915560168054848416908316179055848216600081815260066020526040808220805460ff19908116600190811790925530845282842080549091169091179055815490931690911781559051918416913480156108fc0292909190818181858888f19350505050158015620003cc573d6000803e3d6000fd5b50826001600160a01b031660006001600160a01b03167fddf252ad1be2c89b69c2b068fc378daa952ba7f163c4a11628f55a4df523b3ef600a546040516200041691815260200190565b60405180910390a3505050505050505050505050620008a5565b8280546200043e906200080f565b90600052602060002090601f016020900481019282620004625760008555620004ad565b82601f106200047d57805160ff1916838001178555620004ad565b82800160010185558215620004ad579182015b82811115620004ad57825182559160200191906001019062000490565b50620004bb929150620004bf565b5090565b5b80821115620004bb5760008155600101620004c0565b80516001600160a01b0381168114620004ee57600080fd5b919050565b600082601f83011262000504578081fd5b81516001600160401b03808211156200052157620005216200088f565b604051601f8301601f19908116603f011681019082821181831017156200054c576200054c6200088f565b8160405283815260209250868385880101111562000568578485fd5b8491505b838210156200058b57858201830151818301840152908201906200056c565b838211156200059c57848385830101525b9695505050505050565b600060208284031215620005b8578081fd5b620005c382620004d6565b9392505050565b60008060008060008060008060008060006101608c8e031215620005ec578687fd5b8b516001600160401b0381111562000602578788fd5b620006108e828f01620004f3565b60208e0151909c5090506001600160401b038111156200062e578788fd5b6200063c8e828f01620004f3565b9a505060408c0151985060608c0151975060808c0151965060a08c0151955060c08c015194506200067060e08d01620004d6565b9350620006816101008d01620004d6565b9250620006926101208d01620004d6565b9150620006a36101408d01620004d6565b90509295989b509295989b9093969950565b600082620006c757620006c762000879565b500490565b600181815b808511156200070d578160001904821115620006f157620006f162000863565b80851615620006ff57918102915b93841c9390800290620006d1565b509250929050565b6000620005c383836000826200072e57506001620007cd565b816200073d57506000620007cd565b8160018114620007565760028114620007615762000781565b6001915050620007cd565b60ff84111562000775576200077562000863565b50506001821b620007cd565b5060208310610133831016604e8410600b8410161715620007a6575081810a620007cd565b620007b28383620006cc565b8060001904821115620007c957620007c962000863565b0290505b92915050565b6000816000190483118215151615620007f057620007f062000863565b500290565b6000828210156200080a576200080a62000863565b500390565b600181811c908216806200082457607f821691505b602082108114156200084657634e487b7160e01b600052602260045260246000fd5b50919050565b6000826200085e576200085e62000879565b500690565b634e487b7160e01b600052601160045260246000fd5b634e487b7160e01b600052601260045260246000fd5b634e487b7160e01b600052604160045260246000fd5b612bc580620008b56000396000f3fe6080604052600436106102765760003560e01c80636bc87c3a1161014f578063a9059cbb116100c1578063d543dbeb1161007a578063d543dbeb14610754578063dd46706414610774578063dd62ed3e14610794578063ea2f0b37146107da578063f0f165af146107fa578063f2fde38b1461081a57600080fd5b8063a9059cbb146106a8578063aa45026b146106c8578063b2bdfa7b146106de578063b425bac3146106fe578063c49b9a801461071e578063d12a76881461073e57600080fd5b806388f820201161011357806388f82020146105e75780638da5cb5b146106205780638ee88c531461063e57806395d89b411461065e578063a457c2d714610673578063a69df4b51461069357600080fd5b80636bc87c3a1461057057806370a0823114610586578063715018a6146105a657806379af25a6146105bb5780637d1db4a5146105d157600080fd5b8063379e2919116101e8578063437823ec116101ac578063437823ec146104965780634549b039146104b657806349bd5a5e146104d65780634a74bb02146104f657806352390c02146105175780635342acb41461053757600080fd5b8063379e29191461040057806339509351146104205780633b124fe7146104405780633bd5d1731461045657806341cb87fc1461047657600080fd5b80631694505e1161023a5780631694505e1461033e57806318160ddd1461037657806323b872dd1461038b5780632d838119146103ab578063313ce567146103cb5780633685d419146103e057600080fd5b8063061c82d01461028257806306fdde03146102a4578063095ea7b3146102cf578063120a0612146102ff57806313114a9d1461031f57600080fd5b3661027d57005b600080fd5b34801561028e57600080fd5b506102a261029d3660046127dd565b61083a565b005b3480156102b057600080fd5b506102b9610872565b6040516102c6919061284d565b60405180910390f35b3480156102db57600080fd5b506102ef6102ea366004612798565b610904565b60405190151581526020016102c6565b34801561030b57600080fd5b506102a261031a3660046126e8565b61091b565b34801561032b57600080fd5b50600c545b6040519081526020016102c6565b34801561034a57600080fd5b5060165461035e906001600160a01b031681565b6040516001600160a01b0390911681526020016102c6565b34801561038257600080fd5b50600a54610330565b34801561039757600080fd5b506102ef6103a6366004612758565b610967565b3480156103b757600080fd5b506103306103c63660046127dd565b6109d0565b3480156103d757600080fd5b50600f54610330565b3480156103ec57600080fd5b506102a26103fb3660046126e8565b610a54565b34801561040c57600080fd5b506102a261041b3660046127dd565b610c43565b34801561042c57600080fd5b506102ef61043b366004612798565b610c72565b34801561044c57600080fd5b5061033060105481565b34801561046257600080fd5b506102a26104713660046127dd565b610ca8565b34801561048257600080fd5b506102a26104913660046126e8565b610d94565b3480156104a257600080fd5b506102a26104b13660046126e8565b610f66565b3480156104c257600080fd5b506103306104d13660046127f5565b610fb4565b3480156104e257600080fd5b5060175461035e906001600160a01b031681565b34801561050257600080fd5b506017546102ef90600160a81b900460ff1681565b34801561052357600080fd5b506102a26105323660046126e8565b611043565b34801561054357600080fd5b506102ef6105523660046126e8565b6001600160a01b031660009081526006602052604090205460ff1690565b34801561057c57600080fd5b5061033060145481565b34801561059257600080fd5b506103306105a13660046126e8565b611196565b3480156105b257600080fd5b506102a26111f5565b3480156105c757600080fd5b5061033060025481565b3480156105dd57600080fd5b5061033060185481565b3480156105f357600080fd5b506102ef6106023660046126e8565b6001600160a01b031660009081526007602052604090205460ff1690565b34801561062c57600080fd5b506000546001600160a01b031661035e565b34801561064a57600080fd5b506102a26106593660046127dd565b611257565b34801561066a57600080fd5b506102b9611286565b34801561067f57600080fd5b506102ef61068e366004612798565b611295565b34801561069f57600080fd5b506102a26112e4565b3480156106b457600080fd5b506102ef6106c3366004612798565b6113e0565b3480156106d457600080fd5b5061033060125481565b3480156106ea57600080fd5b5060005461035e906001600160a01b031681565b34801561070a57600080fd5b5060095461035e906001600160a01b031681565b34801561072a57600080fd5b506102a26107393660046127c3565b6113ed565b34801561074a57600080fd5b5061033060195481565b34801561076057600080fd5b506102a261076f3660046127dd565b61146f565b34801561078057600080fd5b506102a261078f3660046127dd565b6114b7565b3480156107a057600080fd5b506103306107af366004612720565b6001600160a01b03918216600090815260056020908152604080832093909416825291909152205490565b3480156107e657600080fd5b506102a26107f53660046126e8565b611526565b34801561080657600080fd5b506102a26108153660046127dd565b611571565b34801561082657600080fd5b506102a26108353660046126e8565b6115a0565b6000546001600160a01b0316331461086d5760405162461bcd60e51b8152600401610864906128a0565b60405180910390fd5b601055565b6060600d805461088190612a9e565b80601f01602080910402602001604051908101604052809291908181526020018280546108ad90612a9e565b80156108fa5780601f106108cf576101008083540402835291602001916108fa565b820191906000526020600020905b8154815290600101906020018083116108dd57829003601f168201915b5050505050905090565b6000610911338484611678565b5060015b92915050565b6000546001600160a01b031633146109455760405162461bcd60e51b8152600401610864906128a0565b600980546001600160a01b0319166001600160a01b0392909216919091179055565b600061097484848461179c565b6109c684336109c185604051806060016040528060288152602001612b23602891396001600160a01b038a1660009081526005602090815260408083203384529091529020549190611a32565b611678565b5060019392505050565b6000600b54821115610a375760405162461bcd60e51b815260206004820152602a60248201527f416d6f756e74206d757374206265206c657373207468616e20746f74616c207260448201526965666c656374696f6e7360b01b6064820152608401610864565b6000610a41611a5e565b9050610a4d8382611a81565b9392505050565b6000546001600160a01b03163314610a7e5760405162461bcd60e51b8152600401610864906128a0565b6001600160a01b03811660009081526007602052604090205460ff16610ae65760405162461bcd60e51b815260206004820152601b60248201527f4163636f756e7420697320616c726561647920696e636c7564656400000000006044820152606401610864565b60005b600854811015610c3f57816001600160a01b031660088281548110610b1e57634e487b7160e01b600052603260045260246000fd5b6000918252602090912001546001600160a01b03161415610c2d5760088054610b4990600190612a87565b81548110610b6757634e487b7160e01b600052603260045260246000fd5b600091825260209091200154600880546001600160a01b039092169183908110610ba157634e487b7160e01b600052603260045260246000fd5b600091825260208083209190910180546001600160a01b0319166001600160a01b039485161790559184168152600482526040808220829055600790925220805460ff191690556008805480610c0757634e487b7160e01b600052603160045260246000fd5b600082815260209020810160001990810180546001600160a01b03191690550190555050565b80610c3781612ad9565b915050610ae9565b5050565b6000546001600160a01b03163314610c6d5760405162461bcd60e51b8152600401610864906128a0565b601255565b3360008181526005602090815260408083206001600160a01b038716845290915281205490916109119185906109c19086611a8d565b3360008181526007602052604090205460ff1615610d1d5760405162461bcd60e51b815260206004820152602c60248201527f4578636c75646564206164647265737365732063616e6e6f742063616c6c207460448201526b3434b990333ab731ba34b7b760a11b6064820152608401610864565b6000610d2883611a99565b5050506001600160a01b038616600090815260036020526040902054939450610d5693925084915050611af4565b6001600160a01b038316600090815260036020526040902055600b54610d7c9082611af4565b600b55600c54610d8c9084611a8d565b600c55505050565b6000546001600160a01b03163314610dbe5760405162461bcd60e51b8152600401610864906128a0565b6000819050806001600160a01b031663c45a01556040518163ffffffff1660e01b815260040160206040518083038186803b158015610dfc57600080fd5b505afa158015610e10573d6000803e3d6000fd5b505050506040513d601f19601f82011682018060405250810190610e349190612704565b6001600160a01b031663c9c6539630836001600160a01b031663ad5c46486040518163ffffffff1660e01b815260040160206040518083038186803b158015610e7c57600080fd5b505afa158015610e90573d6000803e3d6000fd5b505050506040513d601f19601f82011682018060405250810190610eb49190612704565b6040516001600160e01b031960e085901b1681526001600160a01b03928316600482015291166024820152604401602060405180830381600087803b158015610efc57600080fd5b505af1158015610f10573d6000803e3d6000fd5b505050506040513d601f19601f82011682018060405250810190610f349190612704565b601780546001600160a01b039283166001600160a01b0319918216179091556016805493909216921691909117905550565b6000546001600160a01b03163314610f905760405162461bcd60e51b8152600401610864906128a0565b6001600160a01b03166000908152600660205260409020805460ff19166001179055565b6000600a548311156110085760405162461bcd60e51b815260206004820152601f60248201527f416d6f756e74206d757374206265206c657373207468616e20737570706c79006044820152606401610864565b8161102857600061101884611a99565b5094965061091595505050505050565b600061103384611a99565b5093965061091595505050505050565b6000546001600160a01b0316331461106d5760405162461bcd60e51b8152600401610864906128a0565b6001600160a01b03811660009081526007602052604090205460ff16156110d65760405162461bcd60e51b815260206004820152601b60248201527f4163636f756e7420697320616c7265616479206578636c7564656400000000006044820152606401610864565b6001600160a01b03811660009081526003602052604090205415611130576001600160a01b038116600090815260036020526040902054611116906109d0565b6001600160a01b0382166000908152600460205260409020555b6001600160a01b03166000818152600760205260408120805460ff191660019081179091556008805491820181559091527ff3f7a9fe364faab93b216da50a3214154f22a0a2b415b23a84c8169e8b636ee30180546001600160a01b0319169091179055565b6001600160a01b03811660009081526007602052604081205460ff16156111d357506001600160a01b031660009081526004602052604090205490565b6001600160a01b038216600090815260036020526040902054610915906109d0565b6000546001600160a01b0316331461121f5760405162461bcd60e51b8152600401610864906128a0565b600080546040516001600160a01b0390911690600080516020612b4b833981519152908390a3600080546001600160a01b0319169055565b6000546001600160a01b031633146112815760405162461bcd60e51b8152600401610864906128a0565b601455565b6060600e805461088190612a9e565b600061091133846109c185604051806060016040528060258152602001612b6b602591393360009081526005602090815260408083206001600160a01b038d1684529091529020549190611a32565b6001546001600160a01b0316331461134a5760405162461bcd60e51b8152602060048201526024808201527f596f7520646f6e27742068617665207065726d697373696f6e20746f20756e6c60448201526337b1b59760e11b6064820152608401610864565b60025442116113915760405162461bcd60e51b815260206004820152601360248201527221b7b73a3930b1ba1034b9903637b1b5b2b21760691b6044820152606401610864565b600154600080546040516001600160a01b039384169390911691600080516020612b4b83398151915291a3600154600080546001600160a01b0319166001600160a01b03909216919091179055565b600061091133848461179c565b6000546001600160a01b031633146114175760405162461bcd60e51b8152600401610864906128a0565b60178054821515600160a81b0260ff60a81b199091161790556040517f53726dfcaf90650aa7eb35524f4d3220f07413c8d6cb404cc8c18bf5591bc1599061146490831515815260200190565b60405180910390a150565b6000546001600160a01b031633146114995760405162461bcd60e51b8152600401610864906128a0565b600f546114a790600a6129c0565b6114b19082612a68565b60185550565b6000546001600160a01b031633146114e15760405162461bcd60e51b8152600401610864906128a0565b60008054600180546001600160a01b03199081166001600160a01b0384161790915516815560028290556040518190600080516020612b4b833981519152908290a350565b6000546001600160a01b031633146115505760405162461bcd60e51b8152600401610864906128a0565b6001600160a01b03166000908152600660205260409020805460ff19169055565b6000546001600160a01b0316331461159b5760405162461bcd60e51b8152600401610864906128a0565b601955565b6000546001600160a01b031633146115ca5760405162461bcd60e51b8152600401610864906128a0565b6001600160a01b03811661162f5760405162461bcd60e51b815260206004820152602660248201527f4f776e61626c653a206e6577206f776e657220697320746865207a65726f206160448201526564647265737360d01b6064820152608401610864565b600080546040516001600160a01b0380851693921691600080516020612b4b83398151915291a3600080546001600160a01b0319166001600160a01b0392909216919091179055565b6001600160a01b0383166116da5760405162461bcd60e51b8152602060048201526024808201527f45524332303a20617070726f76652066726f6d20746865207a65726f206164646044820152637265737360e01b6064820152608401610864565b6001600160a01b03821661173b5760405162461bcd60e51b815260206004820152602260248201527f45524332303a20617070726f766520746f20746865207a65726f206164647265604482015261737360f01b6064820152608401610864565b6001600160a01b0383811660008181526005602090815260408083209487168084529482529182902085905590518481527f8c5be1e5ebec7d5bd14f71427d1e84f3dd0314c0f7b2291e5b200ac8c7c3b925910160405180910390a3505050565b6001600160a01b0383166118005760405162461bcd60e51b815260206004820152602560248201527f45524332303a207472616e736665722066726f6d20746865207a65726f206164604482015264647265737360d81b6064820152608401610864565b6001600160a01b0382166118625760405162461bcd60e51b815260206004820152602360248201527f45524332303a207472616e7366657220746f20746865207a65726f206164647260448201526265737360e81b6064820152608401610864565b600081116118c45760405162461bcd60e51b815260206004820152602960248201527f5472616e7366657220616d6f756e74206d7573742062652067726561746572206044820152687468616e207a65726f60b81b6064820152608401610864565b6000546001600160a01b038481169116148015906118f057506000546001600160a01b03838116911614155b15611958576018548111156119585760405162461bcd60e51b815260206004820152602860248201527f5472616e7366657220616d6f756e74206578636565647320746865206d6178546044820152673c20b6b7bab73a1760c11b6064820152608401610864565b600061196330611196565b9050601854811061197357506018545b601954811080159081906119915750601754600160a01b900460ff16155b80156119ab57506017546001600160a01b03868116911614155b80156119c05750601754600160a81b900460ff165b156119d35760195491506119d382611b00565b6001600160a01b03851660009081526006602052604090205460019060ff1680611a1557506001600160a01b03851660009081526006602052604090205460ff165b15611a1e575060005b611a2a86868684611ba7565b505050505050565b60008184841115611a565760405162461bcd60e51b8152600401610864919061284d565b505050900390565b6000806000611a6b611d47565b9092509050611a7a8282611a81565b9250505090565b6000610a4d828461295d565b6000610a4d8284612945565b6000806000806000806000806000806000611ab38c611f01565b93509350935093506000806000611ad48f878787611acf611a5e565b611f56565b919f509d509b509599509397509195509350505050919395979092949650565b6000610a4d8284612a87565b6017805460ff60a01b1916600160a01b1790556000611b20826002611a81565b90506000611b2e8383611af4565b905047611b3a83611fb8565b6000611b464783611af4565b9050611b528382612135565b60408051858152602081018390529081018490527f17bbfb9a6069321b6ded73bd96327c9e6b7212a5cd51ff219cd61370acafb5619060600160405180910390a150506017805460ff60a01b19169055505050565b80611bd157611bd16010805460115560128054601355601480546015556000928390559082905555565b6001600160a01b03841660009081526007602052604090205460ff168015611c1257506001600160a01b03831660009081526007602052604090205460ff16155b15611c2757611c22848484612219565b611d25565b6001600160a01b03841660009081526007602052604090205460ff16158015611c6857506001600160a01b03831660009081526007602052604090205460ff165b15611c7857611c2284848461235f565b6001600160a01b03841660009081526007602052604090205460ff16158015611cba57506001600160a01b03831660009081526007602052604090205460ff16155b15611cca57611c2284848461241e565b6001600160a01b03841660009081526007602052604090205460ff168015611d0a57506001600160a01b03831660009081526007602052604090205460ff165b15611d1a57611c22848484612478565b611d2584848461241e565b80611d4157611d41601154601055601354601255601554601455565b50505050565b600b54600a546000918291825b600854811015611ed157826003600060088481548110611d8457634e487b7160e01b600052603260045260246000fd5b60009182526020808320909101546001600160a01b031683528201929092526040019020541180611dfd5750816004600060088481548110611dd657634e487b7160e01b600052603260045260246000fd5b60009182526020808320909101546001600160a01b03168352820192909252604001902054115b15611e1357600b54600a54945094505050509091565b611e676003600060088481548110611e3b57634e487b7160e01b600052603260045260246000fd5b60009182526020808320909101546001600160a01b031683528201929092526040019020548490611af4565b9250611ebd6004600060088481548110611e9157634e487b7160e01b600052603260045260246000fd5b60009182526020808320909101546001600160a01b031683528201929092526040019020548390611af4565b915080611ec981612ad9565b915050611d54565b50600a54600b54611ee191611a81565b821015611ef857600b54600a549350935050509091565b90939092509050565b6000806000806000611f1286612501565b90506000611f1f87612523565b90506000611f2c8861253f565b90506000611f4682611f4085818d89611af4565b90611af4565b9993985091965094509092505050565b6000808080611f65898661255b565b90506000611f73898761255b565b90506000611f81898861255b565b90506000611f8f898961255b565b90506000611fa382611f4085818989611af4565b949d949c50929a509298505050505050505050565b6040805160028082526060820183526000926020830190803683370190505090503081600081518110611ffb57634e487b7160e01b600052603260045260246000fd5b6001600160a01b03928316602091820292909201810191909152601654604080516315ab88c960e31b81529051919093169263ad5c4648926004808301939192829003018186803b15801561204f57600080fd5b505afa158015612063573d6000803e3d6000fd5b505050506040513d601f19601f820116820180604052508101906120879190612704565b816001815181106120a857634e487b7160e01b600052603260045260246000fd5b6001600160a01b0392831660209182029290920101526016546120ce9130911684611678565b60165460405163791ac94760e01b81526001600160a01b039091169063791ac947906121079085906000908690309042906004016128d5565b600060405180830381600087803b15801561212157600080fd5b505af1158015611a2a573d6000803e3d6000fd5b60165461214d9030906001600160a01b031684611678565b6016546001600160a01b031663f305d7198230856000806121766000546001600160a01b031690565b60405160e088901b6001600160e01b03191681526001600160a01b03958616600482015260248101949094526044840192909252606483015290911660848201524260a482015260c4016060604051808303818588803b1580156121d957600080fd5b505af11580156121ed573d6000803e3d6000fd5b50505050506040513d601f19601f820116820180604052508101906122129190612820565b5050505050565b600080600080600080600061222d88611a99565b965096509650965096509650965061227388600460008d6001600160a01b03166001600160a01b0316815260200190815260200160002054611af490919063ffffffff16565b6001600160a01b038b166000908152600460209081526040808320939093556003905220546122a29088611af4565b6001600160a01b03808c1660009081526003602052604080822093909355908b16815220546122d19087611a8d565b6001600160a01b038a166000908152600360205260409020556122f382612567565b6122fc816125f0565b61230685846126af565b886001600160a01b03168a6001600160a01b03167fddf252ad1be2c89b69c2b068fc378daa952ba7f163c4a11628f55a4df523b3ef8660405161234b91815260200190565b60405180910390a350505050505050505050565b600080600080600080600061237388611a99565b96509650965096509650965096506123b987600360008d6001600160a01b03166001600160a01b0316815260200190815260200160002054611af490919063ffffffff16565b6001600160a01b03808c16600090815260036020908152604080832094909455918c168152600490915220546123ef9085611a8d565b6001600160a01b038a166000908152600460209081526040808320939093556003905220546122d19087611a8d565b600080600080600080600061243288611a99565b96509650965096509650965096506122a287600360008d6001600160a01b03166001600160a01b0316815260200190815260200160002054611af490919063ffffffff16565b600080600080600080600061248c88611a99565b96509650965096509650965096506124d288600460008d6001600160a01b03166001600160a01b0316815260200190815260200160002054611af490919063ffffffff16565b6001600160a01b038b166000908152600460209081526040808320939093556003905220546123b99088611af4565b6000610915606461251d6010548561255b90919063ffffffff16565b90611a81565b6000610915606461251d6014548561255b90919063ffffffff16565b6000610915606461251d6012548561255b90919063ffffffff16565b6000610a4d8284612a68565b6000612571611a5e565b9050600061257f838361255b565b3060009081526003602052604090205490915061259c9082611a8d565b3060009081526003602090815260408083209390935560079052205460ff16156125eb57306000908152600460205260409020546125da9084611a8d565b306000908152600460205260409020555b505050565b60006125fa611a5e565b90506000612608838361255b565b6009546001600160a01b03166000908152600360205260409020549091506126309082611a8d565b600980546001600160a01b03908116600090815260036020908152604080832095909555925490911681526007909152205460ff16156125eb576009546001600160a01b031660009081526004602052604090205461268f9084611a8d565b6009546001600160a01b0316600090815260046020526040902055505050565b600b546126bc9083611af4565b600b55600c546126cc9082611a8d565b600c555050565b803580151581146126e357600080fd5b919050565b6000602082840312156126f9578081fd5b8135610a4d81612b0a565b600060208284031215612715578081fd5b8151610a4d81612b0a565b60008060408385031215612732578081fd5b823561273d81612b0a565b9150602083013561274d81612b0a565b809150509250929050565b60008060006060848603121561276c578081fd5b833561277781612b0a565b9250602084013561278781612b0a565b929592945050506040919091013590565b600080604083850312156127aa578182fd5b82356127b581612b0a565b946020939093013593505050565b6000602082840312156127d4578081fd5b610a4d826126d3565b6000602082840312156127ee578081fd5b5035919050565b60008060408385031215612807578182fd5b82359150612817602084016126d3565b90509250929050565b600080600060608486031215612834578283fd5b8351925060208401519150604084015190509250925092565b6000602080835283518082850152825b818110156128795785810183015185820160400152820161285d565b8181111561288a5783604083870101525b50601f01601f1916929092016040019392505050565b6020808252818101527f4f776e61626c653a2063616c6c6572206973206e6f7420746865206f776e6572604082015260600190565b600060a082018783526020878185015260a0604085015281875180845260c0860191508289019350845b818110156129245784516001600160a01b0316835293830193918301916001016128ff565b50506001600160a01b03969096166060850152505050608001529392505050565b6000821982111561295857612958612af4565b500190565b60008261297857634e487b7160e01b81526012600452602481fd5b500490565b600181815b808511156129b857816000190482111561299e5761299e612af4565b808516156129ab57918102915b93841c9390800290612982565b509250929050565b6000610a4d83836000826129d657506001610915565b816129e357506000610915565b81600181146129f95760028114612a0357612a1f565b6001915050610915565b60ff841115612a1457612a14612af4565b50506001821b610915565b5060208310610133831016604e8410600b8410161715612a42575081810a610915565b612a4c838361297d565b8060001904821115612a6057612a60612af4565b029392505050565b6000816000190483118215151615612a8257612a82612af4565b500290565b600082821015612a9957612a99612af4565b500390565b600181811c90821680612ab257607f821691505b60208210811415612ad357634e487b7160e01b600052602260045260246000fd5b50919050565b6000600019821415612aed57612aed612af4565b5060010190565b634e487b7160e01b600052601160045260246000fd5b6001600160a01b0381168114612b1f57600080fd5b5056fe45524332303a207472616e7366657220616d6f756e74206578636565647320616c6c6f77616e63658be0079c531659141344cd1fd0a4f28419497f9722a3daafe3b4186f6b6457e045524332303a2064656372656173656420616c6c6f77616e63652062656c6f77207a65726fa26469706673582212204957f42ee76ddeb40eb9243306c1c4903044ebefec4c6d798f922ea987e6dbac64736f6c63430008040033",
					"opcodes": "PUSH1 0x80 PUSH1 0x40 DUP2 SWAP1 MSTORE PUSH1 0x17 DUP1 SLOAD PUSH1 0xFF PUSH1 0xA8 SHL NOT AND PUSH1 0x1 PUSH1 0xA8 SHL OR SWAP1 SSTORE PUSH3 0x347A CODESIZE DUP2 SWAP1 SUB SWAP1 DUP2 SWAP1 DUP4 CODECOPY DUP2 ADD PUSH1 0x40 DUP2 SWAP1 MSTORE PUSH3 0x38 SWAP2 PUSH3 0x5CA JUMP JUMPDEST PUSH1 0x0 DUP1 SLOAD PUSH1 0x1 PUSH1 0x1 PUSH1 0xA0 SHL SUB NOT AND CALLER SWAP1 DUP2 OR DUP3 SSTORE PUSH1 0x40 MLOAD SWAP1 SWAP2 SWAP1 PUSH32 0x8BE0079C531659141344CD1FD0A4F28419497F9722A3DAAFE3B4186F6B6457E0 SWAP1 DUP3 SWAP1 LOG3 DUP11 MLOAD PUSH3 0x8C SWAP1 PUSH1 0xD SWAP1 PUSH1 0x20 DUP15 ADD SWAP1 PUSH3 0x430 JUMP JUMPDEST POP DUP10 MLOAD PUSH3 0xA2 SWAP1 PUSH1 0xE SWAP1 PUSH1 0x20 DUP14 ADD SWAP1 PUSH3 0x430 JUMP JUMPDEST POP PUSH1 0xF DUP10 SWAP1 SSTORE PUSH3 0xB5 DUP10 PUSH1 0xA PUSH3 0x715 JUMP JUMPDEST PUSH3 0xC1 SWAP1 DUP10 PUSH3 0x7D3 JUMP JUMPDEST PUSH1 0xA DUP2 SWAP1 SSTORE PUSH3 0xD4 SWAP1 PUSH1 0x0 NOT PUSH3 0x84C JUMP JUMPDEST PUSH3 0xE2 SWAP1 PUSH1 0x0 NOT PUSH3 0x7F5 JUMP JUMPDEST PUSH1 0xB SSTORE PUSH1 0x10 DUP8 SWAP1 SSTORE PUSH1 0x14 DUP7 SWAP1 SSTORE PUSH1 0x11 DUP8 SWAP1 SSTORE PUSH1 0x12 DUP6 SWAP1 SSTORE PUSH1 0x13 DUP6 SWAP1 SSTORE PUSH1 0x15 DUP7 SWAP1 SSTORE PUSH1 0xF SLOAD PUSH3 0x113 SWAP1 PUSH1 0xA PUSH3 0x715 JUMP JUMPDEST PUSH2 0x3E8 PUSH1 0xA SLOAD PUSH1 0x5 PUSH3 0x127 SWAP2 SWAP1 PUSH3 0x7D3 JUMP JUMPDEST PUSH3 0x133 SWAP2 SWAP1 PUSH3 0x6B5 JUMP JUMPDEST PUSH3 0x13F SWAP2 SWAP1 PUSH3 0x7D3 JUMP JUMPDEST PUSH1 0x18 SSTORE PUSH1 0xF SLOAD PUSH3 0x152 SWAP1 PUSH1 0xA PUSH3 0x715 JUMP JUMPDEST PUSH2 0x2710 PUSH1 0xA SLOAD PUSH1 0x5 PUSH3 0x166 SWAP2 SWAP1 PUSH3 0x7D3 JUMP JUMPDEST PUSH3 0x172 SWAP2 SWAP1 PUSH3 0x6B5 JUMP JUMPDEST PUSH3 0x17E SWAP2 SWAP1 PUSH3 0x7D3 JUMP JUMPDEST PUSH1 0x19 SSTORE PUSH1 0x9 DUP1 SLOAD PUSH1 0x1 PUSH1 0x1 PUSH1 0xA0 SHL SUB NOT AND PUSH1 0x1 PUSH1 0x1 PUSH1 0xA0 SHL SUB DUP6 DUP2 AND SWAP2 SWAP1 SWAP2 OR SWAP1 SWAP2 SSTORE PUSH1 0xB SLOAD DUP4 DUP3 AND PUSH1 0x0 SWAP1 DUP2 MSTORE PUSH1 0x3 PUSH1 0x20 SWAP1 DUP2 MSTORE PUSH1 0x40 SWAP2 DUP3 SWAP1 KECCAK256 SWAP3 SWAP1 SWAP3 SSTORE DUP1 MLOAD PUSH4 0xC45A0155 PUSH1 0xE0 SHL DUP2 MSTORE SWAP1 MLOAD DUP8 SWAP4 DUP5 AND SWAP3 PUSH4 0xC45A0155 SWAP3 PUSH1 0x4 DUP1 DUP3 ADD SWAP4 SWAP2 DUP3 SWAP1 SUB ADD DUP2 DUP7 DUP1 EXTCODESIZE ISZERO DUP1 ISZERO PUSH3 0x1F2 JUMPI PUSH1 0x0 DUP1 REVERT JUMPDEST POP GAS STATICCALL ISZERO DUP1 ISZERO PUSH3 0x207 JUMPI RETURNDATASIZE PUSH1 0x0 DUP1 RETURNDATACOPY RETURNDATASIZE PUSH1 0x0 REVERT JUMPDEST POP POP POP POP PUSH1 0x40 MLOAD RETURNDATASIZE PUSH1 0x1F NOT PUSH1 0x1F DUP3 ADD AND DUP3 ADD DUP1 PUSH1 0x40 MSTORE POP DUP2 ADD SWAP1 PUSH3 0x22D SWAP2 SWAP1 PUSH3 0x5A6 JUMP JUMPDEST PUSH1 0x1 PUSH1 0x1 PUSH1 0xA0 SHL SUB AND PUSH4 0xC9C65396 ADDRESS DUP4 PUSH1 0x1 PUSH1 0x1 PUSH1 0xA0 SHL SUB AND PUSH4 0xAD5C4648 PUSH1 0x40 MLOAD DUP2 PUSH4 0xFFFFFFFF AND PUSH1 0xE0 SHL DUP2 MSTORE PUSH1 0x4 ADD PUSH1 0x20 PUSH1 0x40 MLOAD DUP1 DUP4 SUB DUP2 DUP7 DUP1 EXTCODESIZE ISZERO DUP1 ISZERO PUSH3 0x276 JUMPI PUSH1 0x0 DUP1 REVERT JUMPDEST POP GAS STATICCALL ISZERO DUP1 ISZERO PUSH3 0x28B JUMPI RETURNDATASIZE PUSH1 0x0 DUP1 RETURNDATACOPY RETURNDATASIZE PUSH1 0x0 REVERT JUMPDEST POP POP POP POP PUSH1 0x40 MLOAD RETURNDATASIZE PUSH1 0x1F NOT PUSH1 0x1F DUP3 ADD AND DUP3 ADD DUP1 PUSH1 0x40 MSTORE POP DUP2 ADD SWAP1 PUSH3 0x2B1 SWAP2 SWAP1 PUSH3 0x5A6 JUMP JUMPDEST PUSH1 0x40 MLOAD PUSH1 0x1 PUSH1 0x1 PUSH1 0xE0 SHL SUB NOT PUSH1 0xE0 DUP6 SWAP1 SHL AND DUP2 MSTORE PUSH1 0x1 PUSH1 0x1 PUSH1 0xA0 SHL SUB SWAP3 DUP4 AND PUSH1 0x4 DUP3 ADD MSTORE SWAP2 AND PUSH1 0x24 DUP3 ADD MSTORE PUSH1 0x44 ADD PUSH1 0x20 PUSH1 0x40 MLOAD DUP1 DUP4 SUB DUP2 PUSH1 0x0 DUP8 DUP1 EXTCODESIZE ISZERO DUP1 ISZERO PUSH3 0x2FA JUMPI PUSH1 0x0 DUP1 REVERT JUMPDEST POP GAS CALL ISZERO DUP1 ISZERO PUSH3 0x30F JUMPI RETURNDATASIZE PUSH1 0x0 DUP1 RETURNDATACOPY RETURNDATASIZE PUSH1 0x0 REVERT JUMPDEST POP POP POP POP PUSH1 0x40 MLOAD RETURNDATASIZE PUSH1 0x1F NOT PUSH1 0x1F DUP3 ADD AND DUP3 ADD DUP1 PUSH1 0x40 MSTORE POP DUP2 ADD SWAP1 PUSH3 0x335 SWAP2 SWAP1 PUSH3 0x5A6 JUMP JUMPDEST PUSH1 0x17 DUP1 SLOAD PUSH1 0x1 PUSH1 0x1 PUSH1 0xA0 SHL SUB SWAP3 DUP4 AND PUSH1 0x1 PUSH1 0x1 PUSH1 0xA0 SHL SUB NOT SWAP2 DUP3 AND OR SWAP1 SWAP2 SSTORE PUSH1 0x16 DUP1 SLOAD DUP5 DUP5 AND SWAP1 DUP4 AND OR SWAP1 SSTORE DUP5 DUP3 AND PUSH1 0x0 DUP2 DUP2 MSTORE PUSH1 0x6 PUSH1 0x20 MSTORE PUSH1 0x40 DUP1 DUP3 KECCAK256 DUP1 SLOAD PUSH1 0xFF NOT SWAP1 DUP2 AND PUSH1 0x1 SWAP1 DUP2 OR SWAP1 SWAP3 SSTORE ADDRESS DUP5 MSTORE DUP3 DUP5 KECCAK256 DUP1 SLOAD SWAP1 SWAP2 AND SWAP1 SWAP2 OR SWAP1 SSTORE DUP2 SLOAD SWAP1 SWAP4 AND SWAP1 SWAP2 OR DUP2 SSTORE SWAP1 MLOAD SWAP2 DUP5 AND SWAP2 CALLVALUE DUP1 ISZERO PUSH2 0x8FC MUL SWAP3 SWAP1 SWAP2 SWAP1 DUP2 DUP2 DUP2 DUP6 DUP9 DUP9 CALL SWAP4 POP POP POP POP ISZERO DUP1 ISZERO PUSH3 0x3CC JUMPI RETURNDATASIZE PUSH1 0x0 DUP1 RETURNDATACOPY RETURNDATASIZE PUSH1 0x0 REVERT JUMPDEST POP DUP3 PUSH1 0x1 PUSH1 0x1 PUSH1 0xA0 SHL SUB AND PUSH1 0x0 PUSH1 0x1 PUSH1 0x1 PUSH1 0xA0 SHL SUB AND PUSH32 0xDDF252AD1BE2C89B69C2B068FC378DAA952BA7F163C4A11628F55A4DF523B3EF PUSH1 0xA SLOAD PUSH1 0x40 MLOAD PUSH3 0x416 SWAP2 DUP2 MSTORE PUSH1 0x20 ADD SWAP1 JUMP JUMPDEST PUSH1 0x40 MLOAD DUP1 SWAP2 SUB SWAP1 LOG3 POP POP POP POP POP POP POP POP POP POP POP POP PUSH3 0x8A5 JUMP JUMPDEST DUP3 DUP1 SLOAD PUSH3 0x43E SWAP1 PUSH3 0x80F JUMP JUMPDEST SWAP1 PUSH1 0x0 MSTORE PUSH1 0x20 PUSH1 0x0 KECCAK256 SWAP1 PUSH1 0x1F ADD PUSH1 0x20 SWAP1 DIV DUP2 ADD SWAP3 DUP3 PUSH3 0x462 JUMPI PUSH1 0x0 DUP6 SSTORE PUSH3 0x4AD JUMP JUMPDEST DUP3 PUSH1 0x1F LT PUSH3 0x47D JUMPI DUP1 MLOAD PUSH1 0xFF NOT AND DUP4 DUP1 ADD OR DUP6 SSTORE PUSH3 0x4AD JUMP JUMPDEST DUP3 DUP1 ADD PUSH1 0x1 ADD DUP6 SSTORE DUP3 ISZERO PUSH3 0x4AD JUMPI SWAP2 DUP3 ADD JUMPDEST DUP3 DUP2 GT ISZERO PUSH3 0x4AD JUMPI DUP3 MLOAD DUP3 SSTORE SWAP2 PUSH1 0x20 ADD SWAP2 SWAP1 PUSH1 0x1 ADD SWAP1 PUSH3 0x490 JUMP JUMPDEST POP PUSH3 0x4BB SWAP3 SWAP2 POP PUSH3 0x4BF JUMP JUMPDEST POP SWAP1 JUMP JUMPDEST JUMPDEST DUP1 DUP3 GT ISZERO PUSH3 0x4BB JUMPI PUSH1 0x0 DUP2 SSTORE PUSH1 0x1 ADD PUSH3 0x4C0 JUMP JUMPDEST DUP1 MLOAD PUSH1 0x1 PUSH1 0x1 PUSH1 0xA0 SHL SUB DUP2 AND DUP2 EQ PUSH3 0x4EE JUMPI PUSH1 0x0 DUP1 REVERT JUMPDEST SWAP2 SWAP1 POP JUMP JUMPDEST PUSH1 0x0 DUP3 PUSH1 0x1F DUP4 ADD SLT PUSH3 0x504 JUMPI DUP1 DUP2 REVERT JUMPDEST DUP2 MLOAD PUSH1 0x1 PUSH1 0x1 PUSH1 0x40 SHL SUB DUP1 DUP3 GT ISZERO PUSH3 0x521 JUMPI PUSH3 0x521 PUSH3 0x88F JUMP JUMPDEST PUSH1 0x40 MLOAD PUSH1 0x1F DUP4 ADD PUSH1 0x1F NOT SWAP1 DUP2 AND PUSH1 0x3F ADD AND DUP2 ADD SWAP1 DUP3 DUP3 GT DUP2 DUP4 LT OR ISZERO PUSH3 0x54C JUMPI PUSH3 0x54C PUSH3 0x88F JUMP JUMPDEST DUP2 PUSH1 0x40 MSTORE DUP4 DUP2 MSTORE PUSH1 0x20 SWAP3 POP DUP7 DUP4 DUP6 DUP9 ADD ADD GT ISZERO PUSH3 0x568 JUMPI DUP5 DUP6 REVERT JUMPDEST DUP5 SWAP2 POP JUMPDEST DUP4 DUP3 LT ISZERO PUSH3 0x58B JUMPI DUP6 DUP3 ADD DUP4 ADD MLOAD DUP2 DUP4 ADD DUP5 ADD MSTORE SWAP1 DUP3 ADD SWAP1 PUSH3 0x56C JUMP JUMPDEST DUP4 DUP3 GT ISZERO PUSH3 0x59C JUMPI DUP5 DUP4 DUP6 DUP4 ADD ADD MSTORE JUMPDEST SWAP7 SWAP6 POP POP POP POP POP POP JUMP JUMPDEST PUSH1 0x0 PUSH1 0x20 DUP3 DUP5 SUB SLT ISZERO PUSH3 0x5B8 JUMPI DUP1 DUP2 REVERT JUMPDEST PUSH3 0x5C3 DUP3 PUSH3 0x4D6 JUMP JUMPDEST SWAP4 SWAP3 POP POP POP JUMP JUMPDEST PUSH1 0x0 DUP1 PUSH1 0x0 DUP1 PUSH1 0x0 DUP1 PUSH1 0x0 DUP1 PUSH1 0x0 DUP1 PUSH1 0x0 PUSH2 0x160 DUP13 DUP15 SUB SLT ISZERO PUSH3 0x5EC JUMPI DUP7 DUP8 REVERT JUMPDEST DUP12 MLOAD PUSH1 0x1 PUSH1 0x1 PUSH1 0x40 SHL SUB DUP2 GT ISZERO PUSH3 0x602 JUMPI DUP8 DUP9 REVERT JUMPDEST PUSH3 0x610 DUP15 DUP3 DUP16 ADD PUSH3 0x4F3 JUMP JUMPDEST PUSH1 0x20 DUP15 ADD MLOAD SWAP1 SWAP13 POP SWAP1 POP PUSH1 0x1 PUSH1 0x1 PUSH1 0x40 SHL SUB DUP2 GT ISZERO PUSH3 0x62E JUMPI DUP8 DUP9 REVERT JUMPDEST PUSH3 0x63C DUP15 DUP3 DUP16 ADD PUSH3 0x4F3 JUMP JUMPDEST SWAP11 POP POP PUSH1 0x40 DUP13 ADD MLOAD SWAP9 POP PUSH1 0x60 DUP13 ADD MLOAD SWAP8 POP PUSH1 0x80 DUP13 ADD MLOAD SWAP7 POP PUSH1 0xA0 DUP13 ADD MLOAD SWAP6 POP PUSH1 0xC0 DUP13 ADD MLOAD SWAP5 POP PUSH3 0x670 PUSH1 0xE0 DUP14 ADD PUSH3 0x4D6 JUMP JUMPDEST SWAP4 POP PUSH3 0x681 PUSH2 0x100 DUP14 ADD PUSH3 0x4D6 JUMP JUMPDEST SWAP3 POP PUSH3 0x692 PUSH2 0x120 DUP14 ADD PUSH3 0x4D6 JUMP JUMPDEST SWAP2 POP PUSH3 0x6A3 PUSH2 0x140 DUP14 ADD PUSH3 0x4D6 JUMP JUMPDEST SWAP1 POP SWAP3 SWAP6 SWAP9 SWAP12 POP SWAP3 SWAP6 SWAP9 SWAP12 SWAP1 SWAP4 SWAP7 SWAP10 POP JUMP JUMPDEST PUSH1 0x0 DUP3 PUSH3 0x6C7 JUMPI PUSH3 0x6C7 PUSH3 0x879 JUMP JUMPDEST POP DIV SWAP1 JUMP JUMPDEST PUSH1 0x1 DUP2 DUP2 JUMPDEST DUP1 DUP6 GT ISZERO PUSH3 0x70D JUMPI DUP2 PUSH1 0x0 NOT DIV DUP3 GT ISZERO PUSH3 0x6F1 JUMPI PUSH3 0x6F1 PUSH3 0x863 JUMP JUMPDEST DUP1 DUP6 AND ISZERO PUSH3 0x6FF JUMPI SWAP2 DUP2 MUL SWAP2 JUMPDEST SWAP4 DUP5 SHR SWAP4 SWAP1 DUP1 MUL SWAP1 PUSH3 0x6D1 JUMP JUMPDEST POP SWAP3 POP SWAP3 SWAP1 POP JUMP JUMPDEST PUSH1 0x0 PUSH3 0x5C3 DUP4 DUP4 PUSH1 0x0 DUP3 PUSH3 0x72E JUMPI POP PUSH1 0x1 PUSH3 0x7CD JUMP JUMPDEST DUP2 PUSH3 0x73D JUMPI POP PUSH1 0x0 PUSH3 0x7CD JUMP JUMPDEST DUP2 PUSH1 0x1 DUP2 EQ PUSH3 0x756 JUMPI PUSH1 0x2 DUP2 EQ PUSH3 0x761 JUMPI PUSH3 0x781 JUMP JUMPDEST PUSH1 0x1 SWAP2 POP POP PUSH3 0x7CD JUMP JUMPDEST PUSH1 0xFF DUP5 GT ISZERO PUSH3 0x775 JUMPI PUSH3 0x775 PUSH3 0x863 JUMP JUMPDEST POP POP PUSH1 0x1 DUP3 SHL PUSH3 0x7CD JUMP JUMPDEST POP PUSH1 0x20 DUP4 LT PUSH2 0x133 DUP4 LT AND PUSH1 0x4E DUP5 LT PUSH1 0xB DUP5 LT AND OR ISZERO PUSH3 0x7A6 JUMPI POP DUP2 DUP2 EXP PUSH3 0x7CD JUMP JUMPDEST PUSH3 0x7B2 DUP4 DUP4 PUSH3 0x6CC JUMP JUMPDEST DUP1 PUSH1 0x0 NOT DIV DUP3 GT ISZERO PUSH3 0x7C9 JUMPI PUSH3 0x7C9 PUSH3 0x863 JUMP JUMPDEST MUL SWAP1 POP JUMPDEST SWAP3 SWAP2 POP POP JUMP JUMPDEST PUSH1 0x0 DUP2 PUSH1 0x0 NOT DIV DUP4 GT DUP3 ISZERO ISZERO AND ISZERO PUSH3 0x7F0 JUMPI PUSH3 0x7F0 PUSH3 0x863 JUMP JUMPDEST POP MUL SWAP1 JUMP JUMPDEST PUSH1 0x0 DUP3 DUP3 LT ISZERO PUSH3 0x80A JUMPI PUSH3 0x80A PUSH3 0x863 JUMP JUMPDEST POP SUB SWAP1 JUMP JUMPDEST PUSH1 0x1 DUP2 DUP2 SHR SWAP1 DUP3 AND DUP1 PUSH3 0x824 JUMPI PUSH1 0x7F DUP3 AND SWAP2 POP JUMPDEST PUSH1 0x20 DUP3 LT DUP2 EQ ISZERO PUSH3 0x846 JUMPI PUSH4 0x4E487B71 PUSH1 0xE0 SHL PUSH1 0x0 MSTORE PUSH1 0x22 PUSH1 0x4 MSTORE PUSH1 0x24 PUSH1 0x0 REVERT JUMPDEST POP SWAP2 SWAP1 POP JUMP JUMPDEST PUSH1 0x0 DUP3 PUSH3 0x85E JUMPI PUSH3 0x85E PUSH3 0x879 JUMP JUMPDEST POP MOD SWAP1 JUMP JUMPDEST PUSH4 0x4E487B71 PUSH1 0xE0 SHL PUSH1 0x0 MSTORE PUSH1 0x11 PUSH1 0x4 MSTORE PUSH1 0x24 PUSH1 0x0 REVERT JUMPDEST PUSH4 0x4E487B71 PUSH1 0xE0 SHL PUSH1 0x0 MSTORE PUSH1 0x12 PUSH1 0x4 MSTORE PUSH1 0x24 PUSH1 0x0 REVERT JUMPDEST PUSH4 0x4E487B71 PUSH1 0xE0 SHL PUSH1 0x0 MSTORE PUSH1 0x41 PUSH1 0x4 MSTORE PUSH1 0x24 PUSH1 0x0 REVERT JUMPDEST PUSH2 0x2BC5 DUP1 PUSH3 0x8B5 PUSH1 0x0 CODECOPY PUSH1 0x0 RETURN INVALID PUSH1 0x80 PUSH1 0x40 MSTORE PUSH1 0x4 CALLDATASIZE LT PUSH2 0x276 JUMPI PUSH1 0x0 CALLDATALOAD PUSH1 0xE0 SHR DUP1 PUSH4 0x6BC87C3A GT PUSH2 0x14F JUMPI DUP1 PUSH4 0xA9059CBB GT PUSH2 0xC1 JUMPI DUP1 PUSH4 0xD543DBEB GT PUSH2 0x7A JUMPI DUP1 PUSH4 0xD543DBEB EQ PUSH2 0x754 JUMPI DUP1 PUSH4 0xDD467064 EQ PUSH2 0x774 JUMPI DUP1 PUSH4 0xDD62ED3E EQ PUSH2 0x794 JUMPI DUP1 PUSH4 0xEA2F0B37 EQ PUSH2 0x7DA JUMPI DUP1 PUSH4 0xF0F165AF EQ PUSH2 0x7FA JUMPI DUP1 PUSH4 0xF2FDE38B EQ PUSH2 0x81A JUMPI PUSH1 0x0 DUP1 REVERT JUMPDEST DUP1 PUSH4 0xA9059CBB EQ PUSH2 0x6A8 JUMPI DUP1 PUSH4 0xAA45026B EQ PUSH2 0x6C8 JUMPI DUP1 PUSH4 0xB2BDFA7B EQ PUSH2 0x6DE JUMPI DUP1 PUSH4 0xB425BAC3 EQ PUSH2 0x6FE JUMPI DUP1 PUSH4 0xC49B9A80 EQ PUSH2 0x71E JUMPI DUP1 PUSH4 0xD12A7688 EQ PUSH2 0x73E JUMPI PUSH1 0x0 DUP1 REVERT JUMPDEST DUP1 PUSH4 0x88F82020 GT PUSH2 0x113 JUMPI DUP1 PUSH4 0x88F82020 EQ PUSH2 0x5E7 JUMPI DUP1 PUSH4 0x8DA5CB5B EQ PUSH2 0x620 JUMPI DUP1 PUSH4 0x8EE88C53 EQ PUSH2 0x63E JUMPI DUP1 PUSH4 0x95D89B41 EQ PUSH2 0x65E JUMPI DUP1 PUSH4 0xA457C2D7 EQ PUSH2 0x673 JUMPI DUP1 PUSH4 0xA69DF4B5 EQ PUSH2 0x693 JUMPI PUSH1 0x0 DUP1 REVERT JUMPDEST DUP1 PUSH4 0x6BC87C3A EQ PUSH2 0x570 JUMPI DUP1 PUSH4 0x70A08231 EQ PUSH2 0x586 JUMPI DUP1 PUSH4 0x715018A6 EQ PUSH2 0x5A6 JUMPI DUP1 PUSH4 0x79AF25A6 EQ PUSH2 0x5BB JUMPI DUP1 PUSH4 0x7D1DB4A5 EQ PUSH2 0x5D1 JUMPI PUSH1 0x0 DUP1 REVERT JUMPDEST DUP1 PUSH4 0x379E2919 GT PUSH2 0x1E8 JUMPI DUP1 PUSH4 0x437823EC GT PUSH2 0x1AC JUMPI DUP1 PUSH4 0x437823EC EQ PUSH2 0x496 JUMPI DUP1 PUSH4 0x4549B039 EQ PUSH2 0x4B6 JUMPI DUP1 PUSH4 0x49BD5A5E EQ PUSH2 0x4D6 JUMPI DUP1 PUSH4 0x4A74BB02 EQ PUSH2 0x4F6 JUMPI DUP1 PUSH4 0x52390C02 EQ PUSH2 0x517 JUMPI DUP1 PUSH4 0x5342ACB4 EQ PUSH2 0x537 JUMPI PUSH1 0x0 DUP1 REVERT JUMPDEST DUP1 PUSH4 0x379E2919 EQ PUSH2 0x400 JUMPI DUP1 PUSH4 0x39509351 EQ PUSH2 0x420 JUMPI DUP1 PUSH4 0x3B124FE7 EQ PUSH2 0x440 JUMPI DUP1 PUSH4 0x3BD5D173 EQ PUSH2 0x456 JUMPI DUP1 PUSH4 0x41CB87FC EQ PUSH2 0x476 JUMPI PUSH1 0x0 DUP1 REVERT JUMPDEST DUP1 PUSH4 0x1694505E GT PUSH2 0x23A JUMPI DUP1 PUSH4 0x1694505E EQ PUSH2 0x33E JUMPI DUP1 PUSH4 0x18160DDD EQ PUSH2 0x376 JUMPI DUP1 PUSH4 0x23B872DD EQ PUSH2 0x38B JUMPI DUP1 PUSH4 0x2D838119 EQ PUSH2 0x3AB JUMPI DUP1 PUSH4 0x313CE567 EQ PUSH2 0x3CB JUMPI DUP1 PUSH4 0x3685D419 EQ PUSH2 0x3E0 JUMPI PUSH1 0x0 DUP1 REVERT JUMPDEST DUP1 PUSH4 0x61C82D0 EQ PUSH2 0x282 JUMPI DUP1 PUSH4 0x6FDDE03 EQ PUSH2 0x2A4 JUMPI DUP1 PUSH4 0x95EA7B3 EQ PUSH2 0x2CF JUMPI DUP1 PUSH4 0x120A0612 EQ PUSH2 0x2FF JUMPI DUP1 PUSH4 0x13114A9D EQ PUSH2 0x31F JUMPI PUSH1 0x0 DUP1 REVERT JUMPDEST CALLDATASIZE PUSH2 0x27D JUMPI STOP JUMPDEST PUSH1 0x0 DUP1 REVERT JUMPDEST CALLVALUE DUP1 ISZERO PUSH2 0x28E JUMPI PUSH1 0x0 DUP1 REVERT JUMPDEST POP PUSH2 0x2A2 PUSH2 0x29D CALLDATASIZE PUSH1 0x4 PUSH2 0x27DD JUMP JUMPDEST PUSH2 0x83A JUMP JUMPDEST STOP JUMPDEST CALLVALUE DUP1 ISZERO PUSH2 0x2B0 JUMPI PUSH1 0x0 DUP1 REVERT JUMPDEST POP PUSH2 0x2B9 PUSH2 0x872 JUMP JUMPDEST PUSH1 0x40 MLOAD PUSH2 0x2C6 SWAP2 SWAP1 PUSH2 0x284D JUMP JUMPDEST PUSH1 0x40 MLOAD DUP1 SWAP2 SUB SWAP1 RETURN JUMPDEST CALLVALUE DUP1 ISZERO PUSH2 0x2DB JUMPI PUSH1 0x0 DUP1 REVERT JUMPDEST POP PUSH2 0x2EF PUSH2 0x2EA CALLDATASIZE PUSH1 0x4 PUSH2 0x2798 JUMP JUMPDEST PUSH2 0x904 JUMP JUMPDEST PUSH1 0x40 MLOAD SWAP1 ISZERO ISZERO DUP2 MSTORE PUSH1 0x20 ADD PUSH2 0x2C6 JUMP JUMPDEST CALLVALUE DUP1 ISZERO PUSH2 0x30B JUMPI PUSH1 0x0 DUP1 REVERT JUMPDEST POP PUSH2 0x2A2 PUSH2 0x31A CALLDATASIZE PUSH1 0x4 PUSH2 0x26E8 JUMP JUMPDEST PUSH2 0x91B JUMP JUMPDEST CALLVALUE DUP1 ISZERO PUSH2 0x32B JUMPI PUSH1 0x0 DUP1 REVERT JUMPDEST POP PUSH1 0xC SLOAD JUMPDEST PUSH1 0x40 MLOAD SWAP1 DUP2 MSTORE PUSH1 0x20 ADD PUSH2 0x2C6 JUMP JUMPDEST CALLVALUE DUP1 ISZERO PUSH2 0x34A JUMPI PUSH1 0x0 DUP1 REVERT JUMPDEST POP PUSH1 0x16 SLOAD PUSH2 0x35E SWAP1 PUSH1 0x1 PUSH1 0x1 PUSH1 0xA0 SHL SUB AND DUP2 JUMP JUMPDEST PUSH1 0x40 MLOAD PUSH1 0x1 PUSH1 0x1 PUSH1 0xA0 SHL SUB SWAP1 SWAP2 AND DUP2 MSTORE PUSH1 0x20 ADD PUSH2 0x2C6 JUMP JUMPDEST CALLVALUE DUP1 ISZERO PUSH2 0x382 JUMPI PUSH1 0x0 DUP1 REVERT JUMPDEST POP PUSH1 0xA SLOAD PUSH2 0x330 JUMP JUMPDEST CALLVALUE DUP1 ISZERO PUSH2 0x397 JUMPI PUSH1 0x0 DUP1 REVERT JUMPDEST POP PUSH2 0x2EF PUSH2 0x3A6 CALLDATASIZE PUSH1 0x4 PUSH2 0x2758 JUMP JUMPDEST PUSH2 0x967 JUMP JUMPDEST CALLVALUE DUP1 ISZERO PUSH2 0x3B7 JUMPI PUSH1 0x0 DUP1 REVERT JUMPDEST POP PUSH2 0x330 PUSH2 0x3C6 CALLDATASIZE PUSH1 0x4 PUSH2 0x27DD JUMP JUMPDEST PUSH2 0x9D0 JUMP JUMPDEST CALLVALUE DUP1 ISZERO PUSH2 0x3D7 JUMPI PUSH1 0x0 DUP1 REVERT JUMPDEST POP PUSH1 0xF SLOAD PUSH2 0x330 JUMP JUMPDEST CALLVALUE DUP1 ISZERO PUSH2 0x3EC JUMPI PUSH1 0x0 DUP1 REVERT JUMPDEST POP PUSH2 0x2A2 PUSH2 0x3FB CALLDATASIZE PUSH1 0x4 PUSH2 0x26E8 JUMP JUMPDEST PUSH2 0xA54 JUMP JUMPDEST CALLVALUE DUP1 ISZERO PUSH2 0x40C JUMPI PUSH1 0x0 DUP1 REVERT JUMPDEST POP PUSH2 0x2A2 PUSH2 0x41B CALLDATASIZE PUSH1 0x4 PUSH2 0x27DD JUMP JUMPDEST PUSH2 0xC43 JUMP JUMPDEST CALLVALUE DUP1 ISZERO PUSH2 0x42C JUMPI PUSH1 0x0 DUP1 REVERT JUMPDEST POP PUSH2 0x2EF PUSH2 0x43B CALLDATASIZE PUSH1 0x4 PUSH2 0x2798 JUMP JUMPDEST PUSH2 0xC72 JUMP JUMPDEST CALLVALUE DUP1 ISZERO PUSH2 0x44C JUMPI PUSH1 0x0 DUP1 REVERT JUMPDEST POP PUSH2 0x330 PUSH1 0x10 SLOAD DUP2 JUMP JUMPDEST CALLVALUE DUP1 ISZERO PUSH2 0x462 JUMPI PUSH1 0x0 DUP1 REVERT JUMPDEST POP PUSH2 0x2A2 PUSH2 0x471 CALLDATASIZE PUSH1 0x4 PUSH2 0x27DD JUMP JUMPDEST PUSH2 0xCA8 JUMP JUMPDEST CALLVALUE DUP1 ISZERO PUSH2 0x482 JUMPI PUSH1 0x0 DUP1 REVERT JUMPDEST POP PUSH2 0x2A2 PUSH2 0x491 CALLDATASIZE PUSH1 0x4 PUSH2 0x26E8 JUMP JUMPDEST PUSH2 0xD94 JUMP JUMPDEST CALLVALUE DUP1 ISZERO PUSH2 0x4A2 JUMPI PUSH1 0x0 DUP1 REVERT JUMPDEST POP PUSH2 0x2A2 PUSH2 0x4B1 CALLDATASIZE PUSH1 0x4 PUSH2 0x26E8 JUMP JUMPDEST PUSH2 0xF66 JUMP JUMPDEST CALLVALUE DUP1 ISZERO PUSH2 0x4C2 JUMPI PUSH1 0x0 DUP1 REVERT JUMPDEST POP PUSH2 0x330 PUSH2 0x4D1 CALLDATASIZE PUSH1 0x4 PUSH2 0x27F5 JUMP JUMPDEST PUSH2 0xFB4 JUMP JUMPDEST CALLVALUE DUP1 ISZERO PUSH2 0x4E2 JUMPI PUSH1 0x0 DUP1 REVERT JUMPDEST POP PUSH1 0x17 SLOAD PUSH2 0x35E SWAP1 PUSH1 0x1 PUSH1 0x1 PUSH1 0xA0 SHL SUB AND DUP2 JUMP JUMPDEST CALLVALUE DUP1 ISZERO PUSH2 0x502 JUMPI PUSH1 0x0 DUP1 REVERT JUMPDEST POP PUSH1 0x17 SLOAD PUSH2 0x2EF SWAP1 PUSH1 0x1 PUSH1 0xA8 SHL SWAP1 DIV PUSH1 0xFF AND DUP2 JUMP JUMPDEST CALLVALUE DUP1 ISZERO PUSH2 0x523 JUMPI PUSH1 0x0 DUP1 REVERT JUMPDEST POP PUSH2 0x2A2 PUSH2 0x532 CALLDATASIZE PUSH1 0x4 PUSH2 0x26E8 JUMP JUMPDEST PUSH2 0x1043 JUMP JUMPDEST CALLVALUE DUP1 ISZERO PUSH2 0x543 JUMPI PUSH1 0x0 DUP1 REVERT JUMPDEST POP PUSH2 0x2EF PUSH2 0x552 CALLDATASIZE PUSH1 0x4 PUSH2 0x26E8 JUMP JUMPDEST PUSH1 0x1 PUSH1 0x1 PUSH1 0xA0 SHL SUB AND PUSH1 0x0 SWAP1 DUP2 MSTORE PUSH1 0x6 PUSH1 0x20 MSTORE PUSH1 0x40 SWAP1 KECCAK256 SLOAD PUSH1 0xFF AND SWAP1 JUMP JUMPDEST CALLVALUE DUP1 ISZERO PUSH2 0x57C JUMPI PUSH1 0x0 DUP1 REVERT JUMPDEST POP PUSH2 0x330 PUSH1 0x14 SLOAD DUP2 JUMP JUMPDEST CALLVALUE DUP1 ISZERO PUSH2 0x592 JUMPI PUSH1 0x0 DUP1 REVERT JUMPDEST POP PUSH2 0x330 PUSH2 0x5A1 CALLDATASIZE PUSH1 0x4 PUSH2 0x26E8 JUMP JUMPDEST PUSH2 0x1196 JUMP JUMPDEST CALLVALUE DUP1 ISZERO PUSH2 0x5B2 JUMPI PUSH1 0x0 DUP1 REVERT JUMPDEST POP PUSH2 0x2A2 PUSH2 0x11F5 JUMP JUMPDEST CALLVALUE DUP1 ISZERO PUSH2 0x5C7 JUMPI PUSH1 0x0 DUP1 REVERT JUMPDEST POP PUSH2 0x330 PUSH1 0x2 SLOAD DUP2 JUMP JUMPDEST CALLVALUE DUP1 ISZERO PUSH2 0x5DD JUMPI PUSH1 0x0 DUP1 REVERT JUMPDEST POP PUSH2 0x330 PUSH1 0x18 SLOAD DUP2 JUMP JUMPDEST CALLVALUE DUP1 ISZERO PUSH2 0x5F3 JUMPI PUSH1 0x0 DUP1 REVERT JUMPDEST POP PUSH2 0x2EF PUSH2 0x602 CALLDATASIZE PUSH1 0x4 PUSH2 0x26E8 JUMP JUMPDEST PUSH1 0x1 PUSH1 0x1 PUSH1 0xA0 SHL SUB AND PUSH1 0x0 SWAP1 DUP2 MSTORE PUSH1 0x7 PUSH1 0x20 MSTORE PUSH1 0x40 SWAP1 KECCAK256 SLOAD PUSH1 0xFF AND SWAP1 JUMP JUMPDEST CALLVALUE DUP1 ISZERO PUSH2 0x62C JUMPI PUSH1 0x0 DUP1 REVERT JUMPDEST POP PUSH1 0x0 SLOAD PUSH1 0x1 PUSH1 0x1 PUSH1 0xA0 SHL SUB AND PUSH2 0x35E JUMP JUMPDEST CALLVALUE DUP1 ISZERO PUSH2 0x64A JUMPI PUSH1 0x0 DUP1 REVERT JUMPDEST POP PUSH2 0x2A2 PUSH2 0x659 CALLDATASIZE PUSH1 0x4 PUSH2 0x27DD JUMP JUMPDEST PUSH2 0x1257 JUMP JUMPDEST CALLVALUE DUP1 ISZERO PUSH2 0x66A JUMPI PUSH1 0x0 DUP1 REVERT JUMPDEST POP PUSH2 0x2B9 PUSH2 0x1286 JUMP JUMPDEST CALLVALUE DUP1 ISZERO PUSH2 0x67F JUMPI PUSH1 0x0 DUP1 REVERT JUMPDEST POP PUSH2 0x2EF PUSH2 0x68E CALLDATASIZE PUSH1 0x4 PUSH2 0x2798 JUMP JUMPDEST PUSH2 0x1295 JUMP JUMPDEST CALLVALUE DUP1 ISZERO PUSH2 0x69F JUMPI PUSH1 0x0 DUP1 REVERT JUMPDEST POP PUSH2 0x2A2 PUSH2 0x12E4 JUMP JUMPDEST CALLVALUE DUP1 ISZERO PUSH2 0x6B4 JUMPI PUSH1 0x0 DUP1 REVERT JUMPDEST POP PUSH2 0x2EF PUSH2 0x6C3 CALLDATASIZE PUSH1 0x4 PUSH2 0x2798 JUMP JUMPDEST PUSH2 0x13E0 JUMP JUMPDEST CALLVALUE DUP1 ISZERO PUSH2 0x6D4 JUMPI PUSH1 0x0 DUP1 REVERT JUMPDEST POP PUSH2 0x330 PUSH1 0x12 SLOAD DUP2 JUMP JUMPDEST CALLVALUE DUP1 ISZERO PUSH2 0x6EA JUMPI PUSH1 0x0 DUP1 REVERT JUMPDEST POP PUSH1 0x0 SLOAD PUSH2 0x35E SWAP1 PUSH1 0x1 PUSH1 0x1 PUSH1 0xA0 SHL SUB AND DUP2 JUMP JUMPDEST CALLVALUE DUP1 ISZERO PUSH2 0x70A JUMPI PUSH1 0x0 DUP1 REVERT JUMPDEST POP PUSH1 0x9 SLOAD PUSH2 0x35E SWAP1 PUSH1 0x1 PUSH1 0x1 PUSH1 0xA0 SHL SUB AND DUP2 JUMP JUMPDEST CALLVALUE DUP1 ISZERO PUSH2 0x72A JUMPI PUSH1 0x0 DUP1 REVERT JUMPDEST POP PUSH2 0x2A2 PUSH2 0x739 CALLDATASIZE PUSH1 0x4 PUSH2 0x27C3 JUMP JUMPDEST PUSH2 0x13ED JUMP JUMPDEST CALLVALUE DUP1 ISZERO PUSH2 0x74A JUMPI PUSH1 0x0 DUP1 REVERT JUMPDEST POP PUSH2 0x330 PUSH1 0x19 SLOAD DUP2 JUMP JUMPDEST CALLVALUE DUP1 ISZERO PUSH2 0x760 JUMPI PUSH1 0x0 DUP1 REVERT JUMPDEST POP PUSH2 0x2A2 PUSH2 0x76F CALLDATASIZE PUSH1 0x4 PUSH2 0x27DD JUMP JUMPDEST PUSH2 0x146F JUMP JUMPDEST CALLVALUE DUP1 ISZERO PUSH2 0x780 JUMPI PUSH1 0x0 DUP1 REVERT JUMPDEST POP PUSH2 0x2A2 PUSH2 0x78F CALLDATASIZE PUSH1 0x4 PUSH2 0x27DD JUMP JUMPDEST PUSH2 0x14B7 JUMP JUMPDEST CALLVALUE DUP1 ISZERO PUSH2 0x7A0 JUMPI PUSH1 0x0 DUP1 REVERT JUMPDEST POP PUSH2 0x330 PUSH2 0x7AF CALLDATASIZE PUSH1 0x4 PUSH2 0x2720 JUMP JUMPDEST PUSH1 0x1 PUSH1 0x1 PUSH1 0xA0 SHL SUB SWAP2 DUP3 AND PUSH1 0x0 SWAP1 DUP2 MSTORE PUSH1 0x5 PUSH1 0x20 SWAP1 DUP2 MSTORE PUSH1 0x40 DUP1 DUP4 KECCAK256 SWAP4 SWAP1 SWAP5 AND DUP3 MSTORE SWAP2 SWAP1 SWAP2 MSTORE KECCAK256 SLOAD SWAP1 JUMP JUMPDEST CALLVALUE DUP1 ISZERO PUSH2 0x7E6 JUMPI PUSH1 0x0 DUP1 REVERT JUMPDEST POP PUSH2 0x2A2 PUSH2 0x7F5 CALLDATASIZE PUSH1 0x4 PUSH2 0x26E8 JUMP JUMPDEST PUSH2 0x1526 JUMP JUMPDEST CALLVALUE DUP1 ISZERO PUSH2 0x806 JUMPI PUSH1 0x0 DUP1 REVERT JUMPDEST POP PUSH2 0x2A2 PUSH2 0x815 CALLDATASIZE PUSH1 0x4 PUSH2 0x27DD JUMP JUMPDEST PUSH2 0x1571 JUMP JUMPDEST CALLVALUE DUP1 ISZERO PUSH2 0x826 JUMPI PUSH1 0x0 DUP1 REVERT JUMPDEST POP PUSH2 0x2A2 PUSH2 0x835 CALLDATASIZE PUSH1 0x4 PUSH2 0x26E8 JUMP JUMPDEST PUSH2 0x15A0 JUMP JUMPDEST PUSH1 0x0 SLOAD PUSH1 0x1 PUSH1 0x1 PUSH1 0xA0 SHL SUB AND CALLER EQ PUSH2 0x86D JUMPI PUSH1 0x40 MLOAD PUSH3 0x461BCD PUSH1 0xE5 SHL DUP2 MSTORE PUSH1 0x4 ADD PUSH2 0x864 SWAP1 PUSH2 0x28A0 JUMP JUMPDEST PUSH1 0x40 MLOAD DUP1 SWAP2 SUB SWAP1 REVERT JUMPDEST PUSH1 0x10 SSTORE JUMP JUMPDEST PUSH1 0x60 PUSH1 0xD DUP1 SLOAD PUSH2 0x881 SWAP1 PUSH2 0x2A9E JUMP JUMPDEST DUP1 PUSH1 0x1F ADD PUSH1 0x20 DUP1 SWAP2 DIV MUL PUSH1 0x20 ADD PUSH1 0x40 MLOAD SWAP1 DUP2 ADD PUSH1 0x40 MSTORE DUP1 SWAP3 SWAP2 SWAP1 DUP2 DUP2 MSTORE PUSH1 0x20 ADD DUP3 DUP1 SLOAD PUSH2 0x8AD SWAP1 PUSH2 0x2A9E JUMP JUMPDEST DUP1 ISZERO PUSH2 0x8FA JUMPI DUP1 PUSH1 0x1F LT PUSH2 0x8CF JUMPI PUSH2 0x100 DUP1 DUP4 SLOAD DIV MUL DUP4 MSTORE SWAP2 PUSH1 0x20 ADD SWAP2 PUSH2 0x8FA JUMP JUMPDEST DUP3 ADD SWAP2 SWAP1 PUSH1 0x0 MSTORE PUSH1 0x20 PUSH1 0x0 KECCAK256 SWAP1 JUMPDEST DUP2 SLOAD DUP2 MSTORE SWAP1 PUSH1 0x1 ADD SWAP1 PUSH1 0x20 ADD DUP1 DUP4 GT PUSH2 0x8DD JUMPI DUP3 SWAP1 SUB PUSH1 0x1F AND DUP3 ADD SWAP2 JUMPDEST POP POP POP POP POP SWAP1 POP SWAP1 JUMP JUMPDEST PUSH1 0x0 PUSH2 0x911 CALLER DUP5 DUP5 PUSH2 0x1678 JUMP JUMPDEST POP PUSH1 0x1 JUMPDEST SWAP3 SWAP2 POP POP JUMP JUMPDEST PUSH1 0x0 SLOAD PUSH1 0x1 PUSH1 0x1 PUSH1 0xA0 SHL SUB AND CALLER EQ PUSH2 0x945 JUMPI PUSH1 0x40 MLOAD PUSH3 0x461BCD PUSH1 0xE5 SHL DUP2 MSTORE PUSH1 0x4 ADD PUSH2 0x864 SWAP1 PUSH2 0x28A0 JUMP JUMPDEST PUSH1 0x9 DUP1 SLOAD PUSH1 0x1 PUSH1 0x1 PUSH1 0xA0 SHL SUB NOT AND PUSH1 0x1 PUSH1 0x1 PUSH1 0xA0 SHL SUB SWAP3 SWAP1 SWAP3 AND SWAP2 SWAP1 SWAP2 OR SWAP1 SSTORE JUMP JUMPDEST PUSH1 0x0 PUSH2 0x974 DUP5 DUP5 DUP5 PUSH2 0x179C JUMP JUMPDEST PUSH2 0x9C6 DUP5 CALLER PUSH2 0x9C1 DUP6 PUSH1 0x40 MLOAD DUP1 PUSH1 0x60 ADD PUSH1 0x40 MSTORE DUP1 PUSH1 0x28 DUP2 MSTORE PUSH1 0x20 ADD PUSH2 0x2B23 PUSH1 0x28 SWAP2 CODECOPY PUSH1 0x1 PUSH1 0x1 PUSH1 0xA0 SHL SUB DUP11 AND PUSH1 0x0 SWAP1 DUP2 MSTORE PUSH1 0x5 PUSH1 0x20 SWAP1 DUP2 MSTORE PUSH1 0x40 DUP1 DUP4 KECCAK256 CALLER DUP5 MSTORE SWAP1 SWAP2 MSTORE SWAP1 KECCAK256 SLOAD SWAP2 SWAP1 PUSH2 0x1A32 JUMP JUMPDEST PUSH2 0x1678 JUMP JUMPDEST POP PUSH1 0x1 SWAP4 SWAP3 POP POP POP JUMP JUMPDEST PUSH1 0x0 PUSH1 0xB SLOAD DUP3 GT ISZERO PUSH2 0xA37 JUMPI PUSH1 0x40 MLOAD PUSH3 0x461BCD PUSH1 0xE5 SHL DUP2 MSTORE PUSH1 0x20 PUSH1 0x4 DUP3 ADD MSTORE PUSH1 0x2A PUSH1 0x24 DUP3 ADD MSTORE PUSH32 0x416D6F756E74206D757374206265206C657373207468616E20746F74616C2072 PUSH1 0x44 DUP3 ADD MSTORE PUSH10 0x65666C656374696F6E73 PUSH1 0xB0 SHL PUSH1 0x64 DUP3 ADD MSTORE PUSH1 0x84 ADD PUSH2 0x864 JUMP JUMPDEST PUSH1 0x0 PUSH2 0xA41 PUSH2 0x1A5E JUMP JUMPDEST SWAP1 POP PUSH2 0xA4D DUP4 DUP3 PUSH2 0x1A81 JUMP JUMPDEST SWAP4 SWAP3 POP POP POP JUMP JUMPDEST PUSH1 0x0 SLOAD PUSH1 0x1 PUSH1 0x1 PUSH1 0xA0 SHL SUB AND CALLER EQ PUSH2 0xA7E JUMPI PUSH1 0x40 MLOAD PUSH3 0x461BCD PUSH1 0xE5 SHL DUP2 MSTORE PUSH1 0x4 ADD PUSH2 0x864 SWAP1 PUSH2 0x28A0 JUMP JUMPDEST PUSH1 0x1 PUSH1 0x1 PUSH1 0xA0 SHL SUB DUP2 AND PUSH1 0x0 SWAP1 DUP2 MSTORE PUSH1 0x7 PUSH1 0x20 MSTORE PUSH1 0x40 SWAP1 KECCAK256 SLOAD PUSH1 0xFF AND PUSH2 0xAE6 JUMPI PUSH1 0x40 MLOAD PUSH3 0x461BCD PUSH1 0xE5 SHL DUP2 MSTORE PUSH1 0x20 PUSH1 0x4 DUP3 ADD MSTORE PUSH1 0x1B PUSH1 0x24 DUP3 ADD MSTORE PUSH32 0x4163636F756E7420697320616C726561647920696E636C756465640000000000 PUSH1 0x44 DUP3 ADD MSTORE PUSH1 0x64 ADD PUSH2 0x864 JUMP JUMPDEST PUSH1 0x0 JUMPDEST PUSH1 0x8 SLOAD DUP2 LT ISZERO PUSH2 0xC3F JUMPI DUP2 PUSH1 0x1 PUSH1 0x1 PUSH1 0xA0 SHL SUB AND PUSH1 0x8 DUP3 DUP2 SLOAD DUP2 LT PUSH2 0xB1E JUMPI PUSH4 0x4E487B71 PUSH1 0xE0 SHL PUSH1 0x0 MSTORE PUSH1 0x32 PUSH1 0x4 MSTORE PUSH1 0x24 PUSH1 0x0 REVERT JUMPDEST PUSH1 0x0 SWAP2 DUP3 MSTORE PUSH1 0x20 SWAP1 SWAP2 KECCAK256 ADD SLOAD PUSH1 0x1 PUSH1 0x1 PUSH1 0xA0 SHL SUB AND EQ ISZERO PUSH2 0xC2D JUMPI PUSH1 0x8 DUP1 SLOAD PUSH2 0xB49 SWAP1 PUSH1 0x1 SWAP1 PUSH2 0x2A87 JUMP JUMPDEST DUP2 SLOAD DUP2 LT PUSH2 0xB67 JUMPI PUSH4 0x4E487B71 PUSH1 0xE0 SHL PUSH1 0x0 MSTORE PUSH1 0x32 PUSH1 0x4 MSTORE PUSH1 0x24 PUSH1 0x0 REVERT JUMPDEST PUSH1 0x0 SWAP2 DUP3 MSTORE PUSH1 0x20 SWAP1 SWAP2 KECCAK256 ADD SLOAD PUSH1 0x8 DUP1 SLOAD PUSH1 0x1 PUSH1 0x1 PUSH1 0xA0 SHL SUB SWAP1 SWAP3 AND SWAP2 DUP4 SWAP1 DUP2 LT PUSH2 0xBA1 JUMPI PUSH4 0x4E487B71 PUSH1 0xE0 SHL PUSH1 0x0 MSTORE PUSH1 0x32 PUSH1 0x4 MSTORE PUSH1 0x24 PUSH1 0x0 REVERT JUMPDEST PUSH1 0x0 SWAP2 DUP3 MSTORE PUSH1 0x20 DUP1 DUP4 KECCAK256 SWAP2 SWAP1 SWAP2 ADD DUP1 SLOAD PUSH1 0x1 PUSH1 0x1 PUSH1 0xA0 SHL SUB NOT AND PUSH1 0x1 PUSH1 0x1 PUSH1 0xA0 SHL SUB SWAP5 DUP6 AND OR SWAP1 SSTORE SWAP2 DUP5 AND DUP2 MSTORE PUSH1 0x4 DUP3 MSTORE PUSH1 0x40 DUP1 DUP3 KECCAK256 DUP3 SWAP1 SSTORE PUSH1 0x7 SWAP1 SWAP3 MSTORE KECCAK256 DUP1 SLOAD PUSH1 0xFF NOT AND SWAP1 SSTORE PUSH1 0x8 DUP1 SLOAD DUP1 PUSH2 0xC07 JUMPI PUSH4 0x4E487B71 PUSH1 0xE0 SHL PUSH1 0x0 MSTORE PUSH1 0x31 PUSH1 0x4 MSTORE PUSH1 0x24 PUSH1 0x0 REVERT JUMPDEST PUSH1 0x0 DUP3 DUP2 MSTORE PUSH1 0x20 SWAP1 KECCAK256 DUP2 ADD PUSH1 0x0 NOT SWAP1 DUP2 ADD DUP1 SLOAD PUSH1 0x1 PUSH1 0x1 PUSH1 0xA0 SHL SUB NOT AND SWAP1 SSTORE ADD SWAP1 SSTORE POP POP JUMP JUMPDEST DUP1 PUSH2 0xC37 DUP2 PUSH2 0x2AD9 JUMP JUMPDEST SWAP2 POP POP PUSH2 0xAE9 JUMP JUMPDEST POP POP JUMP JUMPDEST PUSH1 0x0 SLOAD PUSH1 0x1 PUSH1 0x1 PUSH1 0xA0 SHL SUB AND CALLER EQ PUSH2 0xC6D JUMPI PUSH1 0x40 MLOAD PUSH3 0x461BCD PUSH1 0xE5 SHL DUP2 MSTORE PUSH1 0x4 ADD PUSH2 0x864 SWAP1 PUSH2 0x28A0 JUMP JUMPDEST PUSH1 0x12 SSTORE JUMP JUMPDEST CALLER PUSH1 0x0 DUP2 DUP2 MSTORE PUSH1 0x5 PUSH1 0x20 SWAP1 DUP2 MSTORE PUSH1 0x40 DUP1 DUP4 KECCAK256 PUSH1 0x1 PUSH1 0x1 PUSH1 0xA0 SHL SUB DUP8 AND DUP5 MSTORE SWAP1 SWAP2 MSTORE DUP2 KECCAK256 SLOAD SWAP1 SWAP2 PUSH2 0x911 SWAP2 DUP6 SWAP1 PUSH2 0x9C1 SWAP1 DUP7 PUSH2 0x1A8D JUMP JUMPDEST CALLER PUSH1 0x0 DUP2 DUP2 MSTORE PUSH1 0x7 PUSH1 0x20 MSTORE PUSH1 0x40 SWAP1 KECCAK256 SLOAD PUSH1 0xFF AND ISZERO PUSH2 0xD1D JUMPI PUSH1 0x40 MLOAD PUSH3 0x461BCD PUSH1 0xE5 SHL DUP2 MSTORE PUSH1 0x20 PUSH1 0x4 DUP3 ADD MSTORE PUSH1 0x2C PUSH1 0x24 DUP3 ADD MSTORE PUSH32 0x4578636C75646564206164647265737365732063616E6E6F742063616C6C2074 PUSH1 0x44 DUP3 ADD MSTORE PUSH12 0x3434B990333AB731BA34B7B7 PUSH1 0xA1 SHL PUSH1 0x64 DUP3 ADD MSTORE PUSH1 0x84 ADD PUSH2 0x864 JUMP JUMPDEST PUSH1 0x0 PUSH2 0xD28 DUP4 PUSH2 0x1A99 JUMP JUMPDEST POP POP POP PUSH1 0x1 PUSH1 0x1 PUSH1 0xA0 SHL SUB DUP7 AND PUSH1 0x0 SWAP1 DUP2 MSTORE PUSH1 0x3 PUSH1 0x20 MSTORE PUSH1 0x40 SWAP1 KECCAK256 SLOAD SWAP4 SWAP5 POP PUSH2 0xD56 SWAP4 SWAP3 POP DUP5 SWAP2 POP POP PUSH2 0x1AF4 JUMP JUMPDEST PUSH1 0x1 PUSH1 0x1 PUSH1 0xA0 SHL SUB DUP4 AND PUSH1 0x0 SWAP1 DUP2 MSTORE PUSH1 0x3 PUSH1 0x20 MSTORE PUSH1 0x40 SWAP1 KECCAK256 SSTORE PUSH1 0xB SLOAD PUSH2 0xD7C SWAP1 DUP3 PUSH2 0x1AF4 JUMP JUMPDEST PUSH1 0xB SSTORE PUSH1 0xC SLOAD PUSH2 0xD8C SWAP1 DUP5 PUSH2 0x1A8D JUMP JUMPDEST PUSH1 0xC SSTORE POP POP POP JUMP JUMPDEST PUSH1 0x0 SLOAD PUSH1 0x1 PUSH1 0x1 PUSH1 0xA0 SHL SUB AND CALLER EQ PUSH2 0xDBE JUMPI PUSH1 0x40 MLOAD PUSH3 0x461BCD PUSH1 0xE5 SHL DUP2 MSTORE PUSH1 0x4 ADD PUSH2 0x864 SWAP1 PUSH2 0x28A0 JUMP JUMPDEST PUSH1 0x0 DUP2 SWAP1 POP DUP1 PUSH1 0x1 PUSH1 0x1 PUSH1 0xA0 SHL SUB AND PUSH4 0xC45A0155 PUSH1 0x40 MLOAD DUP2 PUSH4 0xFFFFFFFF AND PUSH1 0xE0 SHL DUP2 MSTORE PUSH1 0x4 ADD PUSH1 0x20 PUSH1 0x40 MLOAD DUP1 DUP4 SUB DUP2 DUP7 DUP1 EXTCODESIZE ISZERO DUP1 ISZERO PUSH2 0xDFC JUMPI PUSH1 0x0 DUP1 REVERT JUMPDEST POP GAS STATICCALL ISZERO DUP1 ISZERO PUSH2 0xE10 JUMPI RETURNDATASIZE PUSH1 0x0 DUP1 RETURNDATACOPY RETURNDATASIZE PUSH1 0x0 REVERT JUMPDEST POP POP POP POP PUSH1 0x40 MLOAD RETURNDATASIZE PUSH1 0x1F NOT PUSH1 0x1F DUP3 ADD AND DUP3 ADD DUP1 PUSH1 0x40 MSTORE POP DUP2 ADD SWAP1 PUSH2 0xE34 SWAP2 SWAP1 PUSH2 0x2704 JUMP JUMPDEST PUSH1 0x1 PUSH1 0x1 PUSH1 0xA0 SHL SUB AND PUSH4 0xC9C65396 ADDRESS DUP4 PUSH1 0x1 PUSH1 0x1 PUSH1 0xA0 SHL SUB AND PUSH4 0xAD5C4648 PUSH1 0x40 MLOAD DUP2 PUSH4 0xFFFFFFFF AND PUSH1 0xE0 SHL DUP2 MSTORE PUSH1 0x4 ADD PUSH1 0x20 PUSH1 0x40 MLOAD DUP1 DUP4 SUB DUP2 DUP7 DUP1 EXTCODESIZE ISZERO DUP1 ISZERO PUSH2 0xE7C JUMPI PUSH1 0x0 DUP1 REVERT JUMPDEST POP GAS STATICCALL ISZERO DUP1 ISZERO PUSH2 0xE90 JUMPI RETURNDATASIZE PUSH1 0x0 DUP1 RETURNDATACOPY RETURNDATASIZE PUSH1 0x0 REVERT JUMPDEST POP POP POP POP PUSH1 0x40 MLOAD RETURNDATASIZE PUSH1 0x1F NOT PUSH1 0x1F DUP3 ADD AND DUP3 ADD DUP1 PUSH1 0x40 MSTORE POP DUP2 ADD SWAP1 PUSH2 0xEB4 SWAP2 SWAP1 PUSH2 0x2704 JUMP JUMPDEST PUSH1 0x40 MLOAD PUSH1 0x1 PUSH1 0x1 PUSH1 0xE0 SHL SUB NOT PUSH1 0xE0 DUP6 SWAP1 SHL AND DUP2 MSTORE PUSH1 0x1 PUSH1 0x1 PUSH1 0xA0 SHL SUB SWAP3 DUP4 AND PUSH1 0x4 DUP3 ADD MSTORE SWAP2 AND PUSH1 0x24 DUP3 ADD MSTORE PUSH1 0x44 ADD PUSH1 0x20 PUSH1 0x40 MLOAD DUP1 DUP4 SUB DUP2 PUSH1 0x0 DUP8 DUP1 EXTCODESIZE ISZERO DUP1 ISZERO PUSH2 0xEFC JUMPI PUSH1 0x0 DUP1 REVERT JUMPDEST POP GAS CALL ISZERO DUP1 ISZERO PUSH2 0xF10 JUMPI RETURNDATASIZE PUSH1 0x0 DUP1 RETURNDATACOPY RETURNDATASIZE PUSH1 0x0 REVERT JUMPDEST POP POP POP POP PUSH1 0x40 MLOAD RETURNDATASIZE PUSH1 0x1F NOT PUSH1 0x1F DUP3 ADD AND DUP3 ADD DUP1 PUSH1 0x40 MSTORE POP DUP2 ADD SWAP1 PUSH2 0xF34 SWAP2 SWAP1 PUSH2 0x2704 JUMP JUMPDEST PUSH1 0x17 DUP1 SLOAD PUSH1 0x1 PUSH1 0x1 PUSH1 0xA0 SHL SUB SWAP3 DUP4 AND PUSH1 0x1 PUSH1 0x1 PUSH1 0xA0 SHL SUB NOT SWAP2 DUP3 AND OR SWAP1 SWAP2 SSTORE PUSH1 0x16 DUP1 SLOAD SWAP4 SWAP1 SWAP3 AND SWAP3 AND SWAP2 SWAP1 SWAP2 OR SWAP1 SSTORE POP JUMP JUMPDEST PUSH1 0x0 SLOAD PUSH1 0x1 PUSH1 0x1 PUSH1 0xA0 SHL SUB AND CALLER EQ PUSH2 0xF90 JUMPI PUSH1 0x40 MLOAD PUSH3 0x461BCD PUSH1 0xE5 SHL DUP2 MSTORE PUSH1 0x4 ADD PUSH2 0x864 SWAP1 PUSH2 0x28A0 JUMP JUMPDEST PUSH1 0x1 PUSH1 0x1 PUSH1 0xA0 SHL SUB AND PUSH1 0x0 SWAP1 DUP2 MSTORE PUSH1 0x6 PUSH1 0x20 MSTORE PUSH1 0x40 SWAP1 KECCAK256 DUP1 SLOAD PUSH1 0xFF NOT AND PUSH1 0x1 OR SWAP1 SSTORE JUMP JUMPDEST PUSH1 0x0 PUSH1 0xA SLOAD DUP4 GT ISZERO PUSH2 0x1008 JUMPI PUSH1 0x40 MLOAD PUSH3 0x461BCD PUSH1 0xE5 SHL DUP2 MSTORE PUSH1 0x20 PUSH1 0x4 DUP3 ADD MSTORE PUSH1 0x1F PUSH1 0x24 DUP3 ADD MSTORE PUSH32 0x416D6F756E74206D757374206265206C657373207468616E20737570706C7900 PUSH1 0x44 DUP3 ADD MSTORE PUSH1 0x64 ADD PUSH2 0x864 JUMP JUMPDEST DUP2 PUSH2 0x1028 JUMPI PUSH1 0x0 PUSH2 0x1018 DUP5 PUSH2 0x1A99 JUMP JUMPDEST POP SWAP5 SWAP7 POP PUSH2 0x915 SWAP6 POP POP POP POP POP POP JUMP JUMPDEST PUSH1 0x0 PUSH2 0x1033 DUP5 PUSH2 0x1A99 JUMP JUMPDEST POP SWAP4 SWAP7 POP PUSH2 0x915 SWAP6 POP POP POP POP POP POP JUMP JUMPDEST PUSH1 0x0 SLOAD PUSH1 0x1 PUSH1 0x1 PUSH1 0xA0 SHL SUB AND CALLER EQ PUSH2 0x106D JUMPI PUSH1 0x40 MLOAD PUSH3 0x461BCD PUSH1 0xE5 SHL DUP2 MSTORE PUSH1 0x4 ADD PUSH2 0x864 SWAP1 PUSH2 0x28A0 JUMP JUMPDEST PUSH1 0x1 PUSH1 0x1 PUSH1 0xA0 SHL SUB DUP2 AND PUSH1 0x0 SWAP1 DUP2 MSTORE PUSH1 0x7 PUSH1 0x20 MSTORE PUSH1 0x40 SWAP1 KECCAK256 SLOAD PUSH1 0xFF AND ISZERO PUSH2 0x10D6 JUMPI PUSH1 0x40 MLOAD PUSH3 0x461BCD PUSH1 0xE5 SHL DUP2 MSTORE PUSH1 0x20 PUSH1 0x4 DUP3 ADD MSTORE PUSH1 0x1B PUSH1 0x24 DUP3 ADD MSTORE PUSH32 0x4163636F756E7420697320616C7265616479206578636C756465640000000000 PUSH1 0x44 DUP3 ADD MSTORE PUSH1 0x64 ADD PUSH2 0x864 JUMP JUMPDEST PUSH1 0x1 PUSH1 0x1 PUSH1 0xA0 SHL SUB DUP2 AND PUSH1 0x0 SWAP1 DUP2 MSTORE PUSH1 0x3 PUSH1 0x20 MSTORE PUSH1 0x40 SWAP1 KECCAK256 SLOAD ISZERO PUSH2 0x1130 JUMPI PUSH1 0x1 PUSH1 0x1 PUSH1 0xA0 SHL SUB DUP2 AND PUSH1 0x0 SWAP1 DUP2 MSTORE PUSH1 0x3 PUSH1 0x20 MSTORE PUSH1 0x40 SWAP1 KECCAK256 SLOAD PUSH2 0x1116 SWAP1 PUSH2 0x9D0 JUMP JUMPDEST PUSH1 0x1 PUSH1 0x1 PUSH1 0xA0 SHL SUB DUP3 AND PUSH1 0x0 SWAP1 DUP2 MSTORE PUSH1 0x4 PUSH1 0x20 MSTORE PUSH1 0x40 SWAP1 KECCAK256 SSTORE JUMPDEST PUSH1 0x1 PUSH1 0x1 PUSH1 0xA0 SHL SUB AND PUSH1 0x0 DUP2 DUP2 MSTORE PUSH1 0x7 PUSH1 0x20 MSTORE PUSH1 0x40 DUP2 KECCAK256 DUP1 SLOAD PUSH1 0xFF NOT AND PUSH1 0x1 SWAP1 DUP2 OR SWAP1 SWAP2 SSTORE PUSH1 0x8 DUP1 SLOAD SWAP2 DUP3 ADD DUP2 SSTORE SWAP1 SWAP2 MSTORE PUSH32 0xF3F7A9FE364FAAB93B216DA50A3214154F22A0A2B415B23A84C8169E8B636EE3 ADD DUP1 SLOAD PUSH1 0x1 PUSH1 0x1 PUSH1 0xA0 SHL SUB NOT AND SWAP1 SWAP2 OR SWAP1 SSTORE JUMP JUMPDEST PUSH1 0x1 PUSH1 0x1 PUSH1 0xA0 SHL SUB DUP2 AND PUSH1 0x0 SWAP1 DUP2 MSTORE PUSH1 0x7 PUSH1 0x20 MSTORE PUSH1 0x40 DUP2 KECCAK256 SLOAD PUSH1 0xFF AND ISZERO PUSH2 0x11D3 JUMPI POP PUSH1 0x1 PUSH1 0x1 PUSH1 0xA0 SHL SUB AND PUSH1 0x0 SWAP1 DUP2 MSTORE PUSH1 0x4 PUSH1 0x20 MSTORE PUSH1 0x40 SWAP1 KECCAK256 SLOAD SWAP1 JUMP JUMPDEST PUSH1 0x1 PUSH1 0x1 PUSH1 0xA0 SHL SUB DUP3 AND PUSH1 0x0 SWAP1 DUP2 MSTORE PUSH1 0x3 PUSH1 0x20 MSTORE PUSH1 0x40 SWAP1 KECCAK256 SLOAD PUSH2 0x915 SWAP1 PUSH2 0x9D0 JUMP JUMPDEST PUSH1 0x0 SLOAD PUSH1 0x1 PUSH1 0x1 PUSH1 0xA0 SHL SUB AND CALLER EQ PUSH2 0x121F JUMPI PUSH1 0x40 MLOAD PUSH3 0x461BCD PUSH1 0xE5 SHL DUP2 MSTORE PUSH1 0x4 ADD PUSH2 0x864 SWAP1 PUSH2 0x28A0 JUMP JUMPDEST PUSH1 0x0 DUP1 SLOAD PUSH1 0x40 MLOAD PUSH1 0x1 PUSH1 0x1 PUSH1 0xA0 SHL SUB SWAP1 SWAP2 AND SWAP1 PUSH1 0x0 DUP1 MLOAD PUSH1 0x20 PUSH2 0x2B4B DUP4 CODECOPY DUP2 MLOAD SWAP2 MSTORE SWAP1 DUP4 SWAP1 LOG3 PUSH1 0x0 DUP1 SLOAD PUSH1 0x1 PUSH1 0x1 PUSH1 0xA0 SHL SUB NOT AND SWAP1 SSTORE JUMP JUMPDEST PUSH1 0x0 SLOAD PUSH1 0x1 PUSH1 0x1 PUSH1 0xA0 SHL SUB AND CALLER EQ PUSH2 0x1281 JUMPI PUSH1 0x40 MLOAD PUSH3 0x461BCD PUSH1 0xE5 SHL DUP2 MSTORE PUSH1 0x4 ADD PUSH2 0x864 SWAP1 PUSH2 0x28A0 JUMP JUMPDEST PUSH1 0x14 SSTORE JUMP JUMPDEST PUSH1 0x60 PUSH1 0xE DUP1 SLOAD PUSH2 0x881 SWAP1 PUSH2 0x2A9E JUMP JUMPDEST PUSH1 0x0 PUSH2 0x911 CALLER DUP5 PUSH2 0x9C1 DUP6 PUSH1 0x40 MLOAD DUP1 PUSH1 0x60 ADD PUSH1 0x40 MSTORE DUP1 PUSH1 0x25 DUP2 MSTORE PUSH1 0x20 ADD PUSH2 0x2B6B PUSH1 0x25 SWAP2 CODECOPY CALLER PUSH1 0x0 SWAP1 DUP2 MSTORE PUSH1 0x5 PUSH1 0x20 SWAP1 DUP2 MSTORE PUSH1 0x40 DUP1 DUP4 KECCAK256 PUSH1 0x1 PUSH1 0x1 PUSH1 0xA0 SHL SUB DUP14 AND DUP5 MSTORE SWAP1 SWAP2 MSTORE SWAP1 KECCAK256 SLOAD SWAP2 SWAP1 PUSH2 0x1A32 JUMP JUMPDEST PUSH1 0x1 SLOAD PUSH1 0x1 PUSH1 0x1 PUSH1 0xA0 SHL SUB AND CALLER EQ PUSH2 0x134A JUMPI PUSH1 0x40 MLOAD PUSH3 0x461BCD PUSH1 0xE5 SHL DUP2 MSTORE PUSH1 0x20 PUSH1 0x4 DUP3 ADD MSTORE PUSH1 0x24 DUP1 DUP3 ADD MSTORE PUSH32 0x596F7520646F6E27742068617665207065726D697373696F6E20746F20756E6C PUSH1 0x44 DUP3 ADD MSTORE PUSH4 0x37B1B597 PUSH1 0xE1 SHL PUSH1 0x64 DUP3 ADD MSTORE PUSH1 0x84 ADD PUSH2 0x864 JUMP JUMPDEST PUSH1 0x2 SLOAD TIMESTAMP GT PUSH2 0x1391 JUMPI PUSH1 0x40 MLOAD PUSH3 0x461BCD PUSH1 0xE5 SHL DUP2 MSTORE PUSH1 0x20 PUSH1 0x4 DUP3 ADD MSTORE PUSH1 0x13 PUSH1 0x24 DUP3 ADD MSTORE PUSH19 0x21B7B73A3930B1BA1034B9903637B1B5B2B217 PUSH1 0x69 SHL PUSH1 0x44 DUP3 ADD MSTORE PUSH1 0x64 ADD PUSH2 0x864 JUMP JUMPDEST PUSH1 0x1 SLOAD PUSH1 0x0 DUP1 SLOAD PUSH1 0x40 MLOAD PUSH1 0x1 PUSH1 0x1 PUSH1 0xA0 SHL SUB SWAP4 DUP5 AND SWAP4 SWAP1 SWAP2 AND SWAP2 PUSH1 0x0 DUP1 MLOAD PUSH1 0x20 PUSH2 0x2B4B DUP4 CODECOPY DUP2 MLOAD SWAP2 MSTORE SWAP2 LOG3 PUSH1 0x1 SLOAD PUSH1 0x0 DUP1 SLOAD PUSH1 0x1 PUSH1 0x1 PUSH1 0xA0 SHL SUB NOT AND PUSH1 0x1 PUSH1 0x1 PUSH1 0xA0 SHL SUB SWAP1 SWAP3 AND SWAP2 SWAP1 SWAP2 OR SWAP1 SSTORE JUMP JUMPDEST PUSH1 0x0 PUSH2 0x911 CALLER DUP5 DUP5 PUSH2 0x179C JUMP JUMPDEST PUSH1 0x0 SLOAD PUSH1 0x1 PUSH1 0x1 PUSH1 0xA0 SHL SUB AND CALLER EQ PUSH2 0x1417 JUMPI PUSH1 0x40 MLOAD PUSH3 0x461BCD PUSH1 0xE5 SHL DUP2 MSTORE PUSH1 0x4 ADD PUSH2 0x864 SWAP1 PUSH2 0x28A0 JUMP JUMPDEST PUSH1 0x17 DUP1 SLOAD DUP3 ISZERO ISZERO PUSH1 0x1 PUSH1 0xA8 SHL MUL PUSH1 0xFF PUSH1 0xA8 SHL NOT SWAP1 SWAP2 AND OR SWAP1 SSTORE PUSH1 0x40 MLOAD PUSH32 0x53726DFCAF90650AA7EB35524F4D3220F07413C8D6CB404CC8C18BF5591BC159 SWAP1 PUSH2 0x1464 SWAP1 DUP4 ISZERO ISZERO DUP2 MSTORE PUSH1 0x20 ADD SWAP1 JUMP JUMPDEST PUSH1 0x40 MLOAD DUP1 SWAP2 SUB SWAP1 LOG1 POP JUMP JUMPDEST PUSH1 0x0 SLOAD PUSH1 0x1 PUSH1 0x1 PUSH1 0xA0 SHL SUB AND CALLER EQ PUSH2 0x1499 JUMPI PUSH1 0x40 MLOAD PUSH3 0x461BCD PUSH1 0xE5 SHL DUP2 MSTORE PUSH1 0x4 ADD PUSH2 0x864 SWAP1 PUSH2 0x28A0 JUMP JUMPDEST PUSH1 0xF SLOAD PUSH2 0x14A7 SWAP1 PUSH1 0xA PUSH2 0x29C0 JUMP JUMPDEST PUSH2 0x14B1 SWAP1 DUP3 PUSH2 0x2A68 JUMP JUMPDEST PUSH1 0x18 SSTORE POP JUMP JUMPDEST PUSH1 0x0 SLOAD PUSH1 0x1 PUSH1 0x1 PUSH1 0xA0 SHL SUB AND CALLER EQ PUSH2 0x14E1 JUMPI PUSH1 0x40 MLOAD PUSH3 0x461BCD PUSH1 0xE5 SHL DUP2 MSTORE PUSH1 0x4 ADD PUSH2 0x864 SWAP1 PUSH2 0x28A0 JUMP JUMPDEST PUSH1 0x0 DUP1 SLOAD PUSH1 0x1 DUP1 SLOAD PUSH1 0x1 PUSH1 0x1 PUSH1 0xA0 SHL SUB NOT SWAP1 DUP2 AND PUSH1 0x1 PUSH1 0x1 PUSH1 0xA0 SHL SUB DUP5 AND OR SWAP1 SWAP2 SSTORE AND DUP2 SSTORE PUSH1 0x2 DUP3 SWAP1 SSTORE PUSH1 0x40 MLOAD DUP2 SWAP1 PUSH1 0x0 DUP1 MLOAD PUSH1 0x20 PUSH2 0x2B4B DUP4 CODECOPY DUP2 MLOAD SWAP2 MSTORE SWAP1 DUP3 SWAP1 LOG3 POP JUMP JUMPDEST PUSH1 0x0 SLOAD PUSH1 0x1 PUSH1 0x1 PUSH1 0xA0 SHL SUB AND CALLER EQ PUSH2 0x1550 JUMPI PUSH1 0x40 MLOAD PUSH3 0x461BCD PUSH1 0xE5 SHL DUP2 MSTORE PUSH1 0x4 ADD PUSH2 0x864 SWAP1 PUSH2 0x28A0 JUMP JUMPDEST PUSH1 0x1 PUSH1 0x1 PUSH1 0xA0 SHL SUB AND PUSH1 0x0 SWAP1 DUP2 MSTORE PUSH1 0x6 PUSH1 0x20 MSTORE PUSH1 0x40 SWAP1 KECCAK256 DUP1 SLOAD PUSH1 0xFF NOT AND SWAP1 SSTORE JUMP JUMPDEST PUSH1 0x0 SLOAD PUSH1 0x1 PUSH1 0x1 PUSH1 0xA0 SHL SUB AND CALLER EQ PUSH2 0x159B JUMPI PUSH1 0x40 MLOAD PUSH3 0x461BCD PUSH1 0xE5 SHL DUP2 MSTORE PUSH1 0x4 ADD PUSH2 0x864 SWAP1 PUSH2 0x28A0 JUMP JUMPDEST PUSH1 0x19 SSTORE JUMP JUMPDEST PUSH1 0x0 SLOAD PUSH1 0x1 PUSH1 0x1 PUSH1 0xA0 SHL SUB AND CALLER EQ PUSH2 0x15CA JUMPI PUSH1 0x40 MLOAD PUSH3 0x461BCD PUSH1 0xE5 SHL DUP2 MSTORE PUSH1 0x4 ADD PUSH2 0x864 SWAP1 PUSH2 0x28A0 JUMP JUMPDEST PUSH1 0x1 PUSH1 0x1 PUSH1 0xA0 SHL SUB DUP2 AND PUSH2 0x162F JUMPI PUSH1 0x40 MLOAD PUSH3 0x461BCD PUSH1 0xE5 SHL DUP2 MSTORE PUSH1 0x20 PUSH1 0x4 DUP3 ADD MSTORE PUSH1 0x26 PUSH1 0x24 DUP3 ADD MSTORE PUSH32 0x4F776E61626C653A206E6577206F776E657220697320746865207A65726F2061 PUSH1 0x44 DUP3 ADD MSTORE PUSH6 0x646472657373 PUSH1 0xD0 SHL PUSH1 0x64 DUP3 ADD MSTORE PUSH1 0x84 ADD PUSH2 0x864 JUMP JUMPDEST PUSH1 0x0 DUP1 SLOAD PUSH1 0x40 MLOAD PUSH1 0x1 PUSH1 0x1 PUSH1 0xA0 SHL SUB DUP1 DUP6 AND SWAP4 SWAP3 AND SWAP2 PUSH1 0x0 DUP1 MLOAD PUSH1 0x20 PUSH2 0x2B4B DUP4 CODECOPY DUP2 MLOAD SWAP2 MSTORE SWAP2 LOG3 PUSH1 0x0 DUP1 SLOAD PUSH1 0x1 PUSH1 0x1 PUSH1 0xA0 SHL SUB NOT AND PUSH1 0x1 PUSH1 0x1 PUSH1 0xA0 SHL SUB SWAP3 SWAP1 SWAP3 AND SWAP2 SWAP1 SWAP2 OR SWAP1 SSTORE JUMP JUMPDEST PUSH1 0x1 PUSH1 0x1 PUSH1 0xA0 SHL SUB DUP4 AND PUSH2 0x16DA JUMPI PUSH1 0x40 MLOAD PUSH3 0x461BCD PUSH1 0xE5 SHL DUP2 MSTORE PUSH1 0x20 PUSH1 0x4 DUP3 ADD MSTORE PUSH1 0x24 DUP1 DUP3 ADD MSTORE PUSH32 0x45524332303A20617070726F76652066726F6D20746865207A65726F20616464 PUSH1 0x44 DUP3 ADD MSTORE PUSH4 0x72657373 PUSH1 0xE0 SHL PUSH1 0x64 DUP3 ADD MSTORE PUSH1 0x84 ADD PUSH2 0x864 JUMP JUMPDEST PUSH1 0x1 PUSH1 0x1 PUSH1 0xA0 SHL SUB DUP3 AND PUSH2 0x173B JUMPI PUSH1 0x40 MLOAD PUSH3 0x461BCD PUSH1 0xE5 SHL DUP2 MSTORE PUSH1 0x20 PUSH1 0x4 DUP3 ADD MSTORE PUSH1 0x22 PUSH1 0x24 DUP3 ADD MSTORE PUSH32 0x45524332303A20617070726F766520746F20746865207A65726F206164647265 PUSH1 0x44 DUP3 ADD MSTORE PUSH2 0x7373 PUSH1 0xF0 SHL PUSH1 0x64 DUP3 ADD MSTORE PUSH1 0x84 ADD PUSH2 0x864 JUMP JUMPDEST PUSH1 0x1 PUSH1 0x1 PUSH1 0xA0 SHL SUB DUP4 DUP2 AND PUSH1 0x0 DUP2 DUP2 MSTORE PUSH1 0x5 PUSH1 0x20 SWAP1 DUP2 MSTORE PUSH1 0x40 DUP1 DUP4 KECCAK256 SWAP5 DUP8 AND DUP1 DUP5 MSTORE SWAP5 DUP3 MSTORE SWAP2 DUP3 SWAP1 KECCAK256 DUP6 SWAP1 SSTORE SWAP1 MLOAD DUP5 DUP2 MSTORE PUSH32 0x8C5BE1E5EBEC7D5BD14F71427D1E84F3DD0314C0F7B2291E5B200AC8C7C3B925 SWAP2 ADD PUSH1 0x40 MLOAD DUP1 SWAP2 SUB SWAP1 LOG3 POP POP POP JUMP JUMPDEST PUSH1 0x1 PUSH1 0x1 PUSH1 0xA0 SHL SUB DUP4 AND PUSH2 0x1800 JUMPI PUSH1 0x40 MLOAD PUSH3 0x461BCD PUSH1 0xE5 SHL DUP2 MSTORE PUSH1 0x20 PUSH1 0x4 DUP3 ADD MSTORE PUSH1 0x25 PUSH1 0x24 DUP3 ADD MSTORE PUSH32 0x45524332303A207472616E736665722066726F6D20746865207A65726F206164 PUSH1 0x44 DUP3 ADD MSTORE PUSH5 0x6472657373 PUSH1 0xD8 SHL PUSH1 0x64 DUP3 ADD MSTORE PUSH1 0x84 ADD PUSH2 0x864 JUMP JUMPDEST PUSH1 0x1 PUSH1 0x1 PUSH1 0xA0 SHL SUB DUP3 AND PUSH2 0x1862 JUMPI PUSH1 0x40 MLOAD PUSH3 0x461BCD PUSH1 0xE5 SHL DUP2 MSTORE PUSH1 0x20 PUSH1 0x4 DUP3 ADD MSTORE PUSH1 0x23 PUSH1 0x24 DUP3 ADD MSTORE PUSH32 0x45524332303A207472616E7366657220746F20746865207A65726F2061646472 PUSH1 0x44 DUP3 ADD MSTORE PUSH3 0x657373 PUSH1 0xE8 SHL PUSH1 0x64 DUP3 ADD MSTORE PUSH1 0x84 ADD PUSH2 0x864 JUMP JUMPDEST PUSH1 0x0 DUP2 GT PUSH2 0x18C4 JUMPI PUSH1 0x40 MLOAD PUSH3 0x461BCD PUSH1 0xE5 SHL DUP2 MSTORE PUSH1 0x20 PUSH1 0x4 DUP3 ADD MSTORE PUSH1 0x29 PUSH1 0x24 DUP3 ADD MSTORE PUSH32 0x5472616E7366657220616D6F756E74206D757374206265206772656174657220 PUSH1 0x44 DUP3 ADD MSTORE PUSH9 0x7468616E207A65726F PUSH1 0xB8 SHL PUSH1 0x64 DUP3 ADD MSTORE PUSH1 0x84 ADD PUSH2 0x864 JUMP JUMPDEST PUSH1 0x0 SLOAD PUSH1 0x1 PUSH1 0x1 PUSH1 0xA0 SHL SUB DUP5 DUP2 AND SWAP2 AND EQ DUP1 ISZERO SWAP1 PUSH2 0x18F0 JUMPI POP PUSH1 0x0 SLOAD PUSH1 0x1 PUSH1 0x1 PUSH1 0xA0 SHL SUB DUP4 DUP2 AND SWAP2 AND EQ ISZERO JUMPDEST ISZERO PUSH2 0x1958 JUMPI PUSH1 0x18 SLOAD DUP2 GT ISZERO PUSH2 0x1958 JUMPI PUSH1 0x40 MLOAD PUSH3 0x461BCD PUSH1 0xE5 SHL DUP2 MSTORE PUSH1 0x20 PUSH1 0x4 DUP3 ADD MSTORE PUSH1 0x28 PUSH1 0x24 DUP3 ADD MSTORE PUSH32 0x5472616E7366657220616D6F756E74206578636565647320746865206D617854 PUSH1 0x44 DUP3 ADD MSTORE PUSH8 0x3C20B6B7BAB73A17 PUSH1 0xC1 SHL PUSH1 0x64 DUP3 ADD MSTORE PUSH1 0x84 ADD PUSH2 0x864 JUMP JUMPDEST PUSH1 0x0 PUSH2 0x1963 ADDRESS PUSH2 0x1196 JUMP JUMPDEST SWAP1 POP PUSH1 0x18 SLOAD DUP2 LT PUSH2 0x1973 JUMPI POP PUSH1 0x18 SLOAD JUMPDEST PUSH1 0x19 SLOAD DUP2 LT DUP1 ISZERO SWAP1 DUP2 SWAP1 PUSH2 0x1991 JUMPI POP PUSH1 0x17 SLOAD PUSH1 0x1 PUSH1 0xA0 SHL SWAP1 DIV PUSH1 0xFF AND ISZERO JUMPDEST DUP1 ISZERO PUSH2 0x19AB JUMPI POP PUSH1 0x17 SLOAD PUSH1 0x1 PUSH1 0x1 PUSH1 0xA0 SHL SUB DUP7 DUP2 AND SWAP2 AND EQ ISZERO JUMPDEST DUP1 ISZERO PUSH2 0x19C0 JUMPI POP PUSH1 0x17 SLOAD PUSH1 0x1 PUSH1 0xA8 SHL SWAP1 DIV PUSH1 0xFF AND JUMPDEST ISZERO PUSH2 0x19D3 JUMPI PUSH1 0x19 SLOAD SWAP2 POP PUSH2 0x19D3 DUP3 PUSH2 0x1B00 JUMP JUMPDEST PUSH1 0x1 PUSH1 0x1 PUSH1 0xA0 SHL SUB DUP6 AND PUSH1 0x0 SWAP1 DUP2 MSTORE PUSH1 0x6 PUSH1 0x20 MSTORE PUSH1 0x40 SWAP1 KECCAK256 SLOAD PUSH1 0x1 SWAP1 PUSH1 0xFF AND DUP1 PUSH2 0x1A15 JUMPI POP PUSH1 0x1 PUSH1 0x1 PUSH1 0xA0 SHL SUB DUP6 AND PUSH1 0x0 SWAP1 DUP2 MSTORE PUSH1 0x6 PUSH1 0x20 MSTORE PUSH1 0x40 SWAP1 KECCAK256 SLOAD PUSH1 0xFF AND JUMPDEST ISZERO PUSH2 0x1A1E JUMPI POP PUSH1 0x0 JUMPDEST PUSH2 0x1A2A DUP7 DUP7 DUP7 DUP5 PUSH2 0x1BA7 JUMP JUMPDEST POP POP POP POP POP POP JUMP JUMPDEST PUSH1 0x0 DUP2 DUP5 DUP5 GT ISZERO PUSH2 0x1A56 JUMPI PUSH1 0x40 MLOAD PUSH3 0x461BCD PUSH1 0xE5 SHL DUP2 MSTORE PUSH1 0x4 ADD PUSH2 0x864 SWAP2 SWAP1 PUSH2 0x284D JUMP JUMPDEST POP POP POP SWAP1 SUB SWAP1 JUMP JUMPDEST PUSH1 0x0 DUP1 PUSH1 0x0 PUSH2 0x1A6B PUSH2 0x1D47 JUMP JUMPDEST SWAP1 SWAP3 POP SWAP1 POP PUSH2 0x1A7A DUP3 DUP3 PUSH2 0x1A81 JUMP JUMPDEST SWAP3 POP POP POP SWAP1 JUMP JUMPDEST PUSH1 0x0 PUSH2 0xA4D DUP3 DUP5 PUSH2 0x295D JUMP JUMPDEST PUSH1 0x0 PUSH2 0xA4D DUP3 DUP5 PUSH2 0x2945 JUMP JUMPDEST PUSH1 0x0 DUP1 PUSH1 0x0 DUP1 PUSH1 0x0 DUP1 PUSH1 0x0 DUP1 PUSH1 0x0 DUP1 PUSH1 0x0 PUSH2 0x1AB3 DUP13 PUSH2 0x1F01 JUMP JUMPDEST SWAP4 POP SWAP4 POP SWAP4 POP SWAP4 POP PUSH1 0x0 DUP1 PUSH1 0x0 PUSH2 0x1AD4 DUP16 DUP8 DUP8 DUP8 PUSH2 0x1ACF PUSH2 0x1A5E JUMP JUMPDEST PUSH2 0x1F56 JUMP JUMPDEST SWAP2 SWAP16 POP SWAP14 POP SWAP12 POP SWAP6 SWAP10 POP SWAP4 SWAP8 POP SWAP2 SWAP6 POP SWAP4 POP POP POP POP SWAP2 SWAP4 SWAP6 SWAP8 SWAP1 SWAP3 SWAP5 SWAP7 POP JUMP JUMPDEST PUSH1 0x0 PUSH2 0xA4D DUP3 DUP5 PUSH2 0x2A87 JUMP JUMPDEST PUSH1 0x17 DUP1 SLOAD PUSH1 0xFF PUSH1 0xA0 SHL NOT AND PUSH1 0x1 PUSH1 0xA0 SHL OR SWAP1 SSTORE PUSH1 0x0 PUSH2 0x1B20 DUP3 PUSH1 0x2 PUSH2 0x1A81 JUMP JUMPDEST SWAP1 POP PUSH1 0x0 PUSH2 0x1B2E DUP4 DUP4 PUSH2 0x1AF4 JUMP JUMPDEST SWAP1 POP SELFBALANCE PUSH2 0x1B3A DUP4 PUSH2 0x1FB8 JUMP JUMPDEST PUSH1 0x0 PUSH2 0x1B46 SELFBALANCE DUP4 PUSH2 0x1AF4 JUMP JUMPDEST SWAP1 POP PUSH2 0x1B52 DUP4 DUP3 PUSH2 0x2135 JUMP JUMPDEST PUSH1 0x40 DUP1 MLOAD DUP6 DUP2 MSTORE PUSH1 0x20 DUP2 ADD DUP4 SWAP1 MSTORE SWAP1 DUP2 ADD DUP5 SWAP1 MSTORE PUSH32 0x17BBFB9A6069321B6DED73BD96327C9E6B7212A5CD51FF219CD61370ACAFB561 SWAP1 PUSH1 0x60 ADD PUSH1 0x40 MLOAD DUP1 SWAP2 SUB SWAP1 LOG1 POP POP PUSH1 0x17 DUP1 SLOAD PUSH1 0xFF PUSH1 0xA0 SHL NOT AND SWAP1 SSTORE POP POP POP JUMP JUMPDEST DUP1 PUSH2 0x1BD1 JUMPI PUSH2 0x1BD1 PUSH1 0x10 DUP1 SLOAD PUSH1 0x11 SSTORE PUSH1 0x12 DUP1 SLOAD PUSH1 0x13 SSTORE PUSH1 0x14 DUP1 SLOAD PUSH1 0x15 SSTORE PUSH1 0x0 SWAP3 DUP4 SWAP1 SSTORE SWAP1 DUP3 SWAP1 SSTORE SSTORE JUMP JUMPDEST PUSH1 0x1 PUSH1 0x1 PUSH1 0xA0 SHL SUB DUP5 AND PUSH1 0x0 SWAP1 DUP2 MSTORE PUSH1 0x7 PUSH1 0x20 MSTORE PUSH1 0x40 SWAP1 KECCAK256 SLOAD PUSH1 0xFF AND DUP1 ISZERO PUSH2 0x1C12 JUMPI POP PUSH1 0x1 PUSH1 0x1 PUSH1 0xA0 SHL SUB DUP4 AND PUSH1 0x0 SWAP1 DUP2 MSTORE PUSH1 0x7 PUSH1 0x20 MSTORE PUSH1 0x40 SWAP1 KECCAK256 SLOAD PUSH1 0xFF AND ISZERO JUMPDEST ISZERO PUSH2 0x1C27 JUMPI PUSH2 0x1C22 DUP5 DUP5 DUP5 PUSH2 0x2219 JUMP JUMPDEST PUSH2 0x1D25 JUMP JUMPDEST PUSH1 0x1 PUSH1 0x1 PUSH1 0xA0 SHL SUB DUP5 AND PUSH1 0x0 SWAP1 DUP2 MSTORE PUSH1 0x7 PUSH1 0x20 MSTORE PUSH1 0x40 SWAP1 KECCAK256 SLOAD PUSH1 0xFF AND ISZERO DUP1 ISZERO PUSH2 0x1C68 JUMPI POP PUSH1 0x1 PUSH1 0x1 PUSH1 0xA0 SHL SUB DUP4 AND PUSH1 0x0 SWAP1 DUP2 MSTORE PUSH1 0x7 PUSH1 0x20 MSTORE PUSH1 0x40 SWAP1 KECCAK256 SLOAD PUSH1 0xFF AND JUMPDEST ISZERO PUSH2 0x1C78 JUMPI PUSH2 0x1C22 DUP5 DUP5 DUP5 PUSH2 0x235F JUMP JUMPDEST PUSH1 0x1 PUSH1 0x1 PUSH1 0xA0 SHL SUB DUP5 AND PUSH1 0x0 SWAP1 DUP2 MSTORE PUSH1 0x7 PUSH1 0x20 MSTORE PUSH1 0x40 SWAP1 KECCAK256 SLOAD PUSH1 0xFF AND ISZERO DUP1 ISZERO PUSH2 0x1CBA JUMPI POP PUSH1 0x1 PUSH1 0x1 PUSH1 0xA0 SHL SUB DUP4 AND PUSH1 0x0 SWAP1 DUP2 MSTORE PUSH1 0x7 PUSH1 0x20 MSTORE PUSH1 0x40 SWAP1 KECCAK256 SLOAD PUSH1 0xFF AND ISZERO JUMPDEST ISZERO PUSH2 0x1CCA JUMPI PUSH2 0x1C22 DUP5 DUP5 DUP5 PUSH2 0x241E JUMP JUMPDEST PUSH1 0x1 PUSH1 0x1 PUSH1 0xA0 SHL SUB DUP5 AND PUSH1 0x0 SWAP1 DUP2 MSTORE PUSH1 0x7 PUSH1 0x20 MSTORE PUSH1 0x40 SWAP1 KECCAK256 SLOAD PUSH1 0xFF AND DUP1 ISZERO PUSH2 0x1D0A JUMPI POP PUSH1 0x1 PUSH1 0x1 PUSH1 0xA0 SHL SUB DUP4 AND PUSH1 0x0 SWAP1 DUP2 MSTORE PUSH1 0x7 PUSH1 0x20 MSTORE PUSH1 0x40 SWAP1 KECCAK256 SLOAD PUSH1 0xFF AND JUMPDEST ISZERO PUSH2 0x1D1A JUMPI PUSH2 0x1C22 DUP5 DUP5 DUP5 PUSH2 0x2478 JUMP JUMPDEST PUSH2 0x1D25 DUP5 DUP5 DUP5 PUSH2 0x241E JUMP JUMPDEST DUP1 PUSH2 0x1D41 JUMPI PUSH2 0x1D41 PUSH1 0x11 SLOAD PUSH1 0x10 SSTORE PUSH1 0x13 SLOAD PUSH1 0x12 SSTORE PUSH1 0x15 SLOAD PUSH1 0x14 SSTORE JUMP JUMPDEST POP POP POP POP JUMP JUMPDEST PUSH1 0xB SLOAD PUSH1 0xA SLOAD PUSH1 0x0 SWAP2 DUP3 SWAP2 DUP3 JUMPDEST PUSH1 0x8 SLOAD DUP2 LT ISZERO PUSH2 0x1ED1 JUMPI DUP3 PUSH1 0x3 PUSH1 0x0 PUSH1 0x8 DUP5 DUP2 SLOAD DUP2 LT PUSH2 0x1D84 JUMPI PUSH4 0x4E487B71 PUSH1 0xE0 SHL PUSH1 0x0 MSTORE PUSH1 0x32 PUSH1 0x4 MSTORE PUSH1 0x24 PUSH1 0x0 REVERT JUMPDEST PUSH1 0x0 SWAP2 DUP3 MSTORE PUSH1 0x20 DUP1 DUP4 KECCAK256 SWAP1 SWAP2 ADD SLOAD PUSH1 0x1 PUSH1 0x1 PUSH1 0xA0 SHL SUB AND DUP4 MSTORE DUP3 ADD SWAP3 SWAP1 SWAP3 MSTORE PUSH1 0x40 ADD SWAP1 KECCAK256 SLOAD GT DUP1 PUSH2 0x1DFD JUMPI POP DUP2 PUSH1 0x4 PUSH1 0x0 PUSH1 0x8 DUP5 DUP2 SLOAD DUP2 LT PUSH2 0x1DD6 JUMPI PUSH4 0x4E487B71 PUSH1 0xE0 SHL PUSH1 0x0 MSTORE PUSH1 0x32 PUSH1 0x4 MSTORE PUSH1 0x24 PUSH1 0x0 REVERT JUMPDEST PUSH1 0x0 SWAP2 DUP3 MSTORE PUSH1 0x20 DUP1 DUP4 KECCAK256 SWAP1 SWAP2 ADD SLOAD PUSH1 0x1 PUSH1 0x1 PUSH1 0xA0 SHL SUB AND DUP4 MSTORE DUP3 ADD SWAP3 SWAP1 SWAP3 MSTORE PUSH1 0x40 ADD SWAP1 KECCAK256 SLOAD GT JUMPDEST ISZERO PUSH2 0x1E13 JUMPI PUSH1 0xB SLOAD PUSH1 0xA SLOAD SWAP5 POP SWAP5 POP POP POP POP SWAP1 SWAP2 JUMP JUMPDEST PUSH2 0x1E67 PUSH1 0x3 PUSH1 0x0 PUSH1 0x8 DUP5 DUP2 SLOAD DUP2 LT PUSH2 0x1E3B JUMPI PUSH4 0x4E487B71 PUSH1 0xE0 SHL PUSH1 0x0 MSTORE PUSH1 0x32 PUSH1 0x4 MSTORE PUSH1 0x24 PUSH1 0x0 REVERT JUMPDEST PUSH1 0x0 SWAP2 DUP3 MSTORE PUSH1 0x20 DUP1 DUP4 KECCAK256 SWAP1 SWAP2 ADD SLOAD PUSH1 0x1 PUSH1 0x1 PUSH1 0xA0 SHL SUB AND DUP4 MSTORE DUP3 ADD SWAP3 SWAP1 SWAP3 MSTORE PUSH1 0x40 ADD SWAP1 KECCAK256 SLOAD DUP5 SWAP1 PUSH2 0x1AF4 JUMP JUMPDEST SWAP3 POP PUSH2 0x1EBD PUSH1 0x4 PUSH1 0x0 PUSH1 0x8 DUP5 DUP2 SLOAD DUP2 LT PUSH2 0x1E91 JUMPI PUSH4 0x4E487B71 PUSH1 0xE0 SHL PUSH1 0x0 MSTORE PUSH1 0x32 PUSH1 0x4 MSTORE PUSH1 0x24 PUSH1 0x0 REVERT JUMPDEST PUSH1 0x0 SWAP2 DUP3 MSTORE PUSH1 0x20 DUP1 DUP4 KECCAK256 SWAP1 SWAP2 ADD SLOAD PUSH1 0x1 PUSH1 0x1 PUSH1 0xA0 SHL SUB AND DUP4 MSTORE DUP3 ADD SWAP3 SWAP1 SWAP3 MSTORE PUSH1 0x40 ADD SWAP1 KECCAK256 SLOAD DUP4 SWAP1 PUSH2 0x1AF4 JUMP JUMPDEST SWAP2 POP DUP1 PUSH2 0x1EC9 DUP2 PUSH2 0x2AD9 JUMP JUMPDEST SWAP2 POP POP PUSH2 0x1D54 JUMP JUMPDEST POP PUSH1 0xA SLOAD PUSH1 0xB SLOAD PUSH2 0x1EE1 SWAP2 PUSH2 0x1A81 JUMP JUMPDEST DUP3 LT ISZERO PUSH2 0x1EF8 JUMPI PUSH1 0xB SLOAD PUSH1 0xA SLOAD SWAP4 POP SWAP4 POP POP POP SWAP1 SWAP2 JUMP JUMPDEST SWAP1 SWAP4 SWAP1 SWAP3 POP SWAP1 POP JUMP JUMPDEST PUSH1 0x0 DUP1 PUSH1 0x0 DUP1 PUSH1 0x0 PUSH2 0x1F12 DUP7 PUSH2 0x2501 JUMP JUMPDEST SWAP1 POP PUSH1 0x0 PUSH2 0x1F1F DUP8 PUSH2 0x2523 JUMP JUMPDEST SWAP1 POP PUSH1 0x0 PUSH2 0x1F2C DUP9 PUSH2 0x253F JUMP JUMPDEST SWAP1 POP PUSH1 0x0 PUSH2 0x1F46 DUP3 PUSH2 0x1F40 DUP6 DUP2 DUP14 DUP10 PUSH2 0x1AF4 JUMP JUMPDEST SWAP1 PUSH2 0x1AF4 JUMP JUMPDEST SWAP10 SWAP4 SWAP9 POP SWAP2 SWAP7 POP SWAP5 POP SWAP1 SWAP3 POP POP POP JUMP JUMPDEST PUSH1 0x0 DUP1 DUP1 DUP1 PUSH2 0x1F65 DUP10 DUP7 PUSH2 0x255B JUMP JUMPDEST SWAP1 POP PUSH1 0x0 PUSH2 0x1F73 DUP10 DUP8 PUSH2 0x255B JUMP JUMPDEST SWAP1 POP PUSH1 0x0 PUSH2 0x1F81 DUP10 DUP9 PUSH2 0x255B JUMP JUMPDEST SWAP1 POP PUSH1 0x0 PUSH2 0x1F8F DUP10 DUP10 PUSH2 0x255B JUMP JUMPDEST SWAP1 POP PUSH1 0x0 PUSH2 0x1FA3 DUP3 PUSH2 0x1F40 DUP6 DUP2 DUP10 DUP10 PUSH2 0x1AF4 JUMP JUMPDEST SWAP5 SWAP14 SWAP5 SWAP13 POP SWAP3 SWAP11 POP SWAP3 SWAP9 POP POP POP POP POP POP POP POP POP JUMP JUMPDEST PUSH1 0x40 DUP1 MLOAD PUSH1 0x2 DUP1 DUP3 MSTORE PUSH1 0x60 DUP3 ADD DUP4 MSTORE PUSH1 0x0 SWAP3 PUSH1 0x20 DUP4 ADD SWAP1 DUP1 CALLDATASIZE DUP4 CALLDATACOPY ADD SWAP1 POP POP SWAP1 POP ADDRESS DUP2 PUSH1 0x0 DUP2 MLOAD DUP2 LT PUSH2 0x1FFB JUMPI PUSH4 0x4E487B71 PUSH1 0xE0 SHL PUSH1 0x0 MSTORE PUSH1 0x32 PUSH1 0x4 MSTORE PUSH1 0x24 PUSH1 0x0 REVERT JUMPDEST PUSH1 0x1 PUSH1 0x1 PUSH1 0xA0 SHL SUB SWAP3 DUP4 AND PUSH1 0x20 SWAP2 DUP3 MUL SWAP3 SWAP1 SWAP3 ADD DUP2 ADD SWAP2 SWAP1 SWAP2 MSTORE PUSH1 0x16 SLOAD PUSH1 0x40 DUP1 MLOAD PUSH4 0x15AB88C9 PUSH1 0xE3 SHL DUP2 MSTORE SWAP1 MLOAD SWAP2 SWAP1 SWAP4 AND SWAP3 PUSH4 0xAD5C4648 SWAP3 PUSH1 0x4 DUP1 DUP4 ADD SWAP4 SWAP2 SWAP3 DUP3 SWAP1 SUB ADD DUP2 DUP7 DUP1 EXTCODESIZE ISZERO DUP1 ISZERO PUSH2 0x204F JUMPI PUSH1 0x0 DUP1 REVERT JUMPDEST POP GAS STATICCALL ISZERO DUP1 ISZERO PUSH2 0x2063 JUMPI RETURNDATASIZE PUSH1 0x0 DUP1 RETURNDATACOPY RETURNDATASIZE PUSH1 0x0 REVERT JUMPDEST POP POP POP POP PUSH1 0x40 MLOAD RETURNDATASIZE PUSH1 0x1F NOT PUSH1 0x1F DUP3 ADD AND DUP3 ADD DUP1 PUSH1 0x40 MSTORE POP DUP2 ADD SWAP1 PUSH2 0x2087 SWAP2 SWAP1 PUSH2 0x2704 JUMP JUMPDEST DUP2 PUSH1 0x1 DUP2 MLOAD DUP2 LT PUSH2 0x20A8 JUMPI PUSH4 0x4E487B71 PUSH1 0xE0 SHL PUSH1 0x0 MSTORE PUSH1 0x32 PUSH1 0x4 MSTORE PUSH1 0x24 PUSH1 0x0 REVERT JUMPDEST PUSH1 0x1 PUSH1 0x1 PUSH1 0xA0 SHL SUB SWAP3 DUP4 AND PUSH1 0x20 SWAP2 DUP3 MUL SWAP3 SWAP1 SWAP3 ADD ADD MSTORE PUSH1 0x16 SLOAD PUSH2 0x20CE SWAP2 ADDRESS SWAP2 AND DUP5 PUSH2 0x1678 JUMP JUMPDEST PUSH1 0x16 SLOAD PUSH1 0x40 MLOAD PUSH4 0x791AC947 PUSH1 0xE0 SHL DUP2 MSTORE PUSH1 0x1 PUSH1 0x1 PUSH1 0xA0 SHL SUB SWAP1 SWAP2 AND SWAP1 PUSH4 0x791AC947 SWAP1 PUSH2 0x2107 SWAP1 DUP6 SWAP1 PUSH1 0x0 SWAP1 DUP7 SWAP1 ADDRESS SWAP1 TIMESTAMP SWAP1 PUSH1 0x4 ADD PUSH2 0x28D5 JUMP JUMPDEST PUSH1 0x0 PUSH1 0x40 MLOAD DUP1 DUP4 SUB DUP2 PUSH1 0x0 DUP8 DUP1 EXTCODESIZE ISZERO DUP1 ISZERO PUSH2 0x2121 JUMPI PUSH1 0x0 DUP1 REVERT JUMPDEST POP GAS CALL ISZERO DUP1 ISZERO PUSH2 0x1A2A JUMPI RETURNDATASIZE PUSH1 0x0 DUP1 RETURNDATACOPY RETURNDATASIZE PUSH1 0x0 REVERT JUMPDEST PUSH1 0x16 SLOAD PUSH2 0x214D SWAP1 ADDRESS SWAP1 PUSH1 0x1 PUSH1 0x1 PUSH1 0xA0 SHL SUB AND DUP5 PUSH2 0x1678 JUMP JUMPDEST PUSH1 0x16 SLOAD PUSH1 0x1 PUSH1 0x1 PUSH1 0xA0 SHL SUB AND PUSH4 0xF305D719 DUP3 ADDRESS DUP6 PUSH1 0x0 DUP1 PUSH2 0x2176 PUSH1 0x0 SLOAD PUSH1 0x1 PUSH1 0x1 PUSH1 0xA0 SHL SUB AND SWAP1 JUMP JUMPDEST PUSH1 0x40 MLOAD PUSH1 0xE0 DUP9 SWAP1 SHL PUSH1 0x1 PUSH1 0x1 PUSH1 0xE0 SHL SUB NOT AND DUP2 MSTORE PUSH1 0x1 PUSH1 0x1 PUSH1 0xA0 SHL SUB SWAP6 DUP7 AND PUSH1 0x4 DUP3 ADD MSTORE PUSH1 0x24 DUP2 ADD SWAP5 SWAP1 SWAP5 MSTORE PUSH1 0x44 DUP5 ADD SWAP3 SWAP1 SWAP3 MSTORE PUSH1 0x64 DUP4 ADD MSTORE SWAP1 SWAP2 AND PUSH1 0x84 DUP3 ADD MSTORE TIMESTAMP PUSH1 0xA4 DUP3 ADD MSTORE PUSH1 0xC4 ADD PUSH1 0x60 PUSH1 0x40 MLOAD DUP1 DUP4 SUB DUP2 DUP6 DUP9 DUP1 EXTCODESIZE ISZERO DUP1 ISZERO PUSH2 0x21D9 JUMPI PUSH1 0x0 DUP1 REVERT JUMPDEST POP GAS CALL ISZERO DUP1 ISZERO PUSH2 0x21ED JUMPI RETURNDATASIZE PUSH1 0x0 DUP1 RETURNDATACOPY RETURNDATASIZE PUSH1 0x0 REVERT JUMPDEST POP POP POP POP POP PUSH1 0x40 MLOAD RETURNDATASIZE PUSH1 0x1F NOT PUSH1 0x1F DUP3 ADD AND DUP3 ADD DUP1 PUSH1 0x40 MSTORE POP DUP2 ADD SWAP1 PUSH2 0x2212 SWAP2 SWAP1 PUSH2 0x2820 JUMP JUMPDEST POP POP POP POP POP JUMP JUMPDEST PUSH1 0x0 DUP1 PUSH1 0x0 DUP1 PUSH1 0x0 DUP1 PUSH1 0x0 PUSH2 0x222D DUP9 PUSH2 0x1A99 JUMP JUMPDEST SWAP7 POP SWAP7 POP SWAP7 POP SWAP7 POP SWAP7 POP SWAP7 POP SWAP7 POP PUSH2 0x2273 DUP9 PUSH1 0x4 PUSH1 0x0 DUP14 PUSH1 0x1 PUSH1 0x1 PUSH1 0xA0 SHL SUB AND PUSH1 0x1 PUSH1 0x1 PUSH1 0xA0 SHL SUB AND DUP2 MSTORE PUSH1 0x20 ADD SWAP1 DUP2 MSTORE PUSH1 0x20 ADD PUSH1 0x0 KECCAK256 SLOAD PUSH2 0x1AF4 SWAP1 SWAP2 SWAP1 PUSH4 0xFFFFFFFF AND JUMP JUMPDEST PUSH1 0x1 PUSH1 0x1 PUSH1 0xA0 SHL SUB DUP12 AND PUSH1 0x0 SWAP1 DUP2 MSTORE PUSH1 0x4 PUSH1 0x20 SWAP1 DUP2 MSTORE PUSH1 0x40 DUP1 DUP4 KECCAK256 SWAP4 SWAP1 SWAP4 SSTORE PUSH1 0x3 SWAP1 MSTORE KECCAK256 SLOAD PUSH2 0x22A2 SWAP1 DUP9 PUSH2 0x1AF4 JUMP JUMPDEST PUSH1 0x1 PUSH1 0x1 PUSH1 0xA0 SHL SUB DUP1 DUP13 AND PUSH1 0x0 SWAP1 DUP2 MSTORE PUSH1 0x3 PUSH1 0x20 MSTORE PUSH1 0x40 DUP1 DUP3 KECCAK256 SWAP4 SWAP1 SWAP4 SSTORE SWAP1 DUP12 AND DUP2 MSTORE KECCAK256 SLOAD PUSH2 0x22D1 SWAP1 DUP8 PUSH2 0x1A8D JUMP JUMPDEST PUSH1 0x1 PUSH1 0x1 PUSH1 0xA0 SHL SUB DUP11 AND PUSH1 0x0 SWAP1 DUP2 MSTORE PUSH1 0x3 PUSH1 0x20 MSTORE PUSH1 0x40 SWAP1 KECCAK256 SSTORE PUSH2 0x22F3 DUP3 PUSH2 0x2567 JUMP JUMPDEST PUSH2 0x22FC DUP2 PUSH2 0x25F0 JUMP JUMPDEST PUSH2 0x2306 DUP6 DUP5 PUSH2 0x26AF JUMP JUMPDEST DUP9 PUSH1 0x1 PUSH1 0x1 PUSH1 0xA0 SHL SUB AND DUP11 PUSH1 0x1 PUSH1 0x1 PUSH1 0xA0 SHL SUB AND PUSH32 0xDDF252AD1BE2C89B69C2B068FC378DAA952BA7F163C4A11628F55A4DF523B3EF DUP7 PUSH1 0x40 MLOAD PUSH2 0x234B SWAP2 DUP2 MSTORE PUSH1 0x20 ADD SWAP1 JUMP JUMPDEST PUSH1 0x40 MLOAD DUP1 SWAP2 SUB SWAP1 LOG3 POP POP POP POP POP POP POP POP POP POP JUMP JUMPDEST PUSH1 0x0 DUP1 PUSH1 0x0 DUP1 PUSH1 0x0 DUP1 PUSH1 0x0 PUSH2 0x2373 DUP9 PUSH2 0x1A99 JUMP JUMPDEST SWAP7 POP SWAP7 POP SWAP7 POP SWAP7 POP SWAP7 POP SWAP7 POP SWAP7 POP PUSH2 0x23B9 DUP8 PUSH1 0x3 PUSH1 0x0 DUP14 PUSH1 0x1 PUSH1 0x1 PUSH1 0xA0 SHL SUB AND PUSH1 0x1 PUSH1 0x1 PUSH1 0xA0 SHL SUB AND DUP2 MSTORE PUSH1 0x20 ADD SWAP1 DUP2 MSTORE PUSH1 0x20 ADD PUSH1 0x0 KECCAK256 SLOAD PUSH2 0x1AF4 SWAP1 SWAP2 SWAP1 PUSH4 0xFFFFFFFF AND JUMP JUMPDEST PUSH1 0x1 PUSH1 0x1 PUSH1 0xA0 SHL SUB DUP1 DUP13 AND PUSH1 0x0 SWAP1 DUP2 MSTORE PUSH1 0x3 PUSH1 0x20 SWAP1 DUP2 MSTORE PUSH1 0x40 DUP1 DUP4 KECCAK256 SWAP5 SWAP1 SWAP5 SSTORE SWAP2 DUP13 AND DUP2 MSTORE PUSH1 0x4 SWAP1 SWAP2 MSTORE KECCAK256 SLOAD PUSH2 0x23EF SWAP1 DUP6 PUSH2 0x1A8D JUMP JUMPDEST PUSH1 0x1 PUSH1 0x1 PUSH1 0xA0 SHL SUB DUP11 AND PUSH1 0x0 SWAP1 DUP2 MSTORE PUSH1 0x4 PUSH1 0x20 SWAP1 DUP2 MSTORE PUSH1 0x40 DUP1 DUP4 KECCAK256 SWAP4 SWAP1 SWAP4 SSTORE PUSH1 0x3 SWAP1 MSTORE KECCAK256 SLOAD PUSH2 0x22D1 SWAP1 DUP8 PUSH2 0x1A8D JUMP JUMPDEST PUSH1 0x0 DUP1 PUSH1 0x0 DUP1 PUSH1 0x0 DUP1 PUSH1 0x0 PUSH2 0x2432 DUP9 PUSH2 0x1A99 JUMP JUMPDEST SWAP7 POP SWAP7 POP SWAP7 POP SWAP7 POP SWAP7 POP SWAP7 POP SWAP7 POP PUSH2 0x22A2 DUP8 PUSH1 0x3 PUSH1 0x0 DUP14 PUSH1 0x1 PUSH1 0x1 PUSH1 0xA0 SHL SUB AND PUSH1 0x1 PUSH1 0x1 PUSH1 0xA0 SHL SUB AND DUP2 MSTORE PUSH1 0x20 ADD SWAP1 DUP2 MSTORE PUSH1 0x20 ADD PUSH1 0x0 KECCAK256 SLOAD PUSH2 0x1AF4 SWAP1 SWAP2 SWAP1 PUSH4 0xFFFFFFFF AND JUMP JUMPDEST PUSH1 0x0 DUP1 PUSH1 0x0 DUP1 PUSH1 0x0 DUP1 PUSH1 0x0 PUSH2 0x248C DUP9 PUSH2 0x1A99 JUMP JUMPDEST SWAP7 POP SWAP7 POP SWAP7 POP SWAP7 POP SWAP7 POP SWAP7 POP SWAP7 POP PUSH2 0x24D2 DUP9 PUSH1 0x4 PUSH1 0x0 DUP14 PUSH1 0x1 PUSH1 0x1 PUSH1 0xA0 SHL SUB AND PUSH1 0x1 PUSH1 0x1 PUSH1 0xA0 SHL SUB AND DUP2 MSTORE PUSH1 0x20 ADD SWAP1 DUP2 MSTORE PUSH1 0x20 ADD PUSH1 0x0 KECCAK256 SLOAD PUSH2 0x1AF4 SWAP1 SWAP2 SWAP1 PUSH4 0xFFFFFFFF AND JUMP JUMPDEST PUSH1 0x1 PUSH1 0x1 PUSH1 0xA0 SHL SUB DUP12 AND PUSH1 0x0 SWAP1 DUP2 MSTORE PUSH1 0x4 PUSH1 0x20 SWAP1 DUP2 MSTORE PUSH1 0x40 DUP1 DUP4 KECCAK256 SWAP4 SWAP1 SWAP4 SSTORE PUSH1 0x3 SWAP1 MSTORE KECCAK256 SLOAD PUSH2 0x23B9 SWAP1 DUP9 PUSH2 0x1AF4 JUMP JUMPDEST PUSH1 0x0 PUSH2 0x915 PUSH1 0x64 PUSH2 0x251D PUSH1 0x10 SLOAD DUP6 PUSH2 0x255B SWAP1 SWAP2 SWAP1 PUSH4 0xFFFFFFFF AND JUMP JUMPDEST SWAP1 PUSH2 0x1A81 JUMP JUMPDEST PUSH1 0x0 PUSH2 0x915 PUSH1 0x64 PUSH2 0x251D PUSH1 0x14 SLOAD DUP6 PUSH2 0x255B SWAP1 SWAP2 SWAP1 PUSH4 0xFFFFFFFF AND JUMP JUMPDEST PUSH1 0x0 PUSH2 0x915 PUSH1 0x64 PUSH2 0x251D PUSH1 0x12 SLOAD DUP6 PUSH2 0x255B SWAP1 SWAP2 SWAP1 PUSH4 0xFFFFFFFF AND JUMP JUMPDEST PUSH1 0x0 PUSH2 0xA4D DUP3 DUP5 PUSH2 0x2A68 JUMP JUMPDEST PUSH1 0x0 PUSH2 0x2571 PUSH2 0x1A5E JUMP JUMPDEST SWAP1 POP PUSH1 0x0 PUSH2 0x257F DUP4 DUP4 PUSH2 0x255B JUMP JUMPDEST ADDRESS PUSH1 0x0 SWAP1 DUP2 MSTORE PUSH1 0x3 PUSH1 0x20 MSTORE PUSH1 0x40 SWAP1 KECCAK256 SLOAD SWAP1 SWAP2 POP PUSH2 0x259C SWAP1 DUP3 PUSH2 0x1A8D JUMP JUMPDEST ADDRESS PUSH1 0x0 SWAP1 DUP2 MSTORE PUSH1 0x3 PUSH1 0x20 SWAP1 DUP2 MSTORE PUSH1 0x40 DUP1 DUP4 KECCAK256 SWAP4 SWAP1 SWAP4 SSTORE PUSH1 0x7 SWAP1 MSTORE KECCAK256 SLOAD PUSH1 0xFF AND ISZERO PUSH2 0x25EB JUMPI ADDRESS PUSH1 0x0 SWAP1 DUP2 MSTORE PUSH1 0x4 PUSH1 0x20 MSTORE PUSH1 0x40 SWAP1 KECCAK256 SLOAD PUSH2 0x25DA SWAP1 DUP5 PUSH2 0x1A8D JUMP JUMPDEST ADDRESS PUSH1 0x0 SWAP1 DUP2 MSTORE PUSH1 0x4 PUSH1 0x20 MSTORE PUSH1 0x40 SWAP1 KECCAK256 SSTORE JUMPDEST POP POP POP JUMP JUMPDEST PUSH1 0x0 PUSH2 0x25FA PUSH2 0x1A5E JUMP JUMPDEST SWAP1 POP PUSH1 0x0 PUSH2 0x2608 DUP4 DUP4 PUSH2 0x255B JUMP JUMPDEST PUSH1 0x9 SLOAD PUSH1 0x1 PUSH1 0x1 PUSH1 0xA0 SHL SUB AND PUSH1 0x0 SWAP1 DUP2 MSTORE PUSH1 0x3 PUSH1 0x20 MSTORE PUSH1 0x40 SWAP1 KECCAK256 SLOAD SWAP1 SWAP2 POP PUSH2 0x2630 SWAP1 DUP3 PUSH2 0x1A8D JUMP JUMPDEST PUSH1 0x9 DUP1 SLOAD PUSH1 0x1 PUSH1 0x1 PUSH1 0xA0 SHL SUB SWAP1 DUP2 AND PUSH1 0x0 SWAP1 DUP2 MSTORE PUSH1 0x3 PUSH1 0x20 SWAP1 DUP2 MSTORE PUSH1 0x40 DUP1 DUP4 KECCAK256 SWAP6 SWAP1 SWAP6 SSTORE SWAP3 SLOAD SWAP1 SWAP2 AND DUP2 MSTORE PUSH1 0x7 SWAP1 SWAP2 MSTORE KECCAK256 SLOAD PUSH1 0xFF AND ISZERO PUSH2 0x25EB JUMPI PUSH1 0x9 SLOAD PUSH1 0x1 PUSH1 0x1 PUSH1 0xA0 SHL SUB AND PUSH1 0x0 SWAP1 DUP2 MSTORE PUSH1 0x4 PUSH1 0x20 MSTORE PUSH1 0x40 SWAP1 KECCAK256 SLOAD PUSH2 0x268F SWAP1 DUP5 PUSH2 0x1A8D JUMP JUMPDEST PUSH1 0x9 SLOAD PUSH1 0x1 PUSH1 0x1 PUSH1 0xA0 SHL SUB AND PUSH1 0x0 SWAP1 DUP2 MSTORE PUSH1 0x4 PUSH1 0x20 MSTORE PUSH1 0x40 SWAP1 KECCAK256 SSTORE POP POP POP JUMP JUMPDEST PUSH1 0xB SLOAD PUSH2 0x26BC SWAP1 DUP4 PUSH2 0x1AF4 JUMP JUMPDEST PUSH1 0xB SSTORE PUSH1 0xC SLOAD PUSH2 0x26CC SWAP1 DUP3 PUSH2 0x1A8D JUMP JUMPDEST PUSH1 0xC SSTORE POP POP JUMP JUMPDEST DUP1 CALLDATALOAD DUP1 ISZERO ISZERO DUP2 EQ PUSH2 0x26E3 JUMPI PUSH1 0x0 DUP1 REVERT JUMPDEST SWAP2 SWAP1 POP JUMP JUMPDEST PUSH1 0x0 PUSH1 0x20 DUP3 DUP5 SUB SLT ISZERO PUSH2 0x26F9 JUMPI DUP1 DUP2 REVERT JUMPDEST DUP2 CALLDATALOAD PUSH2 0xA4D DUP2 PUSH2 0x2B0A JUMP JUMPDEST PUSH1 0x0 PUSH1 0x20 DUP3 DUP5 SUB SLT ISZERO PUSH2 0x2715 JUMPI DUP1 DUP2 REVERT JUMPDEST DUP2 MLOAD PUSH2 0xA4D DUP2 PUSH2 0x2B0A JUMP JUMPDEST PUSH1 0x0 DUP1 PUSH1 0x40 DUP4 DUP6 SUB SLT ISZERO PUSH2 0x2732 JUMPI DUP1 DUP2 REVERT JUMPDEST DUP3 CALLDATALOAD PUSH2 0x273D DUP2 PUSH2 0x2B0A JUMP JUMPDEST SWAP2 POP PUSH1 0x20 DUP4 ADD CALLDATALOAD PUSH2 0x274D DUP2 PUSH2 0x2B0A JUMP JUMPDEST DUP1 SWAP2 POP POP SWAP3 POP SWAP3 SWAP1 POP JUMP JUMPDEST PUSH1 0x0 DUP1 PUSH1 0x0 PUSH1 0x60 DUP5 DUP7 SUB SLT ISZERO PUSH2 0x276C JUMPI DUP1 DUP2 REVERT JUMPDEST DUP4 CALLDATALOAD PUSH2 0x2777 DUP2 PUSH2 0x2B0A JUMP JUMPDEST SWAP3 POP PUSH1 0x20 DUP5 ADD CALLDATALOAD PUSH2 0x2787 DUP2 PUSH2 0x2B0A JUMP JUMPDEST SWAP3 SWAP6 SWAP3 SWAP5 POP POP POP PUSH1 0x40 SWAP2 SWAP1 SWAP2 ADD CALLDATALOAD SWAP1 JUMP JUMPDEST PUSH1 0x0 DUP1 PUSH1 0x40 DUP4 DUP6 SUB SLT ISZERO PUSH2 0x27AA JUMPI DUP2 DUP3 REVERT JUMPDEST DUP3 CALLDATALOAD PUSH2 0x27B5 DUP2 PUSH2 0x2B0A JUMP JUMPDEST SWAP5 PUSH1 0x20 SWAP4 SWAP1 SWAP4 ADD CALLDATALOAD SWAP4 POP POP POP JUMP JUMPDEST PUSH1 0x0 PUSH1 0x20 DUP3 DUP5 SUB SLT ISZERO PUSH2 0x27D4 JUMPI DUP1 DUP2 REVERT JUMPDEST PUSH2 0xA4D DUP3 PUSH2 0x26D3 JUMP JUMPDEST PUSH1 0x0 PUSH1 0x20 DUP3 DUP5 SUB SLT ISZERO PUSH2 0x27EE JUMPI DUP1 DUP2 REVERT JUMPDEST POP CALLDATALOAD SWAP2 SWAP1 POP JUMP JUMPDEST PUSH1 0x0 DUP1 PUSH1 0x40 DUP4 DUP6 SUB SLT ISZERO PUSH2 0x2807 JUMPI DUP2 DUP3 REVERT JUMPDEST DUP3 CALLDATALOAD SWAP2 POP PUSH2 0x2817 PUSH1 0x20 DUP5 ADD PUSH2 0x26D3 JUMP JUMPDEST SWAP1 POP SWAP3 POP SWAP3 SWAP1 POP JUMP JUMPDEST PUSH1 0x0 DUP1 PUSH1 0x0 PUSH1 0x60 DUP5 DUP7 SUB SLT ISZERO PUSH2 0x2834 JUMPI DUP3 DUP4 REVERT JUMPDEST DUP4 MLOAD SWAP3 POP PUSH1 0x20 DUP5 ADD MLOAD SWAP2 POP PUSH1 0x40 DUP5 ADD MLOAD SWAP1 POP SWAP3 POP SWAP3 POP SWAP3 JUMP JUMPDEST PUSH1 0x0 PUSH1 0x20 DUP1 DUP4 MSTORE DUP4 MLOAD DUP1 DUP3 DUP6 ADD MSTORE DUP3 JUMPDEST DUP2 DUP2 LT ISZERO PUSH2 0x2879 JUMPI DUP6 DUP2 ADD DUP4 ADD MLOAD DUP6 DUP3 ADD PUSH1 0x40 ADD MSTORE DUP3 ADD PUSH2 0x285D JUMP JUMPDEST DUP2 DUP2 GT ISZERO PUSH2 0x288A JUMPI DUP4 PUSH1 0x40 DUP4 DUP8 ADD ADD MSTORE JUMPDEST POP PUSH1 0x1F ADD PUSH1 0x1F NOT AND SWAP3 SWAP1 SWAP3 ADD PUSH1 0x40 ADD SWAP4 SWAP3 POP POP POP JUMP JUMPDEST PUSH1 0x20 DUP1 DUP3 MSTORE DUP2 DUP2 ADD MSTORE PUSH32 0x4F776E61626C653A2063616C6C6572206973206E6F7420746865206F776E6572 PUSH1 0x40 DUP3 ADD MSTORE PUSH1 0x60 ADD SWAP1 JUMP JUMPDEST PUSH1 0x0 PUSH1 0xA0 DUP3 ADD DUP8 DUP4 MSTORE PUSH1 0x20 DUP8 DUP2 DUP6 ADD MSTORE PUSH1 0xA0 PUSH1 0x40 DUP6 ADD MSTORE DUP2 DUP8 MLOAD DUP1 DUP5 MSTORE PUSH1 0xC0 DUP7 ADD SWAP2 POP DUP3 DUP10 ADD SWAP4 POP DUP5 JUMPDEST DUP2 DUP2 LT ISZERO PUSH2 0x2924 JUMPI DUP5 MLOAD PUSH1 0x1 PUSH1 0x1 PUSH1 0xA0 SHL SUB AND DUP4 MSTORE SWAP4 DUP4 ADD SWAP4 SWAP2 DUP4 ADD SWAP2 PUSH1 0x1 ADD PUSH2 0x28FF JUMP JUMPDEST POP POP PUSH1 0x1 PUSH1 0x1 PUSH1 0xA0 SHL SUB SWAP7 SWAP1 SWAP7 AND PUSH1 0x60 DUP6 ADD MSTORE POP POP POP PUSH1 0x80 ADD MSTORE SWAP4 SWAP3 POP POP POP JUMP JUMPDEST PUSH1 0x0 DUP3 NOT DUP3 GT ISZERO PUSH2 0x2958 JUMPI PUSH2 0x2958 PUSH2 0x2AF4 JUMP JUMPDEST POP ADD SWAP1 JUMP JUMPDEST PUSH1 0x0 DUP3 PUSH2 0x2978 JUMPI PUSH4 0x4E487B71 PUSH1 0xE0 SHL DUP2 MSTORE PUSH1 0x12 PUSH1 0x4 MSTORE PUSH1 0x24 DUP2 REVERT JUMPDEST POP DIV SWAP1 JUMP JUMPDEST PUSH1 0x1 DUP2 DUP2 JUMPDEST DUP1 DUP6 GT ISZERO PUSH2 0x29B8 JUMPI DUP2 PUSH1 0x0 NOT DIV DUP3 GT ISZERO PUSH2 0x299E JUMPI PUSH2 0x299E PUSH2 0x2AF4 JUMP JUMPDEST DUP1 DUP6 AND ISZERO PUSH2 0x29AB JUMPI SWAP2 DUP2 MUL SWAP2 JUMPDEST SWAP4 DUP5 SHR SWAP4 SWAP1 DUP1 MUL SWAP1 PUSH2 0x2982 JUMP JUMPDEST POP SWAP3 POP SWAP3 SWAP1 POP JUMP JUMPDEST PUSH1 0x0 PUSH2 0xA4D DUP4 DUP4 PUSH1 0x0 DUP3 PUSH2 0x29D6 JUMPI POP PUSH1 0x1 PUSH2 0x915 JUMP JUMPDEST DUP2 PUSH2 0x29E3 JUMPI POP PUSH1 0x0 PUSH2 0x915 JUMP JUMPDEST DUP2 PUSH1 0x1 DUP2 EQ PUSH2 0x29F9 JUMPI PUSH1 0x2 DUP2 EQ PUSH2 0x2A03 JUMPI PUSH2 0x2A1F JUMP JUMPDEST PUSH1 0x1 SWAP2 POP POP PUSH2 0x915 JUMP JUMPDEST PUSH1 0xFF DUP5 GT ISZERO PUSH2 0x2A14 JUMPI PUSH2 0x2A14 PUSH2 0x2AF4 JUMP JUMPDEST POP POP PUSH1 0x1 DUP3 SHL PUSH2 0x915 JUMP JUMPDEST POP PUSH1 0x20 DUP4 LT PUSH2 0x133 DUP4 LT AND PUSH1 0x4E DUP5 LT PUSH1 0xB DUP5 LT AND OR ISZERO PUSH2 0x2A42 JUMPI POP DUP2 DUP2 EXP PUSH2 0x915 JUMP JUMPDEST PUSH2 0x2A4C DUP4 DUP4 PUSH2 0x297D JUMP JUMPDEST DUP1 PUSH1 0x0 NOT DIV DUP3 GT ISZERO PUSH2 0x2A60 JUMPI PUSH2 0x2A60 PUSH2 0x2AF4 JUMP JUMPDEST MUL SWAP4 SWAP3 POP POP POP JUMP JUMPDEST PUSH1 0x0 DUP2 PUSH1 0x0 NOT DIV DUP4 GT DUP3 ISZERO ISZERO AND ISZERO PUSH2 0x2A82 JUMPI PUSH2 0x2A82 PUSH2 0x2AF4 JUMP JUMPDEST POP MUL SWAP1 JUMP JUMPDEST PUSH1 0x0 DUP3 DUP3 LT ISZERO PUSH2 0x2A99 JUMPI PUSH2 0x2A99 PUSH2 0x2AF4 JUMP JUMPDEST POP SUB SWAP1 JUMP JUMPDEST PUSH1 0x1 DUP2 DUP2 SHR SWAP1 DUP3 AND DUP1 PUSH2 0x2AB2 JUMPI PUSH1 0x7F DUP3 AND SWAP2 POP JUMPDEST PUSH1 0x20 DUP3 LT DUP2 EQ ISZERO PUSH2 0x2AD3 JUMPI PUSH4 0x4E487B71 PUSH1 0xE0 SHL PUSH1 0x0 MSTORE PUSH1 0x22 PUSH1 0x4 MSTORE PUSH1 0x24 PUSH1 0x0 REVERT JUMPDEST POP SWAP2 SWAP1 POP JUMP JUMPDEST PUSH1 0x0 PUSH1 0x0 NOT DUP3 EQ ISZERO PUSH2 0x2AED JUMPI PUSH2 0x2AED PUSH2 0x2AF4 JUMP JUMPDEST POP PUSH1 0x1 ADD SWAP1 JUMP JUMPDEST PUSH4 0x4E487B71 PUSH1 0xE0 SHL PUSH1 0x0 MSTORE PUSH1 0x11 PUSH1 0x4 MSTORE PUSH1 0x24 PUSH1 0x0 REVERT JUMPDEST PUSH1 0x1 PUSH1 0x1 PUSH1 0xA0 SHL SUB DUP2 AND DUP2 EQ PUSH2 0x2B1F JUMPI PUSH1 0x0 DUP1 REVERT JUMPDEST POP JUMP INVALID GASLIMIT MSTORE NUMBER ORIGIN ADDRESS GASPRICE KECCAK256 PUSH21 0x72616E7366657220616D6F756E7420657863656564 PUSH20 0x20616C6C6F77616E63658BE0079C531659141344 0xCD 0x1F 0xD0 LOG4 CALLCODE DUP5 NOT 0x49 PUSH32 0x9722A3DAAFE3B4186F6B6457E045524332303A2064656372656173656420616C PUSH13 0x6F77616E63652062656C6F7720 PUSH27 0x65726FA26469706673582212204957F42EE76DDEB40EB9243306C1 0xC4 SWAP1 ADDRESS DIFFICULTY 0xEB 0xEF 0xEC 0x4C PUSH14 0x798F922EA987E6DBAC64736F6C63 NUMBER STOP ADDMOD DIV STOP CALLER "
				},
				"gasEstimates": {
					"creation": {
						"codeDepositCost": "2241000",
						"executionCost": "infinite",
						"totalCost": "infinite"
					},
					"external": {
						"_devFee()": "1062",
						"_devWalletAddress()": "1148",
						"_liquidityFee()": "1041",
						"_lockTime()": "1107",
						"_maxTxAmount()": "1129",
						"_owner()": "1126",
						"_taxFee()": "1085",
						"allowance(address,address)": "infinite",
						"approve(address,uint256)": "22582",
						"balanceOf(address)": "infinite",
						"decimals()": "1126",
						"decreaseAllowance(address,uint256)": "infinite",
						"deliver(uint256)": "infinite",
						"excludeFromFee(address)": "22089",
						"excludeFromReward(address)": "infinite",
						"includeInFee(address)": "22148",
						"includeInReward(address)": "infinite",
						"increaseAllowance(address,uint256)": "23639",
						"isExcludedFromFee(address)": "1398",
						"isExcludedFromReward(address)": "1288",
						"lock(uint256)": "64370",
						"name()": "infinite",
						"numTokensSellToAddToLiquidity()": "1150",
						"owner()": "1098",
						"reflectionFromToken(uint256,bool)": "infinite",
						"renounceOwnership()": "24288",
						"setDevFeePercent(uint256)": "21110",
						"setDevWalletAddress(address)": "22118",
						"setLiquidityFeePercent(uint256)": "21153",
						"setMaxTxPercent(uint256)": "infinite",
						"setNumTokensSellToAddToLiquidity(uint256)": "21196",
						"setRouterAddress(address)": "infinite",
						"setSwapAndLiquifyEnabled(bool)": "23202",
						"setTaxFeePercent(uint256)": "21111",
						"swapAndLiquifyEnabled()": "1138",
						"symbol()": "infinite",
						"tokenFromReflection(uint256)": "infinite",
						"totalFees()": "1116",
						"totalSupply()": "1060",
						"transfer(address,uint256)": "infinite",
						"transferFrom(address,address,uint256)": "infinite",
						"transferOwnership(address)": "24581",
						"uniswapV2Pair()": "1126",
						"uniswapV2Router()": "1083",
						"unlock()": "26823"
					},
					"internal": {
						"_approve(address,address,uint256)": "infinite",
						"_getCurrentSupply()": "infinite",
						"_getRValues(uint256,uint256,uint256,uint256,uint256)": "infinite",
						"_getRate()": "infinite",
						"_getTValues(uint256)": "infinite",
						"_getValues(uint256)": "infinite",
						"_reflectFee(uint256,uint256)": "infinite",
						"_takeDev(uint256)": "infinite",
						"_takeLiquidity(uint256)": "infinite",
						"_tokenTransfer(address,address,uint256,bool)": "infinite",
						"_transfer(address,address,uint256)": "infinite",
						"_transferBothExcluded(address,address,uint256)": "infinite",
						"_transferFromExcluded(address,address,uint256)": "infinite",
						"_transferStandard(address,address,uint256)": "infinite",
						"_transferToExcluded(address,address,uint256)": "infinite",
						"addLiquidity(uint256,uint256)": "infinite",
						"calculateDevFee(uint256)": "infinite",
						"calculateLiquidityFee(uint256)": "infinite",
						"calculateTaxFee(uint256)": "infinite",
						"removeAllFee()": "infinite",
						"restoreAllFee()": "infinite",
						"swapAndLiquify(uint256)": "infinite",
						"swapTokensForEth(uint256)": "infinite"
					}
				},
				"methodIdentifiers": {
					"_devFee()": "aa45026b",
					"_devWalletAddress()": "b425bac3",
					"_liquidityFee()": "6bc87c3a",
					"_lockTime()": "79af25a6",
					"_maxTxAmount()": "7d1db4a5",
					"_owner()": "b2bdfa7b",
					"_taxFee()": "3b124fe7",
					"allowance(address,address)": "dd62ed3e",
					"approve(address,uint256)": "095ea7b3",
					"balanceOf(address)": "70a08231",
					"decimals()": "313ce567",
					"decreaseAllowance(address,uint256)": "a457c2d7",
					"deliver(uint256)": "3bd5d173",
					"excludeFromFee(address)": "437823ec",
					"excludeFromReward(address)": "52390c02",
					"includeInFee(address)": "ea2f0b37",
					"includeInReward(address)": "3685d419",
					"increaseAllowance(address,uint256)": "39509351",
					"isExcludedFromFee(address)": "5342acb4",
					"isExcludedFromReward(address)": "88f82020",
					"lock(uint256)": "dd467064",
					"name()": "06fdde03",
					"numTokensSellToAddToLiquidity()": "d12a7688",
					"owner()": "8da5cb5b",
					"reflectionFromToken(uint256,bool)": "4549b039",
					"renounceOwnership()": "715018a6",
					"setDevFeePercent(uint256)": "379e2919",
					"setDevWalletAddress(address)": "120a0612",
					"setLiquidityFeePercent(uint256)": "8ee88c53",
					"setMaxTxPercent(uint256)": "d543dbeb",
					"setNumTokensSellToAddToLiquidity(uint256)": "f0f165af",
					"setRouterAddress(address)": "41cb87fc",
					"setSwapAndLiquifyEnabled(bool)": "c49b9a80",
					"setTaxFeePercent(uint256)": "061c82d0",
					"swapAndLiquifyEnabled()": "4a74bb02",
					"symbol()": "95d89b41",
					"tokenFromReflection(uint256)": "2d838119",
					"totalFees()": "13114a9d",
					"totalSupply()": "18160ddd",
					"transfer(address,uint256)": "a9059cbb",
					"transferFrom(address,address,uint256)": "23b872dd",
					"transferOwnership(address)": "f2fde38b",
					"uniswapV2Pair()": "49bd5a5e",
					"uniswapV2Router()": "1694505e",
					"unlock()": "a69df4b5"
				}
			},
			"storageLayout": {
				"storage": [
					{
						"astId": 672,
						"contract": "asd.sol:CoinToken",
						"label": "_owner",
						"offset": 0,
						"slot": "0",
						"type": "t_address"
					},
					{
						"astId": 674,
						"contract": "asd.sol:CoinToken",
						"label": "_previousOwner",
						"offset": 0,
						"slot": "1",
						"type": "t_address"
					},
					{
						"astId": 676,
						"contract": "asd.sol:CoinToken",
						"label": "_lockTime",
						"offset": 0,
						"slot": "2",
						"type": "t_uint256"
					},
					{
						"astId": 1537,
						"contract": "asd.sol:CoinToken",
						"label": "_rOwned",
						"offset": 0,
						"slot": "3",
						"type": "t_mapping(t_address,t_uint256)"
					},
					{
						"astId": 1541,
						"contract": "asd.sol:CoinToken",
						"label": "_tOwned",
						"offset": 0,
						"slot": "4",
						"type": "t_mapping(t_address,t_uint256)"
					},
					{
						"astId": 1547,
						"contract": "asd.sol:CoinToken",
						"label": "_allowances",
						"offset": 0,
						"slot": "5",
						"type": "t_mapping(t_address,t_mapping(t_address,t_uint256))"
					},
					{
						"astId": 1551,
						"contract": "asd.sol:CoinToken",
						"label": "_isExcludedFromFee",
						"offset": 0,
						"slot": "6",
						"type": "t_mapping(t_address,t_bool)"
					},
					{
						"astId": 1555,
						"contract": "asd.sol:CoinToken",
						"label": "_isExcluded",
						"offset": 0,
						"slot": "7",
						"type": "t_mapping(t_address,t_bool)"
					},
					{
						"astId": 1558,
						"contract": "asd.sol:CoinToken",
						"label": "_excluded",
						"offset": 0,
						"slot": "8",
						"type": "t_array(t_address)dyn_storage"
					},
					{
						"astId": 1560,
						"contract": "asd.sol:CoinToken",
						"label": "_devWalletAddress",
						"offset": 0,
						"slot": "9",
						"type": "t_address"
					},
					{
						"astId": 1569,
						"contract": "asd.sol:CoinToken",
						"label": "_tTotal",
						"offset": 0,
						"slot": "10",
						"type": "t_uint256"
					},
					{
						"astId": 1571,
						"contract": "asd.sol:CoinToken",
						"label": "_rTotal",
						"offset": 0,
						"slot": "11",
						"type": "t_uint256"
					},
					{
						"astId": 1573,
						"contract": "asd.sol:CoinToken",
						"label": "_tFeeTotal",
						"offset": 0,
						"slot": "12",
						"type": "t_uint256"
					},
					{
						"astId": 1575,
						"contract": "asd.sol:CoinToken",
						"label": "_name",
						"offset": 0,
						"slot": "13",
						"type": "t_string_storage"
					},
					{
						"astId": 1577,
						"contract": "asd.sol:CoinToken",
						"label": "_symbol",
						"offset": 0,
						"slot": "14",
						"type": "t_string_storage"
					},
					{
						"astId": 1579,
						"contract": "asd.sol:CoinToken",
						"label": "_decimals",
						"offset": 0,
						"slot": "15",
						"type": "t_uint256"
					},
					{
						"astId": 1581,
						"contract": "asd.sol:CoinToken",
						"label": "_taxFee",
						"offset": 0,
						"slot": "16",
						"type": "t_uint256"
					},
					{
						"astId": 1583,
						"contract": "asd.sol:CoinToken",
						"label": "_previousTaxFee",
						"offset": 0,
						"slot": "17",
						"type": "t_uint256"
					},
					{
						"astId": 1585,
						"contract": "asd.sol:CoinToken",
						"label": "_devFee",
						"offset": 0,
						"slot": "18",
						"type": "t_uint256"
					},
					{
						"astId": 1587,
						"contract": "asd.sol:CoinToken",
						"label": "_previousDevFee",
						"offset": 0,
						"slot": "19",
						"type": "t_uint256"
					},
					{
						"astId": 1589,
						"contract": "asd.sol:CoinToken",
						"label": "_liquidityFee",
						"offset": 0,
						"slot": "20",
						"type": "t_uint256"
					},
					{
						"astId": 1591,
						"contract": "asd.sol:CoinToken",
						"label": "_previousLiquidityFee",
						"offset": 0,
						"slot": "21",
						"type": "t_uint256"
					},
					{
						"astId": 1594,
						"contract": "asd.sol:CoinToken",
						"label": "uniswapV2Router",
						"offset": 0,
						"slot": "22",
						"type": "t_contract(IUniswapV2Router02)1521"
					},
					{
						"astId": 1596,
						"contract": "asd.sol:CoinToken",
						"label": "uniswapV2Pair",
						"offset": 0,
						"slot": "23",
						"type": "t_address"
					},
					{
						"astId": 1598,
						"contract": "asd.sol:CoinToken",
						"label": "inSwapAndLiquify",
						"offset": 20,
						"slot": "23",
						"type": "t_bool"
					},
					{
						"astId": 1601,
						"contract": "asd.sol:CoinToken",
						"label": "swapAndLiquifyEnabled",
						"offset": 21,
						"slot": "23",
						"type": "t_bool"
					},
					{
						"astId": 1603,
						"contract": "asd.sol:CoinToken",
						"label": "_maxTxAmount",
						"offset": 0,
						"slot": "24",
						"type": "t_uint256"
					},
					{
						"astId": 1605,
						"contract": "asd.sol:CoinToken",
						"label": "numTokensSellToAddToLiquidity",
						"offset": 0,
						"slot": "25",
						"type": "t_uint256"
					}
				],
				"types": {
					"t_address": {
						"encoding": "inplace",
						"label": "address",
						"numberOfBytes": "20"
					},
					"t_array(t_address)dyn_storage": {
						"base": "t_address",
						"encoding": "dynamic_array",
						"label": "address[]",
						"numberOfBytes": "32"
					},
					"t_bool": {
						"encoding": "inplace",
						"label": "bool",
						"numberOfBytes": "1"
					},
					"t_contract(IUniswapV2Router02)1521": {
						"encoding": "inplace",
						"label": "contract IUniswapV2Router02",
						"numberOfBytes": "20"
					},
					"t_mapping(t_address,t_bool)": {
						"encoding": "mapping",
						"key": "t_address",
						"label": "mapping(address => bool)",
						"numberOfBytes": "32",
						"value": "t_bool"
					},
					"t_mapping(t_address,t_mapping(t_address,t_uint256))": {
						"encoding": "mapping",
						"key": "t_address",
						"label": "mapping(address => mapping(address => uint256))",
						"numberOfBytes": "32",
						"value": "t_mapping(t_address,t_uint256)"
					},
					"t_mapping(t_address,t_uint256)": {
						"encoding": "mapping",
						"key": "t_address",
						"label": "mapping(address => uint256)",
						"numberOfBytes": "32",
						"value": "t_uint256"
					},
					"t_string_storage": {
						"encoding": "bytes",
						"label": "string",
						"numberOfBytes": "32"
					},
					"t_uint256": {
						"encoding": "inplace",
						"label": "uint256",
						"numberOfBytes": "32"
					}
				}
			},
			"userdoc": {
				"kind": "user",
				"methods": {},
				"version": 1
			}
		}
	}
}