{
	"data": {
		"bytecode": {
			"linkReferences": {},
			"object": "60806040526008805462ff0000191690556200001e6009600a620005f9565b620000309065065dd0837000620006e4565b600a819055620000439060001962000720565b620000519060001962000706565b600b556200008b6064620000776002600a54620004c360201b62001e201790919060201c565b620004d860201b62001e2c1790919060201c565b600c55620000b16064620000776001600a54620004c360201b62001e201790919060201c565b600d55620000c26009600a620005f9565b620000d49065065dd0837000620006e4565b600e5569017b7883c06916600000600f55670de0b6b3a7640000601055601180546001600160a01b0319908116734e15720fd1d1235fefa9e41841c40edc27b67712179091556012805490911673d7ded18b77dd9306d596a9294a6bff70c6a1b29b1790556040805160a080820183526014808352602080840182905260288486018190526060808601849052600060809687018190526013859055848055601583905560168590556017819055875195860188528486529285018490529584018190529483018290529190920181905260188290556019829055601a92909255601b55601c55348015620001c857600080fd5b506040516200459038038062004590833981016040819052620001eb9162000549565b620001ff620001f9620004e6565b620004ea565b60008190506000816001600160a01b031663c45a01556040518163ffffffff1660e01b815260040160206040518083038186803b1580156200024057600080fd5b505afa15801562000255573d6000803e3d6000fd5b505050506040513d601f19601f820116820180604052508101906200027b919062000549565b6001600160a01b031663c9c6539630846001600160a01b031663ad5c46486040518163ffffffff1660e01b815260040160206040518083038186803b158015620002c457600080fd5b505afa158015620002d9573d6000803e3d6000fd5b505050506040513d601f19601f82011682018060405250810190620002ff919062000549565b6040518363ffffffff1660e01b81526004016200031e92919062000572565b602060405180830381600087803b1580156200033957600080fd5b505af11580156200034e573d6000803e3d6000fd5b505050506040513d601f19601f8201168201806040525081019062000374919062000549565b60088054600160201b600160c01b0319166401000000006001600160a01b038681169190910291909117909155600980546001600160a01b031916918316919091179055600b5490915060016000620003cc6200053a565b6001600160a01b03166001600160a01b0316815260200190815260200160002081905550600160046000620004066200053a60201b60201c565b6001600160a01b03908116825260208083019390935260409182016000908120805495151560ff199687161790556011548216815260049093528183208054851660019081179091556012549091168352912080549092161790556200046b6200053a565b6001600160a01b031660006001600160a01b03167fddf252ad1be2c89b69c2b068fc378daa952ba7f163c4a11628f55a4df523b3ef600a54604051620004b291906200058c565b60405180910390a350505062000763565b6000620004d18284620006e4565b9392505050565b6000620004d1828462000595565b3390565b600080546001600160a01b038381166001600160a01b0319831681178455604051919092169283917f8be0079c531659141344cd1fd0a4f28419497f9722a3daafe3b4186f6b6457e09190a35050565b6000546001600160a01b031690565b6000602082840312156200055b578081fd5b81516001600160a01b0381168114620004d1578182fd5b6001600160a01b0392831681529116602082015260400190565b90815260200190565b600082620005a757620005a76200074d565b500490565b80825b6001808611620005c05750620005f0565b818704821115620005d557620005d562000737565b80861615620005e357918102915b9490941c938002620005af565b94509492505050565b6000620004d160001960ff8516846000826200061857506001620004d1565b816200062757506000620004d1565b81600181146200064057600281146200064b576200067f565b6001915050620004d1565b60ff8411156200065f576200065f62000737565b6001841b91508482111562000678576200067862000737565b50620004d1565b5060208310610133831016604e8410600b8410161715620006b7575081810a83811115620006b157620006b162000737565b620004d1565b620006c68484846001620005ac565b808604821115620006db57620006db62000737565b02949350505050565b600081600019048311821515161562000701576200070162000737565b500290565b6000828210156200071b576200071b62000737565b500390565b6000826200073257620007326200074d565b500690565b634e487b7160e01b600052601160045260246000fd5b634e487b7160e01b600052601260045260246000fd5b613e1d80620007736000396000f3fe6080604052600436106103545760003560e01c806370e50241116101c6578063a8aa1b31116100f7578063e116554511610095578063ea4cfe121161006f578063ea4cfe1214610936578063f2fde38b1461094b578063f887ea401461096b578063f9e08969146109805761035b565b8063e1165545146108e1578063e2f4560514610901578063ea2f0b37146109165761035b565b8063abeef102116100d1578063abeef10214610861578063cdebfea314610881578063d257b34f146108a1578063dd62ed3e146108c15761035b565b8063a8aa1b311461080c578063a9059cbb14610821578063aacebbe3146108415761035b565b80638da5cb5b1161016457806395d89b411161013e57806395d89b41146107ad5780639ba5e4d5146107c2578063a457c2d7146107d7578063a5ece941146107f75761035b565b80638da5cb5b146107635780638f9a55c014610778578063924de9b71461078d5761035b565b806382bf293c116101a057806382bf293c146106ee57806382d2a4bb1461070e57806388e765ff1461072e57806388f82020146107435761035b565b806370e50241146106af578063715018a6146106c45780637688c584146106d95761035b565b80633bbac579116102a057806352390c021161023e57806366d602ae1161021857806366d602ae1461064557806368ca61451461065a5780636ddd17131461067a57806370a082311461068f5761035b565b806352390c02146105f05780635342acb4146106105780636053a0e3146106305761035b565b8063437823ec1161027a578063437823ec1461057b578063441b1d301461059b5780634549b039146105bb5780634ada218b146105db5761035b565b80633bbac5791461051b5780633bd5d1731461053b57806341cb87fc1461055b5761035b565b806327c8f8351161030d57806330d5d18d116102e757806330d5d18d14610499578063313ce567146104b95780633685d419146104db57806339509351146104fb5761035b565b806327c8f83514610442578063293230b8146104645780632d838119146104795761035b565b8063042cfb511461036057806306fdde0314610382578063095ea7b3146103ad57806318160ddd146103da57806318a90c44146103fc57806323b872dd146104225761035b565b3661035b57005b600080fd5b34801561036c57600080fd5b5061038061037b3660046132d2565b6109a0565b005b34801561038e57600080fd5b50610397610ae1565b6040516103a491906135f3565b60405180910390f35b3480156103b957600080fd5b506103cd6103c83660046133af565b610b05565b6040516103a491906135b3565b3480156103e657600080fd5b506103ef610b23565b6040516103a49190613b4b565b34801561040857600080fd5b50610411610b29565b6040516103a4959493929190613b90565b34801561042e57600080fd5b506103cd61043d366004613342565b610b3b565b34801561044e57600080fd5b50610457610bc3565b6040516103a49190613531565b34801561047057600080fd5b50610380610bc9565b34801561048557600080fd5b506103ef610494366004613412565b610c5a565b3480156104a557600080fd5b506103806104b43660046132d2565b610c9d565b3480156104c557600080fd5b506104ce610d33565b6040516103a49190613bb3565b3480156104e757600080fd5b506103806104f63660046132d2565b610d38565b34801561050757600080fd5b506103cd6105163660046133af565b610f09565b34801561052757600080fd5b506103cd6105363660046132d2565b610f58565b34801561054757600080fd5b50610380610556366004613412565b610f76565b34801561056757600080fd5b506103806105763660046132d2565b61103c565b34801561058757600080fd5b506103806105963660046132d2565b6113e2565b3480156105a757600080fd5b506103806105b6366004613412565b611445565b3480156105c757600080fd5b506103ef6105d6366004613442565b6114d1565b3480156105e757600080fd5b506103cd61152f565b3480156105fc57600080fd5b5061038061060b3660046132d2565b611538565b34801561061c57600080fd5b506103cd61062b3660046132d2565b611670565b34801561063c57600080fd5b506103cd61168e565b34801561065157600080fd5b506103ef61169d565b34801561066657600080fd5b506103806106753660046134b4565b6116a3565b34801561068657600080fd5b506103cd61172b565b34801561069b57600080fd5b506103ef6106aa3660046132d2565b611739565b3480156106bb57600080fd5b506103ef61179b565b3480156106d057600080fd5b506103806117a1565b3480156106e557600080fd5b506104116117ec565b3480156106fa57600080fd5b50610380610709366004613412565b6117fe565b34801561071a57600080fd5b50610380610729366004613412565b611863565b34801561073a57600080fd5b506103ef6118b9565b34801561074f57600080fd5b506103cd61075e3660046132d2565b6118bf565b34801561076f57600080fd5b506104576118dd565b34801561078457600080fd5b506103ef6118ec565b34801561079957600080fd5b506103806107a83660046133da565b6118f2565b3480156107b957600080fd5b5061039761194b565b3480156107ce57600080fd5b5061041161196b565b3480156107e357600080fd5b506103cd6107f23660046133af565b61197d565b34801561080357600080fd5b506104576119e5565b34801561081857600080fd5b506104576119f4565b34801561082d57600080fd5b506103cd61083c3660046133af565b611a03565b34801561084d57600080fd5b5061038061085c3660046132d2565b611a17565b34801561086d57600080fd5b5061038061087c3660046134b4565b611aad565b34801561088d57600080fd5b5061038061089c366004613466565b611b35565b3480156108ad57600080fd5b506103806108bc366004613412565b611b9a565b3480156108cd57600080fd5b506103ef6108dc36600461330a565b611bf5565b3480156108ed57600080fd5b506103806108fc366004613382565b611c20565b34801561090d57600080fd5b506103ef611cc9565b34801561092257600080fd5b506103806109313660046132d2565b611ccf565b34801561094257600080fd5b50610457611d2f565b34801561095757600080fd5b506103806109663660046132d2565b611d3e565b34801561097757600080fd5b50610457611daf565b34801561098c57600080fd5b5061038061099b3660046133da565b611dc5565b6109a8611e38565b6001600160a01b03166109b96118dd565b6001600160a01b0316146109e85760405162461bcd60e51b81526004016109df9061392d565b60405180910390fd5b6040516370a0823160e01b81526001600160a01b0382169063a9059cbb90339083906370a0823190610a1e903090600401613531565b60206040518083038186803b158015610a3657600080fd5b505afa158015610a4a573d6000803e3d6000fd5b505050506040513d601f19601f82011682018060405250810190610a6e919061342a565b6040518363ffffffff1660e01b8152600401610a8b92919061355f565b602060405180830381600087803b158015610aa557600080fd5b505af1158015610ab9573d6000803e3d6000fd5b505050506040513d601f19601f82011682018060405250810190610add91906133f6565b5050565b60408051808201909152600a8152694a657373696520496e7560b01b602082015290565b6000610b19610b12611e38565b8484611e3c565b5060015b92915050565b600a5490565b601854601954601a54601b54601c5485565b6000610b48848484611ef0565b610bb884610b54611e38565b610bb385604051806060016040528060288152602001613d9b602891396001600160a01b038a16600090815260036020526040812090610b92611e38565b6001600160a01b031681526020810191909152604001600020549190612321565b611e3c565b5060015b9392505050565b61dead81565b610bd1611e38565b6001600160a01b0316610be26118dd565b6001600160a01b031614610c085760405162461bcd60e51b81526004016109df9061392d565b6008805461ff001960ff19909116600117166101001790556040517fb3da2db3dfc3778f99852546c6e9ab39ec253f9de7b0847afec61bd27878e92390610c50904290613b4b565b60405180910390a1565b6000600b54821115610c7e5760405162461bcd60e51b81526004016109df9061373c565b6000610c8861234d565b9050610c948184613bd9565b9150505b919050565b610ca5611e38565b6001600160a01b0316610cb66118dd565b6001600160a01b031614610cdc5760405162461bcd60e51b81526004016109df9061392d565b6012546001600160a01b0382811691161415610d0a5760405162461bcd60e51b81526004016109df906139ab565b601280546001600160a01b0319166001600160a01b039283161790819055166000526004602052565b600990565b610d40611e38565b6001600160a01b0316610d516118dd565b6001600160a01b031614610d775760405162461bcd60e51b81526004016109df9061392d565b6001600160a01b03811660009081526005602052604090205460ff16610daf5760405162461bcd60e51b81526004016109df90613888565b60005b600754811015610add57816001600160a01b031660078281548110610de757634e487b7160e01b600052603260045260246000fd5b6000918252602090912001546001600160a01b03161415610ef75760078054610e1290600190613d2f565b81548110610e3057634e487b7160e01b600052603260045260246000fd5b600091825260209091200154600780546001600160a01b039092169183908110610e6a57634e487b7160e01b600052603260045260246000fd5b600091825260208083209190910180546001600160a01b0319166001600160a01b039485161790559184168152600282526040808220829055600590925220805460ff191690556007805480610ed057634e487b7160e01b600052603160045260246000fd5b600082815260209020810160001990810180546001600160a01b0319169055019055610add565b80610f0181613d46565b915050610db2565b6000610b19610f16611e38565b848460036000610f24611e38565b6001600160a01b03908116825260208083019390935260409182016000908120918b1681529252902054610bb39190613bc1565b6001600160a01b031660009081526006602052604090205460ff1690565b6000610f80611e38565b6001600160a01b03811660009081526005602052604090205490915060ff1615610fbc5760405162461bcd60e51b81526004016109df90613abe565b6000610fcb8360016000612370565b80516001600160a01b038416600090815260016020526040902054919250610ff391906123bf565b6001600160a01b0383166000908152600160205260409020558051600b5461101a916123bf565b600b55601d8054849190600090611032908490613bc1565b9091555050505050565b611044611e38565b6001600160a01b03166110556118dd565b6001600160a01b03161461107b5760405162461bcd60e51b81526004016109df9061392d565b6008546001600160a01b03828116600160201b90920416141561109d57600080fd5b60008190506000816001600160a01b031663c45a01556040518163ffffffff1660e01b815260040160206040518083038186803b1580156110dd57600080fd5b505afa1580156110f1573d6000803e3d6000fd5b505050506040513d601f19601f8201168201806040525081019061111591906132ee565b6001600160a01b031663e6a4390530846001600160a01b031663ad5c46486040518163ffffffff1660e01b815260040160206040518083038186803b15801561115d57600080fd5b505afa158015611171573d6000803e3d6000fd5b505050506040513d601f19601f8201168201806040525081019061119591906132ee565b6040518363ffffffff1660e01b81526004016111b2929190613545565b60206040518083038186803b1580156111ca57600080fd5b505afa1580156111de573d6000803e3d6000fd5b505050506040513d601f19601f8201168201806040525081019061120291906132ee565b90506001600160a01b03811661139757816001600160a01b031663c45a01556040518163ffffffff1660e01b815260040160206040518083038186803b15801561124b57600080fd5b505afa15801561125f573d6000803e3d6000fd5b505050506040513d601f19601f8201168201806040525081019061128391906132ee565b6001600160a01b031663c9c6539630846001600160a01b031663ad5c46486040518163ffffffff1660e01b815260040160206040518083038186803b1580156112cb57600080fd5b505afa1580156112df573d6000803e3d6000fd5b505050506040513d601f19601f8201168201806040525081019061130391906132ee565b6040518363ffffffff1660e01b8152600401611320929190613545565b602060405180830381600087803b15801561133a57600080fd5b505af115801561134e573d6000803e3d6000fd5b505050506040513d601f19601f8201168201806040525081019061137291906132ee565b600980546001600160a01b0319166001600160a01b03929092169190911790556113b3565b600980546001600160a01b0319166001600160a01b0383161790555b50600880546001600160a01b03909216600160201b02640100000000600160c01b031990921691909117905550565b6113ea611e38565b6001600160a01b03166113fb6118dd565b6001600160a01b0316146114215760405162461bcd60e51b81526004016109df9061392d565b6001600160a01b03166000908152600460205260409020805460ff19166001179055565b61144d611e38565b6001600160a01b031661145e6118dd565b6001600160a01b0316146114845760405162461bcd60e51b81526004016109df9061392d565b804710156114a45760405162461bcd60e51b81526004016109df906138f6565b604051339082156108fc029083906000818181858888f19350505050158015610add573d6000803e3d6000fd5b6000600a548311156114f55760405162461bcd60e51b81526004016109df906138bf565b816115135760006115098460016000612370565b519150610b1d9050565b60006115228460016000612370565b602001519150610b1d9050565b60085460ff1681565b611540611e38565b6001600160a01b03166115516118dd565b6001600160a01b0316146115775760405162461bcd60e51b81526004016109df9061392d565b6001600160a01b03811660009081526005602052604090205460ff16156115b05760405162461bcd60e51b81526004016109df9061380e565b6001600160a01b0381166000908152600160205260409020541561160a576001600160a01b0381166000908152600160205260409020546115f090610c5a565b6001600160a01b0382166000908152600260205260409020555b6001600160a01b03166000818152600560205260408120805460ff191660019081179091556007805491820181559091527fa66cc928b5edb82af9bd49922954155ab7b0942694bea4ce44661d9a8736c6880180546001600160a01b0319169091179055565b6001600160a01b031660009081526004602052604090205460ff1690565b60085462010000900460ff1681565b600d5481565b6116ab611e38565b6001600160a01b03166116bc6118dd565b6001600160a01b0316146116e25760405162461bcd60e51b81526004016109df9061392d565b601385905560148490556015839055601682905560178190556040517f846206d6c3449ac0b05841dfb88bf28b55aef00f96152490c69c96238048de1590600090a15050505050565b600854610100900460ff1681565b6001600160a01b03811660009081526005602052604081205460ff161561177957506001600160a01b038116600090815260026020526040902054610c98565b6001600160a01b038216600090815260016020526040902054610b1d90610c5a565b60105481565b6117a9611e38565b6001600160a01b03166117ba6118dd565b6001600160a01b0316146117e05760405162461bcd60e51b81526004016109df9061392d565b6117ea60006123cb565b565b60135460145460155460165460175485565b611806611e38565b6001600160a01b03166118176118dd565b6001600160a01b03161461183d5760405162461bcd60e51b81526004016109df9061392d565b61185d606461185783600a54611e2090919063ffffffff16565b90611e2c565b600f5550565b61186b611e38565b6001600160a01b031661187c6118dd565b6001600160a01b0316146118a25760405162461bcd60e51b81526004016109df9061392d565b6118b38166038d7ea4c68000613d10565b60105550565b600c5481565b6001600160a01b031660009081526005602052604090205460ff1690565b6000546001600160a01b031690565b600f5481565b6118fa611e38565b6001600160a01b031661190b6118dd565b6001600160a01b0316146119315760405162461bcd60e51b81526004016109df9061392d565b600880549115156101000261ff0019909216919091179055565b6040805180820190915260068152654a657373696560d01b602082015290565b601d54601e54601f5460205460215485565b6000610b1961198a611e38565b84610bb385604051806060016040528060258152602001613dc360259139600360006119b4611e38565b6001600160a01b03908116825260208083019390935260409182016000908120918d16815292529020549190612321565b6011546001600160a01b031681565b6009546001600160a01b031681565b6000610b19611a10611e38565b8484611ef0565b611a1f611e38565b6001600160a01b0316611a306118dd565b6001600160a01b031614611a565760405162461bcd60e51b81526004016109df9061392d565b6011546001600160a01b0382811691161415611a845760405162461bcd60e51b81526004016109df906139ab565b601180546001600160a01b0319166001600160a01b039283161790819055166000526004602052565b611ab5611e38565b6001600160a01b0316611ac66118dd565b6001600160a01b031614611aec5760405162461bcd60e51b81526004016109df9061392d565b60188590556019849055601a839055601b829055601c8190556040517f846206d6c3449ac0b05841dfb88bf28b55aef00f96152490c69c96238048de1590600090a15050505050565b611b3d611e38565b6001600160a01b0316611b4e6118dd565b6001600160a01b031614611b745760405162461bcd60e51b81526004016109df9061392d565b611b8282633b9aca00613d10565b600c55611b9381633b9aca00613d10565b600d555050565b611ba2611e38565b6001600160a01b0316611bb36118dd565b6001600160a01b031614611bd95760405162461bcd60e51b81526004016109df9061392d565b611be56009600a613c3f565b611bef9082613d10565b600e5550565b6001600160a01b03918216600090815260036020908152604080832093909416825291909152205490565b611c28611e38565b6001600160a01b0316611c396118dd565b6001600160a01b031614611c5f5760405162461bcd60e51b81526004016109df9061392d565b6001600160a01b03821660009081526006602052604090205460ff1615158115151415611c9e5760405162461bcd60e51b81526004016109df906136c0565b6001600160a01b03919091166000908152600660205260409020805460ff1916911515919091179055565b600e5481565b611cd7611e38565b6001600160a01b0316611ce86118dd565b6001600160a01b031614611d0e5760405162461bcd60e51b81526004016109df9061392d565b6001600160a01b03166000908152600460205260409020805460ff19169055565b6012546001600160a01b031681565b611d46611e38565b6001600160a01b0316611d576118dd565b6001600160a01b031614611d7d5760405162461bcd60e51b81526004016109df9061392d565b6001600160a01b038116611da35760405162461bcd60e51b81526004016109df90613786565b611dac816123cb565b50565b600854600160201b90046001600160a01b031681565b611dcd611e38565b6001600160a01b0316611dde6118dd565b6001600160a01b031614611e045760405162461bcd60e51b81526004016109df9061392d565b60088054911515620100000262ff000019909216919091179055565b6000610bbc8284613d10565b6000610bbc8284613bd9565b3390565b6001600160a01b038316611e625760405162461bcd60e51b81526004016109df90613a43565b6001600160a01b038216611e885760405162461bcd60e51b81526004016109df906137cc565b6001600160a01b0380841660008181526003602090815260408083209487168084529490915290819020849055517f8c5be1e5ebec7d5bd14f71427d1e84f3dd0314c0f7b2291e5b200ac8c7c3b92590611ee3908590613b4b565b60405180910390a3505050565b6001600160a01b038316611f165760405162461bcd60e51b81526004016109df906139fe565b6001600160a01b038216611f3c5760405162461bcd60e51b81526004016109df90613646565b60008111611f5c5760405162461bcd60e51b81526004016109df90613962565b611f6583611739565b811115611f845760405162461bcd60e51b81526004016109df906136eb565b6001600160a01b03831660009081526006602052604090205460ff16158015611fc657506001600160a01b03821660009081526006602052604090205460ff16155b611fe25760405162461bcd60e51b81526004016109df906139d7565b6001600160a01b03831660009081526004602052604090205460ff1615801561202457506001600160a01b03821660009081526004602052604090205460ff16155b1561204b5760085460ff1661204b5760405162461bcd60e51b81526004016109df90613689565b6120536118dd565b6001600160a01b0316836001600160a01b03161415801561208d57506120776118dd565b6001600160a01b0316826001600160a01b031614155b80156120a157506001600160a01b03821615155b80156120b857506001600160a01b03821661dead14155b80156120d157506009546001600160a01b038481169116145b1561213357600c548111156120f85760405162461bcd60e51b81526004016109df90613a87565b600061210383611739565b600f549091506121138383613bc1565b11156121315760405162461bcd60e51b81526004016109df90613845565b505b61213b6118dd565b6001600160a01b0316836001600160a01b031614158015612175575061215f6118dd565b6001600160a01b0316826001600160a01b031614155b801561218957506001600160a01b03821615155b80156121a057506001600160a01b03821661dead14155b80156121b957506009546001600160a01b038481169116145b156121e057600d548111156121e05760405162461bcd60e51b81526004016109df90613b0a565b60006121eb30611739565b600e54600854919250821015906301000000900460ff161580156122165750600854610100900460ff165b801561221f5750805b801561223957506009546001600160a01b03868116911614155b156122ac57600854479062010000900460ff16801561225f5750670de0b6b3a764000081115b801561227857506009546001600160a01b038681169116145b1561229f5760105481111561228c57506010545b61229f61229a826064611e2c565b61241b565b6122aa600e5461244d565b505b6009546000906001600160a01b03868116911614156122c9575060015b6001600160a01b0386166000908152600460205260409020546123199087908790879060ff168061231257506001600160a01b03891660009081526004602052604090205460ff165b158561258a565b505050505050565b600081848411156123455760405162461bcd60e51b81526004016109df91906135f3565b505050900390565b600080600061235a61284b565b90925090506123698183613bd9565b9250505090565b61237861326a565b612383848484612a09565b905061239881858561239361234d565b612c20565b60c088015260a0870152608086015260608501526040840152602083015281529392505050565b6000610bbc8284613d2f565b600080546001600160a01b038381166001600160a01b0319831681178455604051919092169283917f8be0079c531659141344cd1fd0a4f28419497f9722a3daafe3b4186f6b6457e09190a35050565b6008805463ff00000019166301000000179055801561243d5761243d81612cf6565b506008805463ff00000019169055565b6008805463ff000000191663010000001790556014546017546016546000929161247691613bc1565b6124809190613bc1565b61248b906002613d10565b9050600081601360030154846124a19190613d10565b6124ab9190613bd9565b905060006124b98285613d2f565b9050476124c582612e8e565b60006124d18247613d2f565b6016549091506000906124e49087613d2f565b6124ee9083613bd9565b6016549091506000906125019083613d10565b90508015612513576125138682613032565b601454600090612524846002613d10565b61252e9190613d10565b90508015612572576012546040516001600160a01b039091169082156108fc029083906000818181858888f19350505050158015612570573d6000803e3d6000fd5b505b50506008805463ff0000001916905550505050505050565b6000612597848484612370565b6001600160a01b03871660009081526005602052604090205490915060ff16156125f9576001600160a01b0386166000908152600260205260409020546125df908590613d2f565b6001600160a01b0387166000908152600260205260409020555b6001600160a01b03851660009081526005602052604090205460ff161561265c5760e08101516001600160a01b0386166000908152600260205260409020546126429190613bc1565b6001600160a01b0386166000908152600260205260409020555b80516001600160a01b0387166000908152600160205260409020546126819190613d2f565b6001600160a01b03808816600090815260016020908152604080832094909455840151918816815291909120546126b89190613bc1565b6001600160a01b03861660009081526001602052604090819020919091558101516101008201516126e991906130f2565b6126fc8160600151826101200151613127565b61270f8160a0015182610160015161319d565b61272281608001518261014001516131b2565b6127358160c00151826101800151613249565b846001600160a01b0316866001600160a01b03167fddf252ad1be2c89b69c2b068fc378daa952ba7f163c4a11628f55a4df523b3ef8360e0015160405161277c9190613b4b565b60405180910390a3306001600160a01b0316866001600160a01b03167fddf252ad1be2c89b69c2b068fc378daa952ba7f163c4a11628f55a4df523b3ef8361018001518461012001518561016001516127d59190613bc1565b6127df9190613bc1565b6040516127ec9190613b4b565b60405180910390a36011546101408201516040516001600160a01b03928316928916917fddf252ad1be2c89b69c2b068fc378daa952ba7f163c4a11628f55a4df523b3ef9161283b9190613b4b565b60405180910390a3505050505050565b600b54600a546000918291825b6007548110156129d65782600160006007848154811061288857634e487b7160e01b600052603260045260246000fd5b60009182526020808320909101546001600160a01b03168352820192909252604001902054118061290157508160026000600784815481106128da57634e487b7160e01b600052603260045260246000fd5b60009182526020808320909101546001600160a01b03168352820192909252604001902054115b1561291857600b54600a5494509450505050612a05565b600160006007838154811061293d57634e487b7160e01b600052603260045260246000fd5b60009182526020808320909101546001600160a01b0316835282019290925260400190205461296c9084613d2f565b9250600260006007838154811061299357634e487b7160e01b600052603260045260246000fd5b60009182526020808320909101546001600160a01b031683528201929092526040019020546129c29083613d2f565b9150806129ce81613d46565b915050612858565b50600a54600b546129e79190613bd9565b8210156129ff57600b54600a54935093505050612a05565b90925090505b9091565b612a1161326a565b82612a225760e08101849052610bbc565b8115612b23576018546103e890612a399086613d10565b612a439190613bd9565b6101008201526019546103e890612a5a9086613d10565b612a649190613bd9565b610120820152601a546103e890612a7b9086613d10565b612a859190613bd9565b610140820152601b546103e890612a9c9086613d10565b612aa69190613bd9565b610160820152601c546103e890612abd9086613d10565b612ac79190613bd9565b6101808201819052610160820151610140830151610120840151610100850151612af19089613d2f565b612afb9190613d2f565b612b059190613d2f565b612b0f9190613d2f565b612b199190613d2f565b60e0820152610bbc565b6013546103e890612b349086613d10565b612b3e9190613bd9565b6101008201526014546103e890612b559086613d10565b612b5f9190613bd9565b6101208201526015546103e890612b769086613d10565b612b809190613bd9565b6101408201526016546103e890612b979086613d10565b612ba19190613bd9565b6101608201526017546103e890612bb89086613d10565b612bc29190613bd9565b6101808201819052610160820151610140830151610120840151610100850151612bec9089613d2f565b612bf69190613d2f565b612c009190613d2f565b612c0a9190613d2f565b612c149190613d2f565b60e08201529392505050565b6000808080808080612c32888b613d10565b965088612c5057508594506000935083925082915081905080612ce8565b878b6101000151612c619190613d10565b9450878b6101200151612c749190613d10565b9350878b6101400151612c879190613d10565b9250878b6101600151612c9a9190613d10565b9150878b6101800151612cad9190613d10565b905080828486612cbd898c613d2f565b612cc79190613d2f565b612cd19190613d2f565b612cdb9190613d2f565b612ce59190613d2f565b95505b949950949992975094509450565b604080516002808252606082018352600092602083019080368337019050509050600860049054906101000a90046001600160a01b03166001600160a01b031663ad5c46486040518163ffffffff1660e01b815260040160206040518083038186803b158015612d6557600080fd5b505afa158015612d79573d6000803e3d6000fd5b505050506040513d601f19601f82011682018060405250810190612d9d91906132ee565b81600081518110612dbe57634e487b7160e01b600052603260045260246000fd5b60200260200101906001600160a01b031690816001600160a01b0316815250503081600181518110612e0057634e487b7160e01b600052603260045260246000fd5b6001600160a01b039283166020918202929092010152600854600160201b90041663b6f9de958360008461dead612e394261012c61325e565b6040518663ffffffff1660e01b8152600401612e5894939291906135be565b6000604051808303818588803b158015612e7157600080fd5b505af1158015612e85573d6000803e3d6000fd5b50505050505050565b6040805160028082526060820183526000926020830190803683370190505090503081600081518110612ed157634e487b7160e01b600052603260045260246000fd5b60200260200101906001600160a01b031690816001600160a01b031681525050600860049054906101000a90046001600160a01b03166001600160a01b031663ad5c46486040518163ffffffff1660e01b815260040160206040518083038186803b158015612f3f57600080fd5b505afa158015612f53573d6000803e3d6000fd5b505050506040513d601f19601f82011682018060405250810190612f7791906132ee565b81600181518110612f9857634e487b7160e01b600052603260045260246000fd5b6001600160a01b039283166020918202929092010152600854612fc5913091600160201b90041684611e3c565b60085460405163791ac94760e01b8152600160201b9091046001600160a01b03169063791ac94790613004908590600090869030904290600401613b54565b600060405180830381600087803b15801561301e57600080fd5b505af1158015612319573d6000803e3d6000fd5b600854613051903090600160201b90046001600160a01b031684611e3c565b600854600160201b90046001600160a01b031663f305d7198230856000806130776118dd565b426040518863ffffffff1660e01b815260040161309996959493929190613578565b6060604051808303818588803b1580156130b257600080fd5b505af11580156130c6573d6000803e3d6000fd5b50505050506040513d601f19601f820116820180604052508101906130eb9190613487565b5050505050565b81600b60008282546131049190613d2f565b9091555050601d805482919060009061311e908490613bc1565b90915550505050565b80601d600101600082825461313c9190613bc1565b90915550503060009081526005602052604090205460ff161561317e573060009081526002602052604081208054839290613178908490613bc1565b90915550505b306000908152600160205260408120805484929061311e908490613bc1565b80601d600301600082825461313c9190613bc1565b80601d60020160008282546131c79190613bc1565b90915550506011546001600160a01b031660009081526005602052604090205460ff161561321f576011546001600160a01b031660009081526002602052604081208054839290613219908490613bc1565b90915550505b6011546001600160a01b03166000908152600160205260408120805484929061311e908490613bc1565b80601d600401600082825461313c9190613bc1565b6000610bbc8284613bc1565b604051806101a00160405280600081526020016000815260200160008152602001600081526020016000815260200160008152602001600081526020016000815260200160008152602001600081526020016000815260200160008152602001600081525090565b6000602082840312156132e3578081fd5b8135610bbc81613d77565b6000602082840312156132ff578081fd5b8151610bbc81613d77565b6000806040838503121561331c578081fd5b823561332781613d77565b9150602083013561333781613d77565b809150509250929050565b600080600060608486031215613356578081fd5b833561336181613d77565b9250602084013561337181613d77565b929592945050506040919091013590565b60008060408385031215613394578182fd5b823561339f81613d77565b9150602083013561333781613d8c565b600080604083850312156133c1578182fd5b82356133cc81613d77565b946020939093013593505050565b6000602082840312156133eb578081fd5b8135610bbc81613d8c565b600060208284031215613407578081fd5b8151610bbc81613d8c565b600060208284031215613423578081fd5b5035919050565b60006020828403121561343b578081fd5b5051919050565b60008060408385031215613454578182fd5b82359150602083013561333781613d8c565b60008060408385031215613478578182fd5b50508035926020909101359150565b60008060006060848603121561349b578283fd5b8351925060208401519150604084015190509250925092565b600080600080600060a086880312156134cb578081fd5b505083359560208501359550604085013594606081013594506080013592509050565b6000815180845260208085019450808401835b838110156135265781516001600160a01b031687529582019590820190600101613501565b509495945050505050565b6001600160a01b0391909116815260200190565b6001600160a01b0392831681529116602082015260400190565b6001600160a01b03929092168252602082015260400190565b6001600160a01b039687168152602081019590955260408501939093526060840191909152909216608082015260a081019190915260c00190565b901515815260200190565b6000858252608060208301526135d760808301866134ee565b6001600160a01b03949094166040830152506060015292915050565b6000602080835283518082850152825b8181101561361f57858101830151858201604001528201613603565b818111156136305783604083870101525b50601f01601f1916929092016040019392505050565b60208082526023908201527f45524332303a207472616e7366657220746f20746865207a65726f206164647260408201526265737360e81b606082015260800190565b6020808252601a908201527f54726164696e67206973206e6f7420656e61626c656420796574000000000000604082015260600190565b60208082526011908201527015985b1d5948185b1c9958591e481cd95d607a1b604082015260600190565b60208082526031908201527f596f752061726520747279696e6720746f207472616e73666572206d6f7265206040820152707468616e20796f75722062616c616e636560781b606082015260800190565b6020808252602a908201527f416d6f756e74206d757374206265206c657373207468616e20746f74616c207260408201526965666c656374696f6e7360b01b606082015260800190565b60208082526026908201527f4f776e61626c653a206e6577206f776e657220697320746865207a65726f206160408201526564647265737360d01b606082015260800190565b60208082526022908201527f45524332303a20617070726f766520746f20746865207a65726f206164647265604082015261737360f01b606082015260800190565b6020808252601b908201527f4163636f756e7420697320616c7265616479206578636c756465640000000000604082015260600190565b60208082526023908201527f45786365656473206d6178696d756d2077616c6c657420746f6b656e20616d6f6040820152621d5b9d60ea1b606082015260800190565b60208082526017908201527f4163636f756e74206973206e6f74206578636c75646564000000000000000000604082015260600190565b6020808252601f908201527f416d6f756e74206d757374206265206c657373207468616e20737570706c7900604082015260600190565b60208082526018908201527f696e73756666696369656e7420424e422062616c616e63650000000000000000604082015260600190565b6020808252818101527f4f776e61626c653a2063616c6c6572206973206e6f7420746865206f776e6572604082015260600190565b60208082526029908201527f5472616e7366657220616d6f756e74206d7573742062652067726561746572206040820152687468616e207a65726f60b81b606082015260800190565b60208082526012908201527115d85b1b195d08185b1c9958591e481cd95d60721b604082015260600190565b6020808252600d908201526c4675636b20796f7520426f747360981b604082015260600190565b60208082526025908201527f45524332303a207472616e736665722066726f6d20746865207a65726f206164604082015264647265737360d81b606082015260800190565b60208082526024908201527f45524332303a20617070726f76652066726f6d20746865207a65726f206164646040820152637265737360e01b606082015260800190565b6020808252601e908201527f796f752061726520657863656564696e67206d6178427579416d6f756e740000604082015260600190565b6020808252602c908201527f4578636c75646564206164647265737365732063616e6e6f742063616c6c207460408201526b3434b990333ab731ba34b7b760a11b606082015260800190565b60208082526021908201527f416d6f756e7420697320657863656564696e67206d617853656c6c416d6f756e6040820152601d60fa1b606082015260800190565b90815260200190565b600086825285602083015260a06040830152613b7360a08301866134ee565b6001600160a01b0394909416606083015250608001529392505050565b948552602085019390935260408401919091526060830152608082015260a00190565b60ff91909116815260200190565b60008219821115613bd457613bd4613d61565b500190565b600082613bf457634e487b7160e01b81526012600452602481fd5b500490565b80825b6001808611613c0b5750613c36565b818704821115613c1d57613c1d613d61565b80861615613c2a57918102915b9490941c938002613bfc565b94509492505050565b6000610bbc60001960ff851684600082613c5b57506001610bbc565b81613c6857506000610bbc565b8160018114613c7e5760028114613c8857613cb5565b6001915050610bbc565b60ff841115613c9957613c99613d61565b6001841b915084821115613caf57613caf613d61565b50610bbc565b5060208310610133831016604e8410600b8410161715613ce8575081810a83811115613ce357613ce3613d61565b610bbc565b613cf58484846001613bf9565b808604821115613d0757613d07613d61565b02949350505050565b6000816000190483118215151615613d2a57613d2a613d61565b500290565b600082821015613d4157613d41613d61565b500390565b6000600019821415613d5a57613d5a613d61565b5060010190565b634e487b7160e01b600052601160045260246000fd5b6001600160a01b0381168114611dac57600080fd5b8015158114611dac57600080fdfe45524332303a207472616e7366657220616d6f756e74206578636565647320616c6c6f77616e636545524332303a2064656372656173656420616c6c6f77616e63652062656c6f77207a65726fa26469706673582212200c68e0b46e3f433a4eae83dc7b60f0d477871a726d7a5f8bb1b5aece0936537464736f6c63430008000033",
			"opcodes": "PUSH1 0x80 PUSH1 0x40 MSTORE PUSH1 0x8 DUP1 SLOAD PUSH3 0xFF0000 NOT AND SWAP1 SSTORE PUSH3 0x1E PUSH1 0x9 PUSH1 0xA PUSH3 0x5F9 JUMP JUMPDEST PUSH3 0x30 SWAP1 PUSH6 0x65DD0837000 PUSH3 0x6E4 JUMP JUMPDEST PUSH1 0xA DUP2 SWAP1 SSTORE PUSH3 0x43 SWAP1 PUSH1 0x0 NOT PUSH3 0x720 JUMP JUMPDEST PUSH3 0x51 SWAP1 PUSH1 0x0 NOT PUSH3 0x706 JUMP JUMPDEST PUSH1 0xB SSTORE PUSH3 0x8B PUSH1 0x64 PUSH3 0x77 PUSH1 0x2 PUSH1 0xA SLOAD PUSH3 0x4C3 PUSH1 0x20 SHL PUSH3 0x1E20 OR SWAP1 SWAP2 SWAP1 PUSH1 0x20 SHR JUMP JUMPDEST PUSH3 0x4D8 PUSH1 0x20 SHL PUSH3 0x1E2C OR SWAP1 SWAP2 SWAP1 PUSH1 0x20 SHR JUMP JUMPDEST PUSH1 0xC SSTORE PUSH3 0xB1 PUSH1 0x64 PUSH3 0x77 PUSH1 0x1 PUSH1 0xA SLOAD PUSH3 0x4C3 PUSH1 0x20 SHL PUSH3 0x1E20 OR SWAP1 SWAP2 SWAP1 PUSH1 0x20 SHR JUMP JUMPDEST PUSH1 0xD SSTORE PUSH3 0xC2 PUSH1 0x9 PUSH1 0xA PUSH3 0x5F9 JUMP JUMPDEST PUSH3 0xD4 SWAP1 PUSH6 0x65DD0837000 PUSH3 0x6E4 JUMP JUMPDEST PUSH1 0xE SSTORE PUSH10 0x17B7883C06916600000 PUSH1 0xF SSTORE PUSH8 0xDE0B6B3A7640000 PUSH1 0x10 SSTORE PUSH1 0x11 DUP1 SLOAD PUSH1 0x1 PUSH1 0x1 PUSH1 0xA0 SHL SUB NOT SWAP1 DUP2 AND PUSH20 0x4E15720FD1D1235FEFA9E41841C40EDC27B67712 OR SWAP1 SWAP2 SSTORE PUSH1 0x12 DUP1 SLOAD SWAP1 SWAP2 AND PUSH20 0xD7DED18B77DD9306D596A9294A6BFF70C6A1B29B OR SWAP1 SSTORE PUSH1 0x40 DUP1 MLOAD PUSH1 0xA0 DUP1 DUP3 ADD DUP4 MSTORE PUSH1 0x14 DUP1 DUP4 MSTORE PUSH1 0x20 DUP1 DUP5 ADD DUP3 SWAP1 MSTORE PUSH1 0x28 DUP5 DUP7 ADD DUP2 SWAP1 MSTORE PUSH1 0x60 DUP1 DUP7 ADD DUP5 SWAP1 MSTORE PUSH1 0x0 PUSH1 0x80 SWAP7 DUP8 ADD DUP2 SWAP1 MSTORE PUSH1 0x13 DUP6 SWAP1 SSTORE DUP5 DUP1 SSTORE PUSH1 0x15 DUP4 SWAP1 SSTORE PUSH1 0x16 DUP6 SWAP1 SSTORE PUSH1 0x17 DUP2 SWAP1 SSTORE DUP8 MLOAD SWAP6 DUP7 ADD DUP9 MSTORE DUP5 DUP7 MSTORE SWAP3 DUP6 ADD DUP5 SWAP1 MSTORE SWAP6 DUP5 ADD DUP2 SWAP1 MSTORE SWAP5 DUP4 ADD DUP3 SWAP1 MSTORE SWAP2 SWAP1 SWAP3 ADD DUP2 SWAP1 MSTORE PUSH1 0x18 DUP3 SWAP1 SSTORE PUSH1 0x19 DUP3 SWAP1 SSTORE PUSH1 0x1A SWAP3 SWAP1 SWAP3 SSTORE PUSH1 0x1B SSTORE PUSH1 0x1C SSTORE CALLVALUE DUP1 ISZERO PUSH3 0x1C8 JUMPI PUSH1 0x0 DUP1 REVERT JUMPDEST POP PUSH1 0x40 MLOAD PUSH3 0x4590 CODESIZE SUB DUP1 PUSH3 0x4590 DUP4 CODECOPY DUP2 ADD PUSH1 0x40 DUP2 SWAP1 MSTORE PUSH3 0x1EB SWAP2 PUSH3 0x549 JUMP JUMPDEST PUSH3 0x1FF PUSH3 0x1F9 PUSH3 0x4E6 JUMP JUMPDEST PUSH3 0x4EA JUMP JUMPDEST PUSH1 0x0 DUP2 SWAP1 POP PUSH1 0x0 DUP2 PUSH1 0x1 PUSH1 0x1 PUSH1 0xA0 SHL SUB AND PUSH4 0xC45A0155 PUSH1 0x40 MLOAD DUP2 PUSH4 0xFFFFFFFF AND PUSH1 0xE0 SHL DUP2 MSTORE PUSH1 0x4 ADD PUSH1 0x20 PUSH1 0x40 MLOAD DUP1 DUP4 SUB DUP2 DUP7 DUP1 EXTCODESIZE ISZERO DUP1 ISZERO PUSH3 0x240 JUMPI PUSH1 0x0 DUP1 REVERT JUMPDEST POP GAS STATICCALL ISZERO DUP1 ISZERO PUSH3 0x255 JUMPI RETURNDATASIZE PUSH1 0x0 DUP1 RETURNDATACOPY RETURNDATASIZE PUSH1 0x0 REVERT JUMPDEST POP POP POP POP PUSH1 0x40 MLOAD RETURNDATASIZE PUSH1 0x1F NOT PUSH1 0x1F DUP3 ADD AND DUP3 ADD DUP1 PUSH1 0x40 MSTORE POP DUP2 ADD SWAP1 PUSH3 0x27B SWAP2 SWAP1 PUSH3 0x549 JUMP JUMPDEST PUSH1 0x1 PUSH1 0x1 PUSH1 0xA0 SHL SUB AND PUSH4 0xC9C65396 ADDRESS DUP5 PUSH1 0x1 PUSH1 0x1 PUSH1 0xA0 SHL SUB AND PUSH4 0xAD5C4648 PUSH1 0x40 MLOAD DUP2 PUSH4 0xFFFFFFFF AND PUSH1 0xE0 SHL DUP2 MSTORE PUSH1 0x4 ADD PUSH1 0x20 PUSH1 0x40 MLOAD DUP1 DUP4 SUB DUP2 DUP7 DUP1 EXTCODESIZE ISZERO DUP1 ISZERO PUSH3 0x2C4 JUMPI PUSH1 0x0 DUP1 REVERT JUMPDEST POP GAS STATICCALL ISZERO DUP1 ISZERO PUSH3 0x2D9 JUMPI RETURNDATASIZE PUSH1 0x0 DUP1 RETURNDATACOPY RETURNDATASIZE PUSH1 0x0 REVERT JUMPDEST POP POP POP POP PUSH1 0x40 MLOAD RETURNDATASIZE PUSH1 0x1F NOT PUSH1 0x1F DUP3 ADD AND DUP3 ADD DUP1 PUSH1 0x40 MSTORE POP DUP2 ADD SWAP1 PUSH3 0x2FF SWAP2 SWAP1 PUSH3 0x549 JUMP JUMPDEST PUSH1 0x40 MLOAD DUP4 PUSH4 0xFFFFFFFF AND PUSH1 0xE0 SHL DUP2 MSTORE PUSH1 0x4 ADD PUSH3 0x31E SWAP3 SWAP2 SWAP1 PUSH3 0x572 JUMP JUMPDEST PUSH1 0x20 PUSH1 0x40 MLOAD DUP1 DUP4 SUB DUP2 PUSH1 0x0 DUP8 DUP1 EXTCODESIZE ISZERO DUP1 ISZERO PUSH3 0x339 JUMPI PUSH1 0x0 DUP1 REVERT JUMPDEST POP GAS CALL ISZERO DUP1 ISZERO PUSH3 0x34E JUMPI RETURNDATASIZE PUSH1 0x0 DUP1 RETURNDATACOPY RETURNDATASIZE PUSH1 0x0 REVERT JUMPDEST POP POP POP POP PUSH1 0x40 MLOAD RETURNDATASIZE PUSH1 0x1F NOT PUSH1 0x1F DUP3 ADD AND DUP3 ADD DUP1 PUSH1 0x40 MSTORE POP DUP2 ADD SWAP1 PUSH3 0x374 SWAP2 SWAP1 PUSH3 0x549 JUMP JUMPDEST PUSH1 0x8 DUP1 SLOAD PUSH1 0x1 PUSH1 0x20 SHL PUSH1 0x1 PUSH1 0xC0 SHL SUB NOT AND PUSH5 0x100000000 PUSH1 0x1 PUSH1 0x1 PUSH1 0xA0 SHL SUB DUP7 DUP2 AND SWAP2 SWAP1 SWAP2 MUL SWAP2 SWAP1 SWAP2 OR SWAP1 SWAP2 SSTORE PUSH1 0x9 DUP1 SLOAD PUSH1 0x1 PUSH1 0x1 PUSH1 0xA0 SHL SUB NOT AND SWAP2 DUP4 AND SWAP2 SWAP1 SWAP2 OR SWAP1 SSTORE PUSH1 0xB SLOAD SWAP1 SWAP2 POP PUSH1 0x1 PUSH1 0x0 PUSH3 0x3CC PUSH3 0x53A JUMP JUMPDEST PUSH1 0x1 PUSH1 0x1 PUSH1 0xA0 SHL SUB AND PUSH1 0x1 PUSH1 0x1 PUSH1 0xA0 SHL SUB AND DUP2 MSTORE PUSH1 0x20 ADD SWAP1 DUP2 MSTORE PUSH1 0x20 ADD PUSH1 0x0 KECCAK256 DUP2 SWAP1 SSTORE POP PUSH1 0x1 PUSH1 0x4 PUSH1 0x0 PUSH3 0x406 PUSH3 0x53A PUSH1 0x20 SHL PUSH1 0x20 SHR JUMP JUMPDEST PUSH1 0x1 PUSH1 0x1 PUSH1 0xA0 SHL SUB SWAP1 DUP2 AND DUP3 MSTORE PUSH1 0x20 DUP1 DUP4 ADD SWAP4 SWAP1 SWAP4 MSTORE PUSH1 0x40 SWAP2 DUP3 ADD PUSH1 0x0 SWAP1 DUP2 KECCAK256 DUP1 SLOAD SWAP6 ISZERO ISZERO PUSH1 0xFF NOT SWAP7 DUP8 AND OR SWAP1 SSTORE PUSH1 0x11 SLOAD DUP3 AND DUP2 MSTORE PUSH1 0x4 SWAP1 SWAP4 MSTORE DUP2 DUP4 KECCAK256 DUP1 SLOAD DUP6 AND PUSH1 0x1 SWAP1 DUP2 OR SWAP1 SWAP2 SSTORE PUSH1 0x12 SLOAD SWAP1 SWAP2 AND DUP4 MSTORE SWAP2 KECCAK256 DUP1 SLOAD SWAP1 SWAP3 AND OR SWAP1 SSTORE PUSH3 0x46B PUSH3 0x53A JUMP JUMPDEST PUSH1 0x1 PUSH1 0x1 PUSH1 0xA0 SHL SUB AND PUSH1 0x0 PUSH1 0x1 PUSH1 0x1 PUSH1 0xA0 SHL SUB AND PUSH32 0xDDF252AD1BE2C89B69C2B068FC378DAA952BA7F163C4A11628F55A4DF523B3EF PUSH1 0xA SLOAD PUSH1 0x40 MLOAD PUSH3 0x4B2 SWAP2 SWAP1 PUSH3 0x58C JUMP JUMPDEST PUSH1 0x40 MLOAD DUP1 SWAP2 SUB SWAP1 LOG3 POP POP POP PUSH3 0x763 JUMP JUMPDEST PUSH1 0x0 PUSH3 0x4D1 DUP3 DUP5 PUSH3 0x6E4 JUMP JUMPDEST SWAP4 SWAP3 POP POP POP JUMP JUMPDEST PUSH1 0x0 PUSH3 0x4D1 DUP3 DUP5 PUSH3 0x595 JUMP JUMPDEST CALLER SWAP1 JUMP JUMPDEST PUSH1 0x0 DUP1 SLOAD PUSH1 0x1 PUSH1 0x1 PUSH1 0xA0 SHL SUB DUP4 DUP2 AND PUSH1 0x1 PUSH1 0x1 PUSH1 0xA0 SHL SUB NOT DUP4 AND DUP2 OR DUP5 SSTORE PUSH1 0x40 MLOAD SWAP2 SWAP1 SWAP3 AND SWAP3 DUP4 SWAP2 PUSH32 0x8BE0079C531659141344CD1FD0A4F28419497F9722A3DAAFE3B4186F6B6457E0 SWAP2 SWAP1 LOG3 POP POP JUMP JUMPDEST PUSH1 0x0 SLOAD PUSH1 0x1 PUSH1 0x1 PUSH1 0xA0 SHL SUB AND SWAP1 JUMP JUMPDEST PUSH1 0x0 PUSH1 0x20 DUP3 DUP5 SUB SLT ISZERO PUSH3 0x55B JUMPI DUP1 DUP2 REVERT JUMPDEST DUP2 MLOAD PUSH1 0x1 PUSH1 0x1 PUSH1 0xA0 SHL SUB DUP2 AND DUP2 EQ PUSH3 0x4D1 JUMPI DUP2 DUP3 REVERT JUMPDEST PUSH1 0x1 PUSH1 0x1 PUSH1 0xA0 SHL SUB SWAP3 DUP4 AND DUP2 MSTORE SWAP2 AND PUSH1 0x20 DUP3 ADD MSTORE PUSH1 0x40 ADD SWAP1 JUMP JUMPDEST SWAP1 DUP2 MSTORE PUSH1 0x20 ADD SWAP1 JUMP JUMPDEST PUSH1 0x0 DUP3 PUSH3 0x5A7 JUMPI PUSH3 0x5A7 PUSH3 0x74D JUMP JUMPDEST POP DIV SWAP1 JUMP JUMPDEST DUP1 DUP3 JUMPDEST PUSH1 0x1 DUP1 DUP7 GT PUSH3 0x5C0 JUMPI POP PUSH3 0x5F0 JUMP JUMPDEST DUP2 DUP8 DIV DUP3 GT ISZERO PUSH3 0x5D5 JUMPI PUSH3 0x5D5 PUSH3 0x737 JUMP JUMPDEST DUP1 DUP7 AND ISZERO PUSH3 0x5E3 JUMPI SWAP2 DUP2 MUL SWAP2 JUMPDEST SWAP5 SWAP1 SWAP5 SHR SWAP4 DUP1 MUL PUSH3 0x5AF JUMP JUMPDEST SWAP5 POP SWAP5 SWAP3 POP POP POP JUMP JUMPDEST PUSH1 0x0 PUSH3 0x4D1 PUSH1 0x0 NOT PUSH1 0xFF DUP6 AND DUP5 PUSH1 0x0 DUP3 PUSH3 0x618 JUMPI POP PUSH1 0x1 PUSH3 0x4D1 JUMP JUMPDEST DUP2 PUSH3 0x627 JUMPI POP PUSH1 0x0 PUSH3 0x4D1 JUMP JUMPDEST DUP2 PUSH1 0x1 DUP2 EQ PUSH3 0x640 JUMPI PUSH1 0x2 DUP2 EQ PUSH3 0x64B JUMPI PUSH3 0x67F JUMP JUMPDEST PUSH1 0x1 SWAP2 POP POP PUSH3 0x4D1 JUMP JUMPDEST PUSH1 0xFF DUP5 GT ISZERO PUSH3 0x65F JUMPI PUSH3 0x65F PUSH3 0x737 JUMP JUMPDEST PUSH1 0x1 DUP5 SHL SWAP2 POP DUP5 DUP3 GT ISZERO PUSH3 0x678 JUMPI PUSH3 0x678 PUSH3 0x737 JUMP JUMPDEST POP PUSH3 0x4D1 JUMP JUMPDEST POP PUSH1 0x20 DUP4 LT PUSH2 0x133 DUP4 LT AND PUSH1 0x4E DUP5 LT PUSH1 0xB DUP5 LT AND OR ISZERO PUSH3 0x6B7 JUMPI POP DUP2 DUP2 EXP DUP4 DUP2 GT ISZERO PUSH3 0x6B1 JUMPI PUSH3 0x6B1 PUSH3 0x737 JUMP JUMPDEST PUSH3 0x4D1 JUMP JUMPDEST PUSH3 0x6C6 DUP5 DUP5 DUP5 PUSH1 0x1 PUSH3 0x5AC JUMP JUMPDEST DUP1 DUP7 DIV DUP3 GT ISZERO PUSH3 0x6DB JUMPI PUSH3 0x6DB PUSH3 0x737 JUMP JUMPDEST MUL SWAP5 SWAP4 POP POP POP POP JUMP JUMPDEST PUSH1 0x0 DUP2 PUSH1 0x0 NOT DIV DUP4 GT DUP3 ISZERO ISZERO AND ISZERO PUSH3 0x701 JUMPI PUSH3 0x701 PUSH3 0x737 JUMP JUMPDEST POP MUL SWAP1 JUMP JUMPDEST PUSH1 0x0 DUP3 DUP3 LT ISZERO PUSH3 0x71B JUMPI PUSH3 0x71B PUSH3 0x737 JUMP JUMPDEST POP SUB SWAP1 JUMP JUMPDEST PUSH1 0x0 DUP3 PUSH3 0x732 JUMPI PUSH3 0x732 PUSH3 0x74D JUMP JUMPDEST POP MOD SWAP1 JUMP JUMPDEST PUSH4 0x4E487B71 PUSH1 0xE0 SHL PUSH1 0x0 MSTORE PUSH1 0x11 PUSH1 0x4 MSTORE PUSH1 0x24 PUSH1 0x0 REVERT JUMPDEST PUSH4 0x4E487B71 PUSH1 0xE0 SHL PUSH1 0x0 MSTORE PUSH1 0x12 PUSH1 0x4 MSTORE PUSH1 0x24 PUSH1 0x0 REVERT JUMPDEST PUSH2 0x3E1D DUP1 PUSH3 0x773 PUSH1 0x0 CODECOPY PUSH1 0x0 RETURN INVALID PUSH1 0x80 PUSH1 0x40 MSTORE PUSH1 0x4 CALLDATASIZE LT PUSH2 0x354 JUMPI PUSH1 0x0 CALLDATALOAD PUSH1 0xE0 SHR DUP1 PUSH4 0x70E50241 GT PUSH2 0x1C6 JUMPI DUP1 PUSH4 0xA8AA1B31 GT PUSH2 0xF7 JUMPI DUP1 PUSH4 0xE1165545 GT PUSH2 0x95 JUMPI DUP1 PUSH4 0xEA4CFE12 GT PUSH2 0x6F JUMPI DUP1 PUSH4 0xEA4CFE12 EQ PUSH2 0x936 JUMPI DUP1 PUSH4 0xF2FDE38B EQ PUSH2 0x94B JUMPI DUP1 PUSH4 0xF887EA40 EQ PUSH2 0x96B JUMPI DUP1 PUSH4 0xF9E08969 EQ PUSH2 0x980 JUMPI PUSH2 0x35B JUMP JUMPDEST DUP1 PUSH4 0xE1165545 EQ PUSH2 0x8E1 JUMPI DUP1 PUSH4 0xE2F45605 EQ PUSH2 0x901 JUMPI DUP1 PUSH4 0xEA2F0B37 EQ PUSH2 0x916 JUMPI PUSH2 0x35B JUMP JUMPDEST DUP1 PUSH4 0xABEEF102 GT PUSH2 0xD1 JUMPI DUP1 PUSH4 0xABEEF102 EQ PUSH2 0x861 JUMPI DUP1 PUSH4 0xCDEBFEA3 EQ PUSH2 0x881 JUMPI DUP1 PUSH4 0xD257B34F EQ PUSH2 0x8A1 JUMPI DUP1 PUSH4 0xDD62ED3E EQ PUSH2 0x8C1 JUMPI PUSH2 0x35B JUMP JUMPDEST DUP1 PUSH4 0xA8AA1B31 EQ PUSH2 0x80C JUMPI DUP1 PUSH4 0xA9059CBB EQ PUSH2 0x821 JUMPI DUP1 PUSH4 0xAACEBBE3 EQ PUSH2 0x841 JUMPI PUSH2 0x35B JUMP JUMPDEST DUP1 PUSH4 0x8DA5CB5B GT PUSH2 0x164 JUMPI DUP1 PUSH4 0x95D89B41 GT PUSH2 0x13E JUMPI DUP1 PUSH4 0x95D89B41 EQ PUSH2 0x7AD JUMPI DUP1 PUSH4 0x9BA5E4D5 EQ PUSH2 0x7C2 JUMPI DUP1 PUSH4 0xA457C2D7 EQ PUSH2 0x7D7 JUMPI DUP1 PUSH4 0xA5ECE941 EQ PUSH2 0x7F7 JUMPI PUSH2 0x35B JUMP JUMPDEST DUP1 PUSH4 0x8DA5CB5B EQ PUSH2 0x763 JUMPI DUP1 PUSH4 0x8F9A55C0 EQ PUSH2 0x778 JUMPI DUP1 PUSH4 0x924DE9B7 EQ PUSH2 0x78D JUMPI PUSH2 0x35B JUMP JUMPDEST DUP1 PUSH4 0x82BF293C GT PUSH2 0x1A0 JUMPI DUP1 PUSH4 0x82BF293C EQ PUSH2 0x6EE JUMPI DUP1 PUSH4 0x82D2A4BB EQ PUSH2 0x70E JUMPI DUP1 PUSH4 0x88E765FF EQ PUSH2 0x72E JUMPI DUP1 PUSH4 0x88F82020 EQ PUSH2 0x743 JUMPI PUSH2 0x35B JUMP JUMPDEST DUP1 PUSH4 0x70E50241 EQ PUSH2 0x6AF JUMPI DUP1 PUSH4 0x715018A6 EQ PUSH2 0x6C4 JUMPI DUP1 PUSH4 0x7688C584 EQ PUSH2 0x6D9 JUMPI PUSH2 0x35B JUMP JUMPDEST DUP1 PUSH4 0x3BBAC579 GT PUSH2 0x2A0 JUMPI DUP1 PUSH4 0x52390C02 GT PUSH2 0x23E JUMPI DUP1 PUSH4 0x66D602AE GT PUSH2 0x218 JUMPI DUP1 PUSH4 0x66D602AE EQ PUSH2 0x645 JUMPI DUP1 PUSH4 0x68CA6145 EQ PUSH2 0x65A JUMPI DUP1 PUSH4 0x6DDD1713 EQ PUSH2 0x67A JUMPI DUP1 PUSH4 0x70A08231 EQ PUSH2 0x68F JUMPI PUSH2 0x35B JUMP JUMPDEST DUP1 PUSH4 0x52390C02 EQ PUSH2 0x5F0 JUMPI DUP1 PUSH4 0x5342ACB4 EQ PUSH2 0x610 JUMPI DUP1 PUSH4 0x6053A0E3 EQ PUSH2 0x630 JUMPI PUSH2 0x35B JUMP JUMPDEST DUP1 PUSH4 0x437823EC GT PUSH2 0x27A JUMPI DUP1 PUSH4 0x437823EC EQ PUSH2 0x57B JUMPI DUP1 PUSH4 0x441B1D30 EQ PUSH2 0x59B JUMPI DUP1 PUSH4 0x4549B039 EQ PUSH2 0x5BB JUMPI DUP1 PUSH4 0x4ADA218B EQ PUSH2 0x5DB JUMPI PUSH2 0x35B JUMP JUMPDEST DUP1 PUSH4 0x3BBAC579 EQ PUSH2 0x51B JUMPI DUP1 PUSH4 0x3BD5D173 EQ PUSH2 0x53B JUMPI DUP1 PUSH4 0x41CB87FC EQ PUSH2 0x55B JUMPI PUSH2 0x35B JUMP JUMPDEST DUP1 PUSH4 0x27C8F835 GT PUSH2 0x30D JUMPI DUP1 PUSH4 0x30D5D18D GT PUSH2 0x2E7 JUMPI DUP1 PUSH4 0x30D5D18D EQ PUSH2 0x499 JUMPI DUP1 PUSH4 0x313CE567 EQ PUSH2 0x4B9 JUMPI DUP1 PUSH4 0x3685D419 EQ PUSH2 0x4DB JUMPI DUP1 PUSH4 0x39509351 EQ PUSH2 0x4FB JUMPI PUSH2 0x35B JUMP JUMPDEST DUP1 PUSH4 0x27C8F835 EQ PUSH2 0x442 JUMPI DUP1 PUSH4 0x293230B8 EQ PUSH2 0x464 JUMPI DUP1 PUSH4 0x2D838119 EQ PUSH2 0x479 JUMPI PUSH2 0x35B JUMP JUMPDEST DUP1 PUSH4 0x42CFB51 EQ PUSH2 0x360 JUMPI DUP1 PUSH4 0x6FDDE03 EQ PUSH2 0x382 JUMPI DUP1 PUSH4 0x95EA7B3 EQ PUSH2 0x3AD JUMPI DUP1 PUSH4 0x18160DDD EQ PUSH2 0x3DA JUMPI DUP1 PUSH4 0x18A90C44 EQ PUSH2 0x3FC JUMPI DUP1 PUSH4 0x23B872DD EQ PUSH2 0x422 JUMPI PUSH2 0x35B JUMP JUMPDEST CALLDATASIZE PUSH2 0x35B JUMPI STOP JUMPDEST PUSH1 0x0 DUP1 REVERT JUMPDEST CALLVALUE DUP1 ISZERO PUSH2 0x36C JUMPI PUSH1 0x0 DUP1 REVERT JUMPDEST POP PUSH2 0x380 PUSH2 0x37B CALLDATASIZE PUSH1 0x4 PUSH2 0x32D2 JUMP JUMPDEST PUSH2 0x9A0 JUMP JUMPDEST STOP JUMPDEST CALLVALUE DUP1 ISZERO PUSH2 0x38E JUMPI PUSH1 0x0 DUP1 REVERT JUMPDEST POP PUSH2 0x397 PUSH2 0xAE1 JUMP JUMPDEST PUSH1 0x40 MLOAD PUSH2 0x3A4 SWAP2 SWAP1 PUSH2 0x35F3 JUMP JUMPDEST PUSH1 0x40 MLOAD DUP1 SWAP2 SUB SWAP1 RETURN JUMPDEST CALLVALUE DUP1 ISZERO PUSH2 0x3B9 JUMPI PUSH1 0x0 DUP1 REVERT JUMPDEST POP PUSH2 0x3CD PUSH2 0x3C8 CALLDATASIZE PUSH1 0x4 PUSH2 0x33AF JUMP JUMPDEST PUSH2 0xB05 JUMP JUMPDEST PUSH1 0x40 MLOAD PUSH2 0x3A4 SWAP2 SWAP1 PUSH2 0x35B3 JUMP JUMPDEST CALLVALUE DUP1 ISZERO PUSH2 0x3E6 JUMPI PUSH1 0x0 DUP1 REVERT JUMPDEST POP PUSH2 0x3EF PUSH2 0xB23 JUMP JUMPDEST PUSH1 0x40 MLOAD PUSH2 0x3A4 SWAP2 SWAP1 PUSH2 0x3B4B JUMP JUMPDEST CALLVALUE DUP1 ISZERO PUSH2 0x408 JUMPI PUSH1 0x0 DUP1 REVERT JUMPDEST POP PUSH2 0x411 PUSH2 0xB29 JUMP JUMPDEST PUSH1 0x40 MLOAD PUSH2 0x3A4 SWAP6 SWAP5 SWAP4 SWAP3 SWAP2 SWAP1 PUSH2 0x3B90 JUMP JUMPDEST CALLVALUE DUP1 ISZERO PUSH2 0x42E JUMPI PUSH1 0x0 DUP1 REVERT JUMPDEST POP PUSH2 0x3CD PUSH2 0x43D CALLDATASIZE PUSH1 0x4 PUSH2 0x3342 JUMP JUMPDEST PUSH2 0xB3B JUMP JUMPDEST CALLVALUE DUP1 ISZERO PUSH2 0x44E JUMPI PUSH1 0x0 DUP1 REVERT JUMPDEST POP PUSH2 0x457 PUSH2 0xBC3 JUMP JUMPDEST PUSH1 0x40 MLOAD PUSH2 0x3A4 SWAP2 SWAP1 PUSH2 0x3531 JUMP JUMPDEST CALLVALUE DUP1 ISZERO PUSH2 0x470 JUMPI PUSH1 0x0 DUP1 REVERT JUMPDEST POP PUSH2 0x380 PUSH2 0xBC9 JUMP JUMPDEST CALLVALUE DUP1 ISZERO PUSH2 0x485 JUMPI PUSH1 0x0 DUP1 REVERT JUMPDEST POP PUSH2 0x3EF PUSH2 0x494 CALLDATASIZE PUSH1 0x4 PUSH2 0x3412 JUMP JUMPDEST PUSH2 0xC5A JUMP JUMPDEST CALLVALUE DUP1 ISZERO PUSH2 0x4A5 JUMPI PUSH1 0x0 DUP1 REVERT JUMPDEST POP PUSH2 0x380 PUSH2 0x4B4 CALLDATASIZE PUSH1 0x4 PUSH2 0x32D2 JUMP JUMPDEST PUSH2 0xC9D JUMP JUMPDEST CALLVALUE DUP1 ISZERO PUSH2 0x4C5 JUMPI PUSH1 0x0 DUP1 REVERT JUMPDEST POP PUSH2 0x4CE PUSH2 0xD33 JUMP JUMPDEST PUSH1 0x40 MLOAD PUSH2 0x3A4 SWAP2 SWAP1 PUSH2 0x3BB3 JUMP JUMPDEST CALLVALUE DUP1 ISZERO PUSH2 0x4E7 JUMPI PUSH1 0x0 DUP1 REVERT JUMPDEST POP PUSH2 0x380 PUSH2 0x4F6 CALLDATASIZE PUSH1 0x4 PUSH2 0x32D2 JUMP JUMPDEST PUSH2 0xD38 JUMP JUMPDEST CALLVALUE DUP1 ISZERO PUSH2 0x507 JUMPI PUSH1 0x0 DUP1 REVERT JUMPDEST POP PUSH2 0x3CD PUSH2 0x516 CALLDATASIZE PUSH1 0x4 PUSH2 0x33AF JUMP JUMPDEST PUSH2 0xF09 JUMP JUMPDEST CALLVALUE DUP1 ISZERO PUSH2 0x527 JUMPI PUSH1 0x0 DUP1 REVERT JUMPDEST POP PUSH2 0x3CD PUSH2 0x536 CALLDATASIZE PUSH1 0x4 PUSH2 0x32D2 JUMP JUMPDEST PUSH2 0xF58 JUMP JUMPDEST CALLVALUE DUP1 ISZERO PUSH2 0x547 JUMPI PUSH1 0x0 DUP1 REVERT JUMPDEST POP PUSH2 0x380 PUSH2 0x556 CALLDATASIZE PUSH1 0x4 PUSH2 0x3412 JUMP JUMPDEST PUSH2 0xF76 JUMP JUMPDEST CALLVALUE DUP1 ISZERO PUSH2 0x567 JUMPI PUSH1 0x0 DUP1 REVERT JUMPDEST POP PUSH2 0x380 PUSH2 0x576 CALLDATASIZE PUSH1 0x4 PUSH2 0x32D2 JUMP JUMPDEST PUSH2 0x103C JUMP JUMPDEST CALLVALUE DUP1 ISZERO PUSH2 0x587 JUMPI PUSH1 0x0 DUP1 REVERT JUMPDEST POP PUSH2 0x380 PUSH2 0x596 CALLDATASIZE PUSH1 0x4 PUSH2 0x32D2 JUMP JUMPDEST PUSH2 0x13E2 JUMP JUMPDEST CALLVALUE DUP1 ISZERO PUSH2 0x5A7 JUMPI PUSH1 0x0 DUP1 REVERT JUMPDEST POP PUSH2 0x380 PUSH2 0x5B6 CALLDATASIZE PUSH1 0x4 PUSH2 0x3412 JUMP JUMPDEST PUSH2 0x1445 JUMP JUMPDEST CALLVALUE DUP1 ISZERO PUSH2 0x5C7 JUMPI PUSH1 0x0 DUP1 REVERT JUMPDEST POP PUSH2 0x3EF PUSH2 0x5D6 CALLDATASIZE PUSH1 0x4 PUSH2 0x3442 JUMP JUMPDEST PUSH2 0x14D1 JUMP JUMPDEST CALLVALUE DUP1 ISZERO PUSH2 0x5E7 JUMPI PUSH1 0x0 DUP1 REVERT JUMPDEST POP PUSH2 0x3CD PUSH2 0x152F JUMP JUMPDEST CALLVALUE DUP1 ISZERO PUSH2 0x5FC JUMPI PUSH1 0x0 DUP1 REVERT JUMPDEST POP PUSH2 0x380 PUSH2 0x60B CALLDATASIZE PUSH1 0x4 PUSH2 0x32D2 JUMP JUMPDEST PUSH2 0x1538 JUMP JUMPDEST CALLVALUE DUP1 ISZERO PUSH2 0x61C JUMPI PUSH1 0x0 DUP1 REVERT JUMPDEST POP PUSH2 0x3CD PUSH2 0x62B CALLDATASIZE PUSH1 0x4 PUSH2 0x32D2 JUMP JUMPDEST PUSH2 0x1670 JUMP JUMPDEST CALLVALUE DUP1 ISZERO PUSH2 0x63C JUMPI PUSH1 0x0 DUP1 REVERT JUMPDEST POP PUSH2 0x3CD PUSH2 0x168E JUMP JUMPDEST CALLVALUE DUP1 ISZERO PUSH2 0x651 JUMPI PUSH1 0x0 DUP1 REVERT JUMPDEST POP PUSH2 0x3EF PUSH2 0x169D JUMP JUMPDEST CALLVALUE DUP1 ISZERO PUSH2 0x666 JUMPI PUSH1 0x0 DUP1 REVERT JUMPDEST POP PUSH2 0x380 PUSH2 0x675 CALLDATASIZE PUSH1 0x4 PUSH2 0x34B4 JUMP JUMPDEST PUSH2 0x16A3 JUMP JUMPDEST CALLVALUE DUP1 ISZERO PUSH2 0x686 JUMPI PUSH1 0x0 DUP1 REVERT JUMPDEST POP PUSH2 0x3CD PUSH2 0x172B JUMP JUMPDEST CALLVALUE DUP1 ISZERO PUSH2 0x69B JUMPI PUSH1 0x0 DUP1 REVERT JUMPDEST POP PUSH2 0x3EF PUSH2 0x6AA CALLDATASIZE PUSH1 0x4 PUSH2 0x32D2 JUMP JUMPDEST PUSH2 0x1739 JUMP JUMPDEST CALLVALUE DUP1 ISZERO PUSH2 0x6BB JUMPI PUSH1 0x0 DUP1 REVERT JUMPDEST POP PUSH2 0x3EF PUSH2 0x179B JUMP JUMPDEST CALLVALUE DUP1 ISZERO PUSH2 0x6D0 JUMPI PUSH1 0x0 DUP1 REVERT JUMPDEST POP PUSH2 0x380 PUSH2 0x17A1 JUMP JUMPDEST CALLVALUE DUP1 ISZERO PUSH2 0x6E5 JUMPI PUSH1 0x0 DUP1 REVERT JUMPDEST POP PUSH2 0x411 PUSH2 0x17EC JUMP JUMPDEST CALLVALUE DUP1 ISZERO PUSH2 0x6FA JUMPI PUSH1 0x0 DUP1 REVERT JUMPDEST POP PUSH2 0x380 PUSH2 0x709 CALLDATASIZE PUSH1 0x4 PUSH2 0x3412 JUMP JUMPDEST PUSH2 0x17FE JUMP JUMPDEST CALLVALUE DUP1 ISZERO PUSH2 0x71A JUMPI PUSH1 0x0 DUP1 REVERT JUMPDEST POP PUSH2 0x380 PUSH2 0x729 CALLDATASIZE PUSH1 0x4 PUSH2 0x3412 JUMP JUMPDEST PUSH2 0x1863 JUMP JUMPDEST CALLVALUE DUP1 ISZERO PUSH2 0x73A JUMPI PUSH1 0x0 DUP1 REVERT JUMPDEST POP PUSH2 0x3EF PUSH2 0x18B9 JUMP JUMPDEST CALLVALUE DUP1 ISZERO PUSH2 0x74F JUMPI PUSH1 0x0 DUP1 REVERT JUMPDEST POP PUSH2 0x3CD PUSH2 0x75E CALLDATASIZE PUSH1 0x4 PUSH2 0x32D2 JUMP JUMPDEST PUSH2 0x18BF JUMP JUMPDEST CALLVALUE DUP1 ISZERO PUSH2 0x76F JUMPI PUSH1 0x0 DUP1 REVERT JUMPDEST POP PUSH2 0x457 PUSH2 0x18DD JUMP JUMPDEST CALLVALUE DUP1 ISZERO PUSH2 0x784 JUMPI PUSH1 0x0 DUP1 REVERT JUMPDEST POP PUSH2 0x3EF PUSH2 0x18EC JUMP JUMPDEST CALLVALUE DUP1 ISZERO PUSH2 0x799 JUMPI PUSH1 0x0 DUP1 REVERT JUMPDEST POP PUSH2 0x380 PUSH2 0x7A8 CALLDATASIZE PUSH1 0x4 PUSH2 0x33DA JUMP JUMPDEST PUSH2 0x18F2 JUMP JUMPDEST CALLVALUE DUP1 ISZERO PUSH2 0x7B9 JUMPI PUSH1 0x0 DUP1 REVERT JUMPDEST POP PUSH2 0x397 PUSH2 0x194B JUMP JUMPDEST CALLVALUE DUP1 ISZERO PUSH2 0x7CE JUMPI PUSH1 0x0 DUP1 REVERT JUMPDEST POP PUSH2 0x411 PUSH2 0x196B JUMP JUMPDEST CALLVALUE DUP1 ISZERO PUSH2 0x7E3 JUMPI PUSH1 0x0 DUP1 REVERT JUMPDEST POP PUSH2 0x3CD PUSH2 0x7F2 CALLDATASIZE PUSH1 0x4 PUSH2 0x33AF JUMP JUMPDEST PUSH2 0x197D JUMP JUMPDEST CALLVALUE DUP1 ISZERO PUSH2 0x803 JUMPI PUSH1 0x0 DUP1 REVERT JUMPDEST POP PUSH2 0x457 PUSH2 0x19E5 JUMP JUMPDEST CALLVALUE DUP1 ISZERO PUSH2 0x818 JUMPI PUSH1 0x0 DUP1 REVERT JUMPDEST POP PUSH2 0x457 PUSH2 0x19F4 JUMP JUMPDEST CALLVALUE DUP1 ISZERO PUSH2 0x82D JUMPI PUSH1 0x0 DUP1 REVERT JUMPDEST POP PUSH2 0x3CD PUSH2 0x83C CALLDATASIZE PUSH1 0x4 PUSH2 0x33AF JUMP JUMPDEST PUSH2 0x1A03 JUMP JUMPDEST CALLVALUE DUP1 ISZERO PUSH2 0x84D JUMPI PUSH1 0x0 DUP1 REVERT JUMPDEST POP PUSH2 0x380 PUSH2 0x85C CALLDATASIZE PUSH1 0x4 PUSH2 0x32D2 JUMP JUMPDEST PUSH2 0x1A17 JUMP JUMPDEST CALLVALUE DUP1 ISZERO PUSH2 0x86D JUMPI PUSH1 0x0 DUP1 REVERT JUMPDEST POP PUSH2 0x380 PUSH2 0x87C CALLDATASIZE PUSH1 0x4 PUSH2 0x34B4 JUMP JUMPDEST PUSH2 0x1AAD JUMP JUMPDEST CALLVALUE DUP1 ISZERO PUSH2 0x88D JUMPI PUSH1 0x0 DUP1 REVERT JUMPDEST POP PUSH2 0x380 PUSH2 0x89C CALLDATASIZE PUSH1 0x4 PUSH2 0x3466 JUMP JUMPDEST PUSH2 0x1B35 JUMP JUMPDEST CALLVALUE DUP1 ISZERO PUSH2 0x8AD JUMPI PUSH1 0x0 DUP1 REVERT JUMPDEST POP PUSH2 0x380 PUSH2 0x8BC CALLDATASIZE PUSH1 0x4 PUSH2 0x3412 JUMP JUMPDEST PUSH2 0x1B9A JUMP JUMPDEST CALLVALUE DUP1 ISZERO PUSH2 0x8CD JUMPI PUSH1 0x0 DUP1 REVERT JUMPDEST POP PUSH2 0x3EF PUSH2 0x8DC CALLDATASIZE PUSH1 0x4 PUSH2 0x330A JUMP JUMPDEST PUSH2 0x1BF5 JUMP JUMPDEST CALLVALUE DUP1 ISZERO PUSH2 0x8ED JUMPI PUSH1 0x0 DUP1 REVERT JUMPDEST POP PUSH2 0x380 PUSH2 0x8FC CALLDATASIZE PUSH1 0x4 PUSH2 0x3382 JUMP JUMPDEST PUSH2 0x1C20 JUMP JUMPDEST CALLVALUE DUP1 ISZERO PUSH2 0x90D JUMPI PUSH1 0x0 DUP1 REVERT JUMPDEST POP PUSH2 0x3EF PUSH2 0x1CC9 JUMP JUMPDEST CALLVALUE DUP1 ISZERO PUSH2 0x922 JUMPI PUSH1 0x0 DUP1 REVERT JUMPDEST POP PUSH2 0x380 PUSH2 0x931 CALLDATASIZE PUSH1 0x4 PUSH2 0x32D2 JUMP JUMPDEST PUSH2 0x1CCF JUMP JUMPDEST CALLVALUE DUP1 ISZERO PUSH2 0x942 JUMPI PUSH1 0x0 DUP1 REVERT JUMPDEST POP PUSH2 0x457 PUSH2 0x1D2F JUMP JUMPDEST CALLVALUE DUP1 ISZERO PUSH2 0x957 JUMPI PUSH1 0x0 DUP1 REVERT JUMPDEST POP PUSH2 0x380 PUSH2 0x966 CALLDATASIZE PUSH1 0x4 PUSH2 0x32D2 JUMP JUMPDEST PUSH2 0x1D3E JUMP JUMPDEST CALLVALUE DUP1 ISZERO PUSH2 0x977 JUMPI PUSH1 0x0 DUP1 REVERT JUMPDEST POP PUSH2 0x457 PUSH2 0x1DAF JUMP JUMPDEST CALLVALUE DUP1 ISZERO PUSH2 0x98C JUMPI PUSH1 0x0 DUP1 REVERT JUMPDEST POP PUSH2 0x380 PUSH2 0x99B CALLDATASIZE PUSH1 0x4 PUSH2 0x33DA JUMP JUMPDEST PUSH2 0x1DC5 JUMP JUMPDEST PUSH2 0x9A8 PUSH2 0x1E38 JUMP JUMPDEST PUSH1 0x1 PUSH1 0x1 PUSH1 0xA0 SHL SUB AND PUSH2 0x9B9 PUSH2 0x18DD JUMP JUMPDEST PUSH1 0x1 PUSH1 0x1 PUSH1 0xA0 SHL SUB AND EQ PUSH2 0x9E8 JUMPI PUSH1 0x40 MLOAD PUSH3 0x461BCD PUSH1 0xE5 SHL DUP2 MSTORE PUSH1 0x4 ADD PUSH2 0x9DF SWAP1 PUSH2 0x392D JUMP JUMPDEST PUSH1 0x40 MLOAD DUP1 SWAP2 SUB SWAP1 REVERT JUMPDEST PUSH1 0x40 MLOAD PUSH4 0x70A08231 PUSH1 0xE0 SHL DUP2 MSTORE PUSH1 0x1 PUSH1 0x1 PUSH1 0xA0 SHL SUB DUP3 AND SWAP1 PUSH4 0xA9059CBB SWAP1 CALLER SWAP1 DUP4 SWAP1 PUSH4 0x70A08231 SWAP1 PUSH2 0xA1E SWAP1 ADDRESS SWAP1 PUSH1 0x4 ADD PUSH2 0x3531 JUMP JUMPDEST PUSH1 0x20 PUSH1 0x40 MLOAD DUP1 DUP4 SUB DUP2 DUP7 DUP1 EXTCODESIZE ISZERO DUP1 ISZERO PUSH2 0xA36 JUMPI PUSH1 0x0 DUP1 REVERT JUMPDEST POP GAS STATICCALL ISZERO DUP1 ISZERO PUSH2 0xA4A JUMPI RETURNDATASIZE PUSH1 0x0 DUP1 RETURNDATACOPY RETURNDATASIZE PUSH1 0x0 REVERT JUMPDEST POP POP POP POP PUSH1 0x40 MLOAD RETURNDATASIZE PUSH1 0x1F NOT PUSH1 0x1F DUP3 ADD AND DUP3 ADD DUP1 PUSH1 0x40 MSTORE POP DUP2 ADD SWAP1 PUSH2 0xA6E SWAP2 SWAP1 PUSH2 0x342A JUMP JUMPDEST PUSH1 0x40 MLOAD DUP4 PUSH4 0xFFFFFFFF AND PUSH1 0xE0 SHL DUP2 MSTORE PUSH1 0x4 ADD PUSH2 0xA8B SWAP3 SWAP2 SWAP1 PUSH2 0x355F JUMP JUMPDEST PUSH1 0x20 PUSH1 0x40 MLOAD DUP1 DUP4 SUB DUP2 PUSH1 0x0 DUP8 DUP1 EXTCODESIZE ISZERO DUP1 ISZERO PUSH2 0xAA5 JUMPI PUSH1 0x0 DUP1 REVERT JUMPDEST POP GAS CALL ISZERO DUP1 ISZERO PUSH2 0xAB9 JUMPI RETURNDATASIZE PUSH1 0x0 DUP1 RETURNDATACOPY RETURNDATASIZE PUSH1 0x0 REVERT JUMPDEST POP POP POP POP PUSH1 0x40 MLOAD RETURNDATASIZE PUSH1 0x1F NOT PUSH1 0x1F DUP3 ADD AND DUP3 ADD DUP1 PUSH1 0x40 MSTORE POP DUP2 ADD SWAP1 PUSH2 0xADD SWAP2 SWAP1 PUSH2 0x33F6 JUMP JUMPDEST POP POP JUMP JUMPDEST PUSH1 0x40 DUP1 MLOAD DUP1 DUP3 ADD SWAP1 SWAP2 MSTORE PUSH1 0xA DUP2 MSTORE PUSH10 0x4A657373696520496E75 PUSH1 0xB0 SHL PUSH1 0x20 DUP3 ADD MSTORE SWAP1 JUMP JUMPDEST PUSH1 0x0 PUSH2 0xB19 PUSH2 0xB12 PUSH2 0x1E38 JUMP JUMPDEST DUP5 DUP5 PUSH2 0x1E3C JUMP JUMPDEST POP PUSH1 0x1 JUMPDEST SWAP3 SWAP2 POP POP JUMP JUMPDEST PUSH1 0xA SLOAD SWAP1 JUMP JUMPDEST PUSH1 0x18 SLOAD PUSH1 0x19 SLOAD PUSH1 0x1A SLOAD PUSH1 0x1B SLOAD PUSH1 0x1C SLOAD DUP6 JUMP JUMPDEST PUSH1 0x0 PUSH2 0xB48 DUP5 DUP5 DUP5 PUSH2 0x1EF0 JUMP JUMPDEST PUSH2 0xBB8 DUP5 PUSH2 0xB54 PUSH2 0x1E38 JUMP JUMPDEST PUSH2 0xBB3 DUP6 PUSH1 0x40 MLOAD DUP1 PUSH1 0x60 ADD PUSH1 0x40 MSTORE DUP1 PUSH1 0x28 DUP2 MSTORE PUSH1 0x20 ADD PUSH2 0x3D9B PUSH1 0x28 SWAP2 CODECOPY PUSH1 0x1 PUSH1 0x1 PUSH1 0xA0 SHL SUB DUP11 AND PUSH1 0x0 SWAP1 DUP2 MSTORE PUSH1 0x3 PUSH1 0x20 MSTORE PUSH1 0x40 DUP2 KECCAK256 SWAP1 PUSH2 0xB92 PUSH2 0x1E38 JUMP JUMPDEST PUSH1 0x1 PUSH1 0x1 PUSH1 0xA0 SHL SUB AND DUP2 MSTORE PUSH1 0x20 DUP2 ADD SWAP2 SWAP1 SWAP2 MSTORE PUSH1 0x40 ADD PUSH1 0x0 KECCAK256 SLOAD SWAP2 SWAP1 PUSH2 0x2321 JUMP JUMPDEST PUSH2 0x1E3C JUMP JUMPDEST POP PUSH1 0x1 JUMPDEST SWAP4 SWAP3 POP POP POP JUMP JUMPDEST PUSH2 0xDEAD DUP2 JUMP JUMPDEST PUSH2 0xBD1 PUSH2 0x1E38 JUMP JUMPDEST PUSH1 0x1 PUSH1 0x1 PUSH1 0xA0 SHL SUB AND PUSH2 0xBE2 PUSH2 0x18DD JUMP JUMPDEST PUSH1 0x1 PUSH1 0x1 PUSH1 0xA0 SHL SUB AND EQ PUSH2 0xC08 JUMPI PUSH1 0x40 MLOAD PUSH3 0x461BCD PUSH1 0xE5 SHL DUP2 MSTORE PUSH1 0x4 ADD PUSH2 0x9DF SWAP1 PUSH2 0x392D JUMP JUMPDEST PUSH1 0x8 DUP1 SLOAD PUSH2 0xFF00 NOT PUSH1 0xFF NOT SWAP1 SWAP2 AND PUSH1 0x1 OR AND PUSH2 0x100 OR SWAP1 SSTORE PUSH1 0x40 MLOAD PUSH32 0xB3DA2DB3DFC3778F99852546C6E9AB39EC253F9DE7B0847AFEC61BD27878E923 SWAP1 PUSH2 0xC50 SWAP1 TIMESTAMP SWAP1 PUSH2 0x3B4B JUMP JUMPDEST PUSH1 0x40 MLOAD DUP1 SWAP2 SUB SWAP1 LOG1 JUMP JUMPDEST PUSH1 0x0 PUSH1 0xB SLOAD DUP3 GT ISZERO PUSH2 0xC7E JUMPI PUSH1 0x40 MLOAD PUSH3 0x461BCD PUSH1 0xE5 SHL DUP2 MSTORE PUSH1 0x4 ADD PUSH2 0x9DF SWAP1 PUSH2 0x373C JUMP JUMPDEST PUSH1 0x0 PUSH2 0xC88 PUSH2 0x234D JUMP JUMPDEST SWAP1 POP PUSH2 0xC94 DUP2 DUP5 PUSH2 0x3BD9 JUMP JUMPDEST SWAP2 POP POP JUMPDEST SWAP2 SWAP1 POP JUMP JUMPDEST PUSH2 0xCA5 PUSH2 0x1E38 JUMP JUMPDEST PUSH1 0x1 PUSH1 0x1 PUSH1 0xA0 SHL SUB AND PUSH2 0xCB6 PUSH2 0x18DD JUMP JUMPDEST PUSH1 0x1 PUSH1 0x1 PUSH1 0xA0 SHL SUB AND EQ PUSH2 0xCDC JUMPI PUSH1 0x40 MLOAD PUSH3 0x461BCD PUSH1 0xE5 SHL DUP2 MSTORE PUSH1 0x4 ADD PUSH2 0x9DF SWAP1 PUSH2 0x392D JUMP JUMPDEST PUSH1 0x12 SLOAD PUSH1 0x1 PUSH1 0x1 PUSH1 0xA0 SHL SUB DUP3 DUP2 AND SWAP2 AND EQ ISZERO PUSH2 0xD0A JUMPI PUSH1 0x40 MLOAD PUSH3 0x461BCD PUSH1 0xE5 SHL DUP2 MSTORE PUSH1 0x4 ADD PUSH2 0x9DF SWAP1 PUSH2 0x39AB JUMP JUMPDEST PUSH1 0x12 DUP1 SLOAD PUSH1 0x1 PUSH1 0x1 PUSH1 0xA0 SHL SUB NOT AND PUSH1 0x1 PUSH1 0x1 PUSH1 0xA0 SHL SUB SWAP3 DUP4 AND OR SWAP1 DUP2 SWAP1 SSTORE AND PUSH1 0x0 MSTORE PUSH1 0x4 PUSH1 0x20 MSTORE JUMP JUMPDEST PUSH1 0x9 SWAP1 JUMP JUMPDEST PUSH2 0xD40 PUSH2 0x1E38 JUMP JUMPDEST PUSH1 0x1 PUSH1 0x1 PUSH1 0xA0 SHL SUB AND PUSH2 0xD51 PUSH2 0x18DD JUMP JUMPDEST PUSH1 0x1 PUSH1 0x1 PUSH1 0xA0 SHL SUB AND EQ PUSH2 0xD77 JUMPI PUSH1 0x40 MLOAD PUSH3 0x461BCD PUSH1 0xE5 SHL DUP2 MSTORE PUSH1 0x4 ADD PUSH2 0x9DF SWAP1 PUSH2 0x392D JUMP JUMPDEST PUSH1 0x1 PUSH1 0x1 PUSH1 0xA0 SHL SUB DUP2 AND PUSH1 0x0 SWAP1 DUP2 MSTORE PUSH1 0x5 PUSH1 0x20 MSTORE PUSH1 0x40 SWAP1 KECCAK256 SLOAD PUSH1 0xFF AND PUSH2 0xDAF JUMPI PUSH1 0x40 MLOAD PUSH3 0x461BCD PUSH1 0xE5 SHL DUP2 MSTORE PUSH1 0x4 ADD PUSH2 0x9DF SWAP1 PUSH2 0x3888 JUMP JUMPDEST PUSH1 0x0 JUMPDEST PUSH1 0x7 SLOAD DUP2 LT ISZERO PUSH2 0xADD JUMPI DUP2 PUSH1 0x1 PUSH1 0x1 PUSH1 0xA0 SHL SUB AND PUSH1 0x7 DUP3 DUP2 SLOAD DUP2 LT PUSH2 0xDE7 JUMPI PUSH4 0x4E487B71 PUSH1 0xE0 SHL PUSH1 0x0 MSTORE PUSH1 0x32 PUSH1 0x4 MSTORE PUSH1 0x24 PUSH1 0x0 REVERT JUMPDEST PUSH1 0x0 SWAP2 DUP3 MSTORE PUSH1 0x20 SWAP1 SWAP2 KECCAK256 ADD SLOAD PUSH1 0x1 PUSH1 0x1 PUSH1 0xA0 SHL SUB AND EQ ISZERO PUSH2 0xEF7 JUMPI PUSH1 0x7 DUP1 SLOAD PUSH2 0xE12 SWAP1 PUSH1 0x1 SWAP1 PUSH2 0x3D2F JUMP JUMPDEST DUP2 SLOAD DUP2 LT PUSH2 0xE30 JUMPI PUSH4 0x4E487B71 PUSH1 0xE0 SHL PUSH1 0x0 MSTORE PUSH1 0x32 PUSH1 0x4 MSTORE PUSH1 0x24 PUSH1 0x0 REVERT JUMPDEST PUSH1 0x0 SWAP2 DUP3 MSTORE PUSH1 0x20 SWAP1 SWAP2 KECCAK256 ADD SLOAD PUSH1 0x7 DUP1 SLOAD PUSH1 0x1 PUSH1 0x1 PUSH1 0xA0 SHL SUB SWAP1 SWAP3 AND SWAP2 DUP4 SWAP1 DUP2 LT PUSH2 0xE6A JUMPI PUSH4 0x4E487B71 PUSH1 0xE0 SHL PUSH1 0x0 MSTORE PUSH1 0x32 PUSH1 0x4 MSTORE PUSH1 0x24 PUSH1 0x0 REVERT JUMPDEST PUSH1 0x0 SWAP2 DUP3 MSTORE PUSH1 0x20 DUP1 DUP4 KECCAK256 SWAP2 SWAP1 SWAP2 ADD DUP1 SLOAD PUSH1 0x1 PUSH1 0x1 PUSH1 0xA0 SHL SUB NOT AND PUSH1 0x1 PUSH1 0x1 PUSH1 0xA0 SHL SUB SWAP5 DUP6 AND OR SWAP1 SSTORE SWAP2 DUP5 AND DUP2 MSTORE PUSH1 0x2 DUP3 MSTORE PUSH1 0x40 DUP1 DUP3 KECCAK256 DUP3 SWAP1 SSTORE PUSH1 0x5 SWAP1 SWAP3 MSTORE KECCAK256 DUP1 SLOAD PUSH1 0xFF NOT AND SWAP1 SSTORE PUSH1 0x7 DUP1 SLOAD DUP1 PUSH2 0xED0 JUMPI PUSH4 0x4E487B71 PUSH1 0xE0 SHL PUSH1 0x0 MSTORE PUSH1 0x31 PUSH1 0x4 MSTORE PUSH1 0x24 PUSH1 0x0 REVERT JUMPDEST PUSH1 0x0 DUP3 DUP2 MSTORE PUSH1 0x20 SWAP1 KECCAK256 DUP2 ADD PUSH1 0x0 NOT SWAP1 DUP2 ADD DUP1 SLOAD PUSH1 0x1 PUSH1 0x1 PUSH1 0xA0 SHL SUB NOT AND SWAP1 SSTORE ADD SWAP1 SSTORE PUSH2 0xADD JUMP JUMPDEST DUP1 PUSH2 0xF01 DUP2 PUSH2 0x3D46 JUMP JUMPDEST SWAP2 POP POP PUSH2 0xDB2 JUMP JUMPDEST PUSH1 0x0 PUSH2 0xB19 PUSH2 0xF16 PUSH2 0x1E38 JUMP JUMPDEST DUP5 DUP5 PUSH1 0x3 PUSH1 0x0 PUSH2 0xF24 PUSH2 0x1E38 JUMP JUMPDEST PUSH1 0x1 PUSH1 0x1 PUSH1 0xA0 SHL SUB SWAP1 DUP2 AND DUP3 MSTORE PUSH1 0x20 DUP1 DUP4 ADD SWAP4 SWAP1 SWAP4 MSTORE PUSH1 0x40 SWAP2 DUP3 ADD PUSH1 0x0 SWAP1 DUP2 KECCAK256 SWAP2 DUP12 AND DUP2 MSTORE SWAP3 MSTORE SWAP1 KECCAK256 SLOAD PUSH2 0xBB3 SWAP2 SWAP1 PUSH2 0x3BC1 JUMP JUMPDEST PUSH1 0x1 PUSH1 0x1 PUSH1 0xA0 SHL SUB AND PUSH1 0x0 SWAP1 DUP2 MSTORE PUSH1 0x6 PUSH1 0x20 MSTORE PUSH1 0x40 SWAP1 KECCAK256 SLOAD PUSH1 0xFF AND SWAP1 JUMP JUMPDEST PUSH1 0x0 PUSH2 0xF80 PUSH2 0x1E38 JUMP JUMPDEST PUSH1 0x1 PUSH1 0x1 PUSH1 0xA0 SHL SUB DUP2 AND PUSH1 0x0 SWAP1 DUP2 MSTORE PUSH1 0x5 PUSH1 0x20 MSTORE PUSH1 0x40 SWAP1 KECCAK256 SLOAD SWAP1 SWAP2 POP PUSH1 0xFF AND ISZERO PUSH2 0xFBC JUMPI PUSH1 0x40 MLOAD PUSH3 0x461BCD PUSH1 0xE5 SHL DUP2 MSTORE PUSH1 0x4 ADD PUSH2 0x9DF SWAP1 PUSH2 0x3ABE JUMP JUMPDEST PUSH1 0x0 PUSH2 0xFCB DUP4 PUSH1 0x1 PUSH1 0x0 PUSH2 0x2370 JUMP JUMPDEST DUP1 MLOAD PUSH1 0x1 PUSH1 0x1 PUSH1 0xA0 SHL SUB DUP5 AND PUSH1 0x0 SWAP1 DUP2 MSTORE PUSH1 0x1 PUSH1 0x20 MSTORE PUSH1 0x40 SWAP1 KECCAK256 SLOAD SWAP2 SWAP3 POP PUSH2 0xFF3 SWAP2 SWAP1 PUSH2 0x23BF JUMP JUMPDEST PUSH1 0x1 PUSH1 0x1 PUSH1 0xA0 SHL SUB DUP4 AND PUSH1 0x0 SWAP1 DUP2 MSTORE PUSH1 0x1 PUSH1 0x20 MSTORE PUSH1 0x40 SWAP1 KECCAK256 SSTORE DUP1 MLOAD PUSH1 0xB SLOAD PUSH2 0x101A SWAP2 PUSH2 0x23BF JUMP JUMPDEST PUSH1 0xB SSTORE PUSH1 0x1D DUP1 SLOAD DUP5 SWAP2 SWAP1 PUSH1 0x0 SWAP1 PUSH2 0x1032 SWAP1 DUP5 SWAP1 PUSH2 0x3BC1 JUMP JUMPDEST SWAP1 SWAP2 SSTORE POP POP POP POP POP JUMP JUMPDEST PUSH2 0x1044 PUSH2 0x1E38 JUMP JUMPDEST PUSH1 0x1 PUSH1 0x1 PUSH1 0xA0 SHL SUB AND PUSH2 0x1055 PUSH2 0x18DD JUMP JUMPDEST PUSH1 0x1 PUSH1 0x1 PUSH1 0xA0 SHL SUB AND EQ PUSH2 0x107B JUMPI PUSH1 0x40 MLOAD PUSH3 0x461BCD PUSH1 0xE5 SHL DUP2 MSTORE PUSH1 0x4 ADD PUSH2 0x9DF SWAP1 PUSH2 0x392D JUMP JUMPDEST PUSH1 0x8 SLOAD PUSH1 0x1 PUSH1 0x1 PUSH1 0xA0 SHL SUB DUP3 DUP2 AND PUSH1 0x1 PUSH1 0x20 SHL SWAP1 SWAP3 DIV AND EQ ISZERO PUSH2 0x109D JUMPI PUSH1 0x0 DUP1 REVERT JUMPDEST PUSH1 0x0 DUP2 SWAP1 POP PUSH1 0x0 DUP2 PUSH1 0x1 PUSH1 0x1 PUSH1 0xA0 SHL SUB AND PUSH4 0xC45A0155 PUSH1 0x40 MLOAD DUP2 PUSH4 0xFFFFFFFF AND PUSH1 0xE0 SHL DUP2 MSTORE PUSH1 0x4 ADD PUSH1 0x20 PUSH1 0x40 MLOAD DUP1 DUP4 SUB DUP2 DUP7 DUP1 EXTCODESIZE ISZERO DUP1 ISZERO PUSH2 0x10DD JUMPI PUSH1 0x0 DUP1 REVERT JUMPDEST POP GAS STATICCALL ISZERO DUP1 ISZERO PUSH2 0x10F1 JUMPI RETURNDATASIZE PUSH1 0x0 DUP1 RETURNDATACOPY RETURNDATASIZE PUSH1 0x0 REVERT JUMPDEST POP POP POP POP PUSH1 0x40 MLOAD RETURNDATASIZE PUSH1 0x1F NOT PUSH1 0x1F DUP3 ADD AND DUP3 ADD DUP1 PUSH1 0x40 MSTORE POP DUP2 ADD SWAP1 PUSH2 0x1115 SWAP2 SWAP1 PUSH2 0x32EE JUMP JUMPDEST PUSH1 0x1 PUSH1 0x1 PUSH1 0xA0 SHL SUB AND PUSH4 0xE6A43905 ADDRESS DUP5 PUSH1 0x1 PUSH1 0x1 PUSH1 0xA0 SHL SUB AND PUSH4 0xAD5C4648 PUSH1 0x40 MLOAD DUP2 PUSH4 0xFFFFFFFF AND PUSH1 0xE0 SHL DUP2 MSTORE PUSH1 0x4 ADD PUSH1 0x20 PUSH1 0x40 MLOAD DUP1 DUP4 SUB DUP2 DUP7 DUP1 EXTCODESIZE ISZERO DUP1 ISZERO PUSH2 0x115D JUMPI PUSH1 0x0 DUP1 REVERT JUMPDEST POP GAS STATICCALL ISZERO DUP1 ISZERO PUSH2 0x1171 JUMPI RETURNDATASIZE PUSH1 0x0 DUP1 RETURNDATACOPY RETURNDATASIZE PUSH1 0x0 REVERT JUMPDEST POP POP POP POP PUSH1 0x40 MLOAD RETURNDATASIZE PUSH1 0x1F NOT PUSH1 0x1F DUP3 ADD AND DUP3 ADD DUP1 PUSH1 0x40 MSTORE POP DUP2 ADD SWAP1 PUSH2 0x1195 SWAP2 SWAP1 PUSH2 0x32EE JUMP JUMPDEST PUSH1 0x40 MLOAD DUP4 PUSH4 0xFFFFFFFF AND PUSH1 0xE0 SHL DUP2 MSTORE PUSH1 0x4 ADD PUSH2 0x11B2 SWAP3 SWAP2 SWAP1 PUSH2 0x3545 JUMP JUMPDEST PUSH1 0x20 PUSH1 0x40 MLOAD DUP1 DUP4 SUB DUP2 DUP7 DUP1 EXTCODESIZE ISZERO DUP1 ISZERO PUSH2 0x11CA JUMPI PUSH1 0x0 DUP1 REVERT JUMPDEST POP GAS STATICCALL ISZERO DUP1 ISZERO PUSH2 0x11DE JUMPI RETURNDATASIZE PUSH1 0x0 DUP1 RETURNDATACOPY RETURNDATASIZE PUSH1 0x0 REVERT JUMPDEST POP POP POP POP PUSH1 0x40 MLOAD RETURNDATASIZE PUSH1 0x1F NOT PUSH1 0x1F DUP3 ADD AND DUP3 ADD DUP1 PUSH1 0x40 MSTORE POP DUP2 ADD SWAP1 PUSH2 0x1202 SWAP2 SWAP1 PUSH2 0x32EE JUMP JUMPDEST SWAP1 POP PUSH1 0x1 PUSH1 0x1 PUSH1 0xA0 SHL SUB DUP2 AND PUSH2 0x1397 JUMPI DUP2 PUSH1 0x1 PUSH1 0x1 PUSH1 0xA0 SHL SUB AND PUSH4 0xC45A0155 PUSH1 0x40 MLOAD DUP2 PUSH4 0xFFFFFFFF AND PUSH1 0xE0 SHL DUP2 MSTORE PUSH1 0x4 ADD PUSH1 0x20 PUSH1 0x40 MLOAD DUP1 DUP4 SUB DUP2 DUP7 DUP1 EXTCODESIZE ISZERO DUP1 ISZERO PUSH2 0x124B JUMPI PUSH1 0x0 DUP1 REVERT JUMPDEST POP GAS STATICCALL ISZERO DUP1 ISZERO PUSH2 0x125F JUMPI RETURNDATASIZE PUSH1 0x0 DUP1 RETURNDATACOPY RETURNDATASIZE PUSH1 0x0 REVERT JUMPDEST POP POP POP POP PUSH1 0x40 MLOAD RETURNDATASIZE PUSH1 0x1F NOT PUSH1 0x1F DUP3 ADD AND DUP3 ADD DUP1 PUSH1 0x40 MSTORE POP DUP2 ADD SWAP1 PUSH2 0x1283 SWAP2 SWAP1 PUSH2 0x32EE JUMP JUMPDEST PUSH1 0x1 PUSH1 0x1 PUSH1 0xA0 SHL SUB AND PUSH4 0xC9C65396 ADDRESS DUP5 PUSH1 0x1 PUSH1 0x1 PUSH1 0xA0 SHL SUB AND PUSH4 0xAD5C4648 PUSH1 0x40 MLOAD DUP2 PUSH4 0xFFFFFFFF AND PUSH1 0xE0 SHL DUP2 MSTORE PUSH1 0x4 ADD PUSH1 0x20 PUSH1 0x40 MLOAD DUP1 DUP4 SUB DUP2 DUP7 DUP1 EXTCODESIZE ISZERO DUP1 ISZERO PUSH2 0x12CB JUMPI PUSH1 0x0 DUP1 REVERT JUMPDEST POP GAS STATICCALL ISZERO DUP1 ISZERO PUSH2 0x12DF JUMPI RETURNDATASIZE PUSH1 0x0 DUP1 RETURNDATACOPY RETURNDATASIZE PUSH1 0x0 REVERT JUMPDEST POP POP POP POP PUSH1 0x40 MLOAD RETURNDATASIZE PUSH1 0x1F NOT PUSH1 0x1F DUP3 ADD AND DUP3 ADD DUP1 PUSH1 0x40 MSTORE POP DUP2 ADD SWAP1 PUSH2 0x1303 SWAP2 SWAP1 PUSH2 0x32EE JUMP JUMPDEST PUSH1 0x40 MLOAD DUP4 PUSH4 0xFFFFFFFF AND PUSH1 0xE0 SHL DUP2 MSTORE PUSH1 0x4 ADD PUSH2 0x1320 SWAP3 SWAP2 SWAP1 PUSH2 0x3545 JUMP JUMPDEST PUSH1 0x20 PUSH1 0x40 MLOAD DUP1 DUP4 SUB DUP2 PUSH1 0x0 DUP8 DUP1 EXTCODESIZE ISZERO DUP1 ISZERO PUSH2 0x133A JUMPI PUSH1 0x0 DUP1 REVERT JUMPDEST POP GAS CALL ISZERO DUP1 ISZERO PUSH2 0x134E JUMPI RETURNDATASIZE PUSH1 0x0 DUP1 RETURNDATACOPY RETURNDATASIZE PUSH1 0x0 REVERT JUMPDEST POP POP POP POP PUSH1 0x40 MLOAD RETURNDATASIZE PUSH1 0x1F NOT PUSH1 0x1F DUP3 ADD AND DUP3 ADD DUP1 PUSH1 0x40 MSTORE POP DUP2 ADD SWAP1 PUSH2 0x1372 SWAP2 SWAP1 PUSH2 0x32EE JUMP JUMPDEST PUSH1 0x9 DUP1 SLOAD PUSH1 0x1 PUSH1 0x1 PUSH1 0xA0 SHL SUB NOT AND PUSH1 0x1 PUSH1 0x1 PUSH1 0xA0 SHL SUB SWAP3 SWAP1 SWAP3 AND SWAP2 SWAP1 SWAP2 OR SWAP1 SSTORE PUSH2 0x13B3 JUMP JUMPDEST PUSH1 0x9 DUP1 SLOAD PUSH1 0x1 PUSH1 0x1 PUSH1 0xA0 SHL SUB NOT AND PUSH1 0x1 PUSH1 0x1 PUSH1 0xA0 SHL SUB DUP4 AND OR SWAP1 SSTORE JUMPDEST POP PUSH1 0x8 DUP1 SLOAD PUSH1 0x1 PUSH1 0x1 PUSH1 0xA0 SHL SUB SWAP1 SWAP3 AND PUSH1 0x1 PUSH1 0x20 SHL MUL PUSH5 0x100000000 PUSH1 0x1 PUSH1 0xC0 SHL SUB NOT SWAP1 SWAP3 AND SWAP2 SWAP1 SWAP2 OR SWAP1 SSTORE POP JUMP JUMPDEST PUSH2 0x13EA PUSH2 0x1E38 JUMP JUMPDEST PUSH1 0x1 PUSH1 0x1 PUSH1 0xA0 SHL SUB AND PUSH2 0x13FB PUSH2 0x18DD JUMP JUMPDEST PUSH1 0x1 PUSH1 0x1 PUSH1 0xA0 SHL SUB AND EQ PUSH2 0x1421 JUMPI PUSH1 0x40 MLOAD PUSH3 0x461BCD PUSH1 0xE5 SHL DUP2 MSTORE PUSH1 0x4 ADD PUSH2 0x9DF SWAP1 PUSH2 0x392D JUMP JUMPDEST PUSH1 0x1 PUSH1 0x1 PUSH1 0xA0 SHL SUB AND PUSH1 0x0 SWAP1 DUP2 MSTORE PUSH1 0x4 PUSH1 0x20 MSTORE PUSH1 0x40 SWAP1 KECCAK256 DUP1 SLOAD PUSH1 0xFF NOT AND PUSH1 0x1 OR SWAP1 SSTORE JUMP JUMPDEST PUSH2 0x144D PUSH2 0x1E38 JUMP JUMPDEST PUSH1 0x1 PUSH1 0x1 PUSH1 0xA0 SHL SUB AND PUSH2 0x145E PUSH2 0x18DD JUMP JUMPDEST PUSH1 0x1 PUSH1 0x1 PUSH1 0xA0 SHL SUB AND EQ PUSH2 0x1484 JUMPI PUSH1 0x40 MLOAD PUSH3 0x461BCD PUSH1 0xE5 SHL DUP2 MSTORE PUSH1 0x4 ADD PUSH2 0x9DF SWAP1 PUSH2 0x392D JUMP JUMPDEST DUP1 SELFBALANCE LT ISZERO PUSH2 0x14A4 JUMPI PUSH1 0x40 MLOAD PUSH3 0x461BCD PUSH1 0xE5 SHL DUP2 MSTORE PUSH1 0x4 ADD PUSH2 0x9DF SWAP1 PUSH2 0x38F6 JUMP JUMPDEST PUSH1 0x40 MLOAD CALLER SWAP1 DUP3 ISZERO PUSH2 0x8FC MUL SWAP1 DUP4 SWAP1 PUSH1 0x0 DUP2 DUP2 DUP2 DUP6 DUP9 DUP9 CALL SWAP4 POP POP POP POP ISZERO DUP1 ISZERO PUSH2 0xADD JUMPI RETURNDATASIZE PUSH1 0x0 DUP1 RETURNDATACOPY RETURNDATASIZE PUSH1 0x0 REVERT JUMPDEST PUSH1 0x0 PUSH1 0xA SLOAD DUP4 GT ISZERO PUSH2 0x14F5 JUMPI PUSH1 0x40 MLOAD PUSH3 0x461BCD PUSH1 0xE5 SHL DUP2 MSTORE PUSH1 0x4 ADD PUSH2 0x9DF SWAP1 PUSH2 0x38BF JUMP JUMPDEST DUP2 PUSH2 0x1513 JUMPI PUSH1 0x0 PUSH2 0x1509 DUP5 PUSH1 0x1 PUSH1 0x0 PUSH2 0x2370 JUMP JUMPDEST MLOAD SWAP2 POP PUSH2 0xB1D SWAP1 POP JUMP JUMPDEST PUSH1 0x0 PUSH2 0x1522 DUP5 PUSH1 0x1 PUSH1 0x0 PUSH2 0x2370 JUMP JUMPDEST PUSH1 0x20 ADD MLOAD SWAP2 POP PUSH2 0xB1D SWAP1 POP JUMP JUMPDEST PUSH1 0x8 SLOAD PUSH1 0xFF AND DUP2 JUMP JUMPDEST PUSH2 0x1540 PUSH2 0x1E38 JUMP JUMPDEST PUSH1 0x1 PUSH1 0x1 PUSH1 0xA0 SHL SUB AND PUSH2 0x1551 PUSH2 0x18DD JUMP JUMPDEST PUSH1 0x1 PUSH1 0x1 PUSH1 0xA0 SHL SUB AND EQ PUSH2 0x1577 JUMPI PUSH1 0x40 MLOAD PUSH3 0x461BCD PUSH1 0xE5 SHL DUP2 MSTORE PUSH1 0x4 ADD PUSH2 0x9DF SWAP1 PUSH2 0x392D JUMP JUMPDEST PUSH1 0x1 PUSH1 0x1 PUSH1 0xA0 SHL SUB DUP2 AND PUSH1 0x0 SWAP1 DUP2 MSTORE PUSH1 0x5 PUSH1 0x20 MSTORE PUSH1 0x40 SWAP1 KECCAK256 SLOAD PUSH1 0xFF AND ISZERO PUSH2 0x15B0 JUMPI PUSH1 0x40 MLOAD PUSH3 0x461BCD PUSH1 0xE5 SHL DUP2 MSTORE PUSH1 0x4 ADD PUSH2 0x9DF SWAP1 PUSH2 0x380E JUMP JUMPDEST PUSH1 0x1 PUSH1 0x1 PUSH1 0xA0 SHL SUB DUP2 AND PUSH1 0x0 SWAP1 DUP2 MSTORE PUSH1 0x1 PUSH1 0x20 MSTORE PUSH1 0x40 SWAP1 KECCAK256 SLOAD ISZERO PUSH2 0x160A JUMPI PUSH1 0x1 PUSH1 0x1 PUSH1 0xA0 SHL SUB DUP2 AND PUSH1 0x0 SWAP1 DUP2 MSTORE PUSH1 0x1 PUSH1 0x20 MSTORE PUSH1 0x40 SWAP1 KECCAK256 SLOAD PUSH2 0x15F0 SWAP1 PUSH2 0xC5A JUMP JUMPDEST PUSH1 0x1 PUSH1 0x1 PUSH1 0xA0 SHL SUB DUP3 AND PUSH1 0x0 SWAP1 DUP2 MSTORE PUSH1 0x2 PUSH1 0x20 MSTORE PUSH1 0x40 SWAP1 KECCAK256 SSTORE JUMPDEST PUSH1 0x1 PUSH1 0x1 PUSH1 0xA0 SHL SUB AND PUSH1 0x0 DUP2 DUP2 MSTORE PUSH1 0x5 PUSH1 0x20 MSTORE PUSH1 0x40 DUP2 KECCAK256 DUP1 SLOAD PUSH1 0xFF NOT AND PUSH1 0x1 SWAP1 DUP2 OR SWAP1 SWAP2 SSTORE PUSH1 0x7 DUP1 SLOAD SWAP2 DUP3 ADD DUP2 SSTORE SWAP1 SWAP2 MSTORE PUSH32 0xA66CC928B5EDB82AF9BD49922954155AB7B0942694BEA4CE44661D9A8736C688 ADD DUP1 SLOAD PUSH1 0x1 PUSH1 0x1 PUSH1 0xA0 SHL SUB NOT AND SWAP1 SWAP2 OR SWAP1 SSTORE JUMP JUMPDEST PUSH1 0x1 PUSH1 0x1 PUSH1 0xA0 SHL SUB AND PUSH1 0x0 SWAP1 DUP2 MSTORE PUSH1 0x4 PUSH1 0x20 MSTORE PUSH1 0x40 SWAP1 KECCAK256 SLOAD PUSH1 0xFF AND SWAP1 JUMP JUMPDEST PUSH1 0x8 SLOAD PUSH3 0x10000 SWAP1 DIV PUSH1 0xFF AND DUP2 JUMP JUMPDEST PUSH1 0xD SLOAD DUP2 JUMP JUMPDEST PUSH2 0x16AB PUSH2 0x1E38 JUMP JUMPDEST PUSH1 0x1 PUSH1 0x1 PUSH1 0xA0 SHL SUB AND PUSH2 0x16BC PUSH2 0x18DD JUMP JUMPDEST PUSH1 0x1 PUSH1 0x1 PUSH1 0xA0 SHL SUB AND EQ PUSH2 0x16E2 JUMPI PUSH1 0x40 MLOAD PUSH3 0x461BCD PUSH1 0xE5 SHL DUP2 MSTORE PUSH1 0x4 ADD PUSH2 0x9DF SWAP1 PUSH2 0x392D JUMP JUMPDEST PUSH1 0x13 DUP6 SWAP1 SSTORE PUSH1 0x14 DUP5 SWAP1 SSTORE PUSH1 0x15 DUP4 SWAP1 SSTORE PUSH1 0x16 DUP3 SWAP1 SSTORE PUSH1 0x17 DUP2 SWAP1 SSTORE PUSH1 0x40 MLOAD PUSH32 0x846206D6C3449AC0B05841DFB88BF28B55AEF00F96152490C69C96238048DE15 SWAP1 PUSH1 0x0 SWAP1 LOG1 POP POP POP POP POP JUMP JUMPDEST PUSH1 0x8 SLOAD PUSH2 0x100 SWAP1 DIV PUSH1 0xFF AND DUP2 JUMP JUMPDEST PUSH1 0x1 PUSH1 0x1 PUSH1 0xA0 SHL SUB DUP2 AND PUSH1 0x0 SWAP1 DUP2 MSTORE PUSH1 0x5 PUSH1 0x20 MSTORE PUSH1 0x40 DUP2 KECCAK256 SLOAD PUSH1 0xFF AND ISZERO PUSH2 0x1779 JUMPI POP PUSH1 0x1 PUSH1 0x1 PUSH1 0xA0 SHL SUB DUP2 AND PUSH1 0x0 SWAP1 DUP2 MSTORE PUSH1 0x2 PUSH1 0x20 MSTORE PUSH1 0x40 SWAP1 KECCAK256 SLOAD PUSH2 0xC98 JUMP JUMPDEST PUSH1 0x1 PUSH1 0x1 PUSH1 0xA0 SHL SUB DUP3 AND PUSH1 0x0 SWAP1 DUP2 MSTORE PUSH1 0x1 PUSH1 0x20 MSTORE PUSH1 0x40 SWAP1 KECCAK256 SLOAD PUSH2 0xB1D SWAP1 PUSH2 0xC5A JUMP JUMPDEST PUSH1 0x10 SLOAD DUP2 JUMP JUMPDEST PUSH2 0x17A9 PUSH2 0x1E38 JUMP JUMPDEST PUSH1 0x1 PUSH1 0x1 PUSH1 0xA0 SHL SUB AND PUSH2 0x17BA PUSH2 0x18DD JUMP JUMPDEST PUSH1 0x1 PUSH1 0x1 PUSH1 0xA0 SHL SUB AND EQ PUSH2 0x17E0 JUMPI PUSH1 0x40 MLOAD PUSH3 0x461BCD PUSH1 0xE5 SHL DUP2 MSTORE PUSH1 0x4 ADD PUSH2 0x9DF SWAP1 PUSH2 0x392D JUMP JUMPDEST PUSH2 0x17EA PUSH1 0x0 PUSH2 0x23CB JUMP JUMPDEST JUMP JUMPDEST PUSH1 0x13 SLOAD PUSH1 0x14 SLOAD PUSH1 0x15 SLOAD PUSH1 0x16 SLOAD PUSH1 0x17 SLOAD DUP6 JUMP JUMPDEST PUSH2 0x1806 PUSH2 0x1E38 JUMP JUMPDEST PUSH1 0x1 PUSH1 0x1 PUSH1 0xA0 SHL SUB AND PUSH2 0x1817 PUSH2 0x18DD JUMP JUMPDEST PUSH1 0x1 PUSH1 0x1 PUSH1 0xA0 SHL SUB AND EQ PUSH2 0x183D JUMPI PUSH1 0x40 MLOAD PUSH3 0x461BCD PUSH1 0xE5 SHL DUP2 MSTORE PUSH1 0x4 ADD PUSH2 0x9DF SWAP1 PUSH2 0x392D JUMP JUMPDEST PUSH2 0x185D PUSH1 0x64 PUSH2 0x1857 DUP4 PUSH1 0xA SLOAD PUSH2 0x1E20 SWAP1 SWAP2 SWAP1 PUSH4 0xFFFFFFFF AND JUMP JUMPDEST SWAP1 PUSH2 0x1E2C JUMP JUMPDEST PUSH1 0xF SSTORE POP JUMP JUMPDEST PUSH2 0x186B PUSH2 0x1E38 JUMP JUMPDEST PUSH1 0x1 PUSH1 0x1 PUSH1 0xA0 SHL SUB AND PUSH2 0x187C PUSH2 0x18DD JUMP JUMPDEST PUSH1 0x1 PUSH1 0x1 PUSH1 0xA0 SHL SUB AND EQ PUSH2 0x18A2 JUMPI PUSH1 0x40 MLOAD PUSH3 0x461BCD PUSH1 0xE5 SHL DUP2 MSTORE PUSH1 0x4 ADD PUSH2 0x9DF SWAP1 PUSH2 0x392D JUMP JUMPDEST PUSH2 0x18B3 DUP2 PUSH7 0x38D7EA4C68000 PUSH2 0x3D10 JUMP JUMPDEST PUSH1 0x10 SSTORE POP JUMP JUMPDEST PUSH1 0xC SLOAD DUP2 JUMP JUMPDEST PUSH1 0x1 PUSH1 0x1 PUSH1 0xA0 SHL SUB AND PUSH1 0x0 SWAP1 DUP2 MSTORE PUSH1 0x5 PUSH1 0x20 MSTORE PUSH1 0x40 SWAP1 KECCAK256 SLOAD PUSH1 0xFF AND SWAP1 JUMP JUMPDEST PUSH1 0x0 SLOAD PUSH1 0x1 PUSH1 0x1 PUSH1 0xA0 SHL SUB AND SWAP1 JUMP JUMPDEST PUSH1 0xF SLOAD DUP2 JUMP JUMPDEST PUSH2 0x18FA PUSH2 0x1E38 JUMP JUMPDEST PUSH1 0x1 PUSH1 0x1 PUSH1 0xA0 SHL SUB AND PUSH2 0x190B PUSH2 0x18DD JUMP JUMPDEST PUSH1 0x1 PUSH1 0x1 PUSH1 0xA0 SHL SUB AND EQ PUSH2 0x1931 JUMPI PUSH1 0x40 MLOAD PUSH3 0x461BCD PUSH1 0xE5 SHL DUP2 MSTORE PUSH1 0x4 ADD PUSH2 0x9DF SWAP1 PUSH2 0x392D JUMP JUMPDEST PUSH1 0x8 DUP1 SLOAD SWAP2 ISZERO ISZERO PUSH2 0x100 MUL PUSH2 0xFF00 NOT SWAP1 SWAP3 AND SWAP2 SWAP1 SWAP2 OR SWAP1 SSTORE JUMP JUMPDEST PUSH1 0x40 DUP1 MLOAD DUP1 DUP3 ADD SWAP1 SWAP2 MSTORE PUSH1 0x6 DUP2 MSTORE PUSH6 0x4A6573736965 PUSH1 0xD0 SHL PUSH1 0x20 DUP3 ADD MSTORE SWAP1 JUMP JUMPDEST PUSH1 0x1D SLOAD PUSH1 0x1E SLOAD PUSH1 0x1F SLOAD PUSH1 0x20 SLOAD PUSH1 0x21 SLOAD DUP6 JUMP JUMPDEST PUSH1 0x0 PUSH2 0xB19 PUSH2 0x198A PUSH2 0x1E38 JUMP JUMPDEST DUP5 PUSH2 0xBB3 DUP6 PUSH1 0x40 MLOAD DUP1 PUSH1 0x60 ADD PUSH1 0x40 MSTORE DUP1 PUSH1 0x25 DUP2 MSTORE PUSH1 0x20 ADD PUSH2 0x3DC3 PUSH1 0x25 SWAP2 CODECOPY PUSH1 0x3 PUSH1 0x0 PUSH2 0x19B4 PUSH2 0x1E38 JUMP JUMPDEST PUSH1 0x1 PUSH1 0x1 PUSH1 0xA0 SHL SUB SWAP1 DUP2 AND DUP3 MSTORE PUSH1 0x20 DUP1 DUP4 ADD SWAP4 SWAP1 SWAP4 MSTORE PUSH1 0x40 SWAP2 DUP3 ADD PUSH1 0x0 SWAP1 DUP2 KECCAK256 SWAP2 DUP14 AND DUP2 MSTORE SWAP3 MSTORE SWAP1 KECCAK256 SLOAD SWAP2 SWAP1 PUSH2 0x2321 JUMP JUMPDEST PUSH1 0x11 SLOAD PUSH1 0x1 PUSH1 0x1 PUSH1 0xA0 SHL SUB AND DUP2 JUMP JUMPDEST PUSH1 0x9 SLOAD PUSH1 0x1 PUSH1 0x1 PUSH1 0xA0 SHL SUB AND DUP2 JUMP JUMPDEST PUSH1 0x0 PUSH2 0xB19 PUSH2 0x1A10 PUSH2 0x1E38 JUMP JUMPDEST DUP5 DUP5 PUSH2 0x1EF0 JUMP JUMPDEST PUSH2 0x1A1F PUSH2 0x1E38 JUMP JUMPDEST PUSH1 0x1 PUSH1 0x1 PUSH1 0xA0 SHL SUB AND PUSH2 0x1A30 PUSH2 0x18DD JUMP JUMPDEST PUSH1 0x1 PUSH1 0x1 PUSH1 0xA0 SHL SUB AND EQ PUSH2 0x1A56 JUMPI PUSH1 0x40 MLOAD PUSH3 0x461BCD PUSH1 0xE5 SHL DUP2 MSTORE PUSH1 0x4 ADD PUSH2 0x9DF SWAP1 PUSH2 0x392D JUMP JUMPDEST PUSH1 0x11 SLOAD PUSH1 0x1 PUSH1 0x1 PUSH1 0xA0 SHL SUB DUP3 DUP2 AND SWAP2 AND EQ ISZERO PUSH2 0x1A84 JUMPI PUSH1 0x40 MLOAD PUSH3 0x461BCD PUSH1 0xE5 SHL DUP2 MSTORE PUSH1 0x4 ADD PUSH2 0x9DF SWAP1 PUSH2 0x39AB JUMP JUMPDEST PUSH1 0x11 DUP1 SLOAD PUSH1 0x1 PUSH1 0x1 PUSH1 0xA0 SHL SUB NOT AND PUSH1 0x1 PUSH1 0x1 PUSH1 0xA0 SHL SUB SWAP3 DUP4 AND OR SWAP1 DUP2 SWAP1 SSTORE AND PUSH1 0x0 MSTORE PUSH1 0x4 PUSH1 0x20 MSTORE JUMP JUMPDEST PUSH2 0x1AB5 PUSH2 0x1E38 JUMP JUMPDEST PUSH1 0x1 PUSH1 0x1 PUSH1 0xA0 SHL SUB AND PUSH2 0x1AC6 PUSH2 0x18DD JUMP JUMPDEST PUSH1 0x1 PUSH1 0x1 PUSH1 0xA0 SHL SUB AND EQ PUSH2 0x1AEC JUMPI PUSH1 0x40 MLOAD PUSH3 0x461BCD PUSH1 0xE5 SHL DUP2 MSTORE PUSH1 0x4 ADD PUSH2 0x9DF SWAP1 PUSH2 0x392D JUMP JUMPDEST PUSH1 0x18 DUP6 SWAP1 SSTORE PUSH1 0x19 DUP5 SWAP1 SSTORE PUSH1 0x1A DUP4 SWAP1 SSTORE PUSH1 0x1B DUP3 SWAP1 SSTORE PUSH1 0x1C DUP2 SWAP1 SSTORE PUSH1 0x40 MLOAD PUSH32 0x846206D6C3449AC0B05841DFB88BF28B55AEF00F96152490C69C96238048DE15 SWAP1 PUSH1 0x0 SWAP1 LOG1 POP POP POP POP POP JUMP JUMPDEST PUSH2 0x1B3D PUSH2 0x1E38 JUMP JUMPDEST PUSH1 0x1 PUSH1 0x1 PUSH1 0xA0 SHL SUB AND PUSH2 0x1B4E PUSH2 0x18DD JUMP JUMPDEST PUSH1 0x1 PUSH1 0x1 PUSH1 0xA0 SHL SUB AND EQ PUSH2 0x1B74 JUMPI PUSH1 0x40 MLOAD PUSH3 0x461BCD PUSH1 0xE5 SHL DUP2 MSTORE PUSH1 0x4 ADD PUSH2 0x9DF SWAP1 PUSH2 0x392D JUMP JUMPDEST PUSH2 0x1B82 DUP3 PUSH4 0x3B9ACA00 PUSH2 0x3D10 JUMP JUMPDEST PUSH1 0xC SSTORE PUSH2 0x1B93 DUP2 PUSH4 0x3B9ACA00 PUSH2 0x3D10 JUMP JUMPDEST PUSH1 0xD SSTORE POP POP JUMP JUMPDEST PUSH2 0x1BA2 PUSH2 0x1E38 JUMP JUMPDEST PUSH1 0x1 PUSH1 0x1 PUSH1 0xA0 SHL SUB AND PUSH2 0x1BB3 PUSH2 0x18DD JUMP JUMPDEST PUSH1 0x1 PUSH1 0x1 PUSH1 0xA0 SHL SUB AND EQ PUSH2 0x1BD9 JUMPI PUSH1 0x40 MLOAD PUSH3 0x461BCD PUSH1 0xE5 SHL DUP2 MSTORE PUSH1 0x4 ADD PUSH2 0x9DF SWAP1 PUSH2 0x392D JUMP JUMPDEST PUSH2 0x1BE5 PUSH1 0x9 PUSH1 0xA PUSH2 0x3C3F JUMP JUMPDEST PUSH2 0x1BEF SWAP1 DUP3 PUSH2 0x3D10 JUMP JUMPDEST PUSH1 0xE SSTORE POP JUMP JUMPDEST PUSH1 0x1 PUSH1 0x1 PUSH1 0xA0 SHL SUB SWAP2 DUP3 AND PUSH1 0x0 SWAP1 DUP2 MSTORE PUSH1 0x3 PUSH1 0x20 SWAP1 DUP2 MSTORE PUSH1 0x40 DUP1 DUP4 KECCAK256 SWAP4 SWAP1 SWAP5 AND DUP3 MSTORE SWAP2 SWAP1 SWAP2 MSTORE KECCAK256 SLOAD SWAP1 JUMP JUMPDEST PUSH2 0x1C28 PUSH2 0x1E38 JUMP JUMPDEST PUSH1 0x1 PUSH1 0x1 PUSH1 0xA0 SHL SUB AND PUSH2 0x1C39 PUSH2 0x18DD JUMP JUMPDEST PUSH1 0x1 PUSH1 0x1 PUSH1 0xA0 SHL SUB AND EQ PUSH2 0x1C5F JUMPI PUSH1 0x40 MLOAD PUSH3 0x461BCD PUSH1 0xE5 SHL DUP2 MSTORE PUSH1 0x4 ADD PUSH2 0x9DF SWAP1 PUSH2 0x392D JUMP JUMPDEST PUSH1 0x1 PUSH1 0x1 PUSH1 0xA0 SHL SUB DUP3 AND PUSH1 0x0 SWAP1 DUP2 MSTORE PUSH1 0x6 PUSH1 0x20 MSTORE PUSH1 0x40 SWAP1 KECCAK256 SLOAD PUSH1 0xFF AND ISZERO ISZERO DUP2 ISZERO ISZERO EQ ISZERO PUSH2 0x1C9E JUMPI PUSH1 0x40 MLOAD PUSH3 0x461BCD PUSH1 0xE5 SHL DUP2 MSTORE PUSH1 0x4 ADD PUSH2 0x9DF SWAP1 PUSH2 0x36C0 JUMP JUMPDEST PUSH1 0x1 PUSH1 0x1 PUSH1 0xA0 SHL SUB SWAP2 SWAP1 SWAP2 AND PUSH1 0x0 SWAP1 DUP2 MSTORE PUSH1 0x6 PUSH1 0x20 MSTORE PUSH1 0x40 SWAP1 KECCAK256 DUP1 SLOAD PUSH1 0xFF NOT AND SWAP2 ISZERO ISZERO SWAP2 SWAP1 SWAP2 OR SWAP1 SSTORE JUMP JUMPDEST PUSH1 0xE SLOAD DUP2 JUMP JUMPDEST PUSH2 0x1CD7 PUSH2 0x1E38 JUMP JUMPDEST PUSH1 0x1 PUSH1 0x1 PUSH1 0xA0 SHL SUB AND PUSH2 0x1CE8 PUSH2 0x18DD JUMP JUMPDEST PUSH1 0x1 PUSH1 0x1 PUSH1 0xA0 SHL SUB AND EQ PUSH2 0x1D0E JUMPI PUSH1 0x40 MLOAD PUSH3 0x461BCD PUSH1 0xE5 SHL DUP2 MSTORE PUSH1 0x4 ADD PUSH2 0x9DF SWAP1 PUSH2 0x392D JUMP JUMPDEST PUSH1 0x1 PUSH1 0x1 PUSH1 0xA0 SHL SUB AND PUSH1 0x0 SWAP1 DUP2 MSTORE PUSH1 0x4 PUSH1 0x20 MSTORE PUSH1 0x40 SWAP1 KECCAK256 DUP1 SLOAD PUSH1 0xFF NOT AND SWAP1 SSTORE JUMP JUMPDEST PUSH1 0x12 SLOAD PUSH1 0x1 PUSH1 0x1 PUSH1 0xA0 SHL SUB AND DUP2 JUMP JUMPDEST PUSH2 0x1D46 PUSH2 0x1E38 JUMP JUMPDEST PUSH1 0x1 PUSH1 0x1 PUSH1 0xA0 SHL SUB AND PUSH2 0x1D57 PUSH2 0x18DD JUMP JUMPDEST PUSH1 0x1 PUSH1 0x1 PUSH1 0xA0 SHL SUB AND EQ PUSH2 0x1D7D JUMPI PUSH1 0x40 MLOAD PUSH3 0x461BCD PUSH1 0xE5 SHL DUP2 MSTORE PUSH1 0x4 ADD PUSH2 0x9DF SWAP1 PUSH2 0x392D JUMP JUMPDEST PUSH1 0x1 PUSH1 0x1 PUSH1 0xA0 SHL SUB DUP2 AND PUSH2 0x1DA3 JUMPI PUSH1 0x40 MLOAD PUSH3 0x461BCD PUSH1 0xE5 SHL DUP2 MSTORE PUSH1 0x4 ADD PUSH2 0x9DF SWAP1 PUSH2 0x3786 JUMP JUMPDEST PUSH2 0x1DAC DUP2 PUSH2 0x23CB JUMP JUMPDEST POP JUMP JUMPDEST PUSH1 0x8 SLOAD PUSH1 0x1 PUSH1 0x20 SHL SWAP1 DIV PUSH1 0x1 PUSH1 0x1 PUSH1 0xA0 SHL SUB AND DUP2 JUMP JUMPDEST PUSH2 0x1DCD PUSH2 0x1E38 JUMP JUMPDEST PUSH1 0x1 PUSH1 0x1 PUSH1 0xA0 SHL SUB AND PUSH2 0x1DDE PUSH2 0x18DD JUMP JUMPDEST PUSH1 0x1 PUSH1 0x1 PUSH1 0xA0 SHL SUB AND EQ PUSH2 0x1E04 JUMPI PUSH1 0x40 MLOAD PUSH3 0x461BCD PUSH1 0xE5 SHL DUP2 MSTORE PUSH1 0x4 ADD PUSH2 0x9DF SWAP1 PUSH2 0x392D JUMP JUMPDEST PUSH1 0x8 DUP1 SLOAD SWAP2 ISZERO ISZERO PUSH3 0x10000 MUL PUSH3 0xFF0000 NOT SWAP1 SWAP3 AND SWAP2 SWAP1 SWAP2 OR SWAP1 SSTORE JUMP JUMPDEST PUSH1 0x0 PUSH2 0xBBC DUP3 DUP5 PUSH2 0x3D10 JUMP JUMPDEST PUSH1 0x0 PUSH2 0xBBC DUP3 DUP5 PUSH2 0x3BD9 JUMP JUMPDEST CALLER SWAP1 JUMP JUMPDEST PUSH1 0x1 PUSH1 0x1 PUSH1 0xA0 SHL SUB DUP4 AND PUSH2 0x1E62 JUMPI PUSH1 0x40 MLOAD PUSH3 0x461BCD PUSH1 0xE5 SHL DUP2 MSTORE PUSH1 0x4 ADD PUSH2 0x9DF SWAP1 PUSH2 0x3A43 JUMP JUMPDEST PUSH1 0x1 PUSH1 0x1 PUSH1 0xA0 SHL SUB DUP3 AND PUSH2 0x1E88 JUMPI PUSH1 0x40 MLOAD PUSH3 0x461BCD PUSH1 0xE5 SHL DUP2 MSTORE PUSH1 0x4 ADD PUSH2 0x9DF SWAP1 PUSH2 0x37CC JUMP JUMPDEST PUSH1 0x1 PUSH1 0x1 PUSH1 0xA0 SHL SUB DUP1 DUP5 AND PUSH1 0x0 DUP2 DUP2 MSTORE PUSH1 0x3 PUSH1 0x20 SWAP1 DUP2 MSTORE PUSH1 0x40 DUP1 DUP4 KECCAK256 SWAP5 DUP8 AND DUP1 DUP5 MSTORE SWAP5 SWAP1 SWAP2 MSTORE SWAP1 DUP2 SWAP1 KECCAK256 DUP5 SWAP1 SSTORE MLOAD PUSH32 0x8C5BE1E5EBEC7D5BD14F71427D1E84F3DD0314C0F7B2291E5B200AC8C7C3B925 SWAP1 PUSH2 0x1EE3 SWAP1 DUP6 SWAP1 PUSH2 0x3B4B JUMP JUMPDEST PUSH1 0x40 MLOAD DUP1 SWAP2 SUB SWAP1 LOG3 POP POP POP JUMP JUMPDEST PUSH1 0x1 PUSH1 0x1 PUSH1 0xA0 SHL SUB DUP4 AND PUSH2 0x1F16 JUMPI PUSH1 0x40 MLOAD PUSH3 0x461BCD PUSH1 0xE5 SHL DUP2 MSTORE PUSH1 0x4 ADD PUSH2 0x9DF SWAP1 PUSH2 0x39FE JUMP JUMPDEST PUSH1 0x1 PUSH1 0x1 PUSH1 0xA0 SHL SUB DUP3 AND PUSH2 0x1F3C JUMPI PUSH1 0x40 MLOAD PUSH3 0x461BCD PUSH1 0xE5 SHL DUP2 MSTORE PUSH1 0x4 ADD PUSH2 0x9DF SWAP1 PUSH2 0x3646 JUMP JUMPDEST PUSH1 0x0 DUP2 GT PUSH2 0x1F5C JUMPI PUSH1 0x40 MLOAD PUSH3 0x461BCD PUSH1 0xE5 SHL DUP2 MSTORE PUSH1 0x4 ADD PUSH2 0x9DF SWAP1 PUSH2 0x3962 JUMP JUMPDEST PUSH2 0x1F65 DUP4 PUSH2 0x1739 JUMP JUMPDEST DUP2 GT ISZERO PUSH2 0x1F84 JUMPI PUSH1 0x40 MLOAD PUSH3 0x461BCD PUSH1 0xE5 SHL DUP2 MSTORE PUSH1 0x4 ADD PUSH2 0x9DF SWAP1 PUSH2 0x36EB JUMP JUMPDEST PUSH1 0x1 PUSH1 0x1 PUSH1 0xA0 SHL SUB DUP4 AND PUSH1 0x0 SWAP1 DUP2 MSTORE PUSH1 0x6 PUSH1 0x20 MSTORE PUSH1 0x40 SWAP1 KECCAK256 SLOAD PUSH1 0xFF AND ISZERO DUP1 ISZERO PUSH2 0x1FC6 JUMPI POP PUSH1 0x1 PUSH1 0x1 PUSH1 0xA0 SHL SUB DUP3 AND PUSH1 0x0 SWAP1 DUP2 MSTORE PUSH1 0x6 PUSH1 0x20 MSTORE PUSH1 0x40 SWAP1 KECCAK256 SLOAD PUSH1 0xFF AND ISZERO JUMPDEST PUSH2 0x1FE2 JUMPI PUSH1 0x40 MLOAD PUSH3 0x461BCD PUSH1 0xE5 SHL DUP2 MSTORE PUSH1 0x4 ADD PUSH2 0x9DF SWAP1 PUSH2 0x39D7 JUMP JUMPDEST PUSH1 0x1 PUSH1 0x1 PUSH1 0xA0 SHL SUB DUP4 AND PUSH1 0x0 SWAP1 DUP2 MSTORE PUSH1 0x4 PUSH1 0x20 MSTORE PUSH1 0x40 SWAP1 KECCAK256 SLOAD PUSH1 0xFF AND ISZERO DUP1 ISZERO PUSH2 0x2024 JUMPI POP PUSH1 0x1 PUSH1 0x1 PUSH1 0xA0 SHL SUB DUP3 AND PUSH1 0x0 SWAP1 DUP2 MSTORE PUSH1 0x4 PUSH1 0x20 MSTORE PUSH1 0x40 SWAP1 KECCAK256 SLOAD PUSH1 0xFF AND ISZERO JUMPDEST ISZERO PUSH2 0x204B JUMPI PUSH1 0x8 SLOAD PUSH1 0xFF AND PUSH2 0x204B JUMPI PUSH1 0x40 MLOAD PUSH3 0x461BCD PUSH1 0xE5 SHL DUP2 MSTORE PUSH1 0x4 ADD PUSH2 0x9DF SWAP1 PUSH2 0x3689 JUMP JUMPDEST PUSH2 0x2053 PUSH2 0x18DD JUMP JUMPDEST PUSH1 0x1 PUSH1 0x1 PUSH1 0xA0 SHL SUB AND DUP4 PUSH1 0x1 PUSH1 0x1 PUSH1 0xA0 SHL SUB AND EQ ISZERO DUP1 ISZERO PUSH2 0x208D JUMPI POP PUSH2 0x2077 PUSH2 0x18DD JUMP JUMPDEST PUSH1 0x1 PUSH1 0x1 PUSH1 0xA0 SHL SUB AND DUP3 PUSH1 0x1 PUSH1 0x1 PUSH1 0xA0 SHL SUB AND EQ ISZERO JUMPDEST DUP1 ISZERO PUSH2 0x20A1 JUMPI POP PUSH1 0x1 PUSH1 0x1 PUSH1 0xA0 SHL SUB DUP3 AND ISZERO ISZERO JUMPDEST DUP1 ISZERO PUSH2 0x20B8 JUMPI POP PUSH1 0x1 PUSH1 0x1 PUSH1 0xA0 SHL SUB DUP3 AND PUSH2 0xDEAD EQ ISZERO JUMPDEST DUP1 ISZERO PUSH2 0x20D1 JUMPI POP PUSH1 0x9 SLOAD PUSH1 0x1 PUSH1 0x1 PUSH1 0xA0 SHL SUB DUP5 DUP2 AND SWAP2 AND EQ JUMPDEST ISZERO PUSH2 0x2133 JUMPI PUSH1 0xC SLOAD DUP2 GT ISZERO PUSH2 0x20F8 JUMPI PUSH1 0x40 MLOAD PUSH3 0x461BCD PUSH1 0xE5 SHL DUP2 MSTORE PUSH1 0x4 ADD PUSH2 0x9DF SWAP1 PUSH2 0x3A87 JUMP JUMPDEST PUSH1 0x0 PUSH2 0x2103 DUP4 PUSH2 0x1739 JUMP JUMPDEST PUSH1 0xF SLOAD SWAP1 SWAP2 POP PUSH2 0x2113 DUP4 DUP4 PUSH2 0x3BC1 JUMP JUMPDEST GT ISZERO PUSH2 0x2131 JUMPI PUSH1 0x40 MLOAD PUSH3 0x461BCD PUSH1 0xE5 SHL DUP2 MSTORE PUSH1 0x4 ADD PUSH2 0x9DF SWAP1 PUSH2 0x3845 JUMP JUMPDEST POP JUMPDEST PUSH2 0x213B PUSH2 0x18DD JUMP JUMPDEST PUSH1 0x1 PUSH1 0x1 PUSH1 0xA0 SHL SUB AND DUP4 PUSH1 0x1 PUSH1 0x1 PUSH1 0xA0 SHL SUB AND EQ ISZERO DUP1 ISZERO PUSH2 0x2175 JUMPI POP PUSH2 0x215F PUSH2 0x18DD JUMP JUMPDEST PUSH1 0x1 PUSH1 0x1 PUSH1 0xA0 SHL SUB AND DUP3 PUSH1 0x1 PUSH1 0x1 PUSH1 0xA0 SHL SUB AND EQ ISZERO JUMPDEST DUP1 ISZERO PUSH2 0x2189 JUMPI POP PUSH1 0x1 PUSH1 0x1 PUSH1 0xA0 SHL SUB DUP3 AND ISZERO ISZERO JUMPDEST DUP1 ISZERO PUSH2 0x21A0 JUMPI POP PUSH1 0x1 PUSH1 0x1 PUSH1 0xA0 SHL SUB DUP3 AND PUSH2 0xDEAD EQ ISZERO JUMPDEST DUP1 ISZERO PUSH2 0x21B9 JUMPI POP PUSH1 0x9 SLOAD PUSH1 0x1 PUSH1 0x1 PUSH1 0xA0 SHL SUB DUP5 DUP2 AND SWAP2 AND EQ JUMPDEST ISZERO PUSH2 0x21E0 JUMPI PUSH1 0xD SLOAD DUP2 GT ISZERO PUSH2 0x21E0 JUMPI PUSH1 0x40 MLOAD PUSH3 0x461BCD PUSH1 0xE5 SHL DUP2 MSTORE PUSH1 0x4 ADD PUSH2 0x9DF SWAP1 PUSH2 0x3B0A JUMP JUMPDEST PUSH1 0x0 PUSH2 0x21EB ADDRESS PUSH2 0x1739 JUMP JUMPDEST PUSH1 0xE SLOAD PUSH1 0x8 SLOAD SWAP2 SWAP3 POP DUP3 LT ISZERO SWAP1 PUSH4 0x1000000 SWAP1 DIV PUSH1 0xFF AND ISZERO DUP1 ISZERO PUSH2 0x2216 JUMPI POP PUSH1 0x8 SLOAD PUSH2 0x100 SWAP1 DIV PUSH1 0xFF AND JUMPDEST DUP1 ISZERO PUSH2 0x221F JUMPI POP DUP1 JUMPDEST DUP1 ISZERO PUSH2 0x2239 JUMPI POP PUSH1 0x9 SLOAD PUSH1 0x1 PUSH1 0x1 PUSH1 0xA0 SHL SUB DUP7 DUP2 AND SWAP2 AND EQ ISZERO JUMPDEST ISZERO PUSH2 0x22AC JUMPI PUSH1 0x8 SLOAD SELFBALANCE SWAP1 PUSH3 0x10000 SWAP1 DIV PUSH1 0xFF AND DUP1 ISZERO PUSH2 0x225F JUMPI POP PUSH8 0xDE0B6B3A7640000 DUP2 GT JUMPDEST DUP1 ISZERO PUSH2 0x2278 JUMPI POP PUSH1 0x9 SLOAD PUSH1 0x1 PUSH1 0x1 PUSH1 0xA0 SHL SUB DUP7 DUP2 AND SWAP2 AND EQ JUMPDEST ISZERO PUSH2 0x229F JUMPI PUSH1 0x10 SLOAD DUP2 GT ISZERO PUSH2 0x228C JUMPI POP PUSH1 0x10 SLOAD JUMPDEST PUSH2 0x229F PUSH2 0x229A DUP3 PUSH1 0x64 PUSH2 0x1E2C JUMP JUMPDEST PUSH2 0x241B JUMP JUMPDEST PUSH2 0x22AA PUSH1 0xE SLOAD PUSH2 0x244D JUMP JUMPDEST POP JUMPDEST PUSH1 0x9 SLOAD PUSH1 0x0 SWAP1 PUSH1 0x1 PUSH1 0x1 PUSH1 0xA0 SHL SUB DUP7 DUP2 AND SWAP2 AND EQ ISZERO PUSH2 0x22C9 JUMPI POP PUSH1 0x1 JUMPDEST PUSH1 0x1 PUSH1 0x1 PUSH1 0xA0 SHL SUB DUP7 AND PUSH1 0x0 SWAP1 DUP2 MSTORE PUSH1 0x4 PUSH1 0x20 MSTORE PUSH1 0x40 SWAP1 KECCAK256 SLOAD PUSH2 0x2319 SWAP1 DUP8 SWAP1 DUP8 SWAP1 DUP8 SWAP1 PUSH1 0xFF AND DUP1 PUSH2 0x2312 JUMPI POP PUSH1 0x1 PUSH1 0x1 PUSH1 0xA0 SHL SUB DUP10 AND PUSH1 0x0 SWAP1 DUP2 MSTORE PUSH1 0x4 PUSH1 0x20 MSTORE PUSH1 0x40 SWAP1 KECCAK256 SLOAD PUSH1 0xFF AND JUMPDEST ISZERO DUP6 PUSH2 0x258A JUMP JUMPDEST POP POP POP POP POP POP JUMP JUMPDEST PUSH1 0x0 DUP2 DUP5 DUP5 GT ISZERO PUSH2 0x2345 JUMPI PUSH1 0x40 MLOAD PUSH3 0x461BCD PUSH1 0xE5 SHL DUP2 MSTORE PUSH1 0x4 ADD PUSH2 0x9DF SWAP2 SWAP1 PUSH2 0x35F3 JUMP JUMPDEST POP POP POP SWAP1 SUB SWAP1 JUMP JUMPDEST PUSH1 0x0 DUP1 PUSH1 0x0 PUSH2 0x235A PUSH2 0x284B JUMP JUMPDEST SWAP1 SWAP3 POP SWAP1 POP PUSH2 0x2369 DUP2 DUP4 PUSH2 0x3BD9 JUMP JUMPDEST SWAP3 POP POP POP SWAP1 JUMP JUMPDEST PUSH2 0x2378 PUSH2 0x326A JUMP JUMPDEST PUSH2 0x2383 DUP5 DUP5 DUP5 PUSH2 0x2A09 JUMP JUMPDEST SWAP1 POP PUSH2 0x2398 DUP2 DUP6 DUP6 PUSH2 0x2393 PUSH2 0x234D JUMP JUMPDEST PUSH2 0x2C20 JUMP JUMPDEST PUSH1 0xC0 DUP9 ADD MSTORE PUSH1 0xA0 DUP8 ADD MSTORE PUSH1 0x80 DUP7 ADD MSTORE PUSH1 0x60 DUP6 ADD MSTORE PUSH1 0x40 DUP5 ADD MSTORE PUSH1 0x20 DUP4 ADD MSTORE DUP2 MSTORE SWAP4 SWAP3 POP POP POP JUMP JUMPDEST PUSH1 0x0 PUSH2 0xBBC DUP3 DUP5 PUSH2 0x3D2F JUMP JUMPDEST PUSH1 0x0 DUP1 SLOAD PUSH1 0x1 PUSH1 0x1 PUSH1 0xA0 SHL SUB DUP4 DUP2 AND PUSH1 0x1 PUSH1 0x1 PUSH1 0xA0 SHL SUB NOT DUP4 AND DUP2 OR DUP5 SSTORE PUSH1 0x40 MLOAD SWAP2 SWAP1 SWAP3 AND SWAP3 DUP4 SWAP2 PUSH32 0x8BE0079C531659141344CD1FD0A4F28419497F9722A3DAAFE3B4186F6B6457E0 SWAP2 SWAP1 LOG3 POP POP JUMP JUMPDEST PUSH1 0x8 DUP1 SLOAD PUSH4 0xFF000000 NOT AND PUSH4 0x1000000 OR SWAP1 SSTORE DUP1 ISZERO PUSH2 0x243D JUMPI PUSH2 0x243D DUP2 PUSH2 0x2CF6 JUMP JUMPDEST POP PUSH1 0x8 DUP1 SLOAD PUSH4 0xFF000000 NOT AND SWAP1 SSTORE JUMP JUMPDEST PUSH1 0x8 DUP1 SLOAD PUSH4 0xFF000000 NOT AND PUSH4 0x1000000 OR SWAP1 SSTORE PUSH1 0x14 SLOAD PUSH1 0x17 SLOAD PUSH1 0x16 SLOAD PUSH1 0x0 SWAP3 SWAP2 PUSH2 0x2476 SWAP2 PUSH2 0x3BC1 JUMP JUMPDEST PUSH2 0x2480 SWAP2 SWAP1 PUSH2 0x3BC1 JUMP JUMPDEST PUSH2 0x248B SWAP1 PUSH1 0x2 PUSH2 0x3D10 JUMP JUMPDEST SWAP1 POP PUSH1 0x0 DUP2 PUSH1 0x13 PUSH1 0x3 ADD SLOAD DUP5 PUSH2 0x24A1 SWAP2 SWAP1 PUSH2 0x3D10 JUMP JUMPDEST PUSH2 0x24AB SWAP2 SWAP1 PUSH2 0x3BD9 JUMP JUMPDEST SWAP1 POP PUSH1 0x0 PUSH2 0x24B9 DUP3 DUP6 PUSH2 0x3D2F JUMP JUMPDEST SWAP1 POP SELFBALANCE PUSH2 0x24C5 DUP3 PUSH2 0x2E8E JUMP JUMPDEST PUSH1 0x0 PUSH2 0x24D1 DUP3 SELFBALANCE PUSH2 0x3D2F JUMP JUMPDEST PUSH1 0x16 SLOAD SWAP1 SWAP2 POP PUSH1 0x0 SWAP1 PUSH2 0x24E4 SWAP1 DUP8 PUSH2 0x3D2F JUMP JUMPDEST PUSH2 0x24EE SWAP1 DUP4 PUSH2 0x3BD9 JUMP JUMPDEST PUSH1 0x16 SLOAD SWAP1 SWAP2 POP PUSH1 0x0 SWAP1 PUSH2 0x2501 SWAP1 DUP4 PUSH2 0x3D10 JUMP JUMPDEST SWAP1 POP DUP1 ISZERO PUSH2 0x2513 JUMPI PUSH2 0x2513 DUP7 DUP3 PUSH2 0x3032 JUMP JUMPDEST PUSH1 0x14 SLOAD PUSH1 0x0 SWAP1 PUSH2 0x2524 DUP5 PUSH1 0x2 PUSH2 0x3D10 JUMP JUMPDEST PUSH2 0x252E SWAP2 SWAP1 PUSH2 0x3D10 JUMP JUMPDEST SWAP1 POP DUP1 ISZERO PUSH2 0x2572 JUMPI PUSH1 0x12 SLOAD PUSH1 0x40 MLOAD PUSH1 0x1 PUSH1 0x1 PUSH1 0xA0 SHL SUB SWAP1 SWAP2 AND SWAP1 DUP3 ISZERO PUSH2 0x8FC MUL SWAP1 DUP4 SWAP1 PUSH1 0x0 DUP2 DUP2 DUP2 DUP6 DUP9 DUP9 CALL SWAP4 POP POP POP POP ISZERO DUP1 ISZERO PUSH2 0x2570 JUMPI RETURNDATASIZE PUSH1 0x0 DUP1 RETURNDATACOPY RETURNDATASIZE PUSH1 0x0 REVERT JUMPDEST POP JUMPDEST POP POP PUSH1 0x8 DUP1 SLOAD PUSH4 0xFF000000 NOT AND SWAP1 SSTORE POP POP POP POP POP POP POP JUMP JUMPDEST PUSH1 0x0 PUSH2 0x2597 DUP5 DUP5 DUP5 PUSH2 0x2370 JUMP JUMPDEST PUSH1 0x1 PUSH1 0x1 PUSH1 0xA0 SHL SUB DUP8 AND PUSH1 0x0 SWAP1 DUP2 MSTORE PUSH1 0x5 PUSH1 0x20 MSTORE PUSH1 0x40 SWAP1 KECCAK256 SLOAD SWAP1 SWAP2 POP PUSH1 0xFF AND ISZERO PUSH2 0x25F9 JUMPI PUSH1 0x1 PUSH1 0x1 PUSH1 0xA0 SHL SUB DUP7 AND PUSH1 0x0 SWAP1 DUP2 MSTORE PUSH1 0x2 PUSH1 0x20 MSTORE PUSH1 0x40 SWAP1 KECCAK256 SLOAD PUSH2 0x25DF SWAP1 DUP6 SWAP1 PUSH2 0x3D2F JUMP JUMPDEST PUSH1 0x1 PUSH1 0x1 PUSH1 0xA0 SHL SUB DUP8 AND PUSH1 0x0 SWAP1 DUP2 MSTORE PUSH1 0x2 PUSH1 0x20 MSTORE PUSH1 0x40 SWAP1 KECCAK256 SSTORE JUMPDEST PUSH1 0x1 PUSH1 0x1 PUSH1 0xA0 SHL SUB DUP6 AND PUSH1 0x0 SWAP1 DUP2 MSTORE PUSH1 0x5 PUSH1 0x20 MSTORE PUSH1 0x40 SWAP1 KECCAK256 SLOAD PUSH1 0xFF AND ISZERO PUSH2 0x265C JUMPI PUSH1 0xE0 DUP2 ADD MLOAD PUSH1 0x1 PUSH1 0x1 PUSH1 0xA0 SHL SUB DUP7 AND PUSH1 0x0 SWAP1 DUP2 MSTORE PUSH1 0x2 PUSH1 0x20 MSTORE PUSH1 0x40 SWAP1 KECCAK256 SLOAD PUSH2 0x2642 SWAP2 SWAP1 PUSH2 0x3BC1 JUMP JUMPDEST PUSH1 0x1 PUSH1 0x1 PUSH1 0xA0 SHL SUB DUP7 AND PUSH1 0x0 SWAP1 DUP2 MSTORE PUSH1 0x2 PUSH1 0x20 MSTORE PUSH1 0x40 SWAP1 KECCAK256 SSTORE JUMPDEST DUP1 MLOAD PUSH1 0x1 PUSH1 0x1 PUSH1 0xA0 SHL SUB DUP8 AND PUSH1 0x0 SWAP1 DUP2 MSTORE PUSH1 0x1 PUSH1 0x20 MSTORE PUSH1 0x40 SWAP1 KECCAK256 SLOAD PUSH2 0x2681 SWAP2 SWAP1 PUSH2 0x3D2F JUMP JUMPDEST PUSH1 0x1 PUSH1 0x1 PUSH1 0xA0 SHL SUB DUP1 DUP9 AND PUSH1 0x0 SWAP1 DUP2 MSTORE PUSH1 0x1 PUSH1 0x20 SWAP1 DUP2 MSTORE PUSH1 0x40 DUP1 DUP4 KECCAK256 SWAP5 SWAP1 SWAP5 SSTORE DUP5 ADD MLOAD SWAP2 DUP9 AND DUP2 MSTORE SWAP2 SWAP1 SWAP2 KECCAK256 SLOAD PUSH2 0x26B8 SWAP2 SWAP1 PUSH2 0x3BC1 JUMP JUMPDEST PUSH1 0x1 PUSH1 0x1 PUSH1 0xA0 SHL SUB DUP7 AND PUSH1 0x0 SWAP1 DUP2 MSTORE PUSH1 0x1 PUSH1 0x20 MSTORE PUSH1 0x40 SWAP1 DUP2 SWAP1 KECCAK256 SWAP2 SWAP1 SWAP2 SSTORE DUP2 ADD MLOAD PUSH2 0x100 DUP3 ADD MLOAD PUSH2 0x26E9 SWAP2 SWAP1 PUSH2 0x30F2 JUMP JUMPDEST PUSH2 0x26FC DUP2 PUSH1 0x60 ADD MLOAD DUP3 PUSH2 0x120 ADD MLOAD PUSH2 0x3127 JUMP JUMPDEST PUSH2 0x270F DUP2 PUSH1 0xA0 ADD MLOAD DUP3 PUSH2 0x160 ADD MLOAD PUSH2 0x319D JUMP JUMPDEST PUSH2 0x2722 DUP2 PUSH1 0x80 ADD MLOAD DUP3 PUSH2 0x140 ADD MLOAD PUSH2 0x31B2 JUMP JUMPDEST PUSH2 0x2735 DUP2 PUSH1 0xC0 ADD MLOAD DUP3 PUSH2 0x180 ADD MLOAD PUSH2 0x3249 JUMP JUMPDEST DUP5 PUSH1 0x1 PUSH1 0x1 PUSH1 0xA0 SHL SUB AND DUP7 PUSH1 0x1 PUSH1 0x1 PUSH1 0xA0 SHL SUB AND PUSH32 0xDDF252AD1BE2C89B69C2B068FC378DAA952BA7F163C4A11628F55A4DF523B3EF DUP4 PUSH1 0xE0 ADD MLOAD PUSH1 0x40 MLOAD PUSH2 0x277C SWAP2 SWAP1 PUSH2 0x3B4B JUMP JUMPDEST PUSH1 0x40 MLOAD DUP1 SWAP2 SUB SWAP1 LOG3 ADDRESS PUSH1 0x1 PUSH1 0x1 PUSH1 0xA0 SHL SUB AND DUP7 PUSH1 0x1 PUSH1 0x1 PUSH1 0xA0 SHL SUB AND PUSH32 0xDDF252AD1BE2C89B69C2B068FC378DAA952BA7F163C4A11628F55A4DF523B3EF DUP4 PUSH2 0x180 ADD MLOAD DUP5 PUSH2 0x120 ADD MLOAD DUP6 PUSH2 0x160 ADD MLOAD PUSH2 0x27D5 SWAP2 SWAP1 PUSH2 0x3BC1 JUMP JUMPDEST PUSH2 0x27DF SWAP2 SWAP1 PUSH2 0x3BC1 JUMP JUMPDEST PUSH1 0x40 MLOAD PUSH2 0x27EC SWAP2 SWAP1 PUSH2 0x3B4B JUMP JUMPDEST PUSH1 0x40 MLOAD DUP1 SWAP2 SUB SWAP1 LOG3 PUSH1 0x11 SLOAD PUSH2 0x140 DUP3 ADD MLOAD PUSH1 0x40 MLOAD PUSH1 0x1 PUSH1 0x1 PUSH1 0xA0 SHL SUB SWAP3 DUP4 AND SWAP3 DUP10 AND SWAP2 PUSH32 0xDDF252AD1BE2C89B69C2B068FC378DAA952BA7F163C4A11628F55A4DF523B3EF SWAP2 PUSH2 0x283B SWAP2 SWAP1 PUSH2 0x3B4B JUMP JUMPDEST PUSH1 0x40 MLOAD DUP1 SWAP2 SUB SWAP1 LOG3 POP POP POP POP POP POP JUMP JUMPDEST PUSH1 0xB SLOAD PUSH1 0xA SLOAD PUSH1 0x0 SWAP2 DUP3 SWAP2 DUP3 JUMPDEST PUSH1 0x7 SLOAD DUP2 LT ISZERO PUSH2 0x29D6 JUMPI DUP3 PUSH1 0x1 PUSH1 0x0 PUSH1 0x7 DUP5 DUP2 SLOAD DUP2 LT PUSH2 0x2888 JUMPI PUSH4 0x4E487B71 PUSH1 0xE0 SHL PUSH1 0x0 MSTORE PUSH1 0x32 PUSH1 0x4 MSTORE PUSH1 0x24 PUSH1 0x0 REVERT JUMPDEST PUSH1 0x0 SWAP2 DUP3 MSTORE PUSH1 0x20 DUP1 DUP4 KECCAK256 SWAP1 SWAP2 ADD SLOAD PUSH1 0x1 PUSH1 0x1 PUSH1 0xA0 SHL SUB AND DUP4 MSTORE DUP3 ADD SWAP3 SWAP1 SWAP3 MSTORE PUSH1 0x40 ADD SWAP1 KECCAK256 SLOAD GT DUP1 PUSH2 0x2901 JUMPI POP DUP2 PUSH1 0x2 PUSH1 0x0 PUSH1 0x7 DUP5 DUP2 SLOAD DUP2 LT PUSH2 0x28DA JUMPI PUSH4 0x4E487B71 PUSH1 0xE0 SHL PUSH1 0x0 MSTORE PUSH1 0x32 PUSH1 0x4 MSTORE PUSH1 0x24 PUSH1 0x0 REVERT JUMPDEST PUSH1 0x0 SWAP2 DUP3 MSTORE PUSH1 0x20 DUP1 DUP4 KECCAK256 SWAP1 SWAP2 ADD SLOAD PUSH1 0x1 PUSH1 0x1 PUSH1 0xA0 SHL SUB AND DUP4 MSTORE DUP3 ADD SWAP3 SWAP1 SWAP3 MSTORE PUSH1 0x40 ADD SWAP1 KECCAK256 SLOAD GT JUMPDEST ISZERO PUSH2 0x2918 JUMPI PUSH1 0xB SLOAD PUSH1 0xA SLOAD SWAP5 POP SWAP5 POP POP POP POP PUSH2 0x2A05 JUMP JUMPDEST PUSH1 0x1 PUSH1 0x0 PUSH1 0x7 DUP4 DUP2 SLOAD DUP2 LT PUSH2 0x293D JUMPI PUSH4 0x4E487B71 PUSH1 0xE0 SHL PUSH1 0x0 MSTORE PUSH1 0x32 PUSH1 0x4 MSTORE PUSH1 0x24 PUSH1 0x0 REVERT JUMPDEST PUSH1 0x0 SWAP2 DUP3 MSTORE PUSH1 0x20 DUP1 DUP4 KECCAK256 SWAP1 SWAP2 ADD SLOAD PUSH1 0x1 PUSH1 0x1 PUSH1 0xA0 SHL SUB AND DUP4 MSTORE DUP3 ADD SWAP3 SWAP1 SWAP3 MSTORE PUSH1 0x40 ADD SWAP1 KECCAK256 SLOAD PUSH2 0x296C SWAP1 DUP5 PUSH2 0x3D2F JUMP JUMPDEST SWAP3 POP PUSH1 0x2 PUSH1 0x0 PUSH1 0x7 DUP4 DUP2 SLOAD DUP2 LT PUSH2 0x2993 JUMPI PUSH4 0x4E487B71 PUSH1 0xE0 SHL PUSH1 0x0 MSTORE PUSH1 0x32 PUSH1 0x4 MSTORE PUSH1 0x24 PUSH1 0x0 REVERT JUMPDEST PUSH1 0x0 SWAP2 DUP3 MSTORE PUSH1 0x20 DUP1 DUP4 KECCAK256 SWAP1 SWAP2 ADD SLOAD PUSH1 0x1 PUSH1 0x1 PUSH1 0xA0 SHL SUB AND DUP4 MSTORE DUP3 ADD SWAP3 SWAP1 SWAP3 MSTORE PUSH1 0x40 ADD SWAP1 KECCAK256 SLOAD PUSH2 0x29C2 SWAP1 DUP4 PUSH2 0x3D2F JUMP JUMPDEST SWAP2 POP DUP1 PUSH2 0x29CE DUP2 PUSH2 0x3D46 JUMP JUMPDEST SWAP2 POP POP PUSH2 0x2858 JUMP JUMPDEST POP PUSH1 0xA SLOAD PUSH1 0xB SLOAD PUSH2 0x29E7 SWAP2 SWAP1 PUSH2 0x3BD9 JUMP JUMPDEST DUP3 LT ISZERO PUSH2 0x29FF JUMPI PUSH1 0xB SLOAD PUSH1 0xA SLOAD SWAP4 POP SWAP4 POP POP POP PUSH2 0x2A05 JUMP JUMPDEST SWAP1 SWAP3 POP SWAP1 POP JUMPDEST SWAP1 SWAP2 JUMP JUMPDEST PUSH2 0x2A11 PUSH2 0x326A JUMP JUMPDEST DUP3 PUSH2 0x2A22 JUMPI PUSH1 0xE0 DUP2 ADD DUP5 SWAP1 MSTORE PUSH2 0xBBC JUMP JUMPDEST DUP2 ISZERO PUSH2 0x2B23 JUMPI PUSH1 0x18 SLOAD PUSH2 0x3E8 SWAP1 PUSH2 0x2A39 SWAP1 DUP7 PUSH2 0x3D10 JUMP JUMPDEST PUSH2 0x2A43 SWAP2 SWAP1 PUSH2 0x3BD9 JUMP JUMPDEST PUSH2 0x100 DUP3 ADD MSTORE PUSH1 0x19 SLOAD PUSH2 0x3E8 SWAP1 PUSH2 0x2A5A SWAP1 DUP7 PUSH2 0x3D10 JUMP JUMPDEST PUSH2 0x2A64 SWAP2 SWAP1 PUSH2 0x3BD9 JUMP JUMPDEST PUSH2 0x120 DUP3 ADD MSTORE PUSH1 0x1A SLOAD PUSH2 0x3E8 SWAP1 PUSH2 0x2A7B SWAP1 DUP7 PUSH2 0x3D10 JUMP JUMPDEST PUSH2 0x2A85 SWAP2 SWAP1 PUSH2 0x3BD9 JUMP JUMPDEST PUSH2 0x140 DUP3 ADD MSTORE PUSH1 0x1B SLOAD PUSH2 0x3E8 SWAP1 PUSH2 0x2A9C SWAP1 DUP7 PUSH2 0x3D10 JUMP JUMPDEST PUSH2 0x2AA6 SWAP2 SWAP1 PUSH2 0x3BD9 JUMP JUMPDEST PUSH2 0x160 DUP3 ADD MSTORE PUSH1 0x1C SLOAD PUSH2 0x3E8 SWAP1 PUSH2 0x2ABD SWAP1 DUP7 PUSH2 0x3D10 JUMP JUMPDEST PUSH2 0x2AC7 SWAP2 SWAP1 PUSH2 0x3BD9 JUMP JUMPDEST PUSH2 0x180 DUP3 ADD DUP2 SWAP1 MSTORE PUSH2 0x160 DUP3 ADD MLOAD PUSH2 0x140 DUP4 ADD MLOAD PUSH2 0x120 DUP5 ADD MLOAD PUSH2 0x100 DUP6 ADD MLOAD PUSH2 0x2AF1 SWAP1 DUP10 PUSH2 0x3D2F JUMP JUMPDEST PUSH2 0x2AFB SWAP2 SWAP1 PUSH2 0x3D2F JUMP JUMPDEST PUSH2 0x2B05 SWAP2 SWAP1 PUSH2 0x3D2F JUMP JUMPDEST PUSH2 0x2B0F SWAP2 SWAP1 PUSH2 0x3D2F JUMP JUMPDEST PUSH2 0x2B19 SWAP2 SWAP1 PUSH2 0x3D2F JUMP JUMPDEST PUSH1 0xE0 DUP3 ADD MSTORE PUSH2 0xBBC JUMP JUMPDEST PUSH1 0x13 SLOAD PUSH2 0x3E8 SWAP1 PUSH2 0x2B34 SWAP1 DUP7 PUSH2 0x3D10 JUMP JUMPDEST PUSH2 0x2B3E SWAP2 SWAP1 PUSH2 0x3BD9 JUMP JUMPDEST PUSH2 0x100 DUP3 ADD MSTORE PUSH1 0x14 SLOAD PUSH2 0x3E8 SWAP1 PUSH2 0x2B55 SWAP1 DUP7 PUSH2 0x3D10 JUMP JUMPDEST PUSH2 0x2B5F SWAP2 SWAP1 PUSH2 0x3BD9 JUMP JUMPDEST PUSH2 0x120 DUP3 ADD MSTORE PUSH1 0x15 SLOAD PUSH2 0x3E8 SWAP1 PUSH2 0x2B76 SWAP1 DUP7 PUSH2 0x3D10 JUMP JUMPDEST PUSH2 0x2B80 SWAP2 SWAP1 PUSH2 0x3BD9 JUMP JUMPDEST PUSH2 0x140 DUP3 ADD MSTORE PUSH1 0x16 SLOAD PUSH2 0x3E8 SWAP1 PUSH2 0x2B97 SWAP1 DUP7 PUSH2 0x3D10 JUMP JUMPDEST PUSH2 0x2BA1 SWAP2 SWAP1 PUSH2 0x3BD9 JUMP JUMPDEST PUSH2 0x160 DUP3 ADD MSTORE PUSH1 0x17 SLOAD PUSH2 0x3E8 SWAP1 PUSH2 0x2BB8 SWAP1 DUP7 PUSH2 0x3D10 JUMP JUMPDEST PUSH2 0x2BC2 SWAP2 SWAP1 PUSH2 0x3BD9 JUMP JUMPDEST PUSH2 0x180 DUP3 ADD DUP2 SWAP1 MSTORE PUSH2 0x160 DUP3 ADD MLOAD PUSH2 0x140 DUP4 ADD MLOAD PUSH2 0x120 DUP5 ADD MLOAD PUSH2 0x100 DUP6 ADD MLOAD PUSH2 0x2BEC SWAP1 DUP10 PUSH2 0x3D2F JUMP JUMPDEST PUSH2 0x2BF6 SWAP2 SWAP1 PUSH2 0x3D2F JUMP JUMPDEST PUSH2 0x2C00 SWAP2 SWAP1 PUSH2 0x3D2F JUMP JUMPDEST PUSH2 0x2C0A SWAP2 SWAP1 PUSH2 0x3D2F JUMP JUMPDEST PUSH2 0x2C14 SWAP2 SWAP1 PUSH2 0x3D2F JUMP JUMPDEST PUSH1 0xE0 DUP3 ADD MSTORE SWAP4 SWAP3 POP POP POP JUMP JUMPDEST PUSH1 0x0 DUP1 DUP1 DUP1 DUP1 DUP1 DUP1 PUSH2 0x2C32 DUP9 DUP12 PUSH2 0x3D10 JUMP JUMPDEST SWAP7 POP DUP9 PUSH2 0x2C50 JUMPI POP DUP6 SWAP5 POP PUSH1 0x0 SWAP4 POP DUP4 SWAP3 POP DUP3 SWAP2 POP DUP2 SWAP1 POP DUP1 PUSH2 0x2CE8 JUMP JUMPDEST DUP8 DUP12 PUSH2 0x100 ADD MLOAD PUSH2 0x2C61 SWAP2 SWAP1 PUSH2 0x3D10 JUMP JUMPDEST SWAP5 POP DUP8 DUP12 PUSH2 0x120 ADD MLOAD PUSH2 0x2C74 SWAP2 SWAP1 PUSH2 0x3D10 JUMP JUMPDEST SWAP4 POP DUP8 DUP12 PUSH2 0x140 ADD MLOAD PUSH2 0x2C87 SWAP2 SWAP1 PUSH2 0x3D10 JUMP JUMPDEST SWAP3 POP DUP8 DUP12 PUSH2 0x160 ADD MLOAD PUSH2 0x2C9A SWAP2 SWAP1 PUSH2 0x3D10 JUMP JUMPDEST SWAP2 POP DUP8 DUP12 PUSH2 0x180 ADD MLOAD PUSH2 0x2CAD SWAP2 SWAP1 PUSH2 0x3D10 JUMP JUMPDEST SWAP1 POP DUP1 DUP3 DUP5 DUP7 PUSH2 0x2CBD DUP10 DUP13 PUSH2 0x3D2F JUMP JUMPDEST PUSH2 0x2CC7 SWAP2 SWAP1 PUSH2 0x3D2F JUMP JUMPDEST PUSH2 0x2CD1 SWAP2 SWAP1 PUSH2 0x3D2F JUMP JUMPDEST PUSH2 0x2CDB SWAP2 SWAP1 PUSH2 0x3D2F JUMP JUMPDEST PUSH2 0x2CE5 SWAP2 SWAP1 PUSH2 0x3D2F JUMP JUMPDEST SWAP6 POP JUMPDEST SWAP5 SWAP10 POP SWAP5 SWAP10 SWAP3 SWAP8 POP SWAP5 POP SWAP5 POP JUMP JUMPDEST PUSH1 0x40 DUP1 MLOAD PUSH1 0x2 DUP1 DUP3 MSTORE PUSH1 0x60 DUP3 ADD DUP4 MSTORE PUSH1 0x0 SWAP3 PUSH1 0x20 DUP4 ADD SWAP1 DUP1 CALLDATASIZE DUP4 CALLDATACOPY ADD SWAP1 POP POP SWAP1 POP PUSH1 0x8 PUSH1 0x4 SWAP1 SLOAD SWAP1 PUSH2 0x100 EXP SWAP1 DIV PUSH1 0x1 PUSH1 0x1 PUSH1 0xA0 SHL SUB AND PUSH1 0x1 PUSH1 0x1 PUSH1 0xA0 SHL SUB AND PUSH4 0xAD5C4648 PUSH1 0x40 MLOAD DUP2 PUSH4 0xFFFFFFFF AND PUSH1 0xE0 SHL DUP2 MSTORE PUSH1 0x4 ADD PUSH1 0x20 PUSH1 0x40 MLOAD DUP1 DUP4 SUB DUP2 DUP7 DUP1 EXTCODESIZE ISZERO DUP1 ISZERO PUSH2 0x2D65 JUMPI PUSH1 0x0 DUP1 REVERT JUMPDEST POP GAS STATICCALL ISZERO DUP1 ISZERO PUSH2 0x2D79 JUMPI RETURNDATASIZE PUSH1 0x0 DUP1 RETURNDATACOPY RETURNDATASIZE PUSH1 0x0 REVERT JUMPDEST POP POP POP POP PUSH1 0x40 MLOAD RETURNDATASIZE PUSH1 0x1F NOT PUSH1 0x1F DUP3 ADD AND DUP3 ADD DUP1 PUSH1 0x40 MSTORE POP DUP2 ADD SWAP1 PUSH2 0x2D9D SWAP2 SWAP1 PUSH2 0x32EE JUMP JUMPDEST DUP2 PUSH1 0x0 DUP2 MLOAD DUP2 LT PUSH2 0x2DBE JUMPI PUSH4 0x4E487B71 PUSH1 0xE0 SHL PUSH1 0x0 MSTORE PUSH1 0x32 PUSH1 0x4 MSTORE PUSH1 0x24 PUSH1 0x0 REVERT JUMPDEST PUSH1 0x20 MUL PUSH1 0x20 ADD ADD SWAP1 PUSH1 0x1 PUSH1 0x1 PUSH1 0xA0 SHL SUB AND SWAP1 DUP2 PUSH1 0x1 PUSH1 0x1 PUSH1 0xA0 SHL SUB AND DUP2 MSTORE POP POP ADDRESS DUP2 PUSH1 0x1 DUP2 MLOAD DUP2 LT PUSH2 0x2E00 JUMPI PUSH4 0x4E487B71 PUSH1 0xE0 SHL PUSH1 0x0 MSTORE PUSH1 0x32 PUSH1 0x4 MSTORE PUSH1 0x24 PUSH1 0x0 REVERT JUMPDEST PUSH1 0x1 PUSH1 0x1 PUSH1 0xA0 SHL SUB SWAP3 DUP4 AND PUSH1 0x20 SWAP2 DUP3 MUL SWAP3 SWAP1 SWAP3 ADD ADD MSTORE PUSH1 0x8 SLOAD PUSH1 0x1 PUSH1 0x20 SHL SWAP1 DIV AND PUSH4 0xB6F9DE95 DUP4 PUSH1 0x0 DUP5 PUSH2 0xDEAD PUSH2 0x2E39 TIMESTAMP PUSH2 0x12C PUSH2 0x325E JUMP JUMPDEST PUSH1 0x40 MLOAD DUP7 PUSH4 0xFFFFFFFF AND PUSH1 0xE0 SHL DUP2 MSTORE PUSH1 0x4 ADD PUSH2 0x2E58 SWAP5 SWAP4 SWAP3 SWAP2 SWAP1 PUSH2 0x35BE JUMP JUMPDEST PUSH1 0x0 PUSH1 0x40 MLOAD DUP1 DUP4 SUB DUP2 DUP6 DUP9 DUP1 EXTCODESIZE ISZERO DUP1 ISZERO PUSH2 0x2E71 JUMPI PUSH1 0x0 DUP1 REVERT JUMPDEST POP GAS CALL ISZERO DUP1 ISZERO PUSH2 0x2E85 JUMPI RETURNDATASIZE PUSH1 0x0 DUP1 RETURNDATACOPY RETURNDATASIZE PUSH1 0x0 REVERT JUMPDEST POP POP POP POP POP POP POP JUMP JUMPDEST PUSH1 0x40 DUP1 MLOAD PUSH1 0x2 DUP1 DUP3 MSTORE PUSH1 0x60 DUP3 ADD DUP4 MSTORE PUSH1 0x0 SWAP3 PUSH1 0x20 DUP4 ADD SWAP1 DUP1 CALLDATASIZE DUP4 CALLDATACOPY ADD SWAP1 POP POP SWAP1 POP ADDRESS DUP2 PUSH1 0x0 DUP2 MLOAD DUP2 LT PUSH2 0x2ED1 JUMPI PUSH4 0x4E487B71 PUSH1 0xE0 SHL PUSH1 0x0 MSTORE PUSH1 0x32 PUSH1 0x4 MSTORE PUSH1 0x24 PUSH1 0x0 REVERT JUMPDEST PUSH1 0x20 MUL PUSH1 0x20 ADD ADD SWAP1 PUSH1 0x1 PUSH1 0x1 PUSH1 0xA0 SHL SUB AND SWAP1 DUP2 PUSH1 0x1 PUSH1 0x1 PUSH1 0xA0 SHL SUB AND DUP2 MSTORE POP POP PUSH1 0x8 PUSH1 0x4 SWAP1 SLOAD SWAP1 PUSH2 0x100 EXP SWAP1 DIV PUSH1 0x1 PUSH1 0x1 PUSH1 0xA0 SHL SUB AND PUSH1 0x1 PUSH1 0x1 PUSH1 0xA0 SHL SUB AND PUSH4 0xAD5C4648 PUSH1 0x40 MLOAD DUP2 PUSH4 0xFFFFFFFF AND PUSH1 0xE0 SHL DUP2 MSTORE PUSH1 0x4 ADD PUSH1 0x20 PUSH1 0x40 MLOAD DUP1 DUP4 SUB DUP2 DUP7 DUP1 EXTCODESIZE ISZERO DUP1 ISZERO PUSH2 0x2F3F JUMPI PUSH1 0x0 DUP1 REVERT JUMPDEST POP GAS STATICCALL ISZERO DUP1 ISZERO PUSH2 0x2F53 JUMPI RETURNDATASIZE PUSH1 0x0 DUP1 RETURNDATACOPY RETURNDATASIZE PUSH1 0x0 REVERT JUMPDEST POP POP POP POP PUSH1 0x40 MLOAD RETURNDATASIZE PUSH1 0x1F NOT PUSH1 0x1F DUP3 ADD AND DUP3 ADD DUP1 PUSH1 0x40 MSTORE POP DUP2 ADD SWAP1 PUSH2 0x2F77 SWAP2 SWAP1 PUSH2 0x32EE JUMP JUMPDEST DUP2 PUSH1 0x1 DUP2 MLOAD DUP2 LT PUSH2 0x2F98 JUMPI PUSH4 0x4E487B71 PUSH1 0xE0 SHL PUSH1 0x0 MSTORE PUSH1 0x32 PUSH1 0x4 MSTORE PUSH1 0x24 PUSH1 0x0 REVERT JUMPDEST PUSH1 0x1 PUSH1 0x1 PUSH1 0xA0 SHL SUB SWAP3 DUP4 AND PUSH1 0x20 SWAP2 DUP3 MUL SWAP3 SWAP1 SWAP3 ADD ADD MSTORE PUSH1 0x8 SLOAD PUSH2 0x2FC5 SWAP2 ADDRESS SWAP2 PUSH1 0x1 PUSH1 0x20 SHL SWAP1 DIV AND DUP5 PUSH2 0x1E3C JUMP JUMPDEST PUSH1 0x8 SLOAD PUSH1 0x40 MLOAD PUSH4 0x791AC947 PUSH1 0xE0 SHL DUP2 MSTORE PUSH1 0x1 PUSH1 0x20 SHL SWAP1 SWAP2 DIV PUSH1 0x1 PUSH1 0x1 PUSH1 0xA0 SHL SUB AND SWAP1 PUSH4 0x791AC947 SWAP1 PUSH2 0x3004 SWAP1 DUP6 SWAP1 PUSH1 0x0 SWAP1 DUP7 SWAP1 ADDRESS SWAP1 TIMESTAMP SWAP1 PUSH1 0x4 ADD PUSH2 0x3B54 JUMP JUMPDEST PUSH1 0x0 PUSH1 0x40 MLOAD DUP1 DUP4 SUB DUP2 PUSH1 0x0 DUP8 DUP1 EXTCODESIZE ISZERO DUP1 ISZERO PUSH2 0x301E JUMPI PUSH1 0x0 DUP1 REVERT JUMPDEST POP GAS CALL ISZERO DUP1 ISZERO PUSH2 0x2319 JUMPI RETURNDATASIZE PUSH1 0x0 DUP1 RETURNDATACOPY RETURNDATASIZE PUSH1 0x0 REVERT JUMPDEST PUSH1 0x8 SLOAD PUSH2 0x3051 SWAP1 ADDRESS SWAP1 PUSH1 0x1 PUSH1 0x20 SHL SWAP1 DIV PUSH1 0x1 PUSH1 0x1 PUSH1 0xA0 SHL SUB AND DUP5 PUSH2 0x1E3C JUMP JUMPDEST PUSH1 0x8 SLOAD PUSH1 0x1 PUSH1 0x20 SHL SWAP1 DIV PUSH1 0x1 PUSH1 0x1 PUSH1 0xA0 SHL SUB AND PUSH4 0xF305D719 DUP3 ADDRESS DUP6 PUSH1 0x0 DUP1 PUSH2 0x3077 PUSH2 0x18DD JUMP JUMPDEST TIMESTAMP PUSH1 0x40 MLOAD DUP9 PUSH4 0xFFFFFFFF AND PUSH1 0xE0 SHL DUP2 MSTORE PUSH1 0x4 ADD PUSH2 0x3099 SWAP7 SWAP6 SWAP5 SWAP4 SWAP3 SWAP2 SWAP1 PUSH2 0x3578 JUMP JUMPDEST PUSH1 0x60 PUSH1 0x40 MLOAD DUP1 DUP4 SUB DUP2 DUP6 DUP9 DUP1 EXTCODESIZE ISZERO DUP1 ISZERO PUSH2 0x30B2 JUMPI PUSH1 0x0 DUP1 REVERT JUMPDEST POP GAS CALL ISZERO DUP1 ISZERO PUSH2 0x30C6 JUMPI RETURNDATASIZE PUSH1 0x0 DUP1 RETURNDATACOPY RETURNDATASIZE PUSH1 0x0 REVERT JUMPDEST POP POP POP POP POP PUSH1 0x40 MLOAD RETURNDATASIZE PUSH1 0x1F NOT PUSH1 0x1F DUP3 ADD AND DUP3 ADD DUP1 PUSH1 0x40 MSTORE POP DUP2 ADD SWAP1 PUSH2 0x30EB SWAP2 SWAP1 PUSH2 0x3487 JUMP JUMPDEST POP POP POP POP POP JUMP JUMPDEST DUP2 PUSH1 0xB PUSH1 0x0 DUP3 DUP3 SLOAD PUSH2 0x3104 SWAP2 SWAP1 PUSH2 0x3D2F JUMP JUMPDEST SWAP1 SWAP2 SSTORE POP POP PUSH1 0x1D DUP1 SLOAD DUP3 SWAP2 SWAP1 PUSH1 0x0 SWAP1 PUSH2 0x311E SWAP1 DUP5 SWAP1 PUSH2 0x3BC1 JUMP JUMPDEST SWAP1 SWAP2 SSTORE POP POP POP POP JUMP JUMPDEST DUP1 PUSH1 0x1D PUSH1 0x1 ADD PUSH1 0x0 DUP3 DUP3 SLOAD PUSH2 0x313C SWAP2 SWAP1 PUSH2 0x3BC1 JUMP JUMPDEST SWAP1 SWAP2 SSTORE POP POP ADDRESS PUSH1 0x0 SWAP1 DUP2 MSTORE PUSH1 0x5 PUSH1 0x20 MSTORE PUSH1 0x40 SWAP1 KECCAK256 SLOAD PUSH1 0xFF AND ISZERO PUSH2 0x317E JUMPI ADDRESS PUSH1 0x0 SWAP1 DUP2 MSTORE PUSH1 0x2 PUSH1 0x20 MSTORE PUSH1 0x40 DUP2 KECCAK256 DUP1 SLOAD DUP4 SWAP3 SWAP1 PUSH2 0x3178 SWAP1 DUP5 SWAP1 PUSH2 0x3BC1 JUMP JUMPDEST SWAP1 SWAP2 SSTORE POP POP JUMPDEST ADDRESS PUSH1 0x0 SWAP1 DUP2 MSTORE PUSH1 0x1 PUSH1 0x20 MSTORE PUSH1 0x40 DUP2 KECCAK256 DUP1 SLOAD DUP5 SWAP3 SWAP1 PUSH2 0x311E SWAP1 DUP5 SWAP1 PUSH2 0x3BC1 JUMP JUMPDEST DUP1 PUSH1 0x1D PUSH1 0x3 ADD PUSH1 0x0 DUP3 DUP3 SLOAD PUSH2 0x313C SWAP2 SWAP1 PUSH2 0x3BC1 JUMP JUMPDEST DUP1 PUSH1 0x1D PUSH1 0x2 ADD PUSH1 0x0 DUP3 DUP3 SLOAD PUSH2 0x31C7 SWAP2 SWAP1 PUSH2 0x3BC1 JUMP JUMPDEST SWAP1 SWAP2 SSTORE POP POP PUSH1 0x11 SLOAD PUSH1 0x1 PUSH1 0x1 PUSH1 0xA0 SHL SUB AND PUSH1 0x0 SWAP1 DUP2 MSTORE PUSH1 0x5 PUSH1 0x20 MSTORE PUSH1 0x40 SWAP1 KECCAK256 SLOAD PUSH1 0xFF AND ISZERO PUSH2 0x321F JUMPI PUSH1 0x11 SLOAD PUSH1 0x1 PUSH1 0x1 PUSH1 0xA0 SHL SUB AND PUSH1 0x0 SWAP1 DUP2 MSTORE PUSH1 0x2 PUSH1 0x20 MSTORE PUSH1 0x40 DUP2 KECCAK256 DUP1 SLOAD DUP4 SWAP3 SWAP1 PUSH2 0x3219 SWAP1 DUP5 SWAP1 PUSH2 0x3BC1 JUMP JUMPDEST SWAP1 SWAP2 SSTORE POP POP JUMPDEST PUSH1 0x11 SLOAD PUSH1 0x1 PUSH1 0x1 PUSH1 0xA0 SHL SUB AND PUSH1 0x0 SWAP1 DUP2 MSTORE PUSH1 0x1 PUSH1 0x20 MSTORE PUSH1 0x40 DUP2 KECCAK256 DUP1 SLOAD DUP5 SWAP3 SWAP1 PUSH2 0x311E SWAP1 DUP5 SWAP1 PUSH2 0x3BC1 JUMP JUMPDEST DUP1 PUSH1 0x1D PUSH1 0x4 ADD PUSH1 0x0 DUP3 DUP3 SLOAD PUSH2 0x313C SWAP2 SWAP1 PUSH2 0x3BC1 JUMP JUMPDEST PUSH1 0x0 PUSH2 0xBBC DUP3 DUP5 PUSH2 0x3BC1 JUMP JUMPDEST PUSH1 0x40 MLOAD DUP1 PUSH2 0x1A0 ADD PUSH1 0x40 MSTORE DUP1 PUSH1 0x0 DUP2 MSTORE PUSH1 0x20 ADD PUSH1 0x0 DUP2 MSTORE PUSH1 0x20 ADD PUSH1 0x0 DUP2 MSTORE PUSH1 0x20 ADD PUSH1 0x0 DUP2 MSTORE PUSH1 0x20 ADD PUSH1 0x0 DUP2 MSTORE PUSH1 0x20 ADD PUSH1 0x0 DUP2 MSTORE PUSH1 0x20 ADD PUSH1 0x0 DUP2 MSTORE PUSH1 0x20 ADD PUSH1 0x0 DUP2 MSTORE PUSH1 0x20 ADD PUSH1 0x0 DUP2 MSTORE PUSH1 0x20 ADD PUSH1 0x0 DUP2 MSTORE PUSH1 0x20 ADD PUSH1 0x0 DUP2 MSTORE PUSH1 0x20 ADD PUSH1 0x0 DUP2 MSTORE PUSH1 0x20 ADD PUSH1 0x0 DUP2 MSTORE POP SWAP1 JUMP JUMPDEST PUSH1 0x0 PUSH1 0x20 DUP3 DUP5 SUB SLT ISZERO PUSH2 0x32E3 JUMPI DUP1 DUP2 REVERT JUMPDEST DUP2 CALLDATALOAD PUSH2 0xBBC DUP2 PUSH2 0x3D77 JUMP JUMPDEST PUSH1 0x0 PUSH1 0x20 DUP3 DUP5 SUB SLT ISZERO PUSH2 0x32FF JUMPI DUP1 DUP2 REVERT JUMPDEST DUP2 MLOAD PUSH2 0xBBC DUP2 PUSH2 0x3D77 JUMP JUMPDEST PUSH1 0x0 DUP1 PUSH1 0x40 DUP4 DUP6 SUB SLT ISZERO PUSH2 0x331C JUMPI DUP1 DUP2 REVERT JUMPDEST DUP3 CALLDATALOAD PUSH2 0x3327 DUP2 PUSH2 0x3D77 JUMP JUMPDEST SWAP2 POP PUSH1 0x20 DUP4 ADD CALLDATALOAD PUSH2 0x3337 DUP2 PUSH2 0x3D77 JUMP JUMPDEST DUP1 SWAP2 POP POP SWAP3 POP SWAP3 SWAP1 POP JUMP JUMPDEST PUSH1 0x0 DUP1 PUSH1 0x0 PUSH1 0x60 DUP5 DUP7 SUB SLT ISZERO PUSH2 0x3356 JUMPI DUP1 DUP2 REVERT JUMPDEST DUP4 CALLDATALOAD PUSH2 0x3361 DUP2 PUSH2 0x3D77 JUMP JUMPDEST SWAP3 POP PUSH1 0x20 DUP5 ADD CALLDATALOAD PUSH2 0x3371 DUP2 PUSH2 0x3D77 JUMP JUMPDEST SWAP3 SWAP6 SWAP3 SWAP5 POP POP POP PUSH1 0x40 SWAP2 SWAP1 SWAP2 ADD CALLDATALOAD SWAP1 JUMP JUMPDEST PUSH1 0x0 DUP1 PUSH1 0x40 DUP4 DUP6 SUB SLT ISZERO PUSH2 0x3394 JUMPI DUP2 DUP3 REVERT JUMPDEST DUP3 CALLDATALOAD PUSH2 0x339F DUP2 PUSH2 0x3D77 JUMP JUMPDEST SWAP2 POP PUSH1 0x20 DUP4 ADD CALLDATALOAD PUSH2 0x3337 DUP2 PUSH2 0x3D8C JUMP JUMPDEST PUSH1 0x0 DUP1 PUSH1 0x40 DUP4 DUP6 SUB SLT ISZERO PUSH2 0x33C1 JUMPI DUP2 DUP3 REVERT JUMPDEST DUP3 CALLDATALOAD PUSH2 0x33CC DUP2 PUSH2 0x3D77 JUMP JUMPDEST SWAP5 PUSH1 0x20 SWAP4 SWAP1 SWAP4 ADD CALLDATALOAD SWAP4 POP POP POP JUMP JUMPDEST PUSH1 0x0 PUSH1 0x20 DUP3 DUP5 SUB SLT ISZERO PUSH2 0x33EB JUMPI DUP1 DUP2 REVERT JUMPDEST DUP2 CALLDATALOAD PUSH2 0xBBC DUP2 PUSH2 0x3D8C JUMP JUMPDEST PUSH1 0x0 PUSH1 0x20 DUP3 DUP5 SUB SLT ISZERO PUSH2 0x3407 JUMPI DUP1 DUP2 REVERT JUMPDEST DUP2 MLOAD PUSH2 0xBBC DUP2 PUSH2 0x3D8C JUMP JUMPDEST PUSH1 0x0 PUSH1 0x20 DUP3 DUP5 SUB SLT ISZERO PUSH2 0x3423 JUMPI DUP1 DUP2 REVERT JUMPDEST POP CALLDATALOAD SWAP2 SWAP1 POP JUMP JUMPDEST PUSH1 0x0 PUSH1 0x20 DUP3 DUP5 SUB SLT ISZERO PUSH2 0x343B JUMPI DUP1 DUP2 REVERT JUMPDEST POP MLOAD SWAP2 SWAP1 POP JUMP JUMPDEST PUSH1 0x0 DUP1 PUSH1 0x40 DUP4 DUP6 SUB SLT ISZERO PUSH2 0x3454 JUMPI DUP2 DUP3 REVERT JUMPDEST DUP3 CALLDATALOAD SWAP2 POP PUSH1 0x20 DUP4 ADD CALLDATALOAD PUSH2 0x3337 DUP2 PUSH2 0x3D8C JUMP JUMPDEST PUSH1 0x0 DUP1 PUSH1 0x40 DUP4 DUP6 SUB SLT ISZERO PUSH2 0x3478 JUMPI DUP2 DUP3 REVERT JUMPDEST POP POP DUP1 CALLDATALOAD SWAP3 PUSH1 0x20 SWAP1 SWAP2 ADD CALLDATALOAD SWAP2 POP JUMP JUMPDEST PUSH1 0x0 DUP1 PUSH1 0x0 PUSH1 0x60 DUP5 DUP7 SUB SLT ISZERO PUSH2 0x349B JUMPI DUP3 DUP4 REVERT JUMPDEST DUP4 MLOAD SWAP3 POP PUSH1 0x20 DUP5 ADD MLOAD SWAP2 POP PUSH1 0x40 DUP5 ADD MLOAD SWAP1 POP SWAP3 POP SWAP3 POP SWAP3 JUMP JUMPDEST PUSH1 0x0 DUP1 PUSH1 0x0 DUP1 PUSH1 0x0 PUSH1 0xA0 DUP7 DUP9 SUB SLT ISZERO PUSH2 0x34CB JUMPI DUP1 DUP2 REVERT JUMPDEST POP POP DUP4 CALLDATALOAD SWAP6 PUSH1 0x20 DUP6 ADD CALLDATALOAD SWAP6 POP PUSH1 0x40 DUP6 ADD CALLDATALOAD SWAP5 PUSH1 0x60 DUP2 ADD CALLDATALOAD SWAP5 POP PUSH1 0x80 ADD CALLDATALOAD SWAP3 POP SWAP1 POP JUMP JUMPDEST PUSH1 0x0 DUP2 MLOAD DUP1 DUP5 MSTORE PUSH1 0x20 DUP1 DUP6 ADD SWAP5 POP DUP1 DUP5 ADD DUP4 JUMPDEST DUP4 DUP2 LT ISZERO PUSH2 0x3526 JUMPI DUP2 MLOAD PUSH1 0x1 PUSH1 0x1 PUSH1 0xA0 SHL SUB AND DUP8 MSTORE SWAP6 DUP3 ADD SWAP6 SWAP1 DUP3 ADD SWAP1 PUSH1 0x1 ADD PUSH2 0x3501 JUMP JUMPDEST POP SWAP5 SWAP6 SWAP5 POP POP POP POP POP JUMP JUMPDEST PUSH1 0x1 PUSH1 0x1 PUSH1 0xA0 SHL SUB SWAP2 SWAP1 SWAP2 AND DUP2 MSTORE PUSH1 0x20 ADD SWAP1 JUMP JUMPDEST PUSH1 0x1 PUSH1 0x1 PUSH1 0xA0 SHL SUB SWAP3 DUP4 AND DUP2 MSTORE SWAP2 AND PUSH1 0x20 DUP3 ADD MSTORE PUSH1 0x40 ADD SWAP1 JUMP JUMPDEST PUSH1 0x1 PUSH1 0x1 PUSH1 0xA0 SHL SUB SWAP3 SWAP1 SWAP3 AND DUP3 MSTORE PUSH1 0x20 DUP3 ADD MSTORE PUSH1 0x40 ADD SWAP1 JUMP JUMPDEST PUSH1 0x1 PUSH1 0x1 PUSH1 0xA0 SHL SUB SWAP7 DUP8 AND DUP2 MSTORE PUSH1 0x20 DUP2 ADD SWAP6 SWAP1 SWAP6 MSTORE PUSH1 0x40 DUP6 ADD SWAP4 SWAP1 SWAP4 MSTORE PUSH1 0x60 DUP5 ADD SWAP2 SWAP1 SWAP2 MSTORE SWAP1 SWAP3 AND PUSH1 0x80 DUP3 ADD MSTORE PUSH1 0xA0 DUP2 ADD SWAP2 SWAP1 SWAP2 MSTORE PUSH1 0xC0 ADD SWAP1 JUMP JUMPDEST SWAP1 ISZERO ISZERO DUP2 MSTORE PUSH1 0x20 ADD SWAP1 JUMP JUMPDEST PUSH1 0x0 DUP6 DUP3 MSTORE PUSH1 0x80 PUSH1 0x20 DUP4 ADD MSTORE PUSH2 0x35D7 PUSH1 0x80 DUP4 ADD DUP7 PUSH2 0x34EE JUMP JUMPDEST PUSH1 0x1 PUSH1 0x1 PUSH1 0xA0 SHL SUB SWAP5 SWAP1 SWAP5 AND PUSH1 0x40 DUP4 ADD MSTORE POP PUSH1 0x60 ADD MSTORE SWAP3 SWAP2 POP POP JUMP JUMPDEST PUSH1 0x0 PUSH1 0x20 DUP1 DUP4 MSTORE DUP4 MLOAD DUP1 DUP3 DUP6 ADD MSTORE DUP3 JUMPDEST DUP2 DUP2 LT ISZERO PUSH2 0x361F JUMPI DUP6 DUP2 ADD DUP4 ADD MLOAD DUP6 DUP3 ADD PUSH1 0x40 ADD MSTORE DUP3 ADD PUSH2 0x3603 JUMP JUMPDEST DUP2 DUP2 GT ISZERO PUSH2 0x3630 JUMPI DUP4 PUSH1 0x40 DUP4 DUP8 ADD ADD MSTORE JUMPDEST POP PUSH1 0x1F ADD PUSH1 0x1F NOT AND SWAP3 SWAP1 SWAP3 ADD PUSH1 0x40 ADD SWAP4 SWAP3 POP POP POP JUMP JUMPDEST PUSH1 0x20 DUP1 DUP3 MSTORE PUSH1 0x23 SWAP1 DUP3 ADD MSTORE PUSH32 0x45524332303A207472616E7366657220746F20746865207A65726F2061646472 PUSH1 0x40 DUP3 ADD MSTORE PUSH3 0x657373 PUSH1 0xE8 SHL PUSH1 0x60 DUP3 ADD MSTORE PUSH1 0x80 ADD SWAP1 JUMP JUMPDEST PUSH1 0x20 DUP1 DUP3 MSTORE PUSH1 0x1A SWAP1 DUP3 ADD MSTORE PUSH32 0x54726164696E67206973206E6F7420656E61626C656420796574000000000000 PUSH1 0x40 DUP3 ADD MSTORE PUSH1 0x60 ADD SWAP1 JUMP JUMPDEST PUSH1 0x20 DUP1 DUP3 MSTORE PUSH1 0x11 SWAP1 DUP3 ADD MSTORE PUSH17 0x15985B1D5948185B1C9958591E481CD95D PUSH1 0x7A SHL PUSH1 0x40 DUP3 ADD MSTORE PUSH1 0x60 ADD SWAP1 JUMP JUMPDEST PUSH1 0x20 DUP1 DUP3 MSTORE PUSH1 0x31 SWAP1 DUP3 ADD MSTORE PUSH32 0x596F752061726520747279696E6720746F207472616E73666572206D6F726520 PUSH1 0x40 DUP3 ADD MSTORE PUSH17 0x7468616E20796F75722062616C616E6365 PUSH1 0x78 SHL PUSH1 0x60 DUP3 ADD MSTORE PUSH1 0x80 ADD SWAP1 JUMP JUMPDEST PUSH1 0x20 DUP1 DUP3 MSTORE PUSH1 0x2A SWAP1 DUP3 ADD MSTORE PUSH32 0x416D6F756E74206D757374206265206C657373207468616E20746F74616C2072 PUSH1 0x40 DUP3 ADD MSTORE PUSH10 0x65666C656374696F6E73 PUSH1 0xB0 SHL PUSH1 0x60 DUP3 ADD MSTORE PUSH1 0x80 ADD SWAP1 JUMP JUMPDEST PUSH1 0x20 DUP1 DUP3 MSTORE PUSH1 0x26 SWAP1 DUP3 ADD MSTORE PUSH32 0x4F776E61626C653A206E6577206F776E657220697320746865207A65726F2061 PUSH1 0x40 DUP3 ADD MSTORE PUSH6 0x646472657373 PUSH1 0xD0 SHL PUSH1 0x60 DUP3 ADD MSTORE PUSH1 0x80 ADD SWAP1 JUMP JUMPDEST PUSH1 0x20 DUP1 DUP3 MSTORE PUSH1 0x22 SWAP1 DUP3 ADD MSTORE PUSH32 0x45524332303A20617070726F766520746F20746865207A65726F206164647265 PUSH1 0x40 DUP3 ADD MSTORE PUSH2 0x7373 PUSH1 0xF0 SHL PUSH1 0x60 DUP3 ADD MSTORE PUSH1 0x80 ADD SWAP1 JUMP JUMPDEST PUSH1 0x20 DUP1 DUP3 MSTORE PUSH1 0x1B SWAP1 DUP3 ADD MSTORE PUSH32 0x4163636F756E7420697320616C7265616479206578636C756465640000000000 PUSH1 0x40 DUP3 ADD MSTORE PUSH1 0x60 ADD SWAP1 JUMP JUMPDEST PUSH1 0x20 DUP1 DUP3 MSTORE PUSH1 0x23 SWAP1 DUP3 ADD MSTORE PUSH32 0x45786365656473206D6178696D756D2077616C6C657420746F6B656E20616D6F PUSH1 0x40 DUP3 ADD MSTORE PUSH3 0x1D5B9D PUSH1 0xEA SHL PUSH1 0x60 DUP3 ADD MSTORE PUSH1 0x80 ADD SWAP1 JUMP JUMPDEST PUSH1 0x20 DUP1 DUP3 MSTORE PUSH1 0x17 SWAP1 DUP3 ADD MSTORE PUSH32 0x4163636F756E74206973206E6F74206578636C75646564000000000000000000 PUSH1 0x40 DUP3 ADD MSTORE PUSH1 0x60 ADD SWAP1 JUMP JUMPDEST PUSH1 0x20 DUP1 DUP3 MSTORE PUSH1 0x1F SWAP1 DUP3 ADD MSTORE PUSH32 0x416D6F756E74206D757374206265206C657373207468616E20737570706C7900 PUSH1 0x40 DUP3 ADD MSTORE PUSH1 0x60 ADD SWAP1 JUMP JUMPDEST PUSH1 0x20 DUP1 DUP3 MSTORE PUSH1 0x18 SWAP1 DUP3 ADD MSTORE PUSH32 0x696E73756666696369656E7420424E422062616C616E63650000000000000000 PUSH1 0x40 DUP3 ADD MSTORE PUSH1 0x60 ADD SWAP1 JUMP JUMPDEST PUSH1 0x20 DUP1 DUP3 MSTORE DUP2 DUP2 ADD MSTORE PUSH32 0x4F776E61626C653A2063616C6C6572206973206E6F7420746865206F776E6572 PUSH1 0x40 DUP3 ADD MSTORE PUSH1 0x60 ADD SWAP1 JUMP JUMPDEST PUSH1 0x20 DUP1 DUP3 MSTORE PUSH1 0x29 SWAP1 DUP3 ADD MSTORE PUSH32 0x5472616E7366657220616D6F756E74206D757374206265206772656174657220 PUSH1 0x40 DUP3 ADD MSTORE PUSH9 0x7468616E207A65726F PUSH1 0xB8 SHL PUSH1 0x60 DUP3 ADD MSTORE PUSH1 0x80 ADD SWAP1 JUMP JUMPDEST PUSH1 0x20 DUP1 DUP3 MSTORE PUSH1 0x12 SWAP1 DUP3 ADD MSTORE PUSH18 0x15D85B1B195D08185B1C9958591E481CD95D PUSH1 0x72 SHL PUSH1 0x40 DUP3 ADD MSTORE PUSH1 0x60 ADD SWAP1 JUMP JUMPDEST PUSH1 0x20 DUP1 DUP3 MSTORE PUSH1 0xD SWAP1 DUP3 ADD MSTORE PUSH13 0x4675636B20796F7520426F7473 PUSH1 0x98 SHL PUSH1 0x40 DUP3 ADD MSTORE PUSH1 0x60 ADD SWAP1 JUMP JUMPDEST PUSH1 0x20 DUP1 DUP3 MSTORE PUSH1 0x25 SWAP1 DUP3 ADD MSTORE PUSH32 0x45524332303A207472616E736665722066726F6D20746865207A65726F206164 PUSH1 0x40 DUP3 ADD MSTORE PUSH5 0x6472657373 PUSH1 0xD8 SHL PUSH1 0x60 DUP3 ADD MSTORE PUSH1 0x80 ADD SWAP1 JUMP JUMPDEST PUSH1 0x20 DUP1 DUP3 MSTORE PUSH1 0x24 SWAP1 DUP3 ADD MSTORE PUSH32 0x45524332303A20617070726F76652066726F6D20746865207A65726F20616464 PUSH1 0x40 DUP3 ADD MSTORE PUSH4 0x72657373 PUSH1 0xE0 SHL PUSH1 0x60 DUP3 ADD MSTORE PUSH1 0x80 ADD SWAP1 JUMP JUMPDEST PUSH1 0x20 DUP1 DUP3 MSTORE PUSH1 0x1E SWAP1 DUP3 ADD MSTORE PUSH32 0x796F752061726520657863656564696E67206D6178427579416D6F756E740000 PUSH1 0x40 DUP3 ADD MSTORE PUSH1 0x60 ADD SWAP1 JUMP JUMPDEST PUSH1 0x20 DUP1 DUP3 MSTORE PUSH1 0x2C SWAP1 DUP3 ADD MSTORE PUSH32 0x4578636C75646564206164647265737365732063616E6E6F742063616C6C2074 PUSH1 0x40 DUP3 ADD MSTORE PUSH12 0x3434B990333AB731BA34B7B7 PUSH1 0xA1 SHL PUSH1 0x60 DUP3 ADD MSTORE PUSH1 0x80 ADD SWAP1 JUMP JUMPDEST PUSH1 0x20 DUP1 DUP3 MSTORE PUSH1 0x21 SWAP1 DUP3 ADD MSTORE PUSH32 0x416D6F756E7420697320657863656564696E67206D617853656C6C416D6F756E PUSH1 0x40 DUP3 ADD MSTORE PUSH1 0x1D PUSH1 0xFA SHL PUSH1 0x60 DUP3 ADD MSTORE PUSH1 0x80 ADD SWAP1 JUMP JUMPDEST SWAP1 DUP2 MSTORE PUSH1 0x20 ADD SWAP1 JUMP JUMPDEST PUSH1 0x0 DUP7 DUP3 MSTORE DUP6 PUSH1 0x20 DUP4 ADD MSTORE PUSH1 0xA0 PUSH1 0x40 DUP4 ADD MSTORE PUSH2 0x3B73 PUSH1 0xA0 DUP4 ADD DUP7 PUSH2 0x34EE JUMP JUMPDEST PUSH1 0x1 PUSH1 0x1 PUSH1 0xA0 SHL SUB SWAP5 SWAP1 SWAP5 AND PUSH1 0x60 DUP4 ADD MSTORE POP PUSH1 0x80 ADD MSTORE SWAP4 SWAP3 POP POP POP JUMP JUMPDEST SWAP5 DUP6 MSTORE PUSH1 0x20 DUP6 ADD SWAP4 SWAP1 SWAP4 MSTORE PUSH1 0x40 DUP5 ADD SWAP2 SWAP1 SWAP2 MSTORE PUSH1 0x60 DUP4 ADD MSTORE PUSH1 0x80 DUP3 ADD MSTORE PUSH1 0xA0 ADD SWAP1 JUMP JUMPDEST PUSH1 0xFF SWAP2 SWAP1 SWAP2 AND DUP2 MSTORE PUSH1 0x20 ADD SWAP1 JUMP JUMPDEST PUSH1 0x0 DUP3 NOT DUP3 GT ISZERO PUSH2 0x3BD4 JUMPI PUSH2 0x3BD4 PUSH2 0x3D61 JUMP JUMPDEST POP ADD SWAP1 JUMP JUMPDEST PUSH1 0x0 DUP3 PUSH2 0x3BF4 JUMPI PUSH4 0x4E487B71 PUSH1 0xE0 SHL DUP2 MSTORE PUSH1 0x12 PUSH1 0x4 MSTORE PUSH1 0x24 DUP2 REVERT JUMPDEST POP DIV SWAP1 JUMP JUMPDEST DUP1 DUP3 JUMPDEST PUSH1 0x1 DUP1 DUP7 GT PUSH2 0x3C0B JUMPI POP PUSH2 0x3C36 JUMP JUMPDEST DUP2 DUP8 DIV DUP3 GT ISZERO PUSH2 0x3C1D JUMPI PUSH2 0x3C1D PUSH2 0x3D61 JUMP JUMPDEST DUP1 DUP7 AND ISZERO PUSH2 0x3C2A JUMPI SWAP2 DUP2 MUL SWAP2 JUMPDEST SWAP5 SWAP1 SWAP5 SHR SWAP4 DUP1 MUL PUSH2 0x3BFC JUMP JUMPDEST SWAP5 POP SWAP5 SWAP3 POP POP POP JUMP JUMPDEST PUSH1 0x0 PUSH2 0xBBC PUSH1 0x0 NOT PUSH1 0xFF DUP6 AND DUP5 PUSH1 0x0 DUP3 PUSH2 0x3C5B JUMPI POP PUSH1 0x1 PUSH2 0xBBC JUMP JUMPDEST DUP2 PUSH2 0x3C68 JUMPI POP PUSH1 0x0 PUSH2 0xBBC JUMP JUMPDEST DUP2 PUSH1 0x1 DUP2 EQ PUSH2 0x3C7E JUMPI PUSH1 0x2 DUP2 EQ PUSH2 0x3C88 JUMPI PUSH2 0x3CB5 JUMP JUMPDEST PUSH1 0x1 SWAP2 POP POP PUSH2 0xBBC JUMP JUMPDEST PUSH1 0xFF DUP5 GT ISZERO PUSH2 0x3C99 JUMPI PUSH2 0x3C99 PUSH2 0x3D61 JUMP JUMPDEST PUSH1 0x1 DUP5 SHL SWAP2 POP DUP5 DUP3 GT ISZERO PUSH2 0x3CAF JUMPI PUSH2 0x3CAF PUSH2 0x3D61 JUMP JUMPDEST POP PUSH2 0xBBC JUMP JUMPDEST POP PUSH1 0x20 DUP4 LT PUSH2 0x133 DUP4 LT AND PUSH1 0x4E DUP5 LT PUSH1 0xB DUP5 LT AND OR ISZERO PUSH2 0x3CE8 JUMPI POP DUP2 DUP2 EXP DUP4 DUP2 GT ISZERO PUSH2 0x3CE3 JUMPI PUSH2 0x3CE3 PUSH2 0x3D61 JUMP JUMPDEST PUSH2 0xBBC JUMP JUMPDEST PUSH2 0x3CF5 DUP5 DUP5 DUP5 PUSH1 0x1 PUSH2 0x3BF9 JUMP JUMPDEST DUP1 DUP7 DIV DUP3 GT ISZERO PUSH2 0x3D07 JUMPI PUSH2 0x3D07 PUSH2 0x3D61 JUMP JUMPDEST MUL SWAP5 SWAP4 POP POP POP POP JUMP JUMPDEST PUSH1 0x0 DUP2 PUSH1 0x0 NOT DIV DUP4 GT DUP3 ISZERO ISZERO AND ISZERO PUSH2 0x3D2A JUMPI PUSH2 0x3D2A PUSH2 0x3D61 JUMP JUMPDEST POP MUL SWAP1 JUMP JUMPDEST PUSH1 0x0 DUP3 DUP3 LT ISZERO PUSH2 0x3D41 JUMPI PUSH2 0x3D41 PUSH2 0x3D61 JUMP JUMPDEST POP SUB SWAP1 JUMP JUMPDEST PUSH1 0x0 PUSH1 0x0 NOT DUP3 EQ ISZERO PUSH2 0x3D5A JUMPI PUSH2 0x3D5A PUSH2 0x3D61 JUMP JUMPDEST POP PUSH1 0x1 ADD SWAP1 JUMP JUMPDEST PUSH4 0x4E487B71 PUSH1 0xE0 SHL PUSH1 0x0 MSTORE PUSH1 0x11 PUSH1 0x4 MSTORE PUSH1 0x24 PUSH1 0x0 REVERT JUMPDEST PUSH1 0x1 PUSH1 0x1 PUSH1 0xA0 SHL SUB DUP2 AND DUP2 EQ PUSH2 0x1DAC JUMPI PUSH1 0x0 DUP1 REVERT JUMPDEST DUP1 ISZERO ISZERO DUP2 EQ PUSH2 0x1DAC JUMPI PUSH1 0x0 DUP1 REVERT INVALID GASLIMIT MSTORE NUMBER ORIGIN ADDRESS GASPRICE KECCAK256 PUSH21 0x72616E7366657220616D6F756E7420657863656564 PUSH20 0x20616C6C6F77616E636545524332303A20646563 PUSH19 0x656173656420616C6C6F77616E63652062656C PUSH16 0x77207A65726FA2646970667358221220 0xC PUSH9 0xE0B46E3F433A4EAE83 0xDC PUSH28 0x60F0D477871A726D7A5F8BB1B5AECE0936537464736F6C6343000800 STOP CALLER "
		},
		"gasEstimates": {
			"creation": {
				"codeDepositCost": "3180200",
				"executionCost": "infinite",
				"totalCost": "infinite"
			},
			"external": {
				"_maxWalletSize()": "1118",
				"allowance(address,address)": "infinite",
				"approve(address,uint256)": "22669",
				"balanceOf(address)": "infinite",
				"buyBackEnabled()": "1163",
				"buyBackUpperLimit()": "1097",
				"deadAddress()": "321",
				"decimals()": "330",
				"decreaseAllowance(address,uint256)": "infinite",
				"deliver(uint256)": "infinite",
				"excludeFromFee(address)": "22202",
				"excludeFromReward(address)": "infinite",
				"feeRates()": "4443",
				"includeInFee(address)": "22239",
				"includeInReward(address)": "infinite",
				"increaseAllowance(address,uint256)": "infinite",
				"isBot(address)": "1345",
				"isExcludedFromFee(address)": "1366",
				"isExcludedFromReward(address)": "1410",
				"marketingAddress()": "1203",
				"maxBuyAmount()": "1140",
				"maxSellAmount()": "1095",
				"name()": "infinite",
				"operationsAddress()": "1136",
				"owner()": "1138",
				"pair()": "1138",
				"reflectionFromToken(uint256,bool)": "infinite",
				"renounceOwnership()": "23595",
				"rescueBEP20Tokens(address)": "infinite",
				"rescueBNB(uint256)": "infinite",
				"router()": "1197",
				"sellFeeRates()": "4465",
				"setAntibot(address,bool)": "infinite",
				"setBuybackUpperLimit(uint256)": "21338",
				"setFeeRates(uint256,uint256,uint256,uint256,uint256)": "102143",
				"setMaxBuyAndSellAmount(uint256,uint256)": "infinite",
				"setMaxWalletPercent(uint256)": "infinite",
				"setRouterAddress(address)": "infinite",
				"setSellFeeRates(uint256,uint256,uint256,uint256,uint256)": "102121",
				"startTrading()": "23102",
				"swapEnabled()": "1162",
				"swapTokensAtAmount()": "1117",
				"symbol()": "infinite",
				"tokenFromReflection(uint256)": "infinite",
				"totFeesPaid()": "4419",
				"totalSupply()": "1141",
				"tradingEnabled()": "1174",
				"transfer(address,uint256)": "infinite",
				"transferFrom(address,address,uint256)": "infinite",
				"transferOwnership(address)": "infinite",
				"updateBuybackEnabled(bool)": "22199",
				"updateMarketingWallet(address)": "23072",
				"updateOperationsWallet(address)": "23028",
				"updateSwapEnabled(bool)": "22179",
				"updateSwapTokensAtAmount(uint256)": "infinite"
			},
			"internal": {
				"_approve(address,address,uint256)": "infinite",
				"_getCurrentSupply()": "infinite",
				"_getRValues(struct Jessie.valuesFromGetValues memory,uint256,bool,uint256)": "infinite",
				"_getRate()": "infinite",
				"_getTValues(uint256,bool,bool)": "infinite",
				"_getValues(uint256,bool,bool)": "infinite",
				"_reflectRfi(uint256,uint256)": "41809",
				"_takeBuyback(uint256,uint256)": "infinite",
				"_takeLiquidity(uint256,uint256)": "infinite",
				"_takeMarketing(uint256,uint256)": "infinite",
				"_takeOperations(uint256,uint256)": "infinite",
				"_tokenTransfer(address,address,uint256,bool,bool)": "infinite",
				"_transfer(address,address,uint256)": "infinite",
				"addLiquidity(uint256,uint256)": "infinite",
				"buyBackTokens(uint256)": "infinite",
				"swapAndLiquify(uint256)": "infinite",
				"swapETHForTokens(uint256)": "infinite",
				"swapTokensForBNB(uint256)": "infinite"
			}
		},
		"methodIdentifiers": {
			"_maxWalletSize()": "8f9a55c0",
			"allowance(address,address)": "dd62ed3e",
			"approve(address,uint256)": "095ea7b3",
			"balanceOf(address)": "70a08231",
			"buyBackEnabled()": "6053a0e3",
			"buyBackUpperLimit()": "70e50241",
			"deadAddress()": "27c8f835",
			"decimals()": "313ce567",
			"decreaseAllowance(address,uint256)": "a457c2d7",
			"deliver(uint256)": "3bd5d173",
			"excludeFromFee(address)": "437823ec",
			"excludeFromReward(address)": "52390c02",
			"feeRates()": "7688c584",
			"includeInFee(address)": "ea2f0b37",
			"includeInReward(address)": "3685d419",
			"increaseAllowance(address,uint256)": "39509351",
			"isBot(address)": "3bbac579",
			"isExcludedFromFee(address)": "5342acb4",
			"isExcludedFromReward(address)": "88f82020",
			"marketingAddress()": "a5ece941",
			"maxBuyAmount()": "88e765ff",
			"maxSellAmount()": "66d602ae",
			"name()": "06fdde03",
			"operationsAddress()": "ea4cfe12",
			"owner()": "8da5cb5b",
			"pair()": "a8aa1b31",
			"reflectionFromToken(uint256,bool)": "4549b039",
			"renounceOwnership()": "715018a6",
			"rescueBEP20Tokens(address)": "042cfb51",
			"rescueBNB(uint256)": "441b1d30",
			"router()": "f887ea40",
			"sellFeeRates()": "18a90c44",
			"setAntibot(address,bool)": "e1165545",
			"setBuybackUpperLimit(uint256)": "82d2a4bb",
			"setFeeRates(uint256,uint256,uint256,uint256,uint256)": "68ca6145",
			"setMaxBuyAndSellAmount(uint256,uint256)": "cdebfea3",
			"setMaxWalletPercent(uint256)": "82bf293c",
			"setRouterAddress(address)": "41cb87fc",
			"setSellFeeRates(uint256,uint256,uint256,uint256,uint256)": "abeef102",
			"startTrading()": "293230b8",
			"swapEnabled()": "6ddd1713",
			"swapTokensAtAmount()": "e2f45605",
			"symbol()": "95d89b41",
			"tokenFromReflection(uint256)": "2d838119",
			"totFeesPaid()": "9ba5e4d5",
			"totalSupply()": "18160ddd",
			"tradingEnabled()": "4ada218b",
			"transfer(address,uint256)": "a9059cbb",
			"transferFrom(address,address,uint256)": "23b872dd",
			"transferOwnership(address)": "f2fde38b",
			"updateBuybackEnabled(bool)": "f9e08969",
			"updateMarketingWallet(address)": "aacebbe3",
			"updateOperationsWallet(address)": "30d5d18d",
			"updateSwapEnabled(bool)": "924de9b7",
			"updateSwapTokensAtAmount(uint256)": "d257b34f"
		}
	},
	"abi": [
		{
			"inputs": [
				{
					"internalType": "address",
					"name": "routerAddress",
					"type": "address"
				}
			],
			"stateMutability": "nonpayable",
			"type": "constructor"
		},
		{
			"anonymous": false,
			"inputs": [
				{
					"indexed": true,
					"internalType": "address",
					"name": "owner",
					"type": "address"
				},
				{
					"indexed": true,
					"internalType": "address",
					"name": "spender",
					"type": "address"
				},
				{
					"indexed": false,
					"internalType": "uint256",
					"name": "value",
					"type": "uint256"
				}
			],
			"name": "Approval",
			"type": "event"
		},
		{
			"anonymous": false,
			"inputs": [],
			"name": "FeesChanged",
			"type": "event"
		},
		{
			"anonymous": false,
			"inputs": [
				{
					"indexed": true,
					"internalType": "address",
					"name": "previousOwner",
					"type": "address"
				},
				{
					"indexed": true,
					"internalType": "address",
					"name": "newOwner",
					"type": "address"
				}
			],
			"name": "OwnershipTransferred",
			"type": "event"
		},
		{
			"anonymous": false,
			"inputs": [
				{
					"indexed": false,
					"internalType": "uint256",
					"name": "startDate",
					"type": "uint256"
				}
			],
			"name": "TradingEnabled",
			"type": "event"
		},
		{
			"anonymous": false,
			"inputs": [
				{
					"indexed": true,
					"internalType": "address",
					"name": "from",
					"type": "address"
				},
				{
					"indexed": true,
					"internalType": "address",
					"name": "to",
					"type": "address"
				},
				{
					"indexed": false,
					"internalType": "uint256",
					"name": "value",
					"type": "uint256"
				}
			],
			"name": "Transfer",
			"type": "event"
		},
		{
			"anonymous": false,
			"inputs": [
				{
					"indexed": false,
					"internalType": "address",
					"name": "oldRouter",
					"type": "address"
				},
				{
					"indexed": false,
					"internalType": "address",
					"name": "newRouter",
					"type": "address"
				}
			],
			"name": "UpdatedRouter",
			"type": "event"
		},
		{
			"inputs": [],
			"name": "_maxWalletSize",
			"outputs": [
				{
					"internalType": "uint256",
					"name": "",
					"type": "uint256"
				}
			],
			"stateMutability": "view",
			"type": "function"
		},
		{
			"inputs": [
				{
					"internalType": "address",
					"name": "owner",
					"type": "address"
				},
				{
					"internalType": "address",
					"name": "spender",
					"type": "address"
				}
			],
			"name": "allowance",
			"outputs": [
				{
					"internalType": "uint256",
					"name": "",
					"type": "uint256"
				}
			],
			"stateMutability": "view",
			"type": "function"
		},
		{
			"inputs": [
				{
					"internalType": "address",
					"name": "spender",
					"type": "address"
				},
				{
					"internalType": "uint256",
					"name": "amount",
					"type": "uint256"
				}
			],
			"name": "approve",
			"outputs": [
				{
					"internalType": "bool",
					"name": "",
					"type": "bool"
				}
			],
			"stateMutability": "nonpayable",
			"type": "function"
		},
		{
			"inputs": [
				{
					"internalType": "address",
					"name": "account",
					"type": "address"
				}
			],
			"name": "balanceOf",
			"outputs": [
				{
					"internalType": "uint256",
					"name": "",
					"type": "uint256"
				}
			],
			"stateMutability": "view",
			"type": "function"
		},
		{
			"inputs": [],
			"name": "buyBackEnabled",
			"outputs": [
				{
					"internalType": "bool",
					"name": "",
					"type": "bool"
				}
			],
			"stateMutability": "view",
			"type": "function"
		},
		{
			"inputs": [],
			"name": "buyBackUpperLimit",
			"outputs": [
				{
					"internalType": "uint256",
					"name": "",
					"type": "uint256"
				}
			],
			"stateMutability": "view",
			"type": "function"
		},
		{
			"inputs": [],
			"name": "deadAddress",
			"outputs": [
				{
					"internalType": "address",
					"name": "",
					"type": "address"
				}
			],
			"stateMutability": "view",
			"type": "function"
		},
		{
			"inputs": [],
			"name": "decimals",
			"outputs": [
				{
					"internalType": "uint8",
					"name": "",
					"type": "uint8"
				}
			],
			"stateMutability": "pure",
			"type": "function"
		},
		{
			"inputs": [
				{
					"internalType": "address",
					"name": "spender",
					"type": "address"
				},
				{
					"internalType": "uint256",
					"name": "subtractedValue",
					"type": "uint256"
				}
			],
			"name": "decreaseAllowance",
			"outputs": [
				{
					"internalType": "bool",
					"name": "",
					"type": "bool"
				}
			],
			"stateMutability": "nonpayable",
			"type": "function"
		},
		{
			"inputs": [
				{
					"internalType": "uint256",
					"name": "tAmount",
					"type": "uint256"
				}
			],
			"name": "deliver",
			"outputs": [],
			"stateMutability": "nonpayable",
			"type": "function"
		},
		{
			"inputs": [
				{
					"internalType": "address",
					"name": "account",
					"type": "address"
				}
			],
			"name": "excludeFromFee",
			"outputs": [],
			"stateMutability": "nonpayable",
			"type": "function"
		},
		{
			"inputs": [
				{
					"internalType": "address",
					"name": "account",
					"type": "address"
				}
			],
			"name": "excludeFromReward",
			"outputs": [],
			"stateMutability": "nonpayable",
			"type": "function"
		},
		{
			"inputs": [],
			"name": "feeRates",
			"outputs": [
				{
					"internalType": "uint256",
					"name": "rfi",
					"type": "uint256"
				},
				{
					"internalType": "uint256",
					"name": "operations",
					"type": "uint256"
				},
				{
					"internalType": "uint256",
					"name": "marketing",
					"type": "uint256"
				},
				{
					"internalType": "uint256",
					"name": "liquidity",
					"type": "uint256"
				},
				{
					"internalType": "uint256",
					"name": "buyback",
					"type": "uint256"
				}
			],
			"stateMutability": "view",
			"type": "function"
		},
		{
			"inputs": [
				{
					"internalType": "address",
					"name": "account",
					"type": "address"
				}
			],
			"name": "includeInFee",
			"outputs": [],
			"stateMutability": "nonpayable",
			"type": "function"
		},
		{
			"inputs": [
				{
					"internalType": "address",
					"name": "account",
					"type": "address"
				}
			],
			"name": "includeInReward",
			"outputs": [],
			"stateMutability": "nonpayable",
			"type": "function"
		},
		{
			"inputs": [
				{
					"internalType": "address",
					"name": "spender",
					"type": "address"
				},
				{
					"internalType": "uint256",
					"name": "addedValue",
					"type": "uint256"
				}
			],
			"name": "increaseAllowance",
			"outputs": [
				{
					"internalType": "bool",
					"name": "",
					"type": "bool"
				}
			],
			"stateMutability": "nonpayable",
			"type": "function"
		},
		{
			"inputs": [
				{
					"internalType": "address",
					"name": "account",
					"type": "address"
				}
			],
			"name": "isBot",
			"outputs": [
				{
					"internalType": "bool",
					"name": "",
					"type": "bool"
				}
			],
			"stateMutability": "view",
			"type": "function"
		},
		{
			"inputs": [
				{
					"internalType": "address",
					"name": "account",
					"type": "address"
				}
			],
			"name": "isExcludedFromFee",
			"outputs": [
				{
					"internalType": "bool",
					"name": "",
					"type": "bool"
				}
			],
			"stateMutability": "view",
			"type": "function"
		},
		{
			"inputs": [
				{
					"internalType": "address",
					"name": "account",
					"type": "address"
				}
			],
			"name": "isExcludedFromReward",
			"outputs": [
				{
					"internalType": "bool",
					"name": "",
					"type": "bool"
				}
			],
			"stateMutability": "view",
			"type": "function"
		},
		{
			"inputs": [],
			"name": "marketingAddress",
			"outputs": [
				{
					"internalType": "address",
					"name": "",
					"type": "address"
				}
			],
			"stateMutability": "view",
			"type": "function"
		},
		{
			"inputs": [],
			"name": "maxBuyAmount",
			"outputs": [
				{
					"internalType": "uint256",
					"name": "",
					"type": "uint256"
				}
			],
			"stateMutability": "view",
			"type": "function"
		},
		{
			"inputs": [],
			"name": "maxSellAmount",
			"outputs": [
				{
					"internalType": "uint256",
					"name": "",
					"type": "uint256"
				}
			],
			"stateMutability": "view",
			"type": "function"
		},
		{
			"inputs": [],
			"name": "name",
			"outputs": [
				{
					"internalType": "string",
					"name": "",
					"type": "string"
				}
			],
			"stateMutability": "pure",
			"type": "function"
		},
		{
			"inputs": [],
			"name": "operationsAddress",
			"outputs": [
				{
					"internalType": "address",
					"name": "",
					"type": "address"
				}
			],
			"stateMutability": "view",
			"type": "function"
		},
		{
			"inputs": [],
			"name": "owner",
			"outputs": [
				{
					"internalType": "address",
					"name": "",
					"type": "address"
				}
			],
			"stateMutability": "view",
			"type": "function"
		},
		{
			"inputs": [],
			"name": "pair",
			"outputs": [
				{
					"internalType": "address",
					"name": "",
					"type": "address"
				}
			],
			"stateMutability": "view",
			"type": "function"
		},
		{
			"inputs": [
				{
					"internalType": "uint256",
					"name": "tAmount",
					"type": "uint256"
				},
				{
					"internalType": "bool",
					"name": "deductTransferRfi",
					"type": "bool"
				}
			],
			"name": "reflectionFromToken",
			"outputs": [
				{
					"internalType": "uint256",
					"name": "",
					"type": "uint256"
				}
			],
			"stateMutability": "view",
			"type": "function"
		},
		{
			"inputs": [],
			"name": "renounceOwnership",
			"outputs": [],
			"stateMutability": "nonpayable",
			"type": "function"
		},
		{
			"inputs": [
				{
					"internalType": "address",
					"name": "tokenAddress",
					"type": "address"
				}
			],
			"name": "rescueBEP20Tokens",
			"outputs": [],
			"stateMutability": "nonpayable",
			"type": "function"
		},
		{
			"inputs": [
				{
					"internalType": "uint256",
					"name": "weiAmount",
					"type": "uint256"
				}
			],
			"name": "rescueBNB",
			"outputs": [],
			"stateMutability": "nonpayable",
			"type": "function"
		},
		{
			"inputs": [],
			"name": "router",
			"outputs": [
				{
					"internalType": "contract IRouter",
					"name": "",
					"type": "address"
				}
			],
			"stateMutability": "view",
			"type": "function"
		},
		{
			"inputs": [],
			"name": "sellFeeRates",
			"outputs": [
				{
					"internalType": "uint256",
					"name": "rfi",
					"type": "uint256"
				},
				{
					"internalType": "uint256",
					"name": "operations",
					"type": "uint256"
				},
				{
					"internalType": "uint256",
					"name": "marketing",
					"type": "uint256"
				},
				{
					"internalType": "uint256",
					"name": "liquidity",
					"type": "uint256"
				},
				{
					"internalType": "uint256",
					"name": "buyback",
					"type": "uint256"
				}
			],
			"stateMutability": "view",
			"type": "function"
		},
		{
			"inputs": [
				{
					"internalType": "address",
					"name": "account",
					"type": "address"
				},
				{
					"internalType": "bool",
					"name": "_bot",
					"type": "bool"
				}
			],
			"name": "setAntibot",
			"outputs": [],
			"stateMutability": "nonpayable",
			"type": "function"
		},
		{
			"inputs": [
				{
					"internalType": "uint256",
					"name": "buyBackLimit",
					"type": "uint256"
				}
			],
			"name": "setBuybackUpperLimit",
			"outputs": [],
			"stateMutability": "nonpayable",
			"type": "function"
		},
		{
			"inputs": [
				{
					"internalType": "uint256",
					"name": "_rfi",
					"type": "uint256"
				},
				{
					"internalType": "uint256",
					"name": "_operations",
					"type": "uint256"
				},
				{
					"internalType": "uint256",
					"name": "_marketing",
					"type": "uint256"
				},
				{
					"internalType": "uint256",
					"name": "_liquidity",
					"type": "uint256"
				},
				{
					"internalType": "uint256",
					"name": "_buyback",
					"type": "uint256"
				}
			],
			"name": "setFeeRates",
			"outputs": [],
			"stateMutability": "nonpayable",
			"type": "function"
		},
		{
			"inputs": [
				{
					"internalType": "uint256",
					"name": "_maxBuyamount",
					"type": "uint256"
				},
				{
					"internalType": "uint256",
					"name": "_maxSellAmount",
					"type": "uint256"
				}
			],
			"name": "setMaxBuyAndSellAmount",
			"outputs": [],
			"stateMutability": "nonpayable",
			"type": "function"
		},
		{
			"inputs": [
				{
					"internalType": "uint256",
					"name": "maxWallPercent",
					"type": "uint256"
				}
			],
			"name": "setMaxWalletPercent",
			"outputs": [],
			"stateMutability": "nonpayable",
			"type": "function"
		},
		{
			"inputs": [
				{
					"internalType": "address",
					"name": "newRouter",
					"type": "address"
				}
			],
			"name": "setRouterAddress",
			"outputs": [],
			"stateMutability": "nonpayable",
			"type": "function"
		},
		{
			"inputs": [
				{
					"internalType": "uint256",
					"name": "_rfi",
					"type": "uint256"
				},
				{
					"internalType": "uint256",
					"name": "_operations",
					"type": "uint256"
				},
				{
					"internalType": "uint256",
					"name": "_marketing",
					"type": "uint256"
				},
				{
					"internalType": "uint256",
					"name": "_liquidity",
					"type": "uint256"
				},
				{
					"internalType": "uint256",
					"name": "_buyback",
					"type": "uint256"
				}
			],
			"name": "setSellFeeRates",
			"outputs": [],
			"stateMutability": "nonpayable",
			"type": "function"
		},
		{
			"inputs": [],
			"name": "startTrading",
			"outputs": [],
			"stateMutability": "nonpayable",
			"type": "function"
		},
		{
			"inputs": [],
			"name": "swapEnabled",
			"outputs": [
				{
					"internalType": "bool",
					"name": "",
					"type": "bool"
				}
			],
			"stateMutability": "view",
			"type": "function"
		},
		{
			"inputs": [],
			"name": "swapTokensAtAmount",
			"outputs": [
				{
					"internalType": "uint256",
					"name": "",
					"type": "uint256"
				}
			],
			"stateMutability": "view",
			"type": "function"
		},
		{
			"inputs": [],
			"name": "symbol",
			"outputs": [
				{
					"internalType": "string",
					"name": "",
					"type": "string"
				}
			],
			"stateMutability": "pure",
			"type": "function"
		},
		{
			"inputs": [
				{
					"internalType": "uint256",
					"name": "rAmount",
					"type": "uint256"
				}
			],
			"name": "tokenFromReflection",
			"outputs": [
				{
					"internalType": "uint256",
					"name": "",
					"type": "uint256"
				}
			],
			"stateMutability": "view",
			"type": "function"
		},
		{
			"inputs": [],
			"name": "totFeesPaid",
			"outputs": [
				{
					"internalType": "uint256",
					"name": "rfi",
					"type": "uint256"
				},
				{
					"internalType": "uint256",
					"name": "operations",
					"type": "uint256"
				},
				{
					"internalType": "uint256",
					"name": "marketing",
					"type": "uint256"
				},
				{
					"internalType": "uint256",
					"name": "liquidity",
					"type": "uint256"
				},
				{
					"internalType": "uint256",
					"name": "buyBack",
					"type": "uint256"
				}
			],
			"stateMutability": "view",
			"type": "function"
		},
		{
			"inputs": [],
			"name": "totalSupply",
			"outputs": [
				{
					"internalType": "uint256",
					"name": "",
					"type": "uint256"
				}
			],
			"stateMutability": "view",
			"type": "function"
		},
		{
			"inputs": [],
			"name": "tradingEnabled",
			"outputs": [
				{
					"internalType": "bool",
					"name": "",
					"type": "bool"
				}
			],
			"stateMutability": "view",
			"type": "function"
		},
		{
			"inputs": [
				{
					"internalType": "address",
					"name": "recipient",
					"type": "address"
				},
				{
					"internalType": "uint256",
					"name": "amount",
					"type": "uint256"
				}
			],
			"name": "transfer",
			"outputs": [
				{
					"internalType": "bool",
					"name": "",
					"type": "bool"
				}
			],
			"stateMutability": "nonpayable",
			"type": "function"
		},
		{
			"inputs": [
				{
					"internalType": "address",
					"name": "sender",
					"type": "address"
				},
				{
					"internalType": "address",
					"name": "recipient",
					"type": "address"
				},
				{
					"internalType": "uint256",
					"name": "amount",
					"type": "uint256"
				}
			],
			"name": "transferFrom",
			"outputs": [
				{
					"internalType": "bool",
					"name": "",
					"type": "bool"
				}
			],
			"stateMutability": "nonpayable",
			"type": "function"
		},
		{
			"inputs": [
				{
					"internalType": "address",
					"name": "newOwner",
					"type": "address"
				}
			],
			"name": "transferOwnership",
			"outputs": [],
			"stateMutability": "nonpayable",
			"type": "function"
		},
		{
			"inputs": [
				{
					"internalType": "bool",
					"name": "_enabled",
					"type": "bool"
				}
			],
			"name": "updateBuybackEnabled",
			"outputs": [],
			"stateMutability": "nonpayable",
			"type": "function"
		},
		{
			"inputs": [
				{
					"internalType": "address",
					"name": "newWallet",
					"type": "address"
				}
			],
			"name": "updateMarketingWallet",
			"outputs": [],
			"stateMutability": "nonpayable",
			"type": "function"
		},
		{
			"inputs": [
				{
					"internalType": "address",
					"name": "newWallet",
					"type": "address"
				}
			],
			"name": "updateOperationsWallet",
			"outputs": [],
			"stateMutability": "nonpayable",
			"type": "function"
		},
		{
			"inputs": [
				{
					"internalType": "bool",
					"name": "_enabled",
					"type": "bool"
				}
			],
			"name": "updateSwapEnabled",
			"outputs": [],
			"stateMutability": "nonpayable",
			"type": "function"
		},
		{
			"inputs": [
				{
					"internalType": "uint256",
					"name": "amount",
					"type": "uint256"
				}
			],
			"name": "updateSwapTokensAtAmount",
			"outputs": [],
			"stateMutability": "nonpayable",
			"type": "function"
		},
		{
			"stateMutability": "payable",
			"type": "receive"
		}
	]
}